:020000040800F2
:1000000000000524A53000087D1C00087F1C0008A6
:10001000811C0008831C0008851C000800000000EB
:10002000000000000000000000000000B1CE000849
:10003000871C00080000000041CF0008E1C600084E
:10004000F5300008F5300008F5300008F5300008FC
:10005000F5300008F5300008F5300008F5300008EC
:10006000F5300008F5300008F5300008F5300008DC
:10007000F5300008F5300008F5300008F5300008CC
:10008000F5300008F5300008F5300008F5300008BC
:10009000F5300008F5300008F5300008F5300008AC
:1000A000F5300008F5300008F5300008891C00081C
:1000B000F5300008F5300008951C0008F530000800
:1000C000F5300008F5300008F5300008F53000087C
:1000D000F5300008F5300008F5300008F53000086C
:1000E000F5300008F530000800000000F530000889
:1000F000F5300008F5300008F5300008F53000084C
:10010000F5300008F5300008F5300008F53000083B
:10011000F5300008F5300008A11C0008F530000893
:10012000F5300008F5300008F5300008F53000081B
:10013000F5300008F5300008F5300008F53000080B
:1001400000000000000000000000000000000000AF
:10015000F5300008F5300008F5300008F5300008EB
:10016000F5300008F5300008F5300008F5300008DB
:10017000F5300008F5300008F5300008F5300008CB
:10018000F5300008F5300008F5300008F5300008BB
:10019000F5300008F5300008F5300008F5300008AB
:1001A000AD1C0008F5300008B91C00080000000074
:1001B000F5300008F5300008F5300008F53000088B
:1001C000F5300008F53000080000000000000000D5
:1001D0000000000000000000F530000800000000F2
:1001E000000000000000000000000000000000000F
:1001F0000000000000000000F5300008F5300008A5
:10020000F5300008F530000800000000F530000867
:10021000F5300008F5300008F5300008F53000082A
:10022000F530000800000000F53000080000000074
:10023000F5300008F530000800000000F530000837
:10024000F5300008F5300008F5300008F5300008FA
:10025000F5300008F5300008F5300008F5300008EA
:10026000F5300008F5300008F5300008F5300008DA
:10027000F5300008F5300008F530000800000000F7
:10028000F5300008F5300008F5300008F5300008BA
:1002900000000000F5300008F5300008F5300008D7
:1002A000F5300008F5300008F5300008F53000089A
:1002B000F5300008F5300008F5300008F53000088A
:0C02C000F5300008F5300008F5300008AB
:1002D00010B5054C237833B9044B13B10448AFF380
:1002E00000800123237010BD78010024000000006D
:1002F000C8F1020808B5034B1BB103490348AFF32B
:10030000008008BD000000007C010024C8F1020844
:1003100001F0FF01102A2BDB10F0070F08D010F8B6
:10032000013B013A8B422DD010F0070F42B3F6D1BA
:10033000F0B441EA012141EA014122F007047FF0D3
:1003400000070023F0E80256083C85EA010586EA2A
:10035000010685FA47F5A3FA87F586FA47F6A5FA66
:1003600087F68EB9EED1F0BC01F0FF0102F0070272
:1003700032B110F8013B013A83EA010313B1F8D11D
:100380000020704701387047002D06BF35460338FE
:10039000073815F0010F07D1013015F4807F02BF37
:1003A000013015F4C03F0130F0BC0138704700BF88
:1003B00081F0004102E000BF83F0004330B54FEA16
:1003C00041044FEA430594EA050F08BF90EA020F83
:1003D0001FBF54EA000C55EA020C7FEA645C7FEA16
:1003E000655C00F0E2804FEA5454D4EB5555B8BF39
:1003F0006D420CDD2C4480EA020281EA030382EAAA
:10040000000083EA010180EA020281EA0303362D3B
:1004100088BF30BD11F0004F4FEA01314FF4801C0E
:100420004CEA113102D0404261EB410113F0004F20
:100430004FEA03334CEA133302D0524263EB4303D7
:1004400094EA050F00F0A780A4F10104D5F1200E75
:100450000DDB02FA0EFC22FA05F2801841F10001D0
:1004600003FA0EF2801843FA05F359410EE0A5F1A4
:1004700020050EF1200E012A03FA0EFC28BF4CF0D5
:10048000020C43FA05F3C01851EBE37101F000458B
:1004900007D54FF0000EDCF1000C7EEB00006EEB98
:1004A0000101B1F5801F1BD3B1F5001F0CD3490822
:1004B0005FEA30004FEA3C0C04F101044FEA445279
:1004C00012F5800F80F09A80BCF1004F08BF5FEA00
:1004D000500C50F1000041EB045141EA050130BDE0
:1004E0005FEA4C0C404141EB0101013C28BFB1F5F2
:1004F000801FE9D291F0000F04BF01460020B1FA3D
:1005000081F308BF2033A3F10B03B3F120020CDA0F
:100510000C3208DD02F1140CC2F10C0201FA0CF0ED
:1005200021FA02F10CE002F11402D8BFC2F1200C52
:1005300001FA02F120FA0CFCDCBF41EA0C01904008
:10054000E41AA2BF01EB0451294330BD6FEA040451
:100550001F3C1CDA0C340EDC04F11404C4F120023C
:1005600020FA04F001FA02F340EA030021FA04F34E
:1005700045EA030130BDC4F10C04C4F1200220FAA5
:1005800002F001FA04F340EA0300294630BD21FAE3
:1005900004F0294630BD94F0000F83F4801306BFA9
:1005A00081F480110134013D4EE77FEA645C18BF9D
:1005B0007FEA655C29D094EA050F08BF90EA020F34
:1005C00005D054EA000C04BF1946104630BD91EA2C
:1005D000030F1EBF0021002030BD5FEA545C05D12F
:1005E0004000494128BF41F0004130BD14F580046E
:1005F0003CBF01F5801130BD01F0004545F0FE41E2
:1006000041F470014FF0000030BD7FEA645C1ABF16
:10061000194610467FEA655C1CBF0B46024650EA4D
:10062000013406BF52EA033591EA030F41F4002179
:1006300030BD00BF90F0000F04BF0021704730B5FF
:100640004FF4806404F132044FF000054FF00001D4
:1006500050E700BF90F0000F04BF0021704730B595
:100660004FF4806404F1320410F0004548BF40426A
:100670004FF000013EE700BF42004FEAE2014FEABF
:1006800031014FEA02701FBF12F07F4393F07F4F9A
:1006900081F06051704732F07F4208BF704793F09D
:1006A0007F4F04BF41F40021704730B54FF46074B0
:1006B00001F0004521F000411CE700BF50EA0102B3
:1006C00008BF704730B54FF000050AE050EA01025C
:1006D00008BF704730B511F0004502D5404261EBCC
:1006E00041014FF4806404F132045FEA915C3FF40D
:1006F000D8AE4FF003025FEADC0C18BF03325FEAAA
:10070000DC0C18BF033202EBDC02C2F1200300FA5A
:1007100003FC20FA02F001FA03FE40EA0E0021FA7F
:1007200002F11444BDE600BF53B94AB9002908BF1D
:1007300000281CBF4FF0FF314FF0FF3000F06AB9C6
:10074000ADF1080C6DE904CE00F006F8DDF804E028
:10075000DDE9022304B070472DE9F047089D0C46FF
:10076000002B4ED194468C458646B2FA82F262D96D
:100770004AB1C2F12003914020FA03F30CFA02FCC3
:10078000194300FA02FE4FEA1C471FFA8CF6B1FB30
:10079000F7F44FEA1E4307FB141143EA014304FB3D
:1007A00006F199420AD91CEB030304F1FF3080F0F3
:1007B0001281994240F20F81023C6344591A1FFA98
:1007C0008EF3B1FBF7F007FB101143EA014300FB86
:1007D00006F69E420AD91CEB030300F1FF3180F0BC
:1007E000FC809E4240F2F980634402389B1B40EA41
:1007F000044000211DB1D3400022C5E90032BDE80C
:10080000F0878B4205D90DB1C5E9000100210846EA
:10081000F5E7B3FA83F1002946D1A34202D390420F
:10082000C0F0F080861A64EB03030120002DE6D0AF
:10083000C5E90063E3E7002A40F09080A1EB0C04D7
:100840004FEA1C481FFA8CF70121B4FBF8F64FEA77
:100850001E4308FB164443EA044307FB06F0984294
:1008600008D91CEB030306F1FF3402D2984200F2D0
:10087000CD8026461C1A1FFA8EF3B4FBF8F008FB55
:10088000104443EA044300FB07F79F4208D91CEBDE
:10089000030300F1FF3402D29F4200F2B0802046F1
:1008A000DB1B40EA0640A5E7C1F120068B4022FA97
:1008B00006F71F4320FA06FC04FA01F343EA0C038F
:1008C000F44000FA01F8380C4FEA1349B4FBF0FE8B
:1008D0001FFA87FC00FB1E4449EA04440EFB0CF996
:1008E000A14502FA01F20AD93C190EF1FF3A80F053
:1008F0008480A14540F28180AEF1020E3C44A4EB1D
:1009000009041FFA83F9B4FBF0F300FB134449EA2E
:10091000044403FB0CFCA44507D93C1903F1FF3048
:1009200067D2A44565D9023B3C4443EA0E40A0FB94
:100930000293A4EB0C049C42CE469C4651D34ED06D
:1009400055B1B8EB0E0364EB0C0404FA06F6CB4089
:100950001E43CC40C5E90064002150E7C2F12003EA
:1009600020FA03F10CFA02FC24FA03F394400C433E
:100970004FEA1C4800FA02FE1FFA8CF7B3FBF8F0AE
:1009800008FB1031230C43EA014300FB07F19942B5
:1009900008D91CEB030300F1FF362CD299422AD967
:1009A000023863445B1AA4B2B3FBF8F108FB1133BD
:1009B00044EA034401FB07F3A34208D91CEB0404F7
:1009C00001F1FF3613D2A34211D902396444E41A6B
:1009D00041EA004139E70446F0E6084606E7C84523
:1009E000AED2B9EB020E63EB070C0138A8E7314633
:1009F000EDE7034699E73046D4E7D6467FE7634400
:100A000002384DE70646234608460FE7023E634498
:100A100030E700BF704700BF014900200DF00EBC59
:100A2000A135000808B564200BF0DBFEFBE70000F1
:100A300038B5214DEB68AA6801339C1A09F0FAFA1F
:100A40006B68B3F5005F2DD020D8B3F5805F2BD055
:100A500016D85BB3A3F500656B426B415B005C434A
:100A60004FF47A73144D2403B0FBF3F0B4FBF0F4AD
:100A7000013420460BF0B5FE28460BF02CFEF8E7BB
:100A8000A3F5C0514B424B41DB00E8E7B3F5405FB3
:100A90000ED0B3F5605F0DD0A3F520525342534101
:100AA0005B01DCE71023DAE70423D8E70123D6E76C
:100AB0004023D4E78023D2E718A3002408B501F02F
:100AC000BFFB04200BF08DFEF9E708B502F0BAFA7F
:100AD00032200BF086FEF9E708B501F0D3F941F2B8
:100AE00088300BF07EFEF8E708B501F0AFFA41F26E
:100AF00088300BF076FEF8E708B501F0FFFA41F216
:100B000088300BF06EFEF8E707B54FF6FF730190E3
:100B1000012201A903480BF080FC019803B05DF8A5
:100B200004FB00BF2CA3002430B59DB04C22002153
:100B300009A82DF0B5FB2022002101A82DF0B0FB63
:100B4000042008F0D5FD002300931B4B9A6922F482
:100B500040429A619A6902F440420092009A9A696E
:100B60009404FCD501224FF4803368210520002431
:100B7000082516921B94CDE9092302230422CDE90E
:100B8000140109A8CDE91723CDE91233CDE9195491
:100B900008F0ECFD03213F234FF4806201A8CDE96A
:100BA00001314023CDE90345CDE90533CDE90723E4
:100BB00009F0F8F81DB030BD0048025800B54FF0FC
:100BC0000072AFB000236846CDE9002320235022F5
:100BD00013930523CDE9023204930223CDE90533B3
:100BE0000023CDE90833079309F062FB2FB05DF8CD
:100BF00004FB000008B5134A002113482DF050FBF8
:100C00004FF4F062002111482DF04AFB0D4B104AC1
:100C100000200D4905F0D6FC78B10E482DF0D8F92A
:100C20004FF4F0630C4A0020074905F0CBFC30B1CB
:100C30000A48BDE808402DF0CBB90948EEE709485D
:100C4000F7E700BF00FA050080EF177000E81770A3
:100C50008007000020F20208000000003EF20208B7
:100C60002EF202084CF202082DE98048A1B01022B1
:100C7000002113A82DF014FB06F0B4FE40F201137E
:100C80004FF0E04E13A8ADF84C30D24BCDE914E351
:100C9000D14B169306F0C4FE042006F0B1FECF4BF4
:100CA0005A6912F4003211D1BFF34F8FBFF36F8F27
:100CB000C3F85022BFF34F8FBFF36F8F5A6942F4CE
:100CC00000325A61BFF34F8FBFF36F8FC34A53692E
:100CD00013F4803323D1C2F88430BFF34F8FD2F89E
:100CE000803043F6E074C3F3C900C3F34E335B01B5
:100CF00003EA0406014646EA81750139C2F86052EA
:100D0000F9D2203B13F1200FF2D1BFF34F8F53697B
:100D100043F480335361BFF34F8FBFF36F8F06F0FF
:100D2000E7F80024FFF700FF0125FFF747FF142233
:100D3000002113A82DF0B4FAA94B48F20801A948E4
:100D4000D3F8E0204FF008094FF0020A032742F0E1
:100D500002024FF480684FF4403BA34EC3F8E020FA
:100D6000D3F8E02002F002020092009AD3F8E020CB
:100D700042F04002C3F8E020D3F8E02002F0400245
:100D80000192019AD3F8E02042F00802C3F8E02073
:100D9000D3F8E02002F008020292029AD3F8E02091
:100DA00042F01002C3F8E020D3F8E02002F0100275
:100DB0000392039AD3F8E02042F00102C3F8E02046
:100DC000D3F8E02002F001020492049AD3F8E02064
:100DD00042F00402C3F8E020D3F8E02002F004025D
:100DE0000592059AD3F8E02042F08002C3F8E02093
:100DF000D3F8E02002F080020692069AD3F8E020B1
:100E000042F02002C3F8E0200022D3F8E03003F0E3
:100E100020030793079B07F0D7F800224FF44041C7
:100E2000724807F0D1F800224FF48061704807F053
:100E3000CBF8002201216F4807F0C6F813A96E48CD
:100E40001595CDE9139406F041FF4FF4005313A913
:100E50006A48CDF854A0CDE9133406F037FF4FF4BB
:100E6000004313A95F48CDE91335CDE9154406F0D9
:100E70002DFF202313A95B481595CDE9133406F007
:100E800025FF402313A95E48CDF85CA0CDE9133AB5
:100E9000CDE9154406F01AFF13A952481697159488
:100EA000CDE9139506F012FF4FF4807313A954484F
:100EB0001595CDE9133406F009FF4FF4404313A90B
:100EC0004A48CDE91335CDE9154706F0FFFE13A9D1
:100ED0004748CDE91385CDE9154406F0F7FE13A97F
:100EE0004448CDE91355CDE9154706F0EFFE4548D6
:100EF000454B056203608480C0E9054406F0BCFDF3
:100F0000424B4348C0E9003BC0E9025406F015FEDD
:100F10003422214613A82DF0C3F93E4B2822352157
:100F200040F2152040F2352C3461B48686F8364004
:100F3000C6E900340923C6E905230B23C6E90713D4
:100F400040F21B13C6E9090340F21D133046C6E9FF
:100F50000BC3C6E9024407F077FCFF214FF0050EF2
:100F60004FF488734FF4F0723046CDF868804FF03C
:100F700004081394ADF87C408DF87E40264ECDE9F0
:100F800018144FF0E041CDE91D23CDE91BE1CDE977
:100F9000142413A92246CDE9163507F020FD1823A5
:100FA000214613A81A462DF07BF9102221460AA8E3
:100FB0002DF076F9214614220EA82DF071F9174A6A
:100FC00018233046B460C6E900284FF08062C6E9B5
:100FD000032325E01A0001030001010100ED00E0F8
:100FE0000044025800180258D8A4002400040258F3
:100FF000000C025800000258001002580008025865
:1010000000140258E8A50024004C025800100052B9
:1010100080A50024001000507CA4002400A00052F1
:101020004FF080521723C6E90B234FF4C873C6E96B
:101030000584C6E909A4F363C6E90744C6E90D447B
:10104000CDE9084407F058FEB04B41F2883213A9AD
:10105000169303F57F033046CDF854A01793CDE9DE
:1010600013AA08F0D5F8062341F288320AA93046BF
:101070000A970D954FF6FF7AA54FCDE90B3407F08F
:1010800011FF4FF4405341F288320EA910934FF0F4
:1010900000533046119512930E940F9407F028FFD9
:1010A00008A93046089408F043F801F0F9FF10222F
:1010B00021460EA82DF0F4F8964E1022214613A8D2
:1010C0000C94CDE90A442DF0EBF8934B3046B46014
:1010D000C6E90034C6E903A4C6E905440AF0CCFB1E
:1010E0004FF480520EA930460E920AF005FD3046AC
:1010F0000AF0F2FB0AA930460C94CDE90A440AF042
:10110000C9FE0C2213A93046CDE91345CDE915449B
:101110000AF054FC2146102213A81094CDE90E4485
:101120002DF0BEF87D4A38463C61BC61C7E9002419
:10113000C7E9024A0AF0D0FB0EA938460E94109473
:101140000AF0A8FE0C2213A93846DFF854A2CDE914
:101150001345CDE915440AF031FC2146242213A899
:101160001094CDE90E442DF09BF86D4A5046CAF814
:101170001C50CAF80890AAF818408AF82040CAF80B
:1011800030408AF84440CAE9002BCAE90448CAE959
:101190000A44CAE90F4406F01FFA0EA950460E94FD
:1011A00006F068FB06235F4A13A95046159418946D
:1011B0008DF86D40CDE9132340F2FF72CDE916287A
:1011C00005F00AFF1422214613A82DF069F8DFF874
:1011D000D481554B7F20C8F81040C8F814400E94B5
:1011E000C8E90034FF23C8E902034046C8E90644C1
:1011F0000AF0E0F82A4613A94046ADF84C408DF8B5
:101200004E40CDE916440AF02CF9484B2A460EA967
:10121000474D40460E934FF00C080AF084F9DFF872
:1012200088C14FF4E13328462C61C5E900C3C5E904
:101230000244C5E90584C5E90744C5E909440BF042
:101240009CF9214628460BF006FA214628460BF069
:1012500022FA28460BF0E4F901F04EFF01F04BFFB3
:1012600001F0EAFE00F086FD00F062FE41463046E5
:101270000AF00AFD414638460AF006FD00F05CFF20
:10128000FFF7B8FC0BF03AFA2A4A21462A480BF03D
:1012900061FA2A4B2A4A214618602A480BF05AFA6A
:1012A000294B2A4A2146186029480BF053FA294B4A
:1012B000294A2146186029480BF04CFA284B294A44
:1012C0002146186028480BF045FA284B284A214649
:1012D000186028480BF03EFA274B284A2146186030
:1012E00027480BF037FA274B274A21461860274832
:1012F0000BF030FA264B274A2146186026480BF09F
:1013000029FA264B18600BF00BFAFEE702000100E9
:10131000C0A300240CA400240000014000080040E9
:10132000002002400200300400400058010101008A
:101330002CA30024F0F30208250A000814A30024BB
:10134000CCF302080731000864A00024A8F30208C7
:101350004D4B000860A0002484F30208310A000805
:10136000B08F002460F30208BD0A0008008D00243D
:101370003CF30208CB0A0008500C002418F30208C2
:10138000D90A0008A0090024F4F20208E90A0008BA
:10139000F0060024D0F20208F90A000840040024F4
:1013A0000CA6002458A40024004800400268034B07
:1013B0009A4201D105F0CABD704700BF001000403D
:1013C000704700000A4B82B00F216FF00100D3F884
:1013D000F42042F00202C3F8F4200022D3F8F430E3
:1013E00003F002030193019B02B006F0BBBA00BFF9
:1013F00000440258026882B0114B9A421ED1114B30
:101400004FF00071D3F8D820084642F02002C3F80C
:10141000D820D3F8D82002F020020092009AD3F806
:10142000E02042F00102C3F8E020D3F8E03003F0FE
:1014300001030193019B02B005F0ACBD02B07047FF
:101440000020024000440258026882B0094B9A42D0
:101450000DD1A3F50063D3F8E02042F40022C3F8D5
:10146000E020D3F8E03003F400230193019B02B0A5
:10147000704700BF004C02580F4B07B502689A42F4
:1014800017D10E4B05215A20D3F8D42042F0100278
:10149000C3F8D4200022D3F8D43003F01003019312
:1014A000019B06F05FFA5A2003B05DF804EB06F0EA
:1014B0008BBA03B05DF804FB0010005200440258E0
:1014C0002DE9F041BCB004461422002109A82CF0FB
:1014D000E7FEB82200210EA82CF0E2FE2268774B2E
:1014E0009A4240F0E7804FF0005200230EA8CDE969
:1014F0000E234FF490731922CDE918230223CDE96E
:101500001A331E231C934FF400731E9308F0D0FE71
:1015100008B1FFF755FF6A4B002402260325D3F8D4
:10152000E4200E2709A9674842F008024FF0580846
:10153000C3F8E420D3F8E42002F008020192019AF3
:10154000D3F8E02042F00202C3F8E020D3F8E02014
:1015500002F002020292029AD3F8E02042F008025E
:10156000C3F8E020D3F8E02002F008020392039AC7
:10157000D3F8E02042F01002C3F8E020D3F8E020D6
:1015800002F010020492049AD3F8E02042F0010223
:10159000C3F8E020D3F8E02002F001020592059A9A
:1015A000D3F8E02042F04002C3F8E020D3F8E02076
:1015B00002F040020692069AD3F8E02042F0800240
:1015C000C3F8E020D3F8E02002F080020792079AE7
:1015D000D3F8E02042F00402C3F8E020D3F8E03072
:1015E0000D9703F004030893089B40F20333CDE901
:1015F0000B45CDE9093606F069FB492309A93248B4
:101600000D97CDE90936CDE90B4506F05FFB4BF6AA
:10161000030309A92D480D97CDE90936CDE90B45FE
:1016200006F054FB4FF4807309A92948CDE9093627
:101630000D23CDE90B450D9306F048FB4FF4814394
:1016400009A924480D97CDE90936CDE90B4506F0E7
:101650003DFB48F6087309A91F480D97CDE90936E7
:10166000CDE90B4506F032FBC02309A91B480D97B5
:10167000CDE90936CDE90B4506F028FB09A9144848
:101680000D97CDE90986CDE90B4506F01FFB102328
:1016900009A91148CDE909360923CDE90B450D9378
:1016A00006F014FB40462246052106F05BF9404651
:1016B00006F08AF93CB0BDE8F08100BF0010005090
:1016C0000044025800040258000C0258001002584E
:1016D0000000025800180258001C02580008025866
:1016E0002DE9F04391B00446142200210BA82CF000
:1016F000D7FD2368884A934240F0B080874A136838
:101700000133012B13600CD1854BD3F8D42042F464
:101710000012C3F8D420D3F8D43003F4001300939C
:10172000009B7F4B022503240927D3F8D4200BA963
:101730007C48002642F480424FF00A084FF004092A
:10174000C3F8D420D3F8D42002F480420192019A45
:10175000D3F8E02042F04002C3F8E020D3F8E020C4
:1017600002F040020292029AD3F8E02042F008020E
:10177000C3F8E020D3F8E02002F008020392039AB5
:10178000D3F8E02042F01002C3F8E020D3F8E020C4
:1017900002F010020492049AD3F8E02042F02002F2
:1017A000C3F8E020D3F8E02002F020020592059A69
:1017B000D3F8E02042F00202C3F8E020D3F8E03092
:1017C00003F002030693069B4FF40073CDE90B353B
:1017D000CDE90E4706F07AFAB0230BA95248CDF8AE
:1017E0003C80CDE90B35CDE90D6406F06FFA0BA90D
:1017F0004E480F97CDE90B95CDE90D6406F066FADA
:1018000040230BA94748CDF83C80CDE90B35CDE905
:101810000D6406F05BFA4FF460530BA942480F9732
:10182000CDE90B35CDE90D6406F050FA4FF4806335
:101830000BA93F480F97CDE90B35CDE90D6406F0B4
:1018400045FA0BA93B48CDF83C80CDE90B95CDE995
:101850000D6406F03BFA11B0BDE8F083364A9342BE
:10186000F9D12E4A13680133012B13600CD12C4B94
:10187000D3F8D42042F40012C3F8D420D3F8D430E3
:1018800003F400130793079B254B03240225092625
:10189000D3F8D4200BA92348002742F40022C3F830
:1018A000D420D3F8D42002F400220892089AD3F866
:1018B000E02042F04002C3F8E020D3F8E02002F03C
:1018C00040020992099AD3F8E02042F02002C3F8BE
:1018D000E020D3F8E03003F020030A930A9B40F69F
:1018E0000303CDE90E46CDE90B3506F0EFF94FF4D1
:1018F000A0530BA90B480F94CDE90B35CDE90D741E
:1019000006F0E4F941F21F030BA909480F96CDE94F
:101910000B35CDE90D749CE7005000527CA60024E5
:101920000044025800180258000C025800100258D7
:10193000001402580004025800A00052274A08B5BB
:10194000036893422AD1264B1A68013A1A60254B44
:101950002AB9D3F8D42022F40012C3F8D420D3F843
:10196000D4204FF41071204822F48042C3F8D420D0
:1019700006F08EFA43F6B0011C4806F089FA0421FD
:101980001B4806F085FA4FF480611A4806F080FA89
:1019900004211948BDE8084006F07ABA174A934274
:1019A0001AD10F4B1A68013A1A600E4B2AB9D3F8B4
:1019B000D42022F40012C3F8D420D3F8D42041F666
:1019C0000341094822F40022C3F8D42006F060FA4B
:1019D00041F21F010748DDE708BD00BF005000527B
:1019E0007CA600240044025800180258000C02583B
:1019F00000100258001402580004025800A00052BF
:101A000010B5AEB00446B822002168462CF048FC60
:101A100022680C4B9A4212D100234FF48002684690
:101A2000CDE900234FF400732C9308F041FC08B17A
:101A3000FFF7C6FC044A136F43F4004313672EB04C
:101A400010BD00BF004000580044025810B588B0D7
:101A500004461422002103A82CF022FC2268194B12
:101A60009A422CD1184B03A91848D3F8F02042F021
:101A70000102C3F8F020D3F8F02002F00102019235
:101A8000019AD3F8E02042F01002C3F8E0204FF4AE
:101A90008042D3F8E03003F010030293029B02234C
:101AA000CDE9032305930123079306F00FF91B20CB
:101AB0000022052105F056FF1B2005F085FF08B028
:101AC00010BD00BF00000140004402580010025841
:101AD00010B588B004461422002103A82CF0E0FBC6
:101AE0002268184B9A422AD1174B03A91748D3F8FA
:101AF000E82042F00402C3F8E820D3F8E82002F01E
:101B000004020192019AD3F8E02042F00802C3F8DF
:101B1000E0204FF40042D3F8E03003F008030293D2
:101B2000029B0223CDE90323079306F0CFF81E2082
:101B30000022052105F016FF1E2005F045FF08B024
:101B400010BD00BF0008004000440258000C0258BD
:101B500010B5B6B004461422002103A82CF0A0FB57
:101B6000B822002108A82CF09BFB22681A4B9A424D
:101B700030D10222002308A8CDE9082308F098FB01
:101B800008B1FFF71DFC154B03A91548D3F8E82051
:101B900042F48022C3F8E820D3F8E82002F480223F
:101BA0000192019AD3F8E02042F00802C3F8E02045
:101BB0004FF44072D3F8E03003F008030293029B25
:101BC0000223CDE903230023CDE90533072307933F
:101BD00006F07CF836B010BD0048004000440258C2
:101BE000000C02580F2810B504468AB002D9012013
:101BF0000AB010BD01460022362005F0B3FE3620A3
:101C000005F0E2FE184B694602A81C60174BD3F89A
:101C1000E82042F01002C3F8E820D3F8E83003F0DF
:101C200010030193019B08F029FA079BC3B908F040
:101C300001FA0F4C0F4B236040F2E733E3600E4B89
:101C4000B0FBF3F001380023606020462361A360FD
:101C500009F012FE0028CAD1204609F0AFFCC7E700
:101C600008F0E8F94000E4E7AC0000240044025822
:101C700080A600240010004040420F007047FEE79D
:101C8000FEE7FEE7FEE77047014809F0E0BC00BF51
:101C90000CA40024014809F0DABC00BFC0A3002452
:101CA000014809F0D4BC00BF80A60024014806F01A
:101CB00039BE00BFD8A40024014805F07DBF00BF95
:101CC00080A500240120704708B52CF0F3FB1623F3
:101CD00003604FF0FF3008BD08B52CF0EBFB162376
:101CE0000360FEE770B50D4614460E46731B9C421A
:101CF00001DC204670BDAFF3008006F8010BF5E76C
:101D000070B50D4614460E46731B9C4201DC2046FE
:101D100070BD16F8010BFEF7F7FEF5E74FF0FF3048
:101D200070474FF4005300204B607047012070470C
:101D3000002070470B4A0346116810B509B90A49DB
:101D40001160106809490A4C0344091B8B4206D9EB
:101D50002CF0B0FB0C2303604FF0FF3010BD13607C
:101D6000FCE700BFCCA60024C80C02240000052418
:101D7000001000000123024A1370024A13707047DA
:101D800001A7002400A7002410B50020002400F0C3
:101D9000ABFA054A034605491060054A4C601068D5
:101DA0001360181A086010BDECA60024E0A60024F9
:101DB000E8A60024024B034819682CF009B900BFBB
:101DC000D8A6002414F4020810B5FFF7DDFF124B6B
:101DD000124C1860124B1968124BB0FBF1F11B68E2
:101DE00021605943104B11481960114B1B68B1FB1E
:101DF000F3F1104B1960104B1A68114419602CF064
:101E0000E7F80E4A216813680B440D49BDE81040FD
:101E10000B601360FFF7CEBFFCA60024F4A60024DD
:101E2000080000240C000024F8A6002426F4020870
:101E300010000024F0A60024DCA60024D8A600246C
:101E4000D4A6002408B5FFF7BFFF044B044A1B6863
:101E500012685343034A136008BD00BFF0A6002474
:101E600004000024D0A60024054B1B78012B01D1CF
:101E7000FFF7AABF022B01D1FFF7E4BF704700BFF5
:101E800000A7002408B501F09DF8C0B2022806D1D1
:101E900005482CF005F9054B00221A6008BDBDE885
:101EA0000840FFF7E1BF00BF30F40208F0A60024AD
:101EB000114B4FF47A721A604FF461620F4B1A6043
:101EC00064220F4B1A6001220E4B1A6005220E4B42
:101ED0001A603C220D4B1A70C8220D4B1A60322238
:101EE0000C4B1A7010220C4B1A7028220B4B1A70D4
:101EF0007D220B4B1A60704750A700244CA700248A
:101F000048A7002444A7002440A700243CA700249D
:101F100038A700242DA700242CA7002434A70024D0
:101F200030A7002401482CF0BBB800BF47F40208DA
:101F300008B5074A002307481370074A1370FFF7D4
:101F4000B7FF2CF0ADF8BDE80840FFF7EBBF00BFCE
:101F500055A700246EF4020854A7002408B50020F9
:101F600000F0C2F90649074B024618600B680A6088
:101F7000C01A054B48BF00F1FF30186008BD00BF14
:101F800020A7002424A7002428A7002408B5FFF7D1
:101F9000E5FF114B114A1860114B12681968114B7B
:101FA000B0FBF1F11960104B10481B685943104BFE
:101FB0001960104B1B6859430F4B19600F4B1B687E
:101FC00053430F4AB1FBF3F113600E4B1960BDE8A8
:101FD00008402BF0FDBF00BF14A700244CA700242D
:101FE00044A7002418A7002448A700248DF4020861
:101FF0001CA7002450A7002410A7002440A70024F9
:102000000CA7002408A7002408B5FFF7BFFF064B64
:10201000064A1B7812685343054A1278B3FBF2F361
:10202000044A136008BD00BF2CA7002408A70024A1
:102030002DA7002404A70024034B1B780BB9FFF73E
:10204000A5BFFFF7E1BF00BF54A7002408B500F00B
:10205000B9FFC0B2022808D106482CF021F80023AD
:10206000054A1360054A136008BDBDE80840FFF744
:10207000E3BF00BF96F4020808A7002404A70024C9
:1020800008B5012000F030F90B490C4B02461860EE
:102090000B680A60C31A0A4848BF03F1FF330360A4
:1020A000084803600848834236BF3C204FF0FF30A9
:1020B0005843064B186008BD64A7002460A700249D
:1020C0005CA7002458A700244444440468A70024C3
:1020D000094B10B51A686FF42F74224442F622445B
:1020E000A24207D9427842F00802427001220A70E7
:1020F00000221A60188810BD68A7002407B500F0F8
:1021000061FFC0B2022808D1094B002209481A60B9
:1021100003B05DF804EB2BF0C3BFFFF7B1FF0DF187
:10212000030101A8FFF7D4FF03B05DF804FB00BF73
:1021300068A70024B0F402082DE9F34740F2011328
:10214000354C0020ADF8043004F02EFB01A900202E
:1021500004F01CFC002846D1304D002004F0DAFACF
:102160000446002843D100F043FD002843D02C480A
:102170002C4D0026DFF8BC802BF02AFF2F4600F004
:10218000B3FE57F8042B31460136404613682BF056
:102190001FFF142EF5D10A27DFF89C90DFF89CA0D2
:1021A000A846002658F8042B3946104600F0AAFE2F
:1021B00018BB58F8041C3246013648460B682BF011
:1021C00007FF142EEED101371E2FE9D1164E55F818
:1021D000041B084600F094FB98B114482BF0F8FE5D
:1021E00002B0BDE8F08720462BF0F2FEAEE72846AD
:1021F0002BF0EEFEB1E70E48BAE750462BF0E8FEB2
:10220000E1E755F8042C21460134304613682BF0E1
:10221000DFFE142CDBD1E3E7C9F40208E3F4020883
:1022200002F5020814000024CFF50208B3F50208F5
:1022300013F5020827F5020860F5020894F5020874
:1022400038B54FF48071144805F0B8FE20210546DA
:10225000124805F0B3FE08214400114805F0AEFE17
:10226000104944EA8504104D0C2264B22B782043B7
:10227000C8540133FF20DBB22B70013A11F8014B37
:1022800012F0FF0200EA0400F7D108490B2B087096
:1022900088BF2A7038BD00BF0014025800180258C9
:1022A00000100258BEA70024BDA70024BCA700242C
:1022B000014B1878704700BFBCA7002408494FF6AF
:1022C000FF7231F81030934203F1010310B508BFDB
:1022D000044C21F8103002BF225C0132225410BDA0
:1022E000D2A70024D0A700240128064A08D8064B0C
:1022F00006491B5C31F81010C3EB03430B44136019
:1023000010687047CCA70024D0A70024D2A70024CF
:102310000368064A934202D10020FFF7CFBF044A68
:10232000934201D10120F8E7704700BF000001404F
:102330000008004008B50C21044809F04FFD18B111
:10234000BDE80840FFF73CB808BD00BF0CA400245E
:1023500008B50C21044809F097FC18B1BDE8084005
:10236000FFF72EB808BD00BF0CA400242DE9F04FE4
:10237000044697B000F17C4000230EA900F58030A0
:10238000CDE90E33CDE91033CDE91233CDE9143365
:1023900000F0C8FD18B1012017B0BDE8F08F9DF81E
:1023A00038300FA9654800939DF8393020440193D7
:1023B0009DF83A30029300F0B5FD0028EBD19DF86E
:1023C0003D3010A95E4803939DF83E3020449DF8AF
:1023D0003C70049300F0A6FD0028DCD19DF841304C
:1023E00011A9584805939DF8423020449DF840803B
:1023F000069300F097FD0028CDD19DF8453012A935
:10240000514807939DF8463020449DF84490089326
:1024100000F088FD0028BED19DF8493013A94B4833
:1024200009939DF84A3020449DF848A00A9300F093
:1024300079FD0028AFD1464814A99DF84E302044BC
:102440009DF84CB09DF84D500B9300F06BFD0028AB
:10245000A1D1404815A99DF850309DF85220204444
:102460009DF851600D930C9200F05CFD002892D114
:102470009DF8540036040D9B01069DF8554046EA30
:1024800003660C9A41EA04411E4301439DF856003D
:1024900046EA022641EA0021B1F1FF3F08BFB6F14A
:1024A000FF3F44D12D040B9B0A9A45EA0B6545EA90
:1024B0000B0545EA0325099B1B0443EA0A6343EA2B
:1024C0000A0343EA0223B5F1FF3F08BFB3F1FF3F20
:1024D0002FD1079B089A1B04069943EA096343EA34
:1024E000090343EA0223059A120442EA086242EA17
:1024F000080242EA0122B3F1FF3F08BFB2F1FF3FF9
:1025000019D1039B049A1B0443EA07633B4343EA44
:102510000223019A1004009A40EA02601043029AD2
:1025200040EA02201840013018BF012034E704209F
:1025300032E7032030E702202EE700BF040001FC51
:10254000080001FC0C0001FC100001FC140001FC5F
:10255000180001FC1C0001FC30B500F57F5485B06B
:102560004FF0AA330139303405462403CDE9003356
:10257000CDE90233032916D8DFE801F0021822332F
:1025800004F17C40694600F5803000F0C6FC08B1DB
:10259000022009E069461848204400F0BEFC0028EB
:1025A000F6D1164B1D70002005B030BD144801A9AE
:1025B000204400F0B2FC0028EAD101A91148EBE761
:1025C000114802A9204400F0A8FC0028E0D102A98B
:1025D0000E48204400F0A1FC003818BF0120400044
:1025E000E2E70B4803A9204400F097FC0028CFD174
:1025F00003A90848EDE700BF040001FCD6A70024AA
:10260000080001FC0C0001FC100001FC140001FC9E
:10261000180001FC1C0001FC0C4808B5FFF7A6FEE1
:1026200004280FD00A48FFF7A1FE04280CD108485F
:1026300000F17C4000F5803000F079FC003818BFD4
:10264000012008BD0148F3E70520FAE70000FF0379
:102650000010FF032DE9F74300250746884606468C
:102660002C464FF01109CDE90055F31B984503D8CE
:10267000484603B0BDE8F08301A9304600F052FCA3
:102680006946301D00F04EFC01AA002301332402EC
:1026900012F8011B042B44EA156441EA0525F5D123
:1026A0006A4600230133240212F8011B042B44EA7A
:1026B000156441EA0525F5D1B4F1FF3F08BFB5F136
:1026C000FF3F06F10A0618BF4FF01009CDE70000E2
:1026D00008B560B14FF480511648FFF7BBFF1028D2
:1026E00016D1144800F023FC90B1012008BD00F081
:1026F0001EFC0028F9D14FF4805000F018FC00288F
:10270000F3D102210020FFF727FF50B10220EDE7AF
:102710004FF480510848FFF79DFF1028F1D106487B
:10272000EBE7064B20221880054B1870054B1A600A
:10273000DCE700BF0000FF030010FF03D8A7002460
:10274000D6A7002464000024314B2DE9F0411C7809
:1027500043F6F0778046651CE01905F0010500039B
:10276000FFF704FE0646E8190003FFF7FFFDB8F186
:10277000010F07460AD0B8F1020F45D0B8F1000F9B
:1027800038D1022E0ED0012E34D123E0022E23D1D7
:10279000204E40F6F57332689A4206D821461E480C
:1027A0002BF016FC2046BDE8F08129461B482BF093
:1027B0000FFC042F02D1FFF72FFFD8B903212046C9
:1027C000FFF7CAFEB0B902212846FFF7C5FE88B957
:1027D000202333602C46E5E7012E0BD10D4E3368E4
:1027E000B3F5805FDED3042807D003212046FFF72E
:1027F000B3FE38B14FF0FF34D4E7FFF70DFF0028E8
:10280000F3D0F7E70121DFE70028E3D0F2E700BFCC
:10281000D6A700246400002458F6020878F60208BF
:102820002DE9F04F064685B000200F46CDE90200A5
:10283000ADF80400FFF788FFB0F1FF3F824654D0A7
:1028400000F57F54DFF8B490303424032046FFF7BE
:102850008DFD831EDBB2022B01D907201BE0254B27
:1028600004EB0908D3F800B0BBF11F0F0BD80AF135
:10287000010A0AF0010A0AF57F5430342403204685
:10288000FFF774FDE5E702A908EB0B0000F04AFB37
:10289000054618B180B205B0BDE8F08F029B5A1C06
:1028A00020D01BBA9E421DD1A34403A90BF17C404A
:1028B00000F5803000F036FB2A46042103A8039C73
:1028C00000F09AFB06460C4801A9584400F02AFB88
:1028D000BDF804305BBA9BB2B34208D124BA284693
:1028E0003C60D8E7ABF10A0BBEE70320D3E74FF417
:1028F0008170D0E764000024080001FC040001FCA2
:10290000431E033313B50C4608D8002301A90193D5
:10291000FFF786FF019B236002B010BD0820FBE794
:102920007FB52A4E09BA00BA33880291B3F5CB7F3E
:10293000039046D20120FFF707FF431C43D000F568
:102940007F540421002202A800F056FB204D40BA1B
:10295000303402A9ADF804002403286800F17C405B
:1029600000F58030204400F0D8FA10B1012004B006
:1029700070BD2B6803A917481844204400F0CDFA15
:102980000028F3D12B6801A913481844204400F013
:10299000C4FA04460028E9D131882B6801310F4878
:1029A0000A3389B22B6031802BF012FB0C4B0D489F
:1029B00019782BF00DFB29680B482BF009FB2046FA
:1029C000D5E71220D3E70320D1E700BFD8A7002422
:1029D00064000024040001FC080001FC9BF60208CE
:1029E000D6A70024B4F60208CDF602082DE9F04F70
:1029F000B2F1000A87B04FF0000507460CBF022075
:102A0000012001910595CDE90355FFF79DFE431C7B
:102A1000044600F0CA80674E2023DFF8A491358079
:102A2000654DC9F800302870BAF1000F10D001349C
:102A300004F0010404F57F5030300003FFF796FCEA
:102A400002280ED104212046FFF786FD58B104E08C
:102A50000121FFF781FD0028E9D0022007B0BDE881
:102A6000F08F04283CD184F0010443F6F07B04EBA2
:102A70000B000003FFF77AFCC31EDBB2012B23D946
:102A8000BAF1010F31D001993846FFF749FF00280C
:102A9000E3D14A4C2068B8420AD003A9FFF7C0FE30
:102AA00000287FD103992068FFF73AFF0028D5D18D
:102AB00002212878FFF750FD0028CED1FFF7ACFDAA
:102AC000002818BF0520C9E7032802D084F00104BC
:102AD000CDE704212046FFF73FFD0028F6D0BCE7F4
:102AE000BAF1010F63D1032861D14FF0000A4FF012
:102AF000200B41F206085446287805A90BEB00305C
:102B000000F010FA287804A90BEB0030043000F034
:102B100009FA05A900230133240211F8010B042B43
:102B200044EA1A6440EA0A2AF5D104A900230133D1
:102B3000240211F8010B042B44EA1A6440EA0A2A21
:102B4000F5D1B4F1FF3F08BFBAF1FF3F0CD0338895
:102B50000BF10A0B0133C3453380D9F8003003F180
:102B60000A03C9F80030C7D12C7843F6F079013454
:102B700004F0010404EB09000003FFF7F7FB03284E
:102B800081D184F001003388484403F5CB730003FE
:102B90003380FFF7EBFB032802BF338803F5CB73C9
:102BA000338070E7072883D058E7042056E70A20CF
:102BB00054E700BFD8A70024D6A70024140000249F
:102BC0006400002438B504460D46FFF7A9FE12281C
:102BD00006D1294620460022BDE83840FFF706BF4F
:102BE00038BD431E033301D8FFF7ECBF0820704700
:102BF0002DE9F74F0221054687482BF0E9F9874870
:102C0000FFF7B4FB431EDBB2012B42D9C31E0026E3
:102C10005C425C418248FFF7A9FB431EDBB2012BFB
:102C200055D9032838D1C4F10104002E4DD07B487A
:102C3000FFF79CFB01284CD07948FFF797FB012850
:102C4000044604D17548FFF791FB002847D073482C
:102C5000FFF78CFB022854D17148FFF787FB00284F
:102C600051D1704B012418706D48FFF77FFB02288B
:102C70004DD0032808BF0126002C53D1701C694B8E
:102C8000022100F001001870FFF766FC002849D00F
:102C900017E000240126BDE7CEB964B33446013401
:102CA00004F0010404F57F5430342003FFF75EFB89
:102CB0000428BCD1701C01210840FFF74DFC0028FE
:102CC000B5D0022003B0BDE8F08F0126E7E700266B
:102CD000ADE75348FFF74AFB04460028ACD100217A
:102CE000504B012208461C70FFF780FEB0F5807F34
:102CF000ADD00C20E6E7204603B0BDE8F04FFFF76B
:102D0000E7BC032801D00024AEE70026FBE74348D8
:102D1000FFF72CFB0028AFD10CB10A20D2E7414BC2
:102D200001221A70404F0026DFF80C912024DFF8B2
:102D3000F4803E80C9F8004098F8000001A904EB37
:102D40000030CDE9006600F0EDF898F80000DDF8FD
:102D500004A0694604EB0030043000F0E3F8BAF157
:102D6000FF3F009B0ED001330CD03B880A34013367
:102D70003B80D9F800300A33C9F8003041F206032D
:102D80009C42D9D198F800A00AF10104BAF1010FD0
:102D900004F0010404F57F5000F130004FEA0030E8
:102DA00008D9FFF7E3FA0328B7D13B88A24603F519
:102DB000CB733B8098F8004043F6F07B013404F07D
:102DC000010404EB0B0654454FEA06360FD139884F
:102DD00016482BF0FDF898F8001015482BF0F8F87D
:102DE000D9F8001013482BF0F3F800206AE75DB91A
:102DF00006F17C4000F5803000F099F810B984F0BD
:102E00000104DEE701205DE74FF480513046FFF713
:102E100021FC1028F3D1EBE7E6F602080000FF03DF
:102E20000010FF03D6A70024D8A700249BF60208B1
:102E3000B4F60208CDF6020864000024F0B50020C4
:102E400087B00290ADF804000390CDE90400FFF7CD
:102E50007BFC431C3DD000F57F54303424032046D6
:102E6000FFF784FA022802D0002007B0F0BD1B4D06
:102E70001B4E25441B4F264404A9284600F052F857
:102E8000049B1BBA0293029B01331ED005A9281F85
:102E900000F048F8059B002204211BBA05A8039303
:102EA00000F0AAF801A90446281D00F03BF8BDF87F
:102EB00004305BBA9BB2A3420DD102993846039A03
:102EC0002BF086F8029B039A1A600A35B542D3D1DB
:102ED000CAE70320C9E74FF48170C6E7240001FC6C
:102EE0000A1001FCF8F6020808B55022034904480C
:102EF0002BF00DFBBDE80840FFF7A0BF08F6020865
:102F00006CA7002438B50D461446FFF76AFE08B9D1
:102F1000256038BD4FF6FB70FBE702460423002016
:102F200003F070BB02460423002003F04BBB0022D9
:102F30000146104603F0BEBB38B50024044DE3B291
:102F4000013455F8233003B938BD9847F7E700BF7F
:102F500034F7020838B50024044DE3B2013455F8C3
:102F6000233003B938BD9847F7E700BF2CF70208B4
:102F700038B50024044DE3B2013455F8233003B9C9
:102F800038BD9847F7E700BF24F7020838B500249A
:102F9000044DE3B2013455F8233003B938BD9847E6
:102FA000F7E700BF1CF7020808B5FFF781F96FEAE1
:102FB000900000F0010008BD08B5FFF779F9C0F3F3
:102FC000800008BD002000F031B8000008B50348BB
:102FD0002BF066F8BDE80840FFF7BAB978F70208A9
:102FE00008B503482BF05CF8BDE80840FFF7A2B92C
:102FF0009CF702087047704703460144104670B5BD
:1030000041F221058B4200D170BD13F8012B082439
:1030100080EA022006B24200002E90B204F1FF3294
:10302000B8BF684012F0FF04F4D1EBE7014B33F86E
:1030300010007047DAA70024014B01221A80704764
:10304000DAA700242DE9F047DFF8508000254FF083
:103050000C09114EB8F80070EBB209FB03F39C1990
:10306000F35A73B13B4214D06388BB420BD0636800
:103070007BB1984768B1A36803B198476388A8F803
:103080000030BDE8F087A368002BFAD0BDE8F04718
:1030900018470135E0E700BF3CF70208DAA7002433
:1030A00070470000DFF834D003F0CCFE002103E0CD
:1030B0000B4B5B58435004310A480B4B42189A4261
:1030C000F6D30A4A02E0002342F8043B084B9A4236
:1030D000F9D32BF0F5F9FDF7C7FD70470000052483
:1030E00054450308000000247401002478010024E2
:1030F000C40C0224FEE7704708B501F0F7F8BDE8FC
:10310000084001F07BB801F0F3B8406870474160B7
:10311000704700004FF0E022D2F8FC3D43F080738E
:10312000C2F8FC3D054B064AD3F8B01F0A43C3F86A
:10313000B02F1A6842F001021A607047001000E0D8
:1031400055CEACC5521A02EB5302B2FBF3F07047F6
:10315000014B5868704700BF001000E0704710B581
:1031600004460C212AF0F9F9204610BD036810B579
:103170001B69044631B19847A26863689B1A0344EF
:10318000636010BD9847A060FBE770471FB5082338
:1031900000206946CDE90230054B1B880093054BA2
:1031A0001B88019303F06CFD05B05DF804FB00BFC4
:1031B000A6000224A800022410B5044604212AF027
:1031C000CCF9204610BD30B585B000200D46144620
:1031D00001A90390CDE9010003F0D4FD40B14FF007
:1031E000500383F31188BFF36F8FBFF34F8FFEE758
:1031F000019820B1029B01202B60039B236005B046
:1032000030BD0000032825D8DFE800F0020B131CB6
:10321000114B012111481A68B2FA82F2520904F0E6
:10322000D3BE0D4B08210E485A68B2FA82F25209F9
:10323000F5E7094B4FF480419A68B2FA82F25209DD
:103240000848ECE7044B4FF40041DA68B2FA82F226
:103250005209F5E7704700BFDCA7002400000258C0
:103260000018025800040258032825D8DFE800F0AF
:10327000020B131C114B012111481A68003A18BFA8
:10328000012204F0A1BE0D4B08210E485A68003AF5
:1032900018BF0122F5E7094B4FF480419A68003AC4
:1032A00018BF01220848ECE7044B4FF40041DA68EC
:1032B000003A18BF0122F5E7704700BFDCA70024E1
:1032C000000002580018025800040258032811D8C0
:1032D000DFE800F00206090D0121074804F079BE7D
:1032E00008210648FAE74FF480410548F6E74FF415
:1032F0000041FAE7704700BF00000258001802586A
:103300000004025808B5032815D8DFE800F0020AC7
:103310000D110121094804F051FE431E5842584145
:1033200008BD08210648F6E74FF480410548F2E75A
:103330004FF40041FAE70020EFE700BF0000025819
:10334000001802580004025870B5084D00240126E8
:10335000E0B2FFF7D7FF18B12B68012B18BF2E6022
:1033600001340435052CF3D170BD00BFDCA7002467
:10337000012380F8781080F879307047002070477A
:1033800041640039024B18BF01211970704700BF1A
:10339000AB00022400207047836B0BB1084618472E
:1033A00070474FF6FF707047406803689B69184785
:1033B0007047000038B5044601F0C6F80749236895
:1033C00004F17C052046D3F88C3098472846FFF757
:1033D000A1FE0123256184F8703038BD0000007023
:1033E00008B503680446D3F8803098472368204620
:1033F0009B6F984700F02CF9236820461B6F984775
:1034000001224FF48061084804F0DEFD01224FF4F0
:103410000041064804F0D8FD00F01AF92368204660
:103420001B6F9847F8E700BF000C025800180258BD
:1034300010B5044619F004FC23682046D3F8AC30DC
:10344000BDE81040184701F04BB801F04FB800003C
:1034500070B501F0A3F810490023C1F88430BFF320
:103460004F8FD1F8803043F6E074C3F3C900C3F343
:103470004E335B0103EA0406024646EA8275013ACE
:10348000C1F87452F9D2203B13F1200FF2D1BFF3EF
:103490004F8FBFF36F8F70BD00ED00E000F0FCBFF9
:1034A00001F0E6B901F0EEB901F000B818F034BE51
:1034B00010B5044688212AF050F8204610BD0000BF
:1034C00090F834100D4B10B590F878401A788C4273
:1034D00009D03AB90A490B4A088814881080012299
:1034E0000C801A7010BD002AFCD0064A04491488CA
:1034F00008880C8010800022F3E700BFA40002249B
:10350000A2000224A000022470B50D46194635B968
:10351000094B40F2D221094A09482AF095FBC0E93B
:103520000F52003A074B18BF01221A700368BDE81A
:103530007040D3F88C30184704F802083CF80208B1
:103540008AF80208AA00022408B5094B1B888B429E
:1035500003D8084B1B88934205D9074B9E21074A85
:1035600007482AF071FB074B1980074B1A8008BDEA
:10357000A0000224A2000224CFF8020832F90208B7
:103580008AF80208A6000224A8000224034690F844
:103590007A0018B1586803681B6818477047000024
:1035A000014608B5034B186801B1012119F062FB0F
:1035B000012008BDAC0002240121002208B5084604
:1035C00009F092F90A4B186028B90A4B28210A4AD7
:1035D0000A482AF039FB00220421012009F023FACD
:1035E000074B186018B9074B2C21034AF0E708BDB8
:1035F000F0A7002450FA020899FA0208C8FA020853
:10360000ECA700241AFB0208024B4FF0FF311868A8
:1036100009F0B4B9F0A70024014B186809F0DAB931
:10362000F0A70024024B0021186809F0A7B900BFD9
:10363000F0A70024FFF7F0BF0023034803491A4610
:10364000006809F02BBA00BFECA700246800002432
:1036500013B50023074C01A91A46206809F04FFA58
:103660004FF0FF33002201A9206809F048FA02B0A8
:1036700010BD00BFECA7002403685B6C1847012055
:10368000704703689B6A184740F2EF3070470000AC
:10369000054B4FF080620360044BC3F88820BFF3F2
:1036A0004F8FBFF36F8F7047BCFC020800E100E052
:1036B00010B504464FF45A61FFF7EAFF204629F09F
:1036C0004CFF204610BD00000F4B82B0D3F8D42031
:1036D00042F01002C3F8D420D3F8D42002F0100234
:1036E0000192019ADA6F42F01002DA67DA6F22F083
:1036F0001002DA67054B064A1A62064B4FF08062E9
:103700009A6002B0704700BF0044025880A50024B0
:103710005D39000800E100E008B50A2809D8DFE8B3
:1037200000F006100E080808081010101000022003
:1037300008BD054B8621054A05482AF085FA002078
:10374000F6E70120F4E700BF5CFB020877FB020804
:10375000C2FB020838B50C46887FFFF7DDFF124B2D
:10376000A58AE28A586342EA054221695A64628B5B
:10377000D963521B1A642568082D0ED19A611A610B
:1037800058620A4A207F42EA0062DA61E2681A62FD
:10379000074A5961D9601A6038BD0022D8611A61A0
:1037A000E2689A63034AF6E700100052090001003C
:1037B000010202000102030008B50B280BD8DFE864
:1037C00000F00612100A0A0A0A080808080802206F
:1037D00008BD0520FCE7054B6521054A05482AF090
:1037E00033FA0020F4E70120F2E700BF5CFB020897
:1037F00012FC0208C2FB02082DE9F8434F7F8946FC
:103800003846FFF7D9FF99F81E5080462846FFF743
:10381000D3FF06462846FFF77FFFB9F81410B9F822
:103820001A40B9F81820454B641A521A1C649C615E
:103830001A61B9F81620586342EA0142D9F810100B
:103840005A64D9F80420D963DA60D9F8004099F8AD
:103850001C20802C22D00FD8202C66D0402C64D085
:10386000042C5CD048EA0260344BAF4240F4003094
:10387000D86160D0324A3FE0B4F5807F04D0B4F51F
:10388000007FEFD12F4800E02F4840EA0262DA6162
:10389000D9F80C201A625E6259612CE048EA026095
:1038A000D9F8084040F40030D8615E625961211DAA
:1038B000D962217841B1012921D0244B4FF4807184
:1038C000234A24482AF0C0F9DA69618822F47F4249
:1038D000013922F0100242EA0122DA610122174B7B
:1038E000D96941F02001D961D9698906FCD4102138
:1038F0009960002ABED0184A1A60BDE8F883D969D9
:10390000FF3A608821F47F4118BF0122013821F07D
:10391000100141EA002141F01001D961DFE748EAD6
:10392000026242F40032DA61B5E748EA0262034B10
:1039300042F40032F7E740F20122DDE700100052C6
:1039400001020100090002000A0002005CFC0208FA
:1039500076FC0208C2FB020801020200024B1B684F
:10396000586803685B691847AC00022470B50446C8
:103970000A4B0C3000262546602260602672667273
:1039800045F8203B294619F0CBFA04F55A63EE605E
:1039900024359D42FBD1204670BD00BFBCFC02080F
:1039A000034B1A68D207FCD423229A60704700BFE9
:1039B0000010005230B5104C2568ED07FCD42325CB
:1039C0000904FF2BA5604FF0010541EA050165637D
:1039D0006164E0630CD0094922F07F42656241EAEC
:1039E0000363E361064B22626061E060236030BDE7
:1039F000E561044BA263F9E70010005209000100E1
:103A000001000200010003004069704790F8440083
:103A10007047036B23B9C06A003818BF0120704794
:103A20000120704780687047043010B50C460FC8FD
:103A300084E80F0010BD704708B5034A40F2122118
:103A4000024B03482AF000F904FD0208931703080B
:103A50005FFD020810B50446482129F07EFD20468E
:103A600010BD2DE9F0411E46ADF51E7D436B0746A6
:103A70000C469046A69D93B3002203A8CDE90132DF
:103A800011F096F84FF4F4725021249024A80BF012
:103A90005CF84246214624A80BF0B0FF012124A87F
:103AA0000BF04EF9022324A88DF8D8300BF0E9F979
:103AB000419BBDF89482BDF89022984528BF984656
:103AC0002B9B9A4228BF1A4602EB4204479B98451B
:103AD00009D824A80BF056F924A80BF083F80DF5AB
:103AE0001E7DBDE8F081012201A924A80BF012FA85
:103AF00030462246796B2E442AF009FDE6E70000A5
:103B00000A4A02600022C0E90522C0E90722C0E992
:103B10000922C0E90B22C0E90D12C0E90F2280F88A
:103B20004420C0E90322C0E9012270474400030891
:103B300010B40C4611461A46036B3BB1036C806B04
:103B4000E41A20445DF8044B2AF0B2BBC06AF8E7DF
:103B5000036B10B573B1036C826BC91A5318525CB6
:103B600098785C780004DB7840EA0420104340EA4F
:103B7000036010BDC36A5858FBE7036B43B1036C85
:103B8000C91A836B5A18585C527840EA0220704771
:103B9000C36A585A7047000070B50446006B0D4662
:103BA0001646D8B1E36B934208D209230D4A65212A
:103BB0000D4884F844300D4B2AF046F80368DB6862
:103BC0009847206B3246A16B03681B69984710B970
:103BD0000D2384F84430A06B256470BDE06A08446E
:103BE000FBE700BFCEFD02085FFD0208BBFD020837
:103BF0002DE9F843436904462BB9234BAA21234AF4
:103C000023482AF021F808228169FFF7C5FFA1693E
:103C100043F2300646F2643704312046FFF798FF3E
:103C2000A3691844A36A00F108029A4206D301234B
:103C300000206361236AA361BDE8F88363690930EA
:103C40000822013320F0010120466361A161FFF7E2
:103C5000A3FFD4F8189020464946FFF78EFF09F1DC
:103C6000020180462046FFF788FF09F1040105465E
:103C70002046FFF76DFFB045D2D1BD42D0D100281C
:103C8000CED00120D8E700BF10FE020859FE02087E
:103C90005FFD02082DE9F04F0546ADF51F7D8B460F
:103CA0009046816908221F46FFF776FFAE692846D5
:103CB000311DFFF74DFF06F1080102460446284674
:103CC000FFF76AFF6B6B064633B9344B40F2AB111A
:103CD000334A344829F0B8FF002203A8CDE9013265
:103CE00010F066FF4FF4F4725021249024A80AF0DB
:103CF0002CFF2246314624A80BF080FE012124A887
:103D00000BF01EF8022324A88DF8D8300BF0B9F878
:103D1000BBF902A0479B53452DD3BBF8063007EBF8
:103D20004707BBF80260BBF900401E44BBF8042003
:103D3000419B04EB440936B2224407FB0A9A9E4297
:103D400012B2D04428BF1E462B9B9A4294BFC4EBAC
:103D50000204C4EB030404EB4404479BB34210D3B6
:103D600024A80BF00FF824A80AF03CFF01200DF561
:103D70001F7DBDE8F08F012201A924A80BF0CAF82D
:103D8000C8E7012201A924A80BF0C4F8696B4046DA
:103D900022464944B8442AF0BAFBDEE78CFE02080A
:103DA000E2FE02085FFD02080129036838BF012115
:103DB000DB6A70B50D4604469847A84204D22368D2
:103DC0002046DB6A984705466B1EE66910222046AE
:103DD00006EB031606F10801FFF7DEFE06F11001FF
:103DE0002046FFF7B5FE236A043B0344C4E90553AC
:103DF00070BD0000002148222DE9F0410446816198
:103E000080F84410FFF7C8FEA6690423624A3146D1
:103E10002046FFF78DFE40B10323604AF22184F86B
:103E200044305F4B5F4829F00FFF06F1080104237F
:103E30005D4A2046A161FFF77BFE30B10423574A5B
:103E4000FA2184F84430594BECE706F10C010423C5
:103E5000574A2046A161FFF76BFE074638B105239C
:103E60004E4A40F2011184F84430524BDAE706F131
:103E700010012046FFF76CFE054620B94E4B40F27C
:103E80000711464ACEE706F1140804234B4A2046A0
:103E90004146FFF74DFE002849D0062384F8443000
:103EA0000423474A06F118012046FFF741FE002887
:103EB0003FD0072384F844304544424F0C2220462B
:103EC0002946FFF769FE05F1080604233A46204615
:103ED0003146FFF72DFE94F84430002848D0002BDF
:103EE00048D1A36AAB4249D805F10C0304352046FA
:103EF000A3612946FFF72CFE304429466062204624
:103F0000FFF726FE0644042220463146FFF744FE12
:103F100004232D4A31462046FFF70AFE002838D1F7
:103F20000123E6616361A3692362BDE8F081012793
:103F3000B6E7002FC0D006F120012046FFF708FEAB
:103F40004FF47A7306F13001B0FBF3F06060204665
:103F5000FFF7FEFD06F14001A0602046FFF7F8FDE7
:103F600006F14401E0602046FFF7F2FD2061A3E77F
:103F7000002BB9D00A2384F84430D6E7291D204607
:103F8000FFF7E6FD85190C2220462946FFF704FEBF
:103F900099E70B23EFE700BF3CFF02085AFF020836
:103FA00041FF02085FFD020887FF02088CFF02083C
:103FB000A4FF0208A9FF0208BFFF0208CBFF020806
:103FC000D0FF0208D5FF0208DAFF0208C0E90A2183
:103FD00000220263FFF70EBF10B500230446084617
:103FE000E3620B6821639B689847A0622046BDE8A6
:103FF0001040FFF7FFBEF0B4069FBDF81050BDF8AB
:10400000146032B12BB10495CDE90567F0BCFFF720
:1040100028BDF0BC704700002DE9F04F9946436978
:1040200085B004460F4690462BB9294B7721294A83
:10403000294829F009FE08228169FFF7ADFDA6692C
:1040400020463146FFF799FDB11C83462046FFF715
:1040500094FD311D82462046FFF77AFD06F10801E6
:10406000A36A054642189A4226D243F230039B4582
:1040700017D146F264339A4513D190B10246A1613B
:104080002046FFF789FD0E9B01462A462046CDF8C3
:104090000080CDE901933B46FFF7ADFF6369013333
:1040A0006361A3692B4405B908330133626A23F0C5
:1040B00001039342A36109D1012301206361236AB3
:1040C000A36180F0010005B0BDE8F08F0020F8E7A3
:1040D00010FE0208DFFF02085FFD020801207047A2
:1040E0000C2070470C2303FB0100083070470C23A1
:1040F00003FB01000830704701207047C42070475F
:10410000C42303FB010008307047C42303FB0100F4
:1041100008307047012070471020704700EB0110F5
:104120000830704700EB011008307047084600F077
:10413000DBBE0000034B10B50446036017F042FDE0
:10414000204610BDEC00030810B50446FFF7F2FF4F
:104150001421204629F001FA204610BD034B10B56A
:104160000446036017F02EFD204610BDB80003087A
:1041700010B50446FFF7F2FFCC21204629F0EDF9F7
:10418000204610BD034B10B50446036017F01AFD1E
:10419000204610BD8400030810B50446FFF7F2FF67
:1041A0001821204629F0D9F9204610BD084B10B53A
:1041B000044640F8F83BFFF7BDFF04F12C00FFF781
:1041C000CDFF04F11400FFF7DDFF204610BD00BF56
:1041D0002001030808B50248FFF7E8FF08BD00BF4B
:1041E000ACB6002410B50446FFF7E0FF4FF41C7195
:1041F000204629F0B2F9204610BD00002DE9F34118
:1042000000F0FAFC0024054600F0FAFC23460146C3
:104210002246284600941FF0E3F9274B274A204600
:10422000274D1A6001F090F8264B274A27489A60DC
:104230001FF08EF82B68BFF35B8FDB0735D4284661
:1042400029F08DF988B3224C224B04F58A7604F1CB
:10425000140004F12C0804F1F80723606060C4F82E
:104260000880E760266117F0AFFC1B4B4046636196
:1042700017F0AAFC194B3846E36217F0A5FC184B5F
:1042800004F58670C4F8F83001F0D4F8224604F53D
:104290008671304601F0C4F8304600F025FE114822
:1042A00029F0F0FC284629F066F90F4802B0BDE875
:1042B000F041FFF77FB800BF100102247CA8002462
:1042C000A8B600249CA8002480A800246C00002428
:1042D000ACB600242001030884000308B8000308DA
:1042E000EC000308D5410008F4A700247047000043
:1042F0000148FFF775B800BFF4A7002470B5274E3A
:10430000274B284C3046284D2360FFF72FFB2846CB
:1043100022F014FA25481DF051FA254B00224FF4E3
:10432000807124481A8683F858205A6683F87020D2
:10433000DC60C3E912122049C3E91A121F490B605D
:104340004FF4F07101801E4801804FF488711D48C0
:1043500001801D4801801D49C3E90422C3E90622EA
:10436000C3E90822C3E90A22C3E90E22C3E91022E5
:10437000C3E91422C3E91722C3E901650A7014498D
:10438000C3F8802083F8342019605A671149C3F8B4
:104390008420114A9967DA6770BD00BF04A9002420
:1043A000F4F70208A4B600249CA8002480A80024E6
:1043B000F4A70024A000022401000001AC000224A4
:1043C000A6000224A2000224A8000224A4000224C1
:1043D00080F9020800000101CCF702080148FFF74C
:1043E00057B900BF04A9002400207047818070479E
:1043F000C1807047018170474181704770477047A5
:1044000070477047704710B4C4880368121B8488D3
:104410005B6D091B12B25DF8044B09B218474FF6E9
:10442000FF7383814FF0FF3303621368C361106031
:104430007047002070478B88838001207047704749
:1044400080F82610704790F826007047002210B5BB
:10445000B1F90840B1F90A10028042808480C1801D
:1044600010BD0022028042808280C28070470177A6
:10447000704780ED080A704780F82410704780F874
:104480002510704701207047983070478C30704776
:104490008430704770470000034B902283F85A2302
:1044A00083F85823704700BF00E100E0094A0A4939
:1044B000D3680A48C3F30A03013B9BB20B8011691E
:1044C000C1F30A01013901801364536B43F0010306
:1044D00053637047001000501EB900241CB900241B
:1044E000014BD3F8AC00704700100050024B012282
:1044F000C3F8AC105A627047001000500163C0E965
:104500000D21704770477047704700EB81001146DE
:1045100040680368DB68184780F83C10704710B5A6
:104520000446482129F019F8204610BD10B504466C
:104530002C2129F012F8204610BD10B50446BC21EC
:1045400029F00BF8204610BD38B5044617F039FEA7
:1045500023685D6E1CF004F801462046A8472368D6
:10456000074A2046D3F8885000230649A847064B3F
:10457000064A5A60064A1A639A63064A5A6338BD65
:1045800000F40B7000FA0570E0B9002428BA00248A
:1045900000EE117000FA050017F0FABD17F0C2BD69
:1045A00017F023BF38B504460D46406C4FF0FF317D
:1045B00008F058F9606C08F078F9242303FB0545EE
:1045C000002385F8283094F828300BB9236BA363B7
:1045D00038BD90F8252012B103685B691847704711
:1045E000124A5369DB0370B51ED50023C2F884302C
:1045F000BFF34F8FD2F8803043F6E074C3F3C900A5
:10460000C3F34E335B0103EA0406014646EA8175B3
:104610000139C2F87452F9D2203B13F1200FF2D1C4
:10462000BFF34F8FBFF36F8F70BD00BF00ED00E091
:1046300008B531B1044B4FF4B871044A044829F06D
:1046400003FB90F8290008BD2C0103084001030872
:10465000CA02030810B531B1064B4FF4B571064AD2
:10466000064829F0F1FA406811460368BDE8104099
:104670001B6B18472C0103080D030308CA0203082B
:1046800008B529B1034B7921034A044829F0DCFA23
:10469000C06808BD2C010308BB040308CA02030854
:1046A00010B5044629B1194BA221194A194829F01D
:1046B000CBFA052A15D8DFE802F0031115171C22E2
:1046C000406803681B69984758B1012384F8293072
:1046D00084F82C300023C4E9043302E0002380F87E
:1046E000293010BD0362F5E70362012380F82A3008
:1046F000F0E7002380F8293001230362F1E7003B53
:1047000018BF012380F82D30EBE700BF2C01030810
:1047100070060308CA02030810B50C4611461A4673
:104720002CB1064B9021064A064829F08DFAC46048
:1047300040680368BDE810409B6818472C010308D7
:1047400044080308CA02030808B529B1054B8221B1
:10475000054A064829F078FAC0E90411C0E9063292
:1047600008BD00BF2C0103081F0A0308CA02030882
:1047700090F83D3010B5044653B14FF0FF31406C16
:1047800008F070F8002384F83D30012384F83E30AF
:1047900010BD90F825201AB190F8242002B11860BD
:1047A0007047000010B50446104629B1134BD021C4
:1047B000134A144829F048FA94F8293033B1124BBF
:1047C0001B6893F86B2063691344636194F82B3082
:1047D0000BB9012010BDA368036303685B699847A8
:1047E000002394F82C0084F82B300028F1D194F8A1
:1047F0002D30002BEED184F82900EBE72C010308C3
:10480000DB0B0308CA020308AC00022410B5174CE6
:1048100017F0CAFC94F8293013B994F82A30ABB1D8
:10482000E169D4E90532534322694A4393420DD3E7
:1048300094F83C0038B19B1AB3FBF1F2994298BF4F
:1048400002F1FF326262012384F82E300123206CD2
:1048500084F83D3008F0BEF894F83E302BB1606C1F
:1048600008F023F8002384F83E3010BDE0B900249E
:10487000034B4FF080629A604FF080729A607047ED
:1048800000E100E0084B4FF08062C3F88820BFF3DE
:104890004F8FBFF36F8F4FF08072C3F88820BFF344
:1048A0004F8FBFF36F8F704700E100E0F8B503460C
:1048B00090F82800D8B94FF480729E6B0125D8601B
:1048C0009A8506F5BF22186102F500725861986159
:1048D000D861186258629D6283F82E00D3E90C47B4
:1048E0003C44A2420AD90B4B52210B4A03E00B4B2A
:1048F00040F2C5110A4A0B4829F0A6F99E609A6356
:104900004FF4F07381F83450CB864FF4887308630A
:104910000B87F8BD330F03086E0F03087C0D0308E7
:10492000AC0D0308CA020308002370B5124E0446FA
:104930008380124B0360336893F858200AB1D86C17
:1049400000B998680368DB6A9847431E5D425D4181
:104950003368D86C30B10368DB6A9847012808BF18
:1049600045F001052DB9064B2721064A064829F0D6
:104970006BF9204670BD00BFAC000224141203087E
:10498000111103086F110308A811030870B5244E14
:104990003568BFF35B8F15F001053FD1304628F035
:1049A000DEFD00283AD01F4C1F4B04F13400256176
:1049B000E584A562A585C4E90035C4E902551DF06A
:1049C0005CF904F1580019F031FE184B2046A3653C
:1049D000174B40F8843BFFF7A7FF164B1648C4F867
:1049E00084302433C4F89050C4F88C306423C4F865
:1049F0009C50C4F8A850C4E928350023C4F8AC3052
:104A0000C4F8B030C4F8B430C4F8B8300B4BC4F8B4
:104A1000983029F037F9304628F0ADFD014870BDD7
:104A200020B9002424B90024F43B030834120308FD
:104A3000AC120308403C030895440008783C030886
:104A400010B5144C236823B3134B144A1B6C118804
:104A50008B4213D1124B198803F0EEFF226892F8B3
:104A60006A30013382F86A30FEF7E6FD206818F0FC
:104A7000E7F80020BDE81040FEF7C4BB03F0DCFF00
:104A8000206803681B6A98470020BDE81040FEF7C5
:104A9000EBBB10BDAC000224001000501EB9002476
:104AA0001CB900242DE9F743044601264FF4B467EE
:104AB0004FF0FF31206C07F061FF4FF0FF31606C69
:104AC00007F0D0FE94F82E3043B36568D4F8208008
:104AD0002B6884F82B60B8F1000F23D05B6A414645
:104AE00028469847002323622B684FF4F072009702
:104AF0002846D3F814804FF48873A168C04723690F
:104B000084F82C0001332361F0B12B6828469B6A9E
:104B1000984701380023E06084F82E30606C07F07D
:104B2000C4FEC5E7626A002ADED02846D3E90993AD
:104B30009847616A01442846C8472369626AC4F8F5
:104B4000248013442361CFE70120E3E7014808B53F
:104B5000FFF7A8FFE0B9002438B51549002515482E
:104B6000FEF7CEFF144C154B2A4629460120236040
:104B70004FF48073A563A387A38584F83E5084F81F
:104B80002E50C4E90C55C4E91055C4E90155C4E9D7
:104B90000355C4E90555C4E90755C4E9095507F0AB
:104BA000A3FE2064284607F028FE606438BD00BFDD
:104BB00070BA002428BA0024E0B90024F8120308CF
:104BC000704710B50446042128F0C7FC204610BDEC
:104BD000012908B506D0022908D059B900F0F2FB26
:104BE000006808BD00F0EEFB4068FAE700F0EAFB61
:104BF0008068F6E70020F4E7004870474813030890
:104C00000220704713B5002451B1036801AA019432
:104C10008DF803409C680DF10303A04702B010BD5E
:104C20000846FBE7C0897047008A7047C088704714
:104C300080887047807A00F07F007047807AC009D2
:104C400070470020704700009FED010A704700BFC9
:104C5000000000007047704700F5987308684968C5
:104C600003C370477047704741607047704700004A
:104C7000064BC0F84801C0F84C310023C0F8503151
:104C800000F5A273C0F84031704700BF314D0008F5
:104C90000123037270477047704710B441680346A0
:104CA000C2689B68541001EB6200D20748BF0A59E2
:104CB0005DF8044B48BFD35818470346406830B1ED
:104CC0009A681AB9D86800F001007047012070474F
:104CD00010B504460C2128F040FC204610BD10B54C
:104CE0000446102128F039FC204610BD10B50446BA
:104CF0004FF4AE7128F031FC204610BD10B51BF00A
:104D00002FFC0368BDE81040DB6B184710B5044664
:104D1000D0F8400158B10368DB68984738B1D4F83F
:104D2000400103689B6898470023C4F8403110BDD8
:104D30002DE9F14FD0E9556A0746B06803681B6A50
:104D40009847C32805D8444BA321444A444828F037
:104D50007BFF706803681B6A98470F2803D8414B94
:104D6000A4213E4AF2E7F06803681B6A98470B28C3
:104D700003D83D4BA521394AE8E7DFF8F4901BF052
:104D8000EFFB04301BF011FCD9F8000010B10368F0
:104D9000DB689847D9F8000010B103681B68984792
:104DA000DFF8D080D8F8000010B103685B6998473D
:104DB000D7F83C0110B103685B689847D8F8000049
:104DC00010B103681B689847D7F83C0110B103681D
:104DD0009B689847F06800214FF0000B03685B6AFE
:104DE0009847224B0446C0F804B080F808B05946F2
:104DF0000360B06803685B6A9847054600F068FB8B
:104E00007068594603685B6A98470646294600F071
:104E10003FFB331DC7F83C612846C9F80040C8F87D
:104E20000050CAF800302B68C6F808A0DB68EE63B3
:104E30009847336830461B689847214628461DF03E
:104E40007FFB236820461B699847236820465B69DF
:104E500001B0BDE8F04F184770130308FE130308B4
:104E6000D014030817150308BA150308D41603084D
:104E7000F4000224F0000224044B1B6893F858202D
:104E80000AB1D86C00B99868704700BFAC00022422
:104E900070B5044616460D461BF028FC0E4B00214B
:104EA0001C600E4B23600E4BC4E951310D4B18684A
:104EB000C4E953110368C4E94F119B68C4E95565FF
:104EC0009847FFF7D9FF22F020FDFFF7D5FF22F02A
:104ED00093FD204670BD00BF000102248016030828
:104EE00068160308AC000224064BC0F84801C0F85D
:104EF0004C310023C0F8503100F5A273C0F84031A6
:104F0000704700BF314D0008406A7047806A7047A3
:104F100070478B88C069DB0A0A6850F82300104488
:104F2000704710B50446BAB1107B68B1537BD27A92
:104F30001B0203F4E0631A43236A03EB82031A881B
:104F40008A4202D193F9020010BD05D8013804331A
:104F500080B20028F3D1F7E70020F5E710B504464A
:104F60002C2128F0FAFA204610BD000030B58BB095
:104F70000446BDF860500895BDF85C5007959DF853
:104F8000505006959DF84C5005959DF84850049555
:104F90009DF8445003959DF8405002959DF83C5073
:104FA0000195BDF8385000951CF024FF064B2046B3
:104FB0002360159BE361169B2362199B63621A9B16
:104FC000A3620BB030BD00BFF816030870477047EE
:104FD0007047704770477047704710B50446C4214A
:104FE00028F0BBFA204610BD036870B504461B6B61
:104FF000154698472368204629465B6BBDE87040FC
:1050000018470000002310B5C0E90133C0E903339D
:10501000C0E90733C0E905334FF480730446838445
:10502000054B03600B88C384FF2380F8283019F0F8
:1050300058FB204610BD00BF783D03082DE9F7431B
:10504000044600251DF0D0F8314B2646E56304F1F7
:105050006C0804F1980746F8403B4FF6FF792D4B5A
:1050600001A940462566A566ADF80490C4E910354F
:105070004FF48073A4F86430FF23C4E9125584F818
:105080006630C4E91455C4E91655FFF7BBFF01A902
:105090003846ADF80490FFF7B5FF2A46294630465A
:1050A000FFF7A2FF30464FF4F07104F10409FFF757
:1050B000A1F930464FF48871FFF79EF94FF07F4316
:1050C00031464846A36616F093FD2A4629464046D7
:1050D000FFF78AFF012301A94046ADF8043019F01B
:1050E00000FB4146484616F083FDF1223846362142
:1050F000FFF77AFF01A93846ADF8045019F0F1FA2C
:105100004846394616F074FD204603B0BDE8F083EA
:1051100060170308103D03087047000030B5164DB6
:105120008FB02C68BFF35B8F14F0010420D12846A8
:1051300028F015FAE0B13F23012210490993104BE2
:1051400010480893104B0A940594CDE906430423B4
:10515000CDE903320A23CDE90B440093CDE90144A4
:10516000FFF704FF094828F08DFD284628F003FAD0
:1051700004480FB030BD00BFF0C10024D444030880
:1051800004450308F4C10024104503081951000820
:105190007047000030B5164D8FB02C68BFF35B8FA1
:1051A00014F0010420D1284628F0D9F9E0B13F23BA
:1051B000012210490993104B10480893104B0A9490
:1051C0000594CDE906430423CDE903321423CDE948
:1051D0000B440093CDE90144FFF7C8FE094828F0CD
:1051E00051FD284628F0C7F904480FB030BD00BF74
:1051F00020C20024E44403080845030824C2002414
:1052000014450308915100087047000030B5164D51
:105210008FB02C68BFF35B8F14F0010420D12846B7
:1052200028F09DF9E0B13F23012210490993104B6A
:1052300010480893104B0A940594CDE906430423C3
:10524000CDE903322823CDE90B440093CDE9014495
:10525000FFF78CFE094828F015FD284628F08BF949
:1052600004480FB030BD00BF50C20024F44403080E
:105270000C45030854C200241845030809520008CD
:1052800000207047002070470EB403B503AB002127
:1052900053F8042B01931CF0B1F802B05DF804EB55
:1052A00003B070470CB407B504AB53F8042B01935B
:1052B0001CF0A4F803B05DF804EB02B070470000E6
:1052C000436C10B5044673B3038F2BB9184BC5213B
:1052D000184A194828F0B8FCC38E00EB43035B8CD6
:1052E0000BB31DF0F9FD238F012B03D8134BCB21FA
:1052F000134AEEE7E28E40F63F10531C9BB2092B97
:10530000194688BFA3F10A0104EB4101498C81428F
:1053100009D10A2B04EB420228BF0023508C04EB76
:105320004303588451842046BDE810401DF0D6BC8C
:105330008C17030895170308401803088A180308F8
:10534000981803081DF093BC38B518BB124B1348CE
:105350001C681349B4B12268224402606268224486
:105360000A60A26814440F4B00221A8000F02AF849
:10537000054600F025F80C4B1C600C4B1D600C4BD7
:10538000188007E00B4B03600B4B0B600B4B1C684A
:10539000002CE8D138BD00BF8CC2002484C2002498
:1053A00080C2002488C20024040102240C010224CB
:1053B00008010224204503081C450308244503086E
:1053C000002070470048704790C2002410B5054C7B
:1053D000FFF7E0FE2060FFF719FF6060FFF79EFE19
:1053E000A06010BD90C2002410B5002404600C60C1
:1053F00014601C6010BD704710B504464FF4AE71C8
:1054000028F0ABF8204610BD10B50446D0F858017E
:1054100000F014F82046BDE810401BF023B900004E
:1054200010B50446FFF734FD014B2046236010BD44
:1054300074190308002202600271704710B5044617
:105440004FF40051064802F0B9FD011E206818BF54
:105450000121036821719B68BDE81040184700BF17
:10546000000802587047043870477047C0680368E6
:10547000DB6A1847A0F10400FFF7F8BF10B5044637
:10548000102128F06AF8204610BDA0F10400F5E7CD
:105490000022C1608260024A02601C324260704792
:1054A000C819030870470000034B10B50446036099
:1054B000FFF791FD204610BDF819030810B504460A
:1054C000FFF7F2FFC421204628F047F8204610BD20
:1054D00010B50446FFF7B2FD014B2046236010BD16
:1054E000F8190308FFF778BD80F8BD1098301CF05C
:1054F000B0B840F201134FF4F07200200B80052386
:105500008B704FF48873C1E90123704790F8243001
:10551000012B04BF002380F82430002070470020B6
:10552000704710B404690089A4465DF8044B6047D5
:1055300010B4C4680089A4465DF8044B604770B598
:1055400000F118050E460978284600F0F5F80446E3
:105550003179284600F0FCF80444317A284600F0FE
:1055600003F90444317B284600F00AF90444317CF5
:10557000284600F011F90444317D284600F018F95E
:10558000C44214BF4FF0FF30002070BD183000F04F
:1055900027B937B500F118050C4601A9284600F0D7
:1055A000BEF808BB9DF80430052B98BF18460423AD
:1055B0002060032128460DEB030200F09DF8B0B9EE
:1055C0009DF804309DF805201B0203F4706313431B
:1055D0009DF8072063609DF806301B0203F470639A
:1055E0001343A36003B030BD4FF0FF30DFE74FF04F
:1055F000FF30F7E7183000F08DB80121183000F0C7
:10560000E3B80021183000F0DFB810B590F824306E
:1056100004466BB9036898472046FFF7F2FF00384D
:105620004FF0010318BF012084F82430404210BD20
:105630000020FCE70020704770B500F1180588B025
:105640000C462846694600F06AF890BB9DF8003089
:10565000052B98BF184620601E236A460321284662
:1056600000F04AF840BB21466D4614342A780635CE
:1056700015F8056C1302920903F47063334315F8AF
:10568000036C41F8043F8C4215F8043CCA634FEAAE
:10569000032303F4706343EA06034B6115F8023CED
:1056A0008B6215F8013C4FEA13130B65DED108B08D
:1056B00070BD4FF0FF30CEE74FF0FF30F7E700004E
:1056C00090B14A680B6842600A8903600281CA6827
:1056D000C2600A6902614A6900624261044AC261A9
:1056E000044A826103B118474FF0FF30704700BF92
:1056F000235500083155000810B4D0E90140A446F4
:105700005DF8044B604710B404688068A4465DF8F7
:10571000044B604701230A461946FFF7EDBF10B559
:105720000A460C4601230221FFF7E6FF18B9237849
:1057300003F00F03237010BD07B501238DF8071088
:105740000DF107029121FFF7DEFF03B05DF804FBC6
:1057500007B501238DF807100DF107029221FFF71D
:10576000D2FF03B05DF804FB07B501238DF80710E5
:105770000DF107029321FFF7C6FF03B05DF804FBAC
:1057800007B501238DF807100DF107029421FFF7EB
:10579000BAFF03B05DF804FB07B501238DF80710CD
:1057A0000DF107029521FFF7AEFF03B05DF804FB92
:1057B00007B501238DF807100DF107029621FFF7B9
:1057C000A2FF03B05DF804FB07B501238DF80710B5
:1057D0000DF10702A421FFF796FF03B05DF804FB6B
:1057E0000A460123A821FFF787BF4FF080624FF4DC
:1057F00080334FF48071C0E900234FF480524FF49E
:105800008063C0E902324FF48043C0E9043283610F
:105810004FF48023C0E907130020704770B59AB099
:105820000E4605460021144606A8502228F038FDF1
:105830001422002101A828F033FD2EB9012C50D1EB
:105840004FF0FF301AB070BD0423621E0993102080
:1058500053425341002E4FEAC3020B9214BF012260
:1058600000224FEA02114FEA82220A9140F2FA51D5
:105870000D924FEAC32208BF05210F924FF4405208
:10588000089106A90E920CBF4FF080724FF0806213
:1058900014924FEAC3624FEA4373169214BF052273
:1058A00000221893012C4FF00103179202930CBFB2
:1058B000022201224FF48003159241F28832CDE991
:1058C0000430284603F09FFA0028B9D141F288320B
:1058D00001A9284603F0DCFB003818BF0120404234
:1058E000B0E70123B1E7F0B595B00C460646154682
:1058F0000021502268461F4628F0D2FC012C05D119
:10590000002D45D14FF0FF3015B0F0BD002C14BF75
:1059100004230123002C039314BF012300234FEA27
:105920000313049336D1002D0CBF0B230C23002C42
:10593000029341F2883269460CBF4FF480734FF4F2
:105940008063002D3046079314BF4FF440534FF44B
:105950000053002C08931A9B06930CBF4FF08073E2
:105960004FF080630E9314BF0623082311931B9BF3
:105970000F9303F048FA0028C4D141F28832394627
:10598000304603F02FFB003818BF01204042BBE730
:105990000423BFE74EF61343C9E7F0B595B00446BC
:1059A00017460D465022002168461E4628F078FC16
:1059B000042308214FF4006E0393102341F2883230
:1059C000204606970F96CDE904314EF611634FF04D
:1059D000006102934FF4806307934FF44053CDE985
:1059E000083E4FF080630E930623CDE910134FF06D
:1059F00000536946129303F006FA58B941F288320F
:105A00002946204603F0EEFA003818BF0120404234
:105A100015B0F0BD4FF0FF30FAE7F0B595B00C4689
:105A2000064615460021502268461F4628F038FCDD
:105A3000012C05D1002D41D14FF0FF3015B0F0BD44
:105A4000002C14BF04230123002C039314BF012353
:105A500000234FEA0313049332D1002D0CBF02231D
:105A60001223002C029341F2883269460CBF4FF496
:105A700080734FF48063002D3046079314BF4FF4BA
:105A800040534FF40053002C08931A9B069314BF05
:105A90004FF080634FF080730E931B9B0F9303F0C6
:105AA000B2F90028C8D141F288323946304603F0B5
:105AB00055FA003818BF01204042BFE70423C3E76E
:105AC00041F2ED23CDE7F0B595B0044617460D46FB
:105AD0005022002168461E4628F0E2FB04230821DC
