:020000040800F2
:10000000000005244D2400082D1D00082F1D0008A8
:10001000311D0008331D0008351D000800000000D8
:1000200000000000000000000000000071BD00089A
:10003000371D00080000000001BE0008A1B500083F
:100040009D2400089D2400089D2400089D2400088C
:100050009D2400089D2400089D2400089D2400087C
:100060009D2400089D2400089D2400089D2400086C
:100070009D2400089D2400089D2400089D2400085C
:100080009D2400089D2400089D2400089D2400084C
:100090009D2400089D2400089D2400089D2400083C
:1000A0009D2400089D2400089D240008391D000897
:1000B0009D2400089D240008451D00089D2400087B
:1000C0009D2400089D2400089D2400089D2400080C
:1000D0009D2400089D2400089D2400089D240008FC
:1000E0009D2400089D240008000000009D240008B5
:1000F0009D2400089D2400089D2400089D240008DC
:100100009D2400089D2400089D2400089D240008CB
:100110009D2400089D240008511D00089D2400080E
:100120009D2400089D2400089D2400089D240008AB
:100130009D2400089D2400089D2400089D2400089B
:1001400000000000000000000000000000000000AF
:100150009D2400089D2400089D2400089D2400087B
:100160009D2400089D2400089D2400089D2400086B
:100170009D2400089D2400089D2400089D2400085B
:100180009D2400089D2400089D2400089D2400084B
:100190009D2400089D2400089D2400089D2400083B
:1001A0005D1D00089D240008691D00080000000076
:1001B0009D2400089D2400089D2400089D2400081B
:1001C0009D2400089D24000800000000000000009D
:1001D00000000000000000009D2400080000000056
:1001E000000000000000000000000000000000000F
:1001F00000000000000000009D2400089D2400086D
:100200009D2400089D240008000000009D24000893
:100210009D2400089D2400089D2400089D240008BA
:100220009D240008000000009D240008000000003C
:100230009D2400089D240008000000009D24000863
:100240009D2400089D2400089D2400089D2400088A
:100250009D2400089D2400089D2400089D2400087A
:100260009D2400089D2400089D2400089D2400086A
:100270009D2400089D2400089D2400080000000023
:100280009D2400089D2400089D2400089D2400084A
:10029000000000009D2400089D2400089D24000803
:1002A0009D2400089D2400089D2400089D2400082A
:1002B0009D2400089D2400089D2400089D2400081A
:0C02C0009D2400089D2400089D240008D7
:1002D00010B5054C237833B9044B13B10448AFF380
:1002E00000800123237010BD2001002400000000C5
:1002F000A8E0020808B5034B1BB103490348AFF35C
:10030000008008BD0000000024010024A8E00208CD
:1003100001F0FF01102A2BDB10F0070F08D010F8B6
:10032000013B013A8B422DD010F0070F42B3F6D1BA
:10033000F0B441EA012141EA014122F007047FF0D3
:1003400000070023F0E80256083C85EA010586EA2A
:10035000010685FA47F5A3FA87F586FA47F6A5FA66
:1003600087F68EB9EED1F0BC01F0FF0102F0070272
:1003700032B110F8013B013A83EA010313B1F8D11D
:100380000020704701387047002D06BF35460338FE
:10039000073815F0010F07D1013015F4807F02BF37
:1003A000013015F4C03F0130F0BC0138704700BF88
:1003B00081F0004102E000BF83F0004330B54FEA16
:1003C00041044FEA430594EA050F08BF90EA020F83
:1003D0001FBF54EA000C55EA020C7FEA645C7FEA16
:1003E000655C00F0E2804FEA5454D4EB5555B8BF39
:1003F0006D420CDD2C4480EA020281EA030382EAAA
:10040000000083EA010180EA020281EA0303362D3B
:1004100088BF30BD11F0004F4FEA01314FF4801C0E
:100420004CEA113102D0404261EB410113F0004F20
:100430004FEA03334CEA133302D0524263EB4303D7
:1004400094EA050F00F0A780A4F10104D5F1200E75
:100450000DDB02FA0EFC22FA05F2801841F10001D0
:1004600003FA0EF2801843FA05F359410EE0A5F1A4
:1004700020050EF1200E012A03FA0EFC28BF4CF0D5
:10048000020C43FA05F3C01851EBE37101F000458B
:1004900007D54FF0000EDCF1000C7EEB00006EEB98
:1004A0000101B1F5801F1BD3B1F5001F0CD3490822
:1004B0005FEA30004FEA3C0C04F101044FEA445279
:1004C00012F5800F80F09A80BCF1004F08BF5FEA00
:1004D000500C50F1000041EB045141EA050130BDE0
:1004E0005FEA4C0C404141EB0101013C28BFB1F5F2
:1004F000801FE9D291F0000F04BF01460020B1FA3D
:1005000081F308BF2033A3F10B03B3F120020CDA0F
:100510000C3208DD02F1140CC2F10C0201FA0CF0ED
:1005200021FA02F10CE002F11402D8BFC2F1200C52
:1005300001FA02F120FA0CFCDCBF41EA0C01904008
:10054000E41AA2BF01EB0451294330BD6FEA040451
:100550001F3C1CDA0C340EDC04F11404C4F120023C
:1005600020FA04F001FA02F340EA030021FA04F34E
:1005700045EA030130BDC4F10C04C4F1200220FAA5
:1005800002F001FA04F340EA0300294630BD21FAE3
:1005900004F0294630BD94F0000F83F4801306BFA9
:1005A00081F480110134013D4EE77FEA645C18BF9D
:1005B0007FEA655C29D094EA050F08BF90EA020F34
:1005C00005D054EA000C04BF1946104630BD91EA2C
:1005D000030F1EBF0021002030BD5FEA545C05D12F
:1005E0004000494128BF41F0004130BD14F580046E
:1005F0003CBF01F5801130BD01F0004545F0FE41E2
:1006000041F470014FF0000030BD7FEA645C1ABF16
:10061000194610467FEA655C1CBF0B46024650EA4D
:10062000013406BF52EA033591EA030F41F4002179
:1006300030BD00BF90F0000F04BF0021704730B5FF
:100640004FF4806404F132044FF000054FF00001D4
:1006500050E700BF90F0000F04BF0021704730B595
:100660004FF4806404F1320410F0004548BF40426A
:100670004FF000013EE700BF42004FEAE2014FEABF
:1006800031014FEA02701FBF12F07F4393F07F4F9A
:1006900081F06051704732F07F4208BF704793F09D
:1006A0007F4F04BF41F40021704730B54FF46074B0
:1006B00001F0004521F000411CE700BF50EA0102B3
:1006C00008BF704730B54FF000050AE050EA01025C
:1006D00008BF704730B511F0004502D5404261EBCC
:1006E00041014FF4806404F132045FEA915C3FF40D
:1006F000D8AE4FF003025FEADC0C18BF03325FEAAA
:10070000DC0C18BF033202EBDC02C2F1200300FA5A
:1007100003FC20FA02F001FA03FE40EA0E0021FA7F
:1007200002F11444BDE600BF53B94AB9002908BF1D
:1007300000281CBF4FF0FF314FF0FF3000F06AB9C6
:10074000ADF1080C6DE904CE00F006F8DDF804E028
:10075000DDE9022304B070472DE9F047089D0C46FF
:10076000002B4ED194468C458646B2FA82F262D96D
:100770004AB1C2F12003914020FA03F30CFA02FCC3
:10078000194300FA02FE4FEA1C471FFA8CF6B1FB30
:10079000F7F44FEA1E4307FB141143EA014304FB3D
:1007A00006F199420AD91CEB030304F1FF3080F0F3
:1007B0001281994240F20F81023C6344591A1FFA98
:1007C0008EF3B1FBF7F007FB101143EA014300FB86
:1007D00006F69E420AD91CEB030300F1FF3180F0BC
:1007E000FC809E4240F2F980634402389B1B40EA41
:1007F000044000211DB1D3400022C5E90032BDE80C
:10080000F0878B4205D90DB1C5E9000100210846EA
:10081000F5E7B3FA83F1002946D1A34202D390420F
:10082000C0F0F080861A64EB03030120002DE6D0AF
:10083000C5E90063E3E7002A40F09080A1EB0C04D7
:100840004FEA1C481FFA8CF70121B4FBF8F64FEA77
:100850001E4308FB164443EA044307FB06F0984294
:1008600008D91CEB030306F1FF3402D2984200F2D0
:10087000CD8026461C1A1FFA8EF3B4FBF8F008FB55
:10088000104443EA044300FB07F79F4208D91CEBDE
:10089000030300F1FF3402D29F4200F2B0802046F1
:1008A000DB1B40EA0640A5E7C1F120068B4022FA97
:1008B00006F71F4320FA06FC04FA01F343EA0C038F
:1008C000F44000FA01F8380C4FEA1349B4FBF0FE8B
:1008D0001FFA87FC00FB1E4449EA04440EFB0CF996
:1008E000A14502FA01F20AD93C190EF1FF3A80F053
:1008F0008480A14540F28180AEF1020E3C44A4EB1D
:1009000009041FFA83F9B4FBF0F300FB134449EA2E
:10091000044403FB0CFCA44507D93C1903F1FF3048
:1009200067D2A44565D9023B3C4443EA0E40A0FB94
:100930000293A4EB0C049C42CE469C4651D34ED06D
:1009400055B1B8EB0E0364EB0C0404FA06F6CB4089
:100950001E43CC40C5E90064002150E7C2F12003EA
:1009600020FA03F10CFA02FC24FA03F394400C433E
:100970004FEA1C4800FA02FE1FFA8CF7B3FBF8F0AE
:1009800008FB1031230C43EA014300FB07F19942B5
:1009900008D91CEB030300F1FF362CD299422AD967
:1009A000023863445B1AA4B2B3FBF8F108FB1133BD
:1009B00044EA034401FB07F3A34208D91CEB0404F7
:1009C00001F1FF3613D2A34211D902396444E41A6B
:1009D00041EA004139E70446F0E6084606E7C84523
:1009E000AED2B9EB020E63EB070C0138A8E7314633
:1009F000EDE7034699E73046D4E7D6467FE7634400
:100A000002384DE70646234608460FE7023E634498
:100A100030E700BF704700BF014900200CF06EBBFB
:100A20004929000808B564200AF03BFEFBE70000F6
:100A300038B5214DEB68AA6801339C1A08F03CFADE
:100A40006B68B3F5005F2DD020D8B3F5805F2BD055
:100A500016D85BB3A3F500656B426B415B005C434A
:100A60004FF47A73144D2403B0FBF3F0B4FBF0F4AD
:100A7000013420460AF015FE28460AF08CFDF8E7FE
:100A8000A3F5C0514B424B41DB00E8E7B3F5405FB3
:100A90000ED0B3F5605F0DD0A3F520525342534101
:100AA0005B01DCE71023DAE70423D8E70123D6E76C
:100AB0004023D4E78023D2E7C024002408B501F006
:100AC00095FC32200AF0EDFDF9E708B501F032FAA5
:100AD00041F288300AF0E5FDF8E708B501F00EFBB9
:100AE00041F288300AF0DDFDF8E708B501F05EFB61
:100AF00041F288300AF0D5FDF8E7000007B54FF65F
:100B0000FF730190012201A903480AF0D2FB01986A
:100B100003B05DF804FB00BFD424002410B59CB0E2
:100B20004C22002109A82CF02BFB2022002101A837
:100B30002CF026FB042007F01DFD002300931C4B26
:100B40009A6922F440429A619A6902F44042009202
:100B5000009A9A699404FCD509224FF4803300244A
:100B60002C2109A81B94CDE9092302230122CDE9F8
:100B7000123314930E92CDE917330C23CDE91512DD
:100B8000CDE9193407F034FD03213F2308204FF449
:100B900080620394CDE901314023CDE9040301A82B
:100BA0000693CDE9072308F03FF81CB010BD00BF45
:100BB0000048025800B5AFB00021982208A82CF0D8
:100BC000DFFA4FF0007200236846CDE900230522CA
:100BD0005023CDE902230223CDE904330693802379
:100BE00007932023139308F0A5FA2FB05DF804FBB8
:100BF000D24B5A6912F400322DE98048A1B011D1CC
:100C0000BFF34F8FBFF36F8FC3F85022BFF34F8FE7
:100C1000BFF36F8F5A6942F400325A61BFF34F8FAE
:100C2000BFF36F8FC54A536913F4803323D1C2F8E1
:100C30008430BFF34F8FD2F8803043F6E074C3F3B3
:100C4000C900C3F34E335B0103EA0406014646EADA
:100C500081750139C2F86052F9D2203B13F1200F9F
:100C6000F2D1BFF34F8F536943F480335361BFF325
:100C70004F8FBFF36F8F05F0C7F80024FFF74EFFCB
:100C80000125FFF797FF1422002113A82CF078FA12
:100C9000AB4B48F20801AB48D3F8E0204FF008090D
:100CA00002274FF0030A42F002024FF48068A64E7A
:100CB0004FF0180BC3F8E020D3F8E02002F0020256
:100CC0000092009AD3F8E02042F04002C3F8E020FE
:100CD000D3F8E02002F040020192019AD3F8E0201C
:100CE00042F00802C3F8E020D3F8E02002F0080246
:100CF0000292029AD3F8E02042F01002C3F8E020FA
:100D0000D3F8E02002F010020392039AD3F8E02017
:100D100042F00102C3F8E020D3F8E02002F0010223
:100D20000492049AD3F8E02042F00402C3F8E020D1
:100D3000D3F8E02002F004020592059AD3F8E020EF
:100D400042F08002C3F8E020D3F8E02002F08002F5
:100D50000692069AD3F8E02042F02002C3F8E02081
:100D60000022D3F8E03003F020030793079B06F03E
:100D70006DF800224FF44041744806F067F80022F5
:100D80004FF48061724806F061F800220121714839
:100D900006F05CF813A970481595CDE9139405F099
:100DA000D7FE4FF4005313A96C481597CDE91334BF
:100DB00005F0CEFE4FF4004313A96248CDE9133588
:100DC000CDE9154405F0C4FE202313A95D4815950F
:100DD000CDE9133405F0BCFE402213A960481797F3
:100DE000CDE91327CDE9154405F0B2FE13A9554806
:100DF000CDF858A01594CDE9139505F0A9FE4FF450
:100E0000807213A956481595CDE9132405F0A0FE6C
:100E10004FF4404213A94D48CDE91325CDE9154AB9
:100E200005F096FE13A94A48CDE91385CDE915448E
:100E300005F08EFE13A94748CDE91355CDE9154AB3
:100E400005F086FE4748484A056202608480C0E992
:100E5000054405F053FD4FF440334448444AC0E98B
:100E60000254C0E9002305F0AAFD3422214613A84C
:100E70002CF086F93F4A2823352140F2152040F214
:100E8000352C3461B48686F83640C6E90024092240
:100E9000C6E905320B22C6E9071240F21B12C6E969
:100EA000090240F21D123046C6E90BC2C6E90244EF
:100EB00006F00CFC4FF0050E4FF4F0714FF4887201
:100EC0004FF0E040FF23CDF868804FF00408139402
:100ED000ADF87C408DF87E40CDE91BE0CDE91625CC
:100EE000CDE91D1230462246234ECDE9141413A934
:100EF000CDE9183406F0B5FC5A46214613A82CF06B
:100F00003FF91E4A20233046B460F463C6E9002846
:100F10004FF08072C6E90574C6E90323C6E9097477
:100F2000C6E90D94C6E90744C6E90B4406F026FE5F
:100F30004FF0011341F2883213A921E000ED00E0E7
:100F40000044025800180258DC260024000402580D
:100F5000000C025800000258001002580008025805
:100F600000140258EC270024004C02588427002467
:100F70000010005200100050802600240050005243
:100F8000169303F57F03304615951793CDE9135556
:100F900007F080F8304606F065FE40F20113204667
:100FA000CD4EADF8383004F08BFB0EA9204604F08E
:100FB00079FC204604F04CFB5A46214613A82CF03D
:100FC000DFF8102221460AA82CF0DAF81422214674
:100FD0000EA82CF0D5F8C14B3046B460C6E90038F5
:100FE0004FF08063C6E9033B4FF0805B1723C6E9EF
:100FF0000BB34FF4C8734FF6FF7BC6E90584C6E90F
:101000000974F363C6E90744C6E90D44CDE9084411
:1010100006F0B4FDB24B41F2883213A9169303F5E2
:101020007F03304615971793CDE9137707F032F811
:10103000CDF828A04FF0060A41F288320AA93046BE
:101040000D95A84FCDE90BA406F06EFE4FF440536A
:1010500041F288320EA910934FF00053304611959B
:1010600012930E940F9406F085FE08A9304608945A
:1010700006F0A0FF01F0E8F9102221460EA89A4ED2
:101080002CF07EF81022214613A80C94CDE90A44D6
:101090002CF076F8954B3046B460C6E90034C6E9CA
:1010A00003B4C6E9054409F033FB4FF480530EA99D
:1010B00030460E9309F06CFC304609F059FB0AA942
:1010C00030460C94CDE90A4409F030FE0C2213A9F5
:1010D0003046CDE91345CDE9154409F0BBFB10229C
:1010E000214613A81094CDE90E442CF049F8804B0A
:1010F00038463C61BC61C7E90034C7E9024B09F0DE
:1011000037FB0EA938460E94109409F00FFE0C22FE
:1011100013A93846DFF858B2CDE91345CDE9154497
:1011200009F098FB2422214613A81094CDE90E441F
:101130002CF026F84FF440336E495846CBF808900F
:101140004FF07F09CBF81C50ABF818408BF82040CB
:10115000CBF830408BF84440CBE90013CBE904488E
:10116000CBE90A44CBE90F4405F0C2F90EA9584671
:101170000E9405F00BFB604B13A958461594189478
:101180008DF86D40CDE9133A40F2FF73CDE9163882
:1011900004F0AEFE1422214613A82BF0F1FFDFF875
:1011A000D481564B4046C8F81040C8F814400E94FD
:1011B000C8E90034FF23C8E90644C8E9029309F0EE
:1011C00045F82A4613A94046ADF84C408DF84E40EC
:1011D000CDE9164409F091F8494B2A460EA940463C
:1011E000484D0E9309F0EBF847484FF460534FF029
:1011F0000C080461C0E900535023444DC0E9023992
:101200000AF0B5F9DFF870C14FF4E13328462C61DC
:10121000C5E900C3C5E90244C5E90584C5E9074439
:10122000C5E909440AF0F5F8214628460AF05FF9B5
:10123000214628460AF07BF928460AF03DF901F0DC
:101240002FF901F02CF901F0CBF800F0EBFD00F0E4
:10125000C7FE4146304609F063FC4146384609F076
:101260005FFC0AF0ABF92A4A21462A480AF0D2F973
:10127000294B2A4A2146186029480AF0CBF9294B04
:10128000294A2146186029480AF0C4F9284B294AFE
:101290002146186028480AF0BDF9284B284A214603
:1012A000186028480AF0B6F9274B284A21461860EA
:1012B00027480AF0AFF9274B274A214618602748EC
:1012C0000AF0A8F9264B274A2146186026480AF05A
:1012D000A1F9264B52E000BF2426002400A00052B2
:1012E0000200010068250024B4250024000001400C
:1012F0000008004000200240020030040040005876
:101300000101010000300050C0240024D424002436
:1013100048E30208250A0008BC24002424E302084C
:10132000AF2400080C22002400E30208F53E000868
:1013300008220024DCE20208310A000858110024C7
:10134000B8E2020811140008A80E002494E2020872
:10135000BD0A0008F80B002470E20208CB0A00085E
:10136000480900244CE20208DB0A00089806002421
:10137000102800240026002400480040054A214689
:10138000186005480AF046F9044B18600AF028F97D
:10139000FEE700BF28E20208EB0A0008E803002489
:1013A000124A1349134808B52CF021F80F4A114985
:1013B0000F482BF0D5FEA0B10F482BF069FD4FF47C
:1013C000F0620E490E482CF012F84FF4F0620C490E
:1013D0000A482BF0C5FE30B10A48BDE808402BF0A2
:1013E00057BD0948E9E70948F7E700BF00FA0500DB
:1013F000800700908001067000E102080000009064
:1014000000FA057056E102082BE1020885E10208A6
:1014100008B5FFF7C5FF00F0E7FE04200AF041F928
:10142000F9E700000268034B9A4201D104F01ABDAB
:10143000704700BF00100040704700000A4B82B0A8
:101440000F216FF00100D3F8F42042F00202C3F83C
:10145000F4200022D3F8F43003F002030193019B3F
:1014600002B005F00BBA00BF00440258026882B017
:10147000114B9A421ED1114B4FF00071D3F8D82076
:10148000084642F02002C3F8D820D3F8D82002F052
:1014900020020092009AD3F8E02042F00102C3F843
:1014A000E020D3F8E03003F001030193019B02B088
:1014B00004F0FCBC02B07047002002400044025817
:1014C000026882B0094B9A420DD1A3F50063D3F8AC
:1014D000E02042F40022C3F8E020D3F8E03003F427
:1014E00000230193019B02B0704700BF004C0258DB
:1014F0000F4B07B502689A4217D10E4B05215A20AF
:10150000D3F8D42042F01002C3F8D4200022D3F83C
:10151000D43003F010030193019B05F0AFF95A207A
:1015200003B05DF804EB05F0DBB903B05DF804FB34
:1015300000100052004402582DE9F041BCB00446AE
:101540001422002109A82BF01BFEB82200210EA8AE
:101550002BF016FE2268774B9A4240F0E7804FF05E
:10156000005200230EA8CDE90E234FF490731922E8
:10157000CDE918230223CDE91A331E231C934FF41F
:1015800000731E9307F0D6FD08B1FFF755FF6A4BB5
:10159000002402260325D3F8E4200E2709A9674872
:1015A00042F008024FF05808C3F8E420D3F8E420D2
:1015B00002F008020192019AD3F8E02042F0020200
:1015C000C3F8E020D3F8E02002F002020292029A6F
:1015D000D3F8E02042F00802C3F8E020D3F8E0207E
:1015E00002F008020392039AD3F8E02042F01002BE
:1015F000C3F8E020D3F8E02002F010020492049A2D
:10160000D3F8E02042F00102C3F8E020D3F8E02054
:1016100002F001020592059AD3F8E02042F0400260
:10162000C3F8E020D3F8E02002F040020692069AC8
:10163000D3F8E02042F08002C3F8E020D3F8E020A5
:1016400002F080020792079AD3F8E02042F00402E9
:10165000C3F8E020D3F8E0300D9703F004030893BB
:10166000089B40F20333CDE90B45CDE9093605F07F
:101670006FFA492309A932480D97CDE90936CDE91A
:101680000B4505F065FA4BF6030309A92D480D97A4
:10169000CDE90936CDE90B4505F05AFA4FF48073D0
:1016A00009A92948CDE909360D23CDE90B450D934C
:1016B00005F04EFA4FF4814309A924480D97CDE96E
:1016C0000936CDE90B4505F043FA48F6087309A938
:1016D0001F480D97CDE90936CDE90B4505F038FADD
:1016E000C02309A91B480D97CDE90936CDE90B4563
:1016F00005F02EFA09A914480D97CDE90986CDE920
:101700000B4505F025FA102309A91148CDE9093642
:101710000923CDE90B450D9305F01AFA4046224600
:10172000052105F0ABF8404605F0DAF83CB0BDE81D
:10173000F08100BF0010005000440258000402581D
:10174000000C0258001002580000025800180258FD
:10175000001C0258000802582DE9F04391B00446DD
:10176000142200210BA82BF00BFD2368884A93421A
:1017700040F0B080874A13680133012B13600CD10D
:10178000854BD3F8D42042F40012C3F8D420D3F808
:10179000D43003F400130093009B7F4B02250324F5
:1017A0000927D3F8D4200BA97C48002642F48042B4
:1017B0004FF00A084FF00409C3F8D420D3F8D4201E
:1017C00002F480420192019AD3F8E02042F04002F4
:1017D000C3F8E020D3F8E02002F040020292029A1F
:1017E000D3F8E02042F00802C3F8E020D3F8E0206C
:1017F00002F008020392039AD3F8E02042F01002AC
:10180000C3F8E020D3F8E02002F010020492049A1A
:10181000D3F8E02042F02002C3F8E020D3F8E02023
:1018200002F020020592059AD3F8E02042F002026D
:10183000C3F8E020D3F8E03003F002030693069BE0
:101840004FF40073CDE90B35CDE90E4705F080F973
:10185000B0230BA95248CDF83C80CDE90B35CDE93A
:101860000D6405F075F90BA94E480F97CDE90B955E
:10187000CDE90D6405F06CF940230BA94748CDF87C
:101880003C80CDE90B35CDE90D6405F061F94FF4ED
:1018900060530BA942480F97CDE90B35CDE90D6494
:1018A00005F056F94FF480630BA93F480F97CDE937
:1018B0000B35CDE90D6405F04BF90BA93B48CDF88C
:1018C0003C80CDE90B95CDE90D6405F041F911B0EF
:1018D000BDE8F083364A9342F9D12E4A13680133AA
:1018E000012B13600CD12C4BD3F8D42042F40012FE
:1018F000C3F8D420D3F8D43003F400130793079B24
:10190000254B032402250926D3F8D4200BA923480C
:10191000002742F40022C3F8D420D3F8D42002F4E4
:1019200000220892089AD3F8E02042F04002C3F85F
:10193000E020D3F8E02002F040020992099AD3F89F
:10194000E02042F02002C3F8E020D3F8E03003F0BA
:1019500020030A930A9B40F60303CDE90E46CDE926
:101960000B3505F0F5F84FF4A0530BA90B480F9475
:10197000CDE90B35CDE90D7405F0EAF841F21F030E
:101980000BA909480F96CDE90B35CDE90D749CE7FD
:1019900000500052802800240044025800180258C9
:1019A000000C02580010025800140258000402589B
:1019B00000A00052274A08B5036893422AD1264B5B
:1019C0001A68013A1A60254B2AB9D3F8D42022F4B8
:1019D0000012C3F8D420D3F8D4204FF4107120485B
:1019E00022F48042C3F8D42005F094F943F6B00104
:1019F0001C4805F08FF904211B4805F08BF94FF4C2
:101A000080611A4805F086F904211948BDE80840AC
:101A100005F080B9174A93421AD10F4B1A68013A60
:101A20001A600E4B2AB9D3F8D42022F40012C3F85E
:101A3000D420D3F8D42041F60341094822F40022EF
:101A4000C3F8D42005F066F941F21F010748DDE72D
:101A500008BD00BF005000528028002400440258F6
:101A600000180258000C02580010025800140258C6
:101A70000004025800A0005210B5AEB00446B822CF
:101A8000002168462BF07CFB22680C4B9A4212D155
:101A900000234FF480026846CDE900234FF4007321
:101AA0002C9307F047FB08B1FFF7C6FC044A136FFD
:101AB00043F4004313672EB010BD00BF0040005830
:101AC0000044025810B588B004461422002103A82F
:101AD0002BF056FB2268194B9A422CD1184B03A9C4
:101AE0001848D3F8F02042F00102C3F8F020D3F8F0
:101AF000F02002F001020192019AD3F8E02042F0B6
:101B00001002C3F8E0204FF48042D3F8E03003F035
:101B100010030293029B0223CDE9032305930123C3
:101B2000079305F015F81B200022052104F0A6FEFE
:101B30001B2004F0D5FE08B010BD00BF000001401E
:101B4000004402580010025810B588B00446142210
:101B5000002103A82BF014FB2268184B9A422AD1CB
:101B6000174B03A91748D3F8E82042F00402C3F842
:101B7000E820D3F8E82002F004020192019AD3F899
:101B8000E02042F00802C3F8E0204FF40042D3F80E
:101B9000E03003F008030293029B0223CDE9032304
:101BA000079304F0D5FF1E200022052104F066FEF5
:101BB0001E2004F095FE08B010BD00BF00080040D4
:101BC00000440258000C025810B5B6B00446142266
:101BD000002103A82BF0D4FAB822002108A82BF08A
:101BE000CFFA22681A4B9A4230D10222002308A869
:101BF000CDE9082307F09EFA08B1FFF71DFC154B4D
:101C000003A91548D3F8E82042F48022C3F8E8205D
:101C1000D3F8E82002F480220192019AD3F8E02060
:101C200042F00802C3F8E0204FF44072D3F8E030ED
:101C300003F008030293029B0223CDE90323002350
:101C4000CDE905330723079304F082FF36B010BDBA
:101C50000048004000440258000C02580B4B07B5E6
:101C600002689A420FD1012008F088FA084BD3F895
:101C7000E42042F04002C3F8E420D3F8E43003F05B
:101C800040030193019B03B05DF804FB003000505A
:101C9000004402580F2810B504468AB002D901202A
:101CA0000AB010BD01460022362004F0E7FD3620C0
:101CB00004F016FE184B694602A81C60174BD3F8B7
:101CC000E82042F01002C3F8E820D3F8E83003F02F
:101CD00010030193019B07F013F9079BC3B907F0A9
:101CE000EBF80F4C0F4B236040F2E733E3600E4BF1
:101CF000B0FBF3F001380023606020462361A3604D
:101D000008F006FD0028CAD1204608F0A3FBC7E76B
:101D100007F0D2F84000E4E75800002400440258DD
:101D2000842800240010004040420F007047FEE766
:101D3000FEE7FEE7FEE77047014808F0D4BB00BFAE
:101D4000B4250024014808F0CEBB00BF682500245C
:101D5000014808F0C8BB00BF84280024014805F0F2
:101D600023BD00BFDC260024014804F067BE00BF8D
:101D7000842700240120704708B52BF00BFB1623A5
:101D800003604FF0FF3008BD08B52BF003FB1623AE
:101D90000360FEE770B50D4614460E46731B9C4269
:101DA00001DC204670BDAFF3008006F8010BF5E7BB
:101DB00070B50D4614460E46731B9C4201DC20464E
:101DC00070BD16F8010BFEF799FEF5E74FF0FF30F6
:101DD00070474FF4005300204B607047012070475C
:101DE000002070470B4A0346116810B509B90A492B
:101DF0001160106809490A4C0344091B8B4206D93B
:101E00002BF0C8FA0C2303604FF0FF3010BD1360B5
:101E1000FCE700BFD0280024788E012400000524B0
:101E2000001000000123024A1370024A1370704729
:101E3000092900240829002410B50020002400F0FE
:101E400027FA054A034605491060054A4C601068A8
:101E50001360181A086010BDF4280024E828002434
:101E6000F0280024024B034819682BF011B800BF7A
:101E7000DC2800246CE3020810B5FFF7DDFF124BED
:101E8000124C1860124B1968124BB0FBF1F11B6831
:101E900021605943104B11481960114B1B68B1FB6D
:101EA000F3F1104B1960104B1A68114419602AF0B5
:101EB000EFFF0E4A216813680B440D49BDE810403E
:101EC0000B601360FFF7CEBF04290024FC28002418
:101ED000080000240C000024002900247EE30208EE
:101EE00010000024F8280024E0280024DC28002426
:101EF000D828002408B5FFF7BFFF044B044A1B682D
:101F000012685343034A136008BD00BFF828002439
:101F100004000024D4280024054B1B78012B01D198
:101F2000FFF7AABF022B01D1FFF7E4BF704700BF44
:101F30000829002408B500F033FAC0B2022806D1FF
:101F400005482BF00DF8054B00221A6008BDBDE8CE
:101F50000840FFF7E1BF00BF88E30208F82800242B
:101F6000114B4FF47A721A604FF461620F4B1A6092
:101F700064220F4B1A6001220E4B1A6005220E4B91
:101F80001A603C220D4B1A70C8220D4B1A60322287
:101F90000C4B1A7010220C4B1A7028220B4B1A7023
:101FA0007D220B4B1A6070475829002454290024C5
:101FB000502900244C2900244829002444290024C5
:101FC0004029002435290024342900243C290024F8
:101FD0003829002401482AF0C3BF00BF9FE302084C
:101FE00008B5074A002307481370074A1370FFF724
:101FF000B7FF2AF0B5FFBDE80840FFF7EBBF00BF11
:102000005D290024C6E302085C29002408B50020ED
:1020100000F03EF90649074B024618600B680A605B
:10202000C01A054B48BF00F1FF30186008BD00BF63
:10203000282900242C2900243029002408B5FFF782
:10204000E5FF114B114A1860114B12681968114BCA
:10205000B0FBF1F11960104B10481B685943104B4D
:102060001960104B1B6859430F4B19600F4B1B68CD
:1020700053430F4AB1FBF3F113600E4B1960BDE8F7
:1020800008402AF005BF00BF1C2900245429002461
:102090004C2900242029002450290024E5E30208CB
:1020A0002429002458290024182900244829002420
:1020B000142900241029002408B5FFF7BFFF064BA0
:1020C000064A1B7812685343054A1278B3FBF2F3B1
:1020D000044A136008BD00BF3429002410290024DD
:1020E000352900240C290024034B1B780BB9FFF77A
:1020F000A5BFFFF7E1BF00BF5C29002408B500F0D1
:102100004FF9C0B2022808D106482AF029FF00235F
:10211000054A1360054A136008BDBDE80840FFF793
:10212000E3BF00BFEEE30208102900240C290024BD
:1021300008B5012000F0ACF80B490C4B02461860C2
:102140000B680A60C31A0A4848BF03F1FF330360F3
:10215000084803600848834236BF3C204FF0FF30F8
:102160005843064B186008BD6C29002468290024D8
:102170006429002460290024444444047029002474
:10218000094B10B51A686FF42F74224442F62244AA
:10219000A24207D9427842F00802427001220A7036
:1021A00000221A60188810BD7029002407B500F0BD
:1021B000F7F8C0B2022808D1094B002209481A607A
:1021C00003B05DF804EB2AF0CBBEFFF7B1FF0DF1D1
:1021D000030101A8FFF7D4FF03B05DF804FB00BFC3
:1021E0007029002408E4020838B54FF480711448BF
:1021F00004F026FE20210546124804F021FE0821A5
:102200004400114804F01CFE104944EA8504104DB6
:102210000C2264B22B782043C8540133FF20DBB278
:102220002B70013A11F8014B12F0FF0200EA040092
:10223000F7D108490B2B087088BF2A7038BD00BF42
:102240000014025800180258001002587629002481
:102250007529002474290024014B1878704700BFA9
:102260007429002408494FF6FF7231F81030934268
:1022700003F1010310B508BF044C21F8103002BF70
:10228000225C0132225410BD8A29002488290024AE
:102290000128064A08D8064B06491B5C31F8101085
:1022A000C3EB03430B441360106870478429002478
:1022B000882900248A2900240368064A934202D10F
:1022C0000020FFF7CFBF044A934201D10120F8E775
:1022D000704700BF000001400008004008B50C2115
:1022E000044808F0C7FC18B1BDE80840FFF7A4B8DF
:1022F00008BD00BFB425002408B50C21044808F02F
:102300000FFC18B1BDE80840FFF796B808BD00BF44
:10231000B425002438B50024044DE3B2013455F847
:10232000233003B938BD9847F7E700BF3CE4020803
:1023300038B50024044DE3B2013455F8233003B915
:1023400038BD9847F7E700BF34E4020838B50024E9
:10235000044DE3B2013455F8233003B938BD984732
:10236000F7E700BF2CE4020838B50024044DE3B2BF
:10237000013455F8233003B938BD9847F7E700BF5B
:1023800024E4020808B5FFF767FF6FEA900000F049
:10239000010008BD08B5FFF75FFFC0F3800008BD6E
:1023A000002000F017B8000008B503482AF0D8FD57
:1023B000BDE80840FFF7A0BF80E4020808B5034865
:1023C0002AF0CEFDBDE80840FFF788BFA4E402086C
:1023D00070477047014B33F8100070478E29002476
:1023E000014B01221A8070478E2900242DE9F04705
:1023F000DFF8508000254FF00C09114EB8F800703E
:10240000EBB209FB03F39C19F35A73B13B4214D0AE
:102410006388BB420BD063687BB1984768B1A368FF
:1024200003B198476388A8F80030BDE8F087A36837
:10243000002BFAD0BDE8F04718470135E0E700BFB0
:1024400044E402088E29002470470000DFF834D0ED
:1024500003F084FC002103E00B4B5B584350043134
:102460000A480B4B42189A42F6D30A4A02E000236C
:1024700042F8043B084B9A42F9D32AF091FFFEF749
:10248000B7FB7047000005245C32030800000024FD
:102490002001002420010024748E0124FEE77047EF
:1024A00008B501F0F7F8BDE8084001F07BB801F08D
:1024B000F3B8406870474160704700004FF0E02279
:1024C000D2F8FC3D43F08073C2F8FC3D054B064A50
:1024D000D3F8B01F0A43C3F8B02F1A6842F00102C4
:1024E0001A607047001000E055CEACC5521A02EBDE
:1024F0005302B2FBF3F07047014B5868704700BFBE
:10250000001000E0704710B504460C2129F085FF4B
:10251000204610BD036810B51B69044631B19847C9
:10252000A26863689B1A0344636010BD9847A0606B
:10253000FBE770471FB5082300206946CDE902304C
:10254000054B1B880093054B1B88019303F024FB6C
:1025500005B05DF804FB00BF5682012458820124B7
:1025600010B50446042129F058FF204610BD30B5AF
:1025700085B000200D46144601A90390CDE9010065
:1025800003F08CFB40B14FF0500383F31188BFF38D
:102590006F8FBFF34F8FFEE7019820B1029B0120A0
:1025A0002B60039B236005B030BD0000032825D8B5
:1025B000DFE800F0020B131C114B012111481A68CF
:1025C000B2FA82F2520904F041BC0D4B08210E48C8
:1025D0005A68B2FA82F25209F5E7094B4FF480418A
:1025E0009A68B2FA82F252090848ECE7044B4FF4B9
:1025F0000041DA68B2FA82F25209F5E7704700BF8B
:1026000090290024000002580018025800040258C3
:10261000032825D8DFE800F0020B131C114B012121
:1026200011481A68003A18BF012204F00FBC0D4B84
:1026300008210E485A68003A18BF0122F5E7094BF5
:102640004FF480419A68003A18BF01220848ECE72D
:10265000044B4FF40041DA68003A18BF0122F5E755
:10266000704700BF9029002400000258001802584B
:1026700000040258032811D8DFE800F00206090D13
:102680000121074804F0E7BB08210648FAE74FF4A8
:1026900080410548F6E74FF40041FAE7704700BF74
:1026A00000000258001802580004025808B5032818
:1026B00015D8DFE800F0020A0D110121094804F0E5
:1026C000BFFB431E5842584108BD08210648F6E7A3
:1026D0004FF480410548F2E74FF40041FAE700204B
:1026E000EFE700BF0000025800180258000402582B
:1026F00070B5084D00240126E0B2FFF7D7FF18B1EE
:102700002B68012B18BF2E6001340435052CF3D142
:1027100070BD00BF90290024012380F8781080F854
:10272000793070470020704741640039024B18BF70
:1027300001211970704700BF5B820124002070479F
:10274000836B0BB10846184770474FF6FF70704710
:10275000406803689B6918477047000038B5044615
:1027600001F0C6F80749236804F17C052046D3F838
:102770008C3098472846FFF7A1FE0123256184F895
:10278000703038BD0000007008B503680446D3F807
:1027900080309847236820469B6F984700F02CF9BB
:1027A000236820461B6F984701224FF48061084838
:1027B00004F04CFB01224FF40041064804F046FBB4
:1027C00000F01AF9236820461B6F9847F8E700BF0E
:1027D000000C02580018025810B5044619F090F980
:1027E00023682046D3F8AC30BDE81040184701F00C
:1027F0004BB801F04FB8000070B501F0A3F81049D4
:102800000023C1F88430BFF34F8FD1F8803043F6F6
:10281000E074C3F3C900C3F34E335B0103EA04065B
:10282000024646EA8275013AC1F87452F9D2203B59
:1028300013F1200FF2D1BFF34F8FBFF36F8F70BD35
:1028400000ED00E000F0FCBF01F0E6B901F0EEB9E8
:1028500001F000B818F0C0BB10B50446882129F07B
:10286000DCFD204610BD000090F834100D4B10B573
:1028700090F878401A788C4209D03AB90A490B4A44
:1028800008881488108001220C801A7010BD002A5C
:10289000FCD0064A0449148808880C801080002265
:1028A000F3E700BF548201245282012450820124A4
:1028B00070B50D46194635B9094B40F2D221094A87
:1028C00009482AF021F9C0E90F52003A074B18BF16
:1028D00001221A700368BDE87040D3F88C301847A5
:1028E0000CE5020844E5020892E502085A82012438
:1028F00008B5094B1B888B4203D8084B1B889342B1
:1029000005D9074B9E21074A07482AF0FDF8074BD7
:102910001980074B1A8008BD50820124528201247D
:10292000D7E502083AE6020892E502085682012439
:1029300058820124034690F87A0018B15868036859
:102940001B68184770470000014608B5034B18681C
:1029500001B1012119F0EEF8012008BD5C820124CB
:102960000121002208B5084608F01EFF0A4B186036
:1029700028B90A4B28210A4A0A482AF0C5F8002239
:102980000421012008F0AFFF074B186018B9074B6E
:102990002C21034AF0E708BDA429002458E70208C7
:1029A000A1E70208D0E70208A029002422E80208D3
:1029B000024B4FF0FF31186808F040BFA4290024F3
:1029C000014B186808F066BFA4290024024B0021BF
:1029D000186808F033BF00BFA4290024FFF7F0BF38
:1029E0000023034803491A46006808F0B7BF00BF38
:1029F000A02900241400002413B50023074C01A9CA
:102A00001A46206808F0DBFF4FF0FF33002201A9CF
:102A1000206808F0D4FF02B010BD00BFA029002438
:102A200003685B6C18470120704703689B6A18476E
:102A300040F2EF3070470000054B4FF080620360BA
:102A4000044BC3F88820BFF34F8FBFF36F8F7047DD
:102A5000C4E9020800E100E010B504464FF45A61F1
:102A6000FFF7EAFF204629F0D8FC204610BD000001
:102A70000F4B82B0D3F8D42042F01002C3F8D42018
:102A8000D3F8D42002F010020192019ADA6F42F0DA
:102A90001002DA67DA6F22F01002DA67054B064A95
:102AA0001A62064B4FF080629A6002B0704700BF16
:102AB0000044025884270024052D000800E100E0AE
:102AC00008B50A2809D8DFE800F006100E08080843
:102AD000081010101000022008BD054B8621054A81
:102AE00005482AF011F80020F6E70120F4E700BFBE
:102AF00064E802087FE80208CAE8020838B50C4614
:102B0000887FFFF7DDFF124BA58AE28A586342EA0D
:102B1000054221695A64628BD963521B1A64256885
:102B2000082D0ED19A611A6158620A4A207F42EA42
:102B30000062DA61E2681A62074A5961D9601A6074
:102B400038BD0022D8611A61E2689A63034AF6E749
:102B500000100052090001000102020001020300FE
:102B600008B50B280BD8DFE800F00612100A0A0A95
:102B70000A0808080808022008BD0520FCE7054BE4
:102B80006521054A054829F0BFFF0020F4E7012030
:102B9000F2E700BF64E802081AE90208CAE802087E
:102BA0002DE9F8434F7F89463846FFF7D9FF99F85A
:102BB0001E5080462846FFF7D3FF06462846FFF7FB
:102BC0007FFFB9F81410B9F81A40B9F81820454B2E
:102BD000641A521A1C649C611A61B9F81620586371
:102BE00042EA0142D9F810105A64D9F80420D96396
:102BF000DA60D9F8004099F81C20802C22D00FD838
:102C0000202C66D0402C64D0042C5CD048EA0260B2
:102C1000344BAF4240F40030D86160D0324A3FE0DC
:102C2000B4F5807F04D0B4F5007FEFD12F4800E0E9
:102C30002F4840EA0262DA61D9F80C201A625E621B
:102C400059612CE048EA0260D9F8084040F40030AD
:102C5000D8615E625961211DD962217841B1012993
:102C600021D0244B4FF48071234A244829F04CFF93
:102C7000DA69618822F47F42013922F0100242EAC7
:102C80000122DA610122174BD96941F02001D96193
:102C9000D9698906FCD410219960002ABED0184A4F
:102CA0001A60BDE8F883D969FF3A608821F47F4152
:102CB00018BF0122013821F0100141EA002141F042
:102CC0001001D961DFE748EA026242F40032DA61BA
:102CD000B5E748EA0262034B42F40032F7E740F2FC
:102CE0000122DDE70010005201020100090002008C
:102CF0000A00020064E902087EE90208CAE8020844
:102D000001020200024B1B68586803685B691847A0
:102D10005C82012470B504460A4B0C30002625461F
:102D2000602260602672667245F8203B294619F0E1
:102D300057F804F55A63EE6024359D42FBD12046D6
:102D400070BD00BFC4E90208034B1A68D207FCD467
:102D500023229A60704700BF0010005230B5104C1B
:102D60002568ED07FCD423250904FF2BA5604FF04F
:102D7000010541EA050165636164E0630CD009491E
:102D800022F07F42656241EA0363E361064B2262FF
:102D90006061E060236030BDE561044BA263F9E748
:102DA00000100052090001000100020001000300B0
:102DB0004069704790F844007047036B23B9C06ABC
:102DC000003818BF012070470120704780687047A5
:102DD000043010B50C460FC884E80F0010BD7047D2
:102DE00008B5034A40F21221024B034829F08CFE39
:102DF0000CEA02089B04030867EA020810B50446BF
:102E0000482129F00AFB204610BD2DE9F0411E465D
:102E1000ADF51E7D436B07460C469046A69D93B3C9
:102E2000002203A8CDE9013210F022FE4FF4F47223
:102E30005021249024A80AF0E8FD4246214624A807
:102E40000BF03CFD012124A80AF0DAFE022324A89D
:102E50008DF8D8300AF075FF419BBDF89482BDF81B
:102E60009022984528BF98462B9B9A4228BF1A4625
:102E700002EB4204479B984509D824A80AF0E2FED9
:102E800024A80AF00FFE0DF51E7DBDE8F081012299
:102E900001A924A80AF09EFF30462246796B2E44F1
:102EA0002AF0A5FAE6E700000A4A02600022C0E91B
:102EB0000522C0E90722C0E90922C0E90B22C0E9C6
:102EC0000D12C0E90F2280F84420C0E90322C0E9B6
:102ED000012270474CED020810B40C4611461A4608
:102EE000036B3BB1036C806BE41A20445DF8044B28
:102EF0002AF04EB9C06AF8E7036B10B573B1036CE2
:102F0000826BC91A5318525C98785C780004DB789D
:102F100040EA0420104340EA036010BDC36A5858D9
:102F2000FBE7036B43B1036CC91A836B5A18585CF7
:102F3000527840EA02207047C36A585A704700002E
:102F400070B50446006B0D461646D8B1E36B93424C
:102F500008D209230D4A65210D4884F844300D4BF1
:102F600029F0D2FD0368DB689847206B3246A16BDD
:102F700003681B69984710B90D2384F84430A06B8F
:102F8000256470BDE06A0844FBE700BFD6EA02088A
:102F900067EA0208C3EA02082DE9F84343690446D8
:102FA0002BB9234BAA21234A234829F0ADFD08223F
:102FB0008169FFF7C5FFA16943F2300646F2643725
:102FC00004312046FFF798FFA3691844A36A00F173
:102FD00008029A4206D3012300206361236AA36199
:102FE000BDE8F883636909300822013320F001014C
:102FF00020466361A161FFF7A3FFD4F81890204633
:103000004946FFF78EFF09F1020180462046FFF78F
:1030100088FF09F1040105462046FFF76DFFB04522
:10302000D2D1BD42D0D10028CED00120D8E700BFF8
:1030300018EB020861EB020867EA02082DE9F04F7D
:103040000546ADF51F7D8B469046816908221F46D7
:10305000FFF776FFAE692846311DFFF74DFF06F1F9
:103060000801024604462846FFF76AFF6B6B0646D6
:1030700033B9344B40F2AB11334A344829F044FDA4
:10308000002203A8CDE9013210F0F2FC4FF4F472F3
:103090005021249024A80AF0B8FC2246314624A8E6
:1030A0000BF00CFC012124A80AF0AAFD022324A89D
:1030B0008DF8D8300AF045FEBBF902A0479B534576
:1030C0002DD3BBF8063007EB4707BBF80260BBF90E
:1030D00000401E44BBF80420419B04EB440936B277
:1030E000224407FB0A9A9E4212B2D04428BF1E46D1
:1030F0002B9B9A4294BFC4EB0204C4EB030404EB81
:103100004404479BB34210D324A80AF09BFD24A893
:103110000AF0C8FC01200DF51F7DBDE8F08F0122EB
:1031200001A924A80AF056FEC8E7012201A924A893
:103130000AF050FE696B404622464944B8442AF0E2
:1031400056F9DEE794EB0208EAEB020867EA0208A8
:103150000129036838BF0121DB6A70B50D460446BA
:103160009847A84204D223682046DB6A9847054660
:103170006B1EE6691022204606EB031606F10801D5
:10318000FFF7DEFE06F110012046FFF7B5FE236AC9
:10319000043B0344C4E9055370BD000000214822EC
:1031A0002DE9F0410446816180F84410FFF7C8FE24
:1031B000A6690423624A31462046FFF78DFE40B1DE
:1031C0000323604AF22184F844305F4B5F4829F0C2
:1031D0009BFC06F1080104235D4A2046A161FFF72C
:1031E0007BFE30B10423574AFA2184F84430594B0E
:1031F000ECE706F10C010423574A2046A161FFF7D2
:103200006BFE074638B105234E4A40F2011184F89F
:103210004430524BDAE706F110012046FFF76CFE0E
:10322000054620B94E4B40F20711464ACEE706F15B
:10323000140804234B4A20464146FFF74DFE002860
:1032400049D0062384F844300423474A06F1180184
:103250002046FFF741FE00283FD0072384F8443082
:103260004544424F0C2220462946FFF769FE05F1EE
:10327000080604233A4620463146FFF72DFE94F80F
:103280004430002848D0002B48D1A36AAB4249D82B
:1032900005F10C0304352046A3612946FFF72CFEF7
:1032A0003044294660622046FFF726FE0644042289
:1032B00020463146FFF744FE04232D4A314620467E
:1032C000FFF70AFE002838D10123E6616361A36994
:1032D0002362BDE8F0810127B6E7002FC0D006F1D8
:1032E00020012046FFF708FE4FF47A7306F1300103
:1032F000B0FBF3F060602046FFF7FEFD06F14001F1
:10330000A0602046FFF7F8FD06F14401E06020468A
:10331000FFF7F2FD2061A3E7002BB9D00A2384F860
:103320004430D6E7291D2046FFF7E6FD85190C221B
:1033300020462946FFF704FE99E70B23EFE700BF7D
:1033400044EC020862EC020849EC020867EA020851
:103350008FEC020894EC0208ACEC0208B1EC020815
:10336000C7EC0208D3EC0208D8EC0208DDEC020836
:10337000E2EC0208C0E90A2100220263FFF70EBF57
:1033800010B5002304460846E3620B6821639B687E
:103390009847A0622046BDE81040FFF7FFBEF0B49A
:1033A000069FBDF81050BDF8146032B12BB10495E2
:1033B000CDE90567F0BCFFF728BDF0BC7047000001
:1033C0002DE9F04F9946436985B004460F46904673
:1033D0002BB9294B7721294A294829F095FB082246
:1033E0008169FFF7ADFDA66920463146FFF799FDDB
:1033F000B11C83462046FFF794FD311D82462046CE
:10340000FFF77AFD06F10801A36A054642189A42C1
:1034100026D243F230039B4517D146F264339A45D6
:1034200013D190B10246A1612046FFF789FD0E9BA2
:1034300001462A462046CDF80080CDE901933B465F
:10344000FFF7ADFF636901336361A3692B4405B9DD
:1034500008330133626A23F001039342A36109D167
:10346000012301206361236AA36180F0010005B09C
:10347000BDE8F08F0020F8E718EB0208E7EC02083F
:1034800067EA0208012070470C2070470C2303FBF9
:103490000100083070470C2303FB0100083070471F
:1034A00001207047C4207047C42303FB010008308B
:1034B0007047C42303FB01000830704701207047A8
:1034C0001020704700EB01100830704700EB01102E
:1034D00008307047084600F0DBBE0000034B10B513
:1034E0000446036017F0CEFA204610BDF4ED020842
:1034F00010B50446FFF7F2FF1421204628F08DFF97
:10350000204610BD034B10B50446036017F0BAFA0D
:10351000204610BDC0ED020810B50446FFF7F2FFCB
:10352000CC21204628F079FF204610BD034B10B572
:103530000446036017F0A6FA204610BD8CED020881
:1035400010B50446FFF7F2FF1821204628F065FF6A
:10355000204610BD084B10B5044640F8F83BFFF775
:10356000BDFF04F12C00FFF7CDFF04F11400FFF7BD
:10357000DDFF204610BD00BF28EE020808B5024856
:10358000FFF7E8FF08BD00BF6038002410B504460F
:10359000FFF7E0FF4FF41C71204628F03EFF204665
:1035A00010BD00002DE9F34100F0FAFC00240546AF
:1035B00000F0FAFC234601462246284600941EF0FD
:1035C0006FFF274B274A2046274D1A6001F090F8DD
:1035D000264B274A27489A601EF01AFE2B68BFF335
:1035E0005B8FDB0735D4284628F019FF88B3224CBF
:1035F000224B04F58A7604F1140004F12C0804F13E
:10360000F80723606060C4F80880E760266117F05F
:103610003BFA1B4B4046636117F036FA194B3846AC
:10362000E36217F031FA184B04F58670C4F8F830ED
:1036300001F0D4F8224604F58671304601F0C4F852
:10364000304600F025FE114829F07CFA284628F083
:10365000F2FE0F4802B0BDE8F041FFF77FB800BFAF
:10366000C0820124302A00245C380024502A00241F
:10367000342A0024180000246038002428EE0208B0
:103680008CED0208C0ED0208F4ED02087D3500085B
:10369000A8290024704700000148FFF775B800BF53
:1036A000A829002470B5274E274B284C3046284DBA
:1036B0002360FFF72FFB284621F0A0FF25481CF0D0
:1036C000DDFF254B00224FF4807124481A8683F8D1
:1036D00058205A6683F87020DC60C3E91212204932
:1036E000C3E91A121F490B604FF4F07101801E48A4
:1036F00001804FF488711D4801801D4801801D49DB
:10370000C3E90422C3E90622C3E90822C3E90A2265
:10371000C3E90E22C3E91022C3E91422C3E9172228
:10372000C3E901650A701449C3F8802083F8342086
:1037300019605A671149C3F88420114A9967DA67FA
:1037400070BD00BFB82A0024FCE4020858380024E9
:10375000502A0024342A0024A8290024508201245D
:10376000010000015C82012456820124528201245E
:10377000588201245482012488E6020800000101D5
:10378000D4E402080148FFF757B900BFB82A002463
:103790000020704781807047C18070470181704769
:1037A000418170477047704770477047704710B449
:1037B000C4880368121B84885B6D091B12B25DF814
:1037C000044B09B218474FF6FF7383814FF0FF3364
:1037D00003621368C36110607047002070478B88D4
:1037E000838001207047704780F82610704790F85A
:1037F00026007047002210B5B1F90840B1F90A104F
:10380000028042808480C18010BD002202804280FC
:103810008280C28070470177704780ED080A704748
:1038200080F82410704780F82510704701207047F9
:10383000983070478C307047843070477047000074
:10384000034B902283F85A2383F85823704700BF14
:1038500000E100E0094A0A49D3680A48C3F30A03B1
:10386000013B9BB20B801169C1F30A010139018050
:103870001364536B43F0010353637047001000500F
:10388000D23A0024D03A0024014BD3F8AC00704760
:1038900000100050024B0122C3F8AC105A6270476E
:1038A000001000500163C0E90D2170477047704758
:1038B000704700EB8100114640680368DB681847D9
:1038C00080F83C10704710B50446482128F0A5FD4B
:1038D000204610BD10B504462C2128F09EFD204640
:1038E00010BD10B50446BC2128F097FD204610BD40
:1038F00038B5044617F0C5FB23685D6E1BF090FDDC
:1039000001462046A8472368074A2046D3F8885036
:1039100000230649A847064B064A5A60064A1A631E
:103920009A63064A5A6338BD80F5117080FB0B70AC
:10393000943B0024DC3B002480EF177000FA050064
:1039400017F086BB17F04EBB17F0AFBC38B5044676
:103950000D46406C4FF0FF3107F0E4FE606C07F05D
:1039600004FF242303FB0545002385F8283094F841
:1039700028300BB9236BA36338BD90F8252012B112
:1039800003685B6918477047124A5369DB0370B5D7
:103990001ED50023C2F88430BFF34F8FD2F8803099
:1039A00043F6E074C3F3C900C3F34E335B0103EA8B
:1039B0000406014646EA81750139C2F87452F9D20B
:1039C000203B13F1200FF2D1BFF34F8FBFF36F8F66
:1039D00070BD00BF00ED00E008B531B1044B4FF4FD
:1039E000B871044A044829F08FF890F8290008BDFE
:1039F00034EE020848EE0208D2EF020810B531B1E9
:103A0000064B4FF4B571064A064829F07DF8406828
:103A100011460368BDE810401B6B184734EE0208DE
:103A200015F00208D2EF020808B529B1034B79213D
:103A3000034A044829F068F8C06808BD34EE02085B
:103A4000C3F10208D2EF020810B5044629B1194BA0
:103A5000A221194A194829F057F8052A15D8DFE894
:103A600002F0031115171C22406803681B69984770
:103A700058B1012384F8293084F82C300023C4E99C
:103A8000043302E0002380F8293010BD0362F5E71B
:103A90000362012380F82A30F0E7002380F8293000
:103AA00001230362F1E7003B18BF012380F82D30AA
:103AB000EBE700BF34EE020878F30208D2EF020809
:103AC00010B50C4611461A462CB1064B9021064AF9
:103AD000064829F019F8C46040680368BDE8104042
:103AE0009B68184734EE02084CF50208D2EF020832
:103AF00008B529B1054B8221054A064829F004F88A
:103B0000C0E90411C0E9063208BD00BF34EE020866
:103B100027F70208D2EF020890F83D3010B50446AE
:103B200053B14FF0FF31406C07F0FCFD002384F8E7
:103B30003D30012384F83E3010BD90F825201AB1A5
:103B400090F8242002B118607047000010B50446B8
:103B5000104629B1134BD021134A144828F0D4FF42
:103B600094F8293033B1124B1B6893F86B206369CA
:103B70001344636194F82B300BB9012010BDA36886
:103B8000036303685B699847002394F82C0084F86A
:103B90002B300028F1D194F82D30002BEED184F891
:103BA0002900EBE734EE0208E3F80208D2EF02083E
:103BB0005C82012410B5174C17F056FA94F829309E
:103BC00013B994F82A30ABB1E169D4E90532534313
:103BD00022694A4393420DD394F83C0038B19B1AB2
:103BE000B3FBF1F2994298BF02F1FF326262012306
:103BF00084F82E300123206C84F83D3007F04AFE13
:103C000094F83E302BB1606C07F0AFFD002384F8D0
:103C10003E3010BD943B0024034B4FF080629A600D
:103C20004FF080729A60704700E100E0084B4FF05F
:103C30008062C3F88820BFF34F8FBFF36F8F4FF0C0
:103C40008072C3F88820BFF34F8FBFF36F8F704728
:103C500000E100E0F8B5034690F82800D8B94FF429
:103C600080729E6B0125D8609A8506F5BF22186187
:103C700002F5007258619861D861186258629D62BD
:103C800083F82E00D3E90C473C44A2420AD90B4BDF
:103C900052210B4A03E00B4B40F2C5110A4A0B4874
:103CA00028F032FF9E609A634FF4F07381F834502D
:103CB000CB864FF4887308630B87F8BD3BFC020882
:103CC00076FC020884FA0208B4FA0208D2EF02086D
:103CD000002370B5124E04468380124B0360336894
:103CE00093F858200AB1D86C00B998680368DB6A69
:103CF0009847431E5D425D413368D86C30B103681C
:103D0000DB6A9847012808BF45F001052DB9064B2D
:103D10002721064A064828F0F7FE204670BD00BF5E
:103D20005C8201241CFF020819FE020877FE0208CB
:103D3000B0FE020870B5244E3568BFF35B8F15F0F6
:103D400001053FD1304628F06AFB00283AD01F4CCD
:103D50001F4B04F134002561E584A562A585C4E903
:103D60000035C4E902551CF0E8FE04F1580019F0D2
:103D7000BDFB184B2046A365174B40F8843BFFF76B
:103D8000A7FF164B1648C4F884302433C4F890506B
:103D9000C4F88C306423C4F89C50C4F8A850C4E91B
:103DA00028350023C4F8AC30C4F8B030C4F8B430BF
:103DB000C4F8B8300B4BC4F8983028F0C3FE304636
:103DC00028F039FB014870BDD43A0024D83A0024C9
:103DD000FC2803083CFF0208B4FF02084829030836
:103DE0003D3800088029030810B5144C236823B31C
:103DF000134B144A1B6C11888B4213D1124B198838
:103E000003F05CFD226892F86A30013382F86A3070
:103E1000FEF7E6FD206817F073FE0020BDE81040B5
:103E2000FEF7C4BB03F04AFD206803681B6A98478D
:103E30000020BDE81040FEF7EBBB10BD5C82012402
:103E400000100050D23A0024D03A00242DE9F74364
:103E5000044601264FF4B4674FF0FF31206C07F0A1
:103E6000EDFC4FF0FF31606C07F05CFC94F82E30F5
:103E700043B36568D4F820802B6884F82B60B8F1D0
:103E8000000F23D05B6A41462846984700232362EF
:103E90002B684FF4F07200972846D3F814804FF443
:103EA0008873A168C047236984F82C00013323611B
:103EB000F0B12B6828469B6A984701380023E060E0
:103EC00084F82E30606C07F050FCC5E7626A002A67
:103ED000DED02846D3E909939847616A0144284611
:103EE000C8472369626AC4F8248013442361CFE77A
:103EF0000120E3E7014808B5FFF7A8FF943B002441
:103F000038B5154900251548FEF7CEFF144C154B62
:103F10002A462946012023604FF48073A563A387B6
:103F2000A38584F83E5084F82E50C4E90C55C4E9AA
:103F30001055C4E90155C4E90355C4E90555C4E960
:103F40000755C4E9095507F02FFC2064284607F0FF
:103F5000B4FB606438BD00BF243C0024DC3B00247B
:103F6000943B002400000308704710B50446042168
:103F700028F053FA204610BD012908B506D00229C1
:103F800008D059B900F0F2FB006808BD00F0EEFB64
:103F90004068FAE700F0EAFB8068F6E70020F4E703
:103FA00000487047500003080220704713B50024F2
:103FB00051B1036801AA01948DF803409C680DF18A
:103FC0000303A04702B010BD0846FBE7C089704755
:103FD000008A7047C088704780887047807A00F0F8
:103FE0007F007047807AC00970470020704700004A
:103FF0009FED010A704700BF000000007047704746
:1040000000F598730868496803C3704770477047A4
:104010004160704770470000064BC0F84801C0F887
:104020004C310023C0F8503100F5A273C0F8403184
:10403000704700BFD94000080123037270477047E2
:10404000704710B441680346C2689B68541001EB86
:104050006200D20748BF0A595DF8044B48BFD358E5
:1040600018470346406830B19A681AB9D86800F01A
:10407000010070470120704710B504460C2128F05C
:10408000CCF9204610BD10B50446102128F0C5F922
:10409000204610BD10B504464FF4AE7128F0BDF9AE
:1040A000204610BD10B51BF0BBF90368BDE81040F9
:1040B000DB6B184710B50446D0F8400158B10368CF
:1040C000DB68984738B1D4F8400103689B6898478B
:1040D0000023C4F8403110BD2DE9F14FD0E9556AF5
:1040E0000746B06803681B6A9847C32805D8444B45
:1040F000A321444A444828F007FD706803681B6AFE
:1041000098470F2803D8414BA4213E4AF2E7F068B4
:1041100003681B6A98470B2803D83D4BA521394AF1
:10412000E8E7DFF8F4901BF07BF904301BF09DF911
:10413000D9F8000010B10368DB689847D9F800008F
:1041400010B103681B689847DFF8D080D8F80000EA
:1041500010B103685B699847D7F83C0110B1036858
:104160005B689847D8F8000010B103681B6898474F
:10417000D7F83C0110B103689B689847F0680021AC
:104180004FF0000B03685B6A9847224B0446C0F867
:1041900004B080F808B059460360B06803685B6AF1
:1041A0009847054600F068FB7068594603685B6AEB
:1041B00098470646294600F03FFB331DC7F83C618F
:1041C0002846C9F80040C8F80050CAF800302B68EB
:1041D000C6F808A0DB68EE639847336830461B6872
:1041E0009847214628461DF00BF9236820461B6995
:1041F0009847236820465B6901B0BDE8F04F184737
:104200007800030806010308D80103081F02030809
:10421000C2020308DC030308A4820124A082012453
:10422000044B1B6893F858200AB1D86C00B9986801
:10423000704700BF5C82012470B5044616460D46E7
:104240001BF0B4F90E4B00211C600E4B23600E4B8B
:10425000C4E951310D4B1868C4E953110368C4E92E
:104260004F119B68C4E955659847FFF7D9FF22F0C5
:10427000ACFAFFF7D5FF22F01FFB204670BD00BF50
:10428000B082012488030308700303085C820124C0
:10429000064BC0F84801C0F84C310023C0F850313B
:1042A00000F5A273C0F84031704700BFD940000844
:1042B000406A7047806A704770478B88C069DB0A24
:1042C0000A6850F823001044704710B50446BAB18C
:1042D000107B68B1537BD27A1B0203F4E0631A436C
:1042E000236A03EB82031A888A4202D193F90200FF
:1042F00010BD05D80138043380B20028F3D1F7E7A8
:104300000020F5E710B504462C2128F086F8204659
:1043100010BD000030B58BB00446BDF86050089564
:10432000BDF85C5007959DF8505006959DF84C508F
:1043300005959DF8485004959DF8445003959DF8C7
:10434000405002959DF83C500195BDF838500095BD
:104350001CF0B0FC064B20462360159BE361169BC6
:104360002362199B63621A9BA3620BB030BD00BF2E
:1043700000040308704770477047704770477047E4
:10438000704710B50446C42128F047F8204610BDF8
:10439000036870B504461B6B154698472368204692
:1043A00029465B6BBDE8704018470000002310B53C
:1043B000C0E90133C0E90333C0E90733C0E905337D
:1043C0004FF4807304468384054B03600B88C384D9
:1043D000FF2380F8283019F0E4F8204610BD00BF14
:1043E000802A03082DE9F743044600251CF05CFEF3
:1043F000314B2646E56304F16C0804F1980746F852
:10440000403B4FF6FF792D4B01A940462566A56636
:10441000ADF80490C4E910354FF48073A4F864300B
:10442000FF23C4E9125584F86630C4E91455C4E981
:104430001655FFF7BBFF01A93846ADF80490FFF70A
:10444000B5FF2A4629463046FFF7A2FF30464FF413
:10445000F07104F10409FFF7A1F930464FF48871B7
:10446000FFF79EF94FF07F4331464846A36616F0AA
:104470001FFB2A4629464046FFF78AFF012301A970
:104480004046ADF8043019F08CF84146484616F025
:104490000FFBF12238463621FFF77AFF01A9384693
:1044A000ADF8045019F07DF84846394616F000FB87
:1044B000204603B0BDE8F08368040308182A030807
:1044C0007047000030B5164D8FB02C68BFF35B8F7E
:1044D00014F0010420D1284627F0A1FFE0B13F23CA
:1044E000012210490993104B10480893104B0A946D
:1044F0000594CDE906430423CDE903320A23CDE92F
:104500000B440093CDE90144FFF704FF094828F06C
:1045100019FB284627F08FFF04480FB030BD00BFBD
:10452000A4430024DC3103080C320308A843002410
:1045300018320308C14400087047000030B5164D1A
:104540008FB02C68BFF35B8F14F0010420D1284694
:1045500027F065FFE0B13F23012210490993104B7A
:1045600010480893104B0A940594CDE906430423A0
:10457000CDE903321423CDE90B440093CDE9014486
:10458000FFF7C8FE094828F0DDFA284627F053FF58
:1045900004480FB030BD00BFD4430024EC31030801
:1045A00010320308D84300241C32030839450008A0
:1045B0007047000030B5164D8FB02C68BFF35B8F8D
:1045C00014F0010420D1284627F029FFE0B13F2351
:1045D000012210490993104B10480893104B0A947C
:1045E0000594CDE906430423CDE903322823CDE920
:1045F0000B440093CDE90144FFF78CFE094828F0F5
:10460000A1FA284627F017FF04480FB030BD00BFBD
:1046100004440024FC310308143203080844002435
:1046200020320308B1450008002070470020704781
:104630000EB403B503AB002153F8042B01931BF018
:104640003DFE02B05DF804EB03B070470CB407B553
:1046500004AB53F8042B01931BF030FE03B05DF85C
:1046600004EB02B070470000436C10B5044673B30E
:10467000038F2BB9184BC521184A194828F044FA62
:10468000C38E00EB43035B8C0BB31DF085FB238FC4
:10469000012B03D8134BCB21134AEEE7E28E40F6F1
:1046A0003F10531C9BB2092B194688BFA3F10A0186
:1046B00004EB4101498C814209D10A2B04EB4202EF
:1046C00028BF0023508C04EB4303588451842046B8
:1046D000BDE810401DF062BA940403089D0403086D
:1046E0004805030892050308A00503081DF01FBA3A
:1046F00038B518BB124B13481C681349B4B1226873
:1047000022440260626822440A60A26814440F4B8B
:1047100000221A8000F02AF8054600F025F80C4B1C
:104720001C600C4B1D600C4B188007E00B4B0360AA
:104730000B4B0B600B4B1C68002CE8D138BD00BF45
:104740004044002438440024344400243C440024E1
:10475000B4820124BC820124B882012428320308D7
:10476000243203082C3203080020704700487047A9
:104770004444002410B5054CFFF7E0FE2060FFF72D
:1047800019FF6060FFF79EFEA06010BD4444002446
:1047900010B5002404600C6014601C6010BD7047EC
:1047A00010B504464FF4AE7127F037FE204610BD19
:1047B00010B50446D0F8580100F014F82046BDE8C2
:1047C00010401AF0AFBE000010B50446FFF734FDEC
:1047D000014B2046236010BD7C06030800220260C6
:1047E0000271704710B504464FF40051064802F0BC
:1047F00027FB011E206818BF0121036821719B68F7
:10480000BDE81040184700BF000802587047043840
:1048100070477047C0680368DB6A1847A0F104005E
:10482000FFF7F8BF10B50446102127F0F6FD20462B
:1048300010BDA0F10400F5E70022C1608260024AC9
:1048400002601C3242607047D006030870470000C7
:10485000034B10B504460360FFF791FD204610BDE1
:104860000007030810B50446FFF7F2FFC4212046F5
:1048700027F0D3FD204610BD10B50446FFF7B2FD6A
:10488000014B2046236010BD00070308FFF778BDE9
:1048900080F8BD1098301BF03CBE40F201134FF47D
:1048A000F07200200B8005238B704FF48873C1E9F0
:1048B0000123704790F82430012B04BF002380F8B7
:1048C0002430002070470020704710B4046900892C
:1048D000A4465DF8044B604710B4C4680089A44640
:1048E0005DF8044B604770B500F118050E46097875
:1048F000284600F0F5F804463179284600F0FCF827
:104900000444317A284600F003F90444317B2846F8
:1049100000F00AF90444317C284600F011F90444FF
:10492000317D284600F018F9C44214BF4FF0FF3023
:10493000002070BD183000F027B937B500F1180518
:104940000C4601A9284600F0BEF808BB9DF80430CB
:10495000052B98BF184604232060032128460DEB41
:10496000030200F09DF8B0B99DF804309DF80520D1
:104970001B0203F4706313439DF8072063609DF8E6
:1049800006301B0203F470631343A36003B030BD11
:104990004FF0FF30DFE74FF0FF30F7E7183000F05F
:1049A0008DB80121183000F0E3B80021183000F074
:1049B000DFB810B590F8243004466BB90368984707
:1049C0002046FFF7F2FF00384FF0010318BF012027
:1049D00084F82430404210BD0020FCE700207047DE
:1049E00070B500F1180588B00C462846694600F0FD
:1049F0006AF890BB9DF80030052B98BF18462060E0
:104A00001E236A460321284600F04AF840BB21468F
:104A10006D4614342A78063515F8056C1302920990
:104A200003F47063334315F8036C41F8043F8C4280
:104A300015F8043CCA634FEA032303F4706343EAA6
:104A400006034B6115F8023C8B6215F8013C4FEAF6
:104A500013130B65DED108B070BD4FF0FF30CEE709
:104A60004FF0FF30F7E7000090B14A680B684260F2
:104A70000A8903600281CA68C2600A6902614A69E0
:104A800000624261044AC261044A826103B118476C
:104A90004FF0FF30704700BFCB480008D9480008EE
:104AA00010B4D0E90140A4465DF8044B604710B44F
:104AB00004688068A4465DF8044B604701230A46F9
:104AC0001946FFF7EDBF10B50A460C460123022137
:104AD000FFF7E6FF18B9237803F00F03237010BD2A
:104AE00007B501238DF807100DF107029121FFF79B
:104AF000DEFF03B05DF804FB07B501238DF8071056
:104B00000DF107029221FFF7D2FF03B05DF804FB1D
:104B100007B501238DF807100DF107029321FFF768
:104B2000C6FF03B05DF804FB07B501238DF807103D
:104B30000DF107029421FFF7BAFF03B05DF804FB03
:104B400007B501238DF807100DF107029521FFF736
:104B5000AEFF03B05DF804FB07B501238DF8071025
:104B60000DF107029621FFF7A2FF03B05DF804FBE9
:104B700007B501238DF807100DF10702A421FFF7F7
:104B800096FF03B05DF804FB0A460123A821FFF756
:104B900087BF4FF080624FF480334FF48071C0E9DB
:104BA00000234FF480524FF48063C0E902324FF487
:104BB0008043C0E9043283614FF48023C0E90713C6
:104BC0000020704770B59AB00E4605460021144685
:104BD00006A8502228F0D4FA1422002101A828F0B7
:104BE000CFFA2EB9012C50D14FF0FF301AB070BD62
:104BF0000423621E0993102053425341002E4FEAB2
:104C0000C3020B9214BF012200224FEA02114FEAA5
:104C100082220A9140F2FA510D924FEAC32208BF54
:104C200005210F924FF44052089106A90E920CBF35
:104C30004FF080724FF0806214924FEAC3624FEAE5
:104C40004373169214BF052200221893012C4FF0D3
:104C50000103179202930CBF022201224FF480033A
:104C6000159241F28832CDE90430284603F00DF860
:104C70000028B9D141F2883201A9284603F04AF947
:104C8000003818BF01204042B0E70123B1E770B5FA
:104C900096B00C46064615460021502202A828F080
:104CA0006FFA0023012CCDE9003305D1002D53D13B
:104CB0004FF0FF3016B070BD002C14BF0423012349
:104CC0000122002C059314BF1346002302924FEAE1
:104CD0000313069342D1002D0CBF0B230C23002C91
:104CE000049341F2883202A90CBF4FF480734FF451
:104CF0008063002D304609930CBF4FF400534FF4EE
:104D00004053002C0A930CBF4FF080734FF0806328
:104D100010930CBF08230623139302F0B6FF00285C
:104D2000C6D102230293E4B9002D18BF12230493C5
:104D3000002341F2883202A93046139302F0A5FF06
:104D40000028B5D100906946304603F033F90038A9
:104D500018BF01204042ADE70423B1E74EF61343EC
:104D6000BDE741F2ED23E2E710B596B004464C22D0
:104D7000002103A828F004FA00234FF0080C4FF498
:104D8000006141F288322046CDE9003301230293CD
:104D9000042305931023CDE9063C4EF611634FF032
:104DA000006C04934FF4806309934FF44053CDE9B2
:104DB0000A314FF0806302A910930623CDE912C394
:104DC0004FF00053149302F060FF18B14FF0FF3022
:104DD00016B010BD022341F2883202A9029341F2BB
:104DE000ED23CDE913002046049302F04EFF002886
:104DF000ECD100906946204603F0DCF8003818BF7B
:104E000001204042E4E72DE9F0419AB00F46054603
:104E10000021164606A8502228F0B2F914220021DB
:104E200001A828F0ADF937B9012E63D14FF0FF305A
:104E30001AB0BDE8F0810423711E099341F2883253
:104E400028464C424C41002F06A94FEAC40314BF28
:104E50004FF001084FF000080B934FEA08130A9334
:104E600040F2F96308BF0623089302F00EFF002802
:104E7000DCD1002F40F2FA530C9041F2883208BF87
:104E8000052306A9284608934FEA88230D934FEA85
:104E9000C4230F934FF440530E930CBF4FF0807315
:104EA0004FF0806314934FEAC4634FEA447416933F
:104EB00014BF05230023012E189417930CBF02235F
:104EC0000123159302F0E1FE0028AFD10223102246
:104ED000039001A92846CDE901334FF48003CDE9C1
:104EE000043241F2883203F015F8003818BF01206F
:104EF00040429DE701239FE7F0B595B00E46054679
:104F000014460021502268461F4628F039F92EB970
:104F1000012C46D14FF0FF3015B0F0BD04230393B0
:104F2000631E06975A425A41002E4FEAC203059368
:104F300014BF012300234FEA0313049347F28D2388
:104F400008BF722302930CBF4FF480734FF4806349
:104F500007934FEAC2234FEAC26209934FF44053CA
:104F6000109208930CBF4FF080734FF080630E9344
:104F700019D0012C14BF0123022341F28832694663
:104F800028460F9302F081FE0028C3D141F28832F7
:104F90001AA9284602F024FF003818BF0120404219
:104FA000BAE70123BBE70123E7E72DE9F04194B01D
:104FB0000F4606461546002150226846984628F0BE
:104FC000DFF837B9012D4ED14FF0FF3014B0BDE8F6
:104FD000F081042303936B1E41F2883269465C42E0
:104FE0003046CDF818805C41002F4FEAC40305938A
:104FF00014BF012300234FEA0313049347F28E13D7
:1050000008BF712302930CBF4FF480734FF4806389
:1050100007934FEAC42309934FF4405308930CBFFE
:105020004FF080734FF080630E934FEAC4634FEAF2
:105030004474109314BF05230023012D129411937F
:105040000CBF022301230F9302F01FFE0028BBD1E7
:1050500041F288321A99304602F006FF003818BF34
:1050600001204042B2E70123B4E770B594B00D4689
:105070000646144600215022684628F081F80DBBF0
:10508000012C21D00123621E03936946304654420D
:105090005441002D41F2883214BF012300234FEA0E
:1050A000C4044FEA03130594049346F2996308BFBE
:1050B0006623029302F0E9FD003818BF0120404248
:1050C00014B070BD0423DEE74FF0FF30F8E770B591
:1050D00094B00D460646144600215022684628F03A
:1050E0004FF80DBB012C21D00123621E03936946AA
:1050F000304654425441002D41F2883214BF0123FE
:1051000000234FEAC4044FEA03130594049349F6BD
:10511000661308BF9923029302F0B7FD003818BF49
:105120000120404214B070BD0423DEE74FF0FF3091
:10513000F8E70000114A08B513680BB9002008BD54
:10514000013B1360002BF9D14FF480410C4801F072
:10515000E1FD0B484FF4004101F0DCFD094A0A482B
:10516000D2F8F43023F08003C2F8F43002F006F8ED
:105170000028E3D06FF00700E1E700BF544E0024A1
:105180000014025800440258584E00240023012203
:1051900010B5416004460362C0E90232C0E904333D
:1051A000C0E9063301F094FF014608B1012010BDAB
:1051B000204602F0BAF901460028F7D1204602F055
:1051C000DAF9003818BF0120F1E700009F4BA04832
:1051D0002DE9F04F036093B09E4B1A6800920132A4
:1051E0001A60009B1BB1002013B0BDE8F08F02F0E5
:1051F00097F90028F7D1984D4FF4804201210426F9
:10520000D5F8E030954843F02003C5F8E030D5F8F4
:10521000E03003F020030A930A9BD5F8E03043F016
:105220002003C5F8E030D5F8E030119603F02003F4
:105230000B930B9B1223CDE90D230223CDE90F1312
:105240000DA901F085FC4FF400430DA983480D938F
:10525000119601F07DFCD5F8F43043F08003C5F8D9
:10526000F430D5F8F43003F080030C930C9BD5F8A0
:105270009C3043F08003C5F89C30D5F89C3023F077
:105280008003C5F89C3003F029FE00286AD0744BD7
:105290004FF01009009A03EB5003DFF8CCB19246AF
:1052A000B3FBF0F000EB40056E4B86000146C5F104
:1052B00032051B68C6F5C37625EAE57526EAE6766B
:1052C00088464FF0000CB8F5AF7FCDF804C00CF164
:1052D000010C5AD30027BE46BD4250D8BE424ED321
:1052E00091454CD0142404FB03FA0133019C0BEBD1
:1052F0000A097F2B4BF80A20C9E9014E3CD9594ACB
:105300001360584B40F6C412574900271B6802929D
:105310004FF0FF3205934300C3F5806B03F1320475
:10532000A3F634030BF1010B08940993059B9F42EC
:1053300037D17F2A16D814214B4B4A4399189B58D2
:105340000C7C44EA03744B681B0503F470031C4394
:105350008B681B0403F470231C43CB681B029BB2B5
:105360002343009300993A48FFF710FF00283FF4C9
:105370003AAF6FF0070037E791464FF0010A0EF1A0
:10538000010E0F44BEF1100FA6D1BCF1100F8844DE
:1053900099D101320144102A92D1BAF1000FAED155
:1053A000AFE70B684FF0000C089C03FB00031C44A4
:1053B000ABEB030503946C00039D0194099C1C4412
:1053C000079440F21454CDF810C00CF1010CA54222
:1053D00030D9A5F13206B0EB960F2BD2079C4FF0D7
:1053E000000EDDF804906619DDF80C8006F2A11AB3
:1053F00040F21244CDF818E00EF1010EA24512D889
:10540000B8F5167F0FD380450DD936EA260A28BF96
:10541000CA46029CA24506D2049ACDF808A00A61A9
:10542000069ACA603A46BEF5807F98441E44A9EBAE
:105430000309DBD1019CBCF5807F1D44A4EB030470
:105440000194BED10137143170E700BF001C005831
:10545000584E0024544E00240044025800140258B0
:1054600000CA9A3B50440024544400241FB54FF412
:105470007A7400920A4601460848CDE901340123B6
:1054800001F096FE40B1054802F04DF8042814BF23
:105490006FF003006FF0650004B010BD584E00249B
:1054A0001FB54FF47A7400920A4601460848CDE9C8
:1054B0000134012301F056FF40B1054802F033F8F2
:1054C000042814BF6FF003006FF0650004B010BD36
:1054D000584E002400F0D2BC30B5214C85B0214894
:1054E000A2786178FFF78FFC18B16FF0040005B067
:1054F00030BD03231B4800934FF44073A2786178BA
:10550000FFF7FAFC0028F0D1A27861781548FFF780
:105510007AFC03460028E8D1012512480095A278BC
:105520006178FFF7E9FC04460028DED1282000F06E
:10553000ABFC224629460B48FFF744FB03460028F4
:10554000D3D103AA2946009202460648FFF72DFD53
:105550000028CAD19DF80C30AB42C8D0C5E700BFC7
:10556000AC4E0024B44E002430B5274D85B0274CF6
:10557000AA7869782046FFF746FC18B16FF004005E
:1055800005B030BD0323204600934FF44073AA7842
:105590006978FFF7B1FC0028F0D1AA782046697835
:1055A000FFF731FC03460028E8D102222046009292
:1055B000AA786978FFF7A0FC0028DFD1282000F046
:1055C00063FC4FF080732046E3604FF08053E3624A
:1055D00002F0D4FAA8B9012220461146FFF7F2FAE8
:1055E00003460028CAD103AA204600920122114690
:1055F000FFF7DBFC0028C1D19DF80C30022BBFD097
:10560000BCE76FF00300BBE7AC4E0024B44E0024AF
:105610000E4A0423C0E900230A6800230261022223
:105620008360C0E905234A6842628A680363826234
:10563000CA68012AC0E9073312BF1A464FF08073C7
:105640004FF08052C360C26202F098BA005000521C
:1056500010B598B90B4CA37861785BB901220A4860
:10566000FFF715FB10B16FF0040010BD02230020FE
:105670002370FAE70448FFF777FBF3E76FF00100C8
:10568000F3E700BFAC4E0024B44E002410B550B96F
:10569000094C2378022B09D1084802F0BAFC40B922
:1056A0000123237010BD6FF00100FBE76FF01A00BB
:1056B000F8E76FF00300F5E7AC4E0024B44E002489
:1056C00010B5002856D12D4C2378022B4BD0002347
:1056D0004FF480612A482380A37001F01BFB042152
:1056E000284801F017FB4021274801F013FB4FF435
:1056F0000061264801F00EFB4FF48051234801F071
:1057000009FB0421224801F005FB4FF400511F481A
:1057100001F000FB10211D4801F0FCFA20211B487C
:1057200001F0F8FA4FF40071174801F0F3FA802104
:10573000164801F0EFFA174B1748DA6F42F480422F
:10574000DA67DA6F22F48042DA67D3F8D42022F4E1
:105750008042C3F8D42002F085FA002814BF6FF00D
:105760000300002010BDFFF791FF0028AFD06FF0BD
:105770000400F7E76FF00100F4E700BFAC4E00242F
:10578000001402580004025800180258000C025875
:105790000010025800440258B44E00242DE9FF4185
:1057A0000D461646002856D12E4C2378022B55D094
:1057B0006378012B46D10129A27809D1964207D1FD
:1057C0000123002065702370A67004B0BDE8F0814D
:1057D000254F01213846FFF716FB034678BB0090A2
:1057E000ADF80C003846A2786178FFF785FB80465B
:1057F00028BB282000F048FBA378012B06D13846AF
:10580000C7F80C80C7F82C8002F0B8F900221648BF
:105810001146FFF7D7F9034688B903AA014600925B
:1058200002461148FFF7C1FB48B99DF80C3033B967
:10583000012DC5D1A3784BB9FFF796FE08E06FF0B4
:105840000400C2E70129BBD1002AF5D1FFF744FECD
:105850000028BAD1B4E76FF00100B6E76FF0190085
:10586000B3E700BFAC4E0024B44E002400B54FF0A7
:105870000072AFB000236846CDE9002320235022F8
:1058800013930523CDE9023204930223CDE90533B6
:105890000023CDE90833079303F04CFC2FB05DF8EB
:1058A00004FB00002DE9F0430D469BB0002840F0BA
:1058B0006081B14E34781CB100201BB0BDE8F0838C
:1058C000AE4B4FF002094FF00A0811A9D3F8D420CB
:1058D0000427AB4842F48042C3F8D420D3F8D42044
:1058E00002F480420192019ADA6F42F48042DA6750
:1058F000DA6F22F48042DA67D3F8E02042F0200227
:10590000C3F8E020D3F8E02002F020020292029ACD
:10591000D3F8E02042F00202C3F8E020D3F8E02000
:1059200002F002020392039AD3F8E02042F0400210
:10593000C3F8E020D3F8E02002F040020492049A79
:10594000D3F8E02042F00802C3F8E020D3F8E020CA
:1059500002F008020592059AD3F8E02042F008020E
:10596000C3F8E020D3F8E02002F008020692069A7D
:10597000D3F8E02042F01002C3F8E020D3F8E02092
:1059800002F010020792079AD3F8E02042F00802D2
:10599000C3F8E020D3F8E02002F008020892089A49
:1059A000D3F8E02042F00802C3F8E020D3F8E0206A
:1059B00002F008020992099AD3F8E02042F00802A6
:1059C000C3F8E020D3F8E02002F008020A920A9A15
:1059D000D3F8E02042F04002C3F8E020D3F8E02002
:1059E00002F040020B920B9AD3F8E02042F008023A
:1059F000C3F8E0200122D3F8E03003F008030C9351
:105A00000C9B4023CDE911390323CDF85480CDE917
:105A1000132301F09DF811A95A4811971394CDF85A
:105A2000548001F095F84FF480631394092411A970
:105A300055481193159401F08BF84FF4006311A9A8
:105A400052481193159401F083F84FF4805311A933
:105A50004E481193159401F07BF811A94C48119709
:105A60002027159401F074F84FF4005311A947480A
:105A70001193159401F06CF8102311A94348119368
:105A8000CDF8548001F064F811A940481197CDF881
:105A9000548001F05DF84FF4007311A93848119358
:105AA000159401F055F8802311A938481193CDF8C9
:105AB000548001F04DF811A8FFF76BF8119BCDF859
:105AC000389093FAA3F30BB1B3FA83F7002331486C
:105AD0000D970F936B781093FFF7C8FE10B16FF01E
