:020000040800F2
:1000000000000524CD220008551C0008571C0008DC
:10001000591C00085B1C00085D1C00080000000063
:1000200000000000000000000000000091BC00087B
:100030005F1C00080000000021BD0008C9B40008D2
:100040001D2300081D2300081D2300081D23000890
:100050001D2300081D2300081D2300081D23000880
:100060001D2300081D2300081D2300081D23000870
:100070001D2300081D2300081D2300081D23000860
:100080001D2300081D2300081D2300081D23000850
:100090001D2300081D2300081D2300081D23000840
:1000A0001D2300081D2300081D2300081D23000830
:1000B0001D2300081D230008611C00081D230008E3
:1000C0001D2300081D2300081D2300081D23000810
:1000D0001D2300081D2300081D2300081D23000800
:1000E0001D2300081D230008000000001D23000838
:1000F0001D2300081D2300081D2300081D230008E0
:100100001D2300081D2300081D2300081D230008CF
:100110001D2300081D2300086D1C00081D23000876
:100120001D2300081D2300081D2300081D230008AF
:100130001D2300081D2300081D2300081D2300089F
:1001400000000000000000000000000000000000AF
:100150001D2300081D2300081D2300081D2300087F
:100160001D2300081D2300081D2300081D2300086F
:100170001D2300081D2300081D2300081D2300085F
:100180001D2300081D2300081D2300081D2300084F
:100190001D2300081D2300081D2300081D2300083F
:1001A000791C00081D230008851C000800000000C1
:1001B0001D2300081D2300081D2300081D2300081F
:1001C0001D2300081D23000800000000000000009F
:1001D00000000000000000001D23000800000000D7
:1001E000000000000000000000000000000000000F
:1001F00000000000000000001D2300081D2300086F
:100200001D2300081D230008000000001D23000816
:100210001D2300081D2300081D2300081D230008BE
:100220001D230008000000001D230008000000003E
:100230001D2300081D230008000000001D230008E6
:100240001D2300081D2300081D2300081D2300088E
:100250001D2300081D2300081D2300081D2300087E
:100260001D2300081D2300081D2300081D2300086E
:100270001D2300081D2300081D23000800000000A6
:100280001D2300081D2300081D2300081D2300084E
:10029000000000001D2300081D2300081D23000886
:1002A0001D2300081D2300081D2300081D2300082E
:1002B0001D2300081D2300081D2300081D2300081E
:0C02C0001D2300081D2300081D2300085A
:1002D00010B5054C237833B9044B13B10448AFF380
:1002E00000800123237010BD1001002400000000D5
:1002F000ECE0020808B5034B1BB103490348AFF318
:10030000008008BD0000000014010024ECE0020899
:1003100001F0FF01102A2BDB10F0070F08D010F8B6
:10032000013B013A8B422DD010F0070F42B3F6D1BA
:10033000F0B441EA012141EA014122F007047FF0D3
:1003400000070023F0E80256083C85EA010586EA2A
:10035000010685FA47F5A3FA87F586FA47F6A5FA66
:1003600087F68EB9EED1F0BC01F0FF0102F0070272
:1003700032B110F8013B013A83EA010313B1F8D11D
:100380000020704701387047002D06BF35460338FE
:10039000073815F0010F07D1013015F4807F02BF37
:1003A000013015F4C03F0130F0BC0138704700BF88
:1003B00081F0004102E000BF83F0004330B54FEA16
:1003C00041044FEA430594EA050F08BF90EA020F83
:1003D0001FBF54EA000C55EA020C7FEA645C7FEA16
:1003E000655C00F0E2804FEA5454D4EB5555B8BF39
:1003F0006D420CDD2C4480EA020281EA030382EAAA
:10040000000083EA010180EA020281EA0303362D3B
:1004100088BF30BD11F0004F4FEA01314FF4801C0E
:100420004CEA113102D0404261EB410113F0004F20
:100430004FEA03334CEA133302D0524263EB4303D7
:1004400094EA050F00F0A780A4F10104D5F1200E75
:100450000DDB02FA0EFC22FA05F2801841F10001D0
:1004600003FA0EF2801843FA05F359410EE0A5F1A4
:1004700020050EF1200E012A03FA0EFC28BF4CF0D5
:10048000020C43FA05F3C01851EBE37101F000458B
:1004900007D54FF0000EDCF1000C7EEB00006EEB98
:1004A0000101B1F5801F1BD3B1F5001F0CD3490822
:1004B0005FEA30004FEA3C0C04F101044FEA445279
:1004C00012F5800F80F09A80BCF1004F08BF5FEA00
:1004D000500C50F1000041EB045141EA050130BDE0
:1004E0005FEA4C0C404141EB0101013C28BFB1F5F2
:1004F000801FE9D291F0000F04BF01460020B1FA3D
:1005000081F308BF2033A3F10B03B3F120020CDA0F
:100510000C3208DD02F1140CC2F10C0201FA0CF0ED
:1005200021FA02F10CE002F11402D8BFC2F1200C52
:1005300001FA02F120FA0CFCDCBF41EA0C01904008
:10054000E41AA2BF01EB0451294330BD6FEA040451
:100550001F3C1CDA0C340EDC04F11404C4F120023C
:1005600020FA04F001FA02F340EA030021FA04F34E
:1005700045EA030130BDC4F10C04C4F1200220FAA5
:1005800002F001FA04F340EA0300294630BD21FAE3
:1005900004F0294630BD94F0000F83F4801306BFA9
:1005A00081F480110134013D4EE77FEA645C18BF9D
:1005B0007FEA655C29D094EA050F08BF90EA020F34
:1005C00005D054EA000C04BF1946104630BD91EA2C
:1005D000030F1EBF0021002030BD5FEA545C05D12F
:1005E0004000494128BF41F0004130BD14F580046E
:1005F0003CBF01F5801130BD01F0004545F0FE41E2
:1006000041F470014FF0000030BD7FEA645C1ABF16
:10061000194610467FEA655C1CBF0B46024650EA4D
:10062000013406BF52EA033591EA030F41F4002179
:1006300030BD00BF90F0000F04BF0021704730B5FF
:100640004FF4806404F132044FF000054FF00001D4
:1006500050E700BF90F0000F04BF0021704730B595
:100660004FF4806404F1320410F0004548BF40426A
:100670004FF000013EE700BF42004FEAE2014FEABF
:1006800031014FEA02701FBF12F07F4393F07F4F9A
:1006900081F06051704732F07F4208BF704793F09D
:1006A0007F4F04BF41F40021704730B54FF46074B0
:1006B00001F0004521F000411CE700BF50EA0102B3
:1006C00008BF704730B54FF000050AE050EA01025C
:1006D00008BF704730B511F0004502D5404261EBCC
:1006E00041014FF4806404F132045FEA915C3FF40D
:1006F000D8AE4FF003025FEADC0C18BF03325FEAAA
:10070000DC0C18BF033202EBDC02C2F1200300FA5A
:1007100003FC20FA02F001FA03FE40EA0E0021FA7F
:1007200002F11444BDE600BF53B94AB9002908BF1D
:1007300000281CBF4FF0FF314FF0FF3000F070B9C0
:10074000ADF1080C6DE904CE00F006F8DDF804E028
:10075000DDE9022304B070472DE9F047089E0D46FD
:1007600004460F46002B4AD18A42944665D9B2FA14
:1007700082F343B102FA03FCC3F120029F4020FA46
:1007800002F217439C404FEA1C4E1FFA8CF5B7FB50
:10079000FEF1220C0EFB117742EA074201FB05F045
:1007A00090420AD91CEB020201F1FF3780F01C8154
:1007B000904240F2198102396244121AA4B2B2FB8B
:1007C000FEF00EFB102244EA024400FB05F5A542B0
:1007D0000AD91CEB040400F1FF3280F00781A54226
:1007E00040F204816444023840EA0140641B002165
:1007F0001EB1DC400023C6E90043BDE8F0878B4210
:1008000008D9002E00F0ED800021C6E90005084659
:10081000BDE8F087B3FA83F1002949D1AB4202D396
:10082000824200F2F880841A65EB03020120174629
:10083000002EE2D0C6E90047DFE702B9FFDEB2FAD8
:1008400082F3002B40F090808A1A4FEA1C471FFA6F
:100850008CFE0121B2FBF7F507FB1520220C42EAC2
:1008600000420EFB05F0904208D91CEB020205F194
:10087000FF3802D2904200F2CB804546121AA4B251
:10088000B2FBF7F007FB102244EA02440EFB00FE25
:10089000A64508D91CEB040400F1FF3202D2A6459C
:1008A00000F2BB801046A4EB0E0440EA05409FE72F
:1008B000C1F120078B4022FA07FC4CEA030C05FA31
:1008C00001F420FA07F3FD404FEA1C492343B5FB2E
:1008D000F9F81FFA8CFE09FB18551C0C44EA054474
:1008E00008FB0EF5A54202FA01F200FA01F00BD95D
:1008F0001CEB040408F1FF3A80F08880A54240F226
:100900008580A8F102086444641B9DB2B4FBF9F32E
:1009100009FB134445EA044403FB0EFEA64508D92F
:100920001CEB040403F1FF356CD2A6456AD9023BE7
:10093000644443EA0843A3FB0295A4EB0E04AC42D3
:10094000C846AE4656D353D056B1B0EB080264EB5E
:100950000E0404FA07F7CA40CC401743C6E90074F6
:1009600018460021BDE8F087C3F1200102FA03FC1C
:1009700020FA01F225FA01F19D402A434FEA1C4773
:100980001FFA8CFEB1FBF7F007FB1015110C41EAC2
:10099000054100FB0EF58D4204FA03F408D91CEB67
:1009A000010100F1FF382FD28D422DD90238614468
:1009B000491B92B2B1FBF7F507FB151142EA014260
:1009C00005FB0EF1914208D91CEB020205F1FF383C
:1009D00016D2914214D9023D6244521A45EA0041AE
:1009E00038E73146304608E73946E6E61046FBE68A
:1009F0004845A9D2B9EB020865EB0C0E013BA3E711
:100A00004546EAE72B4694E74046D1E7D0467BE7E8
:100A1000023D624432E708460AE76444023842E78E
:100A2000704700BF014900200CF010BBC52700082B
:100A300008B564200AF0C9FDFBE7000038B5214D78
:100A4000EB68AA6801339C1A08F02EFB6B68B3F5BB
:100A5000005F2DD020D8B3F5805F2BD016D85BB3C4
:100A6000A3F500656B426B415B005C434FF47A7306
:100A7000144D2403B0FBF3F0B4FBF0F40134204632
:100A80000AF0A3FD28460AF01AFDF8E7A3F5C051C5
:100A90004B424B41DB00E8E7B3F5405F0ED0B3F5C6
:100AA000605F0DD0A3F52052534253415B01DCE758
:100AB0001023DAE70423D8E70123D6E74023D4E75D
:100AC0008023D2E75012002408B501F037FB042040
:100AD0000AF07BFDF9E708B501F0C8FB32200AF007
:100AE00074FDF9E7094C0A4D08B5204605F0A4FC51
:100AF0000121204605F03EF9204605F0C9F928807D
:100B000001F0C6F964200AF060FDEEE7A40E0024AF
:100B10002C01002407B54FF6FF730190012201A9B3
:100B200003480AF058FB019803B05DF804FB00BFCE
:100B3000BC11002410B59CB04C22002109A82CF057
:100B400035FB2022002101A82CF030FB042007F007
:100B500009FE002300931C4B9A6922F440429A61DB
:100B60009A6902F440420092009A9A699404FCD572
:100B700009224FF4803300242C2109A81B94CDE9CD
:100B8000092302230122CDE9123314930E92CDE9F9
:100B900017330C23CDE91512CDE9193407F020FEE7
:100BA00003213F2308204FF480620394CDE90131F3
:100BB0004023CDE9040301A80693CDE9072308F0FB
:100BC0002BF91CB010BD00BF0048025800B5AFB0F3
:100BD0000021982208A82CF0E9FA4FF000720023B7
:100BE0006846CDE9002302230F22CDE90433CDE985
:100BF00002320122C023CDE9062340F68633099351
:100C00002023139308F08EFB2FB05DF804FB000047
:100C10002DE98048A1B010220021002713A82CF054
:100C2000C5FA05F00BFF012313A8ADF84C3048F2CC
:100C30001F73CDE9147340F20113169305F01CFFE6
:100C4000042005F009FFD34B5A6912F4003211D188
:100C5000BFF34F8FBFF36F8FC3F85022BFF34F8F97
:100C6000BFF36F8F5A6942F400325A61BFF34F8F5E
:100C7000BFF36F8FC74A536913F4803323D1C2F88F
:100C80008430BFF34F8FD2F8803043F6E074C3F363
:100C9000C900C3F34E335B0103EA0406014646EA8A
:100CA00081750139C2F86052F9D2203B13F1200F4F
:100CB000F2D1BFF34F8F536943F480335361BFF3D5
:100CC0004F8FBFF36F8F04F0E1FF0024FFF732FF77
:100CD0000125FFF77BFF1422002113A82CF066FAF0
:100CE000AD4B48F20801AD48D3F8E0204FF00809B9
:100CF00002274FF0030A42F002024FF48068A84E28
:100D00004FF0180BC3F8E020D3F8E02002F0020205
:100D10000092009AD3F8E02042F04002C3F8E020AD
:100D2000D3F8E02002F040020192019AD3F8E020CB
:100D300042F00802C3F8E020D3F8E02002F00802F5
:100D40000292029AD3F8E02042F01002C3F8E020A9
:100D5000D3F8E02002F010020392039AD3F8E020C7
:100D600042F00102C3F8E020D3F8E02002F00102D3
:100D70000492049AD3F8E02042F00402C3F8E02081
:100D8000D3F8E02002F004020592059AD3F8E0209F
:100D900042F08002C3F8E020D3F8E02002F08002A5
:100DA0000692069AD3F8E02042F02002C3F8E02031
:100DB0000022D3F8E03003F020030793079B06F0EE
:100DC00035F900224FF44041764806F02FF9002211
:100DD0004FF48061744806F029F90022012173481C
:100DE00006F024F913A972481595CDE9139405F07E
:100DF00099FF4FF4005313A96E481597CDE91334AA
:100E000005F090FF4FF4004313A96448CDE9133572
:100E1000CDE9154405F086FF202313A95F481595F9
:100E2000CDE9133405F07EFF402213A962481797DD
:100E3000CDE91327CDE9154405F074FF13A95748F0
:100E4000CDF858A01594CDE9139505F06BFF4FF43C
:100E5000807213A958481595CDE9132405F062FF57
:100E60004FF4404213A94F48CDE91325CDE9154A67
:100E700005F058FF13A94C48CDE91385CDE9154479
:100E800005F050FF13A94948CDE91355CDE9154A9E
:100E900005F048FF49484A4A848002600562C0E97B
:100EA000054405F015FE4FF440334648464AC0E974
:100EB0000254C0E9002305F06BFE3422214613A83A
:100EC0002CF074F9414A2823352140F2152040F2D4
:100ED000352CB486346186F83640C6E900240922F0
:100EE000C6E905320B22C6E9071240F21B12C6E919
:100EF000090240F21D123046C6E90BC2C6E902449F
:100F000006F0C4FC4FF0050E4FF4F0714FF48872F8
:100F10004FF0E040FF23CDF868804FF004081394B1
:100F2000ADF87C408DF87E40CDE91BE0CDE916257B
:100F3000CDE91D1230462246254ECDE9141413A9E1
:100F4000CDE9183406F06DFD5A46214613A82CF061
:100F50002DF9204A20233046B460F463C6E9002806
:100F60004FF08072C6E90574C6E90323C6E9097427
:100F7000C6E90744C6E90B44C6E90D9406F0E0FE55
:100F80004FF0011341F2883213A9169303F57F0342
:100F9000304621E000ED00E00044025800180258FD
:100FA000A00F002400040258000C02580000025850
:100FB000001002580008025800140258140F0024B0
:100FC000004C0258380F002400100052001000504E
:100FD000481000240050005215951793CDE9135581
:100FE00007F036F9304606F01FFF40F201132046A5
:100FF000B84EADF8383004F0A3FA0EA9204604F03C
:1010000091FB204604F064FA5A46214613A82CF0BE
:10101000CDF8102221460AA82CF0C8F81422214647
:101020000EA82CF0C3F8AC4B3046B460C6E90038CB
:101030004FF08063C6E9033B17234FF0805BC6E99E
:101040000BB34FF4C873C6E90974F363C6E90584AA
:10105000C6E90744C6E90D44CDE9084406F070FE30
:101060009E4B41F2883213A9169303F57F03304655
:1010700015971793CDE91377062707F0E9F841F2A2
:1010800088320AA93046CDF828A00D954FF6FF7A90
:10109000CDE90B7406F02AFF4FF4405341F2883239
:1010A0000EA910934FF000533046119512930E94F1
:1010B0000F9406F041FF08A93046089407F054F851
:1010C000874E01F001F91022214613A81094CDE9B2
:1010D0000E442CF06BF8834B3046B460C6E9003404
:1010E000C6E903A4C6E9054409F068FC0EA9304628
:1010F0001094CDE90E4409F069FD224613A930464B
:10110000794ECDE91345CDE9154409F0C9FC10220B
:10111000214613A81094CDE90E442CF047F8734BE8
:1011200030463461B461C6E90034C6E9024A09F0C8
:1011300045FC0EA930460E94109409F047FD0C2290
:1011400013A930466A4ECDE91345CDE9154409F09F
:10115000A7FC2422214613A81094CDE90E442CF0BC
:1011600025F84FF44033634930463483F561C6F8BF
:10117000089086F82040346386F84440C6E900139E
:10118000C6E90448C6E90A44C6E90F4405F054FA22
:101190000EA930460E9405F09BFB40F2FF7313A995
:1011A00030461594544ECDE916383E23CDE91357F9
:1011B000189304F071FE1422214613A87F272BF008
:1011C000F5FF4E4B3046346174610E94C6E900342D
:1011D000FF23C6E90644C6E9027309F04FF92A461F
:1011E00013A93046ADF84C408DF84E40CDE9164479
:1011F00009F09BF9424B2A460EA93046414D0E9309
:1012000009F0F5F940484FF46053404E0461C0E9DD
:10121000005350233E4DC0E902370AF03CF94FF429
:10122000E13328462C61C5E900630C23C5E902447B
:10123000C5E90534C5E90744C5E909440AF07DF864
:10124000214628460AF0E7F8214628460AF003F925
:1012500028460AF0C5F801F063F801F060F800F0E4
:10126000FFFF00F06DFD0AF03DF92A4A21462A48A9
:101270000AF064F9294B2A4A2146186029480AF0E5
:101280005DF9294B294A2146186029480AF056F988
:10129000284B294A2146186028480AF04FF9284B64
:1012A000284A2146186028480AF048F9274B284A5E
:1012B0002146186027480AF041F9274B274A214662
:1012C000186027480AF03AF9264B18600AF01CF912
:1012D000FEE700BFA410002400A00052020001009D
:1012E0002411002400000140701100240008004077
:1012F000A40E0024002002400011002400400058E9
:10130000010101000030005050120024004800404C
:10131000BC11002458E20208310A0008A00E002483
:1013200010E202082F230008400900247CE2020892
:10133000693D00081023002434E202083D0A000839
:10134000F00B0024A4E10208C90A0008DC03002411
:10135000ECE10208D70A00083C090024C8E10208B1
:10136000E50A00088C0600240268034B9A4201D16A
:1013700004F0BABC704700BF001000407047000086
:101380000A4B82B00F216FF00100D3F8F42042F035
:101390000202C3F8F4200022D3F8F43003F0020371
:1013A0000193019B02B005F009BB00BF0044025845
:1013B000164B07B502689A4225D1154B4FF00071C4
:1013C000D3F8D820084642F02002C3F8D820D3F83A
:1013D000D82002F020020092009AD3F8E02042F0D8
:1013E0000102C3F8E020D3F8E03003F001030193D9
:1013F000019B04F09DFC4FF08071084603B05DF83E
:1014000004EB04F095BC03B05DF804FB002002403F
:1014100000440258026882B0094B9A420DD1A3F5EC
:101420000063D3F8E02042F40022C3F8E020D3F8B0
:10143000E03003F400230193019B02B0704700BF2A
:10144000004C02580F4B07B502689A4217D10E4B59
:1014500005215A20D3F8D42042F01002C3F8D4203A
:101460000022D3F8D43003F010030193019B05F060
:10147000A5FA5A2003B05DF804EB05F0D1BA03B029
:101480005DF804FB00100052004402582DE9F041C1
:10149000BCB004461422002109A82BF087FEB82214
:1014A00000210EA82BF082FE2268774B9A4240F072
:1014B000E7804FF0005200230EA8CDE90E234FF431
:1014C00090731922CDE918230223CDE91A331E2384
:1014D0001C934FF400731E9307F024FF08B1FFF72D
:1014E0004DFF6A4B002402260325D3F8E4200E2783
:1014F00009A9674842F008024FF05808C3F8E420F1
:10150000D3F8E42002F008020192019AD3F8E02017
:1015100042F00202C3F8E020D3F8E02002F0020219
:101520000292029AD3F8E02042F00802C3F8E020C9
:10153000D3F8E02002F008020392039AD3F8E020E7
:1015400042F01002C3F8E020D3F8E02002F01002CD
:101550000492049AD3F8E02042F00102C3F8E0209C
:10156000D3F8E02002F001020592059AD3F8E020BA
:1015700042F04002C3F8E020D3F8E02002F040023D
:101580000692069AD3F8E02042F08002C3F8E020E9
:10159000D3F8E02002F080020792079AD3F8E02007
:1015A00042F00402C3F8E020D3F8E0300D9703F0D6
:1015B00004030893089B40F20333CDE90B45CDE9C2
:1015C000093605F0AFFB492309A932480D97CDE94B
:1015D0000936CDE90B4505F0A5FB4BF6030309A938
:1015E0002D480D97CDE90936CDE90B4505F09AFB5D
:1015F0004FF4807309A92948CDE909360D23CDE9B7
:101600000B450D9305F08EFB4FF4814309A9244847
:101610000D97CDE90936CDE90B4505F083FB48F67A
:10162000087309A91F480D97CDE90936CDE90B4587
:1016300005F078FBC02309A91B480D97CDE90936B1
:10164000CDE90B4505F06EFB09A914480D97CDE9CE
:101650000986CDE90B4505F065FB102309A9114862
:10166000CDE909360923CDE90B450D9305F05AFB69
:1016700040462246052105F0A1F9404605F0D0F983
:101680003CB0BDE8F08100BF00100050004402589B
:1016900000040258000C02580010025800000258C2
:1016A00000180258001C0258000802582DE9F043A7
:1016B00091B00446142200210BA82BF077FD23687B
:1016C000884A934240F0B080874A13680133012B67
:1016D00013600CD1854BD3F8D42042F40012C3F828
:1016E000D420D3F8D43003F400130093009B7F4B35
:1016F000022503240927D3F8D4200BA97C4800260F
:1017000042F480424FF00A084FF00409C3F8D42095
:10171000D3F8D42002F480420192019AD3F8E02059
:1017200042F04002C3F8E020D3F8E02002F040028B
:101730000292029AD3F8E02042F00802C3F8E020B7
:10174000D3F8E02002F008020392039AD3F8E020D5
:1017500042F01002C3F8E020D3F8E02002F01002BB
:101760000492049AD3F8E02042F02002C3F8E0206B
:10177000D3F8E02002F020020592059AD3F8E02089
:1017800042F00202C3F8E020D3F8E03003F0020395
:101790000693069B4FF40073CDE90B35CDE90E4758
:1017A00005F0C0FAB0230BA95248CDF83C80CDE932
:1017B0000B35CDE90D6405F0B5FA0BA94E480F972E
:1017C000CDE90B95CDE90D6405F0ACFA40230BA9EA
:1017D0004748CDF83C80CDE90B35CDE90D6405F0E7
:1017E000A1FA4FF460530BA942480F97CDE90B358E
:1017F000CDE90D6405F096FA4FF480630BA93F48DC
:101800000F97CDE90B35CDE90D6405F08BFA0BA9E7
:101810003B48CDF83C80CDE90B95CDE90D6405F052
:1018200081FA11B0BDE8F083364A9342F9D12E4ACD
:1018300013680133012B13600CD12C4BD3F8D42047
:1018400042F40012C3F8D420D3F8D43003F40013C8
:101850000793079B254B032402250926D3F8D420A0
:101860000BA92348002742F40022C3F8D420D3F860
:10187000D42002F400220892089AD3F8E02042F023
:101880004002C3F8E020D3F8E02002F040020992C1
:10189000099AD3F8E02042F02002C3F8E020D3F800
:1018A000E03003F020030A930A9B40F60303CDE9DE
:1018B0000E46CDE90B3505F035FA4FF4A0530BA9D0
:1018C0000B480F94CDE90B35CDE90D7405F02AFADC
:1018D00041F21F030BA909480F96CDE90B35CDE95D
:1018E0000D749CE700500052142300240044025859
:1018F00000180258000C0258001002580014025838
:101900000004025800A00052274A08B50368934219
:101910002AD1264B1A68013A1A60254B2AB9D3F806
:10192000D42022F40012C3F8D420D3F8D4204FF4EA
:101930001071204822F48042C3F8D42005F0D6FA72
:1019400043F6B0011C4805F0D1FA04211B4805F00C
:10195000CDFA4FF480611A4805F0C8FA04211948FD
:10196000BDE8084005F0C2BA174A93421AD10F4B9E
:101970001A68013A1A600E4B2AB9D3F8D42022F41F
:101980000012C3F8D420D3F8D42041F6034109480B
:1019900022F40022C3F8D42005F0A8FA41F21F0176
:1019A0000748DDE708BD00BF0050005214230024A3
:1019B0000044025800180258000C02580010025847
:1019C000001402580004025800A0005210B5AEB036
:1019D0000446B822002168462BF0E8FB22680C4B35
:1019E0009A4212D100234FF480026846CDE90023C9
:1019F0004FF400732C9307F095FC08B1FFF7BEFC81
:101A0000044A136F43F4004313672EB010BD00BFA8
:101A100000400058004402581422002110B58AB03A
:101A200004460DEB02002BF0C1FB23682B4A9342C6
:101A300025D12B4B4FF484412A48D3F8F02042F0B3
:101A40000102C3F8F020D3F8F02002F00102019265
:101A5000019AD3F8E02042F01002C3F8E020D3F856
:101A6000E03003F010030293029B0223CDE905133B
:101A7000012305A9099305F055F90AB010BD1A4ACA
:101A80009342FAD1164B05A91848D3F8E82042F042
:101A90000402C3F8E820D3F8E82002F0040203921D
:101AA000039AD3F8E02042F00802C3F8E0204FF494
:101AB0000042D3F8E03003F008030493049B0223B0
:101AC000CDE90523099305F02DF9002205211E20FB
:101AD00004F074FF1E2004F0A3FFCEE700000140D5
:101AE000004402580010025800080040000C025840
:101AF00010B5B6B004461422002103A82BF056FB03
:101B0000B822002108A82BF051FB22681A4B9A42F8
:101B100030D10222002308A8CDE9082307F002FCF7
:101B200008B1FFF72BFC154B03A91548D3F8E820A3
:101B300042F48022C3F8E820D3F8E82002F480229F
:101B40000192019AD3F8E02042F00802C3F8E020A5
:101B50004FF44072D3F8E03003F008030293029B85
:101B60000223CDE903230023CDE90533072307939F
:101B700005F0D8F836B010BD0048004000440258C7
:101B8000000C02580B4B07B502689A420FD1012096
:101B900008F00EFC084BD3F8E42042F04002C3F8F2
:101BA000E420D3F8E43003F040030193019B03B039
:101BB0005DF804FB00300050004402580F2810B5B7
:101BC00004468AB002D901200AB010BD01460022A5
:101BD000362004F0F3FE362004F022FF184B69464D
:101BE00002A81C60174BD3F8E82042F01002C3F89B
:101BF000E820D3F8E83003F010030193019B07F0CD
:101C000077FA079BC3B907F04FFA0F4C0F4B2360CD
:101C100040F2E733E3600E4BB0FBF3F001380023F2
:101C2000606020462361A36008F098FE0028CAD1B6
:101C3000204608F02BFDC7E707F036FA4000E4E73E
:101C400048000024004402581823002400100040DB
:101C500040420F007047FEE7FEE7FEE7FEE77047F1
:101C6000014808F05DBD00BF70110024014808F074
:101C700057BD00BF18230024014805F075BE00BF02
:101C8000A00F0024014804F0C2BF00BF380F002499
:101C90000120704708B52BF093FB162303604FF02B
:101CA000FF3008BD08B52BF08BFB16230360FEE761
:101CB00070B50D4614460E46731B9C4201DC20464F
:101CC00070BDAFF3008006F8010BF5E770B50D4667
:101CD00014460E46731B9C4201DC204670BD16F86C
:101CE000010BFEF717FFF5E74FF0FF3070474FF499
:101CF000005300204B607047012070470020704760
:101D00000B4A0346116810B509B90A4911601068F9
:101D100009490A4C0344091B8B4206D92BF050FB9E
:101D20000C2303604FF0FF3010BD1360FCE700BFD1
:101D300064230024C888012400000524001000004A
:101D4000014B00221A7070477C230024144B1E2084
:101D500014491B88144A70B5144D13800A78144E28
:101D600025F812300132B2FBF0F400FB1422114CC2
:101D70000A7021880B44318801319BB289B22380DB
:101D80001D29318083BF35F8122001260A49002021
:101D900081BFB3FBF0F09B1A0E70238070BD00BFB3
:101DA0002C010024BC230024C02300248023002411
:101DB000BE230024C2230024782300240F4B0121DA
:101DC0000F4A1B8813800F4A1288934236BFD21ADB
:101DD0009B1A93B20C4A28BF9BB2117040F2323268
:101DE000934208D86FF4CC721344B3F5CD7F34BF5F
:101DF0000320022070470020704700BF6C2300249E
:101E00007A2300246A23002471230024114B1248F2
:101E1000198810B5114C21802BF062F8104B114A33
:101E20001B8813802288934236BFD21A9B1A93B222
:101E300040F2323228BF9BB2934208D86FF4CC7282
:101E40001344B3F5CD7F34BF0320022010BD012021
:101E5000FCE700BF2C010024A0E202086A23002452
:101E60006C2300247A230024064B64220648196858
:101E700040F6FF734A43B2FBF3F2044B1A602BF0B7
:101E80002FB800BF6C230024A9E2020874230024A9
:101E90002DE9F041624C2378012B1CD0022B52D04B
:101EA000002B33D1FFF752FF5E4B014618805E488E
:101EB0002BF016F85D482BF079F85D4B1B881D2B35
:101EC00024D900F0BFF9012820D15A4B1B78012BEF
:101ED0001CD123701AE0584DFFF770FF014628709F
:101EE00056482AF0FDFF56482BF060F800F0AAF99A
:101EF00001280BD1534B1B78012B07D12B78524F64
:101F00009A1E012A04D8022222703B70BDE8F0819B
:101F10004FF480534D4E00254D487380294635803F
:101F20002AF0DEFF71884B482AF0DAFF00F0ACF8A7
:101F3000284600F0FBF8484B1860FFF795FF022396
:101F400023700423E1E74548DFF8FC802BF02EF8EE
:101F500043482BF02BF898F80030424E022B424DAC
:101F60004BD0032B37D0012B1CD12B780221327898
:101F7000364F9A423D4839801EBF3D4B00221A80A1
:101F800040F211137B802AF0ABFF798839482AF0A0
:101F9000A7FF00F079F8002000F0C8F82E4B186079
:101FA000FFF762FF2B783370FFF730FF224E0146B8
:101FB0002870307021482AF093FF3378032B02D029
:101FC000022B18BF012388F8003000F03BF90228EB
:101FD0009CD100237DE72B78642132781B4F9A42F5
:101FE000254839801EBF224B00221A8088237B801F
:101FF0002AF076FF79882148C9E72B784FF496714B
:102000003278124F9A421E4839801EBF184B002268
:102010001A8088237B802AF063FF79881948B6E705
:102020007C2300246A230024A0E20208BCE2020808
:10203000BE2300247823002470230024C4E2020875
:10204000CCE20208712300247E230024C423002450
:10205000D3E20208DEE202086C230024E9E202086F
:10206000F3E202087D23002468230024FFE2020833
:10207000C823002409E3020813E302081DE3020851
:1020800027E3020831E30208F8B5214C0123214D72
:10209000214E2370237803B9F8BD013B3046DBB2F3
:1020A00035F8131023702AF01BFF1C4A1C492378B3
:1020B000DFF874C017880A603CF813108F4211D003
:1020C000184835F8132030F823E096451AD18F428E
:1020D0000AD900EB83004288781A90420FDB0A4449
:1020E0002CF8132000220FE0FCD200EB8300428882
:1020F000C81B904203DB891A2CF81310F2E72CF866
:102100001370EFE7013292B225F81320C2E700BF47
:10211000CC230024C82300243BE302086A230024C4
:10212000D0230024C4230024CA23002410B9024B66
:102130001888704700207047CA23002438B54FF430
:102140008071144804F06CFF20210546124804F009
:1021500067FF0821440044EA8500104D44B210484E
:1021600004F05EFF2B7820430E490C22C854013343
:10217000FF20DBB22B70013A11F8014B12F0FF0285
:1021800000EA0400F7D108490B2B087088BF2A70B9
:1021900038BD00BF0014025800180258D52300248F
:1021A00000100258D6230024D4230024014B1878B1
:1021B000704700BFD423002438B50024044DE3B297
:1021C000013455F8233003B938BD9847F7E700BF0D
:1021D00050E3020838B50024044DE3B2013455F849
:1021E000233003B938BD9847F7E700BF60E3020822
:1021F00038B50024044DE3B2013455F8233003B957
:1022000038BD9847F7E700BF58E3020838B5002407
:10221000044DE3B2013455F8233003B938BD984773
:10222000F7E700BF48E3020808B5FFF7BFFF6FEA12
:10223000900000F0010008BD08B5FFF7B7FFC0F33C
:10224000800008BD002000F005B870477047704757
:1022500070470000014B33F810007047E223002460
:10226000014B01221A807047E22300242DE9F04738
:10227000DFF8508000254FF00C09114EB8F80070BF
:10228000EBB209FB03F39C19F35A73B13B4214D030
:102290006388BB420BD063687BB1984768B1A36881
:1022A00003B198476388A8F80030BDE8F087A368B9
:1022B000002BFAD0BDE8F04718470135E0E700BF32
:1022C00068E30208E223002470470000DFF834D0FE
:1022D00003F086FC002103E00B4B5B5843500431B4
:1022E0000A480B4B42189A42F6D30A4A02E00023EE
:1022F00042F8043B084B9A42F9D32BF067F8FEF7FB
:1023000087FC7047000005249C310308000000246E
:102310001001002410010024C8880124FEE7704742
:1023200008B501F0F1F8BDE8084001F075B801F01A
:10233000EDB8406870474160704700004FF0E02200
:10234000D2F8FC3D43F08073C2F8FC3D054B064AD1
:10235000D3F8B01F0A43C3F8B02F1A6842F0010245
:102360001A607047001000E055CEACC5511A01EB61
:102370005301B1FBF3F07047014B5868704700BF41
:10238000001000E0704710B504460C212AF06BF8ED
:10239000204610BD036810B51B69044631B198474B
:1023A000A26863689B1A1844606010BD9847A060DB
:1023B000FBE770471FB5082300206946CDE90230CE
:1023C000054B1B880093054B1B88019303F024FBEE
:1023D00005B05DF804FB00BFAA7C0124AC7C01249D
:1023E00010B5044604212AF03EF8204610BD30B551
:1023F00085B000200D46144601A90390CDE90100E7
:1024000003F08CFB40B14FF0500383F31188BFF30E
:102410006F8FBFF34F8FFEE7019820B1029B012021
:102420002B60039B236005B030BD0000032825D836
:10243000DFE800F0020B131C114B012111481A6850
:10244000B2FA82F2520904F0F1BD0D4B08210E4898
:102450005A68B2FA82F25209F5E7094B4FF480410B
:102460009A68B2FA82F252090848ECE7044B4FF43A
:102470000041DA68B2FA82F25209F5E7704700BF0C
:10248000E4230024000002580018025800040258F7
:10249000032825D8DFE800F0020B131C114B0121A3
:1024A00011481A68003A18BF012204F0BFBD0D4B55
:1024B00008210E485A68003A18BF0122F5E7094B77
:1024C0004FF480419A68003A18BF01220848ECE7AF
:1024D000044B4FF40041DA68003A18BF0122F5E7D7
:1024E000704700BFE423002400000258001802587F
:1024F00000040258032811D8DFE800F00206090D95
:102500000121074804F097BD08210648FAE74FF477
:1025100080410548F6E74FF40041FAE7704700BFF5
:1025200000000258001802580004025808B5032899
:1025300015D8DFE800F0020A0D110121094804F066
:102540006FFD431E5842584108BD08210648F6E772
:102550004FF480410548F2E74FF40041FAE70020CC
:10256000EFE700BF000002580018025800040258AC
:1025700070B5084D00240126E0B2FFF7D7FF18B16F
:102580002B68012B18BF2E6001340435052CF3D1C4
:1025900070BD00BFE4230024012380F8781080F888
:1025A000793070470020704741640039024B18BFF2
:1025B00001211970704700BFAF7C012400207047D3
:1025C000836B0BB10846184770474FF6FF70704792
:1025D000406803689B6918477047000038B5044697
:1025E00001F0C8F80749236804F17C052046D3F8B8
:1025F0008C3098472846FFF7A1FE0123256184F817
:10260000703038BD0000007008B503680446D3F888
:1026100080309847236820469B6F984700F02AF93E
:10262000236820461B6F984701224FF480610848B9
:1026300004F0FCFC01224FF40041064804F0F6FCD3
:1026400000F018F9236820461B6F9847F8E700BF91
:10265000000C02580018025810B5044619F076FA1A
:1026600023682046D3F8AC30BDE81040184701F08D
:102670004DB801F051B8000070B501F0A5F810494F
:102680000023C1F88430BFF34F8FD1F8803043F678
:10269000E074C3F3C900C3F34E335B0103EA0406DD
:1026A000024646EA8275013AC1F87452F9D2203BDB
:1026B00013F1200FF2D1BFF34F8FBFF36F8F70BDB7
:1026C00000ED00E000F0FEBF01F0F4B901F0DEB96A
:1026D00001F002B818F0A6BC10B50446882129F014
:1026E000C2FE204610BD90F87A301BB140680368E6
:1026F0001B6818471846704790F834100D4B10B5FA
:1027000090F878401A788C4209D03AB90A490B4AB5
:1027100008881488108001220C801A7010BD002ACD
:10272000FCD0064A0449148808880C8010800022D6
:10273000F3E700BFA87C0124A67C0124A47C01242B
:1027400070B50D46194635B9094B40F2D221094AF8
:1027500009482AF003FAC0E90F52003A074B18BFA4
:1027600001221A700368BDE87040D3F88C30184716
:10277000E4E302081CE402086AE40208AE7C0124D7
:1027800008B5094B1B888B4203D8084B1B88934222
:1027900005D9074B9E21074A07482AF0DFF9074B66
:1027A0001980074B1A8008BDA47C0124A67C012453
:1027B000AFE4020812E502086AE40208AA7C0124D8
:1027C000AC7C0124014608B5034B186801B1012116
:1027D00019F0D6F9012008BDB07C012401210022A6
:1027E00008B5084608F075FF0A4B186028B90A4B6F
:1027F00028210A4A0A482AF0B1F9002204210120BE
:1028000009F004F8074B186018B9074B2C21034A4C
:10281000F0E708BDF823002430E6020879E6020854
:10282000A8E60208F4230024FAE60208024B4FF05F
:10283000FF31186808F097BFF8230024014B18688F
:1028400008F0BCBFF8230024024B0021186808F0F0
:102850008ABF00BFF8230024FFF7F0BF002303481E
:1028600003491A46006809F00CB800BFF42300249D
:102870000400002413B50023074C01A91A46206860
:1028800009F02FF84FF0FF33002201A9206809F06A
:1028900028F802B010BD00BFF423002403685B6C6D
:1028A00018470120704703689B6A184740F2EF30D1
:1028B00070470000054B4FF080620360044BC3F883
:1028C0008820BFF34F8FBFF36F8F70479CE80208DB
:1028D00000E100E010B504464FF45A61FFF7EAFF4B
:1028E000204629F0C0FD204610BD00000F4B82B0ED
:1028F000D3F8D42042F01002C3F8D420D3F8D42067
:1029000002F010020192019ADA6F42F01002DA67C7
:10291000DA6F22F01002DA67054B064A1A62064B9C
:102920004FF080629A6002B0704700BF00440258C6
:10293000380F00243D29000800E100E0024B1B682D
:10294000586803685B691847B07C012470B5044679
:102950000A4B0C30002625466022606026726672A3
:1029600045F8203B294619F061FA04F55A63EE60F8
:102970002435AB42FBD1204670BD00BF9CE8020865
:1029800008B50B290BD8DFE801F01206100A0A0A75
:102990000A0808080808012008BD0520FCE7054BC7
:1029A0006521054A05482AF0D9F80020F4E70220FD
:1029B000F2E700BF3CE7020857E70208A1E7020878
:1029C00008B50A2909D8DFE801F010060E08080842
:1029D000080606060600012008BD054B8621054AAB
:1029E00005482AF0BBF80020F6E70220F4E700BF14
:1029F0003CE70208F1E70208A1E702082DE9F843E5
:102A00004F7F0C4681463946FFF7BAFF94F81E8087
:102A1000054648464146FFF7B3FF4146064648464D
:102A2000FFF7CEFFA18A628B424B521A1A649A6159
:102A3000228B521A1A61E28A586342EA01422169E2
:102A40005A646268D963DA602068227F802821D0C6
:102A50000FD8202864D0402862D004285AD045EAF4
:102A60000265344B474545F40035DD615ED0324A9E
:102A70003DE0B0F5807F04D0B0F5007FEFD12F4866
:102A800000E02F4840EA0262DA61E2681A625E62A0
:102A900059612BE045EA0265A06845F40035DD6127
:102AA0005E625961011DD962017841B1012921D0CD
:102AB000244B4FF48071244A24482AF04FF8DA69F5
:102AC000418822F47F42013922F0100242EA0122B9
:102AD000DA610122174BD96941F02001D961D96926
:102AE0008906FCD410219960002AC0D0184A1A60C7
:102AF000BDE8F883D969FF3A408821F47F4118BFC7
:102B00000122013821F0100141EA002141F01001B9
:102B1000D961DFE745EA026242F40032DA61B6E7E2
:102B200045EA0262034B42F40032F7E740F2012229
:102B3000DDE700BF001000520102010009000200A1
:102B40000A0002003CE8020856E80208A1E7020871
:102B50000102020038B50C46897FFFF731FF124BA6
:102B6000A58AE28A586342EA054221695A64628B67
:102B7000D963521B1A642568082D0ED19A611A6117
:102B800058620A4A207F42EA0062DA61E2681A6209
:102B9000074A5961D9601A6038BD0022D8611A61AC
:102BA000E2689A63034AF6E7001000520900010048
:102BB0000102020001020300034B1A68D207FCD491
:102BC00023229A60704700BF0010005230B5104CAD
:102BD0002568ED07FCD423250904FF2BA5604FF0E1
:102BE000010541EA050165636164E0630CD00949B0
:102BF00022F07F42656241EA0363E361064B226291
:102C00006061E060236030BDE561044BA263F9E7D9
:102C10000010005209000100010002000100030041
:102C20004069704790F844007047036B23B9C06A4D
:102C3000003818BF01207047012070478068704736
:102C4000043010B50C460FC884E80F0010BD704763
:102C500008B5034A40F21221024B034829F07EFFD7
:102C6000E4E80208A30303083FE9020810B504469C
:102C7000482129F0F8FB204610BD2DE9F0411E4601
:102C8000ADF51E7D436B07460C469046A69D93B35B
:102C9000002203A8CDE9013210F0FCFE4FF4F472DB
:102CA0005021249024A80AF066FE4246214624A81A
:102CB0000BF0E2FD012124A80AF060FF022324A802
:102CC0008DF8D8300AF0FEFF419BBDF89482BDF824
:102CD0009022984528BF98462B9B9A4228BF1A46B7
:102CE00002EB4204479B984509D824A80AF068FFE4
:102CF00024A80AF08DFE0DF51E7DBDE8F0810122AD
:102D000001A924A80BF027F830462246796B2E44FF
:102D10002AF083FBE6E700000A4A02600022C0E9CD
:102D20000522C0E90722C0E90922C0E90B22C0E957
:102D30000D12C0E90F2280F84420C0E90322C0E947
:102D40000122704724EC020810B40C4611461A46C2
:102D5000036B3BB1036C806BE41A20445DF8044BB9
:102D60002AF02CBAC06AF8E7036B10B573B1036C94
:102D7000826BC91A5318525C98785C780004DB782F
:102D800040EA0420104340EA036010BDC36A58586B
:102D9000FBE7036B43B1036CC91A836B5A18585C89
:102DA000527840EA02207047C36A585A70470000C0
:102DB00070B50446006B0D461646D8B1E36B9342DE
:102DC00008D209230D4A65210D4884F844300D4B83
:102DD00029F0C4FE0368DB689847206B3246A16B7C
:102DE00003681B69984710B90D2384F84430A06B21
:102DF000256470BDE06A0844FBE700BFAEE9020845
:102E00003FE902089BE902082DE9F84343690446BB
:102E10002BB9234BAA21234A234829F09FFE0822DD
:102E20008169FFF7C5FFA16943F2300646F26437B6
:102E300004312046FFF798FFA3691844A36A00F104
:102E400008029A4206D3012300206361236AA3612A
:102E5000BDE8F883636909300822013320F00101DD
:102E600020466361A161FFF7A3FFD4F818902046C4
:102E70004946FFF78EFF09F1020180462046FFF721
:102E800088FF09F1040105462046FFF76DFFB045B4
:102E9000D2D1BD42D0D10028CED00120D8E700BF8A
:102EA000F0E9020839EA02083FE902082DE9F04F8B
:102EB0000546ADF51F7D8B469046816908221F4669
:102EC000FFF776FFAE692846311DFFF74DFF06F18B
:102ED0000801024604462846FFF76AFF6B6B064668
:102EE00033B9344B40F2AB11334A344829F036FE43
:102EF000002203A8CDE9013210F0CCFD4FF4F472AA
:102F00005021249024A80AF036FD2246314624A8F8
:102F10000BF0B2FC012124A80AF030FE022324A801
:102F20008DF8D8300AF0CEFEBBF902A0479B53457E
:102F30002DD3BBF8063007EB4707BBF80260BBF99F
:102F400000401E44BBF80420419B04EB440936B208
:102F5000224407FB0A9A9E4212B2D04428BF1E4662
:102F60002B9B9A4294BFC4EB0204C4EB030404EB12
:102F70004404479BB34210D324A80AF021FE24A89E
:102F80000AF046FD01200DF51F7DBDE8F08F0122FE
:102F900001A924A80AF0DFFEC8E7012201A924A89C
:102FA0000AF0D9FE696B404622464944B8442AF0EB
:102FB00034FADEE76CEA0208C2EA02083FE90208D6
:102FC0000129036838BF0121DB6A70B50D4604464C
:102FD0009847A84204D223682046DB6A98470546F2
:102FE0006B1EE6691022204606EB031606F1080167
:102FF000FFF7DEFE06F110012046FFF7B5FE236A5B
:10300000043B0344C4E9055370BD00002DE9F341BE
:10301000002104464822816180F84410FFF7C8FE71
:10302000A7690423634A39462046FFF78DFE40B165
:103030000323614AF22184F84430604B604829F050
:103040008DFD07F1080104235E4A2046A161FFF7C8
:103050007BFE30B10423584AFA2184F844305A4B9D
:10306000ECE707F10C010423584A2046A161FFF761
:103070006BFE064638B105234F4A40F2011184F831
:103080004430534BDAE707F110012046FFF76CFE9E
:10309000054620B94F4B40F20711474ACEE707F1EA
:1030A000140804234C4A20464146FFF74DFE0028F1
:1030B0004BD0062384F844300423484A07F1180112
:1030C0002046FFF741FE002841D0072384F8443012
:1030D0004544434F0C2220462946FFF769FE05F17F
:1030E000080604233A4620463146FFF72DFE94F8A1
:1030F000443000284AD0002B4AD1A36A291DAB4294
:103100004AD805F10C03291D2046A3610191FFF760
:103110002BFE3044019960622046FFF725FE0644ED
:10312000042220463146FFF743FE04232D4A314650
:103130002046FFF709FE002839D10123E6616361CB
:10314000A369236202B0BDE8F0810126B4E7002E36
:10315000BED007F120012046FFF706FE4FF47A7338
:1031600007F13001B0FBF3F060602046FFF7FCFD93
:1031700007F14001A0602046FFF7F6FD07F144018A
:10318000E0602046FFF7F0FD2061A1E7002BB8D0FA
:103190000A2384F84430D5E72046FFF7E5FD0830E0
:1031A0000C22054420462946FFF702FE97E70B2331
:1031B000EFE700BF1CEB02083AEB020821EB020824
:1031C0003FE9020867EB02086CEB020884EB020897
:1031D00089EB02089FEB0208ABEB0208B0EB020898
:1031E000B5EB0208BAEB0208C0E90A21002202632B
:1031F000FFF70CBF10B5002304460846E3620B68D6
:1032000021639B689847A0622046BDE81040FFF705
:10321000FDBEF0B4BDF81050BDF814602AB123B162
:10322000CDE90456F0BCFFF728BDF0BC70470000A4
:103230002DE9F04F9946436985B004460F46904604
:103240002BB92A4B77212A4A2A4829F087FC0822E1
:103250008169FFF7ADFDA66920463146FFF799FD6C
:10326000B11C83462046FFF794FD311D824620465F
:10327000FFF77AFD06F10801A36A054642189A4253
:1032800027D243F230039B4517D146F264339A4567
:1032900013D190B10246A1612046FFF789FD0E9B34
:1032A00001462A462046CDF80080CDE901933B46F1
:1032B000FFF7AFFF636901336361A3692B448DB1ED
:1032C000A361A369626A013323F001039342A361FE
:1032D0000AD10120236A6061A36180F0010005B07A
:1032E000BDE8F08F0833EBE70020F6E7F0E90208CD
:1032F000BFEB02083FE90208012070470C2070472D
:103300000C2303FB0100083070470C2303FB010072
:103310000830704701207047C4207047C42303FB66
:10332000010008307047C42303FB010008307047D8
:10333000012070471020704700EB011008307047E3
:1033400000EB011008307047084600F0E1BE0000B5
:10335000034B10B50446036017F0BAFB204610BDBE
:10336000CCEC020810B50446FFF7F2FF142120460A
:1033700029F079F8204610BD034B10B504460360D0
:1033800017F0A6FB204610BD98EC020810B50446C5
:10339000FFF7F2FFCC21204629F065F8204610BD4A
:1033A000034B10B50446036017F092FB204610BD96
:1033B00064EC020810B50446FFF7F2FF182120461E
:1033C00029F051F8204610BD084B10B5044640F8CE
:1033D000F83BFFF7BDFF04F12C00FFF7CDFF04F130
:1033E0001400FFF7DDFF204610BD00BF00ED02080E
:1033F00008B50248FFF7E8FF08BD00BF002400241D
:1034000010B50446FFF7E0FF4FF41C71204629F089
:103410002AF8204610BD00002DE9F34100F0FAFC27
:103420000024054600F0FAFC2346014622462846C1
:1034300000941FF05BF8274B274A2046274D1A605F
:1034400001F096F8264B274A27489A601EF006FF9F
:103450002B68BFF35B8FDB0735D4284629F005F8CE
:1034600088B3224C224B04F58A7604F1140004F14F
:103470002C0804F1F80723606060C4F80880E76056
:10348000266117F027FB1B4B4046636117F022FBB8
:10349000194B3846E36217F01DFB184B04F5867094
:1034A000C4F8F83001F0DAF8224604F586713046A7
:1034B00001F0CAF8304600F02BFE114829F06CFBF1
:1034C000284628F0DEFF0F4802B0BDE8F041FFF7C4
:1034D00085B800BF147D0124B8340024FC230024E7
:1034E000BC3400247026002408000024002400249A
:1034F00000ED020864EC020898EC0208CCEC02082B
:10350000F133000830340024704700000148FFF711
:103510007BB800BF3034002470B5274E274B284CB1
:103520003046284D2360FFF711FA284622F08CF828
:1035300025481DF0C9F8254B00224FF4807124481E
:103540001A8683F858205A6683F87020DC60C3E935
:1035500012122049C3E91A121F490B604FF4F0718F
:1035600001801E4801804FF488711D4801801D486C
:1035700001801D49C3E90422C3E90622C3E90822E8
:10358000C3E90A22C3E90E22C3E91022C3E91422C7
:10359000C3E91722C3E901650A701449C3F8802002
:1035A00083F8342019605A671149C3F88420114AFE
:1035B0009967DA6770BD00BF90260024D4E3020843
:1035C0008C260024BC3400247026002430340024CF
:1035D000A47C012401000001B07C0124AA7C012408
:1035E000A67C0124AC7C0124A87C012460E50208AF
:1035F00000000101ACE302080148FFF75BB900BF1E
:10360000902600240020704781807047C180704759
:10361000018170474181704770477047704770471C
:10362000704710B4C4880368121B84885B6D091B43
:1036300012B25DF8044B09B218474FF6FF7383814D
:103640004FF0FF3303621368C3611060704790F856
:1036500025201AB190F8242002B11860704700208C
:1036600070478B88838001207047704780F8261050
:10367000704790F826007047002210B5B1F9084055
:10368000B1F90A10028042808480C18010BD0022FE
:10369000028042808280C28070470177704780ED4F
:1036A000080A704780F82410704780F8251070478A
:1036B00001207047983070478C30704784307047D5
:1036C00070470000034B902283F85A2383F8582355
:1036D000704700BF00E100E0094A0A49D3680A4880
:1036E000C3F30A03013B9BB20B801169C1F30A01CA
:1036F000013901801364536B43F001035363704736
:10370000001000507235002470350024014BD3F8AE
:10371000AC00704700100050024B0122C3F8AC10FF
:103720005A627047001000500163C0E90D217047D4
:1037300070477047704700EB81001146406803688E
:10374000DB68184780F83C10704710B504464821E4
:1037500028F089FE204610BD10B504462C2128F023
:1037600082FE204610BD10B50446BC2128F07BFE29
:10377000204610BD38B5044617F0A9FC23685D6EDD
:103780001BF074FE01462046A8472368074A2046DE
:10379000D3F8885000230649A847064B064A5A60CA
:1037A000064A1A639A63064A5A6338BD00F40B70DE
:1037B00000FA057028350024B03D002400EE117099
:1037C00000FA050017F06ABC17F032BC17F093BD81
:1037D00038B504460D46406C4FF0FF3107F039FF15
:1037E000606C07F058FF242303FB0545002385F890
:1037F000283094F828300BB9236BA36338BD90F8B8
:10380000252012B103685B6918477047124A536953
:10381000DB0370B51ED50023C2F88430BFF34F8F91
:10382000D2F8803043F6E074C3F3C900C3F34E33DB
:103830005B0103EA0406014646EA81750139C2F8D4
:103840007452F9D2203B13F1200FF2D1BFF34F8F06
:10385000BFF36F8F70BD00BF00ED00E008B531B160
:10386000044B4FF4B871044A044829F077F990F8F2
:10387000290008BD0CED020820ED0208AAEE02089E
:1038800010B531B1064B4FF4B571064A064829F020
:1038900065F9406811460368BDE810401B6B184786
:1038A0000CED0208EDEE0208AAEE020808B529B1F7
:1038B000034B7921034A044829F050F9C06808BD38
:1038C0000CED02089BF00208AAEE020810B50446AF
:1038D00029B1194BA221194A194829F03FF9052AA3
:1038E00015D8DFE802F0031115171C2240680368A1
:1038F0001B69984758B1012384F8293084F82C308B
:103900000023C4E9043302E0002380F8293010BD0D
:103910000362F5E70362012380F82A30F0E7002311
:1039200080F8293001230362F1E7003B18BF01232F
:1039300080F82D30EBE700BF0CED020850F20208D2
:10394000AAEE020810B50C4611461A462CB1064BD9
:103950009021064A064829F001F9C46040680368CE
:10396000BDE810409B6818470CED020824F40208DB
:10397000AAEE020808B529B1054B8221054A06487E
:1039800029F0ECF8C0E90411C0E9063208BD00BF17
:103990000CED0208FFF50208AAEE020890F83D308F
:1039A00010B5044653B14FF0FF31406C07F051FEA3
:1039B000002384F83D30012384F83E3010BD000020
:1039C00010B50446104629B1134BD021134A1448B0
:1039D00029F0C4F894F8293033B1124B1B6893F8DE
:1039E0006B2063691344636194F82B300BB9012099
:1039F00010BDA368036303685B699847002394F8CC
:103A00002C0084F82B300028F1D194F82D30002BB5
:103A1000EED184F82900EBE70CED0208BBF70208B1
:103A2000AAEE0208B07C012410B5174C17F042FB37
:103A300094F8293013B994F82A30ABB1E169D4E98C
:103A40000532534322694A4393420DD394F83C0014
:103A500038B19B1AB3FBF1F2994298BF02F1FF32E1
:103A60006262012384F82E300123206C84F83D30FB
:103A700007F0A4FE94F83E302BB1606C07F00BFE0B
:103A8000002384F83E3010BD28350024084B4FF049
:103A90008062C3F88820BFF34F8FBFF36F8F4FF062
:103AA0008072C3F88820BFF34F8FBFF36F8F7047CA
:103AB00000E100E0034B4FF080629A604FF08072AB
:103AC0009A60704700E100E0F8B590F82830DBB963
:103AD0004FF48072866B0125C360828506F5BF2294
:103AE000036102F5007243618361C3610362436253
:103AF000856280F82E30D0E90C473C44A2420AD9B6
:103B00000B4B52210B4A03E00B4B40F2C5110B4A01
:103B10000B4829F023F882634FF4F0728660184650
:103B2000CA864FF4887281F834500A870B63F8BD57
:103B300013FB02084EFB02085CF902088CF902082C
:103B4000AAEE0208002370B5124E04468380124B81
:103B50000360336893F858200AB1D86C00B99868AC
:103B60000368DB6A9847431E5D425D413368D86C49
:103B700030B10368DB6A9847012808BF45F00105AA
:103B80002DB9064B2721064A064828F0E7FF2046B4
:103B900070BD00BFB07C0124F4FD0208F1FC0208F6
:103BA0004FFD020888FD020870B5244E3568BFF34A
:103BB0005B8F15F001053FD1304628F056FC0028F8
:103BC0003AD01F4C1F4B04F134002561E584A562F7
:103BD000A585C4E90035C4E902551CF0D4FF04F101
:103BE000580019F0A9FC184B2046A365174B40F864
:103BF000843BFFF7A7FF164B1648C4F884302433E4
:103C0000C4F89050C4F88C306423C4F89C50C4F8B5
:103C1000A850C4E928350023C4F8AC30C4F8B0304B
:103C2000C4F8B430C4F8B8300B4BC4F8983028F05E
:103C3000B3FF304628F025FC014870BD2435002430
:103C4000743500243C28030814FE02088CFE020888
:103C500088280308C1360008C028030810B5144C92
:103C6000236823B3134B144A1B6C11888B4213D166
:103C7000124B198803F002FF226892F86A30013370
:103C800082F86A30FEF7EAFD206817F05FFF002037
:103C9000BDE81040FEF7CABB03F0F0FE20680368E1
:103CA0001B6A98470020BDE81040FEF7F1BB10BD2D
:103CB000B07C0124001000507235002470350024BF
:103CC0002DE9F743044601264FF4B4674FF0FF3166
:103CD000206C07F048FD4FF0FF31606C07F0B9FC35
:103CE00094F82E3043B36568D4F820802B6884F8AC
:103CF0002B60B8F1000F23D05B6A414628469847F5
:103D0000002323622B684FF4F07200972846D3F803
:103D100014804FF48873A168C047236984F82C008D
:103D200001332361F0B12B6828469B6A984701381C
:103D30000023E06084F82E30606C07F0ACFCC5E72F
:103D4000626A002ADED02846D3E909939847616A5F
:103D500001442846C8472369626AC4F82480134492
:103D60002361CFE70120E3E7014808B5FFF7A8FF8B
:103D70002835002438B5154900251548FEF7CCFF35
:103D8000144C154B2A462946012023604FF48073BA
:103D9000A563A387A38584F83E5084F82E50C4E918
:103DA0000C55C4E91055C4E90155C4E90355C4E9EB
:103DB0000555C4E90755C4E9095507F08AFC206494
:103DC000284607F00EFC606438BD00BF3036002482
:103DD000B03D002428350024D8FE0208704710B5F5
:103DE0000446042128F03FFB204610BD012908B5F8
:103DF00006D0022908D059B900F0F8FB006808BDC8
:103E000000F0F4FB4068FAE700F0F0FB8068F6E7AA
:103E10000020F4E70048704728FF0208022070479E
:103E200013B5002451B1036801AA01948DF8034031
:103E30009C680DF10303A04702B010BD0846FBE7E4
:103E4000C0897047008A7047C08870478088704773
:103E5000807A00F07F007047807AC00970470020A8
:103E6000704700009FED010A704700BF000000008E
:103E70007047704700F598730868496803C3704736
:103E8000704770474160704770470000064BC0F8AC
:103E90004801C0F84C310023C0F8503100F5A2733E
:103EA000C0F84031704700BF513F00080123037242
:103EB00070477047704710B441680346C2689B68FA
:103EC000541001EB6200D20748BF0A595DF8044B59
:103ED00048BFD358184743682BB183682BB9C068D3
:103EE00000F001007047184670470120704710B578
:103EF00004460C2128F0B7FA204610BD10B5044640
:103F0000102128F0B0FA204610BD10B504464FF439
:103F1000AE7128F0A8FA204610BD10B51BF0A6FA25
:103F20000368BDE81040DB6B184710B50446D0F8B5
:103F3000400158B10368DB68984738B1D4F84001B4
:103F400003689B6898470023C4F8403110BD000007
:103F50002DE9F14FD0E9555A0746A86803681B6A56
:103F60009847C32805D8464BA321464A464828F01F
:103F7000F5FD686803681B6A98470F2803D8434B10
:103F8000A421404AF2E7E86803681B6A98470B28B7
:103F900003D83F4BA5213B4AE8E7DFF8FC901BF034
:103FA00065FA04301BF087FAD9F8000010B10368F5
:103FB000DB689847D9F8000010B103681B68984780
:103FC000DFF8D880D8F8000010B103685B69984723
:103FD000D7F83C0110B103685B689847D8F8000037
:103FE00010B103681B689847D7F83C0110B103680B
:103FF0009B689847E86800214FF0000B03685B6AF4
:104000009847244B0446C0F804B00360594680F832
:1040100008B0A86803685B6A9847064600F070FB22
:104020006868594603685B6A98470546314600F060
:1040300043FBC9F80040C7F83C51C8F80060E5B13F
:104040002B1DCAF8003030463368C5F808A0DB687D
:10405000F56398472B6828461B68984721463046E9
:104060001DF0F4F9236820461B6998472368204611
:104070005B6901B0BDE8F04F18472B46E1E700BF90
:1040800050FF0208DEFF0208E200030829010308CE
:10409000CC010308E4020308F87C0124F47C012429
:1040A000044B1B6893F858200AB1D86C00B9986883
:1040B000704700BFB07C012470B504460D4616461B
:1040C0001BF09AFA0E4A002114600E4A22600E4A32
:1040D000C4E951210D4A1068C4E953110268C4E9CA
:1040E0004F119268C4E955659047FFF7D9FF22F058
:1040F00092FBFFF7D5FF22F005FC204670BD00BF04
:10410000047D01249002030878020308B07C012496
:10411000064BC0F84801C0F84C310023C0F85031BC
:1041200000F5A273C0F84031704700BF513F00084E
:10413000406A7047806A704770478B88C069DB0AA5
:104140000A6850F823001044704710B5C2B1137BC1
:10415000B3B1547BD27A240204F4E0641443026ABB
:1041600098B202EB840213888B4202D192F90200CA
:1041700010BD05D80138043280B20028F3D1F7E72A
:104180000020F5E710B504462C2128F06CF92046F4
:1041900010BD000030B58BB00446BDF860500895E6
:1041A000BDF85C5007959DF8505006959DF84C5011
:1041B00005959DF8485004959DF8445003959DF849
:1041C000405002959DF83C500195BDF8385000953F
:1041D0001CF096FD064B20462360159BE361169B61
:1041E0002362199B63621A9BA3620BB030BD00BFB0
:1041F000080303087047704770477047704770475F
:10420000704710B50446C42128F02DF9204610BD92
:10421000036870B504461B6B154698472368204613
:1042200029465B6BBDE8704018470000002310B5BD
:10423000C0E90133C0E90333C0E90733C0E90533FE
:104240004FF4807304468384054B03600B88C3845A
:10425000FF2380F8283019F0CAF9204610BD00BFAE
:10426000C02903082DE9F743044600251CF042FF4E
:10427000314B2646E56304F16C0804F1980746F8D3
:10428000403B4FF6FF792D4B01A940462566A566B8
:10429000ADF80490C4E910354FF48073A4F864308D
:1042A000FF23C4E9125584F86630C4E91455C4E903
:1042B0001655FFF7BBFF01A93846ADF80490FFF78C
:1042C000B5FF2A4629463046FFF7A2FF30464FF495
:1042D000F07104F10409FFF79BF930464FF488713F
:1042E000FFF798F94FF07F4331464846A36616F032
:1042F00005FC2A4629464046FFF78AFF012301A90B
:104300004046ADF8043019F072F94146484616F0BF
:10431000F5FBF12238463621FFF77AFF01A938462E
:10432000ADF8045019F063F94846394616F0E6FB3B
:10433000204603B0BDE8F083700303085829030842
:104340007047000030B5164D8FB02C68BFF35B8FFF
:1043500014F0010420D1284628F087F8E0B13F236B
:10436000012210490993104B10480893104B0A94EE
:104370000594CDE906430423CDE903320A23CDE9B0
:104380000B440093CDE90144FFF704FF094828F0EE
:1043900003FC284628F075F804480FB030BD00BF74
:1043A000F83D00241C3103084C310308FC3D002477
:1043B00058310308414300087047000030B5164DDE
:1043C0008FB02C68BFF35B8F14F0010420D1284616
:1043D00028F04BF8E0B13F23012210490993104B1C
:1043E00010480893104B0A940594CDE90643042322
:1043F000CDE903321423CDE90B440093CDE9014408
:10440000FFF7C8FE094828F0C7FB284628F039F80E
:1044100004480FB030BD00BF283E00242C310308F3
:10442000503103082C3E00245C310308B9430008D6
:104430007047000030B5164D8FB02C68BFF35B8F0E
:1044400014F0010420D1284628F00FF8E0B13F23F2
:10445000012210490993104B10480893104B0A94FD
:104460000594CDE906430423CDE903322823CDE9A1
:104470000B440093CDE90144FFF78CFE094828F076
:104480008BFB284627F0FDFF04480FB030BD00BF6E
:10449000583E00243C310308543103085C3E00249C
:1044A0006031030831440008002070470020704745
:1044B0000EB403B503AB002153F8042B01931BF09A
:1044C00023FF02B05DF804EB03B070470CB407B5EE
:1044D00004AB53F8042B01931BF016FF03B05DF8F7
:1044E00004EB02B070470000436C10B5044673B390
:1044F000038F2BB9184BC521184A194828F02EFBF9
:10450000C38E00EB43035B8C0BB31DF06BFC238F5E
:10451000012B03D8134BCB21134AEEE7E28E40F672
:104520003F10531C9BB2092B194688BFA3F10A0107
:1045300004EB4101498C814209D10A2B04EB420270
:1045400028BF0023508C04EB430358845184204639
:10455000BDE810401DF048BB9C030308A5030308F9
:10456000500403089A040308A80403081DF005BBBF
:1045700038B518BB124B13481C681349B4B12268F4
:1045800022440260626822440A60A26814440F4B0D
:1045900000221A8000F02AF8054600F025F80C4B9E
:1045A0001C600C4B1D600C4B188007E00B4B03602C
:1045B0000B4B0B600B4B1C68002CE8D138BD00BFC7
:1045C000883E00248C3E0024903E0024943E00242B
:1045D000087D0124107D01240C7D0124683103082D
:1045E00064310308703103080020704700487047A9
:1045F000983E002410B5054CFFF7E0FE2060FFF761
:1046000019FF6060FFF79EFEA06010BD983E002479
:1046100010B5002404600C6014601C6010BD70476D
:1046200010B504464FF4AE7127F01DFF204610BDB3
:1046300010B50446D0F8580100F014F82046BDE843
:1046400010401AF095BF000010B50446FFF734FD86
:10465000014B2046236010BD840503080022026040
:104660000271704710B504464FF40051064802F03D
:10467000D7FC011E206818BF0121036821719B68C7
:10468000BDE81040184700BF0008025870470438C2
:1046900070477047C0680368DB6A1847A0F10400E0
:1046A000FFF7F8BF10B50446102127F0DCFE2046C6
:1046B00010BDA0F10400F5E70022C1608260044A49
:1046C00010B502F1080424320460426010BD00BF3E
:1046D000D005030870470000034B10B50446036083
:1046E000FFF78DFD204610BD0806030810B50446EF
:1046F000FFF7F2FFC421204627F0B5FE204610BD8B
:1047000010B50446FFF7AEFD014B2046236010BDF7
:1047100008060308FFF774BD80F8BD1098301BF041
:104720001EBF40F201134FF4F07200200B800523EE
:104730008B704FF48873C1E90123704790F82430DF
:10474000012B04BF002380F8243000207047002094
:10475000704710B404690089A4465DF8044B6047B3
:1047600010B4C4680089A4465DF8044B604770B576
:1047700000F118050E460978284600F0F5F80446C1
:104780003179284600F0FCF80444317A284600F0DC
:1047900003F90444317B284600F00AF90444317CD3
:1047A000284600F011F90444317D284600F018F93C
:1047B000C44214BF4FF0FF30002070BD183000F02D
:1047C00027B937B500F118050C4601A9284600F0B5
:1047D000BEF808BB9DF80430052B98BF184604238B
:1047E0002060032128460DEB030200F09DF8B0B9CC
:1047F0009DF804309DF805201B0203F470631343F9
:104800009DF8072063609DF806301B0203F4706377
:104810001343A36003B030BD4FF0FF30DFE74FF02C
:10482000FF30F7E7183000F08DB80121183000F0A4
:10483000E3B80021183000F0DFB810B590F824304C
:1048400004466BB9036898472046FFF7F2FF00382B
:104850004FF0010318BF012084F82430404210BDFE
:104860000020FCE70020704770B500F1180588B003
:104870000C462846694600F06AF890BB9DF8003067
:10488000052B98BF184620601E236A460321284640
:1048900000F04AF840BB21466D4614342A780635AC
:1048A00015F8056C1302920903F47063334315F88D
:1048B000036C41F8043F8C4215F8043CCA634FEA8C
:1048C000032303F4706343EA06034B6115F8023CCB
:1048D0008B6215F8013C4FEA13130B65DED108B06B
:1048E00070BD4FF0FF30CEE74FF0FF30F7E700002C
:1048F00090B14A680B6842600A8903600281CA6805
:10490000C2600A6902614A6900624261044AC26186
:10491000044A826103B118474FF0FF30704700BF6F
:10492000534700086147000810B4D0E90140A4468D
:104930005DF8044B604710B404688068A4465DF8D5
:10494000044B604701230A461946FFF7EDBF10B537
:104950000A460C4601230221FFF7E6FF18B9237827
:1049600003F00F03237010BD07B501238DF8071066
:104970000DF107029121FFF7DEFF03B05DF804FBA4
:1049800007B501238DF807100DF107029221FFF7FB
:10499000D2FF03B05DF804FB07B501238DF80710C3
:1049A0000DF107029321FFF7C6FF03B05DF804FB8A
:1049B00007B501238DF807100DF107029421FFF7C9
:1049C000BAFF03B05DF804FB07B501238DF80710AB
:1049D0000DF107029521FFF7AEFF03B05DF804FB70
:1049E00007B501238DF807100DF107029621FFF797
:1049F000A2FF03B05DF804FB07B501238DF8071093
:104A00000DF10702A421FFF796FF03B05DF804FB48
:104A10000A460123A821FFF787BF4FF080624FF4B9
:104A200080334FF48071C0E900234FF480524FF47B
:104A30008063C0E902324FF48043C0E904328361ED
:104A40004FF48023C0E907130020704770B59AB077
:104A50000E4605460021144606A8502228F0A6FB63
:104A60001422002101A828F0A1FB2EB9012C50D15D
:104A70004FF0FF301AB070BD0423621E099310205E
:104A800053425341002E4FEAC3020B9214BF01223E
:104A900000224FEA02114FEA82220A9140F2FA51B3
:104AA0000D924FEAC32208BF05210F924FF44052E6
:104AB000089106A90E920CBF4FF080724FF08062F1
:104AC00014924FEAC3624FEA437316920CBF00225E
:104AD00005221893012C4FF00103179202930CBF8B
:104AE000022201224FF48003159241F28832CDE96F
:104AF0000430284603F0ABF90028B9D141F28832DE
:104B000001A9284603F0E0FA003818BF012040420E
:104B1000B0E70123B1E770B596B00C4606461546DE
:104B20000021502202A828F041FB0023012CCDE9EE
:104B3000003304D11DB94FF0FF3016B070BD012312
:104B4000002C029318BF0423059314BF01230023F4
:104B50004FEA0313069340D1002D0CBF0B230C2307
:104B6000002C049341F2883202A90CBF4FF48073E9
:104B70004FF48063002D304609930CBF4FF400536F
:104B80004FF44053002C0A930CBF4FF080734FF04A
:104B9000806310930CBF08230623139303F057F987
:104BA0000028C8D102230293D4B9002D18BF1223C4
:104BB0000493002341F2883202A93046139303F094
:104BC00046F90028B7D100906946304603F0CCFA88
:104BD000003818BF01204042AFE74EF61343BFE74D
:104BE00041F2ED23E4E710B596B004464C220021D3
:104BF00003A828F0DBFA00234FF0080C4FF4006103
:104C000041F288322046CDE9003301230293042388
:104C100005931023CDE9063C4EF611634FF0006C6E
:104C200004934FF4806309934FF44053CDE90A3164
:104C30004FF0806302A910930623CDE912C34FF011
:104C40000053149303F003F918B14FF0FF3016B07E
:104C500010BD022341F2883202A9029341F2ED23F2
:104C6000CDE913002046049303F0F1F80028ECD1BD
:104C700000906946204603F077FA003818BF0120FB
:104C80004042E4E72DE9F0419AB00F460546002185
:104C9000164606A8502228F089FA1422002101A8FD
:104CA00028F084FA37B9012E63D14FF0FF301AB0E3
:104CB000BDE8F0810423711E099341F28832284631
:104CC0004C424C41002F06A94FEAC40314BF4FF0D9
:104CD00001084FF000080B934FEA08130A9340F2C3
:104CE000F96308BF0623089303F0B1F80028DCD16C
:104CF000002F40F2FA530C9041F2883208BF05238E
:104D000006A9284608934FEA88230D934FEAC42347
:104D10000F934FF440530E930CBF4FF080734FF03E
:104D2000806314934FEAC4634FEA447416930CBF34
:104D300000230523012E189417930CBF022301238F
:104D4000159303F084F80028AFD1022310220390BA
:104D500001A92846CDE901334FF48003CDE904329F
:104D600041F2883203F0B0F9003818BF0120404208
:104D70009DE701239FE7F0B595B00E460546144622
:104D80000021502268461F4628F010FA2EB9012C47
:104D900046D14FF0FF3015B0F0BD04230393631EDE
:104DA00006975A425A41002E4FEAC203059314BF98
:104DB000012300234FEA0313049347F28D2308BF16
:104DC000722302930CBF4FF480734FF480630793F8
:104DD0004FEAC2234FEAC26209934FF44053109244
:104DE000089314BF4FF080634FF080730E9319D077
:104DF000012C14BF0123022341F288326946284660
:104E00000F9303F024F80028C3D141F288321AA985
:104E1000284603F0C7F8003818BF01204042BAE71F
:104E20000123BBE70123E7E72DE9F04194B00F46EA
:104E300006461546002150226846984628F0B6F9E5
:104E400037B9012D4ED14FF0FF3014B0BDE8F081DD
:104E5000042303936B1E41F2883269465C4230465C
:104E6000CDF818805C41002F4FEAC403059314BFAE
:104E7000012300234FEA0313049347F28E1308BF64
:104E8000712302930CBF4FF480734FF48063079338
:104E90004FEAC42309934FF4405308930CBF4FF0DB
:104EA00080734FF080630E934FEAC4634FEA4474FB
:104EB00010930CBF00230523012D129411930CBFF6
:104EC000022301230F9302F0C2FF0028BBD141F25D
:104ED00088321A99304603F0A5F8003818BF01202F
:104EE0004042B2E70123B4E770B594B00D460646E0
:104EF000144600215022684628F058F90DBB012CB9
:104F000021D00123621E0393694630465442544126
:104F1000002D41F2883214BF012300234FEAC4045C
:104F20004FEA03130594049346F2996308BF66237E
:104F3000029302F08CFF003818BF0120404214B0E9
:104F400070BD0423DEE74FF0FF30F8E770B594B092
:104F50000D460646144600215022684628F026F9E0
:104F60000DBB012C21D00123621E039369463046FC
:104F700054425441002D41F2883214BF01230023D2
:104F80004FEAC4044FEA03130594049349F66613E9
:104F900008BF9923029302F05AFF003818BF01207E
:104FA000404214B070BD0423DEE74FF0FF30F8E755
:104FB000114A08B513680BB9002008BD013B136006
:104FC000002BF9D14FF480410C4801F08FFF0B48C2
:104FD0004FF4004101F08AFF094A0A48D2F8F43040
:104FE00023F08003C2F8F43002F0ACF90028E3D0DB
:104FF0006FF00700E1E700BFA43E00240014025850
:1050000000440258AC4800240023012210B541603E
:1050100004460362C0E90232C0E90433C0E9063342
:1050200002F03EF9014608B1012010BD204602F011
:1050300060FB01460028F7D1204602F080FB0038D3
:1050400018BF0120F1E70000A04BA1482DE9F04F67
:10505000036093B09F4B1A68009201321A60009B64
:10506000002B40F0C28002F03FFB002840F0BD80E2
:10507000994D4FF4804201210426D5F8E03097483D
:1050800043F02003C5F8E030D5F8E03003F020030A
:105090000A930A9BD5F8E03043F02003C5F8E030CE
:1050A000D5F8E030119603F020030B930B9B1223ED
:1050B000CDE90D230223CDE90F130DA901F032FE36
:1050C0004FF400430DA985480D93119601F02AFE77
:1050D000D5F8F43043F08003C5F8F430D5F8F43057
:1050E00003F080030C930C9BD5F89C3043F08003B5
:1050F000C5F89C30D5F89C3023F08003C5F89C306F
:1051000003F0E4FF00286AD0754B4FF0100A009AB4
:1051100003EB5003DFF8D0B19146B3FBF0F000EBA6
:105120004005704B86000146C5F132051B68C6F587
:10513000C37625EAE57526EAE67688464FF0000C48
:10514000B8F5AF7FCDF804C00CF1010C5AD300279D
:10515000BE46BD4250D8BE424ED392454CD01424D8
:1051600004FB03FA0133019C0BEB0A097F2B4BF87C
:105170000A20C9E9014E3CD95A4A1360594B40F6FE
:10518000C412594900271B6802924FF0FF32049362
:105190004300C3F5806B03F13204A3F634030BF133
:1051A000010B08940993049B9F4237D17F2A16D89C
:1051B00014214D4B4A4399189B580C7C44EA0374C4
:1051C0004B681B0503F470031C438B681B0403F43A
:1051D00070231C43CB681B029BB2234300930099AE
:1051E0003B48FFF711FF00286CD1002013B0BDE849
:1051F000F08F92464FF001090EF1010E0F44BEF1FF
:10520000100FA6D1BCF1100F884499D1013201448E
:10521000102A92D1B9F1000FAED1AFE70B684FF071
:10522000000C089C03FB00031C44ABEB0305039438
:105230006C00039D0194099C1C44079440F2145493
:10524000CDF814C0A5F132060CF1010CA5422ED9FF
:10525000B0EB960F2BD2079C4FF0000EDDF80C80C0
:105260006619DDF8049006F2A11A40F21244CDF856
:1052700018E00EF1010EA24512D8B8F5167F0FD333
:1052800040450DD236EA260A28BFCA46029CA245EE
:1052900006D2059ACDF808A00A61069ACA603A4675
:1052A000BEF5807F1E44A9EB03099844DBD1019C25
:1052B000BCF5807F1D44A4EB03040194BED10137EB
:1052C000143170E76FF0070090E700BF001C005832
:1052D000AC480024A43E00240044025800140258A4
:1052E00000CA9A3BA8480024A83E00241FB54FF4EA
:1052F0007A7400920A4601460848CDE90134012338
:1053000002F03AF840B1054802F0F1F904280CBF68
:105310006FF065006FF0030004B010BDAC480024CE
:105320001FB54FF47A7400920A4601460848CDE949
:105330000134012302F0FAF840B1054802F0D7F930
:1053400004280CBF6FF065006FF0030004B010BDBF
:10535000AC48002400F0D4BC30B5214C85B02148C5
:10536000A2786178FFF78EFC18B16FF0040005B0E9
:1053700030BD03231B4800934FF44073A27861783B
:10538000FFF7F9FC0028F0D1A27861781548FFF703
:1053900079FC03460028E8D1012512480095A2783F
:1053A0006178FFF7E8FC04460028DED1282000F0F1
:1053B000ADFC224629460B48FFF748FB0346002870
:1053C000D3D103AA2946009202460648FFF72CFDD6
:1053D0000028CAD19DF80C30AB42C8D0C5E700BF49
:1053E000004900240849002430B5274D85B0274CDA
:1053F000AA7869782046FFF745FC18B16FF00400E1
:1054000005B030BD0323AA786978204600934FF495
:105410004073FFF7B0FC0028F0D1AA7820466978E5
:10542000FFF730FC03460028E8D1022269782046C5
:105430000092AA78FFF79FFC0028DFD1282000F017
:1054400065FC4FF080732046E3604FF08053E362C9
:1054500002F076FCA8B9012220461146FFF7F6FAC1
:1054600003460028CAD103AA204600920122114611
:10547000FFF7DAFC0028C1D19DF80C30022BBFD019
:10548000BCE76FF00300BBE7004900240849002493
:105490000E4A0423C0E900230A68002302610222A5
:1054A0008360C0E905234A6842628A6803638262B6
:1054B000CA68012AC0E9073306BF4FF080524FF097
:1054C00080731A46C360C26202F03ABC00500052B8
:1054D00010B598B90B4CA37861785BB901220A48E2
:1054E000FFF719FB10B16FF0040010BD022300207C
:1054F0002370FAE70448FFF776FBF3E76FF001004B
:10550000F3E700BF004900240849002410B550B952
:10551000094C2378022B09D1084802F054FE40B907
:105520000123237010BD6FF00100FBE76FF01A003C
:10553000F8E76FF00300F5E700490024084900246C
:1055400010B5002856D12D4C2378022B4BD00023C8
:105550004FF480612A482380A37001F0C7FC042126
:10556000284801F0C3FC4021274801F0BFFC4FF45C
:105570000061264801F0BAFC4FF48051234801F045
:10558000B5FC0421224801F0B1FC4FF400511F4842
:1055900001F0ACFC10211D4801F0A8FC20211B48A3
:1055A00001F0A4FC4FF40071174801F09FFC80212A
:1055B000164801F09BFC174B1748DA6F42F4804203
:1055C000DA67DA6F22F48042DA67D3F8D42022F463
:1055D0008042C3F8D42002F027FC00280CBF002032
:1055E0006FF0030010BDFFF791FF0028AFD06FF000
:1055F0000400F7E76FF00100F4E700BF0049002462
:10560000001402580004025800180258000C0258F6
:105610000010025800440258084900242DE9FF41B7
:105620000D461646002856D12E4C2378022B55D015
:105630006378012B46D10129A27809D1964207D17E
:105640000123002065702370A67004B0BDE8F081CE
:10565000254F01213846FFF715FB034678BBADF80F
:105660000C0000903846A2786178FFF784FB8046F2
:1056700028BB282000F04AFBA378012B06D138462E
:10568000C7F80C80C7F82C8002F05AFB002216489D
:105690001146FFF7DBF9034688B903AA01460092D9
:1056A00002461148FFF7C0FB48B99DF80C3033B9EA
:1056B000012DC5D1A3784BB9FFF796FE08E06FF036
:1056C0000400C2E70129BBD1002AF5D1FFF744FE4F
:1056D0000028BAD1B4E76FF00100B6E76FF0190007
:1056E000B3E700BF004900240849002400B54FF08B
:1056F0000072AFB000236846CDE90023202350227A
:1057000013930523CDE9023204930223CDE9053337
:105710000023CDE90833079303F004FE2FB05DF8B2
:1057200004FB00002DE9F0430D469BB0002840F03B
:105730006081B14E3478002C40F05981AF4B4FF06E
:1057400002094FF00A0811A9D3F8D4200427AC4865
:1057500042F48042C3F8D420D3F8D42002F480422B
:105760000192019ADA6F42F48042DA67DA6F22F42A
:105770008042DA67D3F8E02042F02002C3F8E0204C
:10578000D3F8E02002F020020292029AD3F8E0203F
:1057900042F00202C3F8E020D3F8E02002F0020257
:1057A0000392039AD3F8E02042F04002C3F8E020CD
:1057B000D3F8E02002F040020492049AD3F8E020EB
:1057C00042F00802C3F8E020D3F8E02002F008021B
:1057D0000592059AD3F8E02042F00802C3F8E020D1
:1057E000D3F8E02002F008020692069AD3F8E020EF
:1057F00042F01002C3F8E020D3F8E02002F01002DB
:105800000792079AD3F8E02042F00802C3F8E0209C
:10581000D3F8E02002F008020892089AD3F8E020BA
:1058200042F00802C3F8E020D3F8E02002F00802BA
:105830000992099AD3F8E02042F00802C3F8E02068
:10584000D3F8E02002F008020A920A9AD3F8E02086
:1058500042F04002C3F8E020D3F8E02002F040021A
:105860000B920B9AD3F8E02042F00802C3F8E02034
:105870000122D3F8E03003F008030C930C9B402383
:10588000CDE911390323CDF85480CDE9132301F07C
:1058900049FA11A95B4811971394CDF8548001F08F
:1058A00041FA4FF480631394092411A956481193C7
:1058B000159401F037FA4FF4006311A9534811937E
:1058C000159401F02FFA4FF4805311A94F4811930A
:1058D000159401F027FA11A94D4811972027159426
:1058E00001F020FA4FF4005311A948481193159480
:1058F00001F018FA102311A944481193CDF85480EF
:1059000001F010FA11A941481197CDF8548001F027
:1059100009FA4FF4007311A939481193159401F055
:1059200001FA802311A939481193CDF8548001F070
:10593000F9F911A8FFF771F8119BCDF8389093FA97
:10594000A3F30BB1B3FA83F7002332480D970F93FB
:105950006B781093FFF7CAFE20B16FF003001BB005
:10596000BDE8F0830DA92B48FFF792FD0246002801
:10597000F3D101462748FFF7B7FA024610B16FF09E
:105980000400ECE701462348FFF7E0FA024600284E
:10599000F5D101211F48FFF7A7FA02460028EED1F2
:1059A00001211C48FFF7D2FA0028E8D1012219484A
:1059B0001146FFF799FA0028E1D101221548114656
:1059C000FFF7C4FA0028DAD10123B07064203380D5
:1059D00000F09CF9B27871780E48FFF737F800288C
:1059E000CDD16A782978FFF719FE0028C7D10020A9
:1059F000B5E76FF00100B2E7004900240044025807
:105A0000001802580004025800140258000C0258F2
:105A100000100258084900242DE9F0410C4688B0D6
:105A2000002863D10B685A1EB2F5F07F5ED24A6837
:105A3000511EB1F5887F59D2934228BF1346E268C0
:105A40009A4253D870232B4D019002A9ADF8103023
:105A50002846294B0293294B0393294B0693294B44
:105A60000593294B0793FEF743FF28B14FF0FF350D
:105A7000284608B0BDE8F08101A92846FEF79EFE41
:105A80000028F3D1019B512BF0D1204B2846204F09
:105A9000DFF884803D60C8F800301B6898470546F1
:105AA0000028E3D1236802A91A4E3868336063687E
:105AB0007360A368B360E368F360D8F80030DB6913
:105AC000984700280FDB039B22683361049B6168C1
:105AD0007361E3681A440B4401320133B2617362AB
