:020000040800F2
:100000000000052405450008992100089B210008EF
:100010009D2100089F210008A12100080000000088
:1000200000000000000000000000000081F6000851
:10003000A32100080000000011F70008B3EE00083B
:10004000554500085545000855450008A5210008FC
:100050005545000855450008554500085545000818
:100060005545000855450008B121000855450008D0
:1000700055450008554500085545000855450008F8
:1000800055450008554500085545000855450008E8
:1000900055450008554500085545000855450008D8
:1000A000554500085545000855450008B921000888
:1000B0005545000855450008C5210008554500086C
:1000C00055450008554500085545000855450008A8
:1000D0005545000855450008554500085545000898
:1000E000554500085545000800000000554500082A
:1000F0005545000855450008554500085545000878
:100100005545000855450008554500085545000867
:100110005545000855450008D121000855450008FF
:100120005545000855450008554500085545000847
:100130005545000855450008554500085545000837
:1001400000000000000000000000000000000000AF
:100150005545000855450008554500085545000817
:100160005545000855450008554500085545000807
:1001700055450008554500085545000855450008F7
:1001800055450008554500085545000855450008E7
:1001900055450008554500085545000855450008D7
:1001A000DD21000855450008E92100080000000095
:1001B00055450008554500085545000855450008B7
:1001C00055450008554500080000000000000000EB
:1001D000000000000000000055450008000000007D
:1001E000000000000000000000000000000000000F
:1001F00000000000000000005545000855450008BB
:100200005545000855450008000000005545000808
:100210005545000855450008554500085545000856
:10022000554500080000000055450008000000008A
:1002300055450008554500080000000055450008D8
:100240005545000855450008554500085545000826
:100250005545000855450008554500085545000816
:100260005545000855450008554500085545000806
:100270005545000855450008554500080000000098
:1002800055450008554500085545000855450008E6
:100290000000000055450008554500085545000878
:1002A00055450008554500085545000855450008C6
:1002B000554500085545000855450008F52100083A
:0C02C000012200085545000855450008C3
:1002D00010B5054C237833B9044B13B10448AFF380
:1002E00000800123237010BD78010024000000006D
:1002F000101A030808B5034B1BB103490348AFF3B9
:10030000008008BD000000007C010024101A0308D2
:1003100001F0FF01102A2BDB10F0070F08D010F8B6
:10032000013B013A8B422DD010F0070F42B3F6D1BA
:10033000F0B441EA012141EA014122F007047FF0D3
:1003400000070023F0E80256083C85EA010586EA2A
:10035000010685FA47F5A3FA87F586FA47F6A5FA66
:1003600087F68EB9EED1F0BC01F0FF0102F0070272
:1003700032B110F8013B013A83EA010313B1F8D11D
:100380000020704701387047002D06BF35460338FE
:10039000073815F0010F07D1013015F4807F02BF37
:1003A000013015F4C03F0130F0BC0138704700BF88
:1003B00081F0004102E000BF83F0004330B54FEA16
:1003C00041044FEA430594EA050F08BF90EA020F83
:1003D0001FBF54EA000C55EA020C7FEA645C7FEA16
:1003E000655C00F0E2804FEA5454D4EB5555B8BF39
:1003F0006D420CDD2C4480EA020281EA030382EAAA
:10040000000083EA010180EA020281EA0303362D3B
:1004100088BF30BD11F0004F4FEA01314FF4801C0E
:100420004CEA113102D0404261EB410113F0004F20
:100430004FEA03334CEA133302D0524263EB4303D7
:1004400094EA050F00F0A780A4F10104D5F1200E75
:100450000DDB02FA0EFC22FA05F2801841F10001D0
:1004600003FA0EF2801843FA05F359410EE0A5F1A4
:1004700020050EF1200E012A03FA0EFC28BF4CF0D5
:10048000020C43FA05F3C01851EBE37101F000458B
:1004900007D54FF0000EDCF1000C7EEB00006EEB98
:1004A0000101B1F5801F1BD3B1F5001F0CD3490822
:1004B0005FEA30004FEA3C0C04F101044FEA445279
:1004C00012F5800F80F09A80BCF1004F08BF5FEA00
:1004D000500C50F1000041EB045141EA050130BDE0
:1004E0005FEA4C0C404141EB0101013C28BFB1F5F2
:1004F000801FE9D291F0000F04BF01460020B1FA3D
:1005000081F308BF2033A3F10B03B3F120020CDA0F
:100510000C3208DD02F1140CC2F10C0201FA0CF0ED
:1005200021FA02F10CE002F11402D8BFC2F1200C52
:1005300001FA02F120FA0CFCDCBF41EA0C01904008
:10054000E41AA2BF01EB0451294330BD6FEA040451
:100550001F3C1CDA0C340EDC04F11404C4F120023C
:1005600020FA04F001FA02F340EA030021FA04F34E
:1005700045EA030130BDC4F10C04C4F1200220FAA5
:1005800002F001FA04F340EA0300294630BD21FAE3
:1005900004F0294630BD94F0000F83F4801306BFA9
:1005A00081F480110134013D4EE77FEA645C18BF9D
:1005B0007FEA655C29D094EA050F08BF90EA020F34
:1005C00005D054EA000C04BF1946104630BD91EA2C
:1005D000030F1EBF0021002030BD5FEA545C05D12F
:1005E0004000494128BF41F0004130BD14F580046E
:1005F0003CBF01F5801130BD01F0004545F0FE41E2
:1006000041F470014FF0000030BD7FEA645C1ABF16
:10061000194610467FEA655C1CBF0B46024650EA4D
:10062000013406BF52EA033591EA030F41F4002179
:1006300030BD00BF90F0000F04BF0021704730B5FF
:100640004FF4806404F132044FF000054FF00001D4
:1006500050E700BF90F0000F04BF0021704730B595
:100660004FF4806404F1320410F0004548BF40426A
:100670004FF000013EE700BF42004FEAE2014FEABF
:1006800031014FEA02701FBF12F07F4393F07F4F9A
:1006900081F06051704732F07F4208BF704793F09D
:1006A0007F4F04BF41F40021704730B54FF46074B0
:1006B00001F0004521F000411CE700BF50EA0102B3
:1006C00008BF704730B54FF000050AE050EA01025C
:1006D00008BF704730B511F0004502D5404261EBCC
:1006E00041014FF4806404F132045FEA915C3FF40D
:1006F000D8AE4FF003025FEADC0C18BF03325FEAAA
:10070000DC0C18BF033202EBDC02C2F1200300FA5A
:1007100003FC20FA02F001FA03FE40EA0E0021FA7F
:1007200002F11444BDE600BF53B94AB9002908BF1D
:1007300000281CBF4FF0FF314FF0FF3000F06AB9C6
:10074000ADF1080C6DE904CE00F006F8DDF804E028
:10075000DDE9022304B070472DE9F047089D0C46FF
:10076000002B4ED194468C458646B2FA82F262D96D
:100770004AB1C2F12003914020FA03F30CFA02FCC3
:10078000194300FA02FE4FEA1C471FFA8CF6B1FB30
:10079000F7F44FEA1E4307FB141143EA014304FB3D
:1007A00006F199420AD91CEB030304F1FF3080F0F3
:1007B0001281994240F20F81023C6344591A1FFA98
:1007C0008EF3B1FBF7F007FB101143EA014300FB86
:1007D00006F69E420AD91CEB030300F1FF3180F0BC
:1007E000FC809E4240F2F980634402389B1B40EA41
:1007F000044000211DB1D3400022C5E90032BDE80C
:10080000F0878B4205D90DB1C5E9000100210846EA
:10081000F5E7B3FA83F1002946D1A34202D390420F
:10082000C0F0F080861A64EB03030120002DE6D0AF
:10083000C5E90063E3E7002A40F09080A1EB0C04D7
:100840004FEA1C481FFA8CF70121B4FBF8F64FEA77
:100850001E4308FB164443EA044307FB06F0984294
:1008600008D91CEB030306F1FF3402D2984200F2D0
:10087000CD8026461C1A1FFA8EF3B4FBF8F008FB55
:10088000104443EA044300FB07F79F4208D91CEBDE
:10089000030300F1FF3402D29F4200F2B0802046F1
:1008A000DB1B40EA0640A5E7C1F120068B4022FA97
:1008B00006F71F4320FA06FC04FA01F343EA0C038F
:1008C000F44000FA01F8380C4FEA1349B4FBF0FE8B
:1008D0001FFA87FC00FB1E4449EA04440EFB0CF996
:1008E000A14502FA01F20AD93C190EF1FF3A80F053
:1008F0008480A14540F28180AEF1020E3C44A4EB1D
:1009000009041FFA83F9B4FBF0F300FB134449EA2E
:10091000044403FB0CFCA44507D93C1903F1FF3048
:1009200067D2A44565D9023B3C4443EA0E40A0FB94
:100930000293A4EB0C049C42CE469C4651D34ED06D
:1009400055B1B8EB0E0364EB0C0404FA06F6CB4089
:100950001E43CC40C5E90064002150E7C2F12003EA
:1009600020FA03F10CFA02FC24FA03F394400C433E
:100970004FEA1C4800FA02FE1FFA8CF7B3FBF8F0AE
:1009800008FB1031230C43EA014300FB07F19942B5
:1009900008D91CEB030300F1FF362CD299422AD967
:1009A000023863445B1AA4B2B3FBF8F108FB1133BD
:1009B00044EA034401FB07F3A34208D91CEB0404F7
:1009C00001F1FF3613D2A34211D902396444E41A6B
:1009D00041EA004139E70446F0E6084606E7C84523
:1009E000AED2B9EB020E63EB070C0138A8E7314633
:1009F000EDE7034699E73046D4E7D6467FE7634400
:100A000002384DE70646234608460FE7023E634498
:100A100030E700BF704700BF014900200FF0F6BF6C
:100A2000014A000808B542F210700EF0C2FAFAE767
:100A300008B541F288300EF0BCFAFAE708B5642038
:100A40000EF0B7FAFBE708B502F08CFB03F0DEFC12
:100A500004200EF0AEFAF7E708B503F019FD0A20FE
:100A60000EF0A7FAF9E70000094C0A4D08B5204638
:100A700008F01EF96421204607F0B2FD204607F079
:100A80003DFE286002F088FA64200EF092FAEEE74C
:100A90003C47002420480024094C0A4D08B5204654
:100AA00008F006F90121204607F09AFD204607F0DC
:100AB00025FE288001F00EFE64200EF07AFAEEE7A3
:100AC000AC4700242448002408B502F05BF9FA2062
:100AD0000EF06FFAF9E708B502F0FAF94FF47A7000
:100AE0000EF067FAF8E708B502F056FC02F0D0FB0A
:100AF00002F0BEFC01200EF05CFAF5E708B501F04B
:100B0000BBFC01F083FD4FF4FA700EF052FAF6E7E9
:100B1000054C08B501F042FF01F05AFF2060322079
:100B20000EF047FAF6E700BF1C48002408B501F0B4
:100B3000CBFF4FF47A700EF03CFAF8E707B54FF6AA
:100B4000FF730190012201A903480EF054F80198A7
:100B500003B05DF804FB00BF5043002410B59CB007
:100B60004C22002109A82FF08BFF2022002101A890
:100B70002FF086FF04200BF047F800230093214B51
:100B80009A6922F440429A619A6902F440420092C2
:100B9000009A9A699204FCD50BF000F81A4A2C21AD
:100BA0000024136F09A823F0180313670D224FF4D4
:100BB00080331B94CDE9092301220223CDE91512CC
:100BC0000B920E9244221493CDE91723CDE91233F0
:100BD0000C23CDE919340BF055F803213F230820ED
:100BE0004FF4806203947024CDE901314023CDE9B4
:100BF000040301A80893CDE906420BF05FFB1CB08B
:100C000010BD00BF004802580044025800B5AFB004
:100C10000021982208A82FF033FF124A0023192040
:100C2000CDE9002305225023CDE9022302238022AF
:100C3000CDE90433069307924FF49072CDE90C335B
:100C40001E230E934FF400731093202313934FF43D
:100C50008033CDE90A02684628930BF017FE2FB0C7
:100C60005DF804FB000008222DE98048A1B01022A5
:100C700000214FF0E04A13A82FF002FF08F032FBEA
:100C800040F2011313A8ADF84C30D34BCDE914A3B7
:100C9000D24B169308F044FB042008F031FBD04BF4
:100CA0005A6912F4003211D1BFF34F8FBFF36F8F27
:100CB000C3F85022BFF34F8FBFF36F8F5A6942F4CE
:100CC00000325A61BFF34F8FBFF36F8FC44A53692D
:100CD00013F4803323D1C2F88430BFF34F8FD2F89E
:100CE000803043F6E074C3F3C900C3F34E335B01B5
:100CF00003EA0406014646EA81750139C2F86052EA
:100D0000F9D2203B13F1200FF2D1BFF34F8F53697B
:100D100043F480335361BFF34F8FBFF36F8F07F0FE
:100D2000EBFB0024FFF71AFF0125FFF76FFF1422EA
:100D3000002113A82FF0A4FEAA4B48F20801AA48EC
:100D4000D3F8E02002274FF010084FF0030A42F0DA
:100D500002024FF4806BA54E40F21529C3F8E02043
:100D6000D3F8E02002F002020092009AD3F8E020CB
:100D700042F04002C3F8E020D3F8E02002F0400245
:100D80000192019AD3F8E02042F00802C3F8E02073
:100D9000D3F8E02002F008020292029AD3F8E02091
:100DA00042F01002C3F8E020D3F8E02002F0100275
:100DB0000392039AD3F8E02042F00102C3F8E02046
:100DC000D3F8E02002F001020492049AD3F8E02064
:100DD00042F00402C3F8E020D3F8E02002F004025D
:100DE0000592059AD3F8E02042F08002C3F8E02093
:100DF000D3F8E02002F080020692069AD3F8E020B1
:100E000042F02002C3F8E0200022D3F8E03003F0E3
:100E100020030793079B09F0E9FA00224FF44041B1
:100E2000734809F0E3FA00224FF48061714809F039
:100E3000DDFA00220121704809F0D8FA082313A92D
:100E40006E481595CDE9133409F052F94FF400536B
:100E500013A96B481597CDE9133409F049F94FF4FC
:100E6000004313A96048CDE91335CDE9154409F0D5
:100E70003FF9202313A95C481595CDE9133409F0F7
:100E800037F94FF4881313A957481594CDE9138304
:100E900009F02EF9082313A95348CDF858A015944A
:100EA000CDE9133509F024F94FF4807313A955489F
:100EB0001595CDE9133409F01BF94FF4404313A9FC
:100EC0004B48CDE91335CDE9154A09F011F913A9BD
:100ED0004848CDE913B5CDE9154409F009F913A93E
:100EE0004548CDE91355CDE9154A09F001F92246E7
:100EF00005210A2008F0A4F90A2008F0D3F9424895
:100F0000424B056203608480C0E9054408F034FA6E
:100F10004FF440333E48C0E90063C0E9025408F092
:100F20008CFA2146342213A82FF0AAFD394E3A4BF1
:100F30004FF0280C4FF0350E40F235223046346128
:100F4000B48686F83640C6E900340923C6E905C3ED
:100F50000B23C6E907E340F21B13C6E9099340F2ED
:100F60001D134FF00409C6E90B23C6E9024409F03A
:100F70008FFEFF214FF488734FF4F0720520CDF8F7
:100F800068B04FF0180B1394ADF87C408DF87E409C
:100F9000CDE918144FF0E041CDE91D23CDE91B0147
:100FA000CDE9142413A9224630461C4ECDE916354E
:100FB00009F06BFF5A46214613A82FF061FD184B2C
:100FC0004FF080723046B460F463C6E900392023E4
:100FD000C6E9032326E000BF1A0001030001010156
:100FE00000ED00E0004402580018025800100052C2
:100FF00000040258000C0258000002580010025869
:10100000000802580014025818470024004C0258E7
:10101000B04600245845002400100050FC44002431
:10102000005000520823C6E90574C6E90D34C6E92C
:101030000974C6E90744C6E90B440AF0B3F84FF057
:10104000011213A93046169202F57F0215951792E8
:1010500041F28832CDE913550AF030FB30460AF0F0
:1010600015F940F201122046D14EADF8382006F0B5
:101070009FFE0EA9204606F08DFF204606F060FE7A
:101080005A46214613A82FF0FBFC424621460AA8E7
:101090002FF0F6FC214614220EA82FF0F1FCC54AD1
:1010A0004FF0805C3046B460C6E900294FF08062A2
:1010B000C6E9032B17224FF6FF7BC6E90BC24FF49C
:1010C000C872C6E90594C6E90974F263C6E9074423
:1010D000C6E90D44CDE908440AF064F8B64A13A9FC
:1010E0003046169202F57F021597179241F2883228
:1010F000CDE9137706270AF0E1FA41F288320AA90E
:101100003046CDF828A00D954FF4805ACDE90B74E8
:101110000AF01EF94FF440520EA9304610924FF0DB
:1011200000521195129241F288320E940F940AF0F7
:1011300035F908A9304608940AF050FA03F0E0F9AE
:10114000424621460EA89D4E2FF09AFC424621466B
:1011500013A80C94CDE90A442FF092FC984A30462B
:10116000B460C6E90024C6E903B4C6E905440CF03E
:1011700071FF0EA93046CDF838A00DF0ABF830461F
:101180000CF098FF0AA930460C94CDE90A440DF002
:101190006FFA0C2213A930468A4ECDE91345CDE9EA
:1011A00015440CF0F9FF424621460EA82FF068FCCA
:1011B0004246214613A80C94DFF83882CDE90A4450
:1011C0002FF05EFC804A30463461B461C6E90024E9
:1011D000C6E9024B0CF03EFF0EA93046CDF838A010
:1011E0000DF078F830460CF065FF0AA930460A94F5
:1011F0000C940DF03DFA0C2213A93046734ECDE944
:101200001345CDE915440CF0C7FF2146242213A84D
:101210001094CDE90E442FF033FC08234FF4002244
:101220003046B360F561348386F82040346386F835
:101230004440C6E90082C6E90449C6E90A44C6E951
:101240000F4407F037FE0EA930460E9407F080FFDA
:1012500040F2FF7213A93046159418948DF86D4032
:101260005B4ECDE91629CDE9135707F04BFA14224E
:10127000214613A82FF004FC564B4FF07F0930464F
:101280000E9434617461C6E90034FF23C6E9064454
:10129000C6E902930CF07CFB43F212032A4613A921
:1012A000ADF84C304FF0200330468DF84E30CDE98C
:1012B00016440CF0C4FB484B2A460EA9304643F2B4
:1012C000F2250E930CF01DFC214630460CF05FFD1C
:1012D000A8420ED0224613A930460CF0B0FB22469D
:1012E0000EA930460CF00DFC2A46214630460CF083
:1012F00049FD3A4D00244FF4E133394A4FF00C08D0
:1013000028462C61012604274FF00809C5E900236F
:10131000C5E90244C5E90584C5E90744C5E90944AE
:101320000DF019FD214628460DF083FD2146284683
:101330000DF09FFD28460DF061FD2A4D2422214627
:1013400013A82FF09DFB28494FF4802328462C61D9
:101350006F612C83EE6185F8204085F8384085F870
:101360004440C5E90013C5E90294C5E90A44C5E94A
:101370000C44C5E90F4407F09DFD062313A9284638
:10138000139618941A94CDE9143440F2FF73CDE902
:10139000163707F0B7F91548154B0D220682036082
:1013A00002238474C0E907231F22C0E9053923E022
:1013B000A044002400A00052020001003044002498
:1013C00000000140E443002400080040AC47002432
:1013D0007C4400240040005804041024504300249E
:1013E000004800403C47002400600258104600249A
:1013F00000D4004000200240C0E91763C0E90B2977
:10140000C0E90244C0E90966C0E90D46C0E90F66BB
:10141000C0E91176C0E91376C0E91576C0E919472D
:1014200008F012F903F098F803F095F802F056FF6F
:1014300003F024F801F0D2FA01F00CFC01F00EFDEB
:1014400001F006F801F040F900F034FF01F0A0FAD5
:1014500001F018FB41463B480DF004F841463A487C
:101460000DF000F801F0E8FC0DF030FD374A2146A0
:1014700037480DF057FD374B374A2146186037483B
:101480000DF050FD364B374A2146186036480DF0B6
:1014900049FD364B364A2146186036480DF042FD6C
:1014A000354B364A2146186035480DF03BFD354B2B
:1014B000354A2146186035480DF034FD344B354A25
:1014C0002146186034480DF02DFD344B344A214636
:1014D000186034480DF026FD334B344A214618601D
:1014E00033480DF01FFD334B334A21461860334813
:1014F0000DF018FD324B334A2146186032480DF08A
:1015000011FD324B324A2146186032480DF00AFD77
:10151000314B324A2146186031480DF003FD314B02
:10152000314A2146186031480DF0FCFC304B314AFD
:101530002146186030480DF0F5FC304B18600DF076
:10154000D7FCFEE730440024E4430024EC1D0308EC
:10155000250A00084C430024C81D030867450008FD
:101560009C400024A41D0308AD5F0008984000249F
:10157000801D0308470A0008E82F00245C1D0308AB
:10158000590A0008382D0024381D0308690A00088C
:10159000881C0024141D0308990A0008D819002487
:1015A000F01C0308310A000828170024CC1C03088B
:1015B000C90A000878140024A81C0308D70A0008E8
:1015C000C8110024841C0308E70A0008180F00242F
:1015D000601C0308FD0A0008680C00243C1C03087A
:1015E0003D0A0008B8090024181C0308110B000864
:1015F00008070024F41B03082D0B000858040024DE
:1016000010B59EB0224809F0B7FA2022002103A8A5
:101610002FF036FA4C2200210BA82FF031FA0023CC
:10162000029301931B4B9A6922F440429A619A6992
:1016300002F440420292029A9A699204FCD50BA8E5
:1016400001240AF0A7FF4FF480330BA8CDE90B4328
:10165000022314930AF016FB01A903A80AF0FCFF69
:101660000323019903A8049303940AF027FE00F0D2
:1016700089FD094800F07CF908482FF001F9084A73
:10168000D2F8D03043F48033C2F8D0301EB010BD51
:10169000004600240048025858450024B41A0308A4
:1016A0000044025810B50C4C00220C4821460CF0A6
:1016B0007CFA0B4B187028B9A37862782178094816
:1016C0002FF06EF8FFF74AFA00F05CFD0648BDE81F
:1016D00010402FF0D5B800BF980100247C440024AE
:1016E00094010024C51A0308D61A030808B5134A42
:1016F000002113482FF0C4F94FF4F0620021114883
:101700002FF0BEF90D4B104A00200D4906F040FAAB
:1017100078B10E482FF044F84FF4F0630C4A0020E3
:10172000074906F035FA30B10A48BDE808402FF005
:1017300037B80948EEE70948F7E700BF00FA0500A7
:1017400080EF177000E8177080070000E91A03089F
:1017500000000000071B0308F71A0308151B030805
:101760000268034B9A4201D106F0F4BE704700BFF5
:1017700000100040704700000A4B82B00F216FF04C
:101780000100D3F8F42042F00202C3F8F420002252
:10179000D3F8F43003F002030193019B02B007F089
:1017A0004FBD00BF00440258036884B0214A9342F1
:1017B0001ED1214B4FF08071D3F8D82042F0200287
:1017C000C3F8D820D3F8D82002F020020092009A63
:1017D000D3F8E02042F00102C3F8E020D3F8E03073
:1017E00003F001030193019B084604B006F0D6BE46
:1017F000124A93421BD1104B4FF08061D3F8E02086
:1018000042F08072C3F8E020D3F8E02002F080724A
:101810000292029AD3F8E02042F00402C3F8E020DA
:10182000D3F8E03003F004030393039BDCE704B038
:10183000704700BF00200240004402580060025878
:10184000026882B0094B9A420DD1A3F50063D3F828
:10185000E02042F40022C3F8E020D3F8E03003F4A3
:1018600000230193019B02B0704700BF004C025857
:101870000F4B07B502689A4217D10E4B05215A202B
:10188000D3F8D42042F01002C3F8D4200022D3F8B9
:10189000D43003F010030193019B07F0D1FC5A20D0
:1018A00003B05DF804EB07F0FDBC03B05DF804FB8A
:1018B000001000520044025810B5B6B0044614227D
:1018C000002103A82FF0DCF8B822002108A82FF08F
:1018D000D7F82268234B9A4242D100234FF40042AA
:1018E00008A8CDE908234FF0805323930AF0CEFFD8
:1018F00008B1FFF73FFF1C4B002403A91B48D3F896
:10190000EC2042F48072C3F8EC20D3F8EC2002F40F
:1019100080720192019AD3F8E02042F02002C3F8CD
:10192000E020C022D3F8E03003F020030293029BB2
:101930000223CDE90544CDE90323079308F0D8FB42
:10194000224605219F2007F07BFC9F2007F0AAFC80
:10195000A0202246052107F073FCA02007F0A2FC7E
:1019600036B010BD00D400400044025800140258A4
:101970002DE9F0418EB004461422002109A82FF071
:101980007FF822686A4B9A4240F0CE80694B02266B
:1019900003250E27D3F8E42009A96748002442F064
:1019A00008024FF05808C3F8E420D3F8E42002F00E
:1019B00008020192019AD3F8E02042F00202C3F833
:1019C000E020D3F8E02002F002020292029AD3F85B
:1019D000E02042F00802C3F8E020D3F8E02002F053
:1019E00008020392039AD3F8E02042F01002C3F8F1
:1019F000E020D3F8E02002F010020492049AD3F819
:101A0000E02042F00102C3F8E020D3F8E02002F029
:101A100001020592059AD3F8E02042F04002C3F893
:101A2000E020D3F8E02002F040020692069AD3F8B4
:101A3000E02042F08002C3F8E020D3F8E02002F07A
:101A400080020792079AD3F8E02042F00402C3F81C
:101A5000E020D3F8E03003F004030893089B40F241
:101A60000333CDE90C57CDE9093608F041FB492392
:101A700009A932480D97CDE90936CDE90B4508F0A3
:101A800037FB4BF6030309A92D480D97CDE909361D
:101A9000CDE90B4508F02CFB4FF4807309A92948C8
:101AA000CDE909360D23CDE90B450D9308F020FB58
:101AB0004FF4814309A924480D97CDE90936CDE9B2
:101AC0000B4508F015FB48F6087309A91F480D9748
:101AD000CDE90936CDE90B4508F00AFBC02309A979
:101AE0001B480D97CDE90936CDE90B4508F000FB01
:101AF00009A914480D97CDE90986CDE90B4508F0F1
:101B0000F7FA102309A91148CDE909360923CDE9CF
:101B10000B450D9308F0ECFA40462246052107F0EC
:101B20008FFB404607F0BEFB0EB0BDE8F08100BF62
:101B3000001000500044025800040258000C0258E3
:101B4000001002580000025800180258001C0258E9
:101B500000080258026808B5184B9A422CD1184A5E
:101B600040F203311748D2F8E43023F00803C2F8FA
:101B7000E43008F09FFB4921134808F09BFB4BF62B
:101B80000301124808F096FB4FF4AC71104808F0BE
:101B900091FB4FF481410F4808F08CFB48F6187117
:101BA0000D4808F087FB0D48C02108F083FB582042
:101BB000BDE8084007F084BB08BD00BF001000501E
:101BC0000044025800040258000C02580010025849
:101BD0000000025800180258001C02580008025861
:101BE0002DE9F04391B00446142200210BA82EF0F9
:101BF00047FF2368884A934240F0B080874A1368C1
:101C00000133012B13600CD1854BD3F8D42042F45F
:101C10000012C3F8D420D3F8D43003F40013009397
:101C2000009B7F4B022503240927D3F8D4200BA95E
:101C30007C48002642F480424FF00A084FF0040925
:101C4000C3F8D420D3F8D42002F480420192019A40
:101C5000D3F8E02042F04002C3F8E020D3F8E020BF
:101C600002F040020292029AD3F8E02042F0080209
:101C7000C3F8E020D3F8E02002F008020392039AB0
:101C8000D3F8E02042F01002C3F8E020D3F8E020BF
:101C900002F010020492049AD3F8E02042F02002ED
:101CA000C3F8E020D3F8E02002F020020592059A64
:101CB000D3F8E02042F00202C3F8E020D3F8E0308D
:101CC00003F002030693069B4FF40073CDE90B3536
:101CD000CDE90E4708F00CFAB0230BA95248CDF815
:101CE0003C80CDE90B35CDE90D6408F001FA0BA974
:101CF0004E480F97CDE90B95CDE90D6408F0F8F942
:101D000040230BA94748CDF83C80CDE90B35CDE900
:101D10000D6408F0EDF94FF460530BA942480F979A
:101D2000CDE90B35CDE90D6408F0E2F94FF480639D
:101D30000BA93F480F97CDE90B35CDE90D6408F0AD
:101D4000D7F90BA93B48CDF83C80CDE90B95CDE9FF
:101D50000D6408F0CDF911B0BDE8F083364A934226
:101D6000F9D12E4A13680133012B13600CD12C4B8F
:101D7000D3F8D42042F40012C3F8D420D3F8D430DE
:101D800003F400130793079B254B03240225092620
:101D9000D3F8D4200BA92348002742F40022C3F82B
:101DA000D420D3F8D42002F400220892089AD3F861
:101DB000E02042F04002C3F8E020D3F8E02002F037
:101DC00040020992099AD3F8E02042F02002C3F8B9
:101DD000E020D3F8E03003F020030A930A9B40F69A
:101DE0000303CDE90E46CDE90B3508F081F94FF438
:101DF000A0530BA90B480F94CDE90B35CDE90D7419
:101E000008F076F941F21F030BA909480F96CDE9B6
:101E10000B35CDE90D749CE7005000522848002492
:101E20000044025800180258000C025800100258D2
:101E3000001402580004025800A00052274A08B5B6
:101E4000036893422AD1264B1A68013A1A60254B3F
:101E50002AB9D3F8D42022F40012C3F8D420D3F83E
:101E6000D4204FF41071204822F48042C3F8D420CB
:101E700008F020FA43F6B0011C4808F01BFA0421D0
:101E80001B4808F017FA4FF480611A4808F012FA5C
:101E900004211948BDE8084008F00CBA174A9342DB
:101EA0001AD10F4B1A68013A1A600E4B2AB9D3F8AF
:101EB000D42022F40012C3F8D420D3F8D42041F661
:101EC0000341094822F40022C3F8D42008F0F2F9B3
:101ED00041F21F010748DDE708BD00BF0050005276
:101EE000284800240044025800180258000C0258E8
:101EF00000100258001402580004025800A00052BA
:101F000010B5AEB00446B822002168462EF0B8FDE8
:101F10002268104B9A421AD100234FF4800268467F
:101F2000CDE900234FF480732C930AF0AFFC08B185
:101F3000FFF720FC084A03200521136F43F40043F8
:101F40001367002207F07CF9032007F0ABF92EB0ED
:101F500010BD00BF00400058004402581422002168
:101F600010B58AB004460DEB02002EF089FD2368FF
:101F70002F4A93422ED12F4B4FF480412E48D3F855
:101F8000F02042F00102C3F8F020D3F8F02002F074
:101F900001020192019AD3F8E02042F01002C3F846
:101FA000E020D3F8E03003F010030293029B0223F9
:101FB000CDE905130793012305A9099308F098F8C3
:101FC0001B200022052107F03BF91B2007F06AF9CE
:101FD0000AB010BD194A9342FAD1164B05A9184808
:101FE000D3F8E82042F00402C3F8E820D3F8E82050
:101FF00002F004020392039AD3F8E02042F00802B0
:10200000C3F8E0204FF40042D3F8E03003F00803B7
:102010000493049B0223CDE90523099308F068F893
:102020001E200022052107F00BF91E20CEE700BF7D
:10203000000001400044025800100258000800400F
:10204000000C025810B5B6B004461422002103A8B3
:102050002EF016FDB822002108A82EF011FD2268EE
:102060001A4B9A4230D10222002308A8CDE9082356
:102070000AF00CFC08B1FFF77DFB154B03A91548CE
:10208000D3F8E82042F48022C3F8E820D3F8E8200F
:1020900002F480220192019AD3F8E02042F0080273
:1020A000C3F8E0204FF44072D3F8E03003F00803A7
:1020B0000293029B0223CDE903230023CDE90533DC
:1020C0000723079308F014F836B010BD004800400D
:1020D00000440258000C02580F2810B504468AB07C
:1020E00002D901200AB010BD01460022362007F0B7
:1020F000A7F8362007F0D6F8184B694602A81C60EE
:10210000174BD3F8E82042F01002C3F8E820D3F8C8
:10211000E83003F010030193019B0AF09DFA079B3E
:10212000C3B90AF013FA0F4C0F4B236040F2E733A8
:10213000E3600E4BB0FBF3F00138002360602046F3
:102140002361A3600BF086FF0028CAD120460BF064
:1021500023FEC7E70AF0FAF94000E4E7AC000024E8
:10216000004402582C4800240010004040420F0058
:10217000034B1A68D36823F00103D360704700BF94
:102180002C480024034B1A68D36843F00103D36042
:10219000704700BF2C4800247047FEE7FEE7FEE7CB
:1021A000FEE7704701480BF0D6BD00BF7C44002419
:1021B000102008F029B9000001480BF037BE00BF1D
:1021C0003044002401480BF031BE00BFE44300243A
:1021D00001480BF02BBE00BF2C480024014808F03A
:1021E000F7BD00BF58450024014807F065B900BF9E
:1021F000B0460024014807F013BE00BF104600247B
:10220000FFF7F8BF0120704708B52EF043FD1623F5
:1022100003604FF0FF3008BD08B52EF03BFD1623DC
:102220000360FEE770B50D4614460E46731B9C42D4
:1022300001DC204670BDAFF3008006F8010BF5E726
:1022400070B50D4614460E46731B9C4201DC2046B9
:1022500070BD16F8010BFEF771FCF5E74FF0FF308B
:1022600070474FF4005300204B60704701207047C7
:10227000002070470B4A0346116810B509B90A4996
:102280001160106809490A4C0344091B8B4206D9A6
:102290002EF000FD0C2303604FF0FF3010BD1360E3
:1022A000FCE700BF78480024D8AF012400000524D3
:1022B0000010000070B540F21113274C00254FF4B8
:1022C0000002264940F2FF100126A5600D60CE6095
:1022D000C4E900350823C4E903355223C4E90723C0
:1022E00040F2FF73C1E904031D48C4E90555C1E983
:1022F000016607F093FB33461A4A2146184807F057
:1023000045FC3146164807F070FC2A463146144811
:1023100007F038FD2A464FF48021114807F032FDBE
:102320000F4C4FF470210E4807F0B4FB31460C48B7
:1023300007F0C4FB40F65A420021204607F0D2FBCA
:102340000028F7D1064807F0E5FB0028FAD1044839
:10235000BDE8704007F001BCB4480024D848002410
:102360001046002404000024234B002270B51A708C
:10237000CB0705463FD5214C4021214E234621481D
:10238000324607F043FC58B1FFF7F4F9002201216F
:102390001C4807F0F7FC70B3BDE87040FFF7EAB9DE
:1023A000284607F0CAFB326840F2FF139A42EDD18B
:1023B0006278237802F00100134943EA0023C2F354
:1023C000400043EA4023C2F3800043EA8023C2F383
:1023D000C00043EAC023C2F30010C2F3401243EA34
:1023E000003343EA42330A8822F47F5222F03F024C
:1023F00013430B80CAE770BD814800248248002443
:102400008C480024104600247C48002410B50A4C57
:1024100000224FF48021094823780133237007F00C
:10242000B1FC08B1FFF7A6F92378054A1E2B94BF2B
:1024300000230123137010BD81480024104600249E
:1024400080480024014B1868704700BF7C48002476
:102450000549064B0A7806481A704A78054B1A70E7
:1024600000220BF0A2BB00BF184900242E49002413
:102470007C4400242D49002438B5074D0022074C28
:10248000074928460BF091FB002220702846054999
:102490000BF0AEFB207038BD7C44002410490024B2
:1024A000184900241149002410B5084C08486278E6
:1024B00021782EF075F92146002206480BF0BFFA6C
:1024C0000548BDE810402EF0DBB900BFFC480024F1
:1024D000101E03087C440024291E030810B505289B
:1024E00024D8DFE800F003171B2C2431224C2348AA
:1024F0002EF0C6F92146002221480BF056FB217828
:10250000204B62781970204B20481A70BDE81040AB
:102510002EF046B9BDE81040FFF7C6BF1C4A13783D
:102520000133DBB2022B08BF0023137010BD194B1F
:10253000002219481A70BDE810402EF031B9154B31
:10254000012216481A70F6E7114B1B784BB90A4A5C
:10255000182113780133DBB2B3FBF1F001FB103328
:10256000E3E7012BE2D1044A53780133DBB23C2B81
:1025700008BF00235370D9E7FC4800243E1E03081F
:102580007C4400242E4900242D490024541E0308B5
:102590002C490024F84800246E1E0308831E0308FB
:1025A000164B10B41B787BB9154B182219780131E2
:1025B000C9B2B1FBF2F002FB10111248C9B2197096
:1025C0005DF8044B2EF0ECB8012B06D10C4A537881
:1025D0000133DBB23C2B03D053705DF8044B7047E2
:1025E00013781820002101335170DBB2B3FBF0F4F3
:1025F00000FB143304481370E2E700BF2C490024A9
:10260000FC480024951E0308B11E030808B5074BBB
:102610001A78012A06D1FFF7C3FF0548BDE8084034
:102620002EF0BEB800221A7008BD00BFF848002482
:10263000CF1E03081249134A0B780133DBB2042B77
:102640000B7006D900230B7000230F4813702EF077
:1026500017B9013B032BF7D8DFE803F002060A0E97
:1026600001230A481370F2E7022309481370EEE7CA
:10267000032308481370EAE7042307481370E6E7CA
:102680002F49002430490024EC1E0308021F0308D0
:10269000161F03082A1F0308411F0308014B18785F
:1026A000704700BF30490024054B64221B68534328
:1026B00040F6FF72B3FBF2F3024A1360704700BFAB
:1026C0008049002484490024014B00221A7070477D
:1026D0008B4900242DE9F84F9B4C2578012D3ED0E5
:1026E000022D7FD0002D68D1984E1E21984B327854
:1026F0001B88984FDFF884C227F812300132B2FBF2
:10270000F1F001FB1020BCF8002030701344924E11
:102710009BB23288ACF80030013292B21D2A32806E
:1027200083BF37F810004FF0010E8C4D294681BF52
:10273000B3FBF1F11B1A85F800E0ACF800301D2A5C
:10274000874B198039D901F043FE012835D1834BDD
:102750001B78012B31D10022328023702DE0814D76
:102760007F4A2B881288804F934236BFD21A9B1A19
:1027700093B24FF0010228BF9BB23A7040F232325E
:1027800093421CD86FF4CC710B44B3F5CD7F2CBFB2
:1027900002230323754A764E1370337001F018FE3E
:1027A00001280AD13B78012B07D13378714E9A1E4C
:1027B000012A06D8022222703370BDE8F88F002368
:1027C000E8E74FF48051002000F0C6FC00F088FCE0
:1027D000002000F0B9FC2860FFF766FF0223237099
:1027E0000423E9E7634F614E3A783378022ADFF831
:1027F0007091DFF87081DFF888A179D0032A51D079
:10280000012A0FD19AF80020DFF878B19A421EBF52
:10281000594B00221A80BBF80030D8F80020B3F5DD
:10282000967F25D933788AF80030494B1A88B8F852
:102830000030A9F800209A428ABFD21A9B1A93B29C
:1028400040F2323298BF9BB2934278D86FF4CC7288
:102850001344B3F5CD7F74D203252B46444A33701D
:1028600013703D7001F0B4FD0228A6D1002374E777
:10287000B9F80010914203D10023ABF80030D1E742
:10288000013340F211110220ABF8003000F064FC7B
:1028900000F026FC002000F057FCC8F80000FFF70D
:1028A00003FFB8E79AF80020DFF8DCB09A421EBFB9
:1028B000314B00221A8040F6B832BBF80030D8F80D
:1028C00000109342AED8B9F800008842D4D001334A
:1028D00088216420ABF8003000F03EFC00F000FCE2
:1028E000002000F031FCC8F80000FFF7DDFEE2E751
:1028F0009AF80020DFF894B09A421EBF1E4B0022C7
:102900001A8042F22832BBF80030D8F80010934207
:1029100088D8B9F800008842AED0013388214FF43E
:102920009670ABF8003000F017FC00F0D9FB0020E7
:1029300000F00AFCC8F80000FFF7B6FEE1E7012549
:102940008BE702238AE700BF8B490024314900242A
:102950002448002442490024404900243D490024E1
:1029600088490024804900243C490024324900243D
:10297000344900248A490024A04A00243E49002406
:10298000334900243A4900243849002436490024B8
:10299000014B00221A6070479049002410B50A4C80
:1029A000FFF750FD206001F013FDC0B201280AD1ED
:1029B000064922880B88C2F30B0223F47F6323F0BD
:1029C0000F0313430B8010BD8C4900249049002451
:1029D000014B1868704700BF904900240023024A49
:1029E0001370024A13707047A9490024A8490024B3
:1029F000044B1968044B1960044B1A6910461160A6
:102A000001F07ABA944900249C4900240C00002467
:102A1000044B1968044B1960044B5A691046116045
:102A200001F06ABA94490024984900240C0000245B
:102A30000A4B1B783BB90370094B1868094B984245
:102A400028BF184670470123074A0370074B1868D0
:102A5000904282BF013200201A607047A8490024CA
:102A6000A4490024FF90F500FE90F500A049002441
:102A7000034A1378B3FA83F35B091370704700BFFE
:102A8000A84900240A4900220A4808B50BF0B0F80A
:102A9000094B0146187010B108482DF081FE044B17
:102AA000074A997811705A78064B1A7008BD00BF12
:102AB000BE4900247C440024C2490024581F030856
:102AC000BB490024BA4900242DE9F8433148FFF7F7
:102AD000AFFF314A41F28731304C1368C31A8B4241
:102AE0002F4920D9012310600B702E4B18602378DA
:102AF000BBB12D4B2D4D19782D4B1B78994234BF0E
:102B00005B1ACB1ADBB20F2B2B700AD1002310609B
:102B10002370284C2370284B1970284B1978284BA8
:102B20001970BDE8F883274DDFF88CC0AB789CF8AE
:102B30000080DFF874E06E789845204F8EF8003002
:102B40003E701C4B0DD1DFF8789099F80050B542DB
:102B500007D01D7889F8006001351D70144D85F887
:102B600000801D78062D04BF012525700D78002DED
:102B7000BDD00C4D2D68451B632DB8D900251060C4
:102B80001D709EF800300D708CF8003039780C4BB9
:102B90001970ACE7B4490024B0490024BD490024B1
:102BA000BC490024AC490024B9490024B54900249B
:102BB000B6490024B7490024BB490024B849002481
:102BC000BA490024BE490024134B4FF47A721A60AC
:102BD0004FF46162114B1A606422114B1A60052296
:102BE000104B1A704FF4FA720F4B1A6000220F4B01
:102BF0001A603C220E4B1A70C8220E4B1A60322209
:102C00000D4B1A7010220D4B1A7028220C4B1A70A3
:102C10007D220C4B1A607047144A0024104A00248D
:102C20000C4A0024D8490024084A0024044A0024FD
:102C3000004A0024FC490024F1490024F049002402
:102C4000F8490024F449002401482DF019BE00BFC2
:102C5000751F030808B5074A00231370064A13704E
:102C6000FFF7B2FFFFF7F0FF0448BDE808402DF082
:102C700007BE00BF194A0024184A00249C1F0308FD
:102C8000054B1A68C82A05D940F2E73203481A6092
:102C90002DF0F6BD704700BFC8490024BB1F0308D4
:102CA00010B50020002400F0B1FA054A034605499A
:102CB0001060054A4C6010681360181A086010BD57
:102CC000E0490024E8490024DC490024F8B5FFF776
:102CD000E7FF144B4FF47A72134C1B78FA21134D13
:102CE000134F144E3860B0FBF3F323605343B3FB30
:102CF000F1F34FF461612B604B43B3FBF2F33360AC
:102D0000FFF7BEFF39680C482DF04AFD33682A688A
:102D100021680A482DF044FD0A20BDE8F8402DF056
:102D200051BD00BFD8490024D4490024CC49002417
:102D3000D0490024C8490024CA1F0308D31F030830
:102D400008B5FFF7C3FF064B064A1B7812685343CA
:102D5000054A1278B3FBF2F3044A136008BD00BFC2
:102D6000F0490024C8490024F1490024C449002442
:102D7000034B1B780BB9FFF7A9BFFFF7E1BF00BFFB
:102D8000184A002408B501F023FBC0B2022809D17B
:102D90000023064A06481360064A1360BDE808404F
:102DA0002DF06EBDBDE80840FFF7E2BFC849002422
:102DB000EE1F0308C449002410B5044698B90B4B14
:102DC0004FF480610A481A68936943F001039361E4
:102DD000012207F00BFB074801224FF4004107F0E6
:102DE00005FB204610BD6FF00100FBE758450024AD
:102DF000000C02580018025810B5044698B90B4B45
:102E00004FF480611A68936923F0010393610246CD
:102E1000074807F0EBFA074822464FF4004107F055
:102E2000E5FA204610BD6FF00100FBE7584500248D
:102E3000000C02580018025808B50020FFF7DCFF0C
:102E40004FF47A7005F098FB0020FFF7B5FF4FF4C0
:102E50007A70BDE8084005F08FBB0000064B1A6889
:102E6000537843F0400353700122044B1A70002240
:102E7000034B1A60704700BF1C4A00241A4A002402
:102E8000384A002410B50120002400F0BFF90A4B95
:102E90000A4A186013680A49C31A10604C600B6034
:102EA00008490B6008498B4236BF3C214FF0FF3385
:102EB0004B4306490B6010BD304A0024344A0024BD
:102EC000284A0024204A002444444404384A002468
:102ED00008B501F07DFAC0B2022803D1034B0022ED
:102EE0001A6008BDBDE80840FFF7CCBF384A00248F
:102EF0002DE9F34140F20113214C0020ADF80430DC
:102F000004F056FF01A9002005F044F858BB1D4C01
:102F1000002004F0E5FE50BB00F08CFE10B11A4812
:102F20002DF03EFC0025194FDFF8688000F0D6FF39
:102F3000174E002456F8042B2946104600F0DCFFFB
:102F40000146C0B956F8041C224640460B682DF0D5
:102F500027FC0134142CEDD10235B5F5803FE7D1C3
:102F600002B0BDE8F08120462DF01AFCCAE72046E9
:102F70002DF016FCCCE738462DF012FCE9E700BF37
:102F80000820030822200308412003086A200308C0
:102F90000C00002452200308454B2DE9F74F93F80D
:102FA00000C00025434B0120AB462F46B3F80080FC
:102FB000414B1988414B1A78414BB3F800E02B463E
:102FC0001C46B0B90CB13C48018015B13C49A1F890
:102FD00000E0BBF1000F02D0354981F800C00FB10D
:102FE00036490A7013B1374B324A1A6003B0BDE854
:102FF000F08FFF2A14BF13466346022B019318D8A3
:10300000581CC0B2C3005FFA80F91E462E4B33F83D
:1030100030A0C2450DD8B9F1030F2ED02B4B33F899
:1030200006A0C24526D801305FFA80F9B9F1040F35
:10303000E8D1019B013BDBB2022B06D8224800EB12
:10304000C300B0F80290C14522D2FF2A4FF001031D
:10305000B8D071454FF0000035BFC9189B461346E4
:10306000FF2339BF624689B200215F4694461A4663
:103070000123A5E7B9F1040FDBD0134B4A4603EB5C
:10308000C903B3F804E00124002125462746DCE704
:103090003BB130F8069CC14503D3013B0838DBB295
:1030A000CFE7094A02EBC302B2F806E01A46EAE7A4
:1030B000984A0024204800248C4A0024904A002486
:1030C0008E4A0024944A0024C8200308D020030814
:1030D00010B9024B18787047FF207047984A0024B7
:1030E000F0B51348134D01882B88134C994207D132
:1030F000002323800022114B1860114B1A70F0BD81
:10310000104E22883788974202D0531C9BB2F0E7BA
:103110009942728806D85E1AB24201DC9B1A99B2B3
:103120002980E5E7CE1A9642FADB1A4491B2F7E716
:1031300088490024A24A0024A04A00249C4A002472
:10314000994A0024A44A002410B9024B18887047F9
:1031500000207047A24A0024014B18805980704714
:10316000A44A002438B54FF48071144807F038F9A8
:1031700020210546124807F033F908214400114880
:1031800007F02EF9104944EA8504104D0C2264B270
:103190002B782043C8540133FF20DBB22B70013A57
:1031A00011F8014B12F0FF0200EA0400F7D10849C0
:1031B0000B2B087088BF2A7038BD00BF001402585E
:1031C0000018025800100258AA4A0024A94A0024F4
:1031D000A84A0024014B1878704700BFA84A002471
:1031E00008494FF6FF7231F81030934203F10103A2
:1031F00010B508BF044C21F8103002BF225C013228
:10320000225410BDBE4A0024BC4A00240128064AAC
:1032100008D8064B06491B5C31F81010C3EB03437A
:103220000B44136010687047B84A0024BC4A00245D
:10323000BE4A00240368064A934202D10020FFF7E9
:10324000CFBF044A934201D10120F8E7704700BF85
:10325000000001400008004008B50C2104480BF0B4
:10326000ABF918B1BDE80840FEF784BA08BD00BF4D
:103270003044002408B50C2104480BF0F3F818B1D1
:10328000BDE80840FEF776BA08BD00BF3044002410
:103290002DE9F84302260025DFF8E0803446334F5D
:1032A000013CE4B258F8243003B11D78012D31D12E
:1032B0002F4A52F82430591C10D001332D4942F8BE
:1032C0002430062262438818B0F804C063450DD14B
:1032D000294B53F824300BB1042098473D55012465
:1032E000A64201D1BDE8F8832646D9E7408883424B
:1032F00006D1214B53F82430002BEFD00220ECE70D
:103300008A5A9342EAD11C4B53F82430002BE5D063
:103310000020E2E7002DE1D13B5DDFF85490012B66
:1033200011D11448062259F8243002FB04025188B6
:103330008B420CD39288934209D20F4B53F824301E
:103340000BB103209847002349F82430C6E7062232
:103350006243825A9342F6D38B42F4D2064B53F81F
:103360002430002BEFD00120ECE700BFCC4A002432
:10337000C44A0024F0200308E8200308FC200308C6
:10338000014B1870704700BF5D000024014B18709E
:10339000704700BF5C00002410B50A4C01F03EF8F5
:1033A000207001F043F8084B084A1870B0FA80F01A
:1033B00023784009B3FA83F35B091370044B187048
:1033C00010BD00BFE04A0024DF4A0024DE4A00248A
:1033D000DD4A0024034B1B78012B06BF024B1878F3
:1033E000FF207047DC4A00245D000024034B1B785B
:1033F000012B06BF024B1878FF207047DC4A0024DF
:103400005C00002408B5FFF7E5FF0246FFF7EEFF7A
:10341000012A07D111482DF033FA0220FFF75EF898
:10342000002008BD022A04D10D482DF029FA012000
:10343000F4E7012804D10B482DF022FA0520EDE72E
:10344000032804D108482DF0ABF90420E6E7022850
:10345000E6D106482DF0A4F90320DFE70421030894
:103460001C210308332103084C2103086B210308A6
:103470002DE9F041524E534C32782378012A524DB7
:103480001FD1012B0ED1FF2333702370FFF7F0FA09
:103490004E482DF0F5F932782B78022A4BD1012BCA
:1034A00049D109E02B7823B9FFF7C4F848482DF03B
:1034B000E7F92B78012B01D1FFF7A4FFFF2333702D
:1034C00039E0012B1FD12B78ABB9FFF7E7F80328C0
:1034D00006D1FF232370FFF78BFA3E482DF0D0F979
:1034E000FFF7DCF8042806D1FF232370FFF790FADA
:1034F00039482DF0C5F92B78012BCCD1FFF782FF8D
:10350000FF232370C7E7022A20D1022B1ED10020FF
:10351000FEF7E4FF2B78002BBDD1FFF773FF2F4898
:103520002DF0AEF901232B7005F020F82C4B18601C
:10353000FF233370237022782B78022A27D1012BA6
:103540003CD1FFF75FFFFF23237022E02B78012B94
:10355000A1D1244B1F78244B1B781F439BD105F02E
:1035600005F8224BDFF88C8018601D4B1B68C01AD1
:1035700043F697239842C8F800008CD91C482DF0D8
:103580007FF9FEF791FF2F70C8F8007083E7032AD8
:10359000D5D02B78012B11D133780BB123786BB9AF
:1035A000144B00221A6004F0E1FF104B186004F085
:1035B000DDFF0B4B1860FF2333702370BDE8F081F3
:1035C0005D0000245C000024DC4A002487210308FD
:1035D0000A210308B8210308DA210308FC210308A3
:1035E000D44A0024DE4A0024DD4A0024D04A0024C4
:1035F0002C220308D84A00242DE9F041202290B063
:10360000054600210DEB020008AE6C4605F12007CF
:103610002DF036FA2022002168462DF031FA0822DA
:103620003146284600F087FC034600283FD1B046CB
:10363000D4E900C018F8011BA3F12002C3F1200E49
:1036400001FA02F221FA0EFE9940083342EA0E0214
:1036500041EA0C0C402B40EA0200EBD10835083659
:10366000BD42C4E900C004F10804D8D1DDE9062355
:10367000B3F1FF3F08BFB2F1FF3F1AD1DDE90423E8
:10368000B3F1FF3F08BFB2F1FF3F14D1DDE90223E0
:10369000B3F1FF3F08BFB2F1FF3F0ED1DDE90003F8
:1036A0001840013018BF012010B0BDE8F0810120A2
:1036B000FAE70420F8E70320F6E70220F4E7000029
:1036C00010B50A4688B0194904466B46086849682F
:1036D00003C303C303C303C304F57F53511E303335
:1036E000180303290CD8DFE801F0020E131D08228D
:1036F000694600F01BFC08B1022002E00C4B1C7074
:10370000002008B010BD08220DEB02011044F0E7C4
:10371000082204A9103000F009FC003818BF01206D
:103720004000EEE7082206A91830F4E74722030814
:10373000E14A00240A4808B5FFF75EFF04280BD0D1
:103740000848FFF759FF042808D1064800F0F8FBA5
:10375000003818BF012008BD0148F7E70520FAE747
:103760000000FF030010FF032DE9F341002407468A
:103770000E464FF01108CDE90044B44203D3404651
:1037800002B0BDE8F08169460822E01900F0D3FBE1
:103790000023EE46184619461EF8015BA3F12002ED
:1037A000C3F1200C05FA02F225FA0CFC9D40083307
:1037B00042EA0C022843402B41EA0201ECD1B1F16C
:1037C000FF3F08BFB0F1FF3F04F1080418BF4FF0FE
:1037D0001008A4B2D1E7000008B560B14FF48051E1
:1037E0001548FFF7C1FF10280FD1134800F0A8FBC0
:1037F00058B1012008BD104800F0A2FB0028F8D104
:103800000E4800F09DFB38B1F3E74FF480510B48B0
:10381000FFF7AAFF1028F3D002210020FFF750FF86
:1038200008B10220E6E7064B20221880054B1870ED
:10383000054B1A60DEE700BF0000FF030010FF0326
:10384000E24A0024E14A0024600000242C4B2DE9C8
:10385000F0411C7843F6F0780746651C04EB08003D
:1038600005F001050003FFF7C7FE064605EB08005B
:103870000003FFF7C1FE012F07D0022F3DD08FB903
:10388000022E11D0012E0DD11FE0022E1FD11D4E90
:1038900040F6F57332689A4206D9042807D1FFF73B
:1038A00049FF20B14FF0FF342046BDE8F0810321ED
:1038B0002046FFF705FF0028F4D102212846FFF734
:1038C000FFFE0028EED1202333602C46ECE7012ECA
:1038D000E8D10C4E3368B3F5805FE5D3042807D0F8
:1038E00003212046FFF7ECFE0028DBD10121E5E7AC
:1038F000FFF720FF0028F3D0D4E70028E5D0D1E778
:10390000E14A0024600000242DE9F043054685B01B
:1039100000200E46CDE90100ADF80C00FFF796FF40
:10392000B0F1FF3F80463FD000F57F54214F303447
:1039300024032046FFF760FE831EDBB2022B01D971
:1039400007202BE0D7F80090B9F11F0F0BD808F132
:10395000010808F0010808F57F543034240320469C
:10396000FFF74AFEE8E70A2201A904EB090000F08C
:10397000E2FA019B5A1C14D01BBA9D4211D10022BD
:10398000042102A8029C00F059FDBDF80C305BBA7E
:103990009BB283420AD124BA0020346005B0BDE84E
:1039A000F083A9F10A09CFE70320F7E74FF481700C
:1039B000F4E700BF60000024F0B51B4F85B0064659
:1039C0000D463B88B3F5CB7F2BD20120FFF73EFF9E
:1039D000431C044621D0002236BA2DBA042102A885
:1039E000ADF80C200196029500F028FD40BA0A229D
:1039F00001A9ADF80C0004F57F500C4C3030236861
:103A000003EB003000F092FA48B923680A332360D0
:103A10003B8801333B8005B0F0BD0320FBE701206C
:103A2000F9E71220F7E700BFE24A00246000002413
:103A30002DE9F04FB2F1000987B04FF000050746BD
:103A40000CBF0220012001910495ADF81450CDE97E
:103A50000255FFF7FBFE431C044600F0C980664E8A
:103A60002023DFF8A0A13580644DCAF8003028700B
:103A7000B9F1000F10D0013404F0010404F57F50B7
:103A800030300003FFF7B8FD02280ED10421204694
:103A9000FFF716FE58B104E00121FFF711FE0028E0
:103AA000E9D0022007B0BDE8F08F04283CD184F0B3
:103AB000010443F6F07B04EB0B000003FFF79CFDD1
:103AC000C31EDBB2012B23D9B9F1010F31D001990B
:103AD0003846FFF771FF0028E3D1494C2068B8420F
:103AE0000AD002A9FFF710FF00287ED102992068B2
:103AF000FFF762FF0028D5D102212878FFF7E0FD0B
:103B00000028CED1FFF716FE002818BF0520C9E710
:103B1000032802D084F00104CDE704212046FFF7FA
:103B2000CFFD0028F6D0BCE7B9F1010F62D1032820
:103B300060D14FF00009202443F6F078CB46287876
:103B40000A2203A9404404EB003000F0F4F90DF11F
:103B50000C0C00221CF8010BA2F12001C2F1200E76
:103B600000FA01F120FA0EFE9040083241EA0E01FF
:103B700040EA0909402A41EA0B0BEBD1BBF1FF3FB8
:103B800008BFB9F1FF3FBDF8141010D04FF6FF7217
:103B900091420CD032880A3401323280DAF80020A7
:103BA0000A32CAF8002041F206029442C7D12C78AA
:103BB00043F6F079013404F0010404EB090000033A
:103BC000FFF71AFD032882D184F0010433884C44A6
:103BD00003F5CB7320033380FFF70EFD032802BFEC
:103BE000338803F5CB73338071E7072884D059E716
:103BF000042057E70A2055E7E24A0024E14A00245E
:103C00000C0000246000002438B504460D46FFF780
:103C1000D3FE122806D1294620460022BDE83840AE
:103C2000FFF706BF38BD431E033301D8FFF7ECBFD3
:103C3000082070472DE9F043054685B07D48FFF721
:103C4000DBFC431EDBB2012B42D9C31E00265C42C3
:103C50005C417948FFF7D0FC431EDBB2012B55D9FC
:103C6000032838D1C4F10104002E4DD07148FFF76C
:103C7000C3FC01284CD07048FFF7BEFC0128044665
:103C800004D16C48FFF7B8FC002847D06948FFF71B
:103C9000B3FC022854D16848FFF7AEFC002851D18C
:103CA000664B012418706448FFF7A6FC02284DD02B
:103CB000032808BF0126002C53D1701C5F4B022142
:103CC00000F001001870FFF7FBFC002849D017E056
:103CD00000240126BDE7CEB964B33446013404F0B4
:103CE000010404F57F5430342003FFF785FC0428D9
:103CF000BCD1701C01210840FFF7E2FC0028B5D0C0
:103D0000022005B0BDE8F0830126E7E70026ADE715
:103D10004948FFF771FC04460028ACD10021474B0D
:103D2000012208461C70FFF783FEB0F5807FADD0FE
:103D30000C20E6E7204605B0BDE8F043FFF74CBD98
:103D4000032801D00024AEE70026FBE73948FFF73F
:103D500053FC0028AFD10CB10A20D2E7374B012227
:103D60001A70374E0027DFF8DC902024DFF8CC8073
:103D70003780C9F8004098F800000A2201A9ADF880
:103D80000C7000F57F50303004EB0030CDE9017746
:103D900000F0D1F80199029B0131BDF80C2012D03E
:103DA000013310D04FF6FF739A420CD033880A3497
:103DB00001333380D9F800300A33C9F8003041F2BA
:103DC00006039C42D7D198F800707C1C012F04F0A8
:103DD000010404F57F5000F130004FEA003008D9AB
:103DE000FFF70AFC0328B7D13388274603F5CB73C6
:103DF000338098F8004043F6F078013404F0010471
:103E000004EB0806BC424FEA063601D1002078E7F1
:103E100045B9304600F094F810B984F00104EFE79A
:103E200001206EE74FF480513046FFF79DFC1028CB
:103E3000F3D1EEE70000FF030010FF03E14A002486
:103E4000E24A00246000002470B5002086B0019092
:103E5000ADF814000290CDE90300FFF7F7FC431C16
:103E600035D000F57F50303004032046FFF7C4FB07
:103E7000022802D0002006B070BD2025164E0A226E
:103E800003A9601900F057F8039B1BBA0193019B2B
:103E9000013316D0049B0022042104A81BBA02930C
:103EA00000F0CCFABDF81420034652BA92B2904208
:103EB0000FD1019A3046029911600299019A2CF0B3
:103EC0006FFC0A3541F206039D42D8D1D2E70320A8
:103ED000D1E74FF48170CEE75022030808B5502295
:103EE000034904482CF003FFBDE80840FFF7ACBFCE
:103EF000782003083C4A002470B50C461168064639
:103F00001546A14201D1002070BD224606482CF082
:103F100047FC21463046FFF786FE08B92C60F2E7E1
:103F20004FF6FB70F0E700BF7D2203081346024600
:103F3000002003F04DBE13460246002003F028BEC9
:103F400000220146104603F09BBE000038B5002455
:103F5000044DE3B2013455F8233003B938BD984716
:103F6000F7E700BFCC22030838B50024044DE3B2C4
:103F7000013455F8233003B938BD9847F7E700BF3F
:103F8000C422030838B50024044DE3B2013455F8C7
:103F9000233003B938BD9847F7E700BFBC220308B8
:103FA00038B50024044DE3B2013455F8233003B989
:103FB00038BD9847F7E700BFB422030838B500249E
:103FC000044DE3B2013455F8233003B938BD9847A6
:103FD000F7E700BFAC22030838B50024044DE3B274
:103FE000013455F8233003B938BD9847F7E700BFCF
:103FF000A422030838B50024044DE3B2013455F877
:10400000233003B938BD9847F7E700BF9C22030867
:1040100008B50020FFF75CF8431E5842584108BD20
:1040200008B50020FFF754F8831E5842584108BDD8
:1040300008B50020FFF74CF8C31E5842584108BD90
:1040400008B50020FFF744F8B0FA80F0400908BD39
:1040500038B500200024074DFFF73AF8014606481E
:104060002CF09EFBE3B2013455F8233003B938BD80
:104070009847F7E7D4220308912203087047704756
:1040800070477047704770477047704738B50024D5
:10409000044DE3B2013455F8233003B938BD9847D5
:1040A000F7E700BF7823030838B50024044DE3B2D6
:1040B000013455F8233003B938BD9847F7E700BFFE
:1040C0007023030838B50024044DE3B2013455F8D9
:1040D000233003B938BD9847F7E700BF68230308CA
:1040E00038B50024044DE3B2013455F8233003B948
:1040F00038BD9847F7E700BF6023030838B50024B0
:10410000044DE3B2013455F8233003B938BD984764
:10411000F7E700BF5823030838B50024044DE3B285
:10412000013455F8233003B938BD9847F7E700BF8D
:104130005023030838B50024044DE3B2013455F888
:10414000233003B938BD9847F7E700BF4823030879
:1041500008B500F03DF9431E5842584108BD000023
:1041600008B500F035F9022805D1044B1888031F63
:104170005842584108BD0020FCE700BF64000024FD
:1041800008B500F025F9022806D1044B1888A0F1E3
:1041900008035842584108BD0020FCE76400002491
:1041A00008B500F015F9022806D1044B1888A0F1D3
:1041B00010035842584108BD0020FCE76400002469
:1041C000014B1888704700BF64000024102802D1FA
:1041D000034B188003E00828FAD00428F8D0704771
:1041E0006400002470470000042008B5FFF7EEFFCC
:1041F0000248BDE808402CF043BB00BFE0230308A1
:1042000008B50D4809F06EFD002249F640410A4804
:1042100009F00CFD08B1FDF7ADFAFDF7A9FF07F0B5
:10422000EBFC064806F0A0FD0121084607F0BEFCA5
:10423000014809F057FDFEE77C440024584500245E
:1042400008B5FFF7BDFF0428094A08D1138841F6D5
:10425000641101339BB28B4203D0138008BD00234D
:10426000FBE7002310201380BDE80840FFF7AEBF36
:10427000E44A0024704770470820FFF7A7BF0000FA
:1042800008B5134BD3F8D020D1001BD4D3F8D020DD
:10429000520117D40F4A526AD00705D50E4808219B
:1042A00006F0A9F8062008BDD3F8D02091020BD45F
:1042B000D3F8D020520209D4D3F8D000C0F3C050B4
:1042C0008000F0E70320EEE70120ECE70520EAE7B5
:1042D00000440258004802580008025810B5FFF781
:1042E000CFFF044606281BD8DFE800F004121A109E
:1042F000141618000B482CF0C3FA0B4A2046D2F8CB
:10430000D03043F48033C2F8D03010BD0748F2E714
:104310000748F0E70748EEE70748ECE70748EAE711
:104320000748E8E7F5230308004402580A24030875
:104330002224030841240308732403088C2403085F
:10434000AF24030838B50024044DE3B2013455F816
:10435000233003B938BD9847F7E700BFDC240308D2
:1043600038B50024044DE3B2013455F8233003B9C5
:1043700038BD9847F7E700BFD424030838B50024B8
:10438000044DE3B2013455F8233003B938BD9847E2
:10439000F7E700BFCC24030838B50024044DE3B28E
:1043A000013455F8233003B938BD9847F7E700BF0B
:1043B000C424030808B5FEF70DFF6FEA900000F073
:1043C000010008BD08B5FEF705FFC0F3800008BD79
:1043D000002000F04DB8000008B505482CF050FA58
:1043E000FEF748FFFEF784FDBDE80840FDF77EB903
:1043F0002025030808B503482CF042FABDE8084020
:10440000FEF72ABF442503087047704708B5FEF73A
:10441000E1FE014B187008BDE64A0024024B1878F3
:1044200000F00100704700BFE64A0024024B1878F4
:10443000C0F34000704700BFE64A00240346014431
:10444000104670B541F221058B4200D170BD13F8C2
:10445000012B082480EA022006B24200002E90B20E
:1044600004F1FF32B8BF684012F0FF04F4D1EBE76B
:10447000014B33F810007047E84A0024034B022236
:104480001A805A8004229A80704700BFE84A0024AC
:104490002DE9F84F184E0025DFF860804FF00C0929
:1044A00058F8357036F802BB0FB34FF0000A05E03C
:1044B000A368E3B198471AE00AF1010A5FFA8AF3A8
:1044C00009FB03F3FC18FB5A8BB113EA0B0FF3D073
:1044D00063885B45ECD06368002BEDD098470028DB
:1044E000EAD0A36803B19847638826F8023C0135F7
:1044F000032DD5D1BDE8F88FE84A002470250308C4
:1045000070470000DFF834D003F0A0FF002103E083
:104510000B4B5B58435004310A480B4B42189A42EC
:10452000F6D30A4A02E0002342F8043B084B9A42C1
:10453000F9D32CF0B5FBFCF797FB7047000005247E
:104540005C73030800000024740100247801002437
:10455000D8AF0124FEE7704708B501F0F7F8BDE8D1
:10456000084001F07BB801F0F3B840687047416043
:10457000704700004FF0E022D2F8FC3D43F080731A
:10458000C2F8FC3D054B064AD3F8B01F0A43C3F8F6
:10459000B02F1A6842F001021A607047001000E064
:1045A00055CEACC5521A02EB5302B2FBF3F0704782
:1045B000014B5868704700BF001000E0704710B50D
:1045C00004460C212BF0B1FB204610BD036810B54A
:1045D0001B69044631B19847A26863689B1A03447B
:1045E000636010BD9847A060FBE770471FB50823C4
:1045F00000206946CDE90230054B1B880093054B2E
:104600001B88019303F040FE05B05DF804FB00BF7A
:10461000BAA30124BCA3012410B5044604212BF045
:1046200084FB204610BD30B585B000200D461446F1
:1046300001A90390CDE9010003F0A8FE40B14FF0BD
:10464000500383F31188BFF36F8FBFF34F8FFEE7E3
:10465000019820B1029B01202B60039B236005B0D1
:1046600030BD0000032825D8DFE800F0020B131C42
:10467000114B012111481A68B2FA82F2520905F071
:10468000B5BE0D4B08210E485A68B2FA82F25209A3
:10469000F5E7094B4FF480419A68B2FA82F2520969
:1046A0000848ECE7044B4FF40041DA68B2FA82F2B2
:1046B0005209F5E7704700BFF04A00240000025895
:1046C0000018025800040258032825D8DFE800F03B
:1046D000020B131C114B012111481A68003A18BF34
:1046E000012205F083BE0D4B08210E485A68003A9E
:1046F00018BF0122F5E7094B4FF480419A68003A50
:1047000018BF01220848ECE7044B4FF40041DA6877
:10471000003A18BF0122F5E7704700BFF04A0024B5
:10472000000002580018025800040258032811D84B
:10473000DFE800F00206090D0121074805F05BBE25
:1047400008210648FAE74FF480410548F6E74FF4A0
:104750000041FAE7704700BF0000025800180258F5
:104760000004025808B5032815D8DFE800F0020A53
:104770000D110121094805F033FE431E58425841EE
:1047800008BD08210648F6E74FF480410548F2E7E6
:104790004FF40041FAE70020EFE700BF00000258A5
:1047A000001802580004025870B5084D0024012674
:1047B000E0B2FFF7D7FF18B12B68012B18BF2E60AE
:1047C00001340435052CF3D170BD00BFF04A00243C
:1047D000012380F8781080F8793070470020704706
:1047E00041640039024B18BF01211970704700BFA6
:1047F000BFA3012400207047836B0BB10846184704
:1048000070474FF6FF707047406803689B69184710
:104810007047000038B5044601F0C6F80749236820
:1048200004F17C052046D3F88C3098472846FFF7E2
:10483000A1FE0123256184F8703038BD00000070AE
:1048400008B503680446D3F88030984723682046AB
:104850009B6F984700F02CF9236820461B6F984700
:1048600001224FF48061084805F0C0FD01224FF499
:104870000041064805F0BAFD00F01AF92368204609
:104880001B6F9847F8E700BF000C02580018025849
:1048900010B504461AF0BCFD23682046D3F8AC30AE
:1048A000BDE81040184701F04BB801F04FB80000C8
:1048B00070B501F0A3F810490023C1F88430BFF3AC
:1048C0004F8FD1F8803043F6E074C3F3C900C3F3CF
:1048D0004E335B0103EA0406024646EA8275013A5A
:1048E000C1F87452F9D2203B13F1200FF2D1BFF37B
:1048F0004F8FBFF36F8F70BD00ED00E000F0FCBF85
:1049000001F0E6B901F0EEB901F000B819F0ECBF22
:1049100010B5044688212BF008FA204610BD00008F
:1049200090F834100D4B10B590F878401A788C42FE
:1049300009D03AB90A490B4A088814881080012224
:104940000C801A7010BD002AFCD0064A0449148855
:1049500008880C8010800022F3E700BFB8A3012470
:10496000B6A30124B4A3012470B50D46194635B988
:10497000094B40F2D221094A09482BF04DFDC0E90C
:104980000F52003A074B18BF01221A700368BDE8A6
:104990007040D3F88C301847C4250308FC25030861
:1049A0004A260308BEA3012408B5094B1B888B4285
:1049B00003D8084B1B88934205D9074B9E21074A11
:1049C00007482BF029FD074B1980074B1A8008BDBB
:1049D000B4A30124B6A301248F260308F2260308FA
:1049E0004A260308BAA30124BCA30124034690F875
:1049F0007A0018B1586803681B68184770470000B0
:104A0000014608B5034B186801B101211AF01AFDDF
:104A1000012008BDC0A301240121002208B50846D9
:104A20000AF04AFB0A4B186028B90A4B28210A4AA7
:104A30000A482BF0F1FC0022042101200AF0DBFBE4
:104A4000074B186018B9074B2C21034AF0E708BD43
:104A5000044B002410280308592803088828030859
:104A6000004B0024ED280308024B4FF0FF3118687B
:104A70000AF06CBB044B0024014B18680AF092BB8F
:104A8000044B0024024B002118680AF05FBB00BFF2
:104A9000044B0024FFF7F0BF0023034803491A46E4
:104AA00000680AF0E3BB00BF004B0024680000244C
:104AB00013B50023074C01A91A4620680AF007FC29
:104AC0004FF0FF33002201A920680AF000FC02B079
:104AD00010BD00BF004B002403685B6C1847012029
:104AE000704703689B6A184740F2EF307047000038
:104AF000054B4FF080620360044BC3F88820BFF37E
:104B00004F8FBFF36F8F7047A42A030800E100E0C6
:104B100010B504464FF45A61FFF7EAFF20462BF028
:104B200004F9204610BD00000F4B82B0D3F8D4200A
:104B300042F01002C3F8D420D3F8D42002F01002BF
:104B40000192019ADA6F42F01002DA67DA6F22F00E
:104B50001002DA67054B064A1A62064B4FF0806274
:104B60009A6002B0704700BF00440258B04600246B
:104B7000BD4D000800E100E008B50A2809D8DFE8CB
:104B800000F006100E08080808101010100002208F
:104B900008BD054B8621054A05482BF03DFC002049
:104BA000F6E70120F4E700BF2F2903084A2903088C
:104BB0009529030838B50C46887FFFF7DDFF124BB7
:104BC000A58AE28A586342EA054221695A64628BE7
:104BD000D963521B1A642568082D0ED19A611A6197
:104BE00058620A4A207F42EA0062DA61E2681A6289
:104BF000074A5961D9601A6038BD0022D8611A612C
:104C0000E2689A63034AF6E70010005209000100C7
:104C1000010202000102030008B50B280BD8DFE8EF
:104C200000F00612100A0A0A0A08080808080220FA
:104C300008BD0520FCE7054B6521054A05482BF01A
:104C4000EBFB0020F4E70120F2E700BF2F29030867
:104C5000F8290308952903082DE9F8434F7F894671
:104C60003846FFF7D9FF99F81E5080462846FFF7CF
:104C7000D3FF06462846FFF77FFFB9F81410B9F8AE
:104C80001A40B9F81820454B641A521A1C649C61EA
:104C90001A61B9F81620586342EA0142D9F8101097
:104CA0005A64D9F80420D963DA60D9F8004099F839
:104CB0001C20802C22D00FD8202C66D0402C64D011
:104CC000042C5CD048EA0260344BAF4240F4003020
:104CD000D86160D0324A3FE0B4F5807F04D0B4F5AB
:104CE000007FEFD12F4800E02F4840EA0262DA61EE
:104CF000D9F80C201A625E6259612CE048EA026021
:104D0000D9F8084040F40030D8615E625961211D35
:104D1000D962217841B1012921D0244B4FF480710F
:104D2000234A24482BF078FBDA69618822F47F4219
:104D3000013922F0100242EA0122DA610122174B06
:104D4000D96941F02001D961D9698906FCD41021C3
:104D50009960002ABED0184A1A60BDE8F883D96964
:104D6000FF3A608821F47F4118BF0122013821F009
:104D7000100141EA002141F01001D961DFE748EA62
:104D8000026242F40032DA61B5E748EA0262034B9C
:104D900042F40032F7E740F20122DDE70010005252
:104DA00001020100090002000A000200422A030871
:104DB0005C2A03089529030801020200024B1B68C4
:104DC000586803685B691847C0A3012470B504469E
:104DD0000A4B0C30002625466022606026726672FF
:104DE00045F8203B29461AF083FC04F55A63EE602F
:104DF00024359D42FBD1204670BD00BFA42A030884
:104E0000034B1A68D207FCD423229A60704700BF74
:104E10000010005230B5104C2568ED07FCD4232556
:104E20000904FF2BA5604FF0010541EA0501656308
:104E30006164E0630CD0094922F07F42656241EA77
:104E40000363E361064B22626061E060236030BD72
:104E5000E561044BA263F9E700100052090001006C
:104E600001000200010003004069704790F844000F
:104E70007047036B23B9C06A003818BF0120704720
:104E80000120704780687047043010B50C460FC889
:104E900084E80F0010BD704708B5034A40F21221A4
:104EA000024B03482BF0B8FAEC2A03088F4503089D
:104EB000472B030810B5044648212AF036FF204648
:104EC00010BD2DE9F0411E46ADF51E7D436B074632
:104ED0000C469046A69D93B3002203A8CDE901326B
:104EE00012F04EFA4FF4F4725021249024A80CF0E2
:104EF00014FA4246214624A80DF068F9012124A89D
:104F00000CF006FB022324A88DF8D8300CF0A1FB8E
:104F1000419BBDF89482BDF89022984528BF9846E1
:104F20002B9B9A4228BF1A4602EB4204479B9845A6
:104F300009D824A80CF00EFB24A80CF03BFA0DF5C0
:104F40001E7DBDE8F081012201A924A80CF0CAFB56
:104F500030462246796B2E442BF0C9FEE6E700006E
:104F60000A4A02600022C0E90522C0E90722C0E91E
:104F70000922C0E90B22C0E90D12C0E90F2280F816
:104F80004420C0E90322C0E901227047402E0308F3
:104F900010B40C4611461A46036B3BB1036C806B90
:104FA000E41A20445DF8044B2BF072BDC06AF8E7A8
:104FB000036B10B573B1036C826BC91A5318525C42
:104FC00098785C780004DB7840EA0420104340EADB
:104FD000036010BDC36A5858FBE7036B43B1036C11
:104FE000C91A836B5A18585C527840EA02207047FD
:104FF000C36A585A7047000070B50446006B0D46EE
:105000001646D8B1E36B934208D209230D4A6521B5
:105010000D4884F844300D4B2BF0FEF90368DB6833
:105020009847206B3246A16B03681B69984710B9FB
:105030000D2384F84430A06B256470BDE06A0844F9
:10504000FBE700BFC92B0308472B0308B62B030857
:105050002DE9F843436904462BB9234BAA21234A7F
:1050600023482BF0D9F908228169FFF7C5FFA16910
:1050700043F2300646F2643704312046FFF798FFCA
:10508000A3691844A36A00F108029A4206D30123D7
:1050900000206361236AA361BDE8F8836369093076
:1050A0000822013320F0010120466361A161FFF76E
:1050B000A3FFD4F8189020464946FFF78EFF09F168
:1050C000020180462046FFF788FF09F104010546EA
:1050D0002046FFF76DFFB045D2D1BD42D0D10028A8
:1050E000CED00120D8E700BF0B2C0308542C0308B6
:1050F000472B03082DE9F04F0546ADF51F7D8B4684
:105100009046816908221F46FFF776FFAE69284660
:10511000311DFFF74DFF06F10801024604462846FF
:10512000FFF76AFF6B6B064633B9344B40F2AB11A5
:10513000334A34482BF070F9002203A8CDE901323C
:1051400012F01EF94FF4F4725021249024A80CF0B0
:10515000E4F82246314624A80DF038F8012124A8AD
:105160000CF0D6F9022324A88DF8D8300CF071FA8F
:10517000BBF902A0479B53452DD3BBF8063007EB84
:105180004707BBF80260BBF900401E44BBF804208F
:10519000419B04EB440936B2224407FB0A9A9E4223
:1051A00012B2D04428BF1E462B9B9A4294BFC4EB38
:1051B0000204C4EB030404EB4404479BB34210D342
:1051C00024A80CF0C7F924A80CF0F4F801200DF580
:1051D0001F7DBDE8F08F012201A924A80CF082FAFE
:1051E000C8E7012201A924A80CF07CFA696B4046AB
:1051F00022464944B8442BF07AFDDEE7872C0308A9
:10520000DD2C0308472B03080129036838BF01215F
:10521000DB6A70B50D4604469847A84204D223685D
:105220002046DB6A984705466B1EE6691022204639
:1052300006EB031606F10801FFF7DEFE06F110018A
:105240002046FFF7B5FE236A043B0344C4E9055337
:1052500070BD0000002148222DE9F0410446816123
:1052600080F84410FFF7C8FEA6690423624A31465D
:105270002046FFF78DFE40B10323604AF22184F8F7
:1052800044305F4B5F482BF0C7F806F10801042358
:105290005D4A2046A161FFF77BFE30B10423574AE7
:1052A000FA2184F84430594BECE706F10C01042351
:1052B000574A2046A161FFF76BFE074638B1052328
:1052C0004E4A40F2011184F84430524BDAE706F1BD
:1052D00010012046FFF76CFE054620B94E4B40F208
:1052E0000711464ACEE706F1140804234B4A20462C
:1052F0004146FFF74DFE002849D0062384F844308C
:105300000423474A06F118012046FFF741FE002812
:105310003FD0072384F844304544424F0C222046B6
:105320002946FFF769FE05F1080604233A462046A0
:105330003146FFF72DFE94F84430002848D0002B6A
:1053400048D1A36AAB4249D805F10C030435204685
:10535000A3612946FFF72CFE3044294660622046AF
:10536000FFF726FE0644042220463146FFF744FE9E
:1053700004232D4A31462046FFF70AFE002838D183
:105380000123E6616361A3692362BDE8F08101271F
:10539000B6E7002FC0D006F120012046FFF708FE37
:1053A0004FF47A7306F13001B0FBF3F060602046F1
:1053B000FFF7FEFD06F14001A0602046FFF7F8FD73
:1053C00006F14401E0602046FFF7F2FD2061A3E70B
:1053D000002BB9D00A2384F84430D6E7291D204693
:1053E000FFF7E6FD85190C2220462946FFF704FE4B
:1053F00099E70B23EFE700BF372D0308552D03086E
:105400003C2D0308472B0308822D0308872D030832
:105410009F2D0308A42D0308BA2D0308C62D0308E9
:10542000CB2D0308D02D0308D52D0308C0E90A2190
:1054300000220263FFF70EBF10B5002304460846A2
:10544000E3620B6821639B689847A0622046BDE831
:105450001040FFF7FFBEF0B4069FBDF81050BDF836
:10546000146032B12BB10495CDE90567F0BCFFF7AC
:1054700028BDF0BC704700002DE9F04F9946436904
:1054800085B004460F4690462BB9294B7721294A0F
:1054900029482AF0C1FF08228169FFF7ADFDA669FE
:1054A00020463146FFF799FDB11C83462046FFF7A1
:1054B00094FD311D82462046FFF77AFD06F1080172
:1054C000A36A054642189A4226D243F230039B450E
:1054D00017D146F264339A4513D190B10246A161C7
:1054E0002046FFF789FD0E9B01462A462046CDF84F
:1054F0000080CDE901933B46FFF7ADFF63690133BF
:105500006361A3692B4405B908330133626A23F050
:1055100001039342A36109D1012301206361236A3E
:10552000A36180F0010005B0BDE8F08F0020F8E72E
:105530000B2C0308DA2D0308472B030801207047C2
:105540000C2070470C2303FB0100083070470C232C
:1055500003FB01000830704701207047C4207047EA
:10556000C42303FB010008307047C42303FB010080
:1055700008307047012070471020704700EB011081
:105580000830704700EB011008307047084600F003
:10559000DBBE0000034B10B50446036018F0FAFEB2
:1055A000204610BDE82E030810B50446FFF7F2FFB1
:1055B000142120462AF0B9FB204610BD034B10B53C
:1055C0000446036018F0E6FE204610BDB42E030822
:1055D00010B50446FFF7F2FFCC2120462AF0A5FBC8
:1055E000204610BD034B10B50446036018F0D2FEF0
:1055F000204610BD802E030810B50446FFF7F2FFC9
:10560000182120462AF091FB204610BD084B10B50A
:10561000044640F8F83BFFF7BDFF04F12C00FFF70C
:10562000CDFF04F11400FFF7DDFF204610BD00BFE1
:105630001C2F030808B50248FFF7E8FF08BD00BFAC
:10564000C059002410B50446FFF7E0FF4FF41C7169
:1056500020462AF06AFB204610BD00002DE9F341E8
:1056600000F0FAFC0024054600F0FAFC234601464F
:1056700022462846009420F09BFB274B274A2046D1
:10568000274D1A6001F090F8264B274A27489A6068
:1056900020F046FA2B68BFF35B8FDB0735D4284632
:1056A0002AF045FB88B3224C224B04F58A7604F19C
:1056B000140004F12C0804F1F80723606060C4F8BA
:1056C0000880E760266118F067FE1B4B4046636167
:1056D00018F062FE194B3846E36218F05DFE184B75
:1056E00004F58670C4F8F83001F0D4F8224604F5C9
:1056F0008671304601F0C4F8304600F025FE1148AE
:105700002AF0A8FE28462AF01EFB0F4802B0BDE88A
:10571000F041FFF77FB800BF24A40124904B002480
:10572000BC590024B04B0024944B00246C0000248E
:10573000C05900241C2F0308802E0308B42E030830
:10574000E82E030835560008084B00247047000077
:105750000148FFF775B800BF084B002470B5274E0D
:10576000274B284C3046284D2360FFF72FFB284657
:1057700023F0CCFB25481EF009FC254B00224FF4FA
:10578000807124481A8683F858205A6683F870205E
:10579000DC60C3E912122049C3E91A121F490B60E9
:1057A0004FF4F07101801E4801804FF488711D484C
:1057B00001801D4801801D49C3E90422C3E9062276
:1057C000C3E90822C3E90A22C3E90E22C3E9102271
:1057D000C3E91422C3E91722C3E901650A70144919
:1057E000C3F8802083F8342019605A671149C3F840
:1057F0008420114A9967DA6770BD00BF184C0024F5
:10580000B4250308B8590024B04B0024944B00245D
:10581000084B0024B4A3012401000001C0A301240B
:10582000BAA30124B6A30124BCA30124B8A3012474
:1058300040270308000001018C2503080148FFF7F9
:1058400057B900BF184C0024002070478180704772
:10585000C180704701817047418170477047704730
:1058600070477047704710B4C4880368121B84885F
:105870005B6D091B12B25DF8044B09B218474FF675
:10588000FF7383814FF0FF3303621368C3611060BD
:105890007047002070478B888380012070477047D5
:1058A00080F82610704790F826007047002210B547
:1058B000B1F90840B1F90A10028042808480C180A9
:1058C00010BD0022028042808280C2807047017732
:1058D000704780ED080A704780F82410704780F800
:1058E0002510704701207047983070478C30704702
:1058F0008430704770470000034B902283F85A238E
:1059000083F85823704700BF00E100E0094A0A49C4
:10591000D3680A48C3F30A03013B9BB20B801169A9
:10592000C1F30A01013901801364536B43F0010391
:105930005363704700100050325C0024305C002438
:10594000014BD3F8AC00704700100050024B01220D
:10595000C3F8AC105A627047001000500163C0E9F0
:105960000D21704770477047704700EB810011466A
:1059700040680368DB68184780F83C10704710B532
:10598000044648212AF0D1F9204610BD10B504463E
:105990002C212AF0CAF9204610BD10B50446BC21BE
:1059A0002AF0C3F9204610BD38B5044618F0F1FFBF
:1059B00023685D6E1DF0BCF901462046A8472368A8
:1059C000074A2046D3F8885000230649A847064BCB
:1059D000064A5A60064A1A639A63064A5A6338BDF1
:1059E00000F40B7000FA0570F45C00243C5D0024A8
:1059F00000EE117000FA050018F0B2BF18F07ABF7F
:105A000019F0DBB838B504460D46406C4FF0FF3155
:105A100009F010FB606C09F030FB242303FB054503
:105A2000002385F8283094F828300BB9236BA36342
:105A300038BD90F8252012B103685B69184770479C
:105A4000124A5369DB0370B51ED50023C2F88430B7
:105A5000BFF34F8FD2F8803043F6E074C3F3C90030
:105A6000C3F34E335B0103EA0406014646EA81753F
:105A70000139C2F87452F9D2203B13F1200FF2D150
:105A8000BFF34F8FBFF36F8F70BD00BF00ED00E01D
:105A900008B531B1044B4FF4B871044A04482AF0F8
:105AA000BBFC90F8290008BD282F03083C2F0308F1
:105AB000C630030810B531B1064B4FF4B571064A34
:105AC00006482AF0A9FC406811460368BDE810406A
:105AD0001B6B1847282F030809310308C630030839
