:020000040800F2
:1000000000000524991E0008751C0008771C0008D4
:10001000791C00087B1C00087D1C00080000000003
:1000200000000000000000000000000091B5000882
:100030007F1C00080000000021B60008C5AD0008C4
:10004000E91E0008E91E0008E91E0008E91E000874
:10005000E91E0008E91E0008E91E0008E91E000864
:10006000E91E0008E91E0008E91E0008E91E000854
:10007000E91E0008E91E0008E91E0008E91E000844
:10008000E91E0008E91E0008E91E0008E91E000834
:10009000E91E0008E91E0008E91E0008E91E000824
:1000A000E91E0008E91E0008E91E0008E91E000814
:1000B000E91E0008E91E0008811C0008E91E00086E
:1000C000E91E0008E91E0008E91E0008E91E0008F4
:1000D000E91E0008E91E0008E91E0008E91E0008E4
:1000E000E91E0008E91E000800000000E91E0008E3
:1000F000E91E0008E91E0008E91E0008E91E0008C4
:10010000E91E0008E91E0008E91E0008E91E0008B3
:10011000E91E0008E91E00088D1C0008E91E000801
:10012000E91E0008E91E0008E91E0008E91E000893
:10013000E91E0008E91E0008E91E0008E91E000883
:1001400000000000000000000000000000000000AF
:10015000E91E0008E91E0008E91E0008E91E000863
:10016000E91E0008E91E0008E91E0008E91E000853
:10017000E91E0008E91E0008E91E0008E91E000843
:10018000E91E0008E91E0008E91E0008E91E000833
:10019000E91E0008E91E0008E91E0008E91E000823
:1001A000991C0008E91E0008A51C000800000000BA
:1001B000E91E0008E91E0008E91E0008E91E000803
:1001C000E91E0008E91E0008000000000000000011
:1001D0000000000000000000E91E00080000000010
:1001E000000000000000000000000000000000000F
:1001F0000000000000000000E91E0008E91E0008E1
:10020000E91E0008E91E000800000000E91E0008C1
:10021000E91E0008E91E0008E91E0008E91E0008A2
:10022000E91E000800000000E91E000800000000B0
:10023000E91E0008E91E000800000000E91E000891
:10024000E91E0008E91E0008E91E0008E91E000872
:10025000E91E0008E91E0008E91E0008E91E000862
:10026000E91E0008E91E0008E91E0008E91E000852
:10027000E91E0008E91E0008E91E00080000000051
:10028000E91E0008E91E0008E91E0008E91E000832
:1002900000000000E91E0008E91E0008E91E000831
:1002A000E91E0008E91E0008E91E0008E91E000812
:1002B000E91E0008E91E0008E91E0008E91E000802
:0C02C000E91E0008E91E0008E91E000805
:1002D00010B5054C237833B9044B13B10448AFF380
:1002E00000800123237010BD1001002400000000D5
:1002F000C8D9020808B5034B1BB103490348AFF343
:10030000008008BD0000000014010024C8D90208C4
:1003100001F0FF01102A2BDB10F0070F08D010F8B6
:10032000013B013A8B422DD010F0070F42B3F6D1BA
:10033000F0B441EA012141EA014122F007047FF0D3
:1003400000070023F0E80256083C85EA010586EA2A
:10035000010685FA47F5A3FA87F586FA47F6A5FA66
:1003600087F68EB9EED1F0BC01F0FF0102F0070272
:1003700032B110F8013B013A83EA010313B1F8D11D
:100380000020704701387047002D06BF35460338FE
:10039000073815F0010F07D1013015F4807F02BF37
:1003A000013015F4C03F0130F0BC0138704700BF88
:1003B00081F0004102E000BF83F0004330B54FEA16
:1003C00041044FEA430594EA050F08BF90EA020F83
:1003D0001FBF54EA000C55EA020C7FEA645C7FEA16
:1003E000655C00F0E2804FEA5454D4EB5555B8BF39
:1003F0006D420CDD2C4480EA020281EA030382EAAA
:10040000000083EA010180EA020281EA0303362D3B
:1004100088BF30BD11F0004F4FEA01314FF4801C0E
:100420004CEA113102D0404261EB410113F0004F20
:100430004FEA03334CEA133302D0524263EB4303D7
:1004400094EA050F00F0A780A4F10104D5F1200E75
:100450000DDB02FA0EFC22FA05F2801841F10001D0
:1004600003FA0EF2801843FA05F359410EE0A5F1A4
:1004700020050EF1200E012A03FA0EFC28BF4CF0D5
:10048000020C43FA05F3C01851EBE37101F000458B
:1004900007D54FF0000EDCF1000C7EEB00006EEB98
:1004A0000101B1F5801F1BD3B1F5001F0CD3490822
:1004B0005FEA30004FEA3C0C04F101044FEA445279
:1004C00012F5800F80F09A80BCF1004F08BF5FEA00
:1004D000500C50F1000041EB045141EA050130BDE0
:1004E0005FEA4C0C404141EB0101013C28BFB1F5F2
:1004F000801FE9D291F0000F04BF01460020B1FA3D
:1005000081F308BF2033A3F10B03B3F120020CDA0F
:100510000C3208DD02F1140CC2F10C0201FA0CF0ED
:1005200021FA02F10CE002F11402D8BFC2F1200C52
:1005300001FA02F120FA0CFCDCBF41EA0C01904008
:10054000E41AA2BF01EB0451294330BD6FEA040451
:100550001F3C1CDA0C340EDC04F11404C4F120023C
:1005600020FA04F001FA02F340EA030021FA04F34E
:1005700045EA030130BDC4F10C04C4F1200220FAA5
:1005800002F001FA04F340EA0300294630BD21FAE3
:1005900004F0294630BD94F0000F83F4801306BFA9
:1005A00081F480110134013D4EE77FEA645C18BF9D
:1005B0007FEA655C29D094EA050F08BF90EA020F34
:1005C00005D054EA000C04BF1946104630BD91EA2C
:1005D000030F1EBF0021002030BD5FEA545C05D12F
:1005E0004000494128BF41F0004130BD14F580046E
:1005F0003CBF01F5801130BD01F0004545F0FE41E2
:1006000041F470014FF0000030BD7FEA645C1ABF16
:10061000194610467FEA655C1CBF0B46024650EA4D
:10062000013406BF52EA033591EA030F41F4002179
:1006300030BD00BF90F0000F04BF0021704730B5FF
:100640004FF4806404F132044FF000054FF00001D4
:1006500050E700BF90F0000F04BF0021704730B595
:100660004FF4806404F1320410F0004548BF40426A
:100670004FF000013EE700BF42004FEAE2014FEABF
:1006800031014FEA02701FBF12F07F4393F07F4F9A
:1006900081F06051704732F07F4208BF704793F09D
:1006A0007F4F04BF41F40021704730B54FF46074B0
:1006B00001F0004521F000411CE700BF50EA0102B3
:1006C00008BF704730B54FF000050AE050EA01025C
:1006D00008BF704730B511F0004502D5404261EBCC
:1006E00041014FF4806404F132045FEA915C3FF40D
:1006F000D8AE4FF003025FEADC0C18BF03325FEAAA
:10070000DC0C18BF033202EBDC02C2F1200300FA5A
:1007100003FC20FA02F001FA03FE40EA0E0021FA7F
:1007200002F11444BDE600BF53B94AB9002908BF1D
:1007300000281CBF4FF0FF314FF0FF3000F070B9C0
:10074000ADF1080C6DE904CE00F006F8DDF804E028
:10075000DDE9022304B070472DE9F047089E0D46FD
:1007600004460F46002B4AD18A42944665D9B2FA14
:1007700082F343B102FA03FCC3F120029F4020FA46
:1007800002F217439C404FEA1C4E1FFA8CF5B7FB50
:10079000FEF1220C0EFB117742EA074201FB05F045
:1007A00090420AD91CEB020201F1FF3780F01C8154
:1007B000904240F2198102396244121AA4B2B2FB8B
:1007C000FEF00EFB102244EA024400FB05F5A542B0
:1007D0000AD91CEB040400F1FF3280F00781A54226
:1007E00040F204816444023840EA0140641B002165
:1007F0001EB1DC400023C6E90043BDE8F0878B4210
:1008000008D9002E00F0ED800021C6E90005084659
:10081000BDE8F087B3FA83F1002949D1AB4202D396
:10082000824200F2F880841A65EB03020120174629
:10083000002EE2D0C6E90047DFE702B9FFDEB2FAD8
:1008400082F3002B40F090808A1A4FEA1C471FFA6F
:100850008CFE0121B2FBF7F507FB1520220C42EAC2
:1008600000420EFB05F0904208D91CEB020205F194
:10087000FF3802D2904200F2CB804546121AA4B251
:10088000B2FBF7F007FB102244EA02440EFB00FE25
:10089000A64508D91CEB040400F1FF3202D2A6459C
:1008A00000F2BB801046A4EB0E0440EA05409FE72F
:1008B000C1F120078B4022FA07FC4CEA030C05FA31
:1008C00001F420FA07F3FD404FEA1C492343B5FB2E
:1008D000F9F81FFA8CFE09FB18551C0C44EA054474
:1008E00008FB0EF5A54202FA01F200FA01F00BD95D
:1008F0001CEB040408F1FF3A80F08880A54240F226
:100900008580A8F102086444641B9DB2B4FBF9F32E
:1009100009FB134445EA044403FB0EFEA64508D92F
:100920001CEB040403F1FF356CD2A6456AD9023BE7
:10093000644443EA0843A3FB0295A4EB0E04AC42D3
:10094000C846AE4656D353D056B1B0EB080264EB5E
:100950000E0404FA07F7CA40CC401743C6E90074F6
:1009600018460021BDE8F087C3F1200102FA03FC1C
:1009700020FA01F225FA01F19D402A434FEA1C4773
:100980001FFA8CFEB1FBF7F007FB1015110C41EAC2
:10099000054100FB0EF58D4204FA03F408D91CEB67
:1009A000010100F1FF382FD28D422DD90238614468
:1009B000491B92B2B1FBF7F507FB151142EA014260
:1009C00005FB0EF1914208D91CEB020205F1FF383C
:1009D00016D2914214D9023D6244521A45EA0041AE
:1009E00038E73146304608E73946E6E61046FBE68A
:1009F0004845A9D2B9EB020865EB0C0E013BA3E711
:100A00004546EAE72B4694E74046D1E7D0467BE7E8
:100A1000023D624432E708460AE76444023842E78E
:100A2000704700BF38B54FF48071144805F076FF69
:100A300020210546124805F071FF0821440044EAD0
:100A40008500104D44B2104805F068FF2B78204314
:100A50000E490C22C8540133FF20DBB22B70013A3F
:100A600011F8014B12F0FF0200EA0400F7D1084927
:100A70000B2B087088BF2A7038BD00BF00140258C5
:100A8000001802582D010024001002582E010024E5
:100A90002C010024014B1878704700BF2C01002462
:100AA000014900200BF052BF9123000808B56420D3
:100AB0000AF009FAFBE7000038B5214DEB68AA6897
:100AC00001339C1A07F06EFF6B68B3F5005F2DD001
:100AD00020D8B3F5805F2BD016D85BB3A3F50065A3
:100AE0006B426B415B005C434FF47A73144D2403FB
:100AF000B0FBF3F0B4FBF0F4013420460AF0E3F964
:100B000028460AF05AF9F8E7A3F5C0514B424B4189
:100B1000DB00E8E7B3F5405F0ED0B3F5605F0DD0C2
:100B2000A3F52052534253415B01DCE71023DAE77F
:100B30000423D8E70123D6E74023D4E78023D2E774
:100B4000FC04002408B5FFF76DFFFFF7A3FF0420A6
:100B50000AF0B9F9F7E708B501F06EF90A200AF0D2
:100B6000B2F9F9E707B54FF6FF730190012201A929
:100B7000034809F0AEFF019803B05DF804FB00BF25
:100B80006804002410B59CB04C22002109A82BF069
:100B90007BFF2022002101A82BF076FF042007F024
:100BA0005FFA002300931C4B9A6922F440429A6139
:100BB0009A6902F440420092009A9A699404FCD522
:100BC00009224FF4803300242C2109A81B94CDE97D
:100BD000092302230122CDE9123314930E92CDE9A9
:100BE00017330C23CDE91512CDE9193407F076FA45
:100BF00003213F2308204FF480620394CDE90131A3
:100C00004023CDE9040301A80693CDE9072307F0AB
:100C100081FD1CB010BD00BF0048025800B5AFB048
:100C20000021982208A82BF02FFF4FF0007200231C
:100C30006846CDE9002305225023CDE90223022393
:100C4000CDE904330693802307932023139307F001
:100C5000E7FF2FB05DF804FB2DE98048A1B010221A
:100C60000021002713A82BF00FFF05F065FB0123DF
:100C700013A8ADF84C3048F21F73CDE9147340F25D
:100C80000113169305F076FB042005F063FBD34BAC
:100C90005A6912F4003211D1BFF34F8FBFF36F8F37
:100CA000C3F85022BFF34F8FBFF36F8F5A6942F4DE
:100CB00000325A61BFF34F8FBFF36F8FC74A53693A
:100CC00013F4803323D1C2F88430BFF34F8FD2F8AE
:100CD000803043F6E074C3F3C900C3F34E335B01C5
:100CE00003EA0406014646EA81750139C2F86052FA
:100CF000F9D2203B13F1200FF2D1BFF34F8F53698C
:100D000043F480335361BFF34F8FBFF36F8F04F011
:100D1000A3FD0024FFF736FF0125FFF77FFF142214
:100D2000002113A82BF0B0FEAD4B48F20801AD48EE
:100D3000D3F8E0204FF0080902274FF0030A42F0F1
:100D400002024FF48068A84E4FF0180BC3F8E02061
:100D5000D3F8E02002F002020092009AD3F8E020DB
:100D600042F04002C3F8E020D3F8E02002F0400255
:100D70000192019AD3F8E02042F00802C3F8E02083
:100D8000D3F8E02002F008020292029AD3F8E020A1
:100D900042F01002C3F8E020D3F8E02002F0100285
:100DA0000392039AD3F8E02042F00102C3F8E02056
:100DB000D3F8E02002F001020492049AD3F8E02074
:100DC00042F00402C3F8E020D3F8E02002F004026D
:100DD0000592059AD3F8E02042F08002C3F8E020A3
:100DE000D3F8E02002F080020692069AD3F8E020C1
:100DF00042F02002C3F8E0200022D3F8E03003F0F4
:100E000020030793079B05F08FFD00224FF440411C
:100E1000764805F089FD00224FF48061744805F0A2
:100E200083FD00220121734805F07EFD13A972485D
:100E30001595CDE9139405F0F3FB4FF4005313A976
:100E40006E481597CDE9133405F0EAFB4FF40043E3
:100E500013A96448CDE91335CDE9154405F0E0FB4D
:100E6000202313A95F481595CDE9133405F0D8FB6D
:100E7000402213A962481797CDE91327CDE91544FD
:100E800005F0CEFB13A95748CDF858A01594CDE92D
:100E9000139505F0C5FB4FF4807213A958481595BA
:100EA000CDE9132405F0BCFB4FF4404213A94F4891
:100EB000CDE91325CDE9154A05F0B2FB13A94C483D
:100EC000CDE91385CDE9154405F0AAFB13A94948DE
:100ED000CDE91355CDE9154A05F0A2FB49484A4A28
:100EE000848002600562C0E9054405F06FFA4FF4A2
:100EF00040334648464AC0E90254C0E9002305F0A1
:100F0000C5FA3422214613A82BF0BEFD414A2823FE
:100F1000352140F2152040F2352CB486346186F834
:100F20003640C6E900240922C6E905320B22C6E98B
:100F3000071240F21B12C6E9090240F21D123046A8
:100F4000C6E90BC2C6E9024406F01EF94FF0050ED1
:100F50004FF4F0714FF488724FF0E040FF23CDF86A
:100F600068804FF004081394ADF87C408DF87E4003
:100F7000CDE91BE0CDE91625CDE91D12304622460C
:100F8000254ECDE9141413A9CDE9183406F0C7F99C
:100F90005A46214613A82BF077FD204A20233046DD
:100FA000B460F463C6E900284FF08072C6E90574A6
:100FB000C6E90323C6E90974C6E90744C6E90B4438
:100FC000C6E90D9406F03AFB4FF0011341F2883266
:100FD00013A9169303F57F03304621E000ED00E0EE
:100FE00000440258001802584C0200240004025821
:100FF000000C025800000258001002580008025865
:1010000000140258C0010024004C0258E4010024DE
:101010000010005200100050F40200240050005252
:1010200015951793CDE9135506F090FD304606F05F
:1010300079FB40F201132046B44EADF8383004F08D
:1010400065F80EA9204604F053F9204604F026F86E
:101050005A46214613A82BF017FD102221460AA854
:101060002BF012FD142221460EA82BF00DFDA84BEB
:101070003046B460C6E900384FF08063C6E9033BF0
:1010800017234FF0805BC6E90BB34FF4C873C6E972
:101090000974F363C6E90584C6E90744C6E90D444B
:1010A000CDE9084406F0CAFA9A4B41F2883213A9F6
:1010B000169303F57F03304615971793CDE9137701
:1010C000062706F043FD41F288320AA93046CDF8E2
:1010D00028A00D954FF6FF7ACDE90B7406F084FB3E
:1010E0004FF4405341F288320EA910934FF0005351
:1010F0003046119512930E940F9406F09BFB08A9AD
:101100003046089406F0AEFC834E00F0C3FE102279
:10111000214613A81094CDE90E442BF0B5FC7F4B6B
:101120003046B460C6E90034C6E903A4C6E9054404
:1011300009F0C2F80EA930461094CDE90E4409F02A
:10114000C3F9224613A93046754ECDE91345CDE9C2
:10115000154409F023F91022214613A81094CDE973
:101160000E442BF091FC6F4B30463461B461C6E9FC
:101170000034C6E9024A09F09FF80EA930460E94E1
:10118000109409F0A1F90C2213A93046664ECDE95E
:101190001345CDE9154409F001F92422214613A88D
:1011A0001094CDE90E442BF06FFC4FF440335F49AF
:1011B00030463483F561C6F8089086F820403463E1
:1011C00086F84440C6E90013C6E90448C6E90A4463
:1011D000C6E90F4404F0AEFE0EA930460E9404F0AA
:1011E000F5FF534B13A93046159418948DF86D40B4
:1011F000504ECDE9133740F2FF737F27CDE9163803
:1012000004F09EFB1422214613A82BF03DFC4A4B10
:101210003046346174610E94C6E90034FF23C6E998
:101220000644C6E9027308F0A7FD2A4613A9304612
:10123000ADF84C408DF84E40CDE9164408F0F3FD72
:101240003E4B2A460EA930463D4D0E9308F04DFE0A
:101250003C484FF460533C4E0461C0E900535023B6
:101260003A4DC0E9023709F094FD4FF4E1332846C6
:101270002C61C5E900630C23C5E90244C5E90534C6
:10128000C5E90744C5E9094409F0D5FC21462846CB
:1012900009F03FFD2146284609F05BFD284609F08C
:1012A0001DFD00F023FE00F020FE00F0BFFD09F060
:1012B00097FD274A2146274809F0BEFD264B274ABD
:1012C00021461860264809F0B7FD264B264A2146DC
:1012D0001860264809F0B0FD254B264A21461860C3
:1012E000254809F0A9FD254B254A214618602548C7
:1012F00009F0A2FD244B254A21461860244809F034
:101300009BFD244B186009F07DFDFEE7500300248F
:1013100000A0005202000100D003002400000140A0
:101320001C0400240008004050010024002002405A
:1013300002003004AC030024004000580101010009
:1013400000300050FC0400240048004068040024E1
:1013500004DB0208AD0A00084C010024BCDA0208D4
:10136000FB1E00084401002428DB02083539000870
:1013700010050024E0DA0208B90A00084801002438
:1013800074DA0208450B00083C01002498DA0208D0
:10139000570B0008400100240268034B9A4201D118
:1013A00004F088BA704700BF00100040704700008A
:1013B0000A4B82B00F216FF00100D3F8F42042F005
:1013C0000202C3F8F4200022D3F8F43003F0020341
:1013D0000193019B02B004F06FBF00BF00440258AC
:1013E000026882B0114B9A421ED1114B4FF000712E
:1013F000D3F8D820084642F02002C3F8D820D3F80A
:10140000D82002F020020092009AD3F8E02042F0A7
:101410000102C3F8E020D3F8E03003F001030193A8
:10142000019B02B004F06ABA02B07047002002408B
:1014300000440258026882B0094B9A420DD1A3F5CC
:101440000063D3F8E02042F40022C3F8E020D3F890
:10145000E03003F400230193019B02B0704700BF0A
:10146000004C02580F4B07B502689A4217D10E4B39
:1014700005215A20D3F8D42042F01002C3F8D4201A
:101480000022D3F8D43003F010030193019B04F041
:1014900013FF5A2003B05DF804EB04F03FBF03B024
:1014A0005DF804FB00100052004402582DE9F041A1
:1014B000BCB004461422002109A82BF0E5FAB8229A
:1014C00000210EA82BF0E0FA2268774B9A4240F0F8
:1014D000E7804FF0005200230EA8CDE90E234FF411
:1014E00090731922CDE918230223CDE91A331E2364
:1014F0001C934FF400731E9307F092FB08B1FFF7A3
:1015000055FF6A4B002402260325D3F8E4200E275A
:1015100009A9674842F008024FF05808C3F8E420D0
:10152000D3F8E42002F008020192019AD3F8E020F7
:1015300042F00202C3F8E020D3F8E02002F00202F9
:101540000292029AD3F8E02042F00802C3F8E020A9
:10155000D3F8E02002F008020392039AD3F8E020C7
:1015600042F01002C3F8E020D3F8E02002F01002AD
:101570000492049AD3F8E02042F00102C3F8E0207C
:10158000D3F8E02002F001020592059AD3F8E0209A
:1015900042F04002C3F8E020D3F8E02002F040021D
:1015A0000692069AD3F8E02042F08002C3F8E020C9
:1015B000D3F8E02002F080020792079AD3F8E020E7
:1015C00042F00402C3F8E020D3F8E0300D9703F0B6
:1015D00004030893089B40F20333CDE90B45CDE9A2
:1015E000093605F01DF8492309A932480D97CDE9C0
:1015F0000936CDE90B4505F013F84BF6030309A9AD
:101600002D480D97CDE90936CDE90B4505F008F8D1
:101610004FF4807309A92948CDE909360D23CDE996
:101620000B450D9304F0FCFF4FF4814309A92448B6
:101630000D97CDE90936CDE90B4504F0F1FF48F6E9
:10164000087309A91F480D97CDE90936CDE90B4567
:1016500004F0E6FFC02309A91B480D97CDE9093620
:10166000CDE90B4504F0DCFF09A914480D97CDE93D
:101670000986CDE90B4504F0D3FF102309A91148D1
:10168000CDE909360923CDE90B450D9304F0C8FFD8
:1016900040462246052104F00FFE404604F03EFE7F
:1016A0003CB0BDE8F08100BF00100050004402587B
:1016B00000040258000C02580010025800000258A2
:1016C00000180258001C0258000802582DE9F04387
:1016D00091B00446142200210BA82BF0D5F9236801
:1016E000884A934240F0B080874A13680133012B47
:1016F00013600CD1854BD3F8D42042F40012C3F808
:10170000D420D3F8D43003F400130093009B7F4B14
:10171000022503240927D3F8D4200BA97C480026EE
:1017200042F480424FF00A084FF00409C3F8D42075
:10173000D3F8D42002F480420192019AD3F8E02039
:1017400042F04002C3F8E020D3F8E02002F040026B
:101750000292029AD3F8E02042F00802C3F8E02097
:10176000D3F8E02002F008020392039AD3F8E020B5
:1017700042F01002C3F8E020D3F8E02002F010029B
:101780000492049AD3F8E02042F02002C3F8E0204B
:10179000D3F8E02002F020020592059AD3F8E02069
:1017A00042F00202C3F8E020D3F8E03003F0020375
:1017B0000693069B4FF40073CDE90B35CDE90E4738
:1017C00004F02EFFB0230BA95248CDF83C80CDE9A0
:1017D0000B35CDE90D6404F023FF0BA94E480F979C
:1017E000CDE90B95CDE90D6404F01AFF40230BA958
:1017F0004748CDF83C80CDE90B35CDE90D6404F0C8
:101800000FFF4FF460530BA942480F97CDE90B35FA
:10181000CDE90D6404F004FF4FF480630BA93F4849
:101820000F97CDE90B35CDE90D6404F0F9FE0BA956
:101830003B48CDF83C80CDE90B95CDE90D6404F033
:10184000EFFE11B0BDE8F083364A9342F9D12E4A3B
:1018500013680133012B13600CD12C4BD3F8D42027
:1018600042F40012C3F8D420D3F8D43003F40013A8
:101870000793079B254B032402250926D3F8D42080
:101880000BA92348002742F40022C3F8D420D3F840
:10189000D42002F400220892089AD3F8E02042F003
:1018A0004002C3F8E020D3F8E02002F040020992A1
:1018B000099AD3F8E02042F02002C3F8E020D3F8E0
:1018C000E03003F020030A930A9B40F60303CDE9BE
:1018D0000E46CDE90B3504F0A3FE4FF4A0530BA93F
:1018E0000B480F94CDE90B35CDE90D7404F098FE4B
:1018F00041F21F030BA909480F96CDE90B35CDE93D
:101900000D749CE700500052140500240044025856
:1019100000180258000C0258001002580014025817
:101920000004025800A00052274A08B503689342F9
:101930002AD1264B1A68013A1A60254B2AB9D3F8E6
:10194000D42022F40012C3F8D420D3F8D4204FF4CA
:101950001071204822F48042C3F8D42004F044FFE0
:1019600043F6B0011C4804F03FFF04211B4804F07B
:101970003BFF4FF480611A4804F036FF04211948F8
:10198000BDE8084004F030BF174A93421AD10F4B0C
:101990001A68013A1A600E4B2AB9D3F8D42022F4FF
:1019A0000012C3F8D420D3F8D42041F603410948EB
:1019B00022F40022C3F8D42004F016FF41F21F01E4
:1019C0000748DDE708BD00BF0050005214050024A1
:1019D0000044025800180258000C02580010025827
:1019E000001402580004025800A0005210B5AEB016
:1019F0000446B822002168462BF046F822680C4BBA
:101A00009A4212D100234FF480026846CDE90023A8
:101A10004FF400732C9307F003F908B1FFF7C6FCED
:101A2000044A136F43F4004313672EB010BD00BF88
:101A300000400058004402581422002110B58AB01A
:101A400004460DEB02002BF01FF823682B4A93424B
:101A500025D12B4B4FF484412A48D3F8F02042F093
:101A60000102C3F8F020D3F8F02002F00102019245
:101A7000019AD3F8E02042F01002C3F8E020D3F836
:101A8000E03003F010030293029B0223CDE905131B
:101A9000012305A9099304F0C3FD0AB010BD1A4A39
:101AA0009342FAD1164B05A91848D3F8E82042F022
:101AB0000402C3F8E820D3F8E82002F004020392FD
:101AC000039AD3F8E02042F00802C3F8E0204FF474
:101AD0000042D3F8E03003F008030493049B022390
:101AE000CDE90523099304F09BFD002205211E206A
:101AF00004F0E2FB1E2004F011FCCEE700000140E0
:101B0000004402580010025800080040000C02581F
:101B100010B5B6B004461422002103A82AF0B4FF81
:101B2000B822002108A82AF0AFFF22681A4B9A4277
:101B300030D10222002308A8CDE9082307F070F86D
:101B400008B1FFF733FC154B03A91548D3F8E8207B
:101B500042F48022C3F8E820D3F8E82002F480227F
:101B60000192019AD3F8E02042F00802C3F8E02085
:101B70004FF44072D3F8E03003F008030293029B65
:101B80000223CDE903230023CDE90533072307937F
:101B900004F046FD36B010BD004800400044025835
:101BA000000C02580B4B07B502689A420FD1012076
:101BB00008F07CF8084BD3F8E42042F04002C3F868
:101BC000E420D3F8E43003F040030193019B03B019
:101BD0005DF804FB00300050004402580F2810B597
:101BE00004468AB002D901200AB010BD0146002285
:101BF000362004F061FB362004F090FB184B694658
:101C000002A81C60174BD3F8E82042F01002C3F87A
:101C1000E820D3F8E83003F010030193019B06F0AD
:101C2000E5FE079BC3B906F0BDFE0F4C0F4B2360CA
:101C300040F2E733E3600E4BB0FBF3F001380023D2
:101C4000606020462361A36008F006FB0028CAD12B
:101C5000204608F099F9C7E706F0A4FE4000E4E743
:101C600048000024004402581805002400100040D9
:101C700040420F007047FEE7FEE7FEE7FEE77047D1
:101C8000014808F0CBB900BF1C040024014808F04B
:101C9000C5B900BF18050024014805F0E3BA00BF2C
:101CA0004C020024014804F030BC00BFE4010024D1
:101CB0000120704708B52AF0F1FF162303604FF0AA
:101CC000FF3008BD08B52AF0E9FF16230360FEE7E0
:101CD00070B50D4614460E46731B9C4201DC20462F
:101CE00070BDAFF3008006F8010BF5E770B50D4647
:101CF00014460E46731B9C4201DC204670BD16F84C
:101D0000010BFEF72FFFF5E74FF0FF3070474FF460
:101D1000005300204B60704701207047002070473F
:101D20000B4A0346116810B509B90A4911601068D9
:101D300009490A4C0344091B8B4206D92AF0AEFF1D
:101D40000C2303604FF0FF3010BD1360FCE700BFB1
:101D500064050024506A01240000052400100000DE
:101D600038B50024044DE3B2013455F8233003B9EB
:101D700038BD9847F7E700BF7CDB020838B5002480
:101D8000044DE3B2013455F8233003B938BD984708
:101D9000F7E700BF64DB020838B50024044DE3B266
:101DA000013455F8233003B938BD9847F7E700BF31
:101DB00074DB020808B504482AF066FDFEF76AFEE7
:101DC00000F0010008BD00BF4CDB020808B5FEF7BB
:101DD00061FEC04300F0010008BD000038B50024DA
:101DE000054D00F011F8E3B2013455F8233003B982
:101DF00038BD9847F7E700BF6CDB020801482AF0BE
:101E000043BD00BFC0DB020801482AF03DBD00BF52
:101E1000DDDB020801482AF037BD00BFFCDB020809
:101E200001482AF031BD00BF17DC0208014B012236
:101E30001A807047680500242DE9F047DFF85080CC
:101E400000254FF00C09114EB8F80070EBB209FBF9
:101E500003F39C19F35A73B13B4214D06388BB421D
:101E60000BD063687BB1984768B1A36803B198470A
:101E70006388A8F80030BDE8F087A368002BFAD08B
:101E8000BDE8F04718470135E0E700BF84DB0208F2
:101E90006805002470470000DFF834D003F086FCAA
:101EA000002103E00B4B5B58435004310A480B4BB5
:101EB00042189A42F6D30A4A02E0002342F8043B51
:101EC000084B9A42F9D32AF0EFFEFEF7C5FE7047A1
:101ED000000005246C2A03080000002410010024DF
:101EE00010010024506A0124FEE7704708B501F094
:101EF000F1F8BDE8084001F075B801F0EDB84068B0
:101F000070474160704700004FF0E022D2F8FC3D7E
:101F100043F08073C2F8FC3D054B064AD3F8B01F6E
:101F20000A43C3F8B02F1A6842F001021A607047E2
:101F3000001000E055CEACC5511A01EB5301B1FBC6
:101F4000F3F07047014B5868704700BF001000E085
:101F5000704710B504460C2129F005FF204610BD3E
:101F6000036810B51B69044631B19847A2686368DD
:101F70009B1A1844606010BD9847A060FBE770474B
:101F80001FB5082300206946CDE90230054B1B88A8
:101F90000093054B1B88019303F024FB05B05DF80B
:101FA00004FB00BF325E0124345E012410B50446F8
:101FB000042129F0D8FE204610BD30B585B00020A0
:101FC0000D46144601A90390CDE9010003F08CFBF6
:101FD00040B14FF0500383F31188BFF36F8FBFF30D
:101FE0004F8FFEE7019820B1029B01202B60039BDD
:101FF000236005B030BD0000032825D8DFE800F0DD
:10200000020B131C114B012111481A68B2FA82F21B
:10201000520904F089BC0D4B08210E485A68B2FAE7
:1020200082F25209F5E7094B4FF480419A68B2FAFF
:1020300082F252090848ECE7044B4FF40041DA6899
:10204000B2FA82F25209F5E7704700BF6C0500242E
:10205000000002580018025800040258032825D82E
:10206000DFE800F0020B131C114B012111481A6824
:10207000003A18BF012204F057BC0D4B08210E484E
:102080005A68003A18BF0122F5E7094B4FF4804126
:102090009A68003A18BF01220848ECE7044B4FF455
:1020A0000041DA68003A18BF0122F5E7704700BF27
:1020B0006C05002400000258001802580004025861
:1020C000032811D8DFE800F00206090D01210748B6
:1020D00004F02FBC08210648FAE74FF48041054878
:1020E000F6E74FF40041FAE7704700BF00000258DE
:1020F000001802580004025808B5032815D8DFE874
:1021000000F0020A0D110121094804F007FC431EEA
:102110005842584108BD08210648F6E74FF480416F
:102120000548F2E74FF40041FAE70020EFE700BF6F
:1021300000000258001802580004025870B5084DFB
:1021400000240126E0B2FFF7D7FF18B12B68012B5E
:1021500018BF2E6001340435052CF3D170BD00BFCB
:102160006C050024012380F8781080F879307047DE
:102170000020704741640039024B18BF01211970DB
:10218000704700BF375E012400207047836B0BB19E
:102190000846184770474FF6FF707047406803685D
:1021A0009B6918477047000038B5044601F0C8F82D
:1021B0000749236804F17C052046D3F88C30984702
:1021C0002846FFF7A1FE0123256184F8703038BD51
:1021D0000000007008B503680446D3F880309847C3
:1021E000236820469B6F984700F02AF92368204611
:1021F0001B6F984701224FF48061084804F094FB5C
:1022000001224FF40041064804F08EFB00F018F95B
:10221000236820461B6F9847F8E700BF000C025860
:102220000018025810B5044619F010F9236820462A
:10223000D3F8AC30BDE81040184701F04DB801F0BC
:1022400051B8000070B501F0A5F810490023C1F89D
:102250008430BFF34F8FD1F8803043F6E074C3F37E
:10226000C900C3F34E335B0103EA0406024646EAA3
:102270008275013AC1F87452F9D2203B13F1200F54
:10228000F2D1BFF34F8FBFF36F8F70BD00ED00E051
:1022900000F0FEBF01F0F4B901F0DEB901F002B8C0
:1022A00018F040BB10B50446882129F05CFD20469B
:1022B00010BD90F87A301BB1406803681B6818475E
:1022C0001846704790F834100D4B10B590F87840D0
:1022D0001A788C4209D03AB90A490B4A08881488FE
:1022E000108001220C801A7010BD002AFCD0064A12
:1022F0000449148808880C8010800022F3E700BF8E
:10230000305E01242E5E01242C5E012470B50D4642
:10231000194635B9094B40F2D221094A09482AF039
:102320009DF8C0E90F52003A074B18BF01221A70FE
:102330000368BDE87040D3F88C30184774DC02089D
:10234000ACDC0208FADC0208365E012408B5094B51
:102350001B888B4203D8084B1B88934205D9074B37
:102360009E21074A07482AF079F8074B1980074B46
:102370001A8008BD2C5E01242E5E01243FDD020878
:10238000A2DD0208FADC0208325E0124345E012478
:10239000014608B5034B186801B1012119F070F826
:1023A000012008BD385E01240121002208B508463D
:1023B00008F00DFE0A4B186028B90A4B28210A4A7A
:1023C0000A482AF04BF800220421012008F09CFE64
:1023D000074B186018B9074B2C21034AF0E708BDDA
:1023E00080050024C0DE020809DF020838DF020889
:1023F0007C0500249DDF0208024B4FF0FF31186876
:1024000008F02FBE80050024014B186808F054BE68
:1024100080050024024B0021186808F022BE00BF8E
:1024200080050024FFF7F0BF0023034803491A4644
:10243000006808F0A4BE00BF7C050024040000244E
:1024400013B50023074C01A91A46206808F0C7FEFF
:102450004FF0FF33002201A9206808F0C0FE02B04F
:1024600010BD00BF7C05002403685B6C1847012089
:10247000704703689B6A184740F2EF3070470000CE
:10248000054B4FF080620360044BC3F88820BFF314
:102490004F8FBFF36F8F704754E1020800E100E0F7
:1024A00010B504464FF45A61FFF7EAFF204629F0C1
:1024B0005AFC204610BD00000F4B82B0D3F8D42048
:1024C00042F01002C3F8D420D3F8D42002F0100256
:1024D0000192019ADA6F42F01002DA67DA6F22F0A5
:1024E0001002DA67054B064A1A62064B4FF080620B
:1024F0009A6002B0704700BF00440258E401002413
:102500000925000800E100E0024B1B6858680368D9
:102510005B691847385E012470B504460A4B0C30DD
:1025200000262546602260602672667245F8203BD0
:10253000294619F0FBF804F55A63EE602435AB42E6
:10254000FBD1204670BD00BF54E1020808B50B293D
:102550000BD8DFE801F01206100A0A0A0A08080878
:102560000808012008BD0520FCE7054B6521054A48
:10257000054829F073FF0020F4E70220F2E700BFCE
:10258000DFDF0208FADF020844E0020808B50A2982
:1025900009D8DFE801F010060E080808080606064C
:1025A0000600012008BD054B8621054A054829F093
:1025B00055FF0020F6E70220F4E700BFDFDF020846
:1025C000A7E0020844E002082DE9F8434F7F0C46DB
:1025D00081463946FFF7BAFF94F81E800546484603
:1025E0004146FFF7B3FF414606464846FFF7CEFF98
:1025F000A18A628B424B521A1A649A61228B521A38
:102600001A61E28A586342EA014221695A646268A7
:10261000D963DA602068227F802821D00FD8202853
:1026200064D0402862D004285AD045EA0265344B71
:10263000474545F40035DD615ED0324A3DE0B0F5F6
:10264000807F04D0B0F5007FEFD12F4800E02F4805
:1026500040EA0262DA61E2681A625E6259612BE066
:1026600045EA0265A06845F40035DD615E625961A6
:10267000011DD962017841B1012921D0244B4FF4C9
:102680008071244A244829F0E9FEDA69418822F45D
:102690007F42013922F0100242EA0122DA6101226E
:1026A000174BD96941F02001D961D9698906FCD459
:1026B00010219960002AC0D0184A1A60BDE8F8833A
:1026C000D969FF3A408821F47F4118BF01220138BF
:1026D00021F0100141EA002141F01001D961DFE74A
:1026E00045EA026242F40032DA61B6E745EA026284
:1026F000034B42F40032F7E740F20122DDE700BF6E
:102700000010005201020100090002000A0002004C
:10271000F2E002080CE1020844E0020801020200B3
:1027200038B50C46897FFFF731FF124BA58AE28A44
:10273000586342EA054221695A64628BD963521B8D
:102740001A642568082D0ED19A611A6158620A4AE6
:10275000207F42EA0062DA61E2681A62074A596140
:10276000D9601A6038BD0022D8611A61E2689A63A4
:10277000034AF6E7001000520900010001020200BE
:1027800001020300034B1A68D207FCD423229A608B
:10279000704700BF0010005230B5104C2568ED079F
:1027A000FCD423250904FF2BA5604FF0010541EA65
:1027B000050165636164E0630CD0094922F07F4242
:1027C000656241EA0363E361064B22626061E06097
:1027D000236030BDE561044BA263F9E700100052AD
:1027E0000900010001000200010003004069704778
:1027F00090F844007047036B23B9C06A003818BFD3
:10280000012070470120704780687047043010B580
:102810000C460FC884E80F0010BD704708B5034A86
:1028200040F21221024B034829F018FE9CE10208F5
:102830006FFC0208F7E1020810B50446482129F0B0
:1028400092FA204610BD2DE9F0411E46ADF51E7DE1
:10285000436B07460C469046A69D93B3002203A8FF
:10286000CDE9013210F096FD4FF4F472502124901E
:1028700024A80AF000FD4246214624A80BF07CFC67
:10288000012124A80AF0FAFD022324A88DF8D830EB
:102890000AF098FE419BBDF89482BDF890229845BD
:1028A00028BF98462B9B9A4228BF1A4602EB420447
:1028B000479B984509D824A80AF002FE24A80AF0EC
:1028C00027FD0DF51E7DBDE8F081012201A924A898
:1028D0000AF0C1FE30462246796B2E442AF00BFAEC
:1028E000E6E700000A4A02600022C0E90522C0E9CA
:1028F0000722C0E90922C0E90B22C0E90D12C0E994
:102900000F2280F84420C0E90322C0E90122704769
:10291000F0E4020810B40C4611461A46036B3BB1B2
:10292000036C806BE41A20445DF8044B2AF0B4B8C1
:10293000C06AF8E7036B10B573B1036C826BC91AF8
:102940005318525C98785C780004DB7840EA0420E5
:10295000104340EA036010BDC36A5858FBE7036B9D
:1029600043B1036CC91A836B5A18585C527840EA19
:1029700002207047C36A585A7047000070B5044679
:10298000006B0D461646D8B1E36B934208D209237B
:102990000D4A65210D4884F844300D4B29F05EFD49
:1029A0000368DB689847206B3246A16B03681B699C
:1029B000984710B90D2384F84430A06B256470BD8E
:1029C000E06A0844FBE700BF79E20208F7E1020889
:1029D00066E202082DE9F843436904462BB9234B0C
:1029E000AA21234A234829F039FD08228169FFF7EB
:1029F000C5FFA16943F2300646F264370431204630
:102A0000FFF798FFA3691844A36A00F108029A42ED
:102A100006D3012300206361236AA361BDE8F88324
:102A2000636909300822013320F001012046636107
:102A3000A161FFF7A3FFD4F8189020464946FFF79D
:102A40008EFF09F1020180462046FFF788FF09F159
:102A5000040105462046FFF76DFFB045D2D1BD42C7
:102A6000D0D10028CED00120D8E700BFBBE20208B9
:102A700004E30208F7E102082DE9F04F0546ADF541
:102A80001F7D8B469046816908221F46FFF776FF1F
:102A9000AE692846311DFFF74DFF06F108010246D9
:102AA00004462846FFF76AFF6B6B064633B9344B82
:102AB00040F2AB11334A344829F0D0FC002203A87D
:102AC000CDE9013210F066FC4FF4F47250212490ED
:102AD00024A80AF0D0FB2246314624A80BF04CFB78
:102AE000012124A80AF0CAFC022324A88DF8D830BA
:102AF0000AF068FDBBF902A0479B53452DD3BBF8F4
:102B0000063007EB4707BBF80260BBF900401E44E4
:102B1000BBF80420419B04EB440936B2224407FB76
:102B20000A9A9E4212B2D04428BF1E462B9B9A425C
:102B300094BFC4EB0204C4EB030404EB4404479BBE
:102B4000B34210D324A80AF0BBFC24A80AF0E0FB8F
:102B500001200DF51F7DBDE8F08F012201A924A8F9
:102B60000AF079FDC8E7012201A924A80AF073FD43
:102B7000696B404622464944B8442AF0BCF8DEE777
:102B800037E302088DE30208F7E102080129036830
:102B900038BF0121DB6A70B50D4604469847A8424C
:102BA00004D223682046DB6A984705466B1EE66917
:102BB0001022204606EB031606F10801FFF7DEFEA1
:102BC00006F110012046FFF7B5FE236A043B0344DB
:102BD000C4E9055370BD00002DE9F341002104460E
:102BE0004822816180F84410FFF7C8FEA7690423DA
:102BF000634A39462046FFF78DFE40B10323614A00
:102C0000F22184F84430604B604829F027FC07F13A
:102C1000080104235E4A2046A161FFF77BFE30B124
:102C20000423584AFA2184F844305A4BECE707F160
:102C30000C010423584A2046A161FFF76BFE0646AB
:102C400038B105234F4A40F2011184F84430534B08
:102C5000DAE707F110012046FFF76CFE054620B9C0
:102C60004F4B40F20711474ACEE707F114080423FF
:102C70004C4A20464146FFF74DFE00284BD0062324
:102C800084F844300423484A07F118012046FFF72E
:102C900041FE002841D0072384F844304544434F87
:102CA0000C2220462946FFF769FE05F10806042399
:102CB0003A4620463146FFF72DFE94F8443000286E
:102CC0004AD0002B4AD1A36A291DAB424AD805F14C
:102CD0000C03291D2046A3610191FFF72BFE304410
:102CE000019960622046FFF725FE06440422204633
:102CF0003146FFF743FE04232D4A31462046FFF7B5
:102D000009FE002839D10123E6616361A3692362CA
:102D100002B0BDE8F0810126B4E7002EBED007F175
:102D200020012046FFF706FE4FF47A7307F13001C9
:102D3000B0FBF3F060602046FFF7FCFD07F14001B7
:102D4000A0602046FFF7F6FD07F14401E060204651
:102D5000FFF7F0FD2061A1E7002BB8D00A2384F82B
:102D60004430D5E72046FFF7E5FD08300C22054446
:102D700020462946FFF702FE97E70B23EFE700BF47
:102D8000E7E3020805E40208ECE30208F7E10208C1
:102D900032E4020837E402084FE4020854E402086F
:102DA0006AE4020876E402087BE4020880E4020890
:102DB00085E40208C0E90A2100220263FFF70CBF84
:102DC00010B5002304460846E3620B6821639B6844
:102DD0009847A0622046BDE81040FFF7FDBEF0B462
:102DE000BDF81050BDF814602AB123B1CDE90456E6
:102DF000F0BCFFF728BDF0BC704700002DE9F04F94
:102E00009946436985B004460F4690462BB92A4B34
:102E100077212A4A2A4829F021FB08228169FFF7F5
:102E2000ADFDA66920463146FFF799FDB11C8346EA
:102E30002046FFF794FD311D82462046FFF77AFDBC
:102E400006F10801A36A054642189A4227D243F2C6
:102E500030039B4517D146F264339A4513D190B1A4
:102E60000246A1612046FFF789FD0E9B01462A46D6
:102E70002046CDF80080CDE901933B46FFF7AFFF38
:102E8000636901336361A3692B448DB1A361A369B5
:102E9000626A013323F001039342A3610AD1012046
:102EA000236A6061A36180F0010005B0BDE8F08F86
:102EB0000833EBE70020F6E7BBE202088AE40208E9
:102EC000F7E10208012070470C2070470C2303FB38
:102ED0000100083070470C2303FB010008307047E5
:102EE00001207047C4207047C42303FB0100083051
:102EF0007047C42303FB010008307047012070476E
:102F00001020704700EB01100830704700EB0110F3
:102F100008307047084600F0E1BE0000034B10B5D2
:102F20000446036017F054FA204610BD98E50208E5
:102F300010B50446FFF7F2FF1421204628F013FFD6
:102F4000204610BD034B10B50446036017F040FA4D
:102F5000204610BD64E5020810B50446FFF7F2FFF5
:102F6000CC21204628F0FFFE204610BD034B10B5B3
:102F70000446036017F02CFA204610BD30E5020825
:102F800010B50446FFF7F2FF1821204628F0EBFEAB
:102F9000204610BD084B10B5044640F8F83BFFF73B
:102FA000BDFF04F12C00FFF7CDFF04F11400FFF783
:102FB000DDFF204610BD00BFCCE5020808B5024881
:102FC000FFF7E8FF08BD00BF8805002410B50446E0
:102FD000FFF7E0FF4FF41C71204628F0C4FE2046A6
:102FE00010BD00002DE9F34100F0FAFC0024054675
:102FF00000F0FAFC234601462246284600941EF0C3
:10300000F5FE274B274A2046274D1A6001F096F817
:10301000264B274A27489A601EF0A0FD2B68BFF375
:103020005B8FDB0735D4284628F09FFE88B3224CFF
:10303000224B04F58A7604F1140004F12C0804F103
:10304000F80723606060C4F80880E760266117F025
:10305000C1F91B4B4046636117F0BCF9194B384668
:10306000E36217F0B7F9184B04F58670C4F8F8302E
:1030700001F0DAF8224604F58671304601F0CAF80C
:10308000304600F02BFE114829F006FA284628F0B9
:1030900078FE0F4802B0BDE8F041FFF785B800BFE9
:1030A0009C5E01244016002484050024441600245C
:1030B000F80700240800002488050024CCE5020855
:1030C00030E5020864E5020898E50208BD2F000813
:1030D000B8150024704700000148FFF77BB800BF17
:1030E000B815002470B5274E274B284C3046284D84
:1030F0002360FFF711FA284621F026FF25481CF02F
:1031000063FF254B00224FF4807124481A8683F810
:1031100058205A6683F87020DC60C3E912122049F7
:10312000C3E91A121F490B604FF4F07101801E4869
:1031300001804FF488711D4801801D4801801D49A0
:10314000C3E90422C3E90622C3E90822C3E90A222B
:10315000C3E90E22C3E91022C3E91422C3E91722EE
:10316000C3E901650A701449C3F8802083F834204C
:1031700019605A671149C3F88420114A9967DA67C0
:1031800070BD00BF1808002464DC02081408002485
:1031900044160024F8070024B81500242C5E0124EE
:1031A00001000001385E0124325E01242E5E0124FC
:1031B000345E0124305E0124F0DD020800000101CC
:1031C0003CDC02080148FFF75BB900BF1808002487
:1031D0000020704781807047C1807047018170472F
:1031E000418170477047704770477047704710B40F
:1031F000C4880368121B84885B6D091B12B25DF8DA
:10320000044B09B218474FF6FF7383814FF0FF3329
:1032100003621368C3611060704790F825201AB1EB
:1032200090F8242002B118607047002070478B8806
:10323000838001207047704780F82610704790F80F
:1032400026007047002210B5B1F90840B1F90A1004
:10325000028042808480C18010BD002202804280B2
:103260008280C28070470177704780ED080A7047FE
:1032700080F82410704780F82510704701207047AF
:10328000983070478C30704784307047704700002A
:10329000034B902283F85A2383F85823704700BFCA
:1032A00000E100E0094A0A49D3680A48C3F30A0367
:1032B000013B9BB20B801169C1F30A010139018006
:1032C0001364536B43F001035363704700100050C5
:1032D000FA160024F8160024014BD3F8AC0070470E
:1032E00000100050024B0122C3F8AC105A62704724
:1032F000001000500163C0E90D217047704770470E
:10330000704700EB8100114640680368DB6818478E
:1033100080F83C10704710B50446482128F023FD82
:10332000204610BD10B504462C2128F01CFD204677
:1033300010BD10B50446BC2128F015FD204610BD77
:1033400038B5044617F043FB23685D6E1BF00EFD95
:1033500001462046A8472368074A2046D3F88850EC
:1033600000230649A847064B064A5A60064A1A63D4
:103370009A63064A5A6338BD00F40B7000FA057070
:10338000B0160024381F002400EE117000FA05006A
:1033900017F004BB17F0CCBA17F02DBC38B50446B3
:1033A0000D46406C4FF0FF3107F0D1FD606C07F027
:1033B000F0FD242303FB0545002385F8283094F80D
:1033C00028300BB9236BA36338BD90F8252012B1C8
:1033D00003685B6918477047124A5369DB0370B58D
:1033E0001ED50023C2F88430BFF34F8FD2F880304F
:1033F00043F6E074C3F3C900C3F34E335B0103EA41
:103400000406014646EA81750139C2F87452F9D2C0
:10341000203B13F1200FF2D1BFF34F8FBFF36F8F1B
:1034200070BD00BF00ED00E008B531B1044B4FF4B2
:10343000B871044A044829F011F890F8290008BD31
:10344000D8E50208ECE5020876E7020810B531B1CC
:10345000064B4FF4B571064A064828F0FFFF406856
:1034600011460368BDE810401B6B1847D8E50208F9
:10347000B9E7020876E7020808B529B1034B7921BC
:10348000034A044828F0EAFFC06808BDD8E50208EE
:1034900067E9020876E7020810B5044629B1194B1E
:1034A000A221194A194828F0D9FF052A15D8DFE8C2
:1034B00002F0031115171C22406803681B69984726
:1034C00058B1012384F8293084F82C300023C4E952
:1034D000043302E0002380F8293010BD0362F5E7D1
:1034E0000362012380F82A30F0E7002380F82930B6
:1034F00001230362F1E7003B18BF012380F82D3060
:10350000EBE700BFD8E502081CEB020876E70208EB
:1035100010B50C4611461A462CB1064B9021064AAE
:10352000064828F09BFFC46040680368BDE810406F
:103530009B681847D8E50208F0EC020876E7020815
:1035400008B529B1054B8221054A064828F086FFB7
:10355000C0E90411C0E9063208BD00BFD8E5020881
:10356000CBEE020876E7020890F83D3010B504462D
:1035700053B14FF0FF31406C07F0E9FC002384F8B1
:103580003D30012384F83E3010BD000010B50446E4
:10359000104629B1134BD021134A144828F05EFF7E
:1035A00094F8293033B1124B1B6893F86B20636990
:1035B0001344636194F82B300BB9012010BDA3684C
:1035C000036303685B699847002394F82C0084F830
:1035D0002B300028F1D194F82D30002BEED184F857
:1035E0002900EBE7D8E5020887F0020876E7020831
:1035F000385E012410B5174C17F0DCF994F8293027
:1036000013B994F82A30ABB1E169D4E905325343D8
:1036100022694A4393420DD394F83C0038B19B1A77
:10362000B3FBF1F2994298BF02F1FF3262620123CB
:1036300084F82E300123206C84F83D3007F03CFDE7
:1036400094F83E302BB1606C07F0A3FC002384F8A3
:103650003E3010BDB0160024084B4FF08062C3F816
:103660008820BFF34F8FBFF36F8F4FF08072C3F886
:103670008820BFF34F8FBFF36F8F704700E100E0EA
:10368000034B4FF080629A604FF080729A607047EF
:1036900000E100E0F8B590F82830DBB94FF4807213
:1036A000866B0125C360828506F5BF22036102F5A2
:1036B000007243618361C36103624362856280F883
:1036C0002E30D0E90C473C44A2420AD90B4B522180
:1036D0000B4A03E00B4B40F2C5110B4A0B4828F094
:1036E000BDFE82634FF4F07286601846CA864FF4BE
:1036F000887281F834500A870B63F8BDDFF3020843
:103700001AF4020828F2020858F2020876E70208C2
:10371000002370B5124E04468380124B0360336859
:1037200093F858200AB1D86C00B998680368DB6A2E
:103730009847431E5D425D413368D86C30B10368E1
:10374000DB6A9847012808BF45F001052DB9064BF3
:103750002721064A064828F081FE204670BD00BF9A
:10376000385E0124C0F60208BDF502081BF6020807
:1037700054F6020870B5244E3568BFF35B8F15F020
:1037800001053FD1304628F0F0FA00283AD01F4C0E
:103790001F4B04F134002561E584A562A585C4E9C9
:1037A0000035C4E902551CF06EFE04F1580019F012
:1037B00043FB184B2046A365174B40F8843BFFF7AB
:1037C000A7FF164B1648C4F884302433C4F8905031
:1037D000C4F88C306423C4F89C50C4F8A850C4E9E1
:1037E00028350023C4F8AC30C4F8B030C4F8B43085
:1037F000C4F8B8300B4BC4F8983028F04DFE304672
:1038000028F0BFFA014870BDAC160024FC16002455
:103810000C210308E0F6020858F7020858210308B3
:103820008D3200089021030810B5144C236823B38F
:10383000134B144A1B6C11888B4213D1124B1988FD
:1038400003F09AFD226892F86A30013382F86A30F8
:10385000FEF7EAFD206817F0F9FD0020BDE81040F2
:10386000FEF7CABB03F088FD206803681B6A98470F
:103870000020BDE81040FEF7F1BB10BD385E01240A
:1038800000100050FA160024F81600242DE9F74322
:10389000044601264FF4B4674FF0FF31206C07F067
:1038A000E0FB4FF0FF31606C07F051FB94F82E30D5
:1038B00043B36568D4F820802B6884F82B60B8F196
:1038C000000F23D05B6A41462846984700232362B5
:1038D0002B684FF4F07200972846D3F814804FF409
:1038E0008873A168C047236984F82C0001332361E1
:1038F000F0B12B6828469B6A984701380023E060A6
:1039000084F82E30606C07F044FBC5E7626A002A39
:10391000DED02846D3E909939847616A01442846D6
:10392000C8472369626AC4F8248013442361CFE73F
:103930000120E3E7014808B5FFF7A8FFB01600240F
:1039400038B5154900251548FEF7CCFF144C154B2A
:103950002A462946012023604FF48073A563A3877C
:10396000A38584F83E5084F82E50C4E90C55C4E970
:103970001055C4E90155C4E90355C4E90555C4E926
:103980000755C4E9095507F022FB2064284607F0D3
:10399000A6FA606438BD00BFB8170024381F0024A1
:1039A000B0160024A4F70208704710B5044604219D
:1039B00028F0D9F9204610BD012908B506D0022902
:1039C00008D059B900F0F8FB006808BD00F0F4FB1E
:1039D0004068FAE700F0F0FB8068F6E70020F4E7C3
:1039E00000487047F4F702080220704713B500241E
:1039F00051B1036801AA01948DF803409C680DF150
:103A00000303A04702B010BD0846FBE7C08970471A
:103A1000008A7047C088704780887047807A00F0BD
:103A20007F007047807AC00970470020704700000F
:103A30009FED010A704700BF00000000704770470B
:103A400000F598730868496803C37047704770476A
:103A50004160704770470000064BC0F84801C0F84D
:103A60004C310023C0F8503100F5A273C0F840314A
:103A7000704700BF1D3B0008012303727047704769
:103A8000704710B441680346C2689B68541001EB4C
:103A90006200D20748BF0A595DF8044B48BFD358AB
:103AA000184743682BB183682BB9C06800F0010048
:103AB0007047184670470120704710B504460C2126
:103AC00028F051F9204610BD10B50446102128F009
:103AD0004AF9204610BD10B504464FF4AE7128F0E7
:103AE00042F9204610BD10B51BF040F90368BDE84F
:103AF0001040DB6B184710B50446D0F8400158B1B0
:103B00000368DB68984738B1D4F8400103689B68C4
:103B100098470023C4F8403110BD00002DE9F14F53
:103B2000D0E9555A0746A86803681B6A9847C32816
:103B300005D8464BA321464A464828F08FFC6868C2
:103B400003681B6A98470F2803D8434BA421404AB7
:103B5000F2E7E86803681B6A98470B2803D83F4BD5
:103B6000A5213B4AE8E7DFF8FC901BF0FFF80430A2
:103B70001BF021F9D9F8000010B10368DB68984701
:103B8000D9F8000010B103681B689847DFF8D880A7
:103B9000D8F8000010B103685B699847D7F83C017A
:103BA00010B103685B689847D8F8000010B103684B
:103BB0001B689847D7F83C0110B103689B68984789
:103BC000E86800214FF0000B03685B6A9847244BBC
:103BD0000446C0F804B00360594680F808B0A868ED
:103BE00003685B6A9847064600F070FB68685946B0
:103BF00003685B6A98470546314600F043FBC9F805
:103C00000040C7F83C51C8F80060E5B12B1DCAF868
:103C1000003030463368C5F808A0DB68F563984784
:103C20002B6828461B689847214630461DF08EF8C1
:103C3000236820461B699847236820465B6901B0CA
:103C4000BDE8F04F18472B46E1E700BF1CF802081B
:103C5000AAF80208AEF90208F5F9020898FA020873
:103C6000B0FB0208805E01247C5E0124044B1B68CB
:103C700093F858200AB1D86C00B99868704700BF13
:103C8000385E012470B504460D4616461BF034F923
:103C90000E4A002114600E4A22600E4AC4E95121E6
:103CA0000D4A1068C4E953110268C4E94F119268C3
:103CB000C4E955659047FFF7D9FF22F02CFAFFF7CA
:103CC000D5FF22F09FFA204670BD00BF8C5E012414
:103CD0005CFB020844FB0208385E0124064BC0F876
:103CE0004801C0F84C310023C0F8503100F5A273F0
:103CF000C0F84031704700BF1D3B0008406A704764
:103D0000806A704770478B88C069DB0A0A6850F880
:103D100023001044704710B5C2B1137BB3B1547B7C
:103D2000D27A240204F4E0641443026A98B202EBEB
:103D3000840213888B4202D192F9020010BD05D88B
:103D40000138043280B20028F3D1F7E70020F5E70C
:103D500010B504462C2128F006F8204610BD0000BE
:103D600030B58BB00446BDF860500895BDF85C5086
:103D700007959DF8505006959DF84C5005959DF877
:103D8000485004959DF8445003959DF84050029585
:103D90009DF83C500195BDF8385000951CF030FC62
:103DA000064B20462360159BE361169B2362199BFB
:103DB00063621A9BA3620BB030BD00BFD4FB020844
:103DC000704770477047704770477047704710B52D
:103DD0000446C42127F0C7FF204610BD036870B514
:103DE00004461B6B154698472368204629465B6BA3
:103DF000BDE8704018470000002310B5C0E901334A
:103E0000C0E90333C0E90733C0E905334FF48073D9
:103E100004468384054B03600B88C384FF2380F82A
:103E2000283019F064F8204610BD00BF9022030826
:103E30002DE9F743044600251CF0DCFD314B2646F6
:103E4000E56304F16C0804F1980746F8403B4FF62F
:103E5000FF792D4B01A940462566A566ADF8049073
:103E6000C4E910354FF48073A4F86430FF23C4E92B
:103E7000125584F86630C4E91455C4E91655FFF7A5
:103E8000BBFF01A93846ADF80490FFF7B5FF2A46FD
:103E900029463046FFF7A2FF30464FF4F07104F197
:103EA0000409FFF79BF930464FF48871FFF798F942
:103EB0004FF07F4331464846A36616F09FFA2A46E4
:103EC00029464046FFF78AFF012301A94046ADF885
:103ED000043019F00CF84146484616F08FFAF122EA
:103EE00038463621FFF77AFF01A93846ADF804506D
:103EF00018F0FDFF4846394616F080FA204603B018
:103F0000BDE8F0833CFC020828220308704700004B
:103F100030B5164D8FB02C68BFF35B8F14F00104E1
:103F200020D1284627F021FFE0B13F23012210498C
:103F30000993104B10480893104B0A940594CDE94F
:103F400006430423CDE903320A23CDE90B44009351
:103F5000CDE90144FFF704FF094828F09DFA2846FF
:103F600027F00FFF04480FB030BD00BF801F0024B2
:103F7000EC2903081C2A0308841F0024282A0308AC
:103F80000D3F00087047000030B5164D8FB02C680B
:103F9000BFF35B8F14F0010420D1284627F0E5FE23
:103FA000E0B13F23012210490993104B10480893B8
:103FB000104B0A940594CDE906430423CDE903325E
:103FC0001423CDE90B440093CDE90144FFF7C8FE6B
:103FD000094828F061FA284627F0D3FE04480FB0BC
:103FE00030BD00BFB01F0024FC290308202A0308AD
:103FF000B41F00242C2A0308853F000870470000E6
:1040000030B5164D8FB02C68BFF35B8F14F00104F0
:1040100020D1284627F0A9FEE0B13F230122104914
:104020000993104B10480893104B0A940594CDE95E
:1040300006430423CDE903322823CDE90B44009342
:10404000CDE90144FFF78CFE094828F025FA2846FF
:1040500027F097FE04480FB030BD00BFE01F0024DA
:104060000C2A0308242A0308E41F0024302A03082A
:10407000FD3F000800207047002070470EB403B5D4
:1040800003AB002153F8042B01931BF0BDFD02B0DC
:104090005DF804EB03B070470CB407B504AB53F8FC
:1040A000042B01931BF0B0FD03B05DF804EB02B0EC
:1040B00070470000436C10B5044673B3038F2BB9EF
:1040C000184BC521184A194828F0C8F9C38E00EBCF
:1040D00043035B8C0BB31DF005FB238F012B03D82F
:1040E000134BCB21134AEEE7E28E40F63F10531CF0
:1040F0009BB2092B194688BFA3F10A0104EB4101C9
:10410000498C814209D10A2B04EB420228BF0023CB
:10411000508C04EB4303588451842046BDE8104082
:104120001DF0E2B968FC020871FC02081CFD0208DF
:1041300066FD020874FD02081DF09FB938B518BB72
:10414000124B13481C681349B4B122682244026020
:10415000626822440A60A26814440F4B00221A804D
:1041600000F02AF8054600F025F80C4B1C600C4BBB
:104170001D600C4B188007E00B4B03600B4B0B6072
:104180000B4B1C68002CE8D138BD00BF1020002468
:1041900014200024182000241C200024905E0124F8
:1041A000985E0124945E0124382A0308342A030807
:1041B000402A030800207047004870472020002450
:1041C00010B5054CFFF7E0FE2060FFF719FF6060B7
:1041D000FFF79EFEA06010BD2020002410B5002433
:1041E00004600C6014601C6010BD704710B504467C
:1041F0004FF4AE7127F0B7FD204610BD10B5044650
:10420000D0F8580100F014F82046BDE810401AF02C
:104210002FBE000010B50446FFF734FD014B2046C9
:10422000236010BD50FE0208002202600271704738
:1042300010B504464FF40051064802F06FFB011E12
:10424000206818BF0121036821719B68BDE81040F8
:10425000184700BF0008025870470438704770477D
:10426000C0680368DB6A1847A0F10400FFF7F8BFD5
:1042700010B50446102127F076FD204610BDA0F1B0
:104280000400F5E70022C1608260044A10B502F123
:10429000080424320460426010BD00BF9CFE020886
:1042A00070470000034B10B504460360FFF78DFD17
:1042B000204610BDD4FE020810B50446FFF7F2FFF9
:1042C000C421204627F04FFD204610BD10B50446FE
:1042D000FFF7AEFD014B2046236010BDD4FE02085F
:1042E000FFF774BD80F8BD1098301BF0B8BD40F2E8
:1042F00001134FF4F07200200B8005238B704FF4F4
:104300008873C1E90123704790F82430012B04BF62
:10431000002380F82430002070470020704710B43C
:1043200004690089A4465DF8044B604710B4C46872
:104330000089A4465DF8044B604770B500F118058C
:104340000E460978284600F0F5F8044631792846EB
:1043500000F0FCF80444317A284600F003F90444E4
:10436000317B284600F00AF90444317C284600F0ED
:1043700011F90444317D284600F018F9C44214BFF5
:104380004FF0FF30002070BD183000F027B937B56E
:1043900000F118050C4601A9284600F0BEF808BB3C
:1043A0009DF80430052B98BF184604232060032194
:1043B00028460DEB030200F09DF8B0B99DF80430DB
:1043C0009DF805201B0203F4706313439DF807203A
:1043D00063609DF806301B0203F470631343A3600F
:1043E00003B030BD4FF0FF30DFE74FF0FF30F7E7AD
:1043F000183000F08DB80121183000F0E3B800212A
:10440000183000F0DFB810B590F8243004466BB9CE
:10441000036898472046FFF7F2FF00384FF001038A
:1044200018BF012084F82430404210BD0020FCE772
:104430000020704770B500F1180588B00C4628467A
:10444000694600F06AF890BB9DF80030052B98BFD4
:10445000184620601E236A460321284600F04AF8C9
:1044600040BB21466D4614342A78063515F8056C94
:104470001302920903F47063334315F8036C41F897
:10448000043F8C4215F8043CCA634FEA032303F44B
:10449000706343EA06034B6115F8023C8B6215F822
:1044A000013C4FEA13130B65DED108B070BD4FF02D
:1044B000FF30CEE74FF0FF30F7E7000090B14A68D9
:1044C0000B6842600A8903600281CA68C2600A6997
:1044D00002614A6900624261044AC261044A82611F
:1044E00003B118474FF0FF30704700BF1F4300086B
:1044F0002D43000810B4D0E90140A4465DF8044BF8
:10450000604710B404688068A4465DF8044B6047B7
:1045100001230A461946FFF7EDBF10B50A460C46BF
:1045200001230221FFF7E6FF18B9237803F00F03F8
:10453000237010BD07B501238DF807100DF1070298
:104540009121FFF7DEFF03B05DF804FB07B50123FF
:104550008DF807100DF107029221FFF7D2FF03B08B
:104560005DF804FB07B501238DF807100DF1070274
:104570009321FFF7C6FF03B05DF804FB07B50123E5
:104580008DF807100DF107029421FFF7BAFF03B071
:104590005DF804FB07B501238DF807100DF1070244
:1045A0009521FFF7AEFF03B05DF804FB07B50123CB
:1045B0008DF807100DF107029621FFF7A2FF03B057
:1045C0005DF804FB07B501238DF807100DF1070214
:1045D000A421FFF796FF03B05DF804FB0A46012310
:1045E000A821FFF787BF4FF080624FF480334FF46C
:1045F0008071C0E900234FF480524FF48063C0E91A
:1046000002324FF48043C0E9043283614FF48023C7
:10461000C0E907130020704770B59AB00E460546F2
:104620000021144606A8502228F02EFA1422002158
:1046300001A828F029FA2EB9012C50D14FF0FF30F3
:104640001AB070BD0423621E0993102053425341D7
:10465000002E4FEAC3020B9214BF012200224FEA40
:1046600002114FEA82220A9140F2FA510D924FEA6A
:10467000C32208BF05210F924FF44052089106A9AA
:104680000E920CBF4FF080724FF0806214924FEA8E
:10469000C3624FEA437316920CBF0022052218939F
:1046A000012C4FF00103179202930CBF022201224A
:1046B0004FF48003159241F28832CDE90430284648
:1046C00003F043F80028B9D141F2883201A9284605
:1046D00003F078F9003818BF01204042B0E7012309
:1046E000B1E770B596B00C4606461546002150223B
:1046F00002A828F0C9F90023012CCDE9003304D128
:104700001DB94FF0FF3016B070BD0123002C02938D
:1047100018BF0423059314BF012300234FEA03139A
:10472000069340D1002D0CBF0B230C23002C0493C7
:1047300041F2883202A90CBF4FF480734FF48063BA
:10474000002D304609930CBF4FF400534FF44053F3
:10475000002C0A930CBF4FF080734FF080631093CE
:104760000CBF08230623139302F0EFFF0028C8D1E3
:1047700002230293D4B9002D18BF122304930023FF
:1047800041F2883202A93046139302F0DEFF00287E
:10479000B7D100906946304603F064F9003818BF7D
:1047A00001204042AFE74EF61343BFE741F2ED234D
:1047B000E4E710B596B004464C22002103A828F087
:1047C00063F900234FF0080C4FF4006141F2883286
:1047D0002046CDE9003301230293042305931023DF
:1047E000CDE9063C4EF611634FF0006C04934FF494
:1047F000806309934FF44053CDE90A314FF0806351
:1048000002A910930623CDE912C34FF0005314936D
:1048100002F09BFF18B14FF0FF3016B010BD02231D
:1048200041F2883202A9029341F2ED23CDE913004F
:104830002046049302F089FF0028ECD100906946DD
:10484000204603F00FF9003818BF01204042E4E78A
:104850002DE9F0419AB00F4605460021164606A8FC
:10486000502228F011F91422002101A828F00CF997
:1048700037B9012E63D14FF0FF301AB0BDE8F08197
:104880000423711E099341F2883228464C424C4160
:10489000002F06A94FEAC40314BF4FF001084FF0E0
:1048A00000080B934FEA08130A9340F2F96308BF1C
:1048B0000623089302F049FF0028DCD1002F40F2C4
:1048C000FA530C9041F2883208BF052306A9284606
:1048D00008934FEA88230D934FEAC4230F934FF4B4
:1048E00040530E930CBF4FF080734FF080631493CE
:1048F0004FEAC4634FEA447416930CBF00230523A8
:10490000012E189417930CBF02230123159302F074
:104910001CFF0028AFD102231022039001A92846D2
:10492000CDE901334FF48003CDE9043241F28832FE
:1049300003F048F8003818BF012040429DE70123EA
:104940009FE7F0B595B00E4605461446002150226B
:1049500068461F4628F098F82EB9012C46D14FF032
:10496000FF3015B0F0BD04230393631E06975A422F
:104970005A41002E4FEAC203059314BF01230023BE
:104980004FEA0313049347F28D2308BF7223029367
:104990000CBF4FF480734FF4806307934FEAC22338
:1049A0004FEAC26209934FF440531092089314BF28
:1049B0004FF080634FF080730E9319D0012C14BF19
:1049C0000123022341F28832694628460F9302F000
:1049D000BCFE0028C3D141F288321AA9284602F051
:1049E0005FFF003818BF01204042BAE70123BBE750
:1049F0000123E7E72DE9F04194B00F46064615463E
:104A0000002150226846984628F03EF837B9012D1B
:104A10004ED14FF0FF3014B0BDE8F0810423039372
:104A20006B1E41F2883269465C423046CDF81880F0
:104A30005C41002F4FEAC403059314BF01230023F8
:104A40004FEA0313049347F28E1308BF71230293B6
:104A50000CBF4FF480734FF4806307934FEAC42375
:104A600009934FF4405308930CBF4FF080734FF0FD
:104A700080630E934FEAC4634FEA447410930CBFF3
:104A800000230523012D129411930CBF022301234F
:104A90000F9302F05AFE0028BBD141F288321A99D6
:104AA000304602F03DFF003818BF01204042B2E717
:104AB0000123B4E770B594B00D46064614460021B4
:104AC0005022684627F0E0FF0DBB012C21D00123C6
:104AD000621E03936946304654425441002D41F210
:104AE000883214BF012300234FEAC4044FEA0313A2
:104AF0000594049346F2996308BF6623029302F07B
:104B000024FE003818BF0120404214B070BD0423B9
:104B1000DEE74FF0FF30F8E770B594B00D4606467B
:104B2000144600215022684627F0AEFF0DBB012C31
:104B300021D00123621E03936946304654425441FA
:104B4000002D41F2883214BF012300234FEAC40430
:104B50004FEA03130594049349F6661308BF99239B
:104B6000029302F0F2FD003818BF0120404214B059
:104B700070BD0423DEE74FF0FF30F8E7114A08B5B7
:104B800013680BB9002008BD013B1360002BF9D15D
:104B90004FF480410C4801F027FE0B484FF40041D0
:104BA00001F022FE094A0A48D2F8F43023F08003CB
:104BB000C2F8F43002F044F80028E3D06FF00700A8
:104BC000E1E700BF2C2000240014025800440258E2
:104BD000342A00240023012210B5416004460362F8
:104BE000C0E90232C0E90433C0E9063301F0D6FF60
:104BF000014608B1012010BD204602F0F8F9014637
:104C00000028F7D1204602F018FA003818BF01201A
:104C1000F1E70000A04BA1482DE9F04F036093B0ED
:104C20009F4B1A68009201321A60009B002B40F0E3
:104C3000C28002F0D7F9002840F0BD80994D4FF4B2
:104C4000804201210426D5F8E030974843F0200344
:104C5000C5F8E030D5F8E03003F020030A930A9B52
:104C6000D5F8E03043F02003C5F8E030D5F8E03067
:104C7000119603F020030B930B9B1223CDE90D2318
:104C80000223CDE90F130DA901F0CAFC4FF4004334
:104C90000DA985480D93119601F0C2FCD5F8F430AA
:104CA00043F08003C5F8F430D5F8F43003F0800306
:104CB0000C930C9BD5F89C3043F08003C5F89C30D6
:104CC000D5F89C3023F08003C5F89C3003F07CFEBF
:104CD00000286AD0754B4FF0100A009A03EB50037E
:104CE000DFF8D0B19146B3FBF0F000EB4005704B1C
:104CF00086000146C5F132051B68C6F5C37625EA74
:104D0000E57526EAE67688464FF0000CB8F5AF7FE9
:104D1000CDF804C00CF1010C5AD30027BE46BD42A9
:104D200050D8BE424ED392454CD0142404FB03FA13
:104D30000133019C0BEB0A097F2B4BF80A20C9E9D0
:104D4000014E3CD95A4A1360594B40F6C412594996
:104D500000271B6802924FF0FF3204934300C3F513
:104D6000806B03F13204A3F634030BF1010B0894BA
:104D70000993049B9F4237D17F2A16D814214D4BAB
:104D80004A4399189B580C7C44EA03744B681B05F2
:104D900003F470031C438B681B0403F470231C434F
:104DA000CB681B029BB22343009300993B48FFF75B
:104DB00011FF00286CD1002013B0BDE8F08F92469F
:104DC0004FF001090EF1010E0F44BEF1100FA6D1F4
:104DD000BCF1100F884499D101320144102A92D1BC
:104DE000B9F1000FAED1AFE70B684FF0000C089C93
:104DF00003FB00031C44ABEB030503946C00039D11
:104E00000194099C1C44079440F21454CDF814C03A
:104E1000A5F132060CF1010CA5422ED9B0EB960F8C
:104E20002BD2079C4FF0000EDDF80C806619DDF8E0
:104E3000049006F2A11A40F21244CDF818E00EF1E7
:104E4000010EA24512D8B8F5167F0FD340450DD2FA
:104E500036EA260A28BFCA46029CA24506D2059A0F
:104E6000CDF808A00A61069ACA603A46BEF5807F6E
:104E70001E44A9EB03099844DBD1019CBCF5807F5B
:104E80001D44A4EB03040194BED10137143170E733
:104E90006FF0070090E700BF001C0058342A002480
:104EA0002C200024004402580014025800CA9A3BE7
:104EB000302A0024302000241FB54FF47A74009269
:104EC0000A4601460848CDE90134012301F0D2FE2B
:104ED00040B1054802F089F804280CBF6FF0650066
:104EE0006FF0030004B010BD342A00241FB54FF446
:104EF0007A7400920A4601460848CDE9013401233C
:104F000001F092FF40B1054802F06FF804280CBF91
:104F10006FF065006FF0030004B010BD342A002468
:104F200000F0D4BC30B5214C85B02148A27861781E
:104F3000FFF78EFC18B16FF0040005B030BD0323FD
:104F40001B4800934FF44073A2786178FFF7F9FC97
:104F50000028F0D1A27861781548FFF779FC034664
:104F60000028E8D1012512480095A2786178FFF762
:104F7000E8FC04460028DED1282000F0ADFC2246E3
:104F800029460B48FFF748FB03460028D3D103AA64
:104F90002946009202460648FFF72CFD0028CAD198
:104FA0009DF80C30AB42C8D0C5E700BF882A00246A
:104FB000902A002430B5274D85B0274CAA7869780F
:104FC0002046FFF745FC18B16FF0040005B030BD76
:104FD0000323AA786978204600934FF44073FFF7C3
:104FE000B0FC0028F0D1AA7820466978FFF730FCA1
:104FF00003460028E8D10222697820460092AA7868
:10500000FFF79FFC0028DFD1282000F065FC4FF05F
:1050100080732046E3604FF08053E36202F00EFBA2
:10502000A8B9012220461146FFF7F6FA03460028E8
:10503000CAD103AA2046009201221146FFF7DAFCEA
:105040000028C1D19DF80C30022BBFD0BCE76FF017
:105050000300BBE7882A0024902A00240E4A042378
:10506000C0E900230A680023026102228360C0E9CC
:1050700005234A6842628A6803638262CA68012A19
:10508000C0E9073306BF4FF080524FF080731A46D5
:10509000C360C26202F0D2BA0050005210B598B993
:1050A0000B4CA37861785BB901220A48FFF719FB22
:1050B00010B16FF0040010BD022300202370FAE746
:1050C0000448FFF776FBF3E76FF00100F3E700BF5A
:1050D000882A0024902A002410B550B9094C23785E
:1050E000022B09D1084802F0ECFC40B901232370DF
:1050F00010BD6FF00100FBE76FF01A00F8E76FF0EA
:105100000300F5E7882A0024902A002410B500281F
:1051100056D12D4C2378022B4BD000234FF48061C5
:105120002A482380A37001F05FFB0421284801F086
:105130005BFB4021274801F057FB4FF400612648F4
:1051400001F052FB4FF48051234801F04DFB042144
:10515000224801F049FB4FF400511F4801F044FB85
:1051600010211D4801F040FB20211B4801F03CFBB1
:105170004FF40071174801F037FB8021164801F009
:1051800033FB174B1748DA6F42F48042DA67DA6F65
:1051900022F48042DA67D3F8D42022F48042C3F8A4
:1051A000D42002F0BFFA00280CBF00206FF00300EB
:1051B00010BDFFF791FF0028AFD06FF00400F7E7B4
:1051C0006FF00100F4E700BF882A002400140258A1
:1051D0000004025800180258000C0258001002582F
:1051E00000440258902A00242DE9FF410D4616463E
:1051F000002856D12E4C2378022B55D06378012BF2
:1052000046D10129A27809D1964207D10123002075
:1052100065702370A67004B0BDE8F081254F0121B0
:105220003846FFF715FB034678BBADF80C0000903D
:105230003846A2786178FFF784FB804628BB282097
:1052400000F04AFBA378012B06D13846C7F80C8042
:10525000C7F82C8002F0F2F9002216481146FFF739
:10526000DBF9034688B903AA0146009202461148B9
:10527000FFF7C0FB48B99DF80C3033B9012DC5D1FB
:10528000A3784BB9FFF796FE08E06FF00400C2E781
:105290000129BBD1002AF5D1FFF744FE0028BAD17D
:1052A000B4E76FF00100B6E76FF01900B3E700BF95
:1052B000882A0024902A002400B54FF00072AFB075
:1052C00000236846CDE900232023502213930523B1
:1052D000CDE9023204930223CDE905330023CDE961
:1052E0000833079303F09CFC2FB05DF804FB00002B
:1052F0002DE9F0430D469BB0002840F06081B14E8F
:105300003478002C40F05981AF4B4FF002094FF038
:105310000A0811A9D3F8D4200427AC4842F48042EB
:10532000C3F8D420D3F8D42002F480420192019A29
:10533000DA6F42F48042DA67DA6F22F48042DA6789
:10534000D3F8E02042F02002C3F8E020D3F8E020B8
:1053500002F020020292029AD3F8E02042F0020208
:10536000C3F8E020D3F8E02002F002020392039A8F
:10537000D3F8E02042F04002C3F8E020D3F8E02068
:1053800002F040020492049AD3F8E02042F00802AE
:10539000C3F8E020D3F8E02002F008020592059A55
:1053A000D3F8E02042F00802C3F8E020D3F8E02070
:1053B00002F008020692069AD3F8E02042F01002AA
:1053C000C3F8E020D3F8E02002F010020792079A19
:1053D000D3F8E02042F00802C3F8E020D3F8E02040
:1053E00002F008020892089AD3F8E02042F008027E
:1053F000C3F8E020D3F8E02002F008020992099AED
:10540000D3F8E02042F00802C3F8E020D3F8E0200F
:1054100002F008020A920A9AD3F8E02042F0400211
:10542000C3F8E020D3F8E02002F040020B920B9A80
:10543000D3F8E02042F00802C3F8E0200122D3F8BC
:10544000E03003F008030C930C9B4023CDE91139A5
:105450000323CDF85480CDE9132301F0E1F811A91D
:105460005B4811971394CDF8548001F0D9F84FF4AC
:1054700080631394092411A956481193159401F0DF
:10548000CFF84FF4006311A953481193159401F01C
:10549000C7F84FF4805311A94F481193159401F0A8
:1054A000BFF811A94D4811972027159401F0B8F8BD
:1054B0004FF4005311A948481193159401F0B0F826
:1054C000102311A944481193CDF8548001F0A8F895
:1054D00011A941481197CDF8548001F0A1F84FF47B
:1054E000007311A939481193159401F099F880239C
:1054F00011A939481193CDF8548001F091F811A801
:10550000FFF771F8119BCDF8389093FAA3F30BB124
:10551000B3FA83F7002332480D970F936B781093FB
:10552000FFF7CAFE20B16FF003001BB0BDE8F083A7
:105530000DA92B48FFF792FD02460028F3D1014642
:105540002748FFF7B7FA024610B16FF00400ECE706
:1055500001462348FFF7E0FA02460028F5D1012171
:105560001F48FFF7A7FA02460028EED101211C4888
:10557000FFF7D2FA0028E8D1012219481146FFF7B7
:1055800099FA0028E1D1012215481146FFF7C4FA23
:105590000028DAD10123B0706420338000F09CF938
:1055A000B27871780E48FFF737F80028CDD16A78C5
:1055B0002978FFF719FE0028C7D10020B5E76FF062
:1055C0000100B2E7882A002400440258001802585B
:1055D0000004025800140258000C0258001002582F
:1055E000902A00242DE9F0410C4688B0002863D1B0
:1055F0000B685A1EB2F5F07F5ED24A68511EB1F5B3
:10560000887F59D2934228BF1346E2689A4253D802
:1056100070232B4D019002A9ADF810302846294B7C
:105620000293294B0393294B0693294B0593294B4E
:105630000793FEF743FF28B14FF0FF35284608B027
:10564000BDE8F08101A92846FEF79EFE0028F3D1AF
:10565000019B512BF0D1204B2846204FDFF884804E
:105660003D60C8F800301B68984705460028E3D124
:10567000236802A91A4E3868336063687360A368B0
:10568000B360E368F360D8F80030DB69984700281E
:105690000FDB039B22683361049B61687361E368DD
:1056A0001A440B4401320133B2617362C6E9072325
:1056B000C4E76FF00405C1E76FF00105BEE700BF66
:1056C000EC2A0024154C00087D4B0008ED4E000824
:1056D000B94E0008214F00080C000024142B0024B0
:1056E000182B0024402B00242DE9FF410C460028F4
:1056F00053D12B4B01A92B4A1B6810681B69984793
:10570000002847DB284901988E690D6A00283DD0A2
:10571000D1F808E0D1F810801EF0080FDDE902C7CB
:1057200019BF3B4662463A4663461EF0020F1CBF55
:1057300008F1FF33A3EB0C03D1F814C01EF0040FE3
:1057400018BFACEB07020F687B434F6820607A43B9
:10575000CF68B3FBF8F3B2FBFCF2B3426360A26024
:105760008CBFA3EB060CA6EB030CAA428CBF501B0C
:10577000A81A674501D3874205D28B610A620020CF
:1057800004B0BDE8F081C4E90165F8E7C4E90006AA
:10579000A560F5E76FF00400F2E76FF00100EFE7B6
:1057A000402B0024142B0024182B0024224AD2F86A
:1057B000883043F47003C2F88830204A136803F03D
:1057C0000F03062B05D8136823F00F0343F00703DC
:1057D00013601B4B1A6842F001021A6000221A6122
:1057E000184A19680A4015491A600A68120705D54F
:1057F0000A6822F00F0242F007020A6000221249F2
:105800009A61DA611A6299621049D9621049196382
:105810005A639963DA6319645A64196821F4802120
:1058200019601A6643F2D2020A4B1A604FF0006206
:10583000014B9A60704700BF00ED00E0002000526D
:10584000004402587FEDF6EA000202020000FF0168
:10585000800201010040005210B5032000F01AFD43
:1058600002F0B6FE0F49104A8B69C3F30323D35CE1
:1058700003F01F03D8408B6903F00F03D35C0B4A7E
:1058800003F01F0320FA03F31360094B1860002094
:10589000FCF7A4F9044618B9FBF78AFD204610BDB1
:1058A0000124FBE70044025804FF020840000024E2
:1058B0003C000024034A044B11681B780B4413601E
:1058C000704700BF442B002444000024014B18689B
:1058D000704700BF442B002438B50446FFF7F6FF9D
:1058E0000546631C1EBF044B1B78E418FFF7EEFF50
:1058F000431BA342FAD338BD44000024034A536833
:1059000023EA000001435160704700BF00040058C3
:1059100030B5CC0D1430C1F30451072504F0040454
:105920008D408A40035923EA05031343035130BDD8
:10593000806800F0010070478068C0F38000704705
:105940000023F7B50193054690F85C300E46012B15
:1059500000F052820123046880F85C302046FFF793
:10596000EBFF002840F043829C480A688442C2F35F
:10597000846107D0C2F31300002866D18B40E2692E
:105980001343E361726804F1300C1F27900902F0A1
:105990001F0200F00C00974091405CF8003023EAB1
:1059A00007030B434CF800302046FFF7C5FFA36800
:1059B00003F0080318433BD1B26820463168FFF773
:1059C000A7FF864B72699C4248D1E368C3F3C103C9
:1059D0005B0030699A40814F0428336878D004F125
:1059E0006001BC4203F0F84C51F8203049D142EA42
:1059F0000C0242F0004241F8202079493269F069F6
:105A000051F8223023F08073034341F8223096F896
:105A10002020306902F1FF3E51F82030DEF1000213
:105A200023F0007342EB0E0243EA426341F8203058
:105A30002046FFF77DFF002800F0D68000230022DB
:105A400085F85C20184603B0F0BD92FAA2F2B2FAD3
:105A500082F2012302F01F02934090E7614B1B6822
:105A600003F07043B3F1805FE36802D1C3F38203B4
:105A7000AEE713F0100FE368F8D05B0803F00803FB
:105A8000A7E703F0004343EA0C03134341F8203037
:105A900096F821203069571E51F820307A4223F0C1
:105AA00000437A4143EAC27341F82030337E3169C2
:105AB00003F1FF3C226901F01F01DCF1000322F435
:105AC000F04243EB0C03DB028B4013432361AFE74F
:105AD000BC425AD1226EC3F31301226EC2F3846218
