:020000040800F2
:1000000000000524594700080522000807220008BF
:10001000092200080B2200080D2200080000000041
:1000200000000000000000000000000031F900089E
:100030000F22000800000000C1F9000863F1000869
:10004000A9470008A9470008A9470008112200088D
:10005000A9470008A9470008A9470008A9470008C0
:10006000A9470008A94700081D220008A947000861
:10007000A9470008A9470008A9470008A9470008A0
:10008000A9470008A9470008A9470008A947000890
:10009000A9470008A9470008A9470008A947000880
:1000A000A9470008A9470008A94700082522000819
:1000B000A9470008A947000831220008A9470008FD
:1000C000A9470008A9470008A9470008A947000850
:1000D000A9470008A9470008A9470008A947000840
:1000E000A9470008A947000800000000A947000828
:1000F000A9470008A9470008A9470008A947000820
:10010000A9470008A9470008A9470008A94700080F
:10011000A9470008A94700083D220008A947000890
:10012000A9470008A9470008A9470008A9470008EF
:10013000A9470008A9470008A9470008A9470008DF
:1001400000000000000000000000000000000000AF
:10015000A9470008A9470008A9470008A9470008BF
:10016000A9470008A9470008A9470008A9470008AF
:10017000A9470008A9470008A9470008A94700089F
:10018000A9470008A9470008A9470008A94700088F
:10019000A9470008A9470008A9470008A94700087F
:1001A00049220008A9470008552200080000000065
:1001B000A9470008A9470008A9470008A94700085F
:1001C000A9470008A947000800000000000000003F
:1001D0000000000000000000A94700080000000027
:1001E000000000000000000000000000000000000F
:1001F0000000000000000000A9470008A94700080F
:10020000A9470008A947000800000000A947000806
:10021000A9470008A9470008A9470008A9470008FE
:10022000A947000800000000A947000800000000DE
:10023000A9470008A947000800000000A9470008D6
:10024000A9470008A9470008A9470008A9470008CE
:10025000A9470008A9470008A9470008A9470008BE
:10026000A9470008A9470008A9470008A9470008AE
:10027000A9470008A9470008A94700080000000096
:10028000A9470008A9470008A9470008A94700088E
:1002900000000000A9470008A9470008A947000876
:1002A000A9470008A9470008A9470008A94700086E
:1002B000A9470008A9470008A947000861220008CB
:0C02C0006D220008A9470008A9470008AB
:1002D00010B5054C237833B9044B13B10448AFF380
:1002E00000800123237010BD800100240000000065
:1002F000C01C030808B5034B1BB103490348AFF307
:10030000008008BD0000000084010024C01C030818
:1003100001F0FF01102A2BDB10F0070F08D010F8B6
:10032000013B013A8B422DD010F0070F42B3F6D1BA
:10033000F0B441EA012141EA014122F007047FF0D3
:1003400000070023F0E80256083C85EA010586EA2A
:10035000010685FA47F5A3FA87F586FA47F6A5FA66
:1003600087F68EB9EED1F0BC01F0FF0102F0070272
:1003700032B110F8013B013A83EA010313B1F8D11D
:100380000020704701387047002D06BF35460338FE
:10039000073815F0010F07D1013015F4807F02BF37
:1003A000013015F4C03F0130F0BC0138704700BF88
:1003B00081F0004102E000BF83F0004330B54FEA16
:1003C00041044FEA430594EA050F08BF90EA020F83
:1003D0001FBF54EA000C55EA020C7FEA645C7FEA16
:1003E000655C00F0E2804FEA5454D4EB5555B8BF39
:1003F0006D420CDD2C4480EA020281EA030382EAAA
:10040000000083EA010180EA020281EA0303362D3B
:1004100088BF30BD11F0004F4FEA01314FF4801C0E
:100420004CEA113102D0404261EB410113F0004F20
:100430004FEA03334CEA133302D0524263EB4303D7
:1004400094EA050F00F0A780A4F10104D5F1200E75
:100450000DDB02FA0EFC22FA05F2801841F10001D0
:1004600003FA0EF2801843FA05F359410EE0A5F1A4
:1004700020050EF1200E012A03FA0EFC28BF4CF0D5
:10048000020C43FA05F3C01851EBE37101F000458B
:1004900007D54FF0000EDCF1000C7EEB00006EEB98
:1004A0000101B1F5801F1BD3B1F5001F0CD3490822
:1004B0005FEA30004FEA3C0C04F101044FEA445279
:1004C00012F5800F80F09A80BCF1004F08BF5FEA00
:1004D000500C50F1000041EB045141EA050130BDE0
:1004E0005FEA4C0C404141EB0101013C28BFB1F5F2
:1004F000801FE9D291F0000F04BF01460020B1FA3D
:1005000081F308BF2033A3F10B03B3F120020CDA0F
:100510000C3208DD02F1140CC2F10C0201FA0CF0ED
:1005200021FA02F10CE002F11402D8BFC2F1200C52
:1005300001FA02F120FA0CFCDCBF41EA0C01904008
:10054000E41AA2BF01EB0451294330BD6FEA040451
:100550001F3C1CDA0C340EDC04F11404C4F120023C
:1005600020FA04F001FA02F340EA030021FA04F34E
:1005700045EA030130BDC4F10C04C4F1200220FAA5
:1005800002F001FA04F340EA0300294630BD21FAE3
:1005900004F0294630BD94F0000F83F4801306BFA9
:1005A00081F480110134013D4EE77FEA645C18BF9D
:1005B0007FEA655C29D094EA050F08BF90EA020F34
:1005C00005D054EA000C04BF1946104630BD91EA2C
:1005D000030F1EBF0021002030BD5FEA545C05D12F
:1005E0004000494128BF41F0004130BD14F580046E
:1005F0003CBF01F5801130BD01F0004545F0FE41E2
:1006000041F470014FF0000030BD7FEA645C1ABF16
:10061000194610467FEA655C1CBF0B46024650EA4D
:10062000013406BF52EA033591EA030F41F4002179
:1006300030BD00BF90F0000F04BF0021704730B5FF
:100640004FF4806404F132044FF000054FF00001D4
:1006500050E700BF90F0000F04BF0021704730B595
:100660004FF4806404F1320410F0004548BF40426A
:100670004FF000013EE700BF42004FEAE2014FEABF
:1006800031014FEA02701FBF12F07F4393F07F4F9A
:1006900081F06051704732F07F4208BF704793F09D
:1006A0007F4F04BF41F40021704730B54FF46074B0
:1006B00001F0004521F000411CE700BF50EA0102B3
:1006C00008BF704730B54FF000050AE050EA01025C
:1006D00008BF704730B511F0004502D5404261EBCC
:1006E00041014FF4806404F132045FEA915C3FF40D
:1006F000D8AE4FF003025FEADC0C18BF03325FEAAA
:10070000DC0C18BF033202EBDC02C2F1200300FA5A
:1007100003FC20FA02F001FA03FE40EA0E0021FA7F
:1007200002F11444BDE600BF53B94AB9002908BF1D
:1007300000281CBF4FF0FF314FF0FF3000F06AB9C6
:10074000ADF1080C6DE904CE00F006F8DDF804E028
:10075000DDE9022304B070472DE9F047089D0C46FF
:10076000002B4ED194468C458646B2FA82F262D96D
:100770004AB1C2F12003914020FA03F30CFA02FCC3
:10078000194300FA02FE4FEA1C471FFA8CF6B1FB30
:10079000F7F44FEA1E4307FB141143EA014304FB3D
:1007A00006F199420AD91CEB030304F1FF3080F0F3
:1007B0001281994240F20F81023C6344591A1FFA98
:1007C0008EF3B1FBF7F007FB101143EA014300FB86
:1007D00006F69E420AD91CEB030300F1FF3180F0BC
:1007E000FC809E4240F2F980634402389B1B40EA41
:1007F000044000211DB1D3400022C5E90032BDE80C
:10080000F0878B4205D90DB1C5E9000100210846EA
:10081000F5E7B3FA83F1002946D1A34202D390420F
:10082000C0F0F080861A64EB03030120002DE6D0AF
:10083000C5E90063E3E7002A40F09080A1EB0C04D7
:100840004FEA1C481FFA8CF70121B4FBF8F64FEA77
:100850001E4308FB164443EA044307FB06F0984294
:1008600008D91CEB030306F1FF3402D2984200F2D0
:10087000CD8026461C1A1FFA8EF3B4FBF8F008FB55
:10088000104443EA044300FB07F79F4208D91CEBDE
:10089000030300F1FF3402D29F4200F2B0802046F1
:1008A000DB1B40EA0640A5E7C1F120068B4022FA97
:1008B00006F71F4320FA06FC04FA01F343EA0C038F
:1008C000F44000FA01F8380C4FEA1349B4FBF0FE8B
:1008D0001FFA87FC00FB1E4449EA04440EFB0CF996
:1008E000A14502FA01F20AD93C190EF1FF3A80F053
:1008F0008480A14540F28180AEF1020E3C44A4EB1D
:1009000009041FFA83F9B4FBF0F300FB134449EA2E
:10091000044403FB0CFCA44507D93C1903F1FF3048
:1009200067D2A44565D9023B3C4443EA0E40A0FB94
:100930000293A4EB0C049C42CE469C4651D34ED06D
:1009400055B1B8EB0E0364EB0C0404FA06F6CB4089
:100950001E43CC40C5E90064002150E7C2F12003EA
:1009600020FA03F10CFA02FC24FA03F394400C433E
:100970004FEA1C4800FA02FE1FFA8CF7B3FBF8F0AE
:1009800008FB1031230C43EA014300FB07F19942B5
:1009900008D91CEB030300F1FF362CD299422AD967
:1009A000023863445B1AA4B2B3FBF8F108FB1133BD
:1009B00044EA034401FB07F3A34208D91CEB0404F7
:1009C00001F1FF3613D2A34211D902396444E41A6B
:1009D00041EA004139E70446F0E6084606E7C84523
:1009E000AED2B9EB020E63EB070C0138A8E7314633
:1009F000EDE7034699E73046D4E7D6467FE7634400
:100A000002384DE70646234608460FE7023E634498
:100A100030E700BF704700BF0149002010F04EB919
:100A2000554C000808B542F210700EF01AFCFAE7B7
:100A300008B564200EF015FCFBE70000064D074CDE
:100A400008B547F230500EF00CFC284630F070F834
:100A500020460AF0E8F9F4E7641D0308B8480024CA
:100A600008B502F071FC03F0FBFD04200EF0F9FB69
:100A7000F7E708B503F036FE0A200EF0F2FBF9E7BF
:100A8000094C0A4D08B5204608F03CFA642120467E
:100A900007F0D0FE204607F05BFF286002F06EFBF7
:100AA00064200EF0DEFBEEE7F4490024D84A00246F
:100AB000094C0A4D08B5204608F024FA01212046C9
:100AC00007F0B8FE204607F043FF288001F038FE0B
:100AD00064200EF0C6FBEEE7644A0024DC4A0024E2
:100AE00008B502F04FF802F0AFF841F288300EF08E
:100AF000B8FBF6E708B502F075FA41F288300EF05F
:100B0000B0FBF8E708B502F00DFB4FF47A700EF079
:100B1000A8FBF8E708B502F031FD02F0ABFC02F0EB
:100B200099FD01200EF09DFBF5E708B501F0DAFC18
:100B300001F0A2FD4FF4FA700EF093FBF6E700000F
:100B4000054C08B501F060FF01F078FF206032200D
:100B50000EF087FBF6E700BFD44A002408B502F088
:100B60000BF94FF47A700EF07CFBF8E707B54FF6FF
:100B7000FF730190012201A903480EF094F9019836
:100B800003B05DF804FB00BF0846002410B59CB01C
:100B90004C22002109A830F0CBF82022002101A826
:100BA00030F0C6F804200BF087F900230093214BA6
:100BB0009A6922F440429A619A6902F44042009292
:100BC000009A9A699204FCD50BF040F91A4A2C213C
:100BD0000024136F09A823F0180313670D224FF4A4
:100BE00080331B94CDE9092301220223CDE915129C
:100BF0000B920E9244221493CDE91723CDE91233C0
:100C00000C23CDE919340BF095F903213F2308207B
:100C10004FF4806203947024CDE901314023CDE983
:100C2000040301A80893CDE906420BF09FFC1CB019
:100C300010BD00BF004802580044025800B5AFB0D4
:100C40000021982208A830F073F8124A00231920D6
:100C5000CDE9002305225023CDE90223022380227F
:100C6000CDE90433069307924FF49072CDE90C332B
:100C70001E230E934FF400731093202313934FF40D
:100C80008033CDE90A02684628930BF057FF2FB056
:100C90005DF804FB000008222DE98048A1B0102275
:100CA00000214FF0E04A13A830F042F808F044FC6D
:100CB00040F2011313A8ADF84C30D34BCDE914A387
:100CC000D24B169308F056FC042008F043FCD04B9E
:100CD0005A6912F4003211D1BFF34F8FBFF36F8FF7
:100CE000C3F85022BFF34F8FBFF36F8F5A6942F49E
:100CF00000325A61BFF34F8FBFF36F8FC44A5369FD
:100D000013F4803323D1C2F88430BFF34F8FD2F86D
:100D1000803043F6E074C3F3C900C3F34E335B0184
:100D200003EA0406014646EA81750139C2F86052B9
:100D3000F9D2203B13F1200FF2D1BFF34F8F53694B
:100D400043F480335361BFF34F8FBFF36F8F07F0CE
:100D5000FDFC0024FFF71AFF0125FFF76FFF1422A7
:100D6000002113A82FF0E4FFAA4B48F20801AA487B
:100D7000D3F8E02002274FF010084FF0030A42F0AA
:100D800002024FF4806BA54E40F21529C3F8E02013
:100D9000D3F8E02002F002020092009AD3F8E0209B
:100DA00042F04002C3F8E020D3F8E02002F0400215
:100DB0000192019AD3F8E02042F00802C3F8E02043
:100DC000D3F8E02002F008020292029AD3F8E02061
:100DD00042F01002C3F8E020D3F8E02002F0100245
:100DE0000392039AD3F8E02042F00102C3F8E02016
:100DF000D3F8E02002F001020492049AD3F8E02034
:100E000042F00402C3F8E020D3F8E02002F004022C
:100E10000592059AD3F8E02042F08002C3F8E02062
:100E2000D3F8E02002F080020692069AD3F8E02080
:100E300042F02002C3F8E0200022D3F8E03003F0B3
:100E400020030793079B09F0FBFB00224FF440416E
:100E5000734809F0F5FB00224FF48061714809F0F6
:100E6000EFFB00220121704809F0EAFB082313A9D7
:100E70006E481595CDE9133409F064FA4FF4005328
:100E800013A96B481597CDE9133409F05BFA4FF4B9
:100E9000004313A96048CDE91335CDE9154409F0A5
:100EA00051FA202313A95C481595CDE9133409F0B4
:100EB00049FA4FF4881313A957481594CDE91383C1
:100EC00009F040FA082313A95348CDF858A0159407
:100ED000CDE9133509F036FA4FF4807313A955485C
:100EE0001595CDE9133409F02DFA4FF4404313A9B9
:100EF0004B48CDE91335CDE9154A09F023FA13A97A
:100F00004848CDE913B5CDE9154409F01BFA13A9FA
:100F10004548CDE91355CDE9154A09F013FA2246A3
:100F200005210A2008F0B6FA0A2008F0E5FA42483E
:100F3000424B056203608480C0E9054408F046FB2B
:100F40004FF440333E48C0E90063C0E9025408F062
:100F50009EFB2146342213A82FF0EAFE394E3A4B6D
:100F60004FF0280C4FF0350E40F2352230463461F8
:100F7000B48686F83640C6E900340923C6E905C3BD
:100F80000B23C6E907E340F21B13C6E9099340F2BD
:100F90001D134FF00409C6E90B23C6E9024409F00A
:100FA000CFFFFF214FF488734FF4F0720520CDF886
:100FB00068B04FF0180B1394ADF87C408DF87E406C
:100FC000CDE918144FF0E041CDE91D23CDE91B0117
:100FD000CDE9142413A9224630461C4ECDE916351E
:100FE0000AF0ABF85A46214613A82FF0A1FE184B81
:100FF0004FF080723046B460F463C6E900392023B4
:10100000C6E9032326E000BF1A0001030001010125
:1010100000ED00E000440258001802580010005291
:1010200000040258000C0258000002580010025838
:101030000008025800140258D0490024004C0258FD
:10104000684900241048002400100050B4470024D0
:10105000005000520823C6E90574C6E90D34C6E9FC
:101060000974C6E90744C6E90B440AF0F3F94FF0E6
:10107000011213A93046169202F57F0215951792B8
:1010800041F28832CDE913550AF070FC30460AF07F
:1010900055FA40F201122046D14EADF8382006F044
:1010A000B1FF0EA9204607F09FF8204606F072FF18
:1010B0005A46214613A82FF03BFE424621460AA875
:1010C0002FF036FE214614220EA82FF031FEC54A1D
:1010D0004FF0805C3046B460C6E900294FF0806272
:1010E000C6E9032B17224FF6FF7BC6E90BC24FF46C
:1010F000C872C6E90594C6E90974F263C6E90744F3
:10110000C6E90D44CDE908440AF0A4F9B64A13A98A
:101110003046169202F57F021597179241F28832F7
:10112000CDE9137706270AF021FC41F288320AA99B
:101130003046CDF828A00D954FF4805ACDE90B74B8
:101140000AF05EFA4FF440520EA9304610924FF06A
:1011500000521195129241F288320E940F940AF0C7
:1011600075FA08A9304608940AF090FB03F0F2FAE9
:10117000424621460EA89D4E2FF0DAFD42462146FA
:1011800013A80C94CDE90A442FF0D2FD984A3046BA
:10119000B460C6E90024C6E903B4C6E905440DF00D
:1011A000B1F80EA93046CDF838A00DF0EBF9304675
:1011B0000DF0D8F80AA930460C94CDE90A440DF098
:1011C000AFFB0C2213A930468A4ECDE91345CDE979
:1011D00015440DF039F9424621460EA82FF0A8FD1E
:1011E0004246214613A80C94DFF83882CDE90A4420
:1011F0002FF09EFD804A30463461B461C6E9002478
:10120000C6E9024B0DF07EF80EA93046CDF838A0A5
:101210000DF0B8F930460DF0A5F80AA930460A9449
:101220000C940DF07DFB0C2213A93046734ECDE9D2
:101230001345CDE915440DF007F92146242213A8E2
:101240001094CDE90E442FF073FD08234FF40022D3
:101250003046B360F561348386F82040346386F805
:101260004440C6E90082C6E90449C6E90A44C6E921
:101270000F4407F049FF0EA930460E9408F092F88B
:1012800040F2FF7213A93046159418948DF86D4002
:101290005B4ECDE91629CDE9135707F05DFB14220B
:1012A000214613A82FF044FD564B4FF07F093046DE
:1012B0000E9434617461C6E90034FF23C6E9064424
:1012C000C6E902930CF0BCFC43F212032A4613A9B0
:1012D000ADF84C304FF0200330468DF84E30CDE95C
:1012E00016440CF004FD484B2A460EA9304643F242
:1012F000F2250E930CF05DFD214630460CF09FFE6A
:10130000A8420ED0224613A930460CF0F0FC22462B
:101310000EA930460CF04DFD2A46214630460CF011
:1013200089FE3A4D00243A4A4FF4E1334FF00C085D
:1013300028462C614FF0060A012604274FF00809C1
:10134000C5E90023C5E90244C5E90584C5E90744A8
:10135000C5E909440DF057FE214628460DF0C1FEAF
:10136000214628460DF0DDFE28460DF09FFE294857
:10137000294B2A4DC0E9003A40F6FF73C0E9023319
:1013800009F024FD2422214613A82FF0D1FC244982
:101390004FF4802328462C616F612C83EE6185F821
:1013A000204085F8384085F84440C5E90013C5E978
:1013B0000294C5E90A44C5E90C44C5E90F4407F0A5
:1013C000A3FE40F2FF7313A92846159418941A94AB
:1013D000CDE91637CDE9136A07F0BEFA24E000BF65
:1013E0005847002400A0005202000100E8460024F3
:1013F000000001409C46002400080040644A00248C
:1014000034470024004000580404102408460024F7
:1014100000480040B848002400480058F44900241F
:1014200000600258002002405C485D4B0D2206829D
:10143000036002238474C0E907231F22C0E9053931
:10144000C0E91763C0E90B29C0E90244C0E9096695
:10145000C0E90D46C0E90F66C0E91176C0E9137610
:10146000C0E91576C0E9194708F018FA03F09EF9AB
:1014700003F09BF903F05CF803F02AF901F0E4FAB9
:1014800001F034FD01F014FE01F018F801F052F9FA
:1014900000F046FF01F0B2FA01F04CFC4146414831
:1014A0000DF038F9414640480DF034F901F0EEFDF9
:1014B0000DF064FE3D4A21463D480DF08BFE3D4B4C
:1014C0003D4A214618603D480DF084FE3C4B3D4AA4
:1014D000214618603C480DF07DFE3C4B3C4A2146BD
:1014E00018603C480DF076FE3B4B3C4A21461860A4
:1014F0003B480DF06FFE3B4B3B4A214618603B4892
:101500000DF068FE3A4B3B4A214618603A480DF010
:1015100061FE3A4B3A4A214618603A480DF05AFEAD
:10152000394B3A4A2146186039480DF053FE394B81
:10153000394A2146186039480DF04CFE384B394A7B
:101540002146186038480DF045FE384B384A214690
:10155000186038480DF03EFE374B384A2146186077
:1015600037480DF037FE374B374A21461860374869
:101570000DF030FE364B374A2146186036480DF0E4
:1015800029FE364B364A2146186036480DF022FEB9
:10159000354B18600DF004FEFEE700BFC84800247C
:1015A00000D40040E84600249C460024DC200308C8
:1015B000250A000804460024B8200308BB47000899
:1015C000544300249420030801620008504300247F
:1015D000702003083D0A0008A03200244C200308B4
:1015E000610A0008F02F002428200308730A00086D
:1015F000402D002404200308810A0008901C0024C8
:10160000E01F0308B10A0008E0190024BC1F03080A
:10161000E10A000830170024981F0308F50A0008A3
:1016200080140024741F0308050B0008D011002447
:10163000501F0308150B0008200F00242C1F03085F
:101640002B0B0008700C0024081F0308310A000847
:10165000C0090024E41E0308410B00081007002401
:10166000C01E03085D0B00086004002410B59EB086
:10167000224809F0D8FB2022002103A82FF058FBB4
:101680004C2200210BA82FF053FB0023029301935F
:101690001B4B9A6922F440429A619A6902F44042D3
:1016A0000292029A9A699204FCD50BA801240BF0CD
:1016B000C9F84FF480330BA8CDE90B4302231493F0
:1016C0000AF038FC01A903A80BF01EF903230199C5
:1016D00003A8049303940AF049FF00F089FD094828
:1016E00000F07CF908482FF023FA084AD2F8D030ED
:1016F00043F48033C2F8D0301EB010BDB848002487
:101700000048025810480024731D03080044025882
:1017100010B50C4C00220C4821460CF09EFB0B4BE4
:10172000187028B9A3786278217809482FF090F9C9
:10173000FFF72CFA00F05CFD0648BDE810402FF0E2
:10174000F7B900BFA0010024344700249C01002405
:10175000841D0308951D030808B5134A002113488A
:101760002FF0E6FA4FF4F062002111482FF0E0FA72
:101770000D4B104A00200D4906F034FB78B10E489D
:101780002FF066F94FF4F0630C4A0020074906F089
:1017900029FB30B10A48BDE808402FF059B9094883
:1017A000EEE70948F7E700BF00FA050080EF177081
:1017B00000E8177080070000A81D03080000000063
:1017C000C61D0308B61D0308D41D03080268034B99
:1017D0009A4201D106F0E8BF704700BF00100040F8
:1017E000704700000A4B82B00F216FF00100D3F860
:1017F000F42042F00202C3F8F4200022D3F8F430BF
:1018000003F002030193019B02B007F043BE00BF47
:1018100000440258036884B0214A93421ED1214BF0
:101820004FF08071D3F8D82042F02002C3F8D820BE
:10183000D3F8D82002F020020092009AD3F8E020DA
:1018400042F00102C3F8E020D3F8E03003F00103D6
:101850000193019B084604B006F0CABF124A9342A6
:101860001BD1104B4FF08061D3F8E02042F0807222
:10187000C3F8E020D3F8E02002F080720292029ACE
:10188000D3F8E02042F00402C3F8E020D3F8E030BF
:1018900003F004030393039BDCE704B0704700BF2D
:1018A000002002400044025800600258026882B0E2
:1018B000094B9A420DD1A3F50063D3F8E02042F41E
:1018C0000022C3F8E020D3F8E03003F400230193B2
:1018D000019B02B0704700BF004C02580F4B07B588
:1018E00002689A4217D10E4B05215A20D3F8D42012
:1018F00042F01002C3F8D4200022D3F8D43003F011
:1019000010030193019B07F0C5FD5A2003B05DF859
:1019100004EB07F0F1BD03B05DF804FB00100052CA
:101920000044025810B5B6B004461422002103A8A2
:101930002FF0FEF9B822002108A82FF0F9F922684B
:10194000234B9A4242D100234FF4004208A8CDE92C
:1019500008234FF0805323930BF0F0F808B1FFF702
:101960003FFF1C4B002403A91B48D3F8EC2042F492
:101970008072C3F8EC20D3F8EC2002F4807201925C
:10198000019AD3F8E02042F02002C3F8E020C02200
:10199000D3F8E03003F020030293029B0223CDE949
:1019A0000544CDE90323079308F0CCFC224605212A
:1019B0009F2007F06FFD9F2007F09EFDA02022468C
:1019C000052107F067FDA02007F096FD36B010BD99
:1019D00000D4004000440258001402582DE9F041A0
:1019E0008EB004461422002109A82FF0A1F9226824
:1019F0006A4B9A4240F0CE80694B022603250E279F
:101A0000D3F8E42009A96748002442F008024FF007
:101A10005808C3F8E420D3F8E42002F00802019249
:101A2000019AD3F8E02042F00202C3F8E020D3F894
:101A3000E02002F002020292029AD3F8E02042F083
:101A40000802C3F8E020D3F8E02002F00802039275
:101A5000039AD3F8E02042F01002C3F8E020D3F854
:101A6000E02002F010020492049AD3F8E02042F041
:101A70000102C3F8E020D3F8E02002F00102059251
:101A8000059AD3F8E02042F04002C3F8E020D3F8F2
:101A9000E02002F040020692069AD3F8E02042F0DD
:101AA0008002C3F8E020D3F8E02002F08002079221
:101AB000079AD3F8E02042F00402C3F8E020D3F8FC
:101AC000E03003F004030893089B40F20333CDE9B0
:101AD0000C57CDE9093608F035FC492309A93248ED
:101AE0000D97CDE90936CDE90B4508F02BFC4BF6F7
:101AF000030309A92D480D97CDE90936CDE90B451A
:101B000008F020FC4FF4807309A92948CDE9093673
:101B10000D23CDE90B450D9308F014FC4FF48143E0
:101B200009A924480D97CDE90936CDE90B4508F000
:101B300009FC48F6087309A91F480D97CDE9093635
:101B4000CDE90B4508F0FEFBC02309A91B480D9702
:101B5000CDE90936CDE90B4508F0F4FB09A9144895
:101B60000D97CDE90986CDE90B4508F0EBFB102375
:101B700009A91148CDE909360923CDE90B450D9393
:101B800008F0E0FB40462246052107F083FC404672
:101B900007F0B2FC0EB0BDE8F08100BF00100050AD
:101BA0000044025800040258000C02580010025869
:101BB0000000025800180258001C02580008025881
:101BC000026808B5184B9A422CD1184A40F20331EA
:101BD0001748D2F8E43023F00803C2F8E43008F0E4
:101BE00093FC4921134808F08FFC4BF6030112487F
:101BF00008F08AFC4FF4AC71104808F085FC4FF4F3
:101C000081410F4808F080FC48F618710D4808F033
:101C10007BFC0D48C02108F077FC5820BDE8084047
:101C200007F078BC08BD00BF001000500044025807
:101C300000040258000C025800100258000002581C
:101C400000180258001C0258000802582DE9F04301
:101C500091B00446142200210BA82FF069F82368E4
:101C6000884A934240F0B080874A13680133012BC1
:101C700013600CD1854BD3F8D42042F40012C3F882
:101C8000D420D3F8D43003F400130093009B7F4B8F
:101C9000022503240927D3F8D4200BA97C48002669
:101CA00042F480424FF00A084FF00409C3F8D420F0
:101CB000D3F8D42002F480420192019AD3F8E020B4
:101CC00042F04002C3F8E020D3F8E02002F04002E6
:101CD0000292029AD3F8E02042F00802C3F8E02012
:101CE000D3F8E02002F008020392039AD3F8E02030
:101CF00042F01002C3F8E020D3F8E02002F0100216
:101D00000492049AD3F8E02042F02002C3F8E020C5
:101D1000D3F8E02002F020020592059AD3F8E020E3
:101D200042F00202C3F8E020D3F8E03003F00203EF
:101D30000693069B4FF40073CDE90B35CDE90E47B2
:101D400008F000FBB0230BA95248CDF83C80CDE948
:101D50000B35CDE90D6408F0F5FA0BA94E480F9745
:101D6000CDE90B95CDE90D6408F0ECFA40230BA901
:101D70004748CDF83C80CDE90B35CDE90D6408F03E
:101D8000E1FA4FF460530BA942480F97CDE90B35A8
:101D9000CDE90D6408F0D6FA4FF480630BA93F48F3
:101DA0000F97CDE90B35CDE90D6408F0CBFA0BA9FF
:101DB0003B48CDF83C80CDE90B95CDE90D6408F0AA
:101DC000C1FA11B0BDE8F083364A9342F9D12E4AE8
:101DD00013680133012B13600CD12C4BD3F8D420A2
:101DE00042F40012C3F8D420D3F8D43003F4001323
:101DF0000793079B254B032402250926D3F8D420FB
:101E00000BA92348002742F40022C3F8D420D3F8BA
:101E1000D42002F400220892089AD3F8E02042F07D
:101E20004002C3F8E020D3F8E02002F0400209921B
:101E3000099AD3F8E02042F02002C3F8E020D3F85A
:101E4000E03003F020030A930A9B40F60303CDE938
:101E50000E46CDE90B3508F075FA4FF4A0530BA9E7
:101E60000B480F94CDE90B35CDE90D7408F06AFAF3
:101E700041F21F030BA909480F96CDE90B35CDE9B7
:101E80000D749CE700500052E04A002400440258C0
:101E900000180258000C0258001002580014025892
:101EA0000004025800A00052274A08B50368934274
:101EB0002AD1264B1A68013A1A60254B2AB9D3F861
:101EC000D42022F40012C3F8D420D3F8D4204FF445
:101ED0001071204822F48042C3F8D42008F014FB8B
:101EE00043F6B0011C4808F00FFB04211B4808F022
:101EF0000BFB4FF480611A4808F006FB04211948D7
:101F0000BDE8084008F000BB174A93421AD10F4BB6
:101F10001A68013A1A600E4B2AB9D3F8D42022F479
:101F20000012C3F8D420D3F8D42041F60341094865
:101F300022F40022C3F8D42008F0E6FA41F21F018F
:101F40000748DDE708BD00BF00500052E04A00240A
:101F50000044025800180258000C025800100258A1
:101F6000001402580004025800A0005210B5AEB090
:101F70000446B822002168462EF0DAFE2268104B93
:101F80009A421AD100234FF480026846CDE900231B
:101F90004FF480732C930AF0D1FD08B1FFF720FCB9
:101FA000084A03200521136F43F4004313670022FE
:101FB00007F070FA032007F09FFA2EB010BD00BFA3
:101FC00000400058004402581422002110B58AB085
:101FD00004460DEB02002EF0ABFE23682F4A93421D
:101FE0002ED12F4B4FF480412E48D3F8F02042F0F1
:101FF0000102C3F8F020D3F8F02002F001020192B0
:10200000019AD3F8E02042F01002C3F8E020D3F8A0
:10201000E03003F010030293029B0223CDE9051385
:102020000793012305A9099308F08CF91B200022CE
:10203000052107F02FFA1B2007F05EFA0AB010BD49
:10204000194A9342FAD1164B05A91848D3F8E8204B
:1020500042F00402C3F8E820D3F8E82002F00402BA
:102060000392039AD3F8E02042F00802C3F8E0207C
:102070004FF40042D3F8E03003F008030493049BCC
:102080000223CDE90523099308F05CF91E20002204
:10209000052107F0FFF91E20CEE700BF0000014038
:1020A000004402580010025800080040000C02587A
:1020B00010B5B6B004461422002103A82EF038FE55
:1020C000B822002108A82EF033FE22681A4B9A424B
:1020D00030D10222002308A8CDE908230AF02EFD02
:1020E00008B1FFF77DFB154B03A91548D3F8E8208D
:1020F00042F48022C3F8E820D3F8E82002F48022DA
:102100000192019AD3F8E02042F00802C3F8E020DF
:102110004FF44072D3F8E03003F008030293029BBF
:102120000223CDE903230023CDE9053307230793D9
:1021300008F008F936B010BD0048004000440258CD
:10214000000C02580F2810B504468AB002D90120AD
:102150000AB010BD01460022362007F09BF9362058
:1021600007F0CAF9184B694602A81C60174BD3F850
:10217000E82042F01002C3F8E820D3F8E83003F07A
:1021800010030193019B0AF0BFFB079BC3B90AF040
:1021900035FB0F4C0F4B236040F2E733E3600E4BEF
:1021A000B0FBF3F001380023606020462361A36098
:1021B0000CF0A8F80028CAD120460BF045FFC7E76D
:1021C0000AF01CFB4000E4E7B80000240044025879
:1021D000E44A00240010004040420F00034B1A68FC
:1021E000D36823F00103D360704700BFE44A0024A2
:1021F000034B1A68D36843F00103D360704700BFF4
:10220000E44A00247047FEE7FEE7FEE7FEE770477A
:1022100001480BF0F8BE00BF34470024102008F03E
:102220001DBA000001480BF059BF00BFE84600246A
:1022300001480BF053BF00BF9C46002401480BF03F
:102240004DBF00BFE44A0024014808F019BF00BF99
:1022500010480024014807F059BA00BF684900241B
:10226000014807F007BF00BFC8480024FFF7F8BFC8
:102270000120704708B52EF065FE162303604FF06D
:10228000FF3008BD08B52EF05DFE16230360FEE7A3
:1022900070B50D4614460E46731B9C4201DC204669
:1022A00070BDAFF3008006F8010BF5E770B50D4681
:1022B00014460E46731B9C4201DC204670BD16F886
:1022C000010BFEF753FCF5E74FF0FF3070474FF47A
:1022D000005300204B60704701207047002070477A
:1022E0000B4A0346116810B509B90A491160106814
:1022F00009490A4C0344091B8B4206D92EF022FEE1
:102300000C2303604FF0FF3010BD1360FCE700BFEB
:10231000304B0024B8B20124000005240010000056
:1023200070B540F21113274C00254FF400022649E6
:1023300040F2FF100126A5600D60CE60C4E90035B3
:102340000823C4E903355223C4E9072340F2FF738D
:10235000C1E904031D48C4E90555C1E9016607F058
:1023600087FC33461A4A2146184807F039FD3146A2
:10237000164807F064FD2A463146144807F02CFE43
:102380002A464FF48021114807F026FE0F4C4FF4E7
:1023900070210E4807F0A8FC31460C4807F0B8FC45
:1023A00040F65A420021204607F0C6FC0028F7D12B
:1023B000064807F0D9FC0028FAD10448BDE870406F
:1023C00007F0F5BC6C4B0024904B0024C848002457
:1023D00004000024234B002270B51A70CB07054679
:1023E0003FD5214C4021214E23462148324607F05B
:1023F00037FD58B1FFF7F4F9002201211C4807F01E
:10240000EBFD70B3BDE87040FFF7EAB9284607F06E
:10241000BEFC326840F2FF139A42EDD16278237815
:1024200002F00100134943EA0023C2F3400043EAEB
:102430004023C2F3800043EA8023C2F3C00043EA92
:10244000C023C2F30010C2F3401243EA003343EA50
:1024500042330A8822F47F5222F03F0213430B805A
:10246000CAE770BD394B00243A4B0024444B00248A
:10247000C8480024344B002410B50A4C00224FF405
:102480008021094823780133237007F0A5FD08B1A6
:10249000FFF7A6F92378054A1E2B94BF00230123DA
:1024A000137010BD394B0024C8480024384B002459
:1024B000014B1868704700BF344B00240549064B98
:1024C0000A7806481A704A78054B1A7000220BF0F9
:1024D000C4BC00BFD04B0024E64B0024344700248A
:1024E000E54B002438B5074D0022074C0749284624
:1024F0000BF0B3FC00222070284605490BF0D0FCFD
:10250000207038BD34470024C84B0024D04B002431
:10251000C94B002410B5084C0848627821782EF089
:1025200097FA2146002206480BF0E1FB0548BDE87A
:1025300010402EF0FDBA00BFB44B00240021030868
:10254000344700241921030810B5052824D8DFE8F2
:1025500000F003171B2C2431224C23482EF0E8FAFC
:102560002146002221480BF078FC2178204B62782C
:102570001970204B20481A70BDE810402EF068BA40
:10258000BDE81040FFF7C6BF1C4A13780133DBB229
:10259000022B08BF0023137010BD194B00221948ED
:1025A0001A70BDE810402EF053BA154B01221648A0
:1025B0001A70F6E7114B1B784BB90A4A18211378A9
:1025C0000133DBB2B3FBF1F001FB1033E3E7012B86
:1025D000E2D1044A53780133DBB23C2B08BF00231D
:1025E0005370D9E7B44B00242E210308344700244C
:1025F000E64B0024E54B002444210308E44B00246F
:10260000B04B00245E21030873210308164B10B45D
:102610001B787BB9154B182219780131C9B2B1FB6F
:10262000F2F002FB10111248C9B219705DF8044BA8
:102630002EF00EBA012B06D10C4A53780133DBB2CF
:102640003C2B03D053705DF8044B7047137818206F
:10265000002101335170DBB2B3FBF0F400FB143303
:1026600004481370E2E700BFE44B0024B44B00249D
:1026700085210308A121030808B5074B1A78012A10
:1026800006D1FFF7C3FF0548BDE808402EF0E0B9CA
:1026900000221A7008BD00BFB04B0024BF21030800
:1026A0001249134A0B780133DBB2042B0B7006D9A5
:1026B00000230B7000230F4813702EF039BA013B32
:1026C000032BF7D8DFE803F002060A0E01230A48BD
:1026D0001370F2E7022309481370EEE7032308485A
:1026E0001370EAE7042307481370E6E7E74B00247A
:1026F000E84B0024DC210308F2210308062203082A
:102700001A22030831220308014B1878704700BFD2
:10271000E84B0024054B64221B68534340F6FF72CC
:10272000B3FBF2F3024A1360704700BF384C002439
:102730003C4C0024014B00221A707047434C00248B
:102740002DE9F84F9B4C2578012D3ED0022D7FD0EE
:10275000002D68D1984E1E21984B32781B88984FD7
:10276000DFF884C227F812300132B2FBF1F001FB2E
:102770001020BCF8002030701344924E9BB2328877
:10278000ACF80030013292B21D2A328083BF37F894
:1027900010004FF0010E8C4D294681BFB3FBF1F1C3
:1027A0001B1A85F800E0ACF800301D2A874B198011
:1027B00039D901F037FF012835D1834B1B78012B24
:1027C00031D10022328023702DE0814D7F4A2B8849
:1027D0001288804F934236BFD21A9B1A93B24FF0A1
:1027E000010228BF9BB23A7040F2323293421CD8A9
:1027F0006FF4CC710B44B3F5CD7F2CBF02230323C0
:10280000754A764E1370337001F00CFF01280AD11F
:102810003B78012B07D13378714E9A1E012A06D8D6
:10282000022222703370BDE8F88F0023E8E74FF4EE
:102830008051002000F082FD00F044FD002000F0F7
:1028400075FD2860FFF766FF022323700423E9E784
:10285000634F614E3A783378022ADFF87091DFF8DF
:102860007081DFF888A179D0032A51D0012A0FD1D5
:102870009AF80020DFF878B19A421EBF594B002227
:102880001A80BBF80030D8F80020B3F5967F25D920
:1028900033788AF80030494B1A88B8F80030A9F824
:1028A00000209A428ABFD21A9B1A93B240F2323267
:1028B00098BF9BB2934278D86FF4CC721344B3F5AF
:1028C000CD7F74D203252B46444A337013703D707C
:1028D00001F0A8FE0228A6D1002374E7B9F8001081
:1028E000914203D10023ABF80030D1E7013340F22D
:1028F00011110220ABF8003000F020FD00F0E2FCE6
:10290000002000F013FDC8F80000FFF703FFB8E750
:102910009AF80020DFF8DCB09A421EBF314B00224B
:102920001A8040F6B832BBF80030D8F80010934255
:10293000AED8B9F800008842D4D001338821642091
:10294000ABF8003000F0FAFC00F0BCFC002000F016
:10295000EDFCC8F80000FFF7DDFEE2E79AF8002082
:10296000DFF894B09A421EBF1E4B00221A8042F23A
:102970002832BBF80030D8F80010934288D8B9F854
:1029800000008842AED0013388214FF49670ABF836
:10299000003000F0D3FC00F095FC002000F0C6FCF5
:1029A000C8F80000FFF7B6FEE1E701258BE7022338
:1029B0008AE700BF434C0024E94B0024DC4A002492
:1029C000FA4B0024F84B0024F54B0024404C002423
:1029D000384C0024F44B0024EA4B0024EC4B002438
:1029E000424C0024804D0024F64B0024EB4B002485
:1029F000F24B0024F04B0024EE4B0024014B00224C
:102A00001A607047484C002410B50A4CFFF750FD7F
:102A1000206001F007FEC0B201280AD106492288D1
:102A20000B88C2F30B0223F47F6323F00F031343DD
:102A30000B8010BD444C0024484C0024014B186806
:102A4000704700BF484C00240123024A1370024A19
:102A500013707047854C0024844C002410B500206E
:102A6000002400F0C5FC054A034605491060054AEC
:102A70004C6010681360181A086010BD7C4C00246C
:102A8000704C0024784C0024F8B5FFF7E7FF1A4B90
:102A90001A4A014618600A25194B12681B68194C1E
:102AA000194F1A4EB0FBF3F319485A433B600260CA
:102AB000226818481344184A23601360174AB3FB6E
:102AC000F5F3336013602DF0C3FF396814482DF01F
:102AD000BFFF216813482DF0BBFF316812482DF06D
:102AE000B7FF124B1B78012B0CBF28460920BDE80D
:102AF000F8402DF0BFBF00BF804C0024140000241C
:102B000010000024544C00246C4C0024644C00241D
:102B1000684C002448220308504C0024604C0024D8
:102B200050220308572203085F220308844C002424
:102B300008B5FFF7A9FF084B08481968084B1B6840
:102B400059434FF47A73B1FBF3F1064B1960BDE8BA
:102B500008402DF07DBF00BF644C002467220308AD
:102B60000C0000244C4C0024054B1B78012B01D198
:102B7000FFF78ABF022B01D1FFF7DABF704700BF12
:102B8000844C002408B501F04DFDC0B2022804D1E8
:102B90000448BDE808402DF05BBFBDE80840FFF7E2
:102BA000E3BF00BF7222030838B50D4B0D4D196805
:102BB0002A690D4C10462160116001F0D7FA50B916
:102BC0002B690A4819682DF043FF21680848BDE8C1
:102BD00038402DF03DBF07482DF03AFFF5E700BF24
:102BE000544C0024180000245C4C00248B22030861
:102BF000CB220308AC22030838B50D4B0D4D1968E4
:102C00006A690D4C10462160116001F0AFFA50B9AD
:102C10006B690A4819682DF01BFF21680848BDE858
:102C200038402DF015BF07482DF012FFF5E700BF23
:102C3000544C002418000024584C0024D5220308CA
:102C4000F6220308AC22030810B50A4B0A4C196897
:102C500022681046116001F089FA30B923680748EC
:102C60001968BDE810402DF0F3BE0548BDE81040DE
:102C70002DF0EEBE544C002418000024002303085D
:102C8000AC220308104B1A68186911685B6970B5AB
:102C90000E4C0F4E216000680E4D30601B680E48D0
:102CA0002B6012682DF0D4FE31680C482DF0D0FE58
:102CB00029680B482DF0CCFE0A222368B3FBF2F3FF
:102CC000084A136070BD00BF18000024544C002453
:102CD0005C4C0024584C0024202303084B23030899
:102CE0006A230308604C0024054B1B78012B13BF9B
:102CF00002230370034B037018BF034B186870471F
:102D0000844C0024644C00244C4C0024064B1A785C
:102D1000012A0BBF02220122044805480CBF1A7089
:102D20001A702DF005BF00BF844C002489230308CE
:102D3000952303080A4900220A4808B50BF0B0F8A9
:102D4000094B0146187010B108482DF081FE044B64
:102D5000074A997811705A78064B1A7008BD00BF5F
:102D60009A4C0024344700249E4C00249F230308DF
:102D7000974C0024964C00242DE9F8433148FFF786
:102D8000B3FF314A41F28731304C1368C31A8B428A
:102D90002F4920D9012310600B702E4B1860237827
:102DA000BBB12D4B2D4D19782D4B1B78994234BF5B
:102DB0005B1ACB1ADBB20F2B2B700AD100231060E9
:102DC0002370284C2370284B1970284B1978284BF6
:102DD0001970BDE8F883274DDFF88CC0AB789CF8FC
:102DE0000080DFF874E06E789845204F8EF8003050
:102DF0003E701C4B0DD1DFF8789099F80050B54229
:102E000007D01D7889F8006001351D70144D85F8D4
:102E100000801D78062D04BF012525700D78002D3A
:102E2000BDD00C4D2D68451B632DB8D90025106011
:102E30001D709EF800300D708CF8003039780C4B06
:102E40001970ACE7904C00248C4C0024994C002461
:102E5000984C0024884C0024954C0024914C00246C
:102E6000924C0024934C0024974C0024944C002452
:102E7000964C00249A4C0024114B4FF47A721A603D
:102E80004FF461620F4B1A6064220F4B1A600122EB
:102E90000E4B1A6005220E4B1A603C220D4B1A7025
:102EA000C8220D4B1A6032220C4B1A7010220C4BA8
:102EB0001A7028220B4B1A707D220B4B1A60704738
:102EC000F44C0024F04C0024EC4C0024E84C00248A
:102ED000E44C0024E04C0024DC4C0024D14C0024C1
:102EE000D04C0024D84C0024D44C00240023034AA6
:102EF0001370034A1370FFF7BFBF00BFF94C0024E3
:102F0000F84C002410B50020002400F071FA054AA6
:102F1000034605491060054A4C6010681360181A92
:102F2000086010BDC04C0024C84C0024BC4C0024D8
:102F300008B5FFF7E7FF0F4B0F4A18600F4B10491A
:102F40001B680968B0FBF3F313600E4A1268534321
:102F50000D4A13600D4A126853430D4A13600D4A1F
:102F600012684A430C49B3FBF2F30A600B4A136040
:102F700008BD00BFB04C0024B44C0024E84C002431
:102F8000F04C0024EC4C0024B84C0024F44C0024F9
:102F9000AC4C0024E44C0024A84C0024A44C002495
:102FA00008B5FFF7C5FF064B064A1B781268534366
:102FB000054A1278B3FBF2F3044A136008BD00BF60
:102FC000D04C0024A44C0024D14C0024A04C00245C
:102FD000034B1B780BB9FFF7ABBFFFF7E1BF00BF97
:102FE000F84C002408B501F01DFBC0B2022805D141
:102FF0000023044A1360044A136008BDBDE808407A
:10300000FFF7E6BFA44C0024A04C002410B50446F2
:1030100098B90B4B4FF480610A481A68936943F0E2
:1030200001039361012207F00BFB074801224FF4D3
:10303000004107F005FB204610BD6FF00100FBE7E3
:1030400010480024000C02580018025810B504461D
:1030500098B90B4B4FF480611A68936923F0010310
:1030600093610246074807F0EBFA074822464FF4FF
:10307000004107F0E5FA204610BD6FF00100FBE7C4
:1030800010480024000C02580018025808B500200F
:10309000FFF7DCFF4FF47A7005F098FB0020FFF794
:1030A000B5FF4FF47A70BDE8084005F08FBB000013
:1030B000064B1A68537843F0400353700122044BC7
:1030C0001A700022034B1A60704700BFFC4C0024AA
:1030D000FA4C0024184D002410B50120002400F003
:1030E00087F90A4B0A4A186013680A49C31A106024
:1030F0004C600B6008490B6008498B4236BF3C218D
:103100004FF0FF334B4306490B6010BD104D0024B8
:10311000144D0024084D0024004D00244444440470
:10312000184D002408B501F07DFAC0B2022803D181
:10313000034B00221A6008BDBDE80840FFF7CCBF72
:10314000184D002440F2011307B50020ADF80430FB
:1031500004F058FF01A9002005F046F80028F9D135
:10316000002004F0E7FE0028FAD100F09BFE00F0FA
:10317000EFFFFFF787FD03B05DF804FB454B2DE93A
:10318000F74F93F800C00025434B0120AB462F4674
:10319000B3F80080414B1988414B1A78414BB3F882
:1031A00000E02B461C46B0B90CB13C48018015B17B
:1031B0003C49A1F800E0BBF1000F02D0354981F88D
:1031C00000C00FB136490A7013B1374B324A1A604A
:1031D00003B0BDE8F08FFF2A14BF13466346022BED
:1031E000019318D8581CC0B2C3005FFA80F91E467C
:1031F0002E4B33F830A0C2450DD8B9F1030F2ED0B5
:103200002B4B33F806A0C24526D801305FFA80F96F
:10321000B9F1040FE8D1019B013BDBB2022B06D8C8
:10322000224800EBC300B0F80290C14522D2FF2A29
:103230004FF00103B8D071454FF0000035BFC918F9
:103240009B461346FF2339BF624689B200215F4681
:1032500094461A460123A5E7B9F1040FDBD0134BBE
:103260004A4603EBC903B3F804E0012400212546D4
:103270002746DCE73BB130F8069CC14503D3013B50
:103280000838DBB2CFE7094A02EBC302B2F806E026
:103290001A46EAE7784D0024D84A00246C4D0024F1
:1032A000704D00246E4D0024744D00240C2403083E
:1032B0001424030810B9024B18787047FF20704798
:1032C000784D0024F0B51348134D01882B88134C1A
:1032D000994207D1002323800022114B1860114B23
:1032E0001A70F0BD104E22883788974202D0531CC6
:1032F0009BB2F0E79942728806D85E1AB24201DCAE
:103300009B1A99B22980E5E7CE1A9642FADB1A4455
:1033100091B2F7E7404C0024824D0024804D0024F8
:103320007C4D0024794D0024844D002410B9024BBB
:103330001888704700207047824D0024014B188088
:1033400059807047844D002438B54FF4807114487B
:1033500007F070F920210546124807F06BF90821A3
:103360004400114807F066F9104944EA8504104DFD
:103370000C2264B22B782043C8540133FF20DBB207
:103380002B70013A11F8014B12F0FF0200EA040021
:10339000F7D108490B2B087088BF2A7038BD00BFD1
:1033A0000014025800180258001002588A4D0024D8
:1033B000894D0024884D0024014B1878704700BFC8
:1033C000884D002408494FF6FF7231F810309342BF
:1033D00003F1010310B508BF044C21F8103002BFFF
:1033E000225C0132225410BD9E4D00249C4D0024CD
:1033F0000128064A08D8064B06491B5C31F8101014
:10340000C3EB03430B44136010687047984D0024CE
:103410009C4D00249E4D00240368064A934202D12D
:103420000020FFF7CFBF044A934201D10120F8E703
:10343000704700BF000001400008004008B50C21A3
:1034400004480BF011FA18B1BDE80840FEF7C8B9FE
:1034500008BD00BFE846002408B50C2104480BF065
:1034600059F918B1BDE80840FEF7BAB908BD00BF68
:10347000E84600242DE9F84302260025DFF8E08025
:103480003446334F013CE4B258F8243003B11D7880
:10349000012D31D12F4A52F82430591C10D001335C
:1034A0002D4942F82430062262438818B0F804C03F
:1034B00063450DD1294B53F824300BB104209847B4
:1034C0003D550124A64201D1BDE8F8832646D9E73F
:1034D0004088834206D1214B53F82430002BEFD093
:1034E0000220ECE78A5A9342EAD11C4B53F824306D
:1034F000002BE5D00020E2E7002DE1D13B5DDFF8B5
:103500005490012B11D11448062259F8243002FBA3
:10351000040251888B420CD39288934209D20F4BFC
:1035200053F824300BB103209847002349F8243086
:10353000C6E706226243825A9342F6D38B42F4D204
:10354000064B53F82430002BEFD00120ECE700BFEE
:10355000AC4D0024A44D0024342403082C2403087B
:1035600040240308014B1870704700BF6900002415
:10357000014B1870704700BF6800002410B50A4C5A
:1035800001F076F8207001F07BF8084B084A1870BB
:10359000B0FA80F023784009B3FA83F35B09137023
:1035A000044B187010BD00BFC04D0024BF4D002457
:1035B000BE4D0024BD4D0024034B1B78012B06BFDC
:1035C000024B1878FF207047BC4D0024690000248E
:1035D000034B1B78012B06BF024B1878FF20704766
:1035E000BC4D00246800002408B5FFF7E5FF024643
:1035F000FFF7EEFF012A07D111482DF099FA0220BA
:10360000FEF7A2FF002008BD022A04D10D482DF0CC
:103610008FFA0120F4E7012804D10B482DF088FA35
:103620000520EDE7032804D108482DF011FA042005
:10363000E6E70228E6D106482DF00AFA0320DFE784
:10364000482403086024030877240308902403080F
:10365000AF2403082DE9F041524E534C32782378C1
:10366000012A524D1FD1012B0ED1FF23337023703D
:10367000FFF74CFB4E482DF05BFA32782B78022A8C
:103680004BD1012B49D109E02B7823B9FFF708F87A
:1036900048482DF04DFA2B78012B01D1FFF7A4FFFC
:1036A000FF23337039E0012B1FD12B78ABB9FFF723
:1036B0002BF8032806D1FF232370FFF775FA3E4845
:1036C0002DF036FAFFF720F8042806D1FF232370E7
:1036D000FFF792FA39482DF02BFA2B78012BCCD139
:1036E000FFF782FFFF232370C7E7022A20D1022BB6
:1036F0001ED10020FEF728FF2B78002BBDD1FFF74D
:1037000073FF2F482DF014FA01232B7005F058F8A1
:103710002C4B1860FF233370237022782B78022AF9
:1037200027D1012B3CD1FFF75FFFFF23237022E05D
:103730002B78012BA1D1244B1F78244B1B781F43DE
:103740009BD105F03DF8224BDFF88C8018601D4BB3
:103750001B68C01A43F697239842C8F800008CD91A
:103760001C482DF0E5F9FEF7D5FE2F70C8F8007063
:1037700083E7032AD5D02B78012B11D133780BB1F5
:1037800023786BB9144B00221A6005F019F8104B1E
:10379000186005F015F80B4B1860FF233370237089
:1037A000BDE8F0816900002468000024BC4D0024BD
:1037B000CB2403084E240308FC2403081E25030819
:1037C00040250308B44D0024BE4D0024BD4D002407
:1037D000B04D002470250308B84D00242DE9F04FAA
:1037E00089B0002305466946CDE90033CDE90233AF
:1037F000CDE90433CDE9063300F0C8FC18B101204F
:1038000009B0BDE8F08F01A9281D009E00F0BEFCA4
:103810000028F4D102A905F10800019C00F0B6FCD3
:103820000028ECD103A905F10C00DDF8088000F0B8
:10383000ADFC0028E3D104A905F11000039F00F0BE
:10384000A5FC0028DBD105A905F11400DDF810A0C6
:1038500000F09CFC0028D2D106A905F11800DDF883
:10386000149000F093FC0028C9D107A905F11C00B1
:10387000DDF818B000F08AFC0028C0D1079BB3F136
:10388000FF3F08BFBBF1FF3F11D1B9F1FF3F08BFB8
:10389000BAF1FF3F0DD1B7F1FF3F08BFB8F1FF3FCD
:1038A00009D104EA0600013018BF0120A8E704206E
:1038B000A6E70320A4E70220A2E7000030B500F548
:1038C0007F5485B04FF0AA330139303405462403C4
:1038D000CDE90033CDE90233032912D8DFE801F046
:1038E00002141F306946204600F04BFC08B102204C
:1038F00008E06946201D00F044FC0028F7D1164B73
:103900001D70002005B030BD01A904F1080000F0D1
:1039100038FC0028EBD101A904F10C00EBE702A967
:1039200004F1100000F02DFC0028E0D102A904F100
:10393000140000F026FC003818BF01204000E1E729
:1039400003A904F1180000F01CFC0028CFD103A942
:1039500004F11C00EDE700BFC14D00240A4808B582
:10396000FFF73CFF04280BD00848FFF737FF042877
:1039700008D1064800F00FFC003818BF012008BD30
:103980000148F7E70520FAE70000FF030010FF03F6
:103990002DE9F74300250746884606462C464FF09A
:1039A0001109CDE90055F31B984503D8484603B0EB
:1039B000BDE8F08301A9304600F0E8FB6946301D00
:1039C00000F0E4FB01AA00230133240212F8011BDA
:1039D000042B44EA156441EA0525F5D16A46002323
:1039E0000133240212F8011B042B44EA156441EA56
:1039F0000525F5D1B4F1FF3F08BFB5F1FF3F06F152
:103A00000A0618BF4FF01009CDE7000008B560B1F5
:103A10004FF480511548FFF7BBFF10280FD1134812
:103A200000F0B9FB58B1012008BD104800F0B3FB0D
:103A30000028F8D10E4800F0AEFB38B1F3E74FF4A0
:103A400080510B48FFF7A4FF1028F3D0022100207B
:103A5000FFF734FF08B10220E6E7064B202218806A
:103A6000054B1870054B1A60DEE700BF0000FF032E
:103A70000010FF03C24D0024C14D00246C0000243F
:103A80002C4B2DE9F0411C7843F6F0780746651C75
:103A900004EB080005F001050003FFF79FFE064652
:103AA00005EB08000003FFF799FE012F07D0022F56
:103AB0003DD08FB9022E11D0012E0DD11FE0022E64
:103AC0001FD11D4E40F6F57332689A4206D904287C
:103AD00007D1FFF743FF20B14FF0FF342046BDE888
:103AE000F08103212046FFF7E9FE0028F4D10221EE
:103AF0002846FFF7E3FE0028EED1202333602C4652
:103B0000ECE7012EE8D10C4E3368B3F5805FE5D3C6
:103B1000042807D003212046FFF7D0FE0028DBD180
:103B20000121E5E7FFF71AFF0028F3D0D4E70028CA
:103B3000E5D0D1E7C14D00246C0000242DE9F04F01
:103B4000064685B000200F46CDE90200ADF804001E
:103B5000FFF796FFB0F1FF3F814650D000F57F544C
:103B6000DFF8A480303424032046FFF737FE831E9D
:103B7000DBB2022B01D907201AE0D8F800A004F12B
:103B8000040BBAF11F0F0BD809F1010909F0010963
:103B900009F57F54303424032046FFF71FFEE6E783
:103BA00002A90BEB0A0000F0F1FA054618B180B249
:103BB00005B0BDE8F08F029B5A1C1DD01BBA9E4277
:103BC0001AD1A24403A9504600F0E0FA2A46042183
:103BD00003A8039C00F05CFD01A906460AF1080059
:103BE00000F0D4FABDF804305BBA9BB2B34208D1FE
:103BF00024BA28463C60DBE7AAF10A0AC1E70320A1
:103C0000D6E74FF48170D3E76C0000247FB51F4ED8
:103C100009BA00BA33880291B3F5CB7F039031D251
:103C20000120FFF72DFF431C2ED000F57F54042107
:103C3000002202A800F02CFD303440BA144D2403B9
:103C400002A9ADF804002868204400F09AFA10B1E7
:103C5000012004B070BD286803A90430204400F09E
:103C600090FA0028F4D1286801A90830204400F017
:103C700088FA0028ECD12B680A332B603388013393
:103C80003380E6E71220E4E70320E2E7C24D002498
:103C90006C0000242DE9F04FB2F1000A87B04FF01C
:103CA000000507460CBF0220012001910595CDE9D2
:103CB0000355FFF7E5FE431C044600F0D0806A4E32
:103CC0002023DFF8B0913580684DC9F800302870A6
:103CD000BAF1000F10D0013404F0010404F57F5054
:103CE00030300003FFF77AFD02280ED10421204670
:103CF000FFF7E4FD58B104E00121FFF7DFFD0028E4
:103D0000E9D0022007B0BDE8F08F04283DD184F04F
:103D1000010443F6F07B04EB0B000003FFF75EFDAC
:103D2000C31EDBB2012B24D9BAF1010F32D00199A5
:103D30003846FFF76BFF0028E3D14D4C2068B842AE
:103D40000BD003A9FFF7FAFE002840F08480039906
:103D50002068FFF75BFF0028D4D102212878FFF705
:103D6000ADFD0028CDD1FFF7F9FD002818BF0520D3
:103D7000C8E7032802D084F00104CCE704212046E0
:103D8000FFF79CFD0028F6D0BBE7BAF1010F68D120
:103D9000032866D14FF0000A4FF0200843F6F07B6D
:103DA0005446287805A9584408EB003000F0EEF995
:103DB000287804A9584408EB0030043000F0E6F9F4
:103DC00005A900220132240211F8010B042A44EA59
:103DD0001A6440EA0A2AF5D104A900220132240219
:103DE00011F8010B042A44EA1A6440EA0A2AF5D1C0
:103DF000B4F1FF3F08BFBAF1FF3F0DD0328808F1A0
:103E00000A0801323280D9F800200A32C9F80020AD
:103E100041F206029045C4D12C7843F6F079013482
:103E200004F0010404EB09000003FFF7D7FC0328AA
:103E30007FF47DAF84F001003388484403F5CB73F1
:103E400000033380FFF7CAFC032802BF338803F561
:103E5000CB7333806BE707283FF47FAF52E7042032
:103E600050E70A204EE700BFC24D0024C14D002498
:103E7000180000246C00002438B504460D46FFF7F6
:103E8000C5FE122806D1294620460022BDE838404A
:103E9000FFF700BF38BD431E033301D8FFF7ECBF67
:103EA000082070472DE9F74F05467E48FFF796FC3E
:103EB000431EDBB2012B42D9C31E00265C425C418B
:103EC0007948FFF78BFC431EDBB2012B55D9032841
:103ED00038D1C4F10104002E4DD07248FFF77EFCAA
:103EE00001284CD07048FFF779FC0128044604D122
:103EF0006C48FFF773FC002847D06A48FFF76EFC58
:103F0000022854D16848FFF769FC002851D1674B5B
:103F1000012418706448FFF761FC02284DD0032883
:103F200008BF0126002C53D1701C604B022100F009
:103F300001001870FFF7C2FC002849D017E00024E8
:103F40000126BDE7CEB964B33446013404F0010460
:103F500004F57F5430342003FFF740FC0428BCD123
:103F6000701C01210840FFF7A9FC0028B5D00220F1
:103F700003B0BDE8F08F0126E7E70026ADE74A4829
:103F8000FFF72CFC04460028ACD10021474B01224E
:103F900008461C70FFF77EFEB0F5807FADD00C2088
:103FA000E6E7204603B0BDE8F04FFFF72FBD03283A
:103FB00001D00024AEE70026FBE73A48FFF70EFCED
:103FC0000028AFD10CB10A20D2E7384B01221A7079
:103FD000374E4FF00009374F2024DFF8D080A6F885
:103FE00000903C6098F8000043F6F07B01A958442B
:103FF00004EB0030CDE9009900F0C8F898F8000013
:10400000DDF804A06946584404EB0030043000F0A9
:10401000BDF8BAF1FF3F009B0CD001330AD03388C2
:104020000A34013333803B680A333B6041F20603B4
:104030009C42D7D198F800707C1C012F04F0010439
:1040400004F57F5000F130004FEA003008D9FFF747
:10405000C5FB0328B7D13388274603F5CB733380DC
:1040600098F8004043F6F078013404F0010404EBC2
:104070000806BC424FEA063601D1002078E745B970
:10408000304600F088F810B984F00104EFE7012011
:104090006EE74FF480513046FFF77AFC1028F3D1D9
:1040A000EEE700BF0000FF030010FF03C14D002436
:1040B000C24D00246C00002470B5002086B0029030
:1040C000ADF804000390CDE90400FFF7D9FC431CD0
:1040D00038D000F57F54303424032046FFF77EFBB0
:1040E000022802D0002006B070BD04F1240504F5BA
:1040F00080540A3404A9284600F048F8049B1BBAEF
:104100000293029B013319D005A9281F00F03EF845
:10411000059B002204211BBA05A8039300F0B8FAFE
:1041200001A90646281D00F031F8BDF804305BBA3D
:104130009BB2B34208D1029B039A1A600A35A5428A
:10414000D8D1CFE70320CEE74FF48170CBE7000052
:1041500008B55022034904482CF021FFBDE808406F
:10416000FFF7AABFBC2303081C4D002438B50D4639
:104170001446FFF790FE08B9256038BD4FF6FB7076
:10418000FBE702460423002003F04CBE0246042352
:10419000002003F027BE00220146104603F09ABE1D
:1041A00038B50024044DE3B2013455F8233003B987
:1041B00038BD9847F7E700BFC825030838B5002485
:1041C000044DE3B2013455F8233003B938BD9847A4
:1041D000F7E700BFC025030838B50024044DE3B25B
:1041E000013455F8233003B938BD9847F7E700BFCD
:1041F000B825030838B50024044DE3B2013455F85E
:10420000233003B938BD9847F7E700BFB02503084E
:1042100038B50024044DE3B2013455F8233003B916
:1042200038BD9847F7E700BFA825030838B5002434
:10423000044DE3B2013455F8233003B938BD984733
:10424000F7E700BFA025030838B50024044DE3B20A
:10425000013455F8233003B938BD9847F7E700BF5C
:104260009825030808B50020FFF724F8431E58429C
:10427000584108BD08B50020FFF71CF8831E5842BE
:10428000584108BD08B50020FFF714F8C31E584276
:10429000584108BD08B50020FFF70CF8B0FA80F0CF
:1042A000400908BD38B500200024074DFFF702F88B
:1042B000014606482CF0CCFBE3B2013455F823301C
:1042C00003B938BD9847F7E7D02503088B250308C5
:1042D0007047704770477047704770477047704726
:1042E00038B50024044DE3B2013455F8233003B946
:1042F00038BD9847F7E700BF7426030838B5002497
:10430000044DE3B2013455F8233003B938BD984762
:10431000F7E700BF6C26030838B50024044DE3B26C
:10432000013455F8233003B938BD9847F7E700BF8B
:104330006426030838B50024044DE3B2013455F86F
:10434000233003B938BD9847F7E700BF5C26030860
:1043500038B50024044DE3B2013455F8233003B9D5
:1043600038BD9847F7E700BF5426030838B5002446
:10437000044DE3B2013455F8233003B938BD9847F2
:10438000F7E700BF4C26030838B50024044DE3B21C
:10439000013455F8233003B938BD9847F7E700BF1B
:1043A0004426030808B500F03DF9431E5842584121
:1043B00008BD000008B500F035F9022805D1044B0E
:1043C0001888031F5842584108BD0020FCE700BF71
:1043D0007000002408B500F025F9022806D1044B2E
:1043E0001888A0F108035842584108BD0020FCE796
:1043F0007000002408B500F015F9022806D1044B1E
:104400001888A0F110035842584108BD0020FCE76D
:1044100070000024014B1888704700BF7000002412
:10442000102802D1034B188003E00828FAD0042892
:10443000F8D070477000002470470000042008B5D1
:10444000FFF7EEFF0248BDE808402CF071BB00BF4B
:10445000DC26030808B50D4809F09CFD002249F64A
:1044600040410A4809F03AFD08B1FDF7B9F9FDF7F6
:10447000B5FE07F019FD064806F0CEFD01210846FD
:1044800007F0ECFC014809F085FDFEE73447002405
:104490001048002408B5FFF7BDFF0428094A08D1D9
:1044A000138841F6641101339BB28B4203D0138011
:1044B00008BD0023FBE7002310201380BDE808405F
:1044C000FFF7AEBFC44D0024704770470820FFF7C8
:1044D000A7BF000008B5134BD3F8D020D1001BD4E0
:1044E000D3F8D020520117D40F4A526AD00705D50D
:1044F0000E48082106F0A9F8062008BDD3F8D02000
:1045000091020BD4D3F8D020520209D4D3F8D000B2
:10451000C0F3C0508000F0E70320EEE70120ECE795
:104520000520EAE7004402580048025800080258F3
:1045300010B5FFF7CFFF044606281BD8DFE800F0D0
:1045400004121A10141618000B482CF0F1FA0B4A3A
:104550002046D2F8D03043F48033C2F8D03010BDBA
:104560000748F2E70748F0E70748EEE70748ECE7B7
:104570000748EAE70748E8E7F1260308004402583D
:10458000062703081E2703083D2703086F27030893
:1045900088270308AB27030838B50024044DE3B28D
:1045A000013455F8233003B938BD9847F7E700BF09
:1045B000D827030838B50024044DE3B2013455F878
:1045C000233003B938BD9847F7E700BFD027030869
:1045D00038B50024044DE3B2013455F8233003B953
:1045E00038BD9847F7E700BFC827030838B500244F
:1045F000044DE3B2013455F8233003B938BD984770
:10460000F7E700BFC027030808B5FEF7D5FE6FEA3D
:10461000900000F0010008BD08B5FEF7CDFEC0F324
:10462000800008BD002000F04DB8000008B5054826
:104630002CF07EFAFEF710FFFEF784FDBDE808407F
:10464000FDF78AB81C28030808B503482CF070FA57
:10465000BDE80840FEF7F2BE4028030870477047E7
:1046600008B5FEF7A9FE014B187008BDC64D002421
:10467000024B187800F00100704700BFC64D0024BF
:10468000024B1878C0F34000704700BFC64D0024AD
:1046900003460144104670B541F221058B4200D11A
:1046A00070BD13F8012B082480EA022006B24200F4
:1046B000002E90B204F1FF32B8BF684012F0FF0440
:1046C000F4D1EBE7014B33F810007047C84D0024DC
:1046D000034B02221A805A8004229A80704700BF3E
:1046E000C84D00242DE9F84F184E0025DFF86080F2
:1046F0004FF00C0958F8357036F802BB0FB34FF085
:10470000000A05E0A368E3B198471AE00AF1010A3C
:104710005FFA8AF309FB03F3FC18FB5A8BB113EA27
:104720000B0FF3D063885B45ECD06368002BEDD0B2
:1047300098470028EAD0A36803B19847638826F811
:10474000023C0135032DD5D1BDE8F88FC84D0024BA
:104750006C28030870470000DFF834D003F0A0FF96
:10476000002103E00B4B5B58435004310A480B4BCC
:1047700042189A42F6D30A4A02E0002342F8043B68
:10478000084B9A42F9D32CF0E3FBFCF785FA70470B
:10479000000005245C76030800000024800100244A
:1047A00080010024B8B20124FEE7704708B501F08B
:1047B000F7F8BDE8084001F07BB801F0F3B84068B5
:1047C00070474160704700004FF0E022D2F8FC3D96
:1047D00043F08073C2F8FC3D054B064AD3F8B01F86
:1047E0000A43C3F8B02F1A6842F001021A607047FA
:1047F000001000E055CEACC5521A02EB5302B2FBDA
:10480000F3F07047014B5868704700BF001000E09C
:10481000704710B504460C212BF0DFFB204610BD7D
:10482000036810B51B69044631B19847A2686368F4
:104830009B1A0344636010BD9847A060FBE7704774
:104840001FB5082300206946CDE90230054B1B88BF
:104850000093054B1B88019303F040FE05B05DF803
:1048600004FB00BF9AA601249CA6012410B50446AF
:1048700004212BF0B2FB204610BD30B585B00020DE
:104880000D46144601A90390CDE9010003F0A8FEEE
:1048900040B14FF0500383F31188BFF36F8FBFF324
:1048A0004F8FFEE7019820B1029B01202B60039BF4
:1048B000236005B030BD0000032825D8DFE800F0F4
:1048C000020B131C114B012111481A68B2FA82F233
:1048D000520905F0B5BE0D4B08210E485A68B2FAD0
:1048E00082F25209F5E7094B4FF480419A68B2FA17
:1048F00082F252090848ECE7044B4FF40041DA68B1
:10490000B2FA82F25209F5E7704700BFD04D002499
:10491000000002580018025800040258032825D845
:10492000DFE800F0020B131C114B012111481A683B
:10493000003A18BF012205F083BE0D4B08210E4836
:104940005A68003A18BF0122F5E7094B4FF480413D
:104950009A68003A18BF01220848ECE7044B4FF46C
:104960000041DA68003A18BF0122F5E7704700BF3E
:10497000D04D0024000002580018025800040258CC
:10498000032811D8DFE800F00206090D01210748CD
:1049900005F05BBE08210648FAE74FF48041054860
:1049A000F6E74FF40041FAE7704700BF00000258F5
:1049B000001802580004025808B5032815D8DFE88B
:1049C00000F0020A0D110121094805F033FE431ED3
:1049D0005842584108BD08210648F6E74FF4804187
:1049E0000548F2E74FF40041FAE70020EFE700BF87
:1049F00000000258001802580004025870B5084D13
:104A000000240126E0B2FFF7D7FF18B12B68012B75
:104A100018BF2E6001340435052CF3D170BD00BFE2
:104A2000D04D0024012380F8781080F87930704749
:104A30000020704741640039024B18BF01211970F2
:104A4000704700BF9FA6012400207047836B0BB105
:104A50000846184770474FF6FF7070474068036874
:104A60009B6918477047000038B5044601F0C6F846
:104A70000749236804F17C052046D3F88C30984719
:104A80002846FFF7A1FE0123256184F8703038BD68
:104A90000000007008B503680446D3F880309847DA
:104AA000236820469B6F984700F02CF92368204626
:104AB0001B6F984701224FF48061084805F0C0FD44
:104AC00001224FF40041064805F0BAFD00F01AF942
:104AD000236820461B6F9847F8E700BF000C025878
:104AE0000018025810B504461AF0EAFD2368204663
:104AF000D3F8AC30BDE81040184701F04BB801F0D6
:104B00004FB8000070B501F0A3F810490023C1F8B8
:104B10008430BFF34F8FD1F8803043F6E074C3F395
:104B2000C900C3F34E335B0103EA0406024646EABA
:104B30008275013AC1F87452F9D2203B13F1200F6B
:104B4000F2D1BFF34F8FBFF36F8F70BD00ED00E068
:104B500000F0FCBF01F0E6B901F0EEB901F000B8D9
:104B60001AF01AB810B5044688212BF036FA204600
:104B700010BD000090F834100D4B10B590F878403F
:104B80001A788C4209D03AB90A490B4A0888148825
:104B9000108001220C801A7010BD002AFCD0064A39
:104BA0000449148808880C8010800022F3E700BFB5
:104BB00098A6012496A6012494A6012470B50D465A
:104BC000194635B9094B40F2D221094A09482BF060
:104BD0007BFDC0E90F52003A074B18BF01221A7043
:104BE0000368BDE87040D3F88C301847C02803082C
:104BF000F8280308462903089EA6012408B5094B96
:104C00001B888B4203D8084B1B88934205D9074B5E
:104C10009E21074A07482BF057FD074B1980074B89
:104C20001A8008BD94A6012496A601248B290308A6
:104C3000EE290308462903089AA601249CA601240C
:104C4000034690F87A0018B1586803681B68184743
:104C500070470000014608B5034B186801B10121F7
:104C60001AF048FD012008BDA0A601240121002260
:104C700008B508460AF078FB0A4B186028B90A4BB9
:104C800028210A4A0A482BF01FFD00220421012096
:104C90000AF009FC074B186018B9074B2C21034A8E
:104CA000F0E708BDE44D00240C2B0308552B030846
:104CB000842B0308E04D0024E92B0308024B4FF03E
:104CC000FF3118680AF09ABBE44D0024014B1868C4
:104CD0000AF0C0BBE44D0024024B002118680AF022
:104CE0008DBB00BFE44D0024FFF7F0BF0023034855
:104CF00003491A4600680AF011BC00BFE04D0024C9
:104D00007400002413B50023074C01A91A4620683B
:104D10000AF035FC4FF0FF33002201A920680AF0A9
:104D20002EFC02B010BD00BFE04D002403685B6C98
:104D300018470120704703689B6A184740F2EF301C
:104D400070470000054B4FF080620360044BC3F8CE
:104D50008820BFF34F8FBFF36F8F7047A02D0308DC
:104D600000E100E010B504464FF45A61FFF7EAFF96
:104D700020462BF032F9204610BD00000F4B82B0C8
:104D8000D3F8D42042F01002C3F8D420D3F8D420B2
:104D900002F010020192019ADA6F42F01002DA6713
:104DA000DA6F22F01002DA67054B064A1A62064BE8
:104DB0004FF080629A6002B0704700BF0044025812
:104DC000684900241150000800E100E008B50A28F5
:104DD00009D8DFE800F006100E08080808101010C7
:104DE0001000022008BD054B8621054A05482BF01E
:104DF0006BFC0020F6E70120F4E700BF2B2C030832
:104E0000462C0308912C030838B50C46887FFFF721
:104E1000DDFF124BA58AE28A586342EA0542216906
:104E20005A64628BD963521B1A642568082D0ED10F
:104E30009A611A6158620A4A207F42EA0062DA6186
:104E4000E2681A62074A5961D9601A6038BD0022C7
:104E5000D8611A61E2689A63034AF6E700100052CB
:104E600009000100010202000102030008B50B283D
:104E70000BD8DFE800F00612100A0A0A0A08080830
:104E80000808022008BD0520FCE7054B6521054AFE
:104E900005482BF019FC0020F4E70120F2E700BFE1
:104EA0002B2C0308F42C0308912C03082DE9F8435C
:104EB0004F7F89463846FFF7D9FF99F81E50804644
:104EC0002846FFF7D3FF06462846FFF77FFFB9F8CD
:104ED0001410B9F81A40B9F81820454B641A521A40
:104EE0001C649C611A61B9F81620586342EA0142B9
:104EF000D9F810105A64D9F80420D963DA60D9F8C7
:104F0000004099F81C20802C22D00FD8202C66D08D
:104F1000402C64D0042C5CD048EA0260344BAF4291
:104F200040F40030D86160D0324A3FE0B4F5807F71
:104F300004D0B4F5007FEFD12F4800E02F4840EABD
:104F40000262DA61D9F80C201A625E6259612CE0C3
:104F500048EA0260D9F8084040F40030D8615E6247
:104F60005961211DD962217841B1012921D0244BF9
:104F70004FF48071234A24482BF0A6FBDA6961883C
:104F800022F47F42013922F0100242EA0122DA6162
:104F90000122174BD96941F02001D961D9698906ED
:104FA000FCD410219960002ABED0184A1A60BDE8CE
:104FB000F883D969FF3A608821F47F4118BF012244
:104FC000013821F0100141EA002141F01001D961BE
:104FD000DFE748EA026242F40032DA61B5E748EA04
:104FE0000262034B42F40032F7E740F20122DDE7B0
:104FF0000010005201020100090002000A00020034
:105000003E2D0308582D0308912C030801020200CD
:10501000024B1B68586803685B691847A0A6012407
:1050200070B504460A4B0C300026254660226060AD
:105030002672667245F8203B29461AF0B1FC04F549
:105040005A63EE6024359D42FBD1204670BD00BFFF
:10505000A02D0308034B1A68D207FCD423229A60C0
:10506000704700BF0010005230B5104C2568ED07A6
:10507000FCD423250904FF2BA5604FF0010541EA6C
:10508000050165636164E0630CD0094922F07F4249
:10509000656241EA0363E361064B22626061E0609E
:1050A000236030BDE561044BA263F9E700100052B4
:1050B000090001000100020001000300406970477F
:1050C00090F844007047036B23B9C06A003818BFDA
:1050D000012070470120704780687047043010B588
:1050E0000C460FC884E80F0010BD704708B5034A8E
:1050F00040F21221024B03482BF0E6FAE82D030898
:105100008B480308432E030810B5044648212AF0B3
:1051100064FF204610BD2DE9F0411E46ADF51E7D11
:10512000436B07460C469046A69D93B3002203A806
:10513000CDE9013212F07CFA4FF4F4725021249040
:1051400024A80CF042FA4246214624A80DF096F914
:10515000012124A80CF034FB022324A88DF8D830B8
:105160000CF0CFFB419BBDF89482BDF8902298458E
:1051700028BF98462B9B9A4228BF1A4602EB42044E
:10518000479B984509D824A80CF03CFB24A80CF0B8
:1051900069FA0DF51E7DBDE8F081012201A924A860
:1051A0000CF0F8FB30462246796B2E442BF0F7FECC
:1051B000E6E700000A4A02600022C0E90522C0E9D1
:1051C0000722C0E90922C0E90B22C0E90D12C0E99B
:1051D0000F2280F84420C0E90322C0E90122704771
:1051E0003C31030810B40C4611461A46036B3BB120
:1051F000036C806BE41A20445DF8044B2BF0A0BDD7
:10520000C06AF8E7036B10B573B1036C826BC91AFF
:105210005318525C98785C780004DB7840EA0420EC
:10522000104340EA036010BDC36A5858FBE7036BA4
:1052300043B1036CC91A836B5A18585C527840EA20
:1052400002207047C36A585A7047000070B5044680
:10525000006B0D461646D8B1E36B934208D2092382
:105260000D4A65210D4884F844300D4B2BF02CFA83
:105270000368DB689847206B3246A16B03681B69A3
:10528000984710B90D2384F84430A06B256470BD95
:10529000E06A0844FBE700BFC52E0308432E03085D
:1052A000B22E03082DE9F843436904462BB9234B7A
:1052B000AA21234A23482BF007FA08228169FFF725
:1052C000C5FFA16943F2300646F264370431204637
:1052D000FFF798FFA3691844A36A00F108029A42F5
:1052E00006D3012300206361236AA361BDE8F8832C
:1052F000636909300822013320F00101204663610F
:10530000A161FFF7A3FFD4F8189020464946FFF7A4
:105310008EFF09F1020180462046FFF788FF09F160
:10532000040105462046FFF76DFFB045D2D1BD42CE
:10533000D0D10028CED00120D8E700BF072F030826
:10534000502F0308432E03082DE9F04F0546ADF515
:105350001F7D8B469046816908221F46FFF776FF26
:10536000AE692846311DFFF74DFF06F108010246E0
:1053700004462846FFF76AFF6B6B064633B9344B89
:1053800040F2AB11334A34482BF09EF9002203A8B7
:10539000CDE9013212F04CF94FF4F472502124900F
:1053A00024A80CF012F92246314624A80DF066F824
:1053B000012124A80CF004FA022324A88DF8D83087
:1053C0000CF09FFABBF902A0479B53452DD3BBF8C5
:1053D000063007EB4707BBF80260BBF900401E44EC
:1053E000BBF80420419B04EB440936B2224407FB7E
:1053F0000A9A9E4212B2D04428BF1E462B9B9A4264
:1054000094BFC4EB0204C4EB030404EB4404479BC5
:10541000B34210D324A80CF0F5F924A80CF022F91B
:1054200001200DF51F7DBDE8F08F012201A924A800
:105430000CF0B0FAC8E7012201A924A80CF0AAFADE
:10544000696B404622464944B8442BF0A8FDDEE78C
:10545000832F0308D92F0308432E0308012903686B
:1054600038BF0121DB6A70B50D4604469847A84253
:1054700004D223682046DB6A984705466B1EE6691E
:105480001022204606EB031606F10801FFF7DEFEA8
:1054900006F110012046FFF7B5FE236A043B0344E2
:1054A000C4E9055370BD0000002148222DE9F041F8
:1054B0000446816180F84410FFF7C8FEA669042302
:1054C000624A31462046FFF78DFE40B10323604A11
:1054D000F22184F844305F4B5F482BF0F5F806F179
:1054E000080104235D4A2046A161FFF77BFE30B12D
:1054F0000423574AFA2184F84430594BECE706F16B
:105500000C010423574A2046A161FFF76BFE0746B2
:1055100038B105234E4A40F2011184F84430524B11
:10552000DAE706F110012046FFF76CFE054620B9C8
:105530004E4B40F20711464ACEE706F11408042309
:105540004B4A20464146FFF74DFE002849D006232E
:1055500084F844300423474A06F118012046FFF737
:1055600041FE00283FD0072384F844304544424F91
:105570000C2220462946FFF769FE05F108060423A0
:105580003A4620463146FFF72DFE94F84430002875
:1055900048D0002B48D1A36AAB4249D805F10C038F
:1055A00004352046A3612946FFF72CFE30442946E6
:1055B00060622046FFF726FE06440422204631465C
:1055C000FFF744FE04232D4A31462046FFF70AFE2A
:1055D000002838D10123E6616361A3692362BDE835
:1055E000F0810127B6E7002FC0D006F12001204648
:1055F000FFF708FE4FF47A7306F13001B0FBF3F0C9
:1056000060602046FFF7FEFD06F14001A0602046E5
:10561000FFF7F8FD06F14401E0602046FFF7F2FDD8
:105620002061A3E7002BB9D00A2384F84430D6E7E1
:10563000291D2046FFF7E6FD85190C222046294644
:10564000FFF704FE99E70B23EFE700BF33300308B1
:105650005130030838300308432E03087E30030816
:10566000833003089B300308A0300308B6300308DA
:10567000C2300308C7300308CC300308D130030818
:10568000C0E90A2100220263FFF70EBF10B5002314
:1056900004460846E3620B6821639B689847A06252
:1056A0002046BDE81040FFF7FFBEF0B4069FBDF8EE
:1056B0001050BDF8146032B12BB10495CDE90567E7
:1056C000F0BCFFF728BDF0BC704700002DE9F04F9B
:1056D0009946436985B004460F4690462BB9294B3D
:1056E0007721294A29482AF0EFFF08228169FFF72C
:1056F000ADFDA66920463146FFF799FDB11C8346F2
:105700002046FFF794FD311D82462046FFF77AFDC3
:1057100006F10801A36A054642189A4226D243F2CE
:1057200030039B4517D146F264339A4513D190B1AB
:105730000246A1612046FFF789FD0E9B01462A46DD
:105740002046CDF80080CDE901933B46FFF7ADFF41
:10575000636901336361A3692B4405B908330133DD
:10576000626A23F001039342A36109D1012301205E
:105770006361236AA36180F0010005B0BDE8F08F8A
:105780000020F8E7072F0308D6300308432E03084C
:10579000012070470C2070470C2303FB01000830E8
:1057A00070470C2303FB010008307047012070474D
:1057B000C4207047C42303FB010008307047C42392
:1057C00003FB01000830704701207047102070472C
:1057D00000EB01100830704700EB011008307047F3
:1057E000084600F0DBBE0000034B10B50446036022
:1057F00018F028FF204610BDE431030810B5044618
:10580000FFF7F2FF142120462AF0E7FB204610BDE7
:10581000034B10B50446036018F014FF204610BD7A
:10582000B031030810B50446FFF7F2FFCC21204643
:105830002AF0D3FB204610BD034B10B5044603608D
:1058400018F000FF204610BD7C31030810B5044657
:10585000FFF7F2FF182120462AF0BFFB204610BDBB
:10586000084B10B5044640F8F83BFFF7BDFF04F1C4
:105870002C00FFF7CDFF04F11400FFF7DDFF2046F9
:1058800010BD00BF1832030808B50248FFF7E8FF53
:1058900008BD00BFA05C002410B50446FFF7E0FF80
:1058A0004FF41C7120462AF098FB204610BD0000E2
:1058B0002DE9F34100F0FAFC0024054600F0FAFC63
:1058C0002346014622462846009420F0C9FB274B78
:1058D000274A2046274D1A6001F090F8264B274AA8
:1058E00027489A6020F074FA2B68BFF35B8FDB07C0
:1058F00035D428462AF073FB88B3224C224B04F59A
:105900008A7604F1140004F12C0804F1F8072360EE
:105910006060C4F80880E760266118F095FE1B4BB4
:105920004046636118F090FE194B3846E36218F068
:105930008BFE184B04F58670C4F8F83001F0D4F8EB
:10594000224604F58671304601F0C4F8304600F076
:1059500025FE11482AF0D6FE28462AF04CFB0F48B7
:1059600002B0BDE8F041FFF77FB800BF04A70124F3
:10597000704E00249C5C0024904E0024744E002441
:1059800078000024A05C0024183203087C3103084E
:10599000B0310308E431030889580008E84D0024B9
:1059A000704700000148FFF775B800BFE84D0024BC
:1059B00070B5274E274B284C3046284D2360FFF703
:1059C0002FFB284623F0FAFB25481EF037FC254B19
:1059D00000224FF4807124481A8683F858205A66B2
:1059E00083F87020DC60C3E912122049C3E91A125F
:1059F0001F490B604FF4F07101801E4801804FF485
:105A000088711D4801801D4801801D49C3E9042299
:105A1000C3E90622C3E90822C3E90A22C3E90E2228
:105A2000C3E91022C3E91422C3E91722C3E90165BF
:105A30000A701449C3F8802083F8342019605A672B
:105A40001149C3F88420114A9967DA6770BD00BF15
:105A5000F84E0024B0280308985C0024904E0024DF
:105A6000744E0024E84D002494A601240100000196
:105A7000A0A601249AA6012496A601249CA601248E
:105A800098A601243C2A0308000001018828030885
:105A90000148FFF757B900BFF84E002400207047B7
:105AA00081807047C1807047018170474181704794
:105AB0007047704770477047704710B4C4880368D8
:105AC000121B84885B6D091B12B25DF8044B09B28E
:105AD00018474FF6FF7383814FF0FF33036213685B
