:020000040800F2
:10000000000005240D350008F51F0008F71F000843
:10001000F91F0008FB1F0008FD1F0008000000007A
:1000200000000000000000000000000031D50008C2
:10003000FF1F000800000000C1D5000867CD0008C0
:100040005D3500085D3500085D35000801200008B9
:100050005D3500085D3500085D3500085D35000838
:100060005D3500085D3500080D2000085D3500088D
:100070005D3500085D3500085D3500085D35000818
:100080005D3500085D3500085D3500085D35000808
:100090005D3500085D3500085D3500085D350008F8
:1000A0005D3500085D3500085D3500081520000845
:1000B0005D3500085D350008212000085D35000829
:1000C0005D3500085D3500085D3500085D350008C8
:1000D0005D3500085D3500085D3500085D350008B8
:1000E0005D3500085D350008000000005D35000842
:1000F0005D3500085D3500085D3500085D35000898
:100100005D3500085D3500085D3500085D35000887
:100110005D3500085D3500082D2000085D350008BC
:100120005D3500085D3500085D3500085D35000867
:100130005D3500085D3500085D3500085D35000857
:1001400000000000000000000000000000000000AF
:100150005D3500085D3500085D3500085D35000837
:100160005D3500085D3500085D3500085D35000827
:100170005D3500085D3500085D3500085D35000817
:100180005D3500085D3500085D3500085D35000807
:100190005D3500085D3500085D3500085D350008F7
:1001A000392000085D3500084520000800000000E7
:1001B0005D3500085D3500085D3500085D350008D7
:1001C0005D3500085D3500080000000000000000FB
:1001D00000000000000000005D3500080000000085
:1001E000000000000000000000000000000000000F
:1001F00000000000000000005D3500085D350008CB
:100200005D3500085D350008000000005D35000820
:100210005D3500085D3500085D3500085D35000876
:100220005D350008000000005D350008000000009A
:100230005D3500085D350008000000005D350008F0
:100240005D3500085D3500085D3500085D35000846
:100250005D3500085D3500085D3500085D35000836
:100260005D3500085D3500085D3500085D35000826
:100270005D3500085D3500085D35000800000000B0
:100280005D3500085D3500085D3500085D35000806
:10029000000000005D3500085D3500085D35000890
:1002A0005D3500085D3500085D3500085D350008E6
:1002B0005D3500085D3500085D3500085D350008D6
:0C02C0005D3500085D3500085D35000864
:1002D00010B5054C237833B9044B13B10448AFF380
:1002E00000800123237010BD2001002400000000C5
:1002F00048F8020808B5034B1BB103490348AFF3A4
:10030000008008BD000000002401002448F8020815
:1003100001F0FF01102A2BDB10F0070F08D010F8B6
:10032000013B013A8B422DD010F0070F42B3F6D1BA
:10033000F0B441EA012141EA014122F007047FF0D3
:1003400000070023F0E80256083C85EA010586EA2A
:10035000010685FA47F5A3FA87F586FA47F6A5FA66
:1003600087F68EB9EED1F0BC01F0FF0102F0070272
:1003700032B110F8013B013A83EA010313B1F8D11D
:100380000020704701387047002D06BF35460338FE
:10039000073815F0010F07D1013015F4807F02BF37
:1003A000013015F4C03F0130F0BC0138704700BF88
:1003B00081F0004102E000BF83F0004330B54FEA16
:1003C00041044FEA430594EA050F08BF90EA020F83
:1003D0001FBF54EA000C55EA020C7FEA645C7FEA16
:1003E000655C00F0E2804FEA5454D4EB5555B8BF39
:1003F0006D420CDD2C4480EA020281EA030382EAAA
:10040000000083EA010180EA020281EA0303362D3B
:1004100088BF30BD11F0004F4FEA01314FF4801C0E
:100420004CEA113102D0404261EB410113F0004F20
:100430004FEA03334CEA133302D0524263EB4303D7
:1004400094EA050F00F0A780A4F10104D5F1200E75
:100450000DDB02FA0EFC22FA05F2801841F10001D0
:1004600003FA0EF2801843FA05F359410EE0A5F1A4
:1004700020050EF1200E012A03FA0EFC28BF4CF0D5
:10048000020C43FA05F3C01851EBE37101F000458B
:1004900007D54FF0000EDCF1000C7EEB00006EEB98
:1004A0000101B1F5801F1BD3B1F5001F0CD3490822
:1004B0005FEA30004FEA3C0C04F101044FEA445279
:1004C00012F5800F80F09A80BCF1004F08BF5FEA00
:1004D000500C50F1000041EB045141EA050130BDE0
:1004E0005FEA4C0C404141EB0101013C28BFB1F5F2
:1004F000801FE9D291F0000F04BF01460020B1FA3D
:1005000081F308BF2033A3F10B03B3F120020CDA0F
:100510000C3208DD02F1140CC2F10C0201FA0CF0ED
:1005200021FA02F10CE002F11402D8BFC2F1200C52
:1005300001FA02F120FA0CFCDCBF41EA0C01904008
:10054000E41AA2BF01EB0451294330BD6FEA040451
:100550001F3C1CDA0C340EDC04F11404C4F120023C
:1005600020FA04F001FA02F340EA030021FA04F34E
:1005700045EA030130BDC4F10C04C4F1200220FAA5
:1005800002F001FA04F340EA0300294630BD21FAE3
:1005900004F0294630BD94F0000F83F4801306BFA9
:1005A00081F480110134013D4EE77FEA645C18BF9D
:1005B0007FEA655C29D094EA050F08BF90EA020F34
:1005C00005D054EA000C04BF1946104630BD91EA2C
:1005D000030F1EBF0021002030BD5FEA545C05D12F
:1005E0004000494128BF41F0004130BD14F580046E
:1005F0003CBF01F5801130BD01F0004545F0FE41E2
:1006000041F470014FF0000030BD7FEA645C1ABF16
:10061000194610467FEA655C1CBF0B46024650EA4D
:10062000013406BF52EA033591EA030F41F4002179
:1006300030BD00BF90F0000F04BF0021704730B5FF
:100640004FF4806404F132044FF000054FF00001D4
:1006500050E700BF90F0000F04BF0021704730B595
:100660004FF4806404F1320410F0004548BF40426A
:100670004FF000013EE700BF42004FEAE2014FEABF
:1006800031014FEA02701FBF12F07F4393F07F4F9A
:1006900081F06051704732F07F4208BF704793F09D
:1006A0007F4F04BF41F40021704730B54FF46074B0
:1006B00001F0004521F000411CE700BF50EA0102B3
:1006C00008BF704730B54FF000050AE050EA01025C
:1006D00008BF704730B511F0004502D5404261EBCC
:1006E00041014FF4806404F132045FEA915C3FF40D
:1006F000D8AE4FF003025FEADC0C18BF03325FEAAA
:10070000DC0C18BF033202EBDC02C2F1200300FA5A
:1007100003FC20FA02F001FA03FE40EA0E0021FA7F
:1007200002F11444BDE600BF53B94AB9002908BF1D
:1007300000281CBF4FF0FF314FF0FF3000F06AB9C6
:10074000ADF1080C6DE904CE00F006F8DDF804E028
:10075000DDE9022304B070472DE9F047089D0C46FF
:10076000002B4ED194468C458646B2FA82F262D96D
:100770004AB1C2F12003914020FA03F30CFA02FCC3
:10078000194300FA02FE4FEA1C471FFA8CF6B1FB30
:10079000F7F44FEA1E4307FB141143EA014304FB3D
:1007A00006F199420AD91CEB030304F1FF3080F0F3
:1007B0001281994240F20F81023C6344591A1FFA98
:1007C0008EF3B1FBF7F007FB101143EA014300FB86
:1007D00006F69E420AD91CEB030300F1FF3180F0BC
:1007E000FC809E4240F2F980634402389B1B40EA41
:1007F000044000211DB1D3400022C5E90032BDE80C
:10080000F0878B4205D90DB1C5E9000100210846EA
:10081000F5E7B3FA83F1002946D1A34202D390420F
:10082000C0F0F080861A64EB03030120002DE6D0AF
:10083000C5E90063E3E7002A40F09080A1EB0C04D7
:100840004FEA1C481FFA8CF70121B4FBF8F64FEA77
:100850001E4308FB164443EA044307FB06F0984294
:1008600008D91CEB030306F1FF3402D2984200F2D0
:10087000CD8026461C1A1FFA8EF3B4FBF8F008FB55
:10088000104443EA044300FB07F79F4208D91CEBDE
:10089000030300F1FF3402D29F4200F2B0802046F1
:1008A000DB1B40EA0640A5E7C1F120068B4022FA97
:1008B00006F71F4320FA06FC04FA01F343EA0C038F
:1008C000F44000FA01F8380C4FEA1349B4FBF0FE8B
:1008D0001FFA87FC00FB1E4449EA04440EFB0CF996
:1008E000A14502FA01F20AD93C190EF1FF3A80F053
:1008F0008480A14540F28180AEF1020E3C44A4EB1D
:1009000009041FFA83F9B4FBF0F300FB134449EA2E
:10091000044403FB0CFCA44507D93C1903F1FF3048
:1009200067D2A44565D9023B3C4443EA0E40A0FB94
:100930000293A4EB0C049C42CE469C4651D34ED06D
:1009400055B1B8EB0E0364EB0C0404FA06F6CB4089
:100950001E43CC40C5E90064002150E7C2F12003EA
:1009600020FA03F10CFA02FC24FA03F394400C433E
:100970004FEA1C4800FA02FE1FFA8CF7B3FBF8F0AE
:1009800008FB1031230C43EA014300FB07F19942B5
:1009900008D91CEB030300F1FF362CD299422AD967
:1009A000023863445B1AA4B2B3FBF8F108FB1133BD
:1009B00044EA034401FB07F3A34208D91CEB0404F7
:1009C00001F1FF3613D2A34211D902396444E41A6B
:1009D00041EA004139E70446F0E6084606E7C84523
:1009E000AED2B9EB020E63EB070C0138A8E7314633
:1009F000EDE7034699E73046D4E7D6467FE7634400
:100A000002384DE70646234608460FE7023E634498
:100A100030E700BF704700BF014900200DF04EBF16
:100A2000093A000808B542F210700CF01CFAFAE717
:100A3000064D074C08B547F230500CF014FA284622
:100A40002DF06EFE204608F008F8F4E7A0F8020842
:100A50004840002408B502F057F802F0F5FC0420E5
:100A60000CF001FAF7E708B502F016FD0A200CF0C9
:100A7000FAF9F9E738B50B4C0B4D204606F0FAFDB4
:100A80006421204606F094FA204606F01FFB2860F9
:100A900001F054FF002001F0EDFF64200CF0E3F9B9
:100AA000EBE700BFE4400024C4410024094C0A4D98
:100AB00008B5204606F0DEFD0121204606F078FA52
:100AC000204606F003FB288001F044FC64200CF073
:100AD000CAF9EEE754410024C841002408B501F0EA
:100AE00017FE41F288300CF0BEF9F8E708B501F0C6
:100AF000D9FE41F288300CF0B6F9F8E708B501F0FC
:100B00000DFF4FF47A700CF0AEF9F8E708B502F07B
:100B100015F902F08FF802F07DF901200CF0A3F92D
:100B2000F5E708B501F0B2FB4FF4FA700CF09BF951
:100B3000F8E7000007B54FF6FF730190012201A905
:100B400003480BF0B2FF019803B05DF804FB00BF4F
:100B5000983D002410B59CB04C22002109A82DF02E
:100B6000DFFE2022002101A82DF0DAFE042008F08B
:100B7000BDFF00230093204B9A6922F440429A6102
:100B80009A6902F440420092009A9A699404FCD552
:100B900008F076FF194A00242C21136F09A823F0CE
:100BA000180313670D224FF480331B94CDE90923FA
:100BB00002230122CDE9123314930B920E92CDE958
:100BC00017330C23CDE91512CDE9193408F0CCFF09
:100BD00003213F2308204FF480620394CDE90131C3
:100BE0004023CDE9040301A80693CDE9072309F0CA
:100BF000D7FA1CB010BD00BF00480258004402588C
:100C000000B5AFB00021982208A82DF089FE124A45
:100C100000231920CDE9002305225023CDE902232A
:100C200002238022CDE90433069307924FF4907299
:100C3000CDE90C331E230E934FF400731093202341
:100C400013934FF48033CDE90A026846289309F0E4
:100C50008FFD2FB05DF804FB000008222DE98048CD
:100C6000A1B00021102213A82DF05AFE07F01CF8A5
:100C70000123002213A8ADF84C3048F21F73CDE9D0
:100C8000142340F20113169307F02CF8042007F008
:100C900019F8D24B5A6912F4003211D1BFF34F8FB9
:100CA000BFF36F8FC3F85022BFF34F8FBFF36F8F27
:100CB0005A6942F400325A61BFF34F8FBFF36F8F0E
:100CC000C64A536913F4803323D1C2F88430BFF38A
:100CD0004F8FD2F8803043F6E074C3F3C900C3F3FA
:100CE0004E335B0103EA0406014646EA8175013989
:100CF000C2F86052F9D2203B13F1200FF2D1BFF3BA
:100D00004F8F536943F480335361BFF34F8FBFF369
:100D10006F8F06F0D9F80024FFF71CFF0125FFF7BD
:100D20006FFF1422002113A82DF0FAFDAC4B48F2FE
:100D30000801AC48D3F8E0204FF0080A02274FF032
:100D4000100942F002024FF0030B4FF48068A64EE8
:100D5000C3F8E020D3F8E02002F002020092009AEB
:100D6000D3F8E02042F04002C3F8E020D3F8E020BE
:100D700002F040020192019AD3F8E02042F008020A
:100D8000C3F8E020D3F8E02002F008020292029AB1
:100D9000D3F8E02042F01002C3F8E020D3F8E020BE
:100DA00002F010020392039AD3F8E02042F001020D
:100DB000C3F8E020D3F8E02002F001020492049A84
:100DC000D3F8E02042F00402C3F8E020D3F8E0209A
:100DD00002F004020592059AD3F8E02042F0800266
:100DE000C3F8E020D3F8E02002F080020692069AD1
:100DF000D3F8E02042F02002C3F8E0200022D3F82C
:100E0000E03003F020030793079B07F03FFA00222E
:100E10004FF44041754807F039FA00224FF48061E1
:100E2000734807F033FA00220121724807F02EFAC6
:100E300013A971481595CDE913A407F0A9F84FF44B
:100E4000005313A96D481597CDE9133407F0A0F8A6
:100E50004FF4004313A96348CDE91335CDE9154498
:100E600007F096F8202313A95E481595CDE91334B1
:100E700007F08EF84FF4881213A95A481594CDE95B
:100E8000139207F085F8402213A95D481797CDE922
:100E90001327CDE9154407F07BF813A95148CDF885
:100EA00058B01594CDE913A507F072F84FF480728D
:100EB00013A953481595CDE9132407F069F84FF4A9
:100EC000404213A94948CDE91325CDE9154B07F058
:100ED0005FF813A94648CDE91385CDE9154407F01D
:100EE00057F813A94348CDE91355CDE9154B07F041
:100EF0004FF8052122460A2006F084FE0A2006F05B
:100F0000B3FE4048404A056202608480C0E905445F
:100F100006F014FF3D484FF44032C0E90254C0E9E6
:100F2000006206F06CFF3422214613A82DF0F8FC75
:100F3000374E384A4FF0280C4FF0350E40F215234B
:100F400040F2352130463461B48686F83640C6E931
:100F500000240922C6E905C20B22C6E907E240F2D5
:100F60001B12C6E9093240F21D12C6E90244C6E965
:100F70000B1207F0FFFD4FF0050C4FF4F0714FF42A
:100F800088724FF0E040FF23CDF868804FF00408EE
:100F90001394ADF87C408DF87E40CDE91BC0CDE9BF
:100FA0001625CDE91D12304622461B4ECDE91414FC
:100FB00013A9CDE9183407F0DAFE2146182213A848
:100FC0002DF0AEFC154A20233046B460F463C6E928
:100FD00000284FF08072C6E9057421E000ED00E0C2
:100FE0000044025800180258001000520004025831
:100FF000000C025800000258001002580008025865
:1010000000140258C0400024004C025858400024EC
:10101000A03F002400100050443F00240050005224
:10102000C6E90323C6E90974C6E90744C6E90B44C7
:10103000C6E90DA408F028F84FF0011213A93046B4
:10104000169202F57F021595179241F28832CDE98A
:10105000135508F0A5FA304608F08AF840F201125C
:101060002046D34EADF8382005F08AFB0EA9204665
:1010700005F078FC204605F04BFB1822214613A80A
:101080002DF04EFC4A4621460AA82DF049FC214687
:1010900014220EA82DF044FCC64A18234FF0805E9F
:1010A0003046B460C6E900284FF08062C6E90323E9
:1010B0001722C6E90BE24FF4C872C6E90974F2635D
:1010C000C6E90584C6E90744C6E90D44CDE90844EC
:1010D00007F0DAFFB84A13A93046169202F57F02EC
:1010E0001597179241F28832CDE91377062708F059
:1010F00057FA41F288320AA93046CDF828B00D954A
:101100004FF6FF7BCDE90B7408F094F84FF4405292
:101110000EA9304610924FF000521195129241F2F2
:1011200088320E940F9408F0ABF808A93046089462
:1011300008F0C6F902F0E8F94A4621460EA89F4E8B
:101140002DF0EEFB21464A4613A80C94CDE90A4443
:101150002DF0E6FB9A4A3046B460C6E90024C6E9A1
:1011600003B4C6E905440AF0D3FE4FF480520EA939
:1011700030460E920BF00CF830460AF0F9FE0AA940
:1011800030460C94CDE90A440BF0D0F90C2213A997
:1011900030468C4ECDE91345CDE915440AF05AFF8F
:1011A00021464A4613A81094CDE90E442DF0B8FB11
:1011B000854A30463461B461C6E90024C6E9024B71
:1011C0000AF0D6FE0EA930460E9410940BF0AEF93C
:1011D0000C2213A930467D4ECDE91345CDE91544C7
:1011E0000AF038FF2146242213A81094CDE90E44BA
:1011F0002DF096FB764B4FF400223046F561C6F891
:1012000008A0348386F82040346386F84440C6E959
:101210000032C6E90448C6E90A44C6E90F4406F0AC
:101220002BFB0EA930460E9406F074FC40F2FF72C0
:1012300013A93046159418948DF86D40654ECDE98C
:101240001357CDE9162805F045FF2146142213A8AF
:101250002DF066FB604AFF2330460E9434617461C2
:10126000C6E900247F22C6E90644C6E902230AF043
:1012700001FB43F212024FF0200313A9ADF84C20FA
:1012800030462A468DF84E30CDE916440AF049FB27
:10129000524B2A460EA9304643F2F2250E930AF02D
:1012A000A2FB214630460AF0C6FCA8420ED02246D8
:1012B00013A930460AF035FB22460EA930460AF043
:1012C00092FB2A46214630460AF0B0FC444D0024E9
:1012D000444A4FF4E1330C2628462C614FF00608AF
:1012E00004274FF00109C5E90023C5E90244C5E917
:1012F0000564C5E90744C5E909440BF086FC2146AD
:1013000028460BF0F0FC214628460BF00CFD284641
:101310000BF0CEFC3448354B4FF4C871344DC0E966
:10132000003840F6FF73C0E9023107F069FB242260
:10133000214613A82DF0F4FA2E484FF480232C6197
:101340006F612C83C5F81C9085F8204085F83840E3
:1013500085F84440C5E9000308232846C5E902345E
:10136000C5E90A44C5E90C44C5E90F4406F084FA0E
:1013700040F2FF7313A92846159418941A94CDE9E6
:101380001637CDE9139805F0A5FE02F0E9F802F052
:10139000E6F801F0C5FF02F075F801F039F901F047
:1013A00005FA00F0ADFE00F0CFFF314624E000BFAB
:1013B000E83E002400A0005202000100783E002414
:1013C000000001402C3E002400080040544100244D
:1013D00000200240C43E00240040005804041024B1
:1013E000983D002400480040484000240048005830
:1013F000E44000240060025833480AF091FF31466F
:1014000032480AF08DFF0BF0BBFC314A21463148CF
:101410000BF0E2FC304B314A2146186030480BF0AB
:10142000DBFC304B304A2146186030480BF0D4FCCE
:101430002F4B304A214618602F480BF0CDFC2F4B24
:101440002F4A214618602F480BF0C6FC2E4B2F4A1E
:10145000214618602E480BF0BFFC2E4B2E4A214629
:1014600018602E480BF0B8FC2D4B2E4A2146186010
:101470002D480BF0B1FC2D4B2D4A214618602D480C
:101480000BF0AAFC2C4B2D4A214618602C480BF07F
:10149000A3FC2C4B2C4A214618602C480BF09CFCDA
:1014A0002B4B2C4A214618602B480BF095FC2B4BFC
:1014B0002B4A214618602B480BF08EFC2A4B1860F3
:1014C0000BF070FCFEE700BF783E00242C3E0024A9
:1014D00038FB0208250A0008943D002414FB02088A
:1014E0006F350008E43A0024F0FA0208B54F00080E
:1014F000E03A0024CCFA0208310A0008302A00241D
:10150000A8FA0208550A00088027002484FA020875
:10151000670A0008D024002460FA0208750A00084F
:10152000201400243CFA0208AD0A000870110024BF
:1015300018FA0208DD0A0008C00E0024F4F90208B7
:10154000ED0A0008100C0024D0F90208FD0A00087A
:1015500060090024ACF902080D0B0008B006002455
:1015600088F90208230B00080004002410B59EB07F
:10157000224807F072FA2022002103A82DF0D0F9AA
:101580004C2200210BA82DF0CBF9002302930193EC
:101590001B4B9A6922F440429A619A6902F44042D4
:1015A0000292029A9A699204FCD50BA8012408F0D1
:1015B00063FF4FF480330BA8CDE90B430223149350
:1015C00008F0D2FA01A903A808F0B8FF0323019993
:1015D00003A80493039408F0E3FD00F001FD09481B
:1015E00000F0E6F808482DF09BF8084AD2F8D03011
:1015F00043F48033C2F8D0301EB010BD4840002400
:1016000000480258A03F0024AFF8020800440258E6
:1016100010B50C4C00220C4821460AF038FA0B4B4E
:10162000187028B9A3786278217809482DF010F84D
:10163000FFF790FA00F0D4FC0648BDE810402DF00A
:101640006FB800BF40010024C43E00243C010024C8
:10165000C0F80208D1F802080268034B9A4201D18F
:1016600005F060BC704700BF0010004070470000EC
:101670000A4B82B00F216FF00100D3F8F42042F042
:101680000202C3F8F4200022D3F8F43003F002037E
:101690000193019B02B006F0B5BA00BF00440258A6
:1016A000036884B0214A93421ED1214B4FF08071D0
:1016B000D3F8D82042F02002C3F8D820D3F8D8209D
:1016C00002F020020092009AD3F8E02042F00102DA
:1016D000C3F8E020D3F8E03003F001030193019B4D
:1016E000084604B005F042BC124A93421BD1104B8D
:1016F0004FF08061D3F8E02042F08072C3F8E02020
:10170000D3F8E02002F080720292029AD3F8E0202F
:1017100042F00402C3F8E020D3F8E03003F0040301
:101720000393039BDCE704B0704700BF0020024036
:101730000044025800600258026882B0094B9A4285
:101740000DD1A3F50063D3F8E02042F40022C3F8E2
:10175000E020D3F8E03003F400230193019B02B0B2
:10176000704700BF004C02580F4B07B502689A4201
:1017700017D10E4B05215A20D3F8D42042F0100285
:10178000C3F8D4200022D3F8D43003F0100301931F
:10179000019B06F037FA5A2003B05DF804EB06F01F
:1017A00063BA03B05DF804FB001000520044025815
:1017B0002DE9F0418EB004461422002109A82DF035
:1017C000AFF822686A4B9A4240F0CE80694B0226FD
:1017D00003250E27D3F8E42009A96748002442F026
:1017E00008024FF05808C3F8E420D3F8E42002F0D0
:1017F00008020192019AD3F8E02042F00202C3F8F5
:10180000E020D3F8E02002F002020292029AD3F81C
:10181000E02042F00802C3F8E020D3F8E02002F014
:1018200008020392039AD3F8E02042F01002C3F8B2
:10183000E020D3F8E02002F010020492049AD3F8DA
:10184000E02042F00102C3F8E020D3F8E02002F0EB
:1018500001020592059AD3F8E02042F04002C3F855
:10186000E020D3F8E02002F040020692069AD3F876
:10187000E02042F08002C3F8E020D3F8E02002F03C
:1018800080020792079AD3F8E02042F00402C3F8DE
:10189000E020D3F8E03003F004030893089B40F203
:1018A0000333CDE90C57CDE9093606F071FB492326
:1018B00009A932480D97CDE90936CDE90B4506F067
:1018C00067FB4BF6030309A92D480D97CDE90936AF
:1018D000CDE90B4506F05CFB4FF4807309A929485C
:1018E000CDE909360D23CDE90B450D9306F050FBEC
:1018F0004FF4814309A924480D97CDE90936CDE974
:101900000B4506F045FB48F6087309A91F480D97DB
:10191000CDE90936CDE90B4506F03AFBC02309A90C
:101920001B480D97CDE90936CDE90B4506F030FB94
:1019300009A914480D97CDE90986CDE90B4506F0B4
:1019400027FB102309A91148CDE909360923CDE960
:101950000B450D9306F01CFB40462246052106F080
:1019600051F9404606F080F90EB0BDE8F08100BFA5
:10197000001000500044025800040258000C0258A5
:10198000001002580000025800180258001C0258AB
:1019900000080258026808B5184B9A422CD1184A20
:1019A00040F203311748D2F8E43023F00803C2F8BC
:1019B000E43006F0CFFB4921134806F0CBFB4BF691
:1019C0000301124806F0C6FB4FF4AC71104806F054
:1019D000C1FB4FF481410F4806F0BCFB48F618717B
:1019E0000D4806F0B7FB0D48C02106F0B3FB5820A8
:1019F000BDE8084006F046B908BD00BF0010005021
:101A00000044025800040258000C0258001002580A
:101A10000000025800180258001C02580008025822
:101A20002DE9F04391B00446142200210BA82CF0BC
:101A300077FF2368884A934240F0B080874A136852
:101A40000133012B13600CD1854BD3F8D42042F421
:101A50000012C3F8D420D3F8D43003F40013009359
:101A6000009B7F4B022503240927D3F8D4200BA920
:101A70007C48002642F480424FF00A084FF00409E7
:101A8000C3F8D420D3F8D42002F480420192019A02
:101A9000D3F8E02042F04002C3F8E020D3F8E02081
:101AA00002F040020292029AD3F8E02042F00802CB
:101AB000C3F8E020D3F8E02002F008020392039A72
:101AC000D3F8E02042F01002C3F8E020D3F8E02081
:101AD00002F010020492049AD3F8E02042F02002AF
:101AE000C3F8E020D3F8E02002F020020592059A26
:101AF000D3F8E02042F00202C3F8E020D3F8E0304F
:101B000003F002030693069B4FF40073CDE90B35F7
:101B1000CDE90E4706F03CFAB0230BA95248CDF8A8
:101B20003C80CDE90B35CDE90D6406F031FA0BA907
:101B30004E480F97CDE90B95CDE90D6406F028FAD4
:101B400040230BA94748CDF83C80CDE90B35CDE9C2
:101B50000D6406F01DFA4FF460530BA942480F972D
:101B6000CDE90B35CDE90D6406F012FA4FF4806330
:101B70000BA93F480F97CDE90B35CDE90D6406F071
:101B800007FA0BA93B48CDF83C80CDE90B95CDE990
:101B90000D6406F0FDF911B0BDE8F083364A9342BA
:101BA000F9D12E4A13680133012B13600CD12C4B51
:101BB000D3F8D42042F40012C3F8D420D3F8D430A0
:101BC00003F400130793079B254B032402250926E2
:101BD000D3F8D4200BA92348002742F40022C3F8ED
:101BE000D420D3F8D42002F400220892089AD3F823
:101BF000E02042F04002C3F8E020D3F8E02002F0F9
:101C000040020992099AD3F8E02042F02002C3F87A
:101C1000E020D3F8E03003F020030A930A9B40F65B
:101C20000303CDE90E46CDE90B3506F0B1F94FF4CB
:101C3000A0530BA90B480F94CDE90B35CDE90D74DA
:101C400006F0A6F941F21F030BA909480F96CDE94A
:101C50000B35CDE90D749CE700500052CC410024B7
:101C60000044025800180258000C02580010025894
:101C7000001402580004025800A00052274A08B578
:101C8000036893422AD1264B1A68013A1A60254B01
:101C90002AB9D3F8D42022F40012C3F8D420D3F800
:101CA000D4204FF41071204822F48042C3F8D4208D
:101CB00006F050FA43F6B0011C4806F04BFA042136
:101CC0001B4806F047FA4FF480611A4806F042FAC2
:101CD00004211948BDE8084006F03CBA174A93426F
:101CE0001AD10F4B1A68013A1A600E4B2AB9D3F871
:101CF000D42022F40012C3F8D420D3F8D42041F623
:101D00000341094822F40022C3F8D42006F022FA45
:101D100041F21F010748DDE708BD00BF0050005237
:101D2000CC4100240044025800180258000C02580C
:101D300000100258001402580004025800A000527B
:101D400010B5AEB00446B822002168462CF0E8FD7C
:101D50002268104B9A421AD100234FF48002684641
:101D6000CDE900234FF480732C9308F001FD08B1F6
:101D7000FFF77CFC084A03200521136F43F400435E
:101D80001367002205F03EFF032005F06DFF2EB023
:101D900010BD00BF004000580044025810B588B084
:101DA00004461422002103A82CF0BAFD2268194B26
:101DB0009A422CD1184B03A91848D3F8F02042F0CE
:101DC0000102C3F8F020D3F8F02002F001020192E2
:101DD000019AD3F8E02042F01002C3F8E0204FF45B
:101DE0008042D3F8E03003F010030293029B0223F9
:101DF000CDE9032305930123079306F0C9F81B20BF
:101E00000022052105F0FEFE1B2005F02DFF08B085
:101E100010BD00BF000001400044025800100258ED
:101E200010B588B004461422002103A82CF078FDD8
:101E30002268184B9A422AD1174B03A91748D3F8A6
:101E4000E82042F00402C3F8E820D3F8E82002F0CA
:101E500004020192019AD3F8E02042F00802C3F88C
:101E6000E0204FF40042D3F8E03003F0080302937F
:101E7000029B0223CDE90323079306F089F81E2075
:101E80000022052105F0BEFE1E2005F0EDFE08B083
:101E900010BD00BF0008004000440258000C02586A
:101EA00010B5B6B004461422002103A82CF038FD6A
:101EB000B822002108A82CF033FD22681A4B9A4260
:101EC00030D10222002308A8CDE9082308F050FCF5
:101ED00008B1FFF7CBFB154B03A91548D3F8E82051
:101EE00042F48022C3F8E820D3F8E82002F48022EC
:101EF0000192019AD3F8E02042F00802C3F8E020F2
:101F00004FF44072D3F8E03003F008030293029BD1
:101F10000223CDE903230023CDE9053307230793EB
:101F200006F036F836B010BD0048004000440258B4
:101F3000000C02580F2810B504468AB002D90120BF
:101F40000AB010BD01460022362005F05BFE3620A7
:101F500005F08AFE184B694602A81C60174BD3F89F
:101F6000E82042F01002C3F8E820D3F8E83003F08C
:101F700010030193019B08F0E1FA079BC3B908F035
:101F800057FA0F4C0F4B236040F2E733E3600E4BE0
:101F9000B0FBF3F001380023606020462361A360AA
:101FA00009F0B6FF0028CAD1204609F049FEC7E76C
:101FB00008F03EFA4000E4E75800002400440258CC
:101FC000D04100240010004040420F00034B1A682B
:101FD000D36823F00103D360704700BFD0410024D1
:101FE000034B1A68D36843F00103D360704700BF06
:101FF000D04100247047FEE7FEE7FEE7FEE77047AA
:10200000014809F0FCBD00BFC43E0024102006F0CA
:102010004BB90000014809F05CBE00BF783E0024C7
:10202000014809F056BE00BF2C3E0024014809F0CB
:1020300050BE00BFD0410024014806F03BBE00BFA7
:10204000A03F0024014805F019BF00BF58400024FC
:102050000120704708B52CF06DFD162303604FF08A
:10206000FF3008BD08B52CF065FD16230360FEE7C0
:1020700070B50D4614460E46731B9C4201DC20468B
:1020800070BDAFF3008006F8010BF5E770B50D46A3
:1020900014460E46731B9C4201DC204670BD16F8A8
:1020A000010BFEF747FDF5E74FF0FF3070474FF4A7
:1020B000005300204B60704701207047002070479C
:1020C0000B4A0346116810B509B90A491160106836
:1020D00009490A4C0344091B8B4206D92CF02AFDFE
:1020E0000C2303604FF0FF3010BD1360FCE700BF0E
:1020F0001C42002498A801240000052400100000C0
:102100000549064B0A7806481A704A78054B1A703A
:10211000002209F0BCBC00BF384200244E4200241B
:10212000C43E00244D42002410B5084C0848627893
:1021300021782CF08DFA21460022064809F0F1FBA7
:102140000548BDE810402CF0EBBA00BF2442002443
:102150005CFB0208C43E002475FB020810B505288C
:1021600024D8DFE800F003171B2C2431224C23482D
:102170002CF0D6FA21460022214809F088FC21786B
:10218000204B62781970204B20481A70BDE810402F
:102190002CF05EBABDE81040FFF7C6BF1C4A1378AA
:1021A0000133DBB2022B08BF0023137010BD194BA3
:1021B000002219481A70BDE810402CF049BA154B9E
:1021C000012216481A70F6E7114B1B784BB90A4AE0
:1021D000182113780133DBB2B3FBF1F001FB1033AC
:1021E000E3E7012BE2D1044A53780133DBB23C2B05
:1021F00008BF00235370D9E7244200248AFB020859
:10220000C43E00244E4200244D420024A0FB02089C
:102210004C42002420420024BAFB0208CFFB0208F3
:10222000164B10B41B787BB9154B18221978013165
:10223000C9B2B1FBF2F002FB10111248C9B2197019
:102240005DF8044B2CF004BA012B06D10C4A5378EC
:102250000133DBB23C2B03D053705DF8044B704765
:1022600013781820002101335170DBB2B3FBF0F476
:1022700000FB143304481370E2E700BF4C42002413
:1022800024420024E1FB0208FDFB020808B5074BCD
:102290001A78012A06D1FFF7C3FF0548BDE80840B8
:1022A0002CF0D6B900221A7008BD00BF20420024CD
:1022B0001BFC02081249134A0B780133DBB2042BD2
:1022C0000B7006D900230B7000230F4813702CF0FD
:1022D00027BA013B032BF7D8DFE803F002060A0E0A
:1022E00001230A481370F2E7022309481370EEE74E
:1022F000032308481370EAE7042307481370E6E74E
:102300004F4200245042002438FC02084EFC0208D0
:1023100062FC020876FC02088DFC0208014B18786A
:10232000704700BF50420024054B64221B68534392
:1023300040F6FF72B3FBF2F3024A1360704700BF2E
:10234000A0420024A4420024014B00221A707047CE
:10235000AB4200242DE9F84F9B4C2578012D3ED04F
:10236000022D7FD0002D68D1984E1E21984B3278D7
:102370001B88984FDFF884C227F812300132B2FB75
:10238000F1F001FB1020BCF8002030701344924E95
:102390009BB23288ACF80030013292B21D2A3280F2
:1023A00083BF37F810004FF0010E8C4D294681BFD6
:1023B000B3FBF1F11B1A85F800E0ACF800301D2AE0
:1023C000874B198039D901F025F8012835D1834B85
:1023D0001B78012B31D10022328023702DE0814DFA
:1023E0007F4A2B881288804F934236BFD21A9B1A9D
:1023F00093B24FF0010228BF9BB23A7040F23232E2
:1024000093421CD86FF4CC710B44B3F5CD7F2CBF35
:1024100002230323754A764E1370337000F0FAFFDF
:1024200001280AD13B78012B07D13378714E9A1ECF
:10243000012A06D8022222703370BDE8F88F0023EB
:10244000E8E74FF48051002000F058FB00F01AFB41
:10245000002000F04BFB2860FFF766FF022323708B
:102460000423E9E7634F614E3A783378022ADFF8B4
:102470007091DFF87081DFF888A179D0032A51D0FC
:10248000012A0FD19AF80020DFF878B19A421EBFD6
:10249000594B00221A80BBF80030D8F80020B3F561
:1024A000967F25D933788AF80030494B1A88B8F8D6
:1024B0000030A9F800209A428ABFD21A9B1A93B220
:1024C00040F2323298BF9BB2934278D86FF4CC720C
:1024D0001344B3F5CD7F74D203252B46444A3370A1
:1024E00013703D7000F096FF0228A6D1002374E718
:1024F000B9F80010914203D10023ABF80030D1E7C6
:10250000013340F211110220ABF8003000F0F6FA6E
:1025100000F0B8FA002000F0E9FAC8F80000FFF770
:1025200003FFB8E79AF80020DFF8DCB09A421EBF3C
:10253000314B00221A8040F6B832BBF80030D8F890
:1025400000109342AED8B9F800008842D4D00133CD
:1025500088216420ABF8003000F0D0FA00F092FA45
:10256000002000F0C3FAC8F80000FFF7DDFEE2E744
:102570009AF80020DFF894B09A421EBF1E4B00224A
:102580001A8042F22832BBF80030D8F8001093428B
:1025900088D8B9F800008842AED0013388214FF4C2
:1025A0009670ABF8003000F0A9FA00F06BFA00204A
:1025B00000F09CFAC8F80000FFF7B6FEE1E701253D
:1025C0008BE702238AE700BFAB420024514200247C
:1025D000C841002462420024604200245D4200247D
:1025E000A8420024A04200245C420024524200245D
:1025F00054420024AA420024644300245E42002482
:10260000534200245A4200245842002456420024D7
:102610000123024A1370024A13707047E1420024FA
:10262000E042002410B50020002400F0C1FA054A61
:10263000034605491060054A4C6010681360181A7B
:10264000086010BDCC420024C0420024C8420024CF
:1026500008B5FFF7E7FF0C4B0C4A18600C4B1B68E2
:10266000B0FBF3F00B4B18600B4B1B68434313603C
:102670000A4B1A6810440A4A18600A231060B0FB1B
:10268000F3F0084B186008BDDC420024D842002457
:1026900008000024D44200240C000024B44200248A
:1026A000B0420024BC42002408B5FFF7D1FF044B20
:1026B000044A1B6812685343034A136008BD00BFF5
:1026C000D042002404000024AC420024054B1B78B7
:1026D000012B01D1FFF7BCBF022B01D1FFF7E4BFF3
:1026E000704700BFE0420024024B1A68024B1A8078
:1026F000704700BFB4420024BA420024024B1A685B
:10270000024B1A80704700BFB4420024B842002434
:1027100008B500F07FFEC0B2022803D1054B0022AD
:102720001A6008BDFFF7D2FFFFF7DEFFBDE80840E3
:10273000FFF7E4BFD0420024114B4FF47A721A60C5
:102740004FF461620F4B1A6064220F4B1A60012232
:102750000E4B1A6005220E4B1A603C220D4B1A706C
:10276000C8220D4B1A6032220C4B1A7010220C4BEF
:102770001A7028220B4B1A707D220B4B1A6070477F
:1027800034430024304300242C43002428430024F5
:1027900024430024204300241C430024114300242C
:1027A0001043002418430024144300240023034A48
:1027B0001370034A1370FFF7BFBF00BF39430024F3
:1027C0003843002410B50020002400F0F1F9054A38
:1027D000034605491060054A4C6010681360181ADA
:1027E000086010BD04430024084300240043002473
:1027F00008B5FFF7E7FF0F4B0F4A18600F4B104962
:102800001B680968B0FBF3F313600E4A1268534368
:102810000D4A13600D4A126853430D4A13600D4A66
:1028200012684A430C49B3FBF2F30A600B4A136087
:1028300008BD00BFF4420024F842002428430024CD
:10284000304300242C430024FC4200243443002461
:10285000F042002424430024EC420024E8420024F7
:1028600008B5FFF7C5FF064B064A1B7812685343AD
:10287000054A1278B3FBF2F3044A136008BD00BFA7
:1028800010430024E842002411430024E4420024C1
:10289000034B1B780BB9FFF7ABBFFFF7E1BF00BFDE
:1028A0003843002408B500F0B5FDC0B2022805D1B8
:1028B0000023044A1360044A136008BDBDE80840C1
:1028C000FFF7E6BFE8420024E442002408B50120F7
:1028D00000F06EF90B4B0C4A186013680B49C31AD1
:1028E000106048BF03F1FF330B6009490B600949D1
:1028F0008B4236BF3C214FF0FF334B4306490B6000
:1029000008BD00BF44430024484300244043002442
:102910003C430024444444044C43002408B500F0E4
:1029200079FDC0B2022803D1034B00221A6008BD12
:10293000BDE80840FFF7CABF4C430024454B2DE9D2
:10294000F74F93F800C00025434B0120AB462F46BC
:10295000B3F80080414B1988414B1A78414BB3F8CA
:1029600000E02B461C46B0B90CB13C48018015B1C3
:102970003C49A1F800E0BBF1000F02D0354981F8D5
:1029800000C00FB136490A7013B1374B324A1A6092
:1029900003B0BDE8F08FFF2A14BF13466346022B35
:1029A000019318D8581CC0B2C3005FFA80F91E46C4
:1029B0002E4B33F830A0C2450DD8B9F1030F2ED0FD
:1029C0002B4B33F806A0C24526D801305FFA80F9B8
:1029D000B9F1040FE8D1019B013BDBB2022B06D811
:1029E000224800EBC300B0F80290C14522D2FF2A72
:1029F0004FF00103B8D071454FF0000035BFC91842
:102A00009B461346FF2339BF624689B200215F46C9
:102A100094461A460123A5E7B9F1040FDBD0134B06
:102A20004A4603EBC903B3F804E00124002125461C
:102A30002746DCE73BB130F8069CC14503D3013B98
:102A40000838DBB2CFE7094A02EBC302B2F806E06E
:102A50001A46EAE75C430024C441002450430024A2
:102A6000544300245243002458430024A4FC020889
:102A7000ACFC020810B9024B18787047FF20704771
:102A80005C430024F0B51348134D01882B88134C88
:102A9000994207D1002323800022114B1860114B6B
:102AA0001A70F0BD104E22883788974202D0531C0E
:102AB0009BB2F0E79942728806D85E1AB24201DCF6
:102AC0009B1A99B22980E5E7CE1A9642FADB1A449E
:102AD00091B2F7E7A842002466430024644300242F
:102AE000604300245D4300246843002410B9024B76
:102AF000188870470020704766430024014B1880F7
:102B0000598070476843002438B54FF480711448E9
:102B100005F0B6FB20210546124805F0B1FB08215F
:102B20004400114805F0ACFB104944EA8504104DFF
:102B30000C2264B22B782043C8540133FF20DBB24F
:102B40002B70013A11F8014B12F0FF0200EA040069
:102B5000F7D108490B2B087088BF2A7038BD00BF19
:102B60000014025800180258001002586E43002446
:102B70006D4300246C430024014B1878704700BF5C
:102B80006C43002408494FF6FF7231F8103093422D
:102B900003F1010310B508BF044C21F8103002BF47
:102BA000225C0132225410BD824300248043002461
:102BB0000128064A08D8064B06491B5C31F810105C
:102BC000C3EB03430B441360106870477C4300243D
:102BD00080430024824300240368064A934202D1C2
:102BE0000020FFF7CFBF044A934201D10120F8E74C
:102BF000704700BF000001400008004008B50C21EC
:102C0000044809F037FC18B1BDE80840FEF72EBDB6
:102C100008BD00BF783E002408B50C21044809F027
:102C20007FFB18B1BDE80840FEF720BD08BD00BF1E
:102C3000783E00242DE9F84302260025DFF8E080E5
:102C40003446334F013CE4B258F8243003B11D78C8
:102C5000012D31D12F4A52F82430591C10D00133A4
:102C60002D4942F82430062262438818B0F804C087
:102C700063450DD1294B53F824300BB104209847FC
:102C80003D550124A64201D1BDE8F8832646D9E787
:102C90004088834206D1214B53F82430002BEFD0DB
:102CA0000220ECE78A5A9342EAD11C4B53F82430B5
:102CB000002BE5D00020E2E7002DE1D13B5DDFF8FD
:102CC0005490012B11D11448062259F8243002FBEC
:102CD000040251888B420CD39288934209D20F4B45
:102CE00053F824300BB103209847002349F82430CF
:102CF000C6E706226243825A9342F6D38B42F4D24D
:102D0000064B53F82430002BEFD00120ECE700BF36
:102D10009043002488430024CCFC0208C4FC020831
:102D2000D8FC0208014B1870704700BF1100002446
:102D3000014B1870704700BF1000002410B50A4CFA
:102D400000F08AFB207000F08FFB084B084A1870D7
:102D5000B0FA80F023784009B3FA83F35B0913706B
:102D6000044B187010BD00BFA4430024A3430024EB
:102D7000A2430024A1430024034B1B78012B06BF70
:102D8000024B1878FF207047A04300241100002454
:102D9000034B1B78012B06BF024B1878FF207047AE
:102DA000A04300241000002408B5FFF7E5FF024609
:102DB000FFF7EEFF012A07D111482BF0B1FC0220EA
:102DC000FFF7CCF9002008BD022A04D10D482BF0F2
:102DD000A7FC0120F4E7012804D10B482BF0A0FC4C
:102DE0000520EDE7032804D108482BF031FC04202E
:102DF000E6E70228E6D106482BF02AFC0320DFE7AD
:102E0000E0FC0208F8FC02080FFD020828FD020899
:102E100047FD02082DE9F0414F4E504C327823789F
:102E2000012A4F4D1DD1012B0CD1FF234D4833708A
:102E300023702BF075FC32782B78022A47D1012BB6
:102E400045D109E02B7823B9FFF734FA46482BF037
:102E500067FC2B78012B01D1FFF7A6FFFF2333700E
:102E600035E0012B1BD12B788BB9FFF757FA0328DC
:102E700004D13E482BF054FCFF232370FFF74EFA99
:102E8000042804D1FF233A4823702BF049FC2B7807
:102E9000012BD0D1FFF788FFFF232370CBE7022A55
:102EA00020D1022B1ED10020FFF758F92B78002BE0
:102EB000C1D1FFF779FF2F482BF032FC01232B7093
:102EC00004F03CF82C4B1860FF23337023702278F9
:102ED0002B78022A27D1012B3CD1FFF765FFFF2376
:102EE000237022E02B78012BA5D1244B1F78244B93
:102EF0001B781F439FD104F021F8224BDFF88C8010
:102F000018601D4B1B68C01A43F697239842C8F8F7
:102F1000000090D91C482BF003FCFFF705F92F7037
:102F2000C8F8007087E7032AD5D02B78012B11D180
:102F300033780BB123786BB9144B00221A6003F07D
:102F4000FDFF104B186003F0F9FF0B4B1860FF23D7
:102F500033702370BDE8F0811100002410000024BC
:102F6000A043002463FD0208E6FC020894FD020869
:102F7000B6FD0208D8FD020898430024A2430024AD
:102F8000A14300249443002408FE02089C4300242B
:102F900038B50024044DE3B2013455F8233003B9A9
:102FA00038BD9847F7E700BF60FE020838B5002437
:102FB000044DE3B2013455F8233003B938BD9847C6
:102FC000F7E700BF58FE020838B50024044DE3B20D
:102FD000013455F8233003B938BD9847F7E700BFEF
:102FE00050FE020838B50024044DE3B2013455F810
:102FF000233003B938BD9847F7E700BF48FE020801
:1030000038B50024044DE3B2013455F8233003B938
:1030100038BD9847F7E700BF40FE020838B50024E6
:10302000044DE3B2013455F8233003B938BD984755
:10303000F7E700BF38FE020838B50024044DE3B2BC
:10304000013455F8233003B938BD9847F7E700BF7E
:1030500030FE020808B50020FFF70CFD431E584261
:10306000584108BD08B50020FFF704FD831E5842F3
:10307000584108BD08B50020FFF7FCFCC31E5842AC
:10308000584108BD08B50020FFF7F4FCB0FA80F005
:10309000400908BD38B500200024074DFFF7EAFCC1
:1030A000014606482BF0D4FAE3B2013455F8233038
:1030B00003B938BD9847F7E768FE020823FE020807
:1030C0007047704770477047704770477047704748
:1030D00038B50024044DE3B2013455F8233003B968
:1030E00038BD9847F7E700BF0CFF020838B5002449
:1030F000044DE3B2013455F8233003B938BD984785
:10310000F7E700BF04FF020838B50024044DE3B21E
:10311000013455F8233003B938BD9847F7E700BFAD
:10312000FCFE020838B50024044DE3B2013455F822
:10313000233003B938BD9847F7E700BFF4FE020813
:1031400038B50024044DE3B2013455F8233003B9F7
:1031500038BD9847F7E700BFECFE020838B50024F9
:10316000044DE3B2013455F8233003B938BD984714
:10317000F7E700BFE4FE020838B50024044DE3B2CF
:10318000013455F8233003B938BD9847F7E700BF3D
:10319000DCFE020808B500F03DF9431E58425841D4
:1031A00008BD000008B500F035F9022805D1044B30
:1031B0001888031F5842584108BD0020FCE700BF93
:1031C0001200002408B500F025F9022806D1044BAE
:1031D0001888A0F108035842584108BD0020FCE7B8
:1031E0001200002408B500F015F9022806D1044B9E
:1031F0001888A0F110035842584108BD0020FCE790
:1032000012000024014B1888704700BF12000024F0
:10321000102802D1034B188003E00828FAD00428B4
:10322000F8D070471200002470470000042008B551
:10323000FFF7EEFF0248BDE808402BF071BA00BF6F
:1032400074FF020808B50D4808F0A0FC002249F6FA
:1032500040410A4808F03EFC08B1FEF707FAFEF7C5
:10326000B5FE06F03BFC064805F0F0FC01210846DF
:1032700006F00EFC014808F089FCFEE7C43E00247D
:10328000A03F002408B5FFF7BDFF0428094A08D174
:10329000138841F6641101339BB28B4203D0138033
:1032A00008BD0023FBE7002310201380BDE8084081
:1032B000FFF7AEBFA6430024704770470820FFF712
:1032C000A7BF000008B5134BD3F8D020D1001BD402
:1032D000D3F8D020520117D40F4A526AD00705D52F
:1032E0000E48082104F0D7FF062008BDD3F8D020EF
:1032F00091020BD4D3F8D020520209D4D3F8D000D5
:10330000C0F3C0508000F0E70320EEE70120ECE7B7
:103310000520EAE700440258004802580008025815
:1033200010B5FFF7CFFF044606281BD8DFE800F0F2
:1033300004121A10141618000B482BF0F1F90B4A5E
:103340002046D2F8D03043F48033C2F8D03010BDDC
:103350000748F2E70748F0E70748EEE70748ECE7D9
:103360000748EAE70748E8E789FF020800440258EF
:103370009EFF0208B6FF0208D5FF020807000308F7
:10338000200003084300030838B50024044DE3B2CD
:10339000013455F8233003B938BD9847F7E700BF2B
:1033A0007000030838B50024044DE3B2013455F829
:1033B000233003B938BD9847F7E700BF680003081A
:1033C00038B50024044DE3B2013455F8233003B975
:1033D00038BD9847F7E700BF6000030838B5002400
:1033E000044DE3B2013455F8233003B938BD984792
:1033F000F7E700BF5800030808B5FFF7BDFB6FEA09
:10340000900000F0010008BD08B5FFF7B5FBC0F360
:10341000800008BD002000F02FB8000008B5034868
:103420002BF07EF9BDE80840FFF7F6BBB4000308B7
:1034300008B503482BF074F9BDE80840FFF7DEBB80
:10344000D80003087047704708B5FFF795FB014B9C
:10345000187008BDA8430024024B187800F0010042
:10346000704700BFA8430024024B1878C0F3400007
:10347000704700BFA8430024014B33F81000704789
:10348000AA430024034B01221A8002225A800422FC
:103490009A807047AA4300242DE9F84F184E002562
:1034A000DFF860804FF00C0958F8357036F802BB31
:1034B0000FB34FF0000A05E0A368E3B198471AE0A4
:1034C0000AF1010A5FFA8AF309FB03F3FC18FB5ABD
:1034D0008BB113EA0B0FF3D063885B45ECD06368C4
:1034E000002BEDD098470028EAD0A36803B1984795
:1034F000638826F8023C0135032DD5D1BDE8F88F4D
:10350000AA4300240401030870470000DFF834D008
:1035100003F084FC002103E00B4B5B584350043163
:103520000A480B4B42189A42F6D30A4A02E000239B
:1035300042F8043B084B9A42F9D32BF001FBFDF70C
:103540008DFB704700000524DC4E030800000024BA
:10355000200100242001002494A80124FEE77047E4
:1035600008B501F0F7F8BDE8084001F07BB801F0BC
:10357000F3B8406870474160704700004FF0E022A8
:10358000D2F8FC3D43F08073C2F8FC3D054B064A7F
:10359000D3F8B01F0A43C3F8B02F1A6842F00102F3
:1035A0001A607047001000E055CEACC5521A02EB0D
:1035B0005302B2FBF3F07047014B5868704700BFED
:1035C000001000E0704710B504460C212AF005FBFE
:1035D000204610BD036810B51B69044631B19847F9
:1035E000A26863689B1A0344636010BD9847A0609B
:1035F000FBE770471FB5082300206946CDE902307C
:10360000054B1B880093054B1B88019303F024FB9B
:1036100005B05DF804FB00BF769C0124789C012472
:1036200010B5044604212AF0D8FA204610BD30B562
:1036300085B000200D46144601A90390CDE9010094
:1036400003F08CFB40B14FF0500383F31188BFF3BC
:103650006F8FBFF34F8FFEE7019820B1029B0120CF
:103660002B60039B236005B030BD0000032825D8E4
:10367000DFE800F0020B131C114B012111481A68FE
:10368000B2FA82F2520904F001BE0D4B08210E4835
:103690005A68B2FA82F25209F5E7094B4FF48041B9
:1036A0009A68B2FA82F252090848ECE7044B4FF4E8
:1036B0000041DA68B2FA82F25209F5E7704700BFBA
:1036C000B0430024000002580018025800040258B9
:1036D000032825D8DFE800F0020B131C114B012151
:1036E00011481A68003A18BF012204F0CFBD0D4BF3
:1036F00008210E485A68003A18BF0122F5E7094B25
:103700004FF480419A68003A18BF01220848ECE75C
:10371000044B4FF40041DA68003A18BF0122F5E784
:10372000704700BFB0430024000002580018025840
:1037300000040258032811D8DFE800F00206090D42
:103740000121074804F0A7BD08210648FAE74FF415
:1037500080410548F6E74FF40041FAE7704700BFA3
:1037600000000258001802580004025808B5032847
:1037700015D8DFE800F0020A0D110121094804F014
:103780007FFD431E5842584108BD08210648F6E710
:103790004FF480410548F2E74FF40041FAE700207A
:1037A000EFE700BF0000025800180258000402585A
:1037B00070B5084D00240126E0B2FFF7D7FF18B11D
:1037C0002B68012B18BF2E6001340435052CF3D172
:1037D00070BD00BFB0430024012380F8781080F84A
:1037E000793070470020704741640039024B18BFA0
:1037F00001211970704700BF7B9C01240020704795
:10380000836B0BB10846184770474FF6FF7070473F
:10381000406803689B6918477047000038B5044644
:1038200001F0C6F80749236804F17C052046D3F867
:103830008C3098472846FFF7A1FE0123256184F8C4
:10384000703038BD0000007008B503680446D3F836
:1038500080309847236820469B6F984700F02CF9EA
:10386000236820461B6F984701224FF48061084867
:1038700004F00CFD01224FF40041064804F006FD5F
:1038800000F01AF9236820461B6F9847F8E700BF3D
:10389000000C02580018025810B5044619F010FD2B
:1038A00023682046D3F8AC30BDE81040184701F03B
:1038B0004BB801F04FB8000070B501F0A3F8104903
:1038C0000023C1F88430BFF34F8FD1F8803043F626
:1038D000E074C3F3C900C3F34E335B0103EA04068B
:1038E000024646EA8275013AC1F87452F9D2203B89
:1038F00013F1200FF2D1BFF34F8FBFF36F8F70BD65
:1039000000ED00E000F0FCBF01F0E6B901F0EEB917
:1039100001F000B818F040BF10B5044688212AF025
:103920005CF9204610BD000090F834100D4B10B526
:1039300090F878401A788C4209D03AB90A490B4A73
:1039400008881488108001220C801A7010BD002A8B
:10395000FCD0064A0449148808880C801080002294
:10396000F3E700BF749C0124729C0124709C012425
:1039700070B50D46194635B9094B40F2D221094AB6
:1039800009482AF0A1FCC0E90F52003A074B18BFC2
:1039900001221A700368BDE87040D3F88C301847D4
:1039A0005801030890010308DE0103087A9C0124F2
:1039B00008B5094B1B888B4203D8084B1B889342E0
:1039C00005D9074B9E21074A07482AF07DFC074B83
:1039D0001980074B1A8008BD709C0124729C012439
:1039E0002302030886020308DE010308769C0124F3
:1039F000789C0124034690F87A0018B1586803684F
:103A00001B68184770470000014608B5034B18684B
:103A100001B1012119F06EFC012008BD7C9C01243C
:103A20000121002208B5084609F0A0FA0A4B1860E7
:103A300028B90A4B28210A4A0A482AF045FC0022E4
:103A40000421012009F031FB074B186018B9074B1E
:103A50002C21034AF0E708BDC4430024A403030853
:103A6000ED0303081C040308C04300247F0403087B
:103A7000024B4FF0FF31186809F0C2BAC44300246A
:103A8000014B186809F0E8BAC4430024024B002136
:103A9000186809F0B5BA00BFC4430024FFF7F0BFAF
:103AA0000023034803491A46006809F039BB00BFE8
:103AB000C04300241400002413B50023074C01A9BF
:103AC0001A46206809F05DFB4FF0FF33002201A980
:103AD000206809F056FB02B010BD00BFC0430024AF
:103AE00003685B6C18470120704703689B6A18479E
:103AF00040F2EF3070470000054B4FF080620360EA
:103B0000044BC3F88820BFF34F8FBFF36F8F70470C
:103B10003406030800E100E010B504464FF45A6192
:103B2000FFF7EAFF20462AF058F8204610BD0000B3
:103B30000F4B82B0D3F8D42042F01002C3F8D42047
:103B4000D3F8D42002F010020192019ADA6F42F009
:103B50001002DA67DA6F22F01002DA67054B064AC4
:103B60001A62064B4FF080629A6002B0704700BF45
:103B70000044025858400024C53D000800E100E020
:103B800008B50A2809D8DFE800F006100E08080872
:103B9000081010101000022008BD054B8621054AB0
:103BA00005482AF091FB0020F6E70120F4E700BF6A
:103BB000C1040308DC0403082705030838B50C46D4
:103BC000887FFFF7DDFF124BA58AE28A586342EA3D
:103BD000054221695A64628BD963521B1A642568B5
:103BE000082D0ED19A611A6158620A4A207F42EA72
:103BF0000062DA61E2681A62074A5961D9601A60A4
:103C000038BD0022D8611A61E2689A63034AF6E778
:103C1000001000520900010001020200010203002D
:103C200008B50B280BD8DFE800F00612100A0A0AC4
:103C30000A0808080808022008BD0520FCE7054B13
:103C40006521054A05482AF03FFB0020F4E70120E2
:103C5000F2E700BFC104030888050308270503082D
:103C60002DE9F8434F7F89463846FFF7D9FF99F889
:103C70001E5080462846FFF7D3FF06462846FFF72A
:103C80007FFFB9F81410B9F81A40B9F81820454B5D
:103C9000641A521A1C649C611A61B9F816205863A0
:103CA00042EA0142D9F810105A64D9F80420D963C5
:103CB000DA60D9F8004099F81C20802C22D00FD867
:103CC000202C66D0402C64D0042C5CD048EA0260E2
:103CD000344BAF4240F40030D86160D0324A3FE00C
:103CE000B4F5807F04D0B4F5007FEFD12F4800E019
:103CF0002F4840EA0262DA61D9F80C201A625E624B
:103D000059612CE048EA0260D9F8084040F40030DC
:103D1000D8615E625961211DD962217841B10129C2
:103D200021D0244B4FF48071234A24482AF0CCFA46
:103D3000DA69618822F47F42013922F0100242EAF6
:103D40000122DA610122174BD96941F02001D961C2
:103D5000D9698906FCD410219960002ABED0184A7E
:103D60001A60BDE8F883D969FF3A608821F47F4181
:103D700018BF0122013821F0100141EA002141F071
:103D80001001D961DFE748EA026242F40032DA61E9
:103D9000B5E748EA0262034B42F40032F7E740F22B
:103DA0000122DDE7001000520102010009000200BB
:103DB0000A000200D2050308EC05030827050308E2
:103DC00001020200024B1B68586803685B691847D0
:103DD0007C9C012470B504460A4B0C300026254615
:103DE000602260602672667245F8203B294619F011
:103DF000D7FB04F55A63EE6024359D42FBD1204683
:103E000070BD00BF34060308034B1A68D207FCD408
:103E100023229A60704700BF0010005230B5104C4A
:103E20002568ED07FCD423250904FF2BA5604FF07E
:103E3000010541EA050165636164E0630CD009494D
:103E400022F07F42656241EA0363E361064B22622E
:103E50006061E060236030BDE561044BA263F9E777
:103E600000100052090001000100020001000300DF
:103E70004069704790F844007047036B23B9C06AEB
:103E8000003818BF012070470120704780687047D4
:103E9000043010B50C460FC884E80F0010BD704701
:103EA00008B5034A40F21221024B03482AF00CFAEB
:103EB0007C0603081B210308D706030810B5044637
:103EC000482129F08AFE204610BD2DE9F0411E460A
:103ED000ADF51E7D436B07460C469046A69D93B3F9
:103EE000002203A8CDE9013211F0A2F94FF4F472D7
:103EF0005021249024A80BF068F94246214624A8BA
:103F00000CF0BCF8012124A80BF05AFA022324A8D3
:103F10008DF8D8300BF0F5FA419BBDF89482BDF8CE
:103F20009022984528BF98462B9B9A4228BF1A4654
:103F300002EB4204479B984509D824A80BF062FA8B
:103F400024A80BF08FF90DF51E7DBDE8F08101224C
:103F500001A924A80BF01EFB30462246796B2E44A3
:103F60002AF015FEE6E700000A4A02600022C0E9D6
:103F70000522C0E90722C0E90922C0E90B22C0E9F5
:103F80000D12C0E90F2280F84420C0E90322C0E9E5
:103F900001227047CC09030810B40C4611461A469A
:103FA000036B3BB1036C806BE41A20445DF8044B57
:103FB0002AF0BEBCC06AF8E7036B10B573B1036C9E
:103FC000826BC91A5318525C98785C780004DB78CD
:103FD00040EA0420104340EA036010BDC36A585809
:103FE000FBE7036B43B1036CC91A836B5A18585C27
:103FF000527840EA02207047C36A585A704700005E
:1040000070B50446006B0D461646D8B1E36B93427B
:1040100008D209230D4A65210D4884F844300D4B20
:104020002AF052F90368DB689847206B3246A16B8F
:1040300003681B69984710B90D2384F84430A06BBE
:10404000256470BDE06A0844FBE700BF570703081A
:10405000D7060308440703082DE9F84343690446DB
:104060002BB9234BAA21234A23482AF02DF90822F1
:104070008169FFF7C5FFA16943F2300646F2643754
:1040800004312046FFF798FFA3691844A36A00F1A2
:1040900008029A4206D3012300206361236AA361C8
:1040A000BDE8F883636909300822013320F001017B
:1040B00020466361A161FFF7A3FFD4F81890204662
:1040C0004946FFF78EFF09F1020180462046FFF7BF
:1040D00088FF09F1040105462046FFF76DFFB04552
:1040E000D2D1BD42D0D10028CED00120D8E700BF28
:1040F00099070308E2070308D70603082DE9F04FE4
:104100000546ADF51F7D8B469046816908221F4606
:10411000FFF776FFAE692846311DFFF74DFF06F128
:104120000801024604462846FFF76AFF6B6B064605
:1041300033B9344B40F2AB11334A34482AF0C4F857
:10414000002203A8CDE9013211F072F84FF4F472A5
:104150005021249024A80BF038F82246314624A898
:104160000BF08CFF012124A80BF02AF9022324A8CC
:104170008DF8D8300BF0C5F9BBF902A0479B534529
:104180002DD3BBF8063007EB4707BBF80260BBF93D
:1041900000401E44BBF80420419B04EB440936B2A6
:1041A000224407FB0A9A9E4212B2D04428BF1E4600
:1041B0002B9B9A4294BFC4EB0204C4EB030404EBB0
:1041C0004404479BB34210D324A80BF01BF924A846
:1041D0000BF048F801200DF51F7DBDE8F08F01229E
:1041E00001A924A80BF0D6F9C8E7012201A924A847
:1041F0000BF0D0F9696B404622464944B8442AF096
:10420000C6FCDEE7150803086B080308D706030899
:104210000129036838BF0121DB6A70B50D460446E9
:104220009847A84204D223682046DB6A984705468F
:104230006B1EE6691022204606EB031606F1080104
:10424000FFF7DEFE06F110012046FFF7B5FE236AF8
:10425000043B0344C4E9055370BD0000002148221B
:104260002DE9F0410446816180F84410FFF7C8FE53
:10427000A6690423624A31462046FFF78DFE40B10D
:104280000323604AF22184F844305F4B5F482AF0F0
:104290001BF806F1080104235D4A2046A161FFF7DF
:1042A0007BFE30B10423574AFA2184F84430594B3D
:1042B000ECE706F10C010423574A2046A161FFF701
:1042C0006BFE074638B105234E4A40F2011184F8CF
:1042D0004430524BDAE706F110012046FFF76CFE3E
:1042E000054620B94E4B40F20711464ACEE706F18B
:1042F000140804234B4A20464146FFF74DFE002890
:1043000049D0062384F844300423474A06F11801B3
:104310002046FFF741FE00283FD0072384F84430B1
:104320004544424F0C2220462946FFF769FE05F11D
:10433000080604233A4620463146FFF72DFE94F83E
:104340004430002848D0002B48D1A36AAB4249D85A
:1043500005F10C0304352046A3612946FFF72CFE26
:104360003044294660622046FFF726FE06440422B8
:1043700020463146FFF744FE04232D4A31462046AD
:10438000FFF70AFE002838D10123E6616361A369C3
:104390002362BDE8F0810127B6E7002FC0D006F107
:1043A00020012046FFF708FE4FF47A7306F1300132
:1043B000B0FBF3F060602046FFF7FEFD06F1400120
:1043C000A0602046FFF7F8FD06F14401E0602046BA
:1043D000FFF7F2FD2061A3E7002BB9D00A2384F890
:1043E0004430D6E7291D2046FFF7E6FD85190C224B
:1043F00020462946FFF704FE99E70B23EFE700BFAD
:10440000C5080308E3080308CA080308D706030819
:1044100010090308150903082D09030832090308C8
:104420004809030854090308590903085E090308E9
:1044300063090308C0E90A2100220263FFF70EBFE7
:1044400010B5002304460846E3620B6821639B68AD
:104450009847A0622046BDE81040FFF7FFBEF0B4C9
:10446000069FBDF81050BDF8146032B12BB1049511
:10447000CDE90567F0BCFFF728BDF0BC7047000030
:104480002DE9F04F9946436985B004460F469046A2
:104490002BB9294B7721294A294829F015FF0822F1
:1044A0008169FFF7ADFDA66920463146FFF799FD0A
:1044B000B11C83462046FFF794FD311D82462046FD
:1044C000FFF77AFD06F10801A36A054642189A42F1
:1044D00026D243F230039B4517D146F264339A4506
:1044E00013D190B10246A1612046FFF789FD0E9BD2
:1044F00001462A462046CDF80080CDE901933B468F
:10450000FFF7ADFF636901336361A3692B4405B90C
:1045100008330133626A23F001039342A36109D196
:10452000012301206361236AA36180F0010005B0CB
:10453000BDE8F08F0020F8E7990703086809030831
:10454000D7060308012070470C2070470C2303FB9B
:104550000100083070470C2303FB0100083070474E
:1045600001207047C4207047C42303FB01000830BA
:104570007047C42303FB01000830704701207047D7
:104580001020704700EB01100830704700EB01105D
:1045900008307047084600F0DBBE0000034B10B542
:1045A0000446036017F04EFE204610BD740A03084F
:1045B00010B50446FFF7F2FF1421204629F00DFB49
:1045C000204610BD034B10B50446036017F03AFEB9
:1045D000204610BD400A030810B50446FFF7F2FF5D
:1045E000CC21204629F0F9FA204610BD034B10B526
:1045F0000446036017F026FE204610BD0C0A03088F
:1046000010B50446FFF7F2FF1821204629F0E5FA1D
:10461000204610BD084B10B5044640F8F83BFFF7A4
:10462000BDFF04F12C00FFF7CDFF04F11400FFF7EC
:10463000DDFF204610BD00BFA80A030808B50248E8
:10464000FFF7E8FF08BD00BF8052002410B5044604
:10465000FFF7E0FF4FF41C71204629F0BEFA204618
:1046600010BD00002DE9F34100F0FAFC00240546DE
:1046700000F0FAFC234601462246284600941FF02B
:10468000EFFA274B274A2046274D1A6001F090F891
:10469000264B274A27489A601FF09AF92B68BFF3E8
:1046A0005B8FDB0735D4284629F099FA88B3224C72
:1046B000224B04F58A7604F1140004F12C0804F16D
:1046C000F80723606060C4F80880E760266117F08F
:1046D000BBFD1B4B4046636117F0B6FD194B3846D6
:1046E000E36217F0B1FD184B04F58670C4F8F8309A
:1046F00001F0D4F8224604F58671304601F0C4F882
:10470000304600F025FE114829F0FCFD284629F02E
:1047100072FA0F4802B0BDE8F041FFF77FB800BF62
:10472000E09C0124504400247C5200247044002466
:10473000544400241800002480520024A80A0308CE
:104740000C0A0308400A0308740A03083D460008DF
:10475000C8430024704700000148FFF775B800BF48
:10476000C843002470B5274E274B284C3046284DAF
:104770002360FFF72FFB284622F020FB25481DF081
:104780005DFB254B00224FF4807124481A8683F884
:1047900058205A6683F87020DC60C3E91212204961
:1047A000C3E91A121F490B604FF4F07101801E48D3
:1047B00001804FF488711D4801801D4801801D490A
:1047C000C3E90422C3E90622C3E90822C3E90A2295
:1047D000C3E90E22C3E91022C3E91422C3E9172258
:1047E000C3E901650A701449C3F8802083F83420B6
:1047F00019605A671149C3F88420114A9967DA672A
:1048000070BD00BFD844002448010308785200243A
:104810007044002454440024C8430024709C0124A4
:10482000010000017C9C0124769C0124729C0124DF
:10483000789C0124749C0124D40203080000010127
:10484000200103080148FFF757B900BFD8440024EE
:104850000020704781807047C18070470181704798
:10486000418170477047704770477047704710B478
:10487000C4880368121B84885B6D091B12B25DF843
:10488000044B09B218474FF6FF7383814FF0FF3393
:1048900003621368C36110607047002070478B8803
:1048A000838001207047704780F82610704790F889
:1048B00026007047002210B5B1F90840B1F90A107E
:1048C000028042808480C18010BD0022028042802C
:1048D0008280C28070470177704780ED080A704778
:1048E00080F82410704780F8251070470120704729
:1048F000983070478C3070478430704770470000A4
:10490000034B902283F85A2383F85823704700BF43
:1049100000E100E0094A0A49D3680A48C3F30A03E0
:10492000013B9BB20B801169C1F30A01013901807F
:104930001364536B43F0010353637047001000503E
:10494000F2540024F0540024014BD3F8AC0070471B
:1049500000100050024B0122C3F8AC105A6270479D
:10496000001000500163C0E90D2170477047704787
:10497000704700EB8100114640680368DB68184708
:1049800080F83C10704710B50446482129F025F9FD
:10499000204610BD10B504462C2129F01EF92046F2
:1049A00010BD10B50446BC2129F017F9204610BDF2
:1049B00038B5044617F045FF23685D6E1CF010F90A
:1049C00001462046A8472368074A2046D3F8885066
:1049D00000230649A847064B064A5A60064A1A634E
:1049E0009A63064A5A6338BD00F40B7000FA0570EA
:1049F000B4550024FC55002400EE117000FA0500A7
:104A000017F006BF17F0CEBE18F02FB838B5044621
:104A10000D46406C4FF0FF3108F066FA606C08F00C
:104A200086FA242303FB0545002385F8283094F8F3
:104A300028300BB9236BA36338BD90F8252012B141
:104A400003685B6918477047124A5369DB0370B506
:104A50001ED50023C2F88430BFF34F8FD2F88030C8
:104A600043F6E074C3F3C900C3F34E335B0103EABA
:104A70000406014646EA81750139C2F87452F9D23A
:104A8000203B13F1200FF2D1BFF34F8FBFF36F8F95
:104A900070BD00BF00ED00E008B531B1044B4FF42C
:104AA000B871044A044829F00FFC90F8290008BDA9
:104AB000B40A0308C80A0308520C030810B531B140
:104AC000064B4FF4B571064A064829F0FDFB4068D5
:104AD00011460368BDE810401B6B1847B40A030871
:104AE000950C0308520C030808B529B1034B792132
:104AF000034A044829F0E8FBC06808BDB40A03086B
:104B0000430E0308520C030810B5044629B1194B93
:104B1000A221194A194829F0D7FB052A15D8DFE840
:104B200002F0031115171C22406803681B6998479F
:104B300058B1012384F8293084F82C300023C4E9CB
:104B4000043302E0002380F8293010BD0362F5E74A
:104B50000362012380F82A30F0E7002380F829302F
:104B600001230362F1E7003B18BF012380F82D30D9
:104B7000EBE700BFB40A0308F80F0308520C030860
:104B800010B50C4611461A462CB1064B9021064A28
:104B9000064829F099FBC46040680368BDE81040EE
:104BA0009B681847B40A0308CC110308520C030889
:104BB00008B529B1054B8221054A064829F084FB36
:104BC000C0E90411C0E9063208BD00BFB40A0308F9
:104BD000A7130308520C030890F83D3010B50446A3
:104BE00053B14FF0FF31406C08F07EF9002384F898
:104BF0003D30012384F83E3010BD90F825201AB1D5
:104C000090F8242002B118607047000010B50446E7
:104C1000104629B1134BD021134A144829F054FBF4
:104C200094F8293033B1124B1B6893F86B206369F9
:104C30001344636194F82B300BB9012010BDA368B5
:104C4000036303685B699847002394F82C0084F899
:104C50002B300028F1D194F82D30002BEED184F8C0
:104C60002900EBE7B40A030863150308520C030894
:104C70007C9C012410B5174C17F0D6FD94F8293010
:104C800013B994F82A30ABB1E169D4E90532534342
:104C900022694A4393420DD394F83C0038B19B1AE1
:104CA000B3FBF1F2994298BF02F1FF326262012335
:104CB00084F82E300123206C84F83D3008F0CCF9C4
:104CC00094F83E302BB1606C08F031F9002384F881
:104CD0003E3010BDB4550024034B4FF080629A6003
:104CE0004FF080729A60704700E100E0084B4FF08F
:104CF0008062C3F88820BFF34F8FBFF36F8F4FF0F0
:104D00008072C3F88820BFF34F8FBFF36F8F704757
:104D100000E100E0F8B5034690F82800D8B94FF458
:104D200080729E6B0125D8609A8506F5BF221861B6
:104D300002F5007258619861D861186258629D62EC
:104D400083F82E00D3E90C473C44A2420AD90B4B0E
:104D500052210B4A03E00B4B40F2C5110A4A0B48A3
:104D600029F0B2FA9E609A634FF4F07381F83450E0
:104D7000CB864FF4887308630B87F8BDBB18030814
:104D8000F61803080417030834170308520C030825
:104D9000002370B5124E04468380124B03603368C3
:104DA00093F858200AB1D86C00B998680368DB6A98
:104DB0009847431E5D425D413368D86C30B103684B
:104DC000DB6A9847012808BF45F001052DB9064B5D
:104DD0002721064A064829F077FA204670BD00BF11
:104DE0007C9C01249C1B0308991A0308F71A0308EA
:104DF000301B030870B5244E3568BFF35B8F15F088
:104E000001053FD1304628F0EAFE00283AD01F4C79
:104E10001F4B04F134002561E584A562A585C4E932
:104E20000035C4E902551DF068FA04F1580019F084
:104E30003DFF184B2046A365174B40F8843BFFF716
:104E4000A7FF164B1648C4F884302433C4F890509A
:104E5000C4F88C306423C4F89C50C4F8A850C4E94A
:104E600028350023C4F8AC30C4F8B030C4F8B430EE
:104E7000C4F8B8300B4BC4F8983029F043FA3046E8
:104E800028F0B9FE014870BDF4540024F854002401
:104E90007C450308BC1B0308341C0308C8450308F1
:104EA000FD4800080046030810B5144C236823B3DE
:104EB000134B144A1B6C11888B4213D1124B198867
:104EC00003F082FF226892F86A30013382F86A3078
:104ED000FEF7E6FD206818F0F3F90020BDE8104069
:104EE000FEF7C4BB03F070FF206803681B6A984795
:104EF0000020BDE81040FEF7EBBB10BD7C9C0124F8
:104F000000100050F2540024F05400242DE9F7431F
:104F1000044601264FF4B4674FF0FF31206C08F0CF
:104F20006FF84FF0FF31606C07F0DEFF94F82E3021
:104F300043B36568D4F820802B6884F82B60B8F1FF
:104F4000000F23D05B6A414628469847002323621E
:104F50002B684FF4F07200972846D3F814804FF472
:104F60008873A168C047236984F82C00013323614A
:104F7000F0B12B6828469B6A984701380023E0600F
:104F800084F82E30606C07F0D2FFC5E7626A002A11
:104F9000DED02846D3E909939847616A0144284640
:104FA000C8472369626AC4F8248013442361CFE7A9
:104FB0000120E3E7014808B5FFF7A8FFB455002436
:104FC00038B5154900251548FEF7CEFF144C154B92
:104FD0002A462946012023604FF48073A563A387E6
:104FE000A38584F83E5084F82E50C4E90C55C4E9DA
:104FF0001055C4E90155C4E90355C4E90555C4E990
:105000000755C4E9095507F0B1FF2064284607F0A9
:1050100036FF606438BD00BF44560024FC550024B0
:10502000B4550024801C0308704710B504460421C1
:1050300028F0D3FD204610BD012908B506D002296D
:1050400008D059B900F0F2FB006808BD00F0EEFB93
:105050004068FAE700F0EAFB8068F6E70020F4E732
:1050600000487047D01C03080220704713B5002485
:1050700051B1036801AA01948DF803409C680DF1B9
:105080000303A04702B010BD0846FBE7C089704784
:10509000008A7047C088704780887047807A00F027
:1050A0007F007047807AC009704700207047000079
:1050B0009FED010A704700BF000000007047704775
:1050C00000F598730868496803C3704770477047D4
:1050D0004160704770470000064BC0F84801C0F8B7
:1050E0004C310023C0F8503100F5A273C0F84031B4
:1050F000704700BF99510008012303727047704741
:10510000704710B441680346C2689B68541001EBB5
:105110006200D20748BF0A595DF8044B48BFD35814
:1051200018470346406830B19A681AB9D86800F049
:10513000010070470120704710B504460C2128F08B
:105140004CFD204610BD10B50446102128F045FD49
:10515000204610BD10B504464FF4AE7128F03DFD59
:10516000204610BD10B51BF03BFD0368BDE81040A4
:10517000DB6B184710B50446D0F8400158B10368FE
:10518000DB68984738B1D4F8400103689B689847BA
:105190000023C4F8403110BD2DE9F14FD0E9556A24
:1051A0000746B06803681B6A9847C32805D8444B74
:1051B000A321444A444829F087F8706803681B6AB1
:1051C00098470F2803D8414BA4213E4AF2E7F068E4
:1051D00003681B6A98470B2803D83D4BA521394A21
:1051E000E8E7DFF8F4901BF0FBFC04301BF01DFD3A
:1051F000D9F8000010B10368DB689847D9F80000BF
:1052000010B103681B689847DFF8D080D8F8000019
:1052100010B103685B699847D7F83C0110B1036887
:105220005B689847D8F8000010B103681B6898477E
:10523000D7F83C0110B103689B689847F0680021DB
:105240004FF0000B03685B6A9847224B0446C0F896
:1052500004B080F808B059460360B06803685B6A20
:105260009847054600F068FB7068594603685B6A1A
:1052700098470646294600F03FFB331DC7F83C61BE
:105280002846C9F80040C8F80050CAF800302B681A
:10529000C6F808A0DB68EE639847336830461B68A1
:1052A0009847214628461DF08BFC236820461B6941
:1052B0009847236820465B6901B0BDE8F04F184766
:1052C000F81C0308861D0308581E03089F1E0308C8
:1052D000421F03085C200308C49C0124C09C0124D5
:1052E000044B1B6893F858200AB1D86C00B9986831
:1052F000704700BF7C9C012470B5044616460D46DD
:105300001BF034FD0E4B00211C600E4B23600E4B36
:10531000C4E951310D4B1868C4E953110368C4E95D
:105320004F119B68C4E955659847FFF7D9FF22F0F4
:105330002CFEFFF7D5FF22F09FFE204670BD00BF78
:10534000D09C012408200308F01F03087C9C012442
:10535000064BC0F84801C0F84C310023C0F850316A
:1053600000F5A273C0F84031704700BF99510008A2
:10537000406A7047806A704770478B88C069DB0A53
:105380000A6850F823001044704710B50446BAB1BB
:10539000107B68B1537BD27A1B0203F4E0631A439B
:1053A000236A03EB82031A888A4202D193F902002E
:1053B00010BD05D80138043380B20028F3D1F7E7D7
:1053C0000020F5E710B504462C2128F006FC204605
:1053D00010BD000030B58BB00446BDF86050089594
:1053E000BDF85C5007959DF8505006959DF84C50BF
:1053F00005959DF8485004959DF8445003959DF8F7
:10540000405002959DF83C500195BDF838500095EC
:105410001DF030F8064B20462360159BE361169B78
:105420002362199B63621A9BA3620BB030BD00BF5D
:105430008020030870477047704770477047704777
:10544000704710B50446C42128F0C7FB204610BDA4
:10545000036870B504461B6B1546984723682046C1
:1054600029465B6BBDE8704018470000002310B56B
:10547000C0E90133C0E90333C0E90733C0E90533AC
:105480004FF4807304468384054B03600B88C38408
:10549000FF2380F8283019F064FC204610BD00BFBF
:1054A000004703082DE9F743044600251DF0DCF909
:1054B000314B2646E56304F16C0804F1980746F881
:1054C000403B4FF6FF792D4B01A940462566A56666
:1054D000ADF80490C4E910354FF48073A4F864303B
:1054E000FF23C4E9125584F86630C4E91455C4E9B1
:1054F0001655FFF7BBFF01A93846ADF80490FFF73A
:10550000B5FF2A4629463046FFF7A2FF30464FF442
:10551000F07104F10409FFF7A1F930464FF48871E6
:10552000FFF79EF94FF07F4331464846A36616F0D9
:105530009FFE2A4629464046FFF78AFF012301A91C
:105540004046ADF8043019F00CFC4146484616F0D0
:105550008FFEF12238463621FFF77AFF01A938463F
:10556000ADF8045019F0FDFB4846394616F080FEB0
:10557000204603B0BDE8F083E820030898460308FE
:105580007047000030B5164D8FB02C68BFF35B8FAD
:1055900014F0010420D1284628F021FBE0B13F237C
:1055A000012210490993104B10480893104B0A949C
:1055B0000594CDE906430423CDE903320A23CDE95E
:1055C0000B440093CDE90144FFF704FF094828F09C
:1055D00099FE284628F00FFB04480FB030BD00BFED
:1055E000C45D00245C4E03088C4E0308C85D002493
:1055F000984E0308815500087047000030B5164DDD
:105600008FB02C68BFF35B8F14F0010420D12846C3
:1056100028F0E5FAE0B13F23012210490993104B2D
:1056200010480893104B0A940594CDE906430423CF
:10563000CDE903321423CDE90B440093CDE90144B5
:10564000FFF7C8FE094828F05DFE284628F0D3FA87
:1056500004480FB030BD00BFF45D00246C4E030859
:10566000904E0308F85D00249C4E0308F95500088D
:105670007047000030B5164D8FB02C68BFF35B8FBC
:1056800014F0010420D1284628F0A9FAE0B13F2304
:10569000012210490993104B10480893104B0A94AB
:1056A0000594CDE906430423CDE903322823CDE94F
:1056B0000B440093CDE90144FFF78CFE094828F024
:1056C00021FE284628F097FA04480FB030BD00BFED
:1056D000245E00247C4E0308944E0308285E0024B8
:1056E000A04E030871560008002070470020704744
:1056F0000EB403B503AB002153F8042B01931CF047
:10570000BDF902B05DF804EB03B070470CB407B507
:1057100004AB53F8042B01931CF0B0F903B05DF80F
:1057200004EB02B070470000436C10B5044673B33D
:10573000038F2BB9184BC521184A194828F0C4FD0E
:10574000C38E00EB43035B8C0BB31DF005FF238F6F
:10575000012B03D8134BCB21134AEEE7E28E40F620
:105760003F10531C9BB2092B194688BFA3F10A01B5
:1057700004EB4101498C814209D10A2B04EB42021E
:1057800028BF0023508C04EB4303588451842046E7
:10579000BDE810401DF0E2BD142103081D210308DF
:1057A000C821030812220308202203081DF09FBD10
:1057B00038B518BB124B13481C681349B4B12268A2
:1057C00022440260626822440A60A26814440F4BBB
:1057D00000221A8000F02AF8054600F025F80C4B4C
:1057E0001C600C4B1D600C4B188007E00B4B0360DA
:1057F0000B4B0B600B4B1C68002CE8D138BD00BF75
:10580000605E0024585E0024545E00245C5E002428
:10581000D49C0124DC9C0124D89C0124A84E0308BC
:10582000A44E0308AC4E03080020704700487047A0
:10583000645E002410B5054CFFF7E0FE2060FFF722
:1058400019FF6060FFF79EFEA06010BD645E00243B
:1058500010B5002404600C6014601C6010BD70471B
:1058600010B504464FF4AE7128F0B7F9204610BDCC
:1058700010B50446D0F8580100F014F82046BDE8F1
:1058800010401BF02FBA000010B50446FFF734FD9E
:10589000014B2046236010BDFC2203080022026059
:1058A0000271704710B504464FF40051064802F0EB
:1058B000E7FC011E206818BF0121036821719B6865
:1058C000BDE81040184700BF000802587047043870
:1058D00070477047C0680368DB6A1847A0F104008E
:1058E000FFF7F8BF10B50446102128F076F92046DE
:1058F00010BDA0F10400F5E70022C1608260024AF9
:1059000002601C3242607047502303087047000059
:10591000034B10B504460360FFF791FD204610BD10
:105920008023030810B50446FFF7F2FFC421204688
:1059300028F053F9204610BD10B50446FFF7B2FD1C
:10594000014B2046236010BD80230308FFF778BD7C
:1059500080F8BD1098301CF0BCB940F201134FF430
:10596000F07200200B8005238B704FF48873C1E91F
:105970000123704790F82430012B04BF002380F8E6
:105980002430002070470020704710B4046900895B
:10599000A4465DF8044B604710B4C4680089A4466F
:1059A0005DF8044B604770B500F118050E460978A4
:1059B000284600F0F5F804463179284600F0FCF856
:1059C0000444317A284600F003F90444317B284628
:1059D00000F00AF90444317C284600F011F904442F
:1059E000317D284600F018F9C44214BF4FF0FF3053
:1059F000002070BD183000F027B937B500F1180548
:105A00000C4601A9284600F0BEF808BB9DF80430FA
:105A1000052B98BF184604232060032128460DEB70
:105A2000030200F09DF8B0B99DF804309DF8052000
:105A30001B0203F4706313439DF8072063609DF815
:105A400006301B0203F470631343A36003B030BD40
:105A50004FF0FF30DFE74FF0FF30F7E7183000F08E
:105A60008DB80121183000F0E3B80021183000F0A3
:105A7000DFB810B590F8243004466BB90368984736
:105A80002046FFF7F2FF00384FF0010318BF012056
:105A900084F82430404210BD0020FCE7002070470D
:105AA00070B500F1180588B00C462846694600F02C
:105AB0006AF890BB9DF80030052B98BF184620600F
:105AC0001E236A460321284600F04AF840BB2146BF
:105AD0006D4614342A78063515F8056C13029209C0
