:020000040800F2
:1000000000000524913B000891210008932100087D
:1000100095210008972100089921000800000000A0
:1000200000000000000000000000000001E70008E0
:100030009B2100080000000091E7000837DF00085E
:10004000E13B0008E13B0008E13B00089D2100087E
:10005000E13B0008E13B0008E13B0008E13B000810
:10006000E13B0008E13B0008A9210008E13B000852
:10007000E13B0008E13B0008E13B0008E13B0008F0
:10008000E13B0008E13B0008E13B0008E13B0008E0
:10009000E13B0008E13B0008E13B0008E13B0008D0
:1000A000E13B0008E13B0008E13B0008B12100080A
:1000B000E13B0008E13B0008BD210008E13B0008EE
:1000C000E13B0008E13B0008E13B0008E13B0008A0
:1000D000E13B0008E13B0008E13B0008E13B000890
:1000E000E13B0008E13B000800000000E13B0008A4
:1000F000E13B0008E13B0008E13B0008E13B000870
:10010000E13B0008E13B0008E13B0008E13B00085F
:10011000E13B0008E13B0008C9210008E13B000881
:10012000E13B0008E13B0008E13B0008E13B00083F
:10013000E13B0008E13B0008E13B0008E13B00082F
:1001400000000000000000000000000000000000AF
:10015000E13B0008E13B0008E13B0008E13B00080F
:10016000E13B0008E13B0008E13B0008E13B0008FF
:10017000E13B0008E13B0008E13B0008E13B0008EF
:10018000E13B0008E13B0008E13B0008E13B0008DF
:10019000E13B0008E13B0008E13B0008E13B0008CF
:1001A000D5210008E13B0008E12100080000000023
:1001B000E13B0008E13B0008E13B0008E13B0008AF
:1001C000E13B0008E13B00080000000000000000E7
:1001D0000000000000000000E13B000800000000FB
:1001E000000000000000000000000000000000000F
:1001F0000000000000000000E13B0008E13B0008B7
:10020000E13B0008E13B000800000000E13B000882
:10021000E13B0008E13B0008E13B0008E13B00084E
:10022000E13B000800000000E13B00080000000086
:10023000E13B0008E13B000800000000E13B000852
:10024000E13B0008E13B0008E13B0008E13B00081E
:10025000E13B0008E13B0008E13B0008E13B00080E
:10026000E13B0008E13B0008E13B0008E13B0008FE
:10027000E13B0008E13B0008E13B00080000000012
:10028000E13B0008E13B0008E13B0008E13B0008DE
:1002900000000000E13B0008E13B0008E13B0008F2
:1002A000E13B0008E13B0008E13B0008E13B0008BE
:1002B000E13B0008E13B0008E13B0008ED210008BC
:0C02C000F9210008E13B0008E13B0008C8
:1002D00010B5054C237833B9044B13B10448AFF380
:1002E00000800123237010BD600100240000000085
:1002F000180A030808B5034B1BB103490348AFF3C1
:10030000008008BD0000000064010024180A0308F2
:1003100001F0FF01102A2BDB10F0070F08D010F8B6
:10032000013B013A8B422DD010F0070F42B3F6D1BA
:10033000F0B441EA012141EA014122F007047FF0D3
:1003400000070023F0E80256083C85EA010586EA2A
:10035000010685FA47F5A3FA87F586FA47F6A5FA66
:1003600087F68EB9EED1F0BC01F0FF0102F0070272
:1003700032B110F8013B013A83EA010313B1F8D11D
:100380000020704701387047002D06BF35460338FE
:10039000073815F0010F07D1013015F4807F02BF37
:1003A000013015F4C03F0130F0BC0138704700BF88
:1003B00081F0004102E000BF83F0004330B54FEA16
:1003C00041044FEA430594EA050F08BF90EA020F83
:1003D0001FBF54EA000C55EA020C7FEA645C7FEA16
:1003E000655C00F0E2804FEA5454D4EB5555B8BF39
:1003F0006D420CDD2C4480EA020281EA030382EAAA
:10040000000083EA010180EA020281EA0303362D3B
:1004100088BF30BD11F0004F4FEA01314FF4801C0E
:100420004CEA113102D0404261EB410113F0004F20
:100430004FEA03334CEA133302D0524263EB4303D7
:1004400094EA050F00F0A780A4F10104D5F1200E75
:100450000DDB02FA0EFC22FA05F2801841F10001D0
:1004600003FA0EF2801843FA05F359410EE0A5F1A4
:1004700020050EF1200E012A03FA0EFC28BF4CF0D5
:10048000020C43FA05F3C01851EBE37101F000458B
:1004900007D54FF0000EDCF1000C7EEB00006EEB98
:1004A0000101B1F5801F1BD3B1F5001F0CD3490822
:1004B0005FEA30004FEA3C0C04F101044FEA445279
:1004C00012F5800F80F09A80BCF1004F08BF5FEA00
:1004D000500C50F1000041EB045141EA050130BDE0
:1004E0005FEA4C0C404141EB0101013C28BFB1F5F2
:1004F000801FE9D291F0000F04BF01460020B1FA3D
:1005000081F308BF2033A3F10B03B3F120020CDA0F
:100510000C3208DD02F1140CC2F10C0201FA0CF0ED
:1005200021FA02F10CE002F11402D8BFC2F1200C52
:1005300001FA02F120FA0CFCDCBF41EA0C01904008
:10054000E41AA2BF01EB0451294330BD6FEA040451
:100550001F3C1CDA0C340EDC04F11404C4F120023C
:1005600020FA04F001FA02F340EA030021FA04F34E
:1005700045EA030130BDC4F10C04C4F1200220FAA5
:1005800002F001FA04F340EA0300294630BD21FAE3
:1005900004F0294630BD94F0000F83F4801306BFA9
:1005A00081F480110134013D4EE77FEA645C18BF9D
:1005B0007FEA655C29D094EA050F08BF90EA020F34
:1005C00005D054EA000C04BF1946104630BD91EA2C
:1005D000030F1EBF0021002030BD5FEA545C05D12F
:1005E0004000494128BF41F0004130BD14F580046E
:1005F0003CBF01F5801130BD01F0004545F0FE41E2
:1006000041F470014FF0000030BD7FEA645C1ABF16
:10061000194610467FEA655C1CBF0B46024650EA4D
:10062000013406BF52EA033591EA030F41F4002179
:1006300030BD00BF90F0000F04BF0021704730B5FF
:100640004FF4806404F132044FF000054FF00001D4
:1006500050E700BF90F0000F04BF0021704730B595
:100660004FF4806404F1320410F0004548BF40426A
:100670004FF000013EE700BF42004FEAE2014FEABF
:1006800031014FEA02701FBF12F07F4393F07F4F9A
:1006900081F06051704732F07F4208BF704793F09D
:1006A0007F4F04BF41F40021704730B54FF46074B0
:1006B00001F0004521F000411CE700BF50EA0102B3
:1006C00008BF704730B54FF000050AE050EA01025C
:1006D00008BF704730B511F0004502D5404261EBCC
:1006E00041014FF4806404F132045FEA915C3FF40D
:1006F000D8AE4FF003025FEADC0C18BF03325FEAAA
:10070000DC0C18BF033202EBDC02C2F1200300FA5A
:1007100003FC20FA02F001FA03FE40EA0E0021FA7F
:1007200002F11444BDE600BF53B94AB9002908BF1D
:1007300000281CBF4FF0FF314FF0FF3000F06AB9C6
:10074000ADF1080C6DE904CE00F006F8DDF804E028
:10075000DDE9022304B070472DE9F047089D0C46FF
:10076000002B4ED194468C458646B2FA82F262D96D
:100770004AB1C2F12003914020FA03F30CFA02FCC3
:10078000194300FA02FE4FEA1C471FFA8CF6B1FB30
:10079000F7F44FEA1E4307FB141143EA014304FB3D
:1007A00006F199420AD91CEB030304F1FF3080F0F3
:1007B0001281994240F20F81023C6344591A1FFA98
:1007C0008EF3B1FBF7F007FB101143EA014300FB86
:1007D00006F69E420AD91CEB030300F1FF3180F0BC
:1007E000FC809E4240F2F980634402389B1B40EA41
:1007F000044000211DB1D3400022C5E90032BDE80C
:10080000F0878B4205D90DB1C5E9000100210846EA
:10081000F5E7B3FA83F1002946D1A34202D390420F
:10082000C0F0F080861A64EB03030120002DE6D0AF
:10083000C5E90063E3E7002A40F09080A1EB0C04D7
:100840004FEA1C481FFA8CF70121B4FBF8F64FEA77
:100850001E4308FB164443EA044307FB06F0984294
:1008600008D91CEB030306F1FF3402D2984200F2D0
:10087000CD8026461C1A1FFA8EF3B4FBF8F008FB55
:10088000104443EA044300FB07F79F4208D91CEBDE
:10089000030300F1FF3402D29F4200F2B0802046F1
:1008A000DB1B40EA0640A5E7C1F120068B4022FA97
:1008B00006F71F4320FA06FC04FA01F343EA0C038F
:1008C000F44000FA01F8380C4FEA1349B4FBF0FE8B
:1008D0001FFA87FC00FB1E4449EA04440EFB0CF996
:1008E000A14502FA01F20AD93C190EF1FF3A80F053
:1008F0008480A14540F28180AEF1020E3C44A4EB1D
:1009000009041FFA83F9B4FBF0F300FB134449EA2E
:10091000044403FB0CFCA44507D93C1903F1FF3048
:1009200067D2A44565D9023B3C4443EA0E40A0FB94
:100930000293A4EB0C049C42CE469C4651D34ED06D
:1009400055B1B8EB0E0364EB0C0404FA06F6CB4089
:100950001E43CC40C5E90064002150E7C2F12003EA
:1009600020FA03F10CFA02FC24FA03F394400C433E
:100970004FEA1C4800FA02FE1FFA8CF7B3FBF8F0AE
:1009800008FB1031230C43EA014300FB07F19942B5
:1009900008D91CEB030300F1FF362CD299422AD967
:1009A000023863445B1AA4B2B3FBF8F108FB1133BD
:1009B00044EA034401FB07F3A34208D91CEB0404F7
:1009C00001F1FF3613D2A34211D902396444E41A6B
:1009D00041EA004139E70446F0E6084606E7C84523
:1009E000AED2B9EB020E63EB070C0138A8E7314633
:1009F000EDE7034699E73046D4E7D6467FE7634400
:100A000002384DE70646234608460FE7023E634498
:100A100030E700BF704700BF014900200FF036B833
:100A20008D40000808B542F210700DF004FBFAE7A3
:100A300008B564200DF0FFFAFBE70000064D074CF7
:100A400008B547F230500DF0F6FA28462EF050FF68
:100A5000204609F0CCF8F4E7BC0A030898480024C3
:100A600008B502F093FB03F031F804200DF0E3FA2F
:100A7000F7E708B503F052F80A200DF0DCFAF9E7C1
:100A800038B50B4C0B4D204607F036F96421204653
:100A900006F0D0FD204606F05BFE286002F090FADA
:100AA000002002F029FB64200DF0C5FAEBE700BF3F
:100AB000D4490024B84A0024094C0A4D08B5204600
:100AC00007F01AF90121204606F0B4FD204606F091
:100AD0003FFE288001F0FCFD64200DF0ACFAEEE74B
:100AE000444A0024BC4A002408B501F0F5FF41F255
:100AF00088300DF0A0FAF8E708B502F0B1F941F23C
:100B000088300DF098FAF8E708B502F049FA4FF48A
:100B10007A700DF090FAF8E708B502F051FC02F097
:100B2000CBFB02F0B9FC01200DF085FAF5E708B522
:100B300001F0A0FC01F068FD4FF4FA700DF07BFAB3
:100B4000F6E70000054C08B501F026FF01F03EFF76
:100B5000206032200DF06FFAF6E700BFB44A00249F
:100B600008B502F01DF84FF47A700DF064FAF8E75A
:100B700007B54FF6FF730190012201A903480DF05C
:100B80007CF8019803B05DF804FB00BFE845002441
:100B900010B59CB04C22002109A82EF0A9FF2022FC
:100BA000002101A82EF0A4FF04200AF069F8002318
:100BB0000093214B9A6922F440429A619A6902F4A7
:100BC00040420092009A9A699204FCD50AF022F8F9
:100BD0001A4A2C210024136F09A823F01803136765
:100BE0000D224FF480331B94CDE909230122022307
:100BF000CDE915120B920E9244221493CDE91723DE
:100C0000CDE912330C23CDE919340AF077F803212A
:100C10003F2308204FF4806203947024CDE9013112
:100C20004023CDE9040301A80893CDE906420AF068
:100C300081FB1CB010BD00BF0048025800440258A0
:100C400000B5AFB00021982208A82EF051FF124A3B
:100C500000231920CDE9002305225023CDE90223EA
:100C600002238022CDE90433069307924FF4907259
:100C7000CDE90C331E230E934FF400731093202301
:100C800013934FF48033CDE90A02684628930AF0A3
:100C900039FE2FB05DF804FB000008222DE98048E2
:100CA000A1B0102200214FF0000A13A82EF020FF5F
:100CB00007F03CFB012313A8ADF84C3048F21F733A
:100CC000CDE914A340F20113169307F04DFB042065
:100CD00007F03AFBD44B5A6912F4003211D1BFF33A
:100CE0004F8FBFF36F8FC3F85022BFF34F8FBFF307
:100CF0006F8F5A6942F400325A61BFF34F8FBFF3CE
:100D00006F8FC94A536913F4803323D1C2F88430FA
:100D1000BFF34F8FD2F8803043F6E074C3F3C900BD
:100D2000C3F34E335B0103EA0406014646EA8175CC
:100D30000139C2F86052F9D2203B13F1200FF2D1F1
:100D4000BFF34F8F536943F480335361BFF34F8F29
:100D5000BFF36F8F06F0FAFB0024FFF719FF0125A0
:100D6000FFF76EFF1422002113A82EF0C1FEAF4B37
:100D700048F20801AE48D3F8E02002274FF01008EF
:100D80004FF0030A42F002024FF4806BA94E40F28A
:100D90001529C3F8E020D3F8E02002F00202009207
:100DA000009AD3F8E02042F04002C3F8E020D3F8E4
:100DB000E02002F040020192019AD3F8E02042F0D4
:100DC0000802C3F8E020D3F8E02002F00802029203
:100DD000029AD3F8E02042F01002C3F8E020D3F8E2
:100DE000E02002F010020392039AD3F8E02042F0D0
:100DF0000102C3F8E020D3F8E02002F001020492DF
:100E0000049AD3F8E02042F00402C3F8E020D3F8BB
:100E1000E02002F004020592059AD3F8E02042F0A7
:100E20008002C3F8E020D3F8E02002F080020692AE
:100E3000069AD3F8E02042F02002C3F8E020002216
:100E4000D3F8E03003F020030793079B08F0E8FA9B
:100E500000224FF44041784808F0E2FA00224FF4B3
:100E60008061764808F0DCFA00220121744808F01D
:100E7000D7FA082313A973481595CDE9133408F060
:100E800051F94FF4005313A96F481597CDE9133466
:100E900008F048F94FF4004313A96548CDE913352C
:100EA000CDE9154408F03EF9202313A960481595B3
:100EB000CDE9133408F036F94FF4881313A95C48D0
:100EC0001594CDE9138308F02DF9082313A9584888
:100ED000CDF858A01594CDE9133508F023F94FF457
:100EE000807313A959481595CDE9133408F01AF900
:100EF0004FF4404313A95048CDE91335CDE9154AC5
:100F000008F010F913A94D48CDE913B5CDE9154402
:100F100008F008F913A94A48CDE91355CDE9154A57
:100F200008F000F9224605210A2007F0ADF90A2051
:100F300007F0DCF94648474B056203608480C0E94E
:100F4000054407F03DFA4FF440334348C0E90063DD
:100F5000C0E9025407F095FA2146342213A82EF076
:100F6000C7FD3E4E3E4B4FF0280C4FF0350E40F281
:100F7000352230463461B48686F83640C6E90034FE
:100F80000923C6E905C30B23C6E907E340F21B1397
:100F9000C6E9099340F21D134FF00409C6E90B237B
:100FA000C6E9024408F0B0FEFF214FF488734FF405
:100FB000F0720520CDF868B04FF0180B1394ADF81F
:100FC0007C408DF87E40CDE918144FF0E041CDE92A
:100FD0001D23CDE91B01CDE9142413A92246304677
:100FE000204ECDE9163508F08CFF5A46214613A84D
:100FF0002EF07EFD1C4B4FF080723046B460F463DF
:10100000C6E900392023C6E903230823C6E905748D
:10101000C6E90D34C6E90974C6E90744C6E90B44BC
:1010200009F0FCF822E000BF00ED00E000440258A7
:10103000001802580010005200040258000C025818
:10104000000002580010025800080258001402580C
:10105000B0490024004C025848490024F0470024BD
:101060000010005094470024005000524FF001122D
:1010700013A93046169202F57F021595179241F298
:101080008832CDE9135509F055FB304609F03AF99D
:1010900040F201122046D24EADF8382005F0B2FEE3
:1010A0000EA9204605F0A0FF204605F073FE5A4623
:1010B000214613A82EF01CFD424621460AA82EF018
:1010C00017FD214614220EA82EF012FDC54A4FF03E
:1010D000805C3046B460C6E900294FF08062C6E902
:1010E000032B17224FF6FF7BC6E90BC24FF4C872E1
:1010F000C6E90594C6E90974F263C6E90744C6E97E
:101100000D44CDE9084409F089F8B74A13A93046DF
:10111000169202F57F021597179241F28832CDE9B7
:101120001377062709F006FB41F288320AA93046F8
:10113000CDF828A00D954FF4805ACDE90B7409F035
:1011400043F94FF440520EA9304610924FF000522E
:101150001195129241F288320E940F9409F05AF9C7
:1011600008A93046089409F075FA02F00FFD4246CE
:1011700021460EA89D4E2EF0BBFC4246214613A8E8
:101180000C94CDE90A442EF0B3FC994A3046B46081
:10119000C6E90024C6E903B4C6E905440BF0A0FF84
:1011A0000EA93046CDF838A00CF0DAF830460BF036
:1011B000C7FF0AA930460C94CDE90A440CF09EFA08
:1011C0000C2213A930468B4ECDE91345CDE91544C9
:1011D0000CF028F8424621460EA82EF089FC424623
:1011E000214613A80C94DFF83C82CDE90A442EF086
:1011F0007FFC814A30463461B461C6E90024C6E907
:10120000024B0BF06DFF0EA93046CDF838A00CF064
:10121000A7F830460BF094FF0AA930460A940C94C4
:101220000CF06CFA0C2213A93046744ECDE913452C
:10123000CDE915440BF0F6FF2146242213A81094A3
:10124000CDE90E442EF054FC08234FF40022304622
:10125000B360F561348386F82040346386F84440F7
:10126000C6E90082C6E90449C6E90A44C6E90F4452
:1012700006F044FE0EA930460E9406F08DFF40F2B3
:10128000FF7213A93046159418948DF86D405C4E8A
:10129000CDE91629CDE9135706F05EFA142221464E
:1012A00013A82EF025FC574B4FF07F0930460E94C3
:1012B00034617461C6E90034FF23C6E90644C6E917
:1012C00002930BF0A1FB43F212032A4613A9ADF8D7
:1012D0004C304FF0200330468DF84E30CDE91644A7
:1012E0000BF0E9FB484B2A460EA9304643F2F225A3
:1012F0000E930BF042FC214630460BF084FDA842D1
:101300000ED0224613A930460BF0D5FB22460EA97B
:1013100030460BF032FC2A46214630460BF06EFD7B
:101320003A4D00243A4A4FF4E1334FF00C08284676
:101330002C614FF0060A012604274FF00809C5E981
:101340000023C5E90244C5E90584C5E90744C5E9A8
:1013500009440CF042FD214628460CF0ACFD214624
:1013600028460CF0C8FD28460CF08AFD29482A4B77
:101370004FF4C871294DC0E9003A40F6FF73C0E947
:10138000023108F007FC2422214613A82EF0B0FBFE
:101390004FF4802322482C616F612C83EE6185F825
:1013A000204085F8384085F84440C5E900032846C8
:1013B000C5E90294C5E90A44C5E90C44C5E90F44EE
:1013C00006F09CFD40F2FF7313A92846159418946B
:1013D0001A94CDE91637CDE9136A06F0BDF923E07A
:1013E0003847002400A0005202000100C846002433
:1013F000000001407C46002400080040444A0024CC
:10140000144700240040005804041024E845002438
:10141000004800409848002400480058D44900245F
:1014200000600258002002405C485D4B0D2206829D
:10143000036002238474C0E907231F22C0E9053931
:10144000C0E91763C0E90B29C0E90244C0E9096695
:10145000C0E90D46C0E90F66C0E91176C0E9137610
:10146000C0E91576C0E9194707F012F902F0BAFB96
:1014700002F0B7FB02F096FA02F046FB01F0ACFA7C
:1014800001F072FC01F052FD00F0E0FF01F01AF9EA
:1014900000F00CFF01F07AFA01F06CFB4146414884
:1014A0000CF026F8414640480CF022F801F02CFDE3
:1014B0000CF04EFD3D4A21463D480CF075FD3D4B7C
:1014C0003D4A214618603D480CF06EFD3C4B3D4ABC
:1014D000214618603C480CF067FD3C4B3C4A2146D5
:1014E00018603C480CF060FD3B4B3C4A21461860BC
:1014F0003B480CF059FD3B4B3B4A214618603B48AA
:101500000CF052FD3A4B3B4A214618603A480CF029
:101510004BFD3A4B3A4A214618603A480CF044FDDC
:10152000394B3A4A2146186039480CF03DFD394B99
:10153000394A2146186039480CF036FD384B394A93
:101540002146186038480CF02FFD384B384A2146A8
:10155000186038480CF028FD374B384A214618608F
:1015600037480CF021FD374B374A21461860374881
:101570000CF01AFD364B374A2146186036480CF0FD
:1015800013FD364B364A2146186036480CF00CFDE8
:10159000354B18600CF0EEFCFEE700BFA8480024B5
:1015A00000D40040C84600247C460024EC0D03080B
:1015B000250A0008E4450024C80D0308F33B000891
:1015C00034430024A40D0308395600083043002496
:1015D000800D03083D0A0008803200245C0D0308DA
:1015E000610A0008D02F0024380D0308730A000890
:1015F000202D0024140D0308810A0008701C00240B
:10160000F00C0308B90A0008C0190024CC0C030828
:10161000E90A000810170024A80C0308F90A0008BA
:1016200060140024840C0308090B0008B011002486
:10163000600C0308190B0008000F00243C0C030881
:101640002F0B0008500C0024180C0308310A000866
:10165000A0090024F40B0308450B0008F006002441
:10166000D00B0308610B00084004002410B59EB0A5
:10167000224808F0BCFA2022002103A82EF038FAF4
:101680004C2200210BA82EF033FA00230293019381
:101690001B4B9A6922F440429A619A6902F44042D3
:1016A0000292029A9A699204FCD50BA8012409F0CF
:1016B000ADFF4FF480330BA8CDE90B430223149305
:1016C00009F01CFB01A903A80AF002F80323019901
:1016D00003A80493039409F02DFE00F04FFD094880
:1016E00000F042F908482EF003F9084AD2F8D03049
:1016F00043F48033C2F8D0301EB010BD98480024A7
:1017000000480258F0470024CB0A0308004402585E
:1017100010B50C4C00220C4821460BF082FA0B4B02
:10172000187028B9A3786278217809482EF078F8E3
:10173000FFF72EFA00F022FD0648BDE810402EF01B
:10174000D7B800BF80010024144700247C01002486
:10175000DC0A0308ED0A03080268034B9A4201D130
:1017600005F022BF704700BF001000407047000026
:101770000A4B82B00F216FF00100D3F8F42042F041
:101780000202C3F8F4200022D3F8F43003F002037D
:101790000193019B02B006F077BD00BF00440258E0
:1017A000036884B0214A93421ED1214B4FF08071CF
:1017B000D3F8D82042F02002C3F8D820D3F8D8209C
:1017C00002F020020092009AD3F8E02042F00102D9
:1017D000C3F8E020D3F8E03003F001030193019B4C
:1017E000084604B005F004BF124A93421BD1104BC7
:1017F0004FF08061D3F8E02042F08072C3F8E0201F
:10180000D3F8E02002F080720292029AD3F8E0202E
:1018100042F00402C3F8E020D3F8E03003F0040300
:101820000393039BDCE704B0704700BF0020024035
:101830000044025800600258026882B0094B9A4284
:101840000DD1A3F50063D3F8E02042F40022C3F8E1
:10185000E020D3F8E03003F400230193019B02B0B1
:10186000704700BF004C02580F4B07B502689A4200
:1018700017D10E4B05215A20D3F8D42042F0100284
:10188000C3F8D4200022D3F8D43003F0100301931E
:10189000019B06F0F9FC5A2003B05DF804EB06F05A
:1018A00025BD03B05DF804FB00100052004402584F
:1018B00010B5B6B004461422002103A82EF018F982
:1018C000B822002108A82EF013F92268234B9A426F
:1018D00042D100234FF4004208A8CDE908234FF07D
:1018E000805323930AF00EF808B1FFF73FFF1C4B1B
:1018F000002403A91B48D3F8EC2042F48072C3F8FB
:10190000EC20D3F8EC2002F480720192019AD3F813
:10191000E02042F02002C3F8E020C022D3F8E030FB
:1019200003F020030293029B0223CDE90544CDE995
:101930000323079307F0F6FB224605219F2006F0BC
:10194000A3FC9F2006F0D2FCA0202246052106F031
:101950009BFCA02006F0CAFC36B010BD00D40040AD
:1019600000440258001402582DE9F0418EB004469C
:101970001422002109A82EF0BBF822686A4B9A4273
:1019800040F0CE80694B022603250E27D3F8E420D1
:1019900009A96748002442F008024FF05808C3F82C
:1019A000E420D3F8E42002F008020192019AD3F86F
:1019B000E02042F00202C3F8E020D3F8E02002F079
:1019C00002020292029AD3F8E02042F00802C3F821
:1019D000E020D3F8E02002F008020392039AD3F843
:1019E000E02042F01002C3F8E020D3F8E02002F03B
:1019F00010020492049AD3F8E02042F00102C3F8E6
:101A0000E020D3F8E02002F001020592059AD3F815
:101A1000E02042F04002C3F8E020D3F8E02002F0DA
:101A200040020692069AD3F8E02042F08002C3F802
:101A3000E020D3F8E02002F080020792079AD3F862
:101A4000E02042F00402C3F8E020D3F8E03003F0D5
:101A500004030893089B40F20333CDE90C57CDE90A
:101A6000093607F05FFB492309A932480D97CDE9F4
:101A70000936CDE90B4507F055FB4BF6030309A9E1
:101A80002D480D97CDE90936CDE90B4507F04AFB06
:101A90004FF4807309A92948CDE909360D23CDE912
:101AA0000B450D9307F03EFB4FF4814309A92448F1
:101AB0000D97CDE90936CDE90B4507F033FB48F624
:101AC000087309A91F480D97CDE90936CDE90B45E3
:101AD00007F028FBC02309A91B480D97CDE909365B
:101AE000CDE90B4507F01EFB09A914480D97CDE978
:101AF0000986CDE90B4507F015FB102309A911480C
:101B0000CDE909360923CDE90B450D9307F00AFB12
:101B100040462246052106F0B7FB404606F0E6FBAC
:101B20000EB0BDE8F08100BF001000500044025824
:101B300000040258000C025800100258000002581D
:101B400000180258001C025800080258026808B524
:101B5000184B9A422CD1184A40F203311748D2F858
:101B6000E43023F00803C2F8E43007F0BDFB49215C
:101B7000134807F0B9FB4BF60301124807F0B4FB1A
:101B80004FF4AC71104807F0AFFB4FF481410F48A0
:101B900007F0AAFB48F618710D4807F0A5FB0D48A1
:101BA000C02107F0A1FB5820BDE8084006F0ACBBFF
:101BB00008BD00BF00100050004402580004025845
:101BC000000C025800100258000002580018025879
:101BD000001C0258000802582DE9F04391B0044659
:101BE000142200210BA82DF083FF2368884A93421A
:101BF00040F0B080874A13680133012B13600CD189
:101C0000854BD3F8D42042F40012C3F8D420D3F883
:101C1000D43003F400130093009B7F4B0225032470
:101C20000927D3F8D4200BA97C48002642F480422F
:101C30004FF00A084FF00409C3F8D420D3F8D42099
:101C400002F480420192019AD3F8E02042F040026F
:101C5000C3F8E020D3F8E02002F040020292029A9A
:101C6000D3F8E02042F00802C3F8E020D3F8E020E7
:101C700002F008020392039AD3F8E02042F0100227
:101C8000C3F8E020D3F8E02002F010020492049A96
:101C9000D3F8E02042F02002C3F8E020D3F8E0209F
:101CA00002F020020592059AD3F8E02042F00202E9
:101CB000C3F8E020D3F8E03003F002030693069B5C
:101CC0004FF40073CDE90B35CDE90E4707F02AFA42
:101CD000B0230BA95248CDF83C80CDE90B35CDE9B6
:101CE0000D6407F01FFA0BA94E480F97CDE90B952D
:101CF000CDE90D6407F016FA40230BA94748CDF84B
:101D00003C80CDE90B35CDE90D6407F00BFA4FF4BB
:101D100060530BA942480F97CDE90B35CDE90D640F
:101D200007F000FA4FF480630BA93F480F97CDE905
:101D30000B35CDE90D6407F0F5F90BA93B48CDF85B
:101D40003C80CDE90B95CDE90D6407F0EBF911B0BE
:101D5000BDE8F083364A9342F9D12E4A1368013325
:101D6000012B13600CD12C4BD3F8D42042F4001279
:101D7000C3F8D420D3F8D43003F400130793079B9F
:101D8000254B032402250926D3F8D4200BA9234888
:101D9000002742F40022C3F8D420D3F8D42002F460
:101DA00000220892089AD3F8E02042F04002C3F8DB
:101DB000E020D3F8E02002F040020992099AD3F81B
:101DC000E02042F02002C3F8E020D3F8E03003F036
:101DD00020030A930A9B40F60303CDE90E46CDE9A2
:101DE0000B3507F09FF94FF4A0530BA90B480F9444
:101DF000CDE90B35CDE90D7407F094F941F21F03DD
:101E00000BA909480F96CDE90B35CDE90D749CE778
:101E100000500052C04A00240044025800180258E2
:101E2000000C025800100258001402580004025816
:101E300000A00052274A08B5036893422AD1264BD6
:101E40001A68013A1A60254B2AB9D3F8D42022F433
:101E50000012C3F8D420D3F8D4204FF410712048D6
:101E600022F48042C3F8D42007F03EFA43F6B001D2
:101E70001C4807F039FA04211B4807F035FA4FF4E3
:101E800080611A4807F030FA04211948BDE808407B
:101E900007F02ABA174A93421AD10F4B1A68013A2F
:101EA0001A600E4B2AB9D3F8D42022F40012C3F8DA
:101EB000D420D3F8D42041F60341094822F400226B
:101EC000C3F8D42007F010FA41F21F010748DDE7FC
:101ED00008BD00BF00500052C04A00240044025810
:101EE00000180258000C0258001002580014025842
:101EF0000004025800A0005210B5AEB00446B8224B
:101F0000002168462DF0F4FD2268104B9A421AD148
:101F100000234FF480026846CDE900234FF480731C
:101F20002C9309F0EFFC08B1FFF720FC084A0320CE
:101F30000521136F43F400431367002206F0A4F950
:101F4000032006F0D3F92EB010BD00BF00400058AA
:101F5000004402581422002110B58AB004460DEB4B
:101F600002002DF0C5FD23682F4A93422ED12F4B3E
:101F70004FF480412E48D3F8F02042F00102C3F81C
:101F8000F020D3F8F02002F001020192019AD3F878
:101F9000E02042F01002C3F8E020D3F8E03003F074
:101FA00010030293029B0223CDE90513079301233B
:101FB00005A9099307F0B6F81B200022052106F0B9
:101FC00063F91B2006F092F90AB010BD194A93423A
:101FD000FAD1164B05A91848D3F8E82042F00402BC
:101FE000C3F8E820D3F8E82002F004020392039A31
:101FF000D3F8E02042F00802C3F8E0204FF400429A
:10200000D3F8E03003F008030493049B0223CDE9E6
:102010000523099307F086F81E200022052106F00B
:1020200033F91E20CEE700BF0000014000440258F3
:102030000010025800080040000C025810B5B6B05D
:1020400004461422002103A82DF052FDB8220021DD
:1020500008A82DF04DFD22681A4B9A4230D1022279
:10206000002308A8CDE9082309F04CFC08B1FFF7CC
:102070007DFB154B03A91548D3F8E82042F48022D4
:10208000C3F8E820D3F8E82002F480220192019AF4
:10209000D3F8E02042F00802C3F8E0204FF4407289
:1020A000D3F8E03003F008030293029B0223CDE94A
:1020B00003230023CDE905330723079307F032F804
:1020C00036B010BD0048004000440258000C0258D1
:1020D0000F2810B504468AB002D901200AB010BDFD
:1020E00001460022362006F0CFF8362006F0FEF832
:1020F000184B694602A81C60174BD3F8E82042F041
:102100001002C3F8E820D3F8E83003F0100301937D
:10211000019B09F0DDFA079BC3B909F053FA0F4C94
:102120000F4B236040F2E733E3600E4BB0FBF3F05C
:1021300001380023606020462361A3600AF0D0FFCD
:102140000028CAD120460AF063FEC7E709F03AFA30
:102150004000E4E79400002400440258C44A0024EC
:102160000010004040420F00034B1A68D36823F070
:102170000103D360704700BFC44A0024034B1A68B0
:10218000D36843F00103D360704700BFC44A002402
:102190007047FEE7FEE7FEE7FEE7704701480AF0FA
:1021A00016BE00BF14470024102007F047B90000F6
:1021B00001480AF077BE00BFC846002401480AF073
:1021C00071BE00BF7C46002401480AF06BBE00BF10
:1021D000C44A0024014807F037BE00BFF04700247E
:1021E000014806F08DB900BF48490024014806F0B7
:1021F00031BE00BFA8480024FFF7F8BF0120704798
:1022000008B52DF07FFD162303604FF0FF3008BDA9
:1022100008B52DF077FD16230360FEE770B50D4677
:1022200014460E46731B9C4201DC204670BDAFF382
:10223000008006F8010BF5E770B50D4614460E4612
:10224000731B9C4201DC204670BD16F8010BFEF7A3
:102250008FFCF5E74FF0FF3070474FF4005300203C
:102260004B60704701207047002070470B4A0346BF
:10227000116810B509B90A491160106809490A4C7A
:102280000344091B8B4206D92DF03CFD0C2303604F
:102290004FF0FF3010BD1360FCE700BF104B00246F
:1022A00040B20124000005240010000070B540F287
:1022B0001113284C00254FF40002274940F2FF106B
:1022C0000126A5600D60CE60C4E900354FF40023FF
:1022D000C4E903355223C4E9072340F2FF73C1E97F
:1022E00004031E48C4E90555C1E9016606F0BAFBBE
:1022F00033461B4A2146194806F06CFC3146174804
:1023000006F097FC2A463146144806F055FD2A4649
:102310004FF48021114806F04FFD104C4FF470210E
:102320000E4806F0DBFB31460C4806F0EBFB40F6AE
:102330005A420021204606F0F9FB0028F7D1074851
:1023400006F00CFC0028FAD10448BDE8704006F005
:1023500028BC00BF4C4B0024704B0024A84800242C
:1023600004000024234B002270B51A70CB070546E9
:102370003FD5214C4021214E23462148324606F0CC
:1023800069FC58B1FFF7F2F9002201211C4806F060
:1023900013FD70B3BDE87040FFF7E8B9284606F0BA
:1023A000F0FB326840F2FF139A42EDD16278237855
:1023B00002F00100134943EA0023C2F3400043EA5C
:1023C0004023C2F3800043EA8023C2F3C00043EA03
:1023D000C023C2F30010C2F3401243EA003343EAC1
:1023E00042330A8822F47F5222F03F0213430B80CB
:1023F000CAE770BD194B00241A4B0024244B00245B
:10240000A8480024144B002410B50A4C00224FF4B5
:102410008021094823780133237006F0CDFC08B1F0
:10242000FFF7A4F92378054A1E2B94BF002301234C
:10243000137010BD194B0024A8480024184B002429
:10244000014B1868704700BF144B00240549064B28
:102450000A7806481A704A78054B1A7000220AF06A
:10246000E0BB00BFB04B0024C64B0024144700243F
:10247000C54B002438B5074D0022074C07492846B4
:102480000AF0CFFB00222070284605490AF0ECFB39
:10249000207038BD14470024A84B0024B04B002402
:1024A000A94B002410B5084C0848627821782DF01B
:1024B000B7F92146002206480AF0FDFA0548BDE8B2
:1024C00010402DF015BA00BF944B0024100E0308E5
:1024D00014470024290E030810B5052824D8DFE886
:1024E00000F003171B2C2431224C23482DF000FA56
:1024F0002146002221480AF094FB2178204B627883
:102500001970204B20481A70BDE810402DF088B992
:10251000BDE81040FFF7C6BF1C4A13780133DBB299
:10252000022B08BF0023137010BD194B002219485D
:102530001A70BDE810402DF073B9154B01221648F2
:102540001A70F6E7114B1B784BB90A4A1821137819
:102550000133DBB2B3FBF1F001FB1033E3E7012BF6
:10256000E2D1044A53780133DBB23C2B08BF00238D
:102570005370D9E7944B00243E0E030814470024FF
:10258000C64B0024C54B0024540E0308C44B002442
:10259000904B00246E0E0308830E0308164B10B4F4
:1025A0001B787BB9154B182219780131C9B2B1FBE0
:1025B000F2F002FB10111248C9B219705DF8044B19
:1025C0002DF02EB9012B06D10C4A53780133DBB222
:1025D0003C2B03D053705DF8044B704713781820E0
:1025E000002101335170DBB2B3FBF0F400FB143374
:1025F00004481370E2E700BFC44B0024944B00244E
:10260000950E0308B10E030808B5074B1A78012A86
:1026100006D1FFF7C3FF0548BDE808402DF000B91B
:1026200000221A7008BD00BF904B0024CF0E030893
:102630001249134A0B780133DBB2042B0B7006D915
:1026400000230B7000230F4813702DF051B9013B8C
:10265000032BF7D8DFE803F002060A0E01230A482D
:102660001370F2E7022309481370EEE703230848CA
:102670001370EAE7042307481370E6E7C74B00240A
:10268000C84B0024EC0E0308020F0308160F0308C2
:102690002A0F0308410F0308014B1878704700BF49
:1026A000C84B0024054B64221B68534340F6FF725D
:1026B000B3FBF2F3024A1360704700BF184C0024CA
:1026C0001C4C0024014B00221A707047234C00243C
:1026D0002DE9F84F9B4C2578012D3ED0022D7FD05F
:1026E000002D68D1984E1E21984B32781B88984F48
:1026F000DFF884C227F812300132B2FBF1F001FB9F
:102700001020BCF8002030701344924E9BB23288E7
:10271000ACF80030013292B21D2A328083BF37F804
:1027200010004FF0010E8C4D294681BFB3FBF1F133
:102730001B1A85F800E0ACF800301D2A874B198081
:1027400039D901F0A9F9012835D1834B1B78012B28
:1027500031D10022328023702DE0814D7F4A2B88B9
:102760001288804F934236BFD21A9B1A93B24FF011
:10277000010228BF9BB23A7040F2323293421CD819
:102780006FF4CC710B44B3F5CD7F2CBF0223032330
:10279000754A764E1370337001F07EF901280AD124
:1027A0003B78012B07D13378714E9A1E012A06D847
:1027B000022222703370BDE8F88F0023E8E74FF45F
:1027C0008051002000F0DCFC00F09EFC002000F0B6
:1027D000CFFC2860FFF766FF022323700423E9E79C
:1027E000634F614E3A783378022ADFF87091DFF850
:1027F0007081DFF888A179D0032A51D0012A0FD146
:102800009AF80020DFF878B19A421EBF594B002297
:102810001A80BBF80030D8F80020B3F5967F25D990
:1028200033788AF80030494B1A88B8F80030A9F894
:1028300000209A428ABFD21A9B1A93B240F23232D7
:1028400098BF9BB2934278D86FF4CC721344B3F51F
:10285000CD7F74D203252B46444A337013703D70EC
:1028600001F01AF90228A6D1002374E7B9F8001084
:10287000914203D10023ABF80030D1E7013340F29D
:1028800011110220ABF8003000F07AFC00F03CFCA3
:10289000002000F06DFCC8F80000FFF703FFB8E768
:1028A0009AF80020DFF8DCB09A421EBF314B0022BC
:1028B0001A8040F6B832BBF80030D8F800109342C6
:1028C000AED8B9F800008842D4D001338821642002
:1028D000ABF8003000F054FC00F016FC002000F0D3
:1028E00047FCC8F80000FFF7DDFEE2E79AF8002099
:1028F000DFF894B09A421EBF1E4B00221A8042F2AB
:102900002832BBF80030D8F80010934288D8B9F8C4
:1029100000008842AED0013388214FF49670ABF8A6
:10292000003000F02DFC00F0EFFB002000F020FC58
:10293000C8F80000FFF7B6FEE1E701258BE70223A8
:102940008AE700BF234C0024C94B0024BC4A002462
:10295000DA4B0024D84B0024D54B0024204C002413
:10296000184C0024D44B0024CA4B0024CC4B002428
:10297000224C0024104D0024D64B0024CB4B0024C5
:10298000D24B0024D04B0024CE4B0024014B00221C
:102990001A607047284C002410B50A4CFFF750FD10
:1029A000206001F079F8C0B201280AD106492288D6
:1029B0000B88C2F30B0223F47F6323F00F0313434E
:1029C0000B8010BD244C0024284C0024014B1868B7
:1029D000704700BF284C00240123024A1370024AAA
:1029E00013707047614C0024604C002410B5002027
:1029F000002400F01FFC054A034605491060054A03
:102A00004C6010681360181A086010BD4C4C00240C
:102A1000404C0024484C002408B5FFF7E7FF0C4B5E
:102A20000C4A18600C4B1B68B0FBF3F00B4B1860A2
:102A30000B4B1B68434313600A4B1A6810440A4A45
:102A400018600A231060B0FBF3F0084B186008BD53
:102A50005C4C0024584C002410000024544C0024EA
:102A600014000024344C0024304C00243C4C00243E
:102A700008B5FFF7D1FF044B044A1B6812685343A3
:102A8000034A136008BD00BF504C00240C00002412
:102A90002C4C0024054B1B78012B01D1FFF7BCBF48
:102AA000022B01D1FFF7E4BF704700BF604C002448
:102AB000024B1A68024B1A80704700BF344C002446
:102AC0003A4C0024024B1A68024B1A80704700BF30
:102AD000344C0024384C002408B500F0DDFFC0B2AF
:102AE000022803D1054B00221A6008BDFFF7D2FF70
:102AF000FFF7DEFFBDE80840FFF7E4BF504C0024BD
:102B0000044B1B78012B03BF0370034B1868002094
:102B1000704700BF604C00243C4C0024104B11490E
:102B200010B41A78104C012A0878627013D1207002
:102B30000130087008780C2804BF0020087019784C
:102B40000A48013119702178094B5DF8044B53F89C
:102B500021102CF065BE1E2A04BF00201870E9E782
:102B600018000024684C00247E4C0024580F0308F1
:102B70001C00002408B5FFF7D1FF054B054A0A21C8
:102B80001B88A2F80130044A1170044A137008BD72
:102B90007E4C0024804C00247B4C00247A4C002482
:102BA0002DE9F0413F4D4048FFF7AAFF2860FFF7AD
:102BB000B5FF3E4B3E4C1B88DFF834812268296804
:102BC0003C48A8F801302CF02BFE2B6841F28731ED
:102BD0002268394F9A1A394E8A4240D90122384820
:102BE00023603A70374A13602CF082FE3B78ABB119
:102BF000344B2A681B68D31A632B0FD90023226039
:102C0000314A3B701370314B31481A78314B1A708E
:102C1000314B1A78314B1A702CF06AFE3378002B46
:102C20003ED02A4B2E491A782E4B1B789A4234BF3D
:102C30009B1AD31ADBB20F2B0B7031D10023224920
:102C4000294833700B70234B1A70234B1A78234B8F
:102C50001A702B682360BDE8F0412CF049BE98F84B
:102C600002301A4A98F8011013701B4A1170194A61
:102C700010789842144B0CD1DFF860C09CF800200B
:102C80008A4206D01A788CF8001001321A70154A60
:102C900010701B78062BA9D1012314483370A3E7C9
:102CA000BDE8F081644C0024744C00247E4C002468
:102CB000704C00246C0F03087C4C00247D4C0024D5
:102CC000960F03086C4C0024774C0024794C0024A8
:102CD000C80F03087B4C0024784C00247A4C002455
:102CE000754C0024764C0024EB0F0308B10F030849
:102CF000804C0024114B4FF47A721A604FF46162D9
:102D00000F4B1A6064220F4B1A6001220E4B1A609F
:102D100005220E4B1A603C220D4B1A70C8220D4B37
:102D20001A6032220C4B1A7010220C4B1A70282297
:102D30000B4B1A707D220B4B1A607047D44C002449
:102D4000D04C0024CC4C0024C84C0024C44C00249B
:102D5000C04C0024BC4C0024B14C0024B04C0024D6
:102D6000B84C0024B44C00240023034A1370034AD7
:102D70001370FFF7BFBF00BFD94C0024D84C00240C
:102D800010B50020002400F055FA054A0346054915
:102D90001060054A4C6010681360181A086010BD76
:102DA000A44C0024A84C0024A04C002408B5FFF734
:102DB000E7FF0F4B0F4A18600F4B10491B6809685B
:102DC000B0FBF3F313600E4A126853430D4A1360CD
:102DD0000D4A126853430D4A13600D4A12684A4364
:102DE0000C49B3FBF2F30A600B4A136008BD00BF45
:102DF000944C0024984C0024C84C0024D04C00244F
:102E0000CC4C00249C4C0024D44C0024904C002436
:102E1000C44C00248C4C0024884C002408B5FFF7D7
:102E2000C5FF064B064A1B7812685343054A1278C1
:102E3000B3FBF2F3044A136008BD00BFB04C00249A
:102E4000884C0024B14C0024844C0024034B1B7894
:102E50000BB9FFF7ABBFFFF7E1BF00BFD84C0024B1
:102E600008B500F019FEC0B2022805D10023044ABB
:102E70001360044A136008BDBDE80840FFF7E6BFD1
:102E8000884C0024844C002410B5044698B90B4BA0
:102E90004FF480610A481A68936943F00103936113
:102EA000012206F0BDFA074801224FF4004106F066
:102EB000B7FA204610BD6FF00100FBE7F047002491
:102EC000000C02580018025810B5044698B90B4B74
:102ED0004FF480611A68936923F0010393610246FD
:102EE000074806F09DFA074822464FF4004106F0D5
:102EF00097FA204610BD6FF00100FBE7F047002471
:102F0000000C02580018025808B50020FFF7DCFF3B
:102F10004FF47A7004F05AFB0020FFF7B5FF4FF42E
:102F20007A70BDE8084004F051BB0000064B1A68F7
:102F3000537843F0400353700122044B1A7000226F
:102F4000034B1A60704700BFDC4C0024DA4C0024AD
:102F5000F84C002410B50120002400F06BF90A4B56
:102F60000A4A186013680A49C31A10604C600B6063
:102F700008490B6008498B4236BF3C214FF0FF33B4
:102F80004B4306490B6010BDF04C0024F44C002468
:102F9000E84C0024E04C002444444404F84C002451
:102FA00008B500F079FDC0B2022803D1034B00221E
:102FB0001A6008BDBDE80840FFF7CCBFF84C0024FC
:102FC000454B2DE9F74F93F800C00025434B0120F6
:102FD000AB462F46B3F80080414B1988414B1A7815
:102FE000414BB3F800E02B461C46B0B90CB13C484D
:102FF000018015B13C49A1F800E0BBF1000F02D0FF
:10300000354981F800C00FB136490A7013B1374B0A
:10301000324A1A6003B0BDE8F08FFF2A14BF13468E
:103020006346022B019318D8581CC0B2C3005FFA44
:1030300080F91E462E4B33F830A0C2450DD8B9F1A9
:10304000030F2ED02B4B33F806A0C24526D80130F3
:103050005FFA80F9B9F1040FE8D1019B013BDBB2C3
:10306000022B06D8224800EBC300B0F80290C145FD
:1030700022D2FF2A4FF00103B8D071454FF0000073
:1030800035BFC9189B461346FF2339BF624689B234
:1030900000215F4694461A460123A5E7B9F1040FC3
:1030A000DBD0134B4A4603EBC903B3F804E0012419
:1030B000002125462746DCE73BB130F8069CC14598
:1030C00003D3013B0838DBB2CFE7094A02EBC30266
:1030D000B2F806E01A46EAE7084D0024B84A002490
:1030E000FC4C0024004D0024FE4C0024044D002420
:1030F0003A1003084210030810B9024B18787047C1
:10310000FF207047084D0024F0B51348134D018887
:103110002B88134C994207D1002323800022114BA6
:103120001860114B1A70F0BD104E228837889742F4
:1031300002D0531C9BB2F0E79942728806D85E1AFF
:10314000B24201DC9B1A99B22980E5E7CE1A964279
:10315000FADB1A4491B2F7E7204C0024124D002408
:10316000104D00240C4D0024094D0024144D002462
:1031700010B9024B1888704700207047124D002488
:10318000014B188059807047144D002438B54FF416
:103190008071144806F03EF920210546124806F0D9
:1031A00039F908214400114806F034F9104944EA7D
:1031B0008504104D0C2264B22B782043C85401338F
:1031C000FF20DBB22B70013A11F8014B12F0FF0225
:1031D00000EA0400F7D108490B2B087088BF2A7059
:1031E00038BD00BF001402580018025800100258E1
:1031F0001A4D0024194D0024184D0024014B187855
:10320000704700BF184D002408494FF6FF7231F88F
:103210001030934203F1010310B508BF044C21F8AC
:10322000103002BF225C0132225410BD2E4D00240A
:103230002C4D00240128064A08D8064B06491B5C81
:1032400031F81010C3EB03430B4413601068704750
:10325000284D00242C4D00242E4D00240368064ADE
:10326000934202D10020FFF7CFBF044A934201D11D
:103270000120F8E7704700BF00000140000800404F
:1032800008B50C2104480AF0DDF918B1BDE8084082
:10329000FEF76CBA08BD00BFC846002408B50C2173
:1032A00004480AF025F918B1BDE80840FEF75EBAF7
:1032B00008BD00BFC84600242DE9F84302260025BA
:1032C000DFF8E0803446334F013CE4B258F8243054
:1032D00003B11D78012D31D12F4A52F82430591CE9
:1032E00010D001332D4942F8243006226243881859
:1032F000B0F804C063450DD1294B53F824300BB10D
:10330000042098473D550124A64201D1BDE8F88329
:103310002646D9E74088834206D1214B53F8243012
:10332000002BEFD00220ECE78A5A9342EAD11C4BE3
:1033300053F82430002BE5D00020E2E7002DE1D146
:103340003B5DDFF85490012B11D11448062259F847
:10335000243002FB040251888B420CD392889342A2
:1033600009D20F4B53F824300BB1032098470023A8
:1033700049F82430C6E706226243825A9342F6D3C4
:103380008B42F4D2064B53F82430002BEFD00120AF
:10339000ECE700BF3C4D0024344D002464100308CA
:1033A0005C10030870100308014B1870704700BFD1
:1033B0004D000024014B1870704700BF4C000024E2
:1033C00010B50A4C00F08AFB207000F08FFB084B10
:1033D000084A1870B0FA80F023784009B3FA83F3F2
:1033E0005B091370044B187010BD00BF504D0024D2
:1033F0004F4D00244E4D00244D4D0024034B1B78AF
:10340000012B06BF024B1878FF2070474C4D00245B
:103410004D000024034B1B78012B06BF024B18788C
:10342000FF2070474C4D00244C00002408B5FFF7E6
:10343000E5FF0246FFF7EEFF012A07D111482CF005
:1034400057FA0220FFF748F8002008BD022A04D1ED
:103450000D482CF04DFA0120F4E7012804D10B4867
:103460002CF046FA0520EDE7032804D108482CF09B
:10347000D7F90420E6E70228E6D106482CF0D0F977
:103480000320DFE77810030890100308A710030853
:10349000C0100308DF1003082DE9F0414F4E504CD7
:1034A00032782378012A4F4D1DD1012B0CD1FF23F7
:1034B0004D48337023702CF01BFA32782B78022A97
:1034C00047D1012B45D109E02B7823B9FFF7B0F89C
:1034D00046482CF00DFA2B78012B01D1FFF7A6FFFF
:1034E000FF23337035E0012B1BD12B788BB9FFF70D
:1034F000D3F8032804D13E482CF0FAF9FF232370B7
:10350000FFF7CAF8042804D1FF233A4823702CF0AF
:10351000EFF92B78012BD0D1FFF788FFFF23237021
:10352000CBE7022A20D1022B1ED10020FEF7D4FFC8
:103530002B78002BC1D1FFF779FF2F482CF0D8F959
:1035400001232B7004F03CF82C4B1860FF233370E0
:10355000237022782B78022A27D1012B3CD1FFF748
:1035600065FFFF23237022E02B78012BA5D1244B8C
:103570001F78244B1B781F439FD104F021F8224B66
:10358000DFF88C8018601D4B1B68C01A43F6972328
:103590009842C8F8000090D91C482CF0A9F9FEF711
:1035A00081FF2F70C8F8007087E7032AD5D02B78E9
:1035B000012B11D133780BB123786BB9144B002256
:1035C0001A6003F0FDFF104B186003F0F9FF0B4B7E
:1035D0001860FF2333702370BDE8F0814D00002494
:1035E0004C0000244C4D0024FB1003087E100308FF
:1035F0002C1103084E11030870110308444D0024D8
:103600004E4D00244D4D0024404D0024A0110308D0
:10361000484D002438B50024044DE3B2013455F878
:10362000233003B938BD9847F7E700BFF811030806
:1036300038B50024044DE3B2013455F8233003B902
:1036400038BD9847F7E700BFF011030838B50024EC
:10365000044DE3B2013455F8233003B938BD98471F
:10366000F7E700BFE811030838B50024044DE3B2C2
:10367000013455F8233003B938BD9847F7E700BF48
:10368000E011030838B50024044DE3B2013455F8C5
:10369000233003B938BD9847F7E700BFD8110308B6
:1036A00038B50024044DE3B2013455F8233003B992
:1036B00038BD9847F7E700BFD011030838B500249C
:1036C000044DE3B2013455F8233003B938BD9847AF
:1036D000F7E700BFC811030808B50020FFF70CFD8D
:1036E000431E5842584108BD08B50020FFF704FDAD
:1036F000831E5842584108BD08B50020FFF7FCFC66
:10370000C31E5842584108BD08B50020FFF7F4FC1D
:10371000B0FA80F0400908BD38B500200024074DFC
:10372000FFF7EAFC014606482CF07AF8E3B20134D0
:1037300055F8233003B938BD9847F7E7001203085E
:10374000BB11030870477047704770477047704758
:103750007047704738B50024044DE3B2013455F882
:10376000233003B938BD9847F7E700BFA412030818
:1037700038B50024044DE3B2013455F8233003B9C1
:1037800038BD9847F7E700BF9C12030838B50024FE
:10379000044DE3B2013455F8233003B938BD9847DE
:1037A000F7E700BF9412030838B50024044DE3B2D4
:1037B000013455F8233003B938BD9847F7E700BF07
:1037C0008C12030838B50024044DE3B2013455F8D7
:1037D000233003B938BD9847F7E700BF84120308C8
:1037E00038B50024044DE3B2013455F8233003B951
:1037F00038BD9847F7E700BF7C12030838B50024AE
:10380000044DE3B2013455F8233003B938BD98476D
:10381000F7E700BF7412030808B500F03DF9431E36
:103820005842584108BD000008B500F035F902289B
:1038300005D1044B1888031F5842584108BD002089
:10384000FCE700BF4E00002408B500F025F902286F
:1038500006D1044B1888A0F108035842584108BD0E
:103860000020FCE74E00002408B500F015F90228FE
:1038700006D1044B1888A0F110035842584108BDE6
:103880000020FCE74E000024014B1888704700BF61
:103890004E000024102802D1034B188003E00828B2
:1038A000FAD00428F8D070474E000024704700007A
:1038B000042008B5FFF7EEFF0248BDE808402CF0F1
:1038C00017B800BF0C13030808B50D4809F046FAF5
:1038D000002249F640410A4809F0E4F908B1FDF731
:1038E00045FFFEF741FC07F0C3F9064806F078FAF9
:1038F0000121084607F096F9014809F02FFAFEE782
:1039000014470024F047002408B5FFF7BDFF042842
:10391000094A08D1138841F6641101339BB28B42E6
:1039200003D0138008BD0023FBE700231020138081
:10393000BDE80840FFF7AEBF524D00247047704706
:103940000820FFF7A7BF000008B5134BD3F8D0201D
:10395000D1001BD4D3F8D020520117D40F4A526A99
:10396000D00705D50E48082105F05FFD062008BDEB
:10397000D3F8D02091020BD4D3F8D020520209D42E
:10398000D3F8D000C0F3C0508000F0E70320EEE78A
:103990000120ECE70520EAE70044025800480258FD
:1039A0000008025810B5FFF7CFFF044606281BD8C1
:1039B000DFE800F004121A10141618000B482BF060
:1039C00097FF0B4A2046D2F8D03043F48033C2F838
:1039D000D03010BD0748F2E70748F0E70748EEE7A8
:1039E0000748ECE70748EAE70748E8E72113030838
:1039F00000440258361303084E1303086D130308DE
:103A00009F130308B8130308DB13030838B5002419
:103A1000044DE3B2013455F8233003B938BD98475B
:103A2000F7E700BF0814030838B50024044DE3B2DB
:103A3000013455F8233003B938BD9847F7E700BF84
:103A40000014030838B50024044DE3B2013455F8DE
:103A5000233003B938BD9847F7E700BFF8130308D0
:103A600038B50024044DE3B2013455F8233003B9CE
:103A700038BD9847F7E700BFF013030808B5FFF714
:103A8000BDFB6FEA900000F0010008BD08B5FFF72C
:103A9000B5FBC0F3800008BD002000F02FB8000087
:103AA00008B503482BF024FFBDE80840FFF7F6BB3C
:103AB0004C14030808B503482BF01AFFBDE8084072
:103AC000FFF7DEBB701403087047704708B5FFF7B7
:103AD00095FB014B187008BD544D0024024B18781B
:103AE00000F00100704700BF544D0024024B1878CD
:103AF000C0F34000704700BF544D0024014B33F821
:103B000010007047564D0024034B01221A800222F8
:103B10005A8004229A807047564D00242DE9F84FB0
:103B2000184E0025DFF860804FF00C0958F835700A
:103B300036F802BB0FB34FF0000A05E0A368E3B10B
:103B400098471AE00AF1010A5FFA8AF309FB03F3C6
:103B5000FC18FB5A8BB113EA0B0FF3D063885B455B
:103B6000ECD06368002BEDD098470028EAD0A3681A
:103B700003B19847638826F8023C0135032DD5D15F
:103B8000BDE8F88F564D00249C14030870470000D0
:103B9000DFF834D003F084FC002103E00B4B5B58CA
:103BA000435004310A480B4B42189A42F6D30A4A52
:103BB00002E0002342F8043B084B9A42F9D32CF070
:103BC000A7F8FDF76BF87047000005248C62030826
:103BD000000000245C0100246001002440B20124A4
:103BE000FEE7704708B501F0F7F8BDE8084001F0BE
:103BF0007BB801F0F3B8406870474160704700003F
:103C00004FF0E022D2F8FC3D43F08073C2F8FC3D57
:103C1000054B064AD3F8B01F0A43C3F8B02F1A6801
:103C200042F001021A607047001000E055CEACC5AA
:103C3000521A02EB5302B2FBF3F07047014B586883
:103C4000704700BF001000E0704710B504460C211B
:103C50002BF0ABF8204610BD036810B51B69044675
:103C600031B19847A26863689B1A0344636010BD32
:103C70009847A060FBE770471FB5082300206946FE
:103C8000CDE90230054B1B880093054B1B8801933F
:103C900003F024FB05B05DF804FB00BF22A601245D
:103CA00024A6012410B5044604212BF07EF82046FA
:103CB00010BD30B585B000200D46144601A9039013
:103CC000CDE9010003F08CFB40B14FF0500383F3CA
:103CD0001188BFF36F8FBFF34F8FFEE7019820B1BC
:103CE000029B01202B60039B236005B030BD0000C8
:103CF000032825D8DFE800F0020B131C114B01212B
:103D000011481A68B2FA82F2520905F089BB0D4BCC
:103D100008210E485A68B2FA82F25209F5E7094BB7
:103D20004FF480419A68B2FA82F252090848ECE7EF
:103D3000044B4FF40041DA68B2FA82F25209F5E717
:103D4000704700BF5C4D0024000002580018025864
:103D500000040258032825D8DFE800F0020B131CEA
:103D6000114B012111481A68003A18BF012205F0D1
:103D700057BB0D4B08210E485A68003A18BF012264
:103D8000F5E7094B4FF480419A68003A18BF0122C9
:103D90000848ECE7044B4FF40041DA68003A18BFDA
:103DA0000122F5E7704700BF5C4D00240000025877
:103DB0000018025800040258032811D8DFE800F068
:103DC0000206090D0121074805F02FBB082106480E
:103DD000FAE74FF480410548F6E74FF40041FAE76F
:103DE000704700BF00000258001802580004025833
:103DF00008B5032815D8DFE800F0020A0D110121EB
:103E0000094805F007FB431E5842584108BD0821E8
:103E10000648F6E74FF480410548F2E74FF40041C9
:103E2000FAE70020EFE700BF000002580018025830
:103E30000004025870B5084D00240126E0B2FFF7D7
:103E4000D7FF18B12B68012B18BF2E600134043541
:103E5000052CF3D170BD00BF5C4D0024012380F818
:103E6000781080F87930704700207047416400393D
:103E7000024B18BF01211970704700BF27A601240B
:103E800000207047836B0BB10846184770474FF608
:103E9000FF707047406803689B69184770470000CF
:103EA00038B5044601F0C6F80749236804F17C05DB
:103EB0002046D3F88C3098472846FFF7A1FE01230F
:103EC000256184F8703038BD0000007008B50368C3
:103ED0000446D3F880309847236820469B6F984764
:103EE00000F02CF9236820461B6F984701224FF4FD
:103EF0008061084805F094FA01224FF40041064819
:103F000005F08EFA00F01AF9236820461B6F9847D7
:103F1000F8E700BF000C02580018025810B504461C
:103F20001AF0B6FA23682046D3F8AC30BDE810404A
:103F3000184701F04BB801F04FB8000070B501F020
:103F4000A3F810490023C1F88430BFF34F8FD1F894
:103F5000803043F6E074C3F3C900C3F34E335B0112
:103F600003EA0406024646EA8275013AC1F8745231
:103F7000F9D2203B13F1200FF2D1BFF34F8FBFF3E3
:103F80006F8F70BD00ED00E000F0FCBF01F0E6B9FE
:103F900001F0EEB901F000B819F0E6BC10B5044626
:103FA00088212AF002FF204610BD000090F834104E
:103FB0000D4B10B590F878401A788C4209D03AB978
:103FC0000A490B4A08881488108001220C801A7054
:103FD00010BD002AFCD0064A0449148808880C80C9
:103FE00010800022F3E700BF20A601241EA60124B2
:103FF0001CA6012470B50D46194635B9094B40F28F
:10400000D221094A09482BF047FAC0E90F52003A79
:10401000074B18BF01221A700368BDE87040D3F83F
:104020008C301847F0140308281503087615030888
:1040300026A6012408B5094B1B888B4203D8084BE0
:104040001B88934205D9074B9E21074A07482BF04E
:1040500023FA074B1980074B1A8008BD1CA60124C0
:104060001EA60124BB1503081E16030876150308B7
:1040700022A6012424A60124034690F87A0018B150
:10408000586803681B68184770470000014608B568
:10409000034B186801B101211AF014FA012008BD80
:1040A00028A601240121002208B508460AF046F896
:1040B0000A4B186028B90A4B28210A4A0A482BF0F3
:1040C000EBF90022042101200AF0D7F8074B186011
:1040D00018B9074B2C21034AF0E708BD704D0024A6
:1040E0003C17030885170308B41703086C4D002418
:1040F00019180308024B4FF0FF3118680AF068B82E
:10410000704D0024014B18680AF08EB8704D0024E1
:10411000024B002118680AF05BB800BF704D002404
:10412000FFF7F0BF0023034803491A4600680AF06E
:10413000DFB800BF6C4D00245000002413B50023ED
:10414000074C01A91A4620680AF003F94FF0FF3323
:10415000002201A920680AF0FCF802B010BD00BFDF
:104160006C4D002403685B6C18470120704703689E
:104170009B6A184740F2EF3070470000054B4FF044
:1041800080620360044BC3F88820BFF34F8FBFF3F6
:104190006F8F7047D019030800E100E010B50446A6
:1041A0004FF45A61FFF7EAFF20462AF0FEFD204651
:1041B00010BD00000F4B82B0D3F8D42042F01002A3
:1041C000C3F8D420D3F8D42002F010020192019A4F
:1041D000DA6F42F01002DA67DA6F22F01002DA6763
:1041E000054B064A1A62064B4FF080629A6002B095
:1041F000704700BF00440258484900244944000861
:1042000000E100E008B50A2809D8DFE800F0061050
:104210000E080808081010101000022008BD054BF9
:104220008621054A05482BF037F90020F6E70120E2
:10423000F4E700BF5B18030876180308C1180308E9
:1042400038B50C46887FFFF7DDFF124BA58AE28A5E
:10425000586342EA054221695A64628BD963521B52
:104260001A642568082D0ED19A611A6158620A4AAB
:10427000207F42EA0062DA61E2681A62074A596105
:10428000D9601A6038BD0022D8611A61E2689A6369
:10429000034AF6E700100052090001000102020083
:1042A0000102030008B50B280BD8DFE800F0061266
:1042B000100A0A0A0A0808080808022008BD052092
:1042C000FCE7054B6521054A05482BF0E5F8002081
:1042D000F4E70120F2E700BF5B1803082419030884
:1042E000C11803082DE9F8434F7F89463846FFF788
:1042F000D9FF99F81E5080462846FFF7D3FF06469F
:104300002846FFF77FFFB9F81410B9F81A40B9F83A
:104310001820454B641A521A1C649C611A61B9F842
:104320001620586342EA0142D9F810105A64D9F8AD
:104330000420D963DA60D9F8004099F81C20802C59
:1043400022D00FD8202C66D0402C64D0042C5CD016
:1043500048EA0260344BAF4240F40030D86160D08C
:10436000324A3FE0B4F5807F04D0B4F5007FEFD14E
:104370002F4800E02F4840EA0262DA61D9F80C20A9
:104380001A625E6259612CE048EA0260D9F808407E
:1043900040F40030D8615E625961211DD9622178F4
:1043A00041B1012921D0244B4FF48071234A244884
:1043B0002BF072F8DA69618822F47F42013922F029
:1043C000100242EA0122DA610122174BD96941F059
:1043D0002001D961D9698906FCD410219960002A8D
:1043E000BED0184A1A60BDE8F883D969FF3A6088E0
:1043F00021F47F4118BF0122013821F0100141EA68
:10440000002141F01001D961DFE748EA026242F47D
:104410000032DA61B5E748EA0262034B42F4003247
:10442000F7E740F20122DDE700100052010201002F
:10443000090002000A0002006E1903088819030827
:10444000C118030801020200024B1B685868036888
:104450005B69184728A6012470B504460A4B0C3046
:1044600000262546602260602672667245F8203B71
:1044700029461AF07DF904F55A63EE6024359D4211
:10448000FBD1204670BD00BFD0190308034B1A684A
:10449000D207FCD423229A60704700BF001000525C
:1044A00030B5104C2568ED07FCD423250904FF2BFB
:1044B000A5604FF0010541EA050165636164E063B1
:1044C0000CD0094922F07F42656241EA0363E3614F
:1044D000064B22626061E060236030BDE561044B01
:1044E000A263F9E700100052090001000100020078
:1044F000010003004069704790F844007047036B67
:1045000023B9C06A003818BF0120704701207047E6
:1045100080687047043010B50C460FC884E80F005F
:1045200010BD704708B5034A40F21221024B034800
:104530002AF0B2FF181A0308BB340308731A0308E1
:1045400010B5044648212AF030FC204610BD2DE964
:10455000F0411E46ADF51E7D436B07460C46904666
:10456000A69D93B3002203A8CDE9013211F048FFC4
:104570004FF4F4725021249024A80BF00EFF424611
:10458000214624A80CF062FE012124A80CF000F8BA
:10459000022324A88DF8D8300CF09BF8419BBDF87D
:1045A0009482BDF89022984528BF98462B9B9A424A
:1045B00028BF1A4602EB4204479B984509D824A815
:1045C0000CF008F824A80BF035FF0DF51E7DBDE8B2
:1045D000F081012201A924A80CF0C4F8304622463B
:1045E000796B2E442BF0BBFBE6E700000A4A026021
:1045F0000022C0E90522C0E90722C0E90922C0E97A
:104600000B22C0E90D12C0E90F2280F84420C0E956
:104610000322C0E9012270476C1D030810B40C4648
:1046200011461A46036B3BB1036C806BE41A2044BD
:104630005DF8044B2BF064BAC06AF8E7036B10B561
:1046400073B1036C826BC91A5318525C98785C780A
:104650000004DB7840EA0420104340EA036010BD08
:10466000C36A5858FBE7036B43B1036CC91A836BE9
:104670005A18585C527840EA02207047C36A585A68
:104680007047000070B50446006B0D461646D8B161
:10469000E36B934208D209230D4A65210D4884F843
:1046A00044300D4B2AF0F8FE0368DB689847206B16
:1046B0003246A16B03681B69984710B90D2384F833
:1046C0004430A06B256470BDE06A0844FBE700BF7E
:1046D000F51A0308731A0308E21A03082DE9F843D0
:1046E000436904462BB9234BAA21234A23482AF0C5
:1046F000D3FE08228169FFF7C5FFA16943F23006A6
:1047000046F2643704312046FFF798FFA369184446
:10471000A36A00F108029A4206D3012300206361D4
:10472000236AA361BDE8F883636909300822013375
:1047300020F0010120466361A161FFF7A3FFD4F8D7
:10474000189020464946FFF78EFF09F10201804686
:104750002046FFF788FF09F1040105462046FFF7D0
:104760006DFFB045D2D1BD42D0D10028CED00120BE
:10477000D8E700BF371B0308801B0308731A030820
:104780002DE9F04F0546ADF51F7D8B4690468169BA
:1047900008221F46FFF776FFAE692846311DFFF756
:1047A0004DFF06F10801024604462846FFF76AFF5E
:1047B0006B6B064633B9344B40F2AB11334A344885
:1047C0002AF06AFE002203A8CDE9013211F018FE9A
:1047D0004FF4F4725021249024A80BF0DEFD224601
:1047E000314624A80CF032FD012124A80BF0D0FEA4
:1047F000022324A88DF8D8300BF06BFFBBF902A080
:10480000479B53452DD3BBF8063007EB4707BBF852
:104810000260BBF900401E44BBF80420419B04EB3E
:10482000440936B2224407FB0A9A9E4212B2D0448F
:1048300028BF1E462B9B9A4294BFC4EB0204C4EBD4
:10484000030404EB4404479BB34210D324A80BF0A9
:10485000C1FE24A80BF0EEFD01200DF51F7DBDE883
:10486000F08F012201A924A80BF07CFFC8E70122E8
:1048700001A924A80BF076FF696B40462246494403
:10488000B8442BF06CFADEE7B31B0308091C0308DD
:10489000731A03080129036838BF0121DB6A70B568
:1048A0000D4604469847A84204D223682046DB6A96
:1048B000984705466B1EE6691022204606EB031654
:1048C00006F10801FFF7DEFE06F110012046FFF7B2
:1048D000B5FE236A043B0344C4E9055370BD0000E0
:1048E000002148222DE9F0410446816180F84410FE
:1048F000FFF7C8FEA6690423624A31462046FFF747
:104900008DFE40B10323604AF22184F844305F4BAE
:104910005F482AF0C1FD06F1080104235D4A2046E4
:10492000A161FFF77BFE30B10423574AFA2184F8D6
:104930004430594BECE706F10C010423574A20465A
:10494000A161FFF76BFE074638B105234E4A40F2DE
:10495000011184F84430524BDAE706F11001204689
:10496000FFF76CFE054620B94E4B40F20711464A50
:10497000CEE706F1140804234B4A20464146FFF7D0
:104980004DFE002849D0062384F844300423474ACA
:1049900006F118012046FFF741FE00283FD007230B
:1049A00084F844304544424F0C2220462946FFF704
:1049B00069FE05F1080604233A4620463146FFF712
:1049C0002DFE94F84430002848D0002B48D1A36A2B
:1049D000AB4249D805F10C0304352046A3612946B2
:1049E000FFF72CFE3044294660622046FFF726FE82
:1049F0000644042220463146FFF744FE04232D4A94
:104A000031462046FFF70AFE002838D10123E6612F
:104A10006361A3692362BDE8F0810127B6E7002F37
:104A2000C0D006F120012046FFF708FE4FF47A734C
:104A300006F13001B0FBF3F060602046FFF7FEFDA9
:104A400006F14001A0602046FFF7F8FD06F14401A1
:104A5000E0602046FFF7F2FD2061A3E7002BB9D00C
:104A60000A2384F84430D6E7291D2046FFF7E6FDE7
:104A700085190C2220462946FFF704FE99E70B23EF
:104A8000EFE700BF631C0308811C0308681C0308D0
:104A9000731A0308AE1C0308B31C0308CB1C0308DD
:104AA000D01C0308E61C0308F21C0308F71C0308CB
:104AB000FC1C0308011D0308C0E90A21002202634F
:104AC000FFF70EBF10B5002304460846E3620B68EB
:104AD00021639B689847A0622046BDE81040FFF71D
:104AE000FFBEF0B4069FBDF81050BDF8146032B19F
:104AF0002BB10495CDE90567F0BCFFF728BDF0BCEC
:104B0000704700002DE9F04F9946436985B004468F
:104B10000F4690462BB9294B7721294A29482AF07C
:104B2000BBFC08228169FFF7ADFDA669204631462E
:104B3000FFF799FDB11C83462046FFF794FD311D18
:104B400082462046FFF77AFD06F10801A36A054672
:104B500042189A4226D243F230039B4517D146F2BF
:104B600064339A4513D190B10246A1612046FFF704
:104B700089FD0E9B01462A462046CDF80080CDE9EE
:104B800001933B46FFF7ADFF636901336361A3699E
:104B90002B4405B908330133626A23F001039342C1
:104BA000A36109D1012301206361236AA36180F01D
:104BB000010005B0BDE8F08F0020F8E7371B0308BF
:104BC000061D0308731A0308012070470C20704764
:104BD0000C2303FB0100083070470C2303FB01008A
:104BE0000830704701207047C4207047C42303FB7E
:104BF000010008307047C42303FB010008307047F0
:104C0000012070471020704700EB011008307047FA
:104C100000EB011008307047084600F0DBBE0000D2
:104C2000034B10B50446036018F0F4FB204610BD9A
:104C3000141E030810B50446FFF7F2FF14212046A6
:104C40002AF0B3F8204610BD034B10B504460360AC
:104C500018F0E0FB204610BDE01D030810B5044627
:104C6000FFF7F2FFCC2120462AF09FF8204610BD26
:104C7000034B10B50446036018F0CCFB204610BD72
:104C8000AC1D030810B50446FFF7F2FF18212046BB
:104C90002AF08BF8204610BD084B10B5044640F8AA
:104CA000F83BFFF7BDFF04F12C00FFF7CDFF04F147
:104CB0001400FFF7DDFF204610BD00BF481E0308AB
:104CC00008B50248FFF7E8FF08BD00BF2C5C0024D0
:104CD00010B50446FFF7E0FF4FF41C7120462AF0A0
:104CE00064F8204610BD00002DE9F34100F0FAFC05
:104CF0000024054600F0FAFC2346014622462846D9
:104D0000009420F095F8274B274A2046274D1A603B
:104D100001F090F8264B274A27489A601FF040FF81
:104D20002B68BFF35B8FDB0735D428462AF03FF8AA
:104D300088B3224C224B04F58A7604F1140004F166
:104D40002C0804F1F80723606060C4F80880E7606D
:104D5000266118F061FB1B4B4046636118F05CFB59
:104D6000194B3846E36218F057FB184B04F5867070
:104D7000C4F8F83001F0D4F8224604F586713046C4
:104D800001F0C4F8304600F025FE11482AF0A2FBDD
:104D900028462AF018F80F4802B0BDE8F041FFF7A6
:104DA0007FB800BF8CA60124FC4D0024285C0024A1
:104DB0001C4E0024004E0024540000242C5C0024CF
:104DC000481E0308AC1D0308E01D0308141E030859
:104DD000C14C0008744D0024704700000148FFF7E3
:104DE00075B800BF744D002470B5274E274B284C72
:104DF0003046284D2360FFF72FFB284623F0C6F8E6
:104E000025481EF003F9254B00224FF480712448F9
:104E10001A8683F858205A6683F87020DC60C3E94C
:104E200012122049C3E91A121F490B604FF4F071A6
:104E300001801E4801804FF488711D4801801D4883
:104E400001801D49C3E90422C3E90622C3E90822FF
:104E5000C3E90A22C3E90E22C3E91022C3E91422DE
:104E6000C3E91722C3E901650A701449C3F8802019
:104E700083F8342019605A671149C3F88420114A15
:104E80009967DA6770BD00BF844E0024E014030800
:104E9000245C00241C4E0024004E0024744D002489
:104EA0001CA601240100000128A6012422A6012439
:104EB0001EA6012424A6012420A601246C160308A2
:104EC00000000101B81403080148FFF757B900BFFB
:104ED000844E00240020704781807047C180704755
:104EE0000181704741817047704770477047704734
:104EF000704710B4C4880368121B84885B6D091B5B
:104F000012B25DF8044B09B218474FF6FF73838164
:104F10004FF0FF3303621368C361106070470020D5
:104F200070478B88838001207047704780F8261077
:104F3000704790F826007047002210B5B1F908407C
:104F4000B1F90A10028042808480C18010BD002225
:104F5000028042808280C28070470177704780ED76
:104F6000080A704780F82410704780F825107047B1
:104F700001207047983070478C30704784307047FC
:104F800070470000034B902283F85A2383F858237C
:104F9000704700BF00E100E0094A0A49D3680A48A7
:104FA000C3F30A03013B9BB20B801169C1F30A01F1
:104FB000013901801364536B43F00103536370475D
:104FC000001000509E5E00249C5E0024014BD3F82C
:104FD000AC00704700100050024B0122C3F8AC1027
:104FE0005A627047001000500163C0E90D217047FC
:104FF00070477047704700EB8100114640680368B6
:10500000DB68184780F83C10704710B5044648210B
:1050100029F0CBFE204610BD10B504462C2129F006
:10502000C4FE204610BD10B50446BC2129F0BDFECB
:10503000204610BD38B5044618F0EBFC23685D6EC1
:105040001CF0B6FE01462046A8472368074A2046C2
:10505000D3F8885000230649A847064B064A5A60F1
:10506000064A1A639A63064A5A6338BD00F40B7005
:1050700000FA0570605F0024A85F002400EE117044
:1050800000FA050018F0ACBC18F074BC18F0D5BDDF
:1050900038B504460D46406C4FF0FF3109F00CF86E
:1050A000606C09F02CF8242303FB0545002385F8E8
:1050B000283094F828300BB9236BA36338BD90F8DF
:1050C000252012B103685B6918477047124A53697B
:1050D000DB0370B51ED50023C2F88430BFF34F8FB9
:1050E000D2F8803043F6E074C3F3C900C3F34E3303
:1050F0005B0103EA0406014646EA81750139C2F8FC
:105100007452F9D2203B13F1200FF2D1BFF34F8F2D
:10511000BFF36F8F70BD00BF00ED00E008B531B187
:10512000044B4FF4B871044A04482AF0B5F990F8DA
:10513000290008BD541E0308681E0308F21F030857
:1051400010B531B1064B4FF4B571064A06482AF046
:10515000A3F9406811460368BDE810401B6B18476F
:10516000541E030835200308F21F030808B529B1AF
:10517000034B7921034A04482AF08EF9C06808BD20
:10518000541E0308E3210308F21F030810B5044668
:1051900029B1194BA221194A19482AF07DF9052A8B
:1051A00015D8DFE802F0031115171C2240680368C8
:1051B0001B69984758B1012384F8293084F82C30B2
:1051C0000023C4E9043302E0002380F8293010BD35
:1051D0000362F5E70362012380F82A30F0E7002339
:1051E00080F8293001230362F1E7003B18BF012357
:1051F00080F82D30EBE700BF541E03089823030806
:10520000F21F030810B50C4611461A462CB1064B86
:105210009021064A06482AF03FF9C46040680368B6
:10522000BDE810409B681847541E03086C2503080E
:10523000F21F030808B529B1054B8221054A06482B
:105240002AF02AF9C0E90411C0E9063208BD00BFFE
:10525000541E030847270308F21F030890F83D3047
:1052600010B5044653B14FF0FF31406C08F024FFF5
:10527000002384F83D30012384F83E3010BD90F8BF
:1052800025201AB190F8242002B118607047000060
:1052900010B50446104629B1134BD021134A1448C7
:1052A0002AF0FAF894F8293033B1124B1B6893F8BE
:1052B0006B2063691344636194F82B300BB90120B0
:1052C00010BDA368036303685B699847002394F8E3
:1052D0002C0084F82B300028F1D194F82D30002BCD
:1052E000EED184F82900EBE7541E030803290308D4
:1052F000F21F030828A6012410B5174C18F07CFBF8
:1053000094F8293013B994F82A30ABB1E169D4E9A3
:105310000532534322694A4393420DD394F83C002B
:1053200038B19B1AB3FBF1F2994298BF02F1FF32F8
:105330006262012384F82E300123206C84F83D3012
:1053400008F072FF94F83E302BB1606C08F0D7FE85
:10535000002384F83E3010BD605F0024034B4FF003
:1053600080629A604FF080729A60704700E100E0BE
:10537000084B4FF08062C3F88820BFF34F8FBFF314
:105380006F8F4FF08072C3F88820BFF34F8FBFF349
:105390006F8F704700E100E0F8B5034690F82800F1
:1053A000D8B94FF480729E6B0125D8609A8506F5B6
:1053B000BF22186102F5007258619861D8611862C5
:1053C00058629D6283F82E00D3E90C473C44A24208
:1053D0000AD90B4B52210B4A03E00B4B40F2C5118B
:1053E0000A4A0B482AF058F89E609A634FF4F0730B
:1053F00081F83450CB864FF4887308630B87F8BD6F
:105400005B2C0308962C0308A42A0308D42A03085B
:10541000F21F0308002370B5124E04468380124B1E
:105420000360336893F858200AB1D86C00B99868C3
:105430000368DB6A9847431E5D425D413368D86C60
:1054400030B10368DB6A9847012808BF45F00105C1
:105450002DB9064B2721064A06482AF01DF820469A
:1054600070BD00BF28A601243C2F0308392E030875
:10547000972E0308D02E030870B5244E3568BFF36D
:105480005B8F15F001053FD1304629F090FC0028D4
:105490003AD01F4C1F4B04F134002561E584A5620E
:1054A000A585C4E90035C4E902551EF00EF804F1E3
:1054B00058001AF0E3FC184B2046A365174B40F840
:1054C000843BFFF7A7FF164B1648C4F884302433FB
:1054D000C4F89050C4F88C306423C4F89C50C4F8CD
:1054E000A850C4E928350023C4F8AC30C4F8B03063
:1054F000C4F8B430C4F8B8300B4BC4F8983029F075
:10550000E9FF304629F05FFC014870BDA05E002431
:10551000A45E00242C5903085C2F0308D42F030831
:1055200078590308814F0008B059030810B5144C8E
:10553000236823B3134B144A1B6C11888B4213D17D
:10554000124B198804F00AFD226892F86A30013380
:1055500082F86A30FEF7E6FD206818F099FF002017
:10556000BDE81040FEF7C4BB04F0F8FC20680368F7
:105570001B6A98470020BDE81040FEF7EBBB10BD4A
:1055800028A60124001000509E5E00249C5E00248A
:105590002DE9F743044601264FF4B4674FF0FF317D
:1055A000206C08F015FE4FF0FF31606C08F084FDB0
:1055B00094F82E3043B36568D4F820802B6884F8C3
:1055C0002B60B8F1000F23D05B6A4146284698470C
:1055D000002323622B684FF4F07200972846D3F81B
:1055E00014804FF48873A168C047236984F82C00A5
:1055F00001332361F0B12B6828469B6A9847013834
:105600000023E06084F82E30606C08F078FDC5E778
:10561000626A002ADED02846D3E909939847616A76
:1056200001442846C8472369626AC4F824801344A9
:105630002361CFE70120E3E7014808B5FFF7A8FFA2
:10564000605F002438B5154900251548FEF7CEFFE8
:10565000144C154B2A462946012023604FF48073D1
:10566000A563A387A38584F83E5084F82E50C4E92F
:105670000C55C4E91055C4E90155C4E90355C4E902
:105680000555C4E90755C4E9095508F057FD2064DC
:10569000284608F0DCFC606438BD00BFF05F0024E1
:1056A000A85F0024605F002420300308704710B515
:1056B0000446042129F079FB204610BD012908B5D4
:1056C00006D0022908D059B900F0F2FB006808BDE5
:1056D00000F0EEFB4068FAE700F0EAFB8068F6E7CE
:1056E0000020F4E70048704770300308022070473C
:1056F00013B5002451B1036801AA01948DF8034049
:105700009C680DF10303A04702B010BD0846FBE7FB
:10571000C0897047008A7047C0887047808870478A
:10572000807A00F07F007047807AC00970470020BF
:10573000704700009FED010A704700BF00000000A5
:105740007047704700F598730868496803C370474D
:10575000704770474160704770470000064BC0F8C3
:105760004801C0F84C310023C0F8503100F5A27355
:10577000C0F84031704700BF1D5800080123037274
:1057800070477047704710B441680346C2689B6811
:10579000541001EB6200D20748BF0A595DF8044B70
:1057A00048BFD35818470346406830B19A681AB9C1
:1057B000D86800F0010070470120704710B504461A
:1057C0000C2129F0F2FA204610BD10B50446102134
:1057D00029F0EBFA204610BD10B504464FF4AE7127
:1057E00029F0E3FA204610BD10B51CF0E1FA036879
:1057F000BDE81040DB6B184710B50446D0F84001F7
:1058000058B10368DB68984738B1D4F840010368A1
:105810009B6898470023C4F8403110BD2DE9F14F33
:10582000D0E9556A0746B06803681B6A9847C328E1
:1058300005D8444BA321444A444829F02DFE706802
:1058400003681B6A98470F2803D8414BA4213E4A9E
:10585000F2E7F06803681B6A98470B2803D83D4BB2
:10586000A521394AE8E7DFF8F4901CF0A1FA0430EA
:105870001CF0C3FAD9F8000010B10368DB68984740
:10588000D9F8000010B103681B689847DFF8D08092
:10589000D8F8000010B103685B699847D7F83C015D
:1058A00010B103685B689847D8F8000010B103682E
:1058B0001B689847D7F83C0110B103689B6898476C
:1058C000F06800214FF0000B03685B6A9847224B99
:1058D0000446C0F804B080F808B059460360B068C8
:1058E00003685B6A9847054600F068FB7068594694
:1058F00003685B6A98470646294600F03FFB331D64
:10590000C7F83C612846C9F80040C8F80050CAF8FA
:1059100000302B68C6F808A0DB68EE639847336850
:1059200030461B689847214628461EF031FA236806
:1059300020461B699847236820465B6901B0BDE893
:10594000F04F18479830030826310308F831030850
:105950003F320308E2320308FC33030870A6012437
:105960006CA60124044B1B6893F858200AB1D86C2C
:1059700000B99868704700BF28A6012470B5044696
:1059800016460D461CF0DAFA0E4B00211C600E4B39
:1059900023600E4BC4E951310D4B1868C4E9531113
:1059A0000368C4E94F119B68C4E955659847FFF740
:1059B000D9FF23F0D2FBFFF7D5FF23F045FC2046AB
:1059C00070BD00BF7CA60124A833030890330308F0
:1059D00028A60124064BC0F84801C0F84C3100232A
:1059E000C0F8503100F5A273C0F84031704700BFD5
:1059F0001D580008406A7047806A704770478B885E
:105A0000C069DB0A0A6850F823001044704710B5DB
:105A10000446BAB1107B68B1537BD27A1B0203F4FF
:105A2000E0631A43236A03EB82031A888A4202D195
:105A300093F9020010BD05D80138043380B2002864
:105A4000F3D1F7E70020F5E710B504462C2129F043
:105A5000ACF9204610BD000030B58BB00446BDF84F
:105A600060500895BDF85C5007959DF8505006951C
:105A70009DF84C5005959DF8485004959DF844506C
:105A800003959DF8405002959DF83C500195BDF856
:105A9000385000951DF0D6FD064B20462360159B1F
:105AA000E361169B2362199B63621A9BA3620BB08E
:105AB00030BD00BF203403087047704770477047FF
:105AC00070477047704710B50446C42129F06DF93E
:105AD000204610BD036870B504461B6B15469847F9
