:020000040800F2
:1000000000000524654400088D2800088F2800089A
:100010009128000893280008952800080000000097
:10002000000000000000000000000000B1F0000827
:10003000972800080000000041F10008EBE80008E4
:10004000B5440008B5440008B544000899280008E4
:10005000B5440008B5440008B5440008B54400089C
:10006000B5440008B5440008A5280008B5440008B8
:10007000B5440008B5440008B5440008B54400087C
:10008000B5440008B5440008B5440008B54400086C
:10009000B5440008B5440008B5440008B54400085C
:1000A000B5440008B5440008B5440008AD28000870
:1000B000B5440008B5440008B9280008B544000854
:1000C000B5440008B5440008B5440008B54400082C
:1000D000B5440008B5440008B5440008B54400081C
:1000E000B5440008B544000800000000B54400080D
:1000F000B5440008B5440008B5440008B5440008FC
:10010000B5440008B5440008B5440008B5440008EB
:10011000B5440008B5440008C5280008B5440008E7
:10012000B5440008B5440008B5440008B5440008CB
:10013000B5440008B5440008B5440008B5440008BB
:1001400000000000000000000000000000000000AF
:10015000B5440008B5440008B5440008B54400089B
:10016000B5440008B5440008B5440008B54400088B
:10017000B5440008B5440008B5440008B54400087B
:10018000B5440008B5440008B5440008B54400086B
:10019000B5440008B5440008B5440008B54400085B
:1001A000D1280008B5440008DD2800080000000040
:1001B000B5440008B5440008B5440008B54400083B
:1001C000B5440008B544000800000000000000002D
:1001D0000000000000000000B5440008000000001E
:1001E000000000000000000000000000000000000F
:1001F0000000000000000000B5440008B5440008FD
:10020000B5440008B544000800000000B5440008EB
:10021000B5440008B5440008B5440008B5440008DA
:10022000B544000800000000B544000800000000CC
:10023000B5440008B544000800000000B5440008BB
:10024000B5440008B5440008B5440008B5440008AA
:10025000B5440008B5440008B5440008B54400089A
:10026000B5440008B5440008B5440008B54400088A
:10027000B5440008B5440008B5440008000000007B
:10028000B5440008B5440008B5440008B54400086A
:1002900000000000B5440008B5440008B54400085B
:1002A000B5440008B5440008B5440008B54400084A
:1002B000B5440008B5440008B5440008E928000822
:0C02C000F5280008B5440008B54400080B
:1002D00010B5054C237833B9044B13B10448AFF380
:1002E00000800123237010BD2002002400000000C4
:1002F0004014030808B5034B1BB103490348AFF38F
:10030000008008BD000000002402002440140308FF
:1003100001F0FF01102A2BDB10F0070F08D010F8B6
:10032000013B013A8B422DD010F0070F42B3F6D1BA
:10033000F0B441EA012141EA014122F007047FF0D3
:1003400000070023F0E80256083C85EA010586EA2A
:10035000010685FA47F5A3FA87F586FA47F6A5FA66
:1003600087F68EB9EED1F0BC01F0FF0102F0070272
:1003700032B110F8013B013A83EA010313B1F8D11D
:100380000020704701387047002D06BF35460338FE
:10039000073815F0010F07D1013015F4807F02BF37
:1003A000013015F4C03F0130F0BC0138704700BF88
:1003B00081F0004102E000BF83F0004330B54FEA16
:1003C00041044FEA430594EA050F08BF90EA020F83
:1003D0001FBF54EA000C55EA020C7FEA645C7FEA16
:1003E000655C00F0E2804FEA5454D4EB5555B8BF39
:1003F0006D420CDD2C4480EA020281EA030382EAAA
:10040000000083EA010180EA020281EA0303362D3B
:1004100088BF30BD11F0004F4FEA01314FF4801C0E
:100420004CEA113102D0404261EB410113F0004F20
:100430004FEA03334CEA133302D0524263EB4303D7
:1004400094EA050F00F0A780A4F10104D5F1200E75
:100450000DDB02FA0EFC22FA05F2801841F10001D0
:1004600003FA0EF2801843FA05F359410EE0A5F1A4
:1004700020050EF1200E012A03FA0EFC28BF4CF0D5
:10048000020C43FA05F3C01851EBE37101F000458B
:1004900007D54FF0000EDCF1000C7EEB00006EEB98
:1004A0000101B1F5801F1BD3B1F5001F0CD3490822
:1004B0005FEA30004FEA3C0C04F101044FEA445279
:1004C00012F5800F80F09A80BCF1004F08BF5FEA00
:1004D000500C50F1000041EB045141EA050130BDE0
:1004E0005FEA4C0C404141EB0101013C28BFB1F5F2
:1004F000801FE9D291F0000F04BF01460020B1FA3D
:1005000081F308BF2033A3F10B03B3F120020CDA0F
:100510000C3208DD02F1140CC2F10C0201FA0CF0ED
:1005200021FA02F10CE002F11402D8BFC2F1200C52
:1005300001FA02F120FA0CFCDCBF41EA0C01904008
:10054000E41AA2BF01EB0451294330BD6FEA040451
:100550001F3C1CDA0C340EDC04F11404C4F120023C
:1005600020FA04F001FA02F340EA030021FA04F34E
:1005700045EA030130BDC4F10C04C4F1200220FAA5
:1005800002F001FA04F340EA0300294630BD21FAE3
:1005900004F0294630BD94F0000F83F4801306BFA9
:1005A00081F480110134013D4EE77FEA645C18BF9D
:1005B0007FEA655C29D094EA050F08BF90EA020F34
:1005C00005D054EA000C04BF1946104630BD91EA2C
:1005D000030F1EBF0021002030BD5FEA545C05D12F
:1005E0004000494128BF41F0004130BD14F580046E
:1005F0003CBF01F5801130BD01F0004545F0FE41E2
:1006000041F470014FF0000030BD7FEA645C1ABF16
:10061000194610467FEA655C1CBF0B46024650EA4D
:10062000013406BF52EA033591EA030F41F4002179
:1006300030BD00BF90F0000F04BF0021704730B5FF
:100640004FF4806404F132044FF000054FF00001D4
:1006500050E700BF90F0000F04BF0021704730B595
:100660004FF4806404F1320410F0004548BF40426A
:100670004FF000013EE700BF42004FEAE2014FEABF
:1006800031014FEA02701FBF12F07F4393F07F4F9A
:1006900081F06051704732F07F4208BF704793F09D
:1006A0007F4F04BF41F40021704730B54FF46074B0
:1006B00001F0004521F000411CE700BF50EA0102B3
:1006C00008BF704730B54FF000050AE050EA01025C
:1006D00008BF704730B511F0004502D5404261EBCC
:1006E00041014FF4806404F132045FEA915C3FF40D
:1006F000D8AE4FF003025FEADC0C18BF03325FEAAA
:10070000DC0C18BF033202EBDC02C2F1200300FA5A
:1007100003FC20FA02F001FA03FE40EA0E0021FA7F
:1007200002F11444BDE600BF53B94AB9002908BF1D
:1007300000281CBF4FF0FF314FF0FF3000F06AB9C6
:10074000ADF1080C6DE904CE00F006F8DDF804E028
:10075000DDE9022304B070472DE9F047089D0C46FF
:10076000002B4ED194468C458646B2FA82F262D96D
:100770004AB1C2F12003914020FA03F30CFA02FCC3
:10078000194300FA02FE4FEA1C471FFA8CF6B1FB30
:10079000F7F44FEA1E4307FB141143EA014304FB3D
:1007A00006F199420AD91CEB030304F1FF3080F0F3
:1007B0001281994240F20F81023C6344591A1FFA98
:1007C0008EF3B1FBF7F007FB101143EA014300FB86
:1007D00006F69E420AD91CEB030300F1FF3180F0BC
:1007E000FC809E4240F2F980634402389B1B40EA41
:1007F000044000211DB1D3400022C5E90032BDE80C
:10080000F0878B4205D90DB1C5E9000100210846EA
:10081000F5E7B3FA83F1002946D1A34202D390420F
:10082000C0F0F080861A64EB03030120002DE6D0AF
:10083000C5E90063E3E7002A40F09080A1EB0C04D7
:100840004FEA1C481FFA8CF70121B4FBF8F64FEA77
:100850001E4308FB164443EA044307FB06F0984294
:1008600008D91CEB030306F1FF3402D2984200F2D0
:10087000CD8026461C1A1FFA8EF3B4FBF8F008FB55
:10088000104443EA044300FB07F79F4208D91CEBDE
:10089000030300F1FF3402D29F4200F2B0802046F1
:1008A000DB1B40EA0640A5E7C1F120068B4022FA97
:1008B00006F71F4320FA06FC04FA01F343EA0C038F
:1008C000F44000FA01F8380C4FEA1349B4FBF0FE8B
:1008D0001FFA87FC00FB1E4449EA04440EFB0CF996
:1008E000A14502FA01F20AD93C190EF1FF3A80F053
:1008F0008480A14540F28180AEF1020E3C44A4EB1D
:1009000009041FFA83F9B4FBF0F300FB134449EA2E
:10091000044403FB0CFCA44507D93C1903F1FF3048
:1009200067D2A44565D9023B3C4443EA0E40A0FB94
:100930000293A4EB0C049C42CE469C4651D34ED06D
:1009400055B1B8EB0E0364EB0C0404FA06F6CB4089
:100950001E43CC40C5E90064002150E7C2F12003EA
:1009600020FA03F10CFA02FC24FA03F394400C433E
:100970004FEA1C4800FA02FE1FFA8CF7B3FBF8F0AE
:1009800008FB1031230C43EA014300FB07F19942B5
:1009900008D91CEB030300F1FF362CD299422AD967
:1009A000023863445B1AA4B2B3FBF8F108FB1133BD
:1009B00044EA034401FB07F3A34208D91CEB0404F7
:1009C00001F1FF3613D2A34211D902396444E41A6B
:1009D00041EA004139E70446F0E6084606E7C84523
:1009E000AED2B9EB020E63EB070C0138A8E7314633
:1009F000EDE7034699E73046D4E7D6467FE7634400
:100A000002384DE70646234608460FE7023E634498
:100A100030E700BF704700BF014900200FF092BDD2
:100A20006149000801482FF077BC00BFE4140308B7
:100A300001482FF071BC00BF0815030801482FF0D2
:100A40006BBC00BF2A15030801482FF065BC00BF2E
:100A50004E15030808B504482FF05EFC034A1368DE
:100A60000133136008BD00BF6B1503080078002434
:100A700001482FF051BC00BF8C15030801482FF02E
:100A80004BBC00BFA415030801482FF045BC00BFB4
:100A9000BF15030801482FF03FBC00BFD91503085C
:100AA00001482FF039BC00BFFA15030801482FF0A8
:100AB00033BC00BF0E16030801482FF02DBC00BF49
:100AC0002616030801482FF027BC00BF481603086C
:100AD00008B504482FF0B8FB034A136801331360CC
:100AE00008BD00BF701603080078002401460148C5
:100AF0002FF0AABB9816030808B504482FF0A4FBF2
:100B0000034A13680133136008BD00BFB116030820
:100B100000780024014601482FF096BBD716030841
:100B200008B504482FF090FB034A136801331360A3
:100B300008BD00BFF01603080078002401460148F4
:100B40002FF082BB18170308014601482FF07CBB29
:100B50003117030808B504482FF076FB034A1368E1
:100B60000133136008BD00BF4A1703080078002452
:100B7000014601482FF068BB6617030808B5044812
:100B80002FF062FB034A13680133136008BD00BFF6
:100B90007F17030800780024014601482FF054BB5A
:100BA0009E17030808B504482FF04EFB034A13684C
:100BB0000133136008BD00BFB71703080078002495
:100BC000014601482FF040BBD517030808B504487B
:100BD0002FF03AFB034A13680133136008BD00BFCE
:100BE000EE17030800780024014601482FF02CBBC3
:100BF0001318030808B504482FF026FB034A1368AE
:100C00000133136008BD00BF2C18030800780024CE
:100C1000014601482FF018BB4C18030808B50448DA
:100C20002FF012FB034A13680133136008BD00BFA5
:100C30006518030800780024014601482FF004BB22
:100C40008118030808B504482FF0FEFA034A136818
:100C50000133136008BD00BF9B180308007800240F
:100C6000014601482FF0F0BAC118030808B504483E
:100C70002FF0EAFA034A13680133136008BD00BF7E
:100C8000DB18030800780024014601482FF0DCBA85
:100C900007190308014601482FF0D6BA21190308A5
:100CA00008B503F085FA42F210700DF09EFEF8E7E9
:100CB000064D074C08B547F230500DF096FE284619
:100CC0002FF02AFB204609F0FCFBF4E73B19030850
:100CD000E475002470B51148114E03F0A5FA114DCA
:100CE0000FF05CFD0D4C4FF4FA720F4B052103F031
:100CF000D9FA3146284603F041FA204603F098FA23
:100D000002F09CFD03F078FA2046084A4FF47A710D
:100D100003F0A0FA05200DF068FEEAE77003002456
:100D2000D10A0008E0000024ED0A0008250A0008A6
:100D300070B50F480F4E03F077FA0F4D0FF02EFDF0
:100D40000B4C4FF4FA720D4B052103F0ABFA314610
:100D5000284603F013FA204603F06AFA2046084AB0
:100D60004FF47A7103F076FA64200DF03EFEEEE760
:100D7000740200241D0C00082C000024390C00080B
:100D8000AD0A000870B51048104E03F04DFA104D32
:100D90000FF004FD0C4C4FF4FA720E4B052103F0DA
:100DA00081FA3146284603F0E9F9204603F040FA7B
:100DB00003F01EFB2046084A40F24C4103F04AFA79
:100DC0000A200DF012FEECE754030024F90A000893
:100DD000CC000024150B0008310A000870B51A4831
:100DE0001A4E03F021FA184D0FF0D8FC184C4FF4AE
:100DF000FA72184B052103F055FA3046042108F029
:100E00007EFF1549154803F0B9F9284603F010FA9A
:100E1000204607F0DBFB6421204607F075F82046EA
:100E200007F000F90E4B186002F022FC002002F0DF
:100E3000BBFC28460B4A4FF47A7103F00BFA64208E
:100E40000DF0D3FDD9E700BF38030024001C025881
:100E5000207700243D0B0008210B0008B800002477
:100E6000087800243D0A000870B51B481A4D03F0AD
:100E7000DBF91A4E0FF092FC194C4FF4FA72194B31
:100E8000052103F00FFA1849184803F077F92846AE
:100E900003F0CEF900220421304608F02BFF204653
:100EA00007F094FB0121204607F02EF8204607F0BA
:100EB000B9F80F4B188001F089FF30460122042158
:100EC00008F018FF28460B4A4FF47A7103F0C2F974
:100ED00064200DF08AFDD6E71C030024001C025894
:100EE00090770024490B0008550A0008A40000244C
:100EF0000C780024490A000870B51148114E03F01F
:100F000093F9114D0FF04AFC0D4C41F27C520F4BFE
:100F1000052103F0C7F93146284603F02FF9204692
:100F200003F086F902F056F92046094A4FF47A7127
:100F300003F090F941F288300DF057FDEBE700BF68
:100F400000030024550B000890000024710B0008DA
:100F5000710A000870B51148114E03F065F9114D82
:100F60000FF01CFC0D4C41F27C520F4B052103F09D
:100F700099F93146284603F001F9204603F058F963
:100F800002F0C6FA2046094A4FF47A7103F062F97A
:100F900041F288300DF029FDEBE700BFE4020024A8
:100FA0007D0B00087C000024990B00087D0A0008D6
:100FB00070B51148114E03F037F9114D0FF0EEFBEB
:100FC0000D4C40F2DC520F4B052103F06BF931461A
:100FD000284603F0D3F8204603F02AF902F038FB44
:100FE0002046094A4FF47A7103F034F94FF47A70CD
:100FF0000DF0FBFCEBE700BFC8020024A50B0008C6
:1010000068000024C10B0008890A000870B5124866
:10101000124E03F009F9124D0FF0C0FB0E4C4FF4C5
:10102000FA72104B052103F03DF93146284603F0D2
:10103000A5F8204603F0FCF802F01AFD02F094FC3B
:1010400002F082FD2046084A4FF47A7103F002F95B
:1010500001200DF0CAFCE8E7AC020024CD0B00082B
:1010600054000024E90B0008950A000870B51248E6
:10107000124E03F0D9F8124D0FF090FB0E4C4FF4C6
:101080007A72104B052103F00DF93146284603F022
:1010900075F8204603F0CCF801F06AFD01F032FE4D
:1010A0002046094A4FF47A7103F0D4F84FF4FA70ED
:1010B0000DF09BFCE9E700BF90020024F50B00084F
:1010C00040000024110C0008A10A000870B5124865
:1010D000124E03F0A9F8124D0FF060FB0E4C4FF4C6
:1010E000FA72104B052103F0DDF83146284603F073
:1010F00045F8204603F09CF801F0CCFF01F0E4FF36
:10110000094B0A4A4FF47A711860204603F0A2F89E
:1011100032200DF06AFCE8E758020024450C000874
:1011200018000024610C000804780024B90A0008A3
:1011300070B51148114E03F077F8114D0FF02EFBEA
:101140000D4C4FF47A720F4B052103F0ABF831468A
:10115000284603F013F8204603F06AF802F092F8EC
:101160002046094A4FF47A7103F074F84FF47A700C
:101170000DF03BFCEBE700BF3C0200246D0C0008C7
:1011800004000024890C0008C50A000808B50FF007
:1011900005FB064B4FF47A72052103F083F803F048
:1011A000F1F84FF47A700DF020FCF8E7950C000888
:1011B00007B54FF6FF730190012201A903480DF016
:1011C00036FA019803B05DF804FB00BFE872002412
:1011D00010B59CB04C22002109A82FF0B7F92022AD
:1011E000002101A82FF0B2F904200AF0B3F900237E
:1011F0000093214B9A6922F440429A619A6902F461
:1012000040420092009A9A699204FCD50AF06CF967
:101210001A4A2C210024136F09A823F0180313671E
:101220000D224FF480331B94CDE9092301220223C0
:10123000CDE915120B920E9244221493CDE9172397
:10124000CDE912330C23CDE919340AF0C1F9032199
:101250003F2308204FF4806203947024CDE90131CC
:101260004023CDE9040301A80893CDE906420AF022
:10127000CBFC1CB010BD00BF00480258004402580F
:1012800000B5AFB00021982208A82FF05FF9124AEC
:1012900000231920CDE9002305225023CDE90223A4
:1012A00002238022CDE90433069307924FF4907213
:1012B000CDE90C331E230E934FF4007310932023BB
:1012C00013934FF48033CDE90A02684628930AF05D
:1012D00083FF2FB05DF804FB000008222DE9804851
:1012E000A1B01022002113A82FF030F907F088FCDC
:1012F0000123002113A8ADF84C3048F21F73CDE94B
:10130000141340F20113169307F098FC042007F021
:1013100085FCD34B5A6912F4003211D1BFF34F8FC1
:10132000BFF36F8FC3F85022BFF34F8FBFF36F8FA0
:101330005A6942F400325A61BFF34F8FBFF36F8F87
:10134000C74A536913F4803323D1C2F88430BFF302
:101350004F8FD2F8803043F6E074C3F3C900C3F373
:101360004E335B0103EA0406014646EA8175013902
:10137000C2F86052F9D2203B13F1200FF2D1BFF333
:101380004F8F536943F480335361BFF34F8FBFF3E3
:101390006F8F06F045FD0024FFF71AFF0125FFF7C8
:1013A0006FFF1422002113A82FF0D0F8AD4B48F2A4
:1013B0000801AD48D3F8E0204FF002094FF01008C3
:1013C0004FF0030A42F002024FF4806B0427A74E4D
:1013D000C3F8E020D3F8E02002F002020092009A65
:1013E000D3F8E02042F04002C3F8E020D3F8E02038
:1013F00002F040020192019AD3F8E02042F0080284
:10140000C3F8E020D3F8E02002F008020292029A2A
:10141000D3F8E02042F01002C3F8E020D3F8E02037
:1014200002F010020392039AD3F8E02042F0010286
:10143000C3F8E020D3F8E02002F001020492049AFD
:10144000D3F8E02042F00402C3F8E020D3F8E02013
:1014500002F004020592059AD3F8E02042F08002DF
:10146000C3F8E020D3F8E02002F080020692069A4A
:10147000D3F8E02042F02002C3F8E0200022D3F8A5
:10148000E03003F020030793079B08F033FC0022B1
:101490004FF44041764808F02DFC00224FF4806163
:1014A000744808F027FC00220421734808F022FC4D
:1014B00000220121714808F01DFC082313A970487F
:1014C0001595CDE9133408F097FA4FF4005313A99A
:1014D0006C48CDF85490CDE9133408F08DFA4FF4F0
:1014E000004213A96048CDE91325CDE9154408F061
:1014F00083FA202313A95C481595CDE9133408F02D
:101500007BFA4FF4881213A957481594CDE913823A
:1015100008F072FA082313A95348CDF858A015947F
:10152000CDE9133508F068FA4FF4807213A95648D4
:101530001595CDE9132408F05FFA4FF4404213A942
:101540004B48CDE91325CDE9154A08F055FA13A902
:101550004848CDE913B5CDE9154408F04DFA13A973
:101560004548CDE91375CDE9154408F045FA13A9AE
:101570004248CDE91355CDE9154A08F03DFA052159
:1015800022460A2007F0EAFA0A2007F019FB3F4832
:101590003F4A056202608480C0E9054407F07AFB97
:1015A000DFF800C13B484FF44032C0E90254C0E9C3
:1015B00000C207F0D0FB3422214613A82EF0C6FF4C
:1015C000354A4FF0280E352340F2152140F23520E0
:1015D0003461B48686F83640C6E900240922C6E99B
:1015E00005E20B22C6E9073240F21B12C6E90912D6
:1015F00040F21D12C6E90B023046C6E9024408F06B
:10160000EDFF4FF0050C4FF4F0714FF488724FF07E
:10161000E040FF23CDF868B04FF0180B1394ADF8FD
:101620007C408DF87E40CDE91BC0CDE91625CDE983
:101630001D1230462246194ECDE9141413A9CDE9E6
:10164000183409F0C8F85A46214613A82EF07EFF38
:10165000134A20233046B460F463C6E9002723E030
:1016600000ED00E000440258001802583C750024C8
:1016700000040258000C0258001C025800000258D6
:10168000001002580008025800140258FC7600248A
:10169000004C02589476002400100050E07400249E
:1016A00000500052001000524FF08072C6E9032330
:1016B0000823C6E90594C6E90D34C6E90744C6E91E
:1016C0000994C6E90B4409F013FA4FF0011213A96B
:1016D0003046169202F57F021595179241F2883234
:1016E000CDE9135509F090FC304609F075FA40F247
:1016F00001122046D24EADF8382005F0EDFF0EA9BC
:10170000204606F0DBF8204605F0AEFF5A4621469B
:1017100013A82EF01BFF424621460AA82EF016FF02
:10172000214614220EA82EF011FFC64A4FF0805E0B
:101730003046B460C6E900274FF08062C6E9032B4B
:1017400017224FF4805BC6E90BE24FF4C872C6E97A
:101750000574F263C6E90744C6E90994C6E90D4475
:10176000CDE9084409F0C4F9B74B41F2883213A916
:10177000169303F57F033046CDF854901793CDE9C7
:10178000139909F041FCCDF828A04FF0060A41F268
:1017900088320AA930460D95CDE90BA409F07EFAEE
:1017A0004FF4405341F288320EA910934FF000538A
:1017B0003046119512930E940F9409F095FA08A9EA
:1017C0003046089409F0B0FB02F04AFE424621463A
:1017D0000EA82EF0BBFE4246214613A89B4E0C9449
:1017E000CDE90A442EF0B2FE994B3046B460C6E90A
:1017F00000344FF6FF73C6E90544C6E903340CF024
:101800001BF90EA93046CDF838B00CF083FA3046FB
:101810000CF042F90AA930460C94CDE90A440CF0C8
:1018200047FC0C2213A930468A4ECDE91345CDE979
:1018300015440CF0D1F9424621460EA82EF086FE42
:101840002146424613A80C94CDE90A442EF07EFEB0
:101850004FF6FF73804A3046B460B461C6E9033482
:10186000C6E900240CF0E8F80EA93046CDF838B0EF
:101870000CF050FA30460CF00FF90AA930460A94E1
:101880000C940CF015FC0C2213A93046DFF8F8B1CB
:10189000724ECDE91345CDE915440CF09DF9242293
:1018A000214613A81094CDE90E442EF04FFE4FF4BC
:1018B00000233046F561348386F82040346386F88F
:1018C0004440C6E900B30823C6E90447B360C6E94B
:1018D0000A44C6E90F4406F07BFF0EA930460E9479
:1018E00007F0C4F840F2FF7313A93046159418941A
:1018F0008DF86D405A4ECDE91637CDE9135A06F0F2
:1019000095FB2146142213A82EF020FE554B7F2272
:1019100030460E9434617461C6E90034FF23C6E991
:101920000644C6E902230BF0D9FC43F212032A460F
:1019300013A9ADF84C304FF0200330468DF84E30EF
:10194000CDE916440BF021FD474B2A460EA930463F
:1019500043F2F2250E930BF07AFD214630460BF050
:10196000BCFEA8420ED0224613A930460BF00DFD56
:1019700022460EA930460BF06AFD2A462146304623
:101980000BF0A6FE394D0024394A4FF4E1334FF0F5
:101990000C0828462C614FF0060A012604274FF058
:1019A0000809C5E90023C5E90244C5E90584C5E97C
:1019B0000744C5E909440CF0EAFE214628460CF02C
:1019C00054FF214628460CF070FF28460CF032FFE9
:1019D0002848294B4FF4C871284DC0E9003A40F619
:1019E000FF73C0E9023108F03FFD2422214613A80D
:1019F0002EF0ACFD4FF480232148EE612C616F6125
:101A00002C8385F8204085F8384085F84440C5E9A6
:101A100000032846C5E90294C5E90A44C5E90C4417
:101A2000C5E90F4406F0D4FE40F2FF7313A928461F
:101A3000159418941A94134DCDE9136A26E000BF4B
:101A40008474002400A000520200010014740024D9
:101A5000000001407C7300240008004090770024BF
:101A6000607400240040005804041024E87200242C
:101A700000480040E4750024004800582077002406
:101A800000600258C873002400200240CDE91637D8
:101A900006F0CCFA6D486E4B0D22068203600223DD
:101AA0008474C0E907231F22C0E91763C0E90B292A
:101AB000C0E90539C0E90966C0E90D46C0E90F660D
:101AC000C0E91176C0E91376C0E91576C0E9024491
:101AD0004FF08046C0E9194707F044FA21234946F0
:101AE00028461594AC60AC61C5E900634FF0FF3344
:101AF000CDE91344C5E903340BF0FEFF13A92846D2
:101B0000139415940CF0D4FA02F0D6FC02F0D3FC36
:101B100002F0A0FA02F062FC01F0DCFA01F07CFCB9
:101B200001F05CFD01F010F801F04AF900F03CFF13
:101B300001F0AAFA01F090FB414646480CF0B2F9D8
:101B4000414645480CF0AEF901F036FD0CF0DAFEE6
:101B500028460BF0C7FD414A214641480CF0FEFEE5
:101B6000404B414A2146186040480CF0F7FE404B7C
:101B7000404A2146186040480CF0F0FE3F4B404A76
:101B8000214618603F480CF0E9FE3F4B3F4A214692
:101B900018603F480CF0E2FE3E4B3F4A2146186079
:101BA0003E480CF0DBFE3E4B3E4A214618603E4864
:101BB0000CF0D4FE3D4B3E4A214618603D480CF0E7
:101BC000CDFE3D4B3D4A214618603D480CF0C6FE17
:101BD0003C4B3D4A214618603C480CF0BFFE3C4B54
:101BE0003C4A214618603C480CF0B8FE3B4B3C4A4E
:101BF000214618603B480CF0B1FE3B4B3B4A214666
:101C000018603B480CF0AAFE3A4B3B4A214618604C
:101C10003A480CF0A3FE3A4B3A4A214618603A483B
:101C20000CF09CFE394B3A4A2146186039480CF0BA
:101C300095FE394B394A2146186039480CF08EFE22
:101C4000384B18600CF070FEFEE700BFF4750024FE
:101C500000D40040147400247C730024D81C0308B2
:101C6000A10C0008E4720024B41C0308C744000857
:101C700030700024901C03080D5F00082C700024B5
:101C80006C1C0308B10C0008784F0024481C0308A2
:101C9000D50C0008C4460024241C0308850D000848
:101CA00010420024001C0308DD0D00085C310024F4
:101CB000DC1B0308690E0008A8280024B81B0308D1
:101CC000F90E0008F4230024941B0308550F0008A4
:101CD000401F0024701B0308B10F00088C1A002459
:101CE0004C1B03080D100008D8150024281B0308FE
:101CF0006D10000824110024041B0308310D000896
:101D0000700E0024E01A0308CD100008BC0B00245C
:101D1000BC1A03083111000808090024981A0308A6
:101D20008D1100085406002410B59EB0224808F01A
:101D3000C8FB2022002103A82EF008FC4C22002121
:101D40000BA82EF003FC0023029301931B4B9A690E
:101D500022F440429A619A6902F440420292029A45
:101D60009A699204FCD50BA801240AF0B9F84FF443
:101D700080330BA8CDE90B430223149309F028FC10
:101D800001A903A80AF00EF90323019903A80493FB
:101D9000039409F039FF00F06FFD094800F04CF999
:101DA00008482EF0B9FA084AD2F8D03043F480330C
:101DB000C2F8D0301EB010BDE475002400480258AF
:101DC0003C7500244A1903080044025810B50C4C15
:101DD00000220C4821460BF08EFB0B4B187028B9E3
:101DE000A3786278217809482EF02EFAFFF7F0F9EF
:101DF00000F042FD0648BDE810402EF08DBA00BF4D
:101E000090030024607400248C0300245B190308F1
:101E10006C1903080A46014601482EF015BA00BFA6
:101E20007F190308704700000268034B9A4201D1F2
:101E300006F024B8704700BF001000407047000053
:101E40000A4B82B00F216FF00100D3F8F42042F06A
:101E50000202C3F8F4200022D3F8F43003F00203A6
:101E60000193019B02B006F079BE00BF0044025806
:101E7000036884B0214A93421ED1214B4FF08071F8
:101E8000D3F8D82042F02002C3F8D820D3F8D820C5
:101E900002F020020092009AD3F8E02042F0010202
:101EA000C3F8E020D3F8E03003F001030193019B75
:101EB000084604B006F006B8124A93421BD1104BF4
:101EC0004FF08061D3F8E02042F08072C3F8E02048
:101ED000D3F8E02002F080720292029AD3F8E02058
:101EE00042F00402C3F8E020D3F8E03003F004032A
:101EF0000393039BDCE704B0704700BF002002405F
:101F00000044025800600258026882B0094B9A42AD
:101F10000DD1A3F50063D3F8E02042F40022C3F80A
:101F2000E020D3F8E03003F400230193019B02B0DA
:101F3000704700BF004C02580F4B07B502689A4229
:101F400017D10E4B05215A20D3F8D42042F01002AD
:101F5000C3F8D4200022D3F8D43003F01003019347
:101F6000019B06F0FBFD5A2003B05DF804EB06F080
:101F700027BE03B05DF804FB001000520044025875
:101F800010B5B6B004461422002103A82EF0DEFAE4
:101F9000B822002108A82EF0D9FA2268234B9A42D1
:101FA00042D100234FF4004208A8CDE908234FF0A6
:101FB000805323930AF010F908B1FFF73FFF1C4B41
:101FC000002403A91B48D3F8EC2042F48072C3F824
:101FD000EC20D3F8EC2002F480720192019AD3F83D
:101FE000E02042F02002C3F8E020C022D3F8E03025
:101FF00003F020030293029B0223CDE90544CDE9BF
:102000000323079307F0F8FC224605219F2006F0E2
:10201000A5FD9F2006F0D4FDA0202246052106F054
:102020009DFDA02006F0CCFD36B010BD00D40040D0
:1020300000440258001402582DE9F0418EB00446C5
:102040001422002109A82EF081FA22686A4B9A42D4
:1020500040F0CE80694B022603250E27D3F8E420FA
:1020600009A96748002442F008024FF05808C3F855
:10207000E420D3F8E42002F008020192019AD3F898
:10208000E02042F00202C3F8E020D3F8E02002F0A2
:1020900002020292029AD3F8E02042F00802C3F84A
:1020A000E020D3F8E02002F008020392039AD3F86C
:1020B000E02042F01002C3F8E020D3F8E02002F064
:1020C00010020492049AD3F8E02042F00102C3F80F
:1020D000E020D3F8E02002F001020592059AD3F83F
:1020E000E02042F04002C3F8E020D3F8E02002F004
:1020F00040020692069AD3F8E02042F08002C3F82C
:10210000E020D3F8E02002F080020792079AD3F88B
:10211000E02042F00402C3F8E020D3F8E03003F0FE
:1021200004030893089B40F20333CDE90C57CDE933
:10213000093607F061FC492309A932480D97CDE91A
:102140000936CDE90B4507F057FC4BF6030309A907
:102150002D480D97CDE90936CDE90B4507F04CFC2C
:102160004FF4807309A92948CDE909360D23CDE93B
:102170000B450D9307F040FC4FF4814309A9244817
:102180000D97CDE90936CDE90B4507F035FC48F64A
:10219000087309A91F480D97CDE90936CDE90B450C
:1021A00007F02AFCC02309A91B480D97CDE9093681
:1021B000CDE90B4507F020FC09A914480D97CDE99E
:1021C0000986CDE90B4507F017FC102309A9114832
:1021D000CDE909360923CDE90B450D9307F00CFC39
:1021E00040462246052106F0B9FC404606F0E8FCD0
:1021F0000EB0BDE8F08100BF00100050004402584E
:1022000000040258000C0258001002580000025846
:1022100000180258001C025800080258026808B54D
:10222000184B9A422CD1184A40F203311748D2F881
:10223000E43023F00803C2F8E43007F0BFFC492182
:10224000134807F0BBFC4BF60301124807F0B6FC3D
:102250004FF4AC71104807F0B1FC4FF481410F48C6
:1022600007F0ACFC48F618710D4807F0A7FC0D48C4
:10227000C02107F0A3FC5820BDE8084006F0AEBC22
:1022800008BD00BF0010005000440258000402586E
:10229000000C0258001002580000025800180258A2
:1022A000001C0258000802582DE9F04391B0044682
:1022B000142200210BA82EF049F92368884A934282
:1022C00040F0B080874A13680133012B13600CD1B2
:1022D000854BD3F8D42042F40012C3F8D420D3F8AD
:1022E000D43003F400130093009B7F4B022503249A
:1022F0000927D3F8D4200BA97C48002642F4804259
:102300004FF00A084FF00409C3F8D420D3F8D420C2
:1023100002F480420192019AD3F8E02042F0400298
:10232000C3F8E020D3F8E02002F040020292029AC3
:10233000D3F8E02042F00802C3F8E020D3F8E02010
:1023400002F008020392039AD3F8E02042F0100250
:10235000C3F8E020D3F8E02002F010020492049ABF
:10236000D3F8E02042F02002C3F8E020D3F8E020C8
:1023700002F020020592059AD3F8E02042F0020212
:10238000C3F8E020D3F8E03003F002030693069B85
:102390004FF40073CDE90B35CDE90E4707F02CFB68
:1023A000B0230BA95248CDF83C80CDE90B35CDE9DF
:1023B0000D6407F021FB0BA94E480F97CDE90B9553
:1023C000CDE90D6407F018FB40230BA94748CDF871
:1023D0003C80CDE90B35CDE90D6407F00DFB4FF4E2
:1023E00060530BA942480F97CDE90B35CDE90D6439
:1023F00007F002FB4FF480630BA93F480F97CDE92C
:102400000B35CDE90D6407F0F7FA0BA93B48CDF881
:102410003C80CDE90B95CDE90D6407F0EDFA11B0E4
:10242000BDE8F083364A9342F9D12E4A136801334E
:10243000012B13600CD12C4BD3F8D42042F40012A2
:10244000C3F8D420D3F8D43003F400130793079BC8
:10245000254B032402250926D3F8D4200BA92348B1
:10246000002742F40022C3F8D420D3F8D42002F489
:1024700000220892089AD3F8E02042F04002C3F804
:10248000E020D3F8E02002F040020992099AD3F844
:10249000E02042F02002C3F8E020D3F8E03003F05F
:1024A00020030A930A9B40F60303CDE90E46CDE9CB
:1024B0000B3507F0A1FA4FF4A0530BA90B480F946A
:1024C000CDE90B35CDE90D7407F096FA41F21F0303
:1024D0000BA909480F96CDE90B35CDE90D749CE7A2
:1024E000005000521078002400440258001802588E
:1024F000000C025800100258001402580004025840
:1025000000A00052274A08B5036893422AD1264BFF
:102510001A68013A1A60254B2AB9D3F8D42022F45C
:102520000012C3F8D420D3F8D4204FF410712048FF
:1025300022F48042C3F8D42007F040FB43F6B001F8
:102540001C4807F03BFB04211B4807F037FB4FF406
:1025500080611A4807F032FB04211948BDE80840A1
:1025600007F02CBB174A93421AD10F4B1A68013A55
:102570001A600E4B2AB9D3F8D42022F40012C3F803
:10258000D420D3F8D42041F60341094822F4002294
:10259000C3F8D42007F012FB41F21F010748DDE722
:1025A00008BD00BF005000521078002400440258BB
:1025B00000180258000C025800100258001402586B
:1025C0000004025800A0005210B5AEB00446B82274
:1025D000002168462DF0BAFF2268104B9A421AD1AA
:1025E00000234FF480026846CDE900234FF4807346
:1025F0002C9309F0F1FD08B1FFF720FC084A0320F5
:102600000521136F43F400431367002206F0A6FA76
:10261000032006F0D5FA2EB010BD00BF00400058D0
:10262000004402581422002110B58AB004460DEB74
:1026300002002DF08BFF23682F4A93422ED12F4B9F
:102640004FF480412E48D3F8F02042F00102C3F845
:10265000F020D3F8F02002F001020192019AD3F8A1
:10266000E02042F01002C3F8E020D3F8E03003F09D
:1026700010030293029B0223CDE905130793012364
:1026800005A9099307F0B8F91B200022052106F0DF
:1026900065FA1B2006F094FA0AB010BD194A93425D
:1026A000FAD1164B05A91848D3F8E82042F00402E5
:1026B000C3F8E820D3F8E82002F004020392039A5A
:1026C000D3F8E02042F00802C3F8E0204FF40042C3
:1026D000D3F8E03003F008030493049B0223CDE910
:1026E0000523099307F088F91E200022052106F032
:1026F00035FA1E20CEE700BF00000140004402581A
:102700000010025800080040000C0258036882B014
:10271000B3F1804F0CD1074BD3F8E82042F001020F
:10272000C3F8E820D3F8E83003F001030193019BDC
:1027300002B070470044025810B5B6B004461422E7
:10274000002103A82DF002FFB822002108A82DF0D7
:10275000FDFE22681A4B9A4230D10222002308A8BB
:10276000CDE9082309F038FD08B1FFF767FB154BE9
:1027700003A91548D3F8E82042F48022C3F8E820E2
:10278000D3F8E82002F480220192019AD3F8E020E5
:1027900042F00802C3F8E0204FF44072D3F8E03072
:1027A00003F008030293029B0223CDE903230023D5
:1027B000CDE905330723079307F01EF936B010BDA6
:1027C0000048004000440258000C02580F2810B581
:1027D00004468AB002D901200AB010BD0146002289
:1027E000362006F0BBF9362006F0EAF9184B6946A8
:1027F00002A81C60174BD3F8E82042F01002C3F87F
:10280000E820D3F8E83003F010030193019B09F0AE
:10281000C9FB079BC3B909F03FFB0F4C0F4B23606B
:1028200040F2E733E3600E4BB0FBF3F001380023D6
:10283000606020462361A3600BF0FEF80028CAD137
:1028400020460AF091FFC7E709F026FB4000E4E7C5
:102850005401002400440258147800240010004061
:1028600040420F00034B1A68D36823F00103D36082
:10287000704700BF14780024034B1A68D36843F0F4
:102880000103D360704700BF147800247047FEE74F
:10289000FEE7FEE7FEE7704701480AF002BF00BF0F
:1028A00060740024102007F033BA000001480AF0D9
:1028B000A5BF00BF1474002401480AF09FBF00BFE9
:1028C0007C73002401480AF099BF00BF14780024EB
:1028D000014807F023BF00BF3C750024014806F003
:1028E00079BA00BF94760024014806F01DBF00BFEE
:1028F000F4750024FFF7F8BF0120704708B52DF0EC
:102900002FFF162303604FF0FF3008BD08B52DF0F0
:1029100027FF16230360FEE770B50D4614460E46EA
:10292000731B9C4201DC204670BDAFF3008006F8AB
:10293000010BF5E770B50D4614460E46731B9C421D
:1029400001DC204670BD16F8010BFEF731FCF5E7FF
:102950004FF0FF3070474FF4005300204B6070473A
:1029600001207047002070470B4A0346116810B5DC
:1029700009B90A491160106809490A4C0344091B46
:102980008B4206D92DF0ECFE0C2303604FF0FF3094
:1029900010BD1360FCE700BF6078002480E10124D3
:1029A000000005240010000070B540F21113284CFF
:1029B00000254FF40002274940F2FF100126A560D0
:1029C0000D60CE60C4E900354FF40023C4E903353F
:1029D0005223C4E9072340F2FF73C1E904031E48F0
:1029E000C4E90555C1E9016606F0A6FC33461B4A59
:1029F0002146194806F058FD3146174806F083FD78
:102A00002A463146144806F041FE2A464FF48021FA
:102A1000114806F03BFE104C4FF470210E4806F0B2
:102A2000C7FC31460C4806F0D7FC40F65A4200215C
:102A3000204606F0E5FC0028F7D1074806F0F8FC30
:102A40000028FAD10448BDE8704006F014BD00BF6C
:102A50009C780024C0780024F4750024F40000243D
:102A6000234B002270B51A70CB0705463FD5214C89
:102A70004021214E23462148324606F055FD58B1EB
:102A8000FFF7DCF9002201211C4806F0FFFD70B3BE
:102A9000BDE87040FFF7D2B9284606F0DCFC32688A
:102AA00040F2FF139A42EDD16278237802F00100E0
:102AB000134943EA0023C2F3400043EA4023C2F330
:102AC000800043EA8023C2F3C00043EAC023C2F37C
:102AD0000010C2F3401243EA003343EA42330A884B
:102AE00022F47F5222F03F0213430B80CAE770BDED
:102AF000697800246A78002474780024F47500242E
:102B00006478002410B50A4C00224FF48021094853
:102B100023780133237006F0B9FD08B1FFF78EF971
:102B20002378054A1E2B94BF00230123137010BD88
:102B300069780024F475002468780024014B186833
:102B4000704700BF647800240549064B0A780648A0
:102B50001A704A78054B1A7000220AF0CCBC00BFEC
:102B6000007900241679002460740024157900246B
:102B700038B5074D0022074C074928460AF0BBFC30
:102B800000222070284605490AF0D8FC207038BD84
:102B900060740024F878002400790024F978002477
:102BA00010B5084C0848627821782DF04DFB21467D
:102BB000002206480AF0E9FB0548BDE810402DF068
:102BC000ABBB00BFE4780024FC1C03086074002445
:102BD000151D030810B5052824D8DFE800F00317F9
:102BE0001B2C2431224C23482DF096FB2146002239
:102BF00021480AF080FC2178204B62781970204B24
:102C000020481A70BDE810402DF01EBBBDE81040F2
:102C1000FFF7C6BF1C4A13780133DBB2022B08BF93
:102C20000023137010BD194B002219481A70BDE81B
:102C300010402DF009BB154B012216481A70F6E71B
:102C4000114B1B784BB90A4A182113780133DBB2B8
:102C5000B3FBF1F001FB1033E3E7012BE2D1044AAF
:102C600053780133DBB23C2B08BF00235370D9E704
:102C7000E47800242A1D03086074002416790024D7
:102C800015790024401D030814790024E0780024FD
:102C90005A1D03086F1D0308164B10B41B787BB92F
:102CA000154B182219780131C9B2B1FBF2F002FBC1
:102CB00010111248C9B219705DF8044B2DF0C4BA56
:102CC000012B06D10C4A53780133DBB23C2B03D0E5
:102CD00053705DF8044B70471378182000210133BE
:102CE0005170DBB2B3FBF0F400FB143304481370F3
:102CF000E2E700BF14790024E4780024811D030872
:102D00009D1D030808B5074B1A78012A06D1FFF765
:102D1000C3FF0548BDE808402DF096BA00221A709E
:102D200008BD00BFE0780024BB1D03081249134A08
:102D30000B780133DBB2042B0B7006D900230B7028
:102D400000230F4813702DF0E7BA013B032BF7D88F
:102D5000DFE803F002060A0E01230A481370F2E7C7
:102D6000022309481370EEE7032308481370EAE7CB
:102D7000042307481370E6E7177900241879002424
:102D8000D81D0308EE1D0308021E0308161E0308C3
:102D90002D1E0308014B1878704700BF18790024D6
:102DA000054B64221B68534340F6FF72B3FBF2F3FA
:102DB000024A1360704700BF687900246C790024D0
:102DC000014B00221A707047737900242DE9F84FE7
:102DD0009B4C2578012D3ED0022D7FD0002D68D14F
:102DE000984E1E21984B32781B88984FDFF884C28A
:102DF00027F812300132B2FBF1F001FB1020BCF8D1
:102E0000002030701344924E9BB23288ACF80030F0
:102E1000013292B21D2A328083BF37F810004FF082
:102E2000010E8C4D294681BFB3FBF1F11B1A85F8C9
:102E300000E0ACF800301D2A874B198039D901F029
:102E400083F9012835D1834B1B78012B31D1002226
:102E5000328023702DE0814D7F4A2B881288804F6D
:102E6000934236BFD21A9B1A93B24FF0010228BF89
:102E70009BB23A7040F2323293421CD86FF4CC715C
:102E80000B44B3F5CD7F2CBF02230323754A764E46
:102E90001370337001F058F901280AD13B78012BE7
:102EA00007D13378714E9A1E012A06D80222227069
:102EB0003370BDE8F88F0023E8E74FF4805100201D
:102EC00000F0B6FC00F078FC002000F0A9FC2860BF
:102ED000FFF766FF022323700423E9E7634F614E87
:102EE0003A783378022ADFF87091DFF87081DFF8E2
:102EF00088A179D0032A51D0012A0FD19AF8002055
:102F0000DFF878B19A421EBF594B00221A80BBF8F5
:102F10000030D8F80020B3F5967F25D933788AF8A9
:102F20000030494B1A88B8F80030A9F800209A42BE
:102F30008ABFD21A9B1A93B240F2323298BF9BB228
:102F4000934278D86FF4CC721344B3F5CD7F74D22A
:102F500003252B46444A337013703D7001F0F4F89A
:102F60000228A6D1002374E7B9F80010914203D1DA
:102F70000023ABF80030D1E7013340F211110220F9
:102F8000ABF8003000F054FC00F016FC002000F01C
:102F900047FCC8F80000FFF703FFB8E79AF80020E5
:102FA000DFF8DCB09A421EBF314B00221A8040F697
:102FB000B832BBF80030D8F800109342AED8B9F858
:102FC00000008842D4D0013388216420ABF800305F
:102FD00000F02EFC00F0F0FB002000F021FCC8F80F
:102FE0000000FFF7DDFEE2E79AF80020DFF894B07A
:102FF0009A421EBF1E4B00221A8042F22832BBF8B2
:103000000030D8F80010934288D8B9F80000884200
:10301000AED0013388214FF49670ABF8003000F049
:1030200007FC00F0C9FB002000F0FAFBC8F8000024
:10303000FFF7B6FEE1E701258BE702238AE700BF31
:1030400073790024197900240C7800242A7900244B
:1030500028790024257900247079002468790024D7
:10306000247900241A7900241C7900247279002420
:10307000607A0024267900241B7900242279002418
:10308000207900241E790024014B00221A60704729
:103090007879002410B50A4CFFF750FD206001F04C
:1030A00053F8C0B201280AD1064922880B88C2F31E
:1030B0000B0223F47F6323F00F0313430B8010BD37
:1030C0007479002478790024014B1868704700BF98
:1030D000787900240123024A1370024A1370704762
:1030E000B1790024B079002410B50020002400F04C
:1030F000F9FB054A034605491060054A4C60106813
:103100001360181A086010BD9C790024907900247F
:103110009879002408B5FFF7E7FF0C4B0C4A1860BC
:103120000C4B1B68B0FBF3F00B4B18600B4B1B6890
:10313000434313600A4B1A6810440A4A18600A2372
:103140001060B0FBF3F0084B186008BDAC790024A8
:10315000A879002400010024A4790024040100249B
:1031600084790024807900248C79002408B5FFF745
:10317000D1FF044B044A1B6812685343034A13608F
:1031800008BD00BFA0790024FC0000247C79002445
:10319000054B1B78012B01D1FFF7BCBF022B01D1DE
:1031A000FFF7E4BF704700BFB0790024024B1A68F4
:1031B000024B1A80704700BF847900248A7900246A
:1031C000024B1A68024B1A80704700BF84790024B2
:1031D0008879002408B500F0B7FFC0B2022803D1F7
:1031E000054B00221A6008BDFFF7D2FFFFF7DEFF94
:1031F000BDE80840FFF7E4BFA0790024044B1B782A
:10320000012B03BF0370034B18680020704700BFF9
:10321000B07900248C7900240C4B0D4A10B5187835
:103220000C4C0128117860700BD1217001311170A4
:1032300011780C2904BF002111701A7801321A701C
:1032400010BD1E2804BF00211970F1E708010024F9
:10325000B8790024CE79002408B5FFF7DDFF054BCF
:10326000054A0A211B88A2F80130044A1170044A59
:10327000137008BDCE790024D0790024CB790024C6
:10328000CA7900242DE9F8433748FFF7B7FF374BD9
:1032900004461860FFF7C0FF354B41F28730354ACE
:1032A0001B88A2F80130344A1168611A81423349FF
:1032B000334820D9012314600B70324B1C60037813
:1032C000BBB1314B314D1978314B1B78994234BF2A
:1032D0005B1ACB1ADBB20F2B2B700AD100231460C0
:1032E00003702C4803702C4B19702C4B19782C4B05
:1032F0001970BDE8F883DFF8A0C0C3F30725DEB27C
:10330000DFF884E09CF80080244FB8EB132F8EF890
:103310000050204B3E700DD1DFF8849099F800509A
:10332000B54207D01D7889F8006001351D70184D31
:1033300085F800801D78062D04BF012505700D78E5
:10334000002DBCD00F4D2D68651B632DB7D900250E
:1033500014601D709EF800300D708CF800303978C4
:103360000F4B1970ABE700BFC4790024B479002477
:10337000CE790024D0790024C0790024CC790024AF
:10338000CD790024BC790024C9790024C5790024B2
:10339000C6790024C7790024CB790024C879002499
:1033A000CA790024114B4FF47A721A604FF46162AB
:1033B0000F4B1A6064220F4B1A6001220E4B1A60E9
:1033C00005220E4B1A603C220D4B1A70C8220D4B81
:1033D0001A6032220C4B1A7010220C4B1A702822E1
:1033E0000B4B1A707D220B4B1A607047247A002415
:1033F000207A00241C7A0024187A0024147A0024ED
:10340000107A00240C7A0024017A0024007A002427
:10341000087A0024047A00240023034A1370034A24
:103420001370FFF7BFBF00BF297A0024287A002459
:1034300010B50020002400F055FA054A034605495E
:103440001060054A4C6010681360181A086010BDBF
:10345000F4790024F8790024F079002408B5FFF706
:10346000E7FF0F4B0F4A18600F4B10491B680968A4
:10347000B0FBF3F313600E4A126853430D4A136016
:103480000D4A126853430D4A13600D4A12684A43AD
:103490000C49B3FBF2F30A600B4A136008BD00BF8E
:1034A000E4790024E8790024187A0024207A0024A2
:1034B0001C7A0024EC790024247A0024E07900248A
:1034C000147A0024DC790024D879002408B5FFF7A9
:1034D000C5FF064B064A1B7812685343054A12780B
:1034E000B3FBF2F3044A136008BD00BF007A002466
:1034F000D8790024017A0024D4790024034B1B7866
:103500000BB9FFF7ABBFFFF7E1BF00BF287A00247C
:1035100008B500F019FEC0B2022805D10023044A04
:103520001360044A136008BDBDE80840FFF7E6BF1A
:10353000D8790024D479002410B5044698B90B4BEF
:103540004FF480610A481A68936943F0010393615C
:10355000012206F0CFFB074801224FF4004106F09C
:10356000C9FB204610BD6FF00100FBE73C7500244D
:10357000000C02580018025810B5044698B90B4BBD
:103580004FF480611A68936923F001039361024646
:10359000074806F0AFFB074822464FF4004106F00B
:1035A000A9FB204610BD6FF00100FBE73C7500242D
:1035B000000C02580018025808B50020FFF7DCFF85
:1035C0004FF47A7004F06CFC0020FFF7B5FF4FF465
:1035D0007A70BDE8084004F063BC0000064B1A682E
:1035E000537843F0400353700122044B1A700022B9
:1035F000034B1A60704700BF2C7A00242A7A0024FB
:10360000487A002410B50120002400F06BF90A4B21
:103610000A4A186013680A49C31A10604C600B60AC
:1036200008490B6008498B4236BF3C214FF0FF33FD
:103630004B4306490B6010BD407A0024447A0024B5
:10364000387A0024307A002444444404487A002420
:1036500008B500F079FDC0B2022803D1034B002267
:103660001A6008BDBDE80840FFF7CCBF487A0024C7
:10367000454B2DE9F74F93F800C00025434B01203F
:10368000AB462F46B3F80080414B1988414B1A785E
:10369000414BB3F800E02B461C46B0B90CB13C4896
:1036A000018015B13C49A1F800E0BBF1000F02D048
:1036B000354981F800C00FB136490A7013B1374B54
:1036C000324A1A6003B0BDE8F08FFF2A14BF1346D8
:1036D0006346022B019318D8581CC0B2C3005FFA8E
:1036E00080F91E462E4B33F830A0C2450DD8B9F1F3
:1036F000030F2ED02B4B33F806A0C24526D801303D
:103700005FFA80F9B9F1040FE8D1019B013BDBB20C
:10371000022B06D8224800EBC300B0F80290C14546
:1037200022D2FF2A4FF00103B8D071454FF00000BC
:1037300035BFC9189B461346FF2339BF624689B27D
:1037400000215F4694461A460123A5E7B9F1040F0C
:10375000DBD0134B4A4603EBC903B3F804E0012462
:10376000002125462746DCE73BB130F8069CC145E1
:1037700003D3013B0838DBB2CFE7094A02EBC302AF
:10378000B2F806E01A46EAE7587A002408780024DE
:103790004C7A0024507A00244E7A0024547A002473
:1037A000441E03084C1E030810B9024B18787047DA
:1037B000FF207047587A0024F0B51348134D018854
:1037C0002B88134C994207D1002323800022114BF0
:1037D0001860114B1A70F0BD104E2288378897423E
:1037E00002D0531C9BB2F0E79942728806D85E1A49
:1037F000B24201DC9B1A99B22980E5E7CE1A9642C3
:10380000FADB1A4491B2F7E770790024627A002457
:10381000607A00245C7A0024597A0024647A0024B7
:1038200010B9024B1888704700207047627A002454
:10383000014B188059807047647A002438B54FF4E2
:103840008071144806F050FA20210546124806F00F
:103850004BFA08214400114806F046FA104944EAA0
:103860008504104D0C2264B22B782043C8540133D8
:10387000FF20DBB22B70013A11F8014B12F0FF026E
:1038800000EA0400F7D108490B2B087088BF2A70A2
:1038900038BD00BF0014025800180258001002582A
:1038A0006A7A0024697A0024687A0024014B187827
:1038B000704700BF687A002408494FF6FF7231F85C
:1038C0001030934203F1010310B508BF044C21F8F6
:1038D000103002BF225C0132225410BD7E7A0024D7
:1038E0007C7A00240128064A08D8064B06491B5C4E
:1038F00031F81010C3EB03430B441360106870479A
:10390000787A00247C7A00247E7A00240368064AB0
:10391000934202D10020FFF7CFBF044A934201D166
:103920000120F8E7704700BF000001400008004098
:1039300008B50C2104480AF05FFB18B1BDE8084047
:10394000FEF77CBA08BD00BF1474002408B50C2132
:1039500004480AF0A7FA18B1BDE80840FEF76EBAAD
:1039600008BD00BF147400242DE9F8430226002589
:10397000DFF8E0803446334F013CE4B258F824309D
:1039800003B11D78012D31D12F4A52F82430591C32
:1039900010D001332D4942F82430062262438818A2
:1039A000B0F804C063450DD1294B53F824300BB156
:1039B000042098473D550124A64201D1BDE8F88373
:1039C0002646D9E74088834206D1214B53F824305C
:1039D000002BEFD00220ECE78A5A9342EAD11C4B2D
:1039E00053F82430002BE5D00020E2E7002DE1D190
:1039F0003B5DDFF85490012B11D11448062259F891
:103A0000243002FB040251888B420CD392889342EB
:103A100009D20F4B53F824300BB1032098470023F1
:103A200049F82430C6E706226243825A9342F6D30D
:103A30008B42F4D2064B53F82430002BEFD00120F8
:103A4000ECE700BF8C7A0024847A00246C1E030803
:103A5000641E0308781E0308014B1870704700BFEE
:103A60000A010024014B1870704700BF09010024AF
:103A700010B50A4C00F0C8FB207000F0CDFB084BDD
:103A8000084A1870B0FA80F023784009B3FA83F33B
:103A90005B091370044B187010BD00BFA07A00249E
:103AA0009F7A00249E7A00249D7A0024034B1B7881
:103AB000012B06BF024B1878FF2070479C7A002428
:103AC0000A010024034B1B78012B06BF024B187818
:103AD000FF2070479C7A00240901002408B5FFF7F5
:103AE000E5FF0246FFF7EEFF012A07D111482CF04F
:103AF00013FC0220FFF76EF8002008BD022A04D153
:103B00000D482CF009FC0120F4E7012804D10B48F2
:103B10002CF002FC0520EDE7032804D108482CF026
:103B200093FB0420E6E70228E6D106482CF08CFB44
:103B30000320DFE7801E0308981E0308AF1E03085A
:103B4000C81E0308E71E03082DE9F0414F4E504CF4
:103B500032782378012A4F4D1DD1012B0CD1FF2340
:103B60004D48337023702CF0D7FB32782B78022A23
:103B700047D1012B45D109E02B7823B9FFF7D6F8BF
:103B800046482CF0C9FB2B78012B01D1FFF7A6FF8B
:103B9000FF23337035E0012B1BD12B788BB9FFF756
:103BA000F9F8032804D13E482CF0B6FBFF2323701C
:103BB000FFF7F0F8042804D1FF233A4823702CF0D3
:103BC000ABFB2B78012BD0D1FFF788FFFF232370AD
:103BD000CBE7022A20D1022B1ED10020FEF7FAFFEC
:103BE0002B78002BC1D1FFF779FF2F482CF094FBE5
:103BF00001232B7004F04EF92C4B1860FF23337017
:103C0000237022782B78022A27D1012B3CD1FFF791
:103C100065FFFF23237022E02B78012BA5D1244BD5
:103C20001F78244B1B781F439FD104F033F9224B9C
:103C3000DFF88C8018601D4B1B68C01A43F6972371
:103C40009842C8F8000090D91C482CF065FBFEF79C
:103C5000A7FF2F70C8F8007087E7032AD5D02B780C
:103C6000012B11D133780BB123786BB9144B00229F
:103C70001A6004F00FF9104B186004F00BF90B4BAD
:103C80001860FF2333702370BDE8F0810A0100241F
:103C9000090100249C7A0024031F0308861E0308E0
:103CA000341F0308561F0308781F0308947A002462
:103CB0009E7A00249D7A0024907A0024A81F03088D
:103CC000987A002438B50024044DE3B2013455F845
:103CD000233003B938BD9847F7E700BF0020030839
:103CE00038B50024044DE3B2013455F8233003B94C
:103CF00038BD9847F7E700BFF81F030838B5002420
:103D0000044DE3B2013455F8233003B938BD984768
:103D1000F7E700BFF01F030838B50024044DE3B2F5
:103D2000013455F8233003B938BD9847F7E700BF91
:103D3000E81F030838B50024044DE3B2013455F8F8
:103D4000233003B938BD9847F7E700BFE01F0308E9
:103D500038B50024044DE3B2013455F8233003B9DB
:103D600038BD9847F7E700BFD81F030838B50024CF
:103D7000044DE3B2013455F8233003B938BD9847F8
:103D8000F7E700BFD01F030808B50020FFF70CFDC0
:103D9000431E5842584108BD08B50020FFF704FDF6
:103DA000831E5842584108BD08B50020FFF7FCFCAF
:103DB000C31E5842584108BD08B50020FFF7F4FC67
:103DC000B0FA80F0400908BD38B500200024074D46
:103DD000FFF7EAFC014606482CF036FAE3B201345C
:103DE00055F8233003B938BD9847F7E70820030892
:103DF000C31F03087047704770477047704770478C
:103E00007047704738B50024044DE3B2013455F8CB
:103E1000233003B938BD9847F7E700BFAC2003084B
:103E200038B50024044DE3B2013455F8233003B90A
:103E300038BD9847F7E700BFA420030838B5002431
:103E4000044DE3B2013455F8233003B938BD984727
:103E5000F7E700BF9C20030838B50024044DE3B207
:103E6000013455F8233003B938BD9847F7E700BF50
:103E70009420030838B50024044DE3B2013455F80A
:103E8000233003B938BD9847F7E700BF8C200308FB
:103E900038B50024044DE3B2013455F8233003B99A
:103EA00038BD9847F7E700BF8420030838B50024E1
:103EB000044DE3B2013455F8233003B938BD9847B7
:103EC000F7E700BF7C20030808B500F03DF9431E6A
:103ED0005842584108BD000008B500F035F90228E5
:103EE00005D1044B1888031F5842584108BD0020D3
:103EF000FCE700BF0C01002408B500F025F90228FA
:103F000006D1044B1888A0F108035842584108BD57
:103F10000020FCE70C01002408B500F015F9022888
:103F200006D1044B1888A0F110035842584108BD2F
:103F30000020FCE70C010024014B1888704700BFEB
:103F40000C010024102802D1034B188003E008283C
:103F5000FAD00428F8D070470C0100247047000004
:103F6000042008B5FFF7EEFF0248BDE808402CF03A
:103F7000D3B900BF1421030808B50D4809F058FB58
:103F8000002249F640410A4809F0F6FA08B1FDF767
:103F900055FFFEF767FC07F0D5FA064806F08AFBE6
:103FA0000121084607F0A8FA014809F041FBFEE7A5
:103FB000607400243C75002408B5FFF7BDFF042899
:103FC000094A08D1138841F6641101339BB28B4230
:103FD00003D0138008BD0023FBE7002310201380CB
:103FE000BDE80840FFF7AEBFA27A002470477047D3
:103FF0000820FFF7A7BF000008B5134BD3F8D02067
:10400000D1001BD4D3F8D020520117D40F4A526AE2
:10401000D00705D50E48082105F071FE062008BD21
:10402000D3F8D02091020BD4D3F8D020520209D477
:10403000D3F8D000C0F3C0508000F0E70320EEE7D3
:104040000120ECE70520EAE7004402580048025846
:104050000008025810B5FFF7CFFF044606281BD80A
:10406000DFE800F004121A10141618000B482CF0A8
:1040700053F90B4A2046D2F8D03043F48033C2F8CB
:10408000D03010BD0748F2E70748F0E70748EEE7F1
:104090000748ECE70748EAE70748E8E7292103086B
:1040A000004402583E2103085621030875210308E5
:1040B000A7210308C0210308E321030838B5002421
:1040C000044DE3B2013455F8233003B938BD9847A5
:1040D000F7E700BF1022030838B50024044DE3B20F
:1040E000013455F8233003B938BD9847F7E700BFCE
:1040F0000822030838B50024044DE3B2013455F812
:10410000233003B938BD9847F7E700BF0022030802
:1041100038B50024044DE3B2013455F8233003B917
:1041200038BD9847F7E700BFF821030808B5FFF747
:10413000BDFB6FEA900000F0010008BD08B5FFF775
:10414000B5FBC0F3800008BD002000F041B90000BD
:1041500008B503482CF0E0F8BDE80840FFF7F6BBCF
:104160005422030808B503482CF0D6F8BDE80840EF
:10417000FFF7DEBB78220308704770470B4B0278CD
:104180001B6822B9012202705B6AC3607047C26873
:104190005B6A0261C3609B1A42689A4202D88268D5
:1041A0009A4201D201B10847704700BFC87300248A
:1041B0002DE9F8430025DFF83C800D4E4FF00C0947
:1041C00098F80030ECB2A34201D8BDE8F88309FBAF
:1041D00004F43059371940B10CF0D0FA7B688342AF
:1041E00003D9B9683059FDF715FE0135E8E700BF7E
:1041F000A87A0024A47A002408B5FFF757FB014BE6
:10420000187008BD387B0024024B187800F00100BC
:10421000704700BF387B0024024B1878C0F3400081
:10422000704700BF387B002401238376704700006D
:10423000837E3BB100234FF0FF32837603608360BF
:1042400042600383024B1B685B6A0361704700BFD7
:10425000C8730024124B1B6870B45B6A0469436125
:104260001B1B048B0668642CC3601CBF01340483D1
:104270008468058B9C42446838BF83609C4205F18A
:10428000FF3488BF43608B4206FB0434B4FBF5F473
:10429000046002D90AB170BC104770BC704700BFFF
:1042A000C87300242DE9F843114F844698463878A6
:1042B0000B2818D84FF01C090E4D002309FB00F401
:1042C0002E1945F804C07261F160B36033760BF0CB
:1042D000FDFF3A78306109FB02550132C5F80480D0
:1042E0003A70BDE8F883BDE8F843FDF79BBD00BF19
:1042F0008C7C00243C7B002470B50CF04FFA0E4DF2
:10430000044600230D4E2A789A4200D870BD1C2125
:10431000594372187158A1420AD19368D168013388
:104320008B42936003D953680BB1002098472B78D8
:104330000133DBB2E7E700BF8C7C00243C7B002428
:104340002DE9F041002304460C4E4FF01C080C4FA1
:1043500032789A4201D8BDE8F08108FB03F2BD181B
:10436000BA58A24207D10023AB6001232B760BF091
:10437000ADFF337828610133DBB2E9E78C7C0024A0
:104380003C7B00242DE9F04100250F4E0F4F4FF0EC
:104390001C083378ECB2A34201D8BDE8F08108FBD9
:1043A0000474237E63B90BF091FF2369C01A63691B
:1043B000834203D263680BB1012098470135E8E7D7
:1043C00000232376FAE700BF8C7C00243C7B00248A
:1043D000014B33F8100070478E7C0024034B012200
:1043E0001A8002225A8004229A8070478E7C002410
:1043F0002DE9F84F184E0025DFF860804FF00C09CA
:1044000058F8357036F802BB0FB34FF0000A05E0DC
:10441000A368E3B198471AE00AF1010A5FFA8AF348
:1044200009FB03F3FC18FB5A8BB113EA0B0FF3D013
:1044300063885B45ECD06368002BEDD0984700287B
:10444000EAD0A36803B19847638826F8023C013597
:10445000032DD5D1BDE8F88F8E7C0024A42203085B
:1044600070470000DFF834D003F084FC002103E043
:104470000B4B5B58435004310A480B4B42189A428D
:10448000F6D30A4A02E0002342F8043B084B9A4262
:10449000F9D32CF06BF9FCF721FF704700000524DD
:1044A00094700308000000241C0200242002002451
:1044B00080E10124FEE7704708B501F0F7F8BDE898
:1044C000084001F07BB801F0F3B8406870474160E4
:1044D000704700004FF0E022D2F8FC3D43F08073BB
:1044E000C2F8FC3D054B064AD3F8B01F0A43C3F897
:1044F000B02F1A6842F001021A607047001000E005
:1045000055CEACC5521A02EB5302B2FBF3F0704722
:10451000014B5868704700BF001000E0704710B5AD
:1045200004460C212BF055F9204610BD036810B548
:104530001B69044631B19847A26863689B1A03441B
:10454000636010BD9847A060FBE770471FB5082364
:1045500000206946CDE90230054B1B880093054BCE
:104560001B88019303F024FB05B05DF804FB00BF3A
:1045700062D5012464D5012410B5044604212BF032
:1045800028F9204610BD30B585B000200D461446F0
:1045900001A90390CDE9010003F08CFB40B14FF07D
:1045A000500383F31188BFF36F8FBFF34F8FFEE784
:1045B000019820B1029B01202B60039B236005B072
:1045C00030BD0000032825D8DFE800F0020B131CE3
:1045D000114B012111481A68B2FA82F2520905F012
:1045E00089BB0D4B08210E485A68B2FA82F2520973
:1045F000F5E7094B4FF480419A68B2FA82F252090A
:104600000848ECE7044B4FF40041DA68B2FA82F252
:104610005209F5E7704700BF947C0024000002585F
:104620000018025800040258032825D8DFE800F0DB
:10463000020B131C114B012111481A68003A18BFD4
:10464000012205F057BB0D4B08210E485A68003A6D
:1046500018BF0122F5E7094B4FF480419A68003AF0
:1046600018BF01220848ECE7044B4FF40041DA6818
:10467000003A18BF0122F5E7704700BF947C002480
:10468000000002580018025800040258032811D8EC
:10469000DFE800F00206090D0121074805F02FBBF5
:1046A00008210648FAE74FF480410548F6E74FF441
:1046B0000041FAE7704700BF000002580018025896
:1046C0000004025808B5032815D8DFE800F0020AF4
:1046D0000D110121094805F007FB431E58425841BE
:1046E00008BD08210648F6E74FF480410548F2E787
:1046F0004FF40041FAE70020EFE700BF0000025846
:10470000001802580004025870B5084D0024012614
:10471000E0B2FFF7D7FF18B12B68012B18BF2E604E
:1047200001340435052CF3D170BD00BF947C002406
:10473000012380F8781080F87930704700207047A6
:1047400041640039024B18BF01211970704700BF46
:1047500067D5012400207047836B0BB108461847CA
:1047600070474FF6FF707047406803689B691847B1
:104770007047000038B5044601F0C6F807492368C1
:1047800004F17C052046D3F88C3098472846FFF783
:10479000A1FE0123256184F8703038BD000000704F
:1047A00008B503680446D3F880309847236820464C
:1047B0009B6F984700F02CF9236820461B6F9847A1
:1047C00001224FF48061084805F094FA01224FF469
:1047D0000041064805F08EFA00F01AF923682046D9
:1047E0001B6F9847F8E700BF000C025800180258EA
:1047F00010B504461AF060FB23682046D3F8AC30AD
:10480000BDE81040184701F04BB801F04FB8000068
:1048100070B501F0A3F810490023C1F88430BFF34C
:104820004F8FD1F8803043F6E074C3F3C900C3F36F
:104830004E335B0103EA0406024646EA8275013AFA
:10484000C1F87452F9D2203B13F1200FF2D1BFF31B
:104850004F8FBFF36F8F70BD00ED00E000F0FCBF25
:1048600001F0E6B901F0EEB901F000B819F090BD21
:1048700010B5044688212AF0ACFF204610BD000088
:1048800090F834100D4B10B590F878401A788C429F
:1048900009D03AB90A490B4A0888148810800122C5
:1048A0000C801A7010BD002AFCD0064A04491488F6
:1048B00008880C8010800022F3E700BF60D5012437
:1048C0005ED501245CD5012470B50D46194635B975
:1048D000094B40F2D221094A09482BF0F1FAC0E90C
:1048E0000F52003A074B18BF01221A700368BDE847
:1048F0007040D3F88C301847F8220308302303089F
:104900007E23030866D5012408B5094B1B888B421A
:1049100003D8084B1B88934205D9074B9E21074AB1
:1049200007482BF0CDFA074B1980074B1A8008BDBA
:104930005CD501245ED50124C32303082624030883
:104940007E23030862D5012464D50124034690F830
:104950007A0018B1586803681B6818477047000050
:10496000014608B5034B186801B101211AF0BEFADF
:10497000012008BD68D501240121002208B50846A0
:104980000AF0B6F80A4B186028B90A4B28210A4ADF
:104990000A482BF095FA0022042101200AF047F979
:1049A000074B186018B9074B2C21034AF0E708BDE4
:1049B000A87C0024442503088D250308BC25030892
:1049C000A47C002421260308024B4FF0FF31186815
:1049D0000AF0D8B8A87C0024014B18680AF0FEB889
:1049E000A87C0024024B002118680AF0CBB800BF55
:1049F000A87C0024FFF7F0BF0023034803491A46B0
:104A000000680AF04FB900BFA47C00241001002404
:104A100013B50023074C01A91A4620680AF073F960
:104A20004FF0FF33002201A920680AF06CF902B0B0
:104A300010BD00BFA47C002403685B6C18470120F4
:104A4000704703689B6A184740F2EF3070470000D8
:104A5000054B4FF080620360044BC3F88820BFF31E
:104A60004F8FBFF36F8F7047D827030800E100E036
:104A700010B504464FF45A61FFF7EAFF20462AF0CA
:104A8000A8FE204610BD00000F4B82B0D3F8D42002
:104A900042F01002C3F8D420D3F8D42002F0100260
:104AA0000192019ADA6F42F01002DA67DA6F22F0AF
:104AB0001002DA67054B064A1A62064B4FF0806215
:104AC0009A6002B0704700BF0044025894760024F8
:104AD0001D4D000800E100E008B50A2809D8DFE80C
:104AE00000F006100E080808081010101000022030
:104AF00008BD054B8621054A05482BF0E1F9002049
:104B0000F6E70120F4E700BF632603087E260308CA
:104B1000C926030838B50C46887FFFF7DDFF124B26
:104B2000A58AE28A586342EA054221695A64628B87
:104B3000D963521B1A642568082D0ED19A611A6137
:104B400058620A4A207F42EA0062DA61E2681A6229
:104B5000074A5961D9601A6038BD0022D8611A61CC
:104B6000E2689A63034AF6E7001000520900010068
:104B7000010202000102030008B50B280BD8DFE890
:104B800000F00612100A0A0A0A080808080802209B
:104B900008BD0520FCE7054B6521054A05482BF0BB
:104BA0008FF90020F4E70120F2E700BF6326030835
:104BB0002C270308C92603082DE9F8434F7F8946AF
:104BC0003846FFF7D9FF99F81E5080462846FFF770
:104BD000D3FF06462846FFF77FFFB9F81410B9F84F
:104BE0001A40B9F81820454B641A521A1C649C618B
:104BF0001A61B9F81620586342EA0142D9F8101038
:104C00005A64D9F80420D963DA60D9F8004099F8D9
:104C10001C20802C22D00FD8202C66D0402C64D0B1
:104C2000042C5CD048EA0260344BAF4240F40030C0
:104C3000D86160D0324A3FE0B4F5807F04D0B4F54B
:104C4000007FEFD12F4800E02F4840EA0262DA618E
:104C5000D9F80C201A625E6259612CE048EA0260C1
:104C6000D9F8084040F40030D8615E625961211DD6
:104C7000D962217841B1012921D0244B4FF48071B0
:104C8000234A24482BF01CF9DA69618822F47F4218
:104C9000013922F0100242EA0122DA610122174BA7
:104CA000D96941F02001D961D9698906FCD4102164
:104CB0009960002ABED0184A1A60BDE8F883D96905
:104CC000FF3A608821F47F4118BF0122013821F0AA
:104CD000100141EA002141F01001D961DFE748EA03
:104CE000026242F40032DA61B5E748EA0262034B3D
:104CF00042F40032F7E740F20122DDE700100052F3
:104D000001020100090002000A00020076270308E0
:104D100090270308C926030801020200024B1B6802
:104D2000586803685B69184768D5012470B5044664
:104D30000A4B0C300026254660226060267266729F
:104D400045F8203B29461AF027FA04F55A63EE602D
:104D500024359D42FBD1204670BD00BFD8270308F3
:104D6000034B1A68D207FCD423229A60704700BF15
:104D70000010005230B5104C2568ED07FCD42325F7
:104D80000904FF2BA5604FF0010541EA05016563A9
:104D90006164E0630CD0094922F07F42656241EA18
:104DA0000363E361064B22626061E060236030BD13
:104DB000E561044BA263F9E700100052090001000D
:104DC00001000200010003004069704790F84400B0
:104DD0007047036B23B9C06A003818BF01207047C1
:104DE0000120704780687047043010B50C460FC82A
:104DF00084E80F0010BD704708B5034A40F2122145
:104E0000024B03482BF05CF820280308C342030838
:104E10007B28030810B5044648212AF0DAFC204616
:104E200010BD2DE9F0411E46ADF51E7D436B0746D2
:104E30000C469046A69D93B3002203A8CDE901320B
:104E400011F0F2FF4FF4F4725021249024A80BF0DB
:104E5000B8FF4246214624A80CF00CFF012124A8EB
:104E60000CF0AAF8022324A88DF8D8300CF045F9EC
:104E7000419BBDF89482BDF89022984528BF984682
:104E80002B9B9A4228BF1A4602EB4204479B984547
:104E900009D824A80CF0B2F824A80BF0DFFF0DF518
:104EA0001E7DBDE8F081012201A924A80CF06EF955
:104EB00030462246796B2E442BF07FFCE6E700005B
:104EC0000A4A02600022C0E90522C0E90722C0E9BF
:104ED0000922C0E90B22C0E90D12C0E90F2280F8B7
:104EE0004420C0E90322C0E901227047742B030863
:104EF00010B40C4611461A46036B3BB1036C806B31
:104F0000E41A20445DF8044B2BF028BBC06AF8E794
:104F1000036B10B573B1036C826BC91A5318525CE2
:104F200098785C780004DB7840EA0420104340EA7B
:104F3000036010BDC36A5858FBE7036B43B1036CB1
:104F4000C91A836B5A18585C527840EA022070479D
:104F5000C36A585A7047000070B50446006B0D468E
:104F60001646D8B1E36B934208D209230D4A652156
:104F70000D4884F844300D4B2AF0A2FF0368DB682B
:104F80009847206B3246A16B03681B69984710B99C
:104F90000D2384F84430A06B256470BDE06A08449A
:104FA000FBE700BFFD2803087B280308EA28030865
:104FB0002DE9F843436904462BB9234BAA21234A20
:104FC00023482AF07DFF08228169FFF7C5FFA16908
:104FD00043F2300646F2643704312046FFF798FF6B
:104FE000A3691844A36A00F108029A4206D3012378
:104FF00000206361236AA361BDE8F8836369093017
:105000000822013320F0010120466361A161FFF70E
:10501000A3FFD4F8189020464946FFF78EFF09F108
:10502000020180462046FFF788FF09F1040105468A
:105030002046FFF76DFFB045D2D1BD42D0D1002848
:10504000CED00120D8E700BF3F29030888290308F4
:105050007B2803082DE9F04F0546ADF51F7D8B46F3
:105060009046816908221F46FFF776FFAE69284601
:10507000311DFFF74DFF06F10801024604462846A0
:10508000FFF76AFF6B6B064633B9344B40F2AB1146
:10509000334A34482AF014FF002203A8CDE9013234
:1050A00011F0C2FE4FF4F4725021249024A80BF0AA
:1050B00088FE2246314624A80CF0DCFD012124A8FC
:1050C0000BF07AFF022324A88DF8D8300CF015F8E5
:1050D000BBF902A0479B53452DD3BBF8063007EB25
:1050E0004707BBF80260BBF900401E44BBF8042030
:1050F000419B04EB440936B2224407FB0A9A9E42C4
:1051000012B2D04428BF1E462B9B9A4294BFC4EBD8
:105110000204C4EB030404EB4404479BB34210D3E2
:1051200024A80BF06BFF24A80BF098FE01200DF5CE
:105130001F7DBDE8F08F012201A924A80CF026F8FC
:10514000C8E7012201A924A80CF020F8696B4046A9
:1051500022464944B8442BF030FBDEE7BB29030864
:10516000112A03087B2803080129036838BF01219D
:10517000DB6A70B50D4604469847A84204D22368FE
:105180002046DB6A984705466B1EE66910222046DA
:1051900006EB031606F10801FFF7DEFE06F110012B
:1051A0002046FFF7B5FE236A043B0344C4E90553D8
:1051B00070BD0000002148222DE9F04104468161C4
:1051C00080F84410FFF7C8FEA6690423624A3146FE
:1051D0002046FFF78DFE40B10323604AF22184F898
:1051E00044305F4B5F482AF06BFE06F10801042350
:1051F0005D4A2046A161FFF77BFE30B10423574A88
:10520000FA2184F84430594BECE706F10C010423F1
:10521000574A2046A161FFF76BFE074638B10523C8
:105220004E4A40F2011184F84430524BDAE706F15D
:1052300010012046FFF76CFE054620B94E4B40F2A8
:105240000711464ACEE706F1140804234B4A2046CC
:105250004146FFF74DFE002849D0062384F844302C
:105260000423474A06F118012046FFF741FE0028B3
:105270003FD0072384F844304544424F0C22204657
:105280002946FFF769FE05F1080604233A46204641
:105290003146FFF72DFE94F84430002848D0002B0B
:1052A00048D1A36AAB4249D805F10C030435204626
:1052B000A3612946FFF72CFE304429466062204650
:1052C000FFF726FE0644042220463146FFF744FE3F
:1052D00004232D4A31462046FFF70AFE002838D124
:1052E0000123E6616361A3692362BDE8F0810127C0
:1052F000B6E7002FC0D006F120012046FFF708FED8
:105300004FF47A7306F13001B0FBF3F06060204691
:10531000FFF7FEFD06F14001A0602046FFF7F8FD13
:1053200006F14401E0602046FFF7F2FD2061A3E7AB
:10533000002BB9D00A2384F84430D6E7291D204633
:10534000FFF7E6FD85190C2220462946FFF704FEEB
:1053500099E70B23EFE700BF6B2A0308892A0308AC
:10536000702A03087B280308B62A0308BB2A03080F
:10537000D32A0308D82A0308EE2A0308FA2A0308C6
:10538000FF2A0308042B0308092B0308C0E90A219C
:1053900000220263FFF70EBF10B500230446084643
:1053A000E3620B6821639B689847A0622046BDE8D2
:1053B0001040FFF7FFBEF0B4069FBDF81050BDF8D7
:1053C000146032B12BB10495CDE90567F0BCFFF74D
:1053D00028BDF0BC704700002DE9F04F99464369A5
:1053E00085B004460F4690462BB9294B7721294AB0
:1053F00029482AF065FD08228169FFF7ADFDA669FD
:1054000020463146FFF799FDB11C83462046FFF741
:1054100094FD311D82462046FFF77AFD06F1080112
:10542000A36A054642189A4226D243F230039B45AE
:1054300017D146F264339A4513D190B10246A16167
:105440002046FFF789FD0E9B01462A462046CDF8EF
:105450000080CDE901933B46FFF7ADFF636901335F
:105460006361A3692B4405B908330133626A23F0F1
:1054700001039342A36109D1012301206361236ADF
:10548000A36180F0010005B0BDE8F08F0020F8E7CF
:105490003F2903080E2B03087B28030801207047CF
:1054A0000C2070470C2303FB0100083070470C23CD
:1054B00003FB01000830704701207047C42070478B
:1054C000C42303FB010008307047C42303FB010021
:1054D00008307047012070471020704700EB011022
:1054E0000830704700EB011008307047084600F0A4
:1054F000DBBE0000034B10B50446036018F09EFCB1
:10550000204610BD1C2C030810B50446FFF7F2FF1F
:10551000142120462AF05DF9204610BD034B10B53A
:105520000446036018F08AFC204610BDE82B0308EF
:1055300010B50446FFF7F2FFCC2120462AF049F9C6
:10554000204610BD034B10B50446036018F076FCEE
:10555000204610BDB42B030810B50446FFF7F2FF38
:10556000182120462AF035F9204610BD084B10B509
:10557000044640F8F83BFFF7BDFF04F12C00FFF7AD
:10558000CDFF04F11400FFF7DDFF204610BD00BF82
:10559000502C030808B50248FFF7E8FF08BD00BF1C
:1055A000648B002410B50446FFF7E0FF4FF41C7134
:1055B00020462AF00EF9204610BD00002DE9F341E7
:1055C00000F0FAFC0024054600F0FAFC23460146F0
:1055D00022462846009420F03FF9274B274A2046D0
:1055E000274D1A6001F090F8264B274A27489A6009
:1055F0001FF0EAFF2B68BFF35B8FDB0735D428462B
:105600002AF0E9F888B3224C224B04F58A7604F19B
:10561000140004F12C0804F1F80723606060C4F85A
:105620000880E760266118F00BFC1B4B4046636165
:1056300018F006FC194B3846E36218F001FC184BD1
:1056400004F58670C4F8F83001F0D4F8224604F569
:105650008671304601F0C4F8304600F025FE11484E
:105660002AF04CFC28462AF0C2F80F4802B0BDE8E8
:10567000F041FFF77FB800BFCCD50124347D002472
:10568000608B0024547D0024387D00241401002404
:10569000648B0024502C0308B42B0308E82B030868
:1056A0001C2C030895550008AC7C002470470000B2
:1056B0000148FFF775B800BFAC7C002470B5274ED9
:1056C000274B284C3046284D2360FFF72FFB2846F8
:1056D00023F070F925481EF0ADF9254B00224FF458
:1056E000807124481A8683F858205A6683F87020FF
:1056F000DC60C3E912122049C3E91A121F490B608A
:105700004FF4F07101801E4801804FF488711D48EC
:1057100001801D4801801D49C3E90422C3E9062216
:10572000C3E90822C3E90A22C3E90E22C3E9102211
:10573000C3E91422C3E91722C3E901650A701449B9
:10574000C3F8802083F8342019605A671149C3F8E0
:105750008420114A9967DA6770BD00BFBC7D0024C0
:10576000E82203085C8B0024547D0024387D00244B
:10577000AC7C00245CD501240100000168D5012423
:1057800062D501245ED5012464D5012460D50124AD
:105790007424030800000101C02203080148FFF738
:1057A00057B900BFBC7D002400207047818070473E
:1057B000C1807047018170474181704770477047D1
:1057C00070477047704710B4C4880368121B848800
:1057D0005B6D091B12B25DF8044B09B218474FF616
:1057E000FF7383814FF0FF3303621368C36110605E
:1057F0007047002070478B88838001207047704776
:1058000080F82610704790F826007047002210B5E7
:10581000B1F90840B1F90A10028042808480C18049
:1058200010BD0022028042808280C28070470177D2
:10583000704780ED080A704780F82410704780F8A0
:105840002510704701207047983070478C307047A2
:105850008430704770470000034B902283F85A232E
:1058600083F85823704700BF00E100E0094A0A4965
:10587000D3680A48C3F30A03013B9BB20B8011694A
:10588000C1F30A01013901801364536B43F0010332
:105890005363704700100050D68D0024D48D00242F
:1058A000014BD3F8AC00704700100050024B0122AE
:1058B000C3F8AC105A627047001000500163C0E991
:1058C0000D21704770477047704700EB810011460B
:1058D00040680368DB68184780F83C10704710B5D3
:1058E0000446482129F075FF204610BD10B5044636
:1058F0002C2129F06EFF204610BD10B50446BC21B6
:1059000029F067FF204610BD38B5044618F095FD14
:1059100023685D6E1CF060FF01462046A84723689F
:10592000074A2046D3F8885000230649A847064B6B
:10593000064A5A60064A1A639A63064A5A6338BD91
:1059400000F40B7000FA0570988E0024E08E00249D
:1059500000EE117000FA050018F056BD18F01EBDDB
:1059600018F07FBE38B504460D46406C4FF0FF314D
:1059700009F07CF8606C09F09CF8242303FB0545D2
:10598000002385F8283094F828300BB9236BA363E3
:1059900038BD90F8252012B103685B69184770473D
:1059A000124A5369DB0370B51ED50023C2F8843058
:1059B000BFF34F8FD2F8803043F6E074C3F3C900D1
:1059C000C3F34E335B0103EA0406014646EA8175E0
:1059D0000139C2F87452F9D2203B13F1200FF2D1F1
:1059E000BFF34F8FBFF36F8F70BD00BF00ED00E0BE
:1059F00008B531B1044B4FF4B871044A04482AF099
:105A00005FFA90F8290008BD5C2C0308702C03088D
:105A1000FA2D030810B531B1064B4FF4B571064AA3
:105A200006482AF04DFA406811460368BDE8104068
:105A30001B6B18475C2C03083D2E0308FA2D030846
:105A400008B529B1034B7921034A04482AF038FAF2
:105A5000C06808BD5C2C0308EB2F0308FA2D03086F
:105A600010B5044629B1194BA221194A19482AF048
:105A700027FA052A15D8DFE802F0031115171C22B2
:105A8000406803681B69984758B1012384F829309E
:105A900084F82C300023C4E9043302E0002380F8AA
:105AA000293010BD0362F5E70362012380F82A3034
:105AB000F0E7002380F8293001230362F1E7003B7F
:105AC00018BF012380F82D30EBE700BF5C2C0308E2
:105AD000A0310308FA2D030810B50C4611461A46EA
