:020000040800F2
:1000000000000524954500089D2100089F21000857
:10001000A1210008A3210008A5210008000000007C
:1000200000000000000000000000000011F70008C0
:10003000A721000800000000A1F7000843EF000816
:10004000E5450008E5450008E5450008A921000848
:10005000E5450008E5450008E5450008E5450008D8
:10006000E5450008E5450008B5210008E54500081C
:10007000E5450008E5450008E5450008E5450008B8
:10008000E5450008E5450008E5450008E5450008A8
:10009000E5450008E5450008E5450008E545000898
:1000A000E5450008E5450008E5450008BD210008D4
:1000B000E5450008E5450008C9210008E5450008B8
:1000C000E5450008E5450008E5450008E545000868
:1000D000E5450008E5450008E5450008E545000858
:1000E000E5450008E545000800000000E54500087A
:1000F000E5450008E5450008E5450008E545000838
:10010000E5450008E5450008E5450008E545000827
:10011000E5450008E5450008D5210008E54500084B
:10012000E5450008E5450008E5450008E545000807
:10013000E5450008E5450008E5450008E5450008F7
:1001400000000000000000000000000000000000AF
:10015000E5450008E5450008E5450008E5450008D7
:10016000E5450008E5450008E5450008E5450008C7
:10017000E5450008E5450008E5450008E5450008B7
:10018000E5450008E5450008E5450008E5450008A7
:10019000E5450008E5450008E5450008E545000897
:1001A000E1210008E5450008ED21000800000000FD
:1001B000E5450008E5450008E5450008E545000877
:1001C000E5450008E54500080000000000000000CB
:1001D0000000000000000000E545000800000000ED
:1001E000000000000000000000000000000000000F
:1001F0000000000000000000E5450008E54500089B
:10020000E5450008E545000800000000E545000858
:10021000E5450008E5450008E5450008E545000816
:10022000E545000800000000E5450008000000006A
:10023000E5450008E545000800000000E545000828
:10024000E5450008E5450008E5450008E5450008E6
:10025000E5450008E5450008E5450008E5450008D6
:10026000E5450008E5450008E5450008E5450008C6
:10027000E5450008E5450008E545000800000000E8
:10028000E5450008E5450008E5450008E5450008A6
:1002900000000000E5450008E5450008E5450008C8
:1002A000E5450008E5450008E5450008E545000886
:1002B000E5450008E5450008E5450008F921000886
:0C02C00005220008E5450008E54500089F
:1002D00010B5054C237833B9044B13B10448AFF380
:1002E00000800123237010BD78010024000000006D
:1002F000281A030808B5034B1BB103490348AFF3A1
:10030000008008BD000000007C010024281A0308BA
:1003100001F0FF01102A2BDB10F0070F08D010F8B6
:10032000013B013A8B422DD010F0070F42B3F6D1BA
:10033000F0B441EA012141EA014122F007047FF0D3
:1003400000070023F0E80256083C85EA010586EA2A
:10035000010685FA47F5A3FA87F586FA47F6A5FA66
:1003600087F68EB9EED1F0BC01F0FF0102F0070272
:1003700032B110F8013B013A83EA010313B1F8D11D
:100380000020704701387047002D06BF35460338FE
:10039000073815F0010F07D1013015F4807F02BF37
:1003A000013015F4C03F0130F0BC0138704700BF88
:1003B00081F0004102E000BF83F0004330B54FEA16
:1003C00041044FEA430594EA050F08BF90EA020F83
:1003D0001FBF54EA000C55EA020C7FEA645C7FEA16
:1003E000655C00F0E2804FEA5454D4EB5555B8BF39
:1003F0006D420CDD2C4480EA020281EA030382EAAA
:10040000000083EA010180EA020281EA0303362D3B
:1004100088BF30BD11F0004F4FEA01314FF4801C0E
:100420004CEA113102D0404261EB410113F0004F20
:100430004FEA03334CEA133302D0524263EB4303D7
:1004400094EA050F00F0A780A4F10104D5F1200E75
:100450000DDB02FA0EFC22FA05F2801841F10001D0
:1004600003FA0EF2801843FA05F359410EE0A5F1A4
:1004700020050EF1200E012A03FA0EFC28BF4CF0D5
:10048000020C43FA05F3C01851EBE37101F000458B
:1004900007D54FF0000EDCF1000C7EEB00006EEB98
:1004A0000101B1F5801F1BD3B1F5001F0CD3490822
:1004B0005FEA30004FEA3C0C04F101044FEA445279
:1004C00012F5800F80F09A80BCF1004F08BF5FEA00
:1004D000500C50F1000041EB045141EA050130BDE0
:1004E0005FEA4C0C404141EB0101013C28BFB1F5F2
:1004F000801FE9D291F0000F04BF01460020B1FA3D
:1005000081F308BF2033A3F10B03B3F120020CDA0F
:100510000C3208DD02F1140CC2F10C0201FA0CF0ED
:1005200021FA02F10CE002F11402D8BFC2F1200C52
:1005300001FA02F120FA0CFCDCBF41EA0C01904008
:10054000E41AA2BF01EB0451294330BD6FEA040451
:100550001F3C1CDA0C340EDC04F11404C4F120023C
:1005600020FA04F001FA02F340EA030021FA04F34E
:1005700045EA030130BDC4F10C04C4F1200220FAA5
:1005800002F001FA04F340EA0300294630BD21FAE3
:1005900004F0294630BD94F0000F83F4801306BFA9
:1005A00081F480110134013D4EE77FEA645C18BF9D
:1005B0007FEA655C29D094EA050F08BF90EA020F34
:1005C00005D054EA000C04BF1946104630BD91EA2C
:1005D000030F1EBF0021002030BD5FEA545C05D12F
:1005E0004000494128BF41F0004130BD14F580046E
:1005F0003CBF01F5801130BD01F0004545F0FE41E2
:1006000041F470014FF0000030BD7FEA645C1ABF16
:10061000194610467FEA655C1CBF0B46024650EA4D
:10062000013406BF52EA033591EA030F41F4002179
:1006300030BD00BF90F0000F04BF0021704730B5FF
:100640004FF4806404F132044FF000054FF00001D4
:1006500050E700BF90F0000F04BF0021704730B595
:100660004FF4806404F1320410F0004548BF40426A
:100670004FF000013EE700BF42004FEAE2014FEABF
:1006800031014FEA02701FBF12F07F4393F07F4F9A
:1006900081F06051704732F07F4208BF704793F09D
:1006A0007F4F04BF41F40021704730B54FF46074B0
:1006B00001F0004521F000411CE700BF50EA0102B3
:1006C00008BF704730B54FF000050AE050EA01025C
:1006D00008BF704730B511F0004502D5404261EBCC
:1006E00041014FF4806404F132045FEA915C3FF40D
:1006F000D8AE4FF003025FEADC0C18BF03325FEAAA
:10070000DC0C18BF033202EBDC02C2F1200300FA5A
:1007100003FC20FA02F001FA03FE40EA0E0021FA7F
:1007200002F11444BDE600BF53B94AB9002908BF1D
:1007300000281CBF4FF0FF314FF0FF3000F06AB9C6
:10074000ADF1080C6DE904CE00F006F8DDF804E028
:10075000DDE9022304B070472DE9F047089D0C46FF
:10076000002B4ED194468C458646B2FA82F262D96D
:100770004AB1C2F12003914020FA03F30CFA02FCC3
:10078000194300FA02FE4FEA1C471FFA8CF6B1FB30
:10079000F7F44FEA1E4307FB141143EA014304FB3D
:1007A00006F199420AD91CEB030304F1FF3080F0F3
:1007B0001281994240F20F81023C6344591A1FFA98
:1007C0008EF3B1FBF7F007FB101143EA014300FB86
:1007D00006F69E420AD91CEB030300F1FF3180F0BC
:1007E000FC809E4240F2F980634402389B1B40EA41
:1007F000044000211DB1D3400022C5E90032BDE80C
:10080000F0878B4205D90DB1C5E9000100210846EA
:10081000F5E7B3FA83F1002946D1A34202D390420F
:10082000C0F0F080861A64EB03030120002DE6D0AF
:10083000C5E90063E3E7002A40F09080A1EB0C04D7
:100840004FEA1C481FFA8CF70121B4FBF8F64FEA77
:100850001E4308FB164443EA044307FB06F0984294
:1008600008D91CEB030306F1FF3402D2984200F2D0
:10087000CD8026461C1A1FFA8EF3B4FBF8F008FB55
:10088000104443EA044300FB07F79F4208D91CEBDE
:10089000030300F1FF3402D29F4200F2B0802046F1
:1008A000DB1B40EA0640A5E7C1F120068B4022FA97
:1008B00006F71F4320FA06FC04FA01F343EA0C038F
:1008C000F44000FA01F8380C4FEA1349B4FBF0FE8B
:1008D0001FFA87FC00FB1E4449EA04440EFB0CF996
:1008E000A14502FA01F20AD93C190EF1FF3A80F053
:1008F0008480A14540F28180AEF1020E3C44A4EB1D
:1009000009041FFA83F9B4FBF0F300FB134449EA2E
:10091000044403FB0CFCA44507D93C1903F1FF3048
:1009200067D2A44565D9023B3C4443EA0E40A0FB94
:100930000293A4EB0C049C42CE469C4651D34ED06D
:1009400055B1B8EB0E0364EB0C0404FA06F6CB4089
:100950001E43CC40C5E90064002150E7C2F12003EA
:1009600020FA03F10CFA02FC24FA03F394400C433E
:100970004FEA1C4800FA02FE1FFA8CF7B3FBF8F0AE
:1009800008FB1031230C43EA014300FB07F19942B5
:1009900008D91CEB030300F1FF362CD299422AD967
:1009A000023863445B1AA4B2B3FBF8F108FB1133BD
:1009B00044EA034401FB07F3A34208D91CEB0404F7
:1009C00001F1FF3613D2A34211D902396444E41A6B
:1009D00041EA004139E70446F0E6084606E7C84523
:1009E000AED2B9EB020E63EB070C0138A8E7314633
:1009F000EDE7034699E73046D4E7D6467FE7634400
:100A000002384DE70646234608460FE7023E634498
:100A100030E700BF704700BF0149002010F03EB82A
:100A2000914A000808B542F210700EF00AFBFAE78E
:100A300008B541F288300EF004FBFAE708B56420EF
:100A40000EF0FFFAFBE708B502F088FB03F026FD85
:100A500004200EF0F6FAF7E708B503F061FD0A206E
:100A60000EF0EFFAF9E70000094C0A4D08B52046F0
:100A700008F066F96421204607F0FAFD204607F0E9
:100A800085FE286002F084FA64200EF0DAFAEEE7C0
:100A90003C47002420480024094C0A4D08B5204654
:100AA00008F04EF90121204607F0E2FD204607F04C
:100AB0006DFE288001F010FE64200EF0C2FAEEE711
:100AC000AC4700242448002408B502F06DF941F237
:100AD00088300EF0B6FAF8E708B502F005FA4FF4E0
:100AE0007A700EF0AEFAF8E708B502F051FC02F0A9
:100AF000CBFB02F0B9FC01200EF0A3FAF5E708B534
:100B000001F0BCFC01F084FD4FF4FA700EF099FA8C
:100B1000F6E70000054C08B501F042FF01F05AFF6E
:100B2000206032200EF08DFAF6E700BF1C4800244A
:100B300008B502F003F84FF47A700EF082FAF8E785
:100B400007B54FF6FF730190012201A903480EF08B
:100B50009AF8019803B05DF804FB00BF50430024ED
:100B600010B59CB04C22002109A82FF0C9FF20220B
:100B7000002101A82FF0C4FF04200BF08DF8002302
:100B80000093214B9A6922F440429A619A6902F4D7
:100B900040420092009A9A699204FCD50BF046F804
:100BA0001A4A2C210024136F09A823F01803136795
:100BB0000D224FF480331B94CDE909230122022337
:100BC000CDE915120B920E9244221493CDE917230E
:100BD000CDE912330C23CDE919340BF09BF8032136
:100BE0003F2308204FF4806203947024CDE9013143
:100BF0004023CDE9040301A80893CDE906420BF098
:100C0000A5FB1CB010BD00BF0048025800440258AC
:100C100000B5AFB00021982208A82FF071FF124A4A
:100C200000231920CDE9002305225023CDE902231A
:100C300002238022CDE90433069307924FF4907289
:100C4000CDE90C331E230E934FF400731093202331
:100C500013934FF48033CDE90A02684628930BF0D2
:100C60005DFE2FB05DF804FB000008222DE98048EE
:100C7000A1B0102200214FF0E04A13A82FF040FF4E
:100C800008F078FB40F2011313A8ADF84C30D34BB9
:100C9000CDE914A3D24B169308F08AFB042008F088
:100CA00077FBD04B5A6912F4003211D1BFF34F8F4A
:100CB000BFF36F8FC3F85022BFF34F8FBFF36F8F17
:100CC0005A6942F400325A61BFF34F8FBFF36F8FFE
:100CD000C44A536913F4803323D1C2F88430BFF37C
:100CE0004F8FD2F8803043F6E074C3F3C900C3F3EA
:100CF0004E335B0103EA0406014646EA8175013979
:100D0000C2F86052F9D2203B13F1200FF2D1BFF3A9
:100D10004F8F536943F480335361BFF34F8FBFF359
:100D20006F8F07F031FC0024FFF71AFF0125FFF752
:100D30006FFF1422002113A82FF0E2FEAA4B48F205
:100D40000801AA48D3F8E02002274FF010084FF01E
:100D5000030A42F002024FF4806BA54E40F21529BF
:100D6000C3F8E020D3F8E02002F002020092009ADB
:100D7000D3F8E02042F04002C3F8E020D3F8E020AE
:100D800002F040020192019AD3F8E02042F00802FA
:100D9000C3F8E020D3F8E02002F008020292029AA1
:100DA000D3F8E02042F01002C3F8E020D3F8E020AE
:100DB00002F010020392039AD3F8E02042F00102FD
:100DC000C3F8E020D3F8E02002F001020492049A74
:100DD000D3F8E02042F00402C3F8E020D3F8E0208A
:100DE00002F004020592059AD3F8E02042F0800256
:100DF000C3F8E020D3F8E02002F080020692069AC1
:100E0000D3F8E02042F02002C3F8E0200022D3F81B
:100E1000E03003F020030793079B09F02FFB00222B
:100E20004FF44041734809F029FB00224FF48061E0
:100E3000714809F023FB00220121704809F01EFBD4
:100E4000082313A96E481595CDE9133409F098F9D4
:100E50004FF4005313A96B481597CDE9133409F0EB
:100E60008FF94FF4004313A96048CDE91335CDE95C
:100E7000154409F085F9202313A95C481595CDE99F
:100E8000133409F07DF94FF4881313A957481594CA
:100E9000CDE9138309F074F9082313A95348CDF859
:100EA00058A01594CDE9133509F06AF94FF4807311
:100EB00013A955481595CDE9133409F061F94FF49C
:100EC000404313A94B48CDE91335CDE9154A09F044
:100ED00057F913A94848CDE913B5CDE9154409F0F0
:100EE0004FF913A94548CDE91355CDE9154A09F045
:100EF00047F9224605210A2008F0EAF90A2008F0FD
:100F000019FA4248424B056203608480C0E90544F7
:100F100008F07AFA4FF440333E48C0E90063C0E974
:100F2000025408F0D2FA2146342213A82FF0E8FD2B
:100F3000394E3A4B4FF0280C4FF0350E40F2352227
:100F400030463461B48686F83640C6E90034092359
:100F5000C6E905C30B23C6E907E340F21B13C6E944
:100F6000099340F21D134FF00409C6E90B23C6E9AB
:100F7000024409F0D5FEFF214FF488734FF4F0725C
:100F80000520CDF868B04FF0180B1394ADF87C40F5
:100F90008DF87E40CDE918144FF0E041CDE91D23D6
:100FA000CDE91B01CDE9142413A9224630461C4E7D
:100FB000CDE9163509F0B1FF5A46214613A82FF0A6
:100FC0009FFD184B4FF080723046B460F463C6E961
:100FD00000392023C6E9032326E000BF1A000103DD
:100FE0000001010100ED00E0004402580018025821
:100FF0000010005200040258000C02580000025871
:101000000010025800080258001402581847002423
:10101000004C0258B04600245845002400100050EF
:10102000FC440024005000520823C6E90574C6E9B8
:101030000D34C6E90974C6E90744C6E90B440AF051
:10104000F9F84FF0011213A93046169202F57F020B
:101050001595179241F28832CDE913550AF076FBC7
:1010600030460AF05BF940F201122046D14EADF84D
:10107000382006F0E5FE0EA9204606F0D3FF2046F4
:1010800006F0A6FE5A46214613A82FF039FD424627
:1010900021460AA82FF034FD214614220EA82FF075
:1010A0002FFDC54A4FF0805C3046B460C6E9002988
:1010B0004FF08062C6E9032B17224FF6FF7BC6E98B
:1010C0000BC24FF4C872C6E90594C6E90974F2630D
:1010D000C6E90744C6E90D44CDE908440AF0AAF878
:1010E000B64A13A93046169202F57F021597179259
:1010F00041F28832CDE9137706270AF027FB41F247
:1011000088320AA93046CDF828A00D954FF4805AB0
:10111000CDE90B740AF064F94FF440520EA9304641
:1011200010924FF000521195129241F288320E94B3
:101130000F940AF07BF908A9304608940AF096FA51
:1011400003F026FA424621460EA89D4E2FF0D8FC09
:101150004246214613A80C94CDE90A442FF0D0FC56
:10116000984A3046B460C6E90024C6E903B4C6E92B
:1011700005440CF0B7FF0EA93046CDF838A00DF0AD
:10118000F1F830460CF0DEFF0AA930460C94CDE9A8
:101190000A440DF0B5FA0C2213A930468A4ECDE967
:1011A0001345CDE915440DF03FF8424621460EA8FF
:1011B0002FF0A6FC4246214613A80C94DFF8388293
:1011C000CDE90A442FF09CFC804A30463461B4617A
:1011D000C6E90024C6E9024B0CF084FF0EA9304694
:1011E000CDF838A00DF0BEF830460CF0ABFF0AA9E0
:1011F00030460A940C940DF083FA0C2213A9304661
:10120000734ECDE91345CDE915440DF00DF8214697
:10121000242213A81094CDE90E442FF071FC08236A
:101220004FF400223046B360F561348386F82040E5
:10123000346386F84440C6E90082C6E90449C6E939
:101240000A44C6E90F4407F07DFE0EA930460E940D
:1012500007F0C6FF40F2FF7213A9304615941894A8
:101260008DF86D405B4ECDE91629CDE9135707F097
:1012700091FA1422214613A82FF042FC564B4FF04E
:101280007F0930460E9434617461C6E90034FF234F
:10129000C6E90644C6E902930CF0C2FB43F212030E
:1012A0002A4613A9ADF84C304FF0200330468DF894
:1012B0004E30CDE916440CF00AFC484B2A460EA9E4
:1012C000304643F2F2250E930CF063FC2146304683
:1012D0000CF0A5FDA8420ED0224613A930460CF012
:1012E000F6FB22460EA930460CF053FC2A46214656
:1012F00030460CF08FFD3A4D00244FF4E133394A6B
:101300004FF00C0828462C61012604274FF00809ED
:10131000C5E90023C5E90244C5E90584C5E90744D8
:10132000C5E909440DF05FFD214628460DF0C9FDD1
:10133000214628460DF0E5FD28460DF0A7FD2A4D73
:101340002422214613A82FF0DBFB28494FF48023E9
:1013500028462C616F612C83EE6185F8204085F86A
:10136000384085F84440C5E90013C5E90294C5E951
:101370000A44C5E90C44C5E90F4407F0E3FD062320
:1013800013A92846139618941A94CDE9143440F200
:10139000FF73CDE9163707F0FDF91548154B0D22FF
:1013A0000682036002238474C0E907231F22C0E978
:1013B000053923E0A044002400A0005202000100EF
:1013C0003044002400000140E443002400080040B1
:1013D000AC4700247C44002400400058040410243E
:1013E00050430024004800403C470024006002585D
:1013F0001046002400D4004000200240C0E91763DA
:10140000C0E90B29C0E90244C0E90966C0E90D46FC
:10141000C0E90F66C0E91176C0E91376C0E9157618
:10142000C0E9194708F058F903F0DEF803F0DBF8DB
:1014300002F09CFF03F06AF801F0D2FA01F038FCE8
:1014400001F018FD01F006F801F040F900F034FF5A
:1014500001F0A0FA01F050FB41463B480DF04AF87C
:1014600041463A480DF046F801F0F2FC0DF076FDE9
:10147000374A214637480DF09DFD374B374A214604
:10148000186037480DF096FD364B374A21461860F4
:1014900036480DF08FFD364B364A214618603648E7
:1014A0000DF088FD354B364A2146186035480DF061
:1014B00081FD354B354A2146186035480DF07AFDDF
:1014C000344B354A2146186034480DF073FD344BD7
:1014D000344A2146186034480DF06CFD334B344AD1
:1014E0002146186033480DF065FD334B334A2146E1
:1014F000186033480DF05EFD324B334A21461860C8
:1015000032480DF057FD324B324A214618603248BE
:101510000DF050FD314B324A2146186031480DF034
:1015200049FD314B314A2146186031480DF042FDEA
:10153000304B314A2146186030480DF03BFD304BAE
:1015400018600DF01DFDFEE730440024E443002444
:10155000041E0308250A00084C430024E01D03086C
:10156000F74500089C400024BC1D03083D600008AE
:1015700098400024981D0308470A0008E82F00241B
:10158000741D0308590A0008382D0024501D030853
:10159000690A0008881C00242C1D0308990A000809
:1015A000D8190024081D0308310A00082817002450
:1015B000E41C0308C90A000878140024C01C0308AE
:1015C000D90A0008C81100249C1C0308E90A000875
:1015D000180F0024781C0308FF0A0008680C002478
:1015E000541C03083D0A0008B8090024301C0308F5
:1015F000150B0008080700240C1C0308310B000819
:101600005804002410B59EB0224809F0FDFA2022AB
:10161000002103A82FF074FA4C2200210BA82FF010
:101620006FFA0023029301931B4B9A6922F4404204
:101630009A619A6902F440420292029A9A6992046B
:10164000FCD50BA801240AF0EDFF4FF480330BA862
:10165000CDE90B43022314930AF05CFB01A903A814
:101660000BF042F80323019903A8049303940AF0B2
:101670006DFE00F089FD094800F07CF908482FF064
:101680003FF9084AD2F8D03043F48033C2F8D03062
:101690001EB010BD004600240048025858450024E2
:1016A000CC1A03080044025810B50C4C00220C4818
:1016B00021460CF0C2FA0B4B187028B9A378627857
:1016C000217809482FF0B4F8FFF74AFA00F05CFDE2
:1016D0000648BDE810402FF013B900BF9801002460
:1016E0007C44002494010024DD1A0308EE1A030848
:1016F00008B5134A002113482FF002FA4FF4F062A4
:10170000002111482FF0FCF90D4B104A00200D4923
:1017100006F086FA78B10E482FF08AF84FF4F0639D
:101720000C4A0020074906F07BFA30B10A48BDE8B0
:1017300008402FF07DB80948EEE70948F7E700BFF9
:1017400000FA050080EF177000E8177080070000AE
:10175000011B0308000000001F1B03080F1B0308E8
:101760002D1B03080268034B9A4201D106F03ABFD1
:10177000704700BF00100040704700000A4B82B065
:101780000F216FF00100D3F8F42042F00202C3F8F9
:10179000F4200022D3F8F43003F002030193019BFC
:1017A00002B007F095BD00BF00440258036884B042
:1017B000214A93421ED1214B4FF08071D3F8D8209B
:1017C00042F02002C3F8D820D3F8D82002F020023B
:1017D0000092009AD3F8E02042F00102C3F8E02022
:1017E000D3F8E03003F001030193019B084604B0F5
:1017F00006F01CBF124A93421BD1104B4FF0806180
:10180000D3F8E02042F08072C3F8E020D3F8E02063
:1018100002F080720292029AD3F8E02042F00402B1
:10182000C3F8E020D3F8E03003F004030393039BF4
:10183000DCE704B0704700BF0020024000440258BB
:1018400000600258026882B0094B9A420DD1A3F59C
:101850000063D3F8E02042F40022C3F8E020D3F87C
:10186000E03003F400230193019B02B0704700BFF6
:10187000004C02580F4B07B502689A4217D10E4B25
:1018800005215A20D3F8D42042F01002C3F8D42006
:101890000022D3F8D43003F010030193019B07F02A
:1018A00017FD5A2003B05DF804EB07F043BD03B009
:1018B0005DF804FB001000520044025810B5B6B0A9
:1018C00004461422002103A82FF01AF9B82200219F
:1018D00008A82FF015F92268234B9A4242D1002321
:1018E0004FF4004208A8CDE908234FF0805323931A
:1018F0000BF014F808B1FFF73FFF1C4B002403A9BD
:101900001B48D3F8EC2042F48072C3F8EC20D3F8E3
:10191000EC2002F480720192019AD3F8E02042F0A8
:101920002002C3F8E020C022D3F8E03003F0200307
:101930000293029B0223CDE90544CDE903230793DB
:1019400008F01EFC224605219F2007F0C1FC9F20C5
:1019500007F0F0FCA0202246052107F0B9FCA020EA
:1019600007F0E8FC36B010BD00D400400044025837
:10197000001402582DE9F0418EB0044614220021D3
:1019800009A82FF0BDF822686A4B9A4240F0CE8039
:10199000694B022603250E27D3F8E42009A96748DE
:1019A000002442F008024FF05808C3F8E420D3F8AE
:1019B000E42002F008020192019AD3F8E02042F0FC
:1019C0000202C3F8E020D3F8E02002F00202029203
:1019D000029AD3F8E02042F00802C3F8E020D3F8DE
:1019E000E02002F008020392039AD3F8E02042F0CC
:1019F0001002C3F8E020D3F8E02002F010020492B5
:101A0000049AD3F8E02042F00102C3F8E020D3F8B2
:101A1000E02002F001020592059AD3F8E02042F09E
:101A20004002C3F8E020D3F8E02002F04002069222
:101A3000069AD3F8E02042F08002C3F8E020D3F801
:101A4000E02002F080020792079AD3F8E02042F0EB
:101A50000402C3F8E020D3F8E03003F00403089355
:101A6000089B40F20333CDE90C57CDE9093608F065
:101A700087FB492309A932480D97CDE90936CDE9FD
:101A80000B4508F07DFB4BF6030309A92D480D9784
:101A9000CDE90936CDE90B4508F072FB4FF48073B0
:101AA00009A92948CDE909360D23CDE90B450D9348
:101AB00008F066FB4FF4814309A924480D97CDE94E
:101AC0000936CDE90B4508F05BFB48F6087309A918
:101AD0001F480D97CDE90936CDE90B4508F050FBBD
:101AE000C02309A91B480D97CDE90936CDE90B455F
:101AF00008F046FB09A914480D97CDE90986CDE900
:101B00000B4508F03DFB102309A91148CDE9093622
:101B10000923CDE90B450D9308F032FB40462246E0
:101B2000052107F0D5FB404607F004FC0EB0BDE8E8
:101B3000F08100BF00100050004402580004025819
:101B4000000C0258001002580000025800180258F9
:101B5000001C025800080258026808B5184B9A4247
:101B60002CD1184A40F203311748D2F8E43023F060
:101B70000803C2F8E43008F0E5FB4921134808F0F7
:101B8000E1FB4BF60301124808F0DCFB4FF4AC71AB
:101B9000104808F0D7FB4FF481410F4808F0D2FB02
:101BA00048F618710D4808F0CDFB0D48C02108F02B
:101BB000C9FB5820BDE8084007F0CABB08BD00BFFC
:101BC000001000500044025800040258000C025853
:101BD000001002580000025800180258001C025859
:101BE000000802582DE9F04391B004461422002168
:101BF0000BA82EF085FF2368884A934240F0B080FE
:101C0000874A13680133012B13600CD1854BD3F83D
:101C1000D42042F40012C3F8D420D3F8D43003F413
:101C200000130093009B7F4B022503240927D3F860
:101C3000D4200BA97C48002642F480424FF00A08C9
:101C40004FF00409C3F8D420D3F8D42002F4804222
:101C50000192019AD3F8E02042F04002C3F8E0205C
:101C6000D3F8E02002F040020292029AD3F8E0207A
:101C700042F00802C3F8E020D3F8E02002F00802A6
:101C80000392039AD3F8E02042F01002C3F8E02058
:101C9000D3F8E02002F010020492049AD3F8E02076
:101CA00042F02002C3F8E020D3F8E02002F0200246
:101CB0000592059AD3F8E02042F00202C3F8E02032
:101CC000D3F8E03003F002030693069B4FF4007351
:101CD000CDE90B35CDE90E4708F052FAB0230BA938
:101CE0005248CDF83C80CDE90B35CDE90D6408F0C4
:101CF00047FA0BA94E480F97CDE90B95CDE90D6436
:101D000008F03EFA40230BA94748CDF83C80CDE9C6
:101D10000B35CDE90D6408F033FA4FF460530BA98D
:101D200042480F97CDE90B35CDE90D6408F028FA4C
:101D30004FF480630BA93F480F97CDE90B35CDE9F0
:101D40000D6408F01DFA0BA93B48CDF83C80CDE9A5
:101D50000B95CDE90D6408F013FA11B0BDE8F083DE
:101D6000364A9342F9D12E4A13680133012B13608E
:101D70000CD12C4BD3F8D42042F40012C3F8D42059
:101D8000D3F8D43003F400130793079B254B0324A7
:101D900002250926D3F8D4200BA92348002742F4B2
:101DA0000022C3F8D420D3F8D42002F400220892F1
:101DB000089AD3F8E02042F04002C3F8E020D3F8BC
:101DC000E02002F040020992099AD3F8E02042F0A4
:101DD0002002C3F8E020D3F8E03003F020030A9398
:101DE0000A9B40F60303CDE90E46CDE90B3508F01A
:101DF000C7F94FF4A0530BA90B480F94CDE90B354D
:101E0000CDE90D7408F0BCF941F21F030BA9094894
:101E10000F96CDE90B35CDE90D749CE700500052CB
:101E2000284800240044025800180258000C0258A8
:101E300000100258001402580004025800A000527A
:101E4000274A08B5036893422AD1264B1A68013AFB
:101E50001A60254B2AB9D3F8D42022F40012C3F813
:101E6000D420D3F8D4204FF41071204822F48042BB
:101E7000C3F8D42008F066FA43F6B0011C4808F015
:101E800061FA04211B4808F05DFA4FF480611A489A
:101E900008F058FA04211948BDE8084008F052BA81
:101EA000174A93421AD10F4B1A68013A1A600E4B27
:101EB0002AB9D3F8D42022F40012C3F8D420D3F8DE
:101EC000D42041F60341094822F40022C3F8D4206B
:101ED00008F038FA41F21F010748DDE708BD00BFEE
:101EE00000500052284800240044025800180258AC
:101EF000000C025800100258001402580004025846
:101F000000A0005210B5AEB00446B82200216846C9
:101F10002EF0F6FD2268104B9A421AD100234FF49E
:101F200080026846CDE900234FF480732C930AF0B9
:101F3000F5FC08B1FFF720FC084A03200521136FC8
:101F400043F400431367002207F0C2F9032007F0AF
:101F5000F1F92EB010BD00BF0040005800440258F7
:101F60001422002110B58AB004460DEB02002EF0B9
:101F7000C7FD23682F4A93422ED12F4B4FF4804147
:101F80002E48D3F8F02042F00102C3F8F020D3F835
:101F9000F02002F001020192019AD3F8E02042F011
:101FA0001002C3F8E020D3F8E03003F010030293EE
:101FB000029B0223CDE905130793012305A9099389
:101FC00008F0DEF81B200022052107F081F91B2014
:101FD00007F0B0F90AB010BD194A9342FAD1164B76
:101FE00005A91848D3F8E82042F00402C3F8E82015
:101FF000D3F8E82002F004020392039AD3F8E02019
:1020000042F00802C3F8E0204FF40042D3F8E03079
:1020100003F008030493049B0223CDE905230993ED
:1020200008F0AEF81E200022052107F051F91E200D
:10203000CEE700BF000001400044025800100258E3
:1020400000080040000C025810B5B6B00446142237
:10205000002103A82EF054FDB822002108A82EF07C
:102060004FFD22681A4B9A4230D10222002308A861
:10207000CDE908230AF052FC08B1FFF77DFB154BB0
:1020800003A91548D3F8E82042F48022C3F8E820D9
:10209000D3F8E82002F480220192019AD3F8E020DC
:1020A00042F00802C3F8E0204FF44072D3F8E03069
:1020B00003F008030293029B0223CDE903230023CC
:1020C000CDE905330723079308F05AF836B010BD61
:1020D0000048004000440258000C02580F2810B578
:1020E00004468AB002D901200AB010BD0146002280
:1020F000362007F0EDF8362007F01CF9184B69463A
:1021000002A81C60174BD3F8E82042F01002C3F875
:10211000E820D3F8E83003F010030193019B0AF0A4
:10212000E3FA079BC3B90AF059FA0F4C0F4B23602F
:1021300040F2E733E3600E4BB0FBF3F001380023CD
:10214000606020462361A3600BF0CCFF0028CAD159
:1021500020460BF069FEC7E70AF040FA4000E4E7CA
:10216000AC000024004402582C4800240010004019
:1021700040420F00034B1A68D36823F00103D36079
:10218000704700BF2C480024034B1A68D36843F003
:102190000103D360704700BF2C4800247047FEE75E
:1021A000FEE7FEE7FEE7704701480BF01CBE00BFEC
:1021B0007C440024102008F06FB9000001480BF0A7
:1021C0007DBE00BF3044002401480BF077BE00BF45
:1021D000E443002401480BF071BE00BF2C480024EA
:1021E000014808F03DBE00BF58450024014807F0F3
:1021F000ABB900BFB0460024014807F059BE00BF8C
:1022000010460024FFF7F8BF0120704708B52EF0F4
:1022100081FD162303604FF0FF3008BD08B52EF096
:1022200079FD16230360FEE770B50D4614460E4691
:10223000731B9C4201DC204670BDAFF3008006F8A2
:10224000010BF5E770B50D4614460E46731B9C4214
:1022500001DC204670BD16F8010BFEF771FCF5E7B6
:102260004FF0FF3070474FF4005300204B60704731
:1022700001207047002070470B4A0346116810B5D3
:1022800009B90A491160106809490A4C0344091B3D
:102290008B4206D92EF03EFD0C2303604FF0FF3039
:1022A00010BD1360FCE700BF78480024D8AF0124BC
:1022B000000005240010000070B540F21113274CF7
:1022C00000254FF40002264940F2FF100126A560C8
:1022D0000D60CE60C4E900350823C4E903355223FC
:1022E000C4E9072340F2FF73C1E904031D48C4E9B0
:1022F0000555C1E9016607F0D9FB33461A4A214664
:10230000184807F08BFC3146164807F0B6FC2A4601
:102310003146144807F07EFD2A464FF480211148CB
:1023200007F078FD0F4C4FF470210E4807F0FAFBD0
:1023300031460C4807F00AFC40F65A42002120467C
:1023400007F018FC0028F7D1064807F02BFC0028FE
:10235000FAD10448BDE8704007F047BCB4480024F7
:10236000D84800241046002404000024234B0022F7
:1023700070B51A70CB0705463FD5214C4021214E40
:1023800023462148324607F089FC58B1FFF7F4F99B
:10239000002201211C4807F03DFD70B3BDE87040EC
:1023A000FFF7EAB9284607F010FC326840F2FF1345
:1023B0009A42EDD16278237802F00100134943EA92
:1023C0000023C2F3400043EA4023C2F3800043EA03
:1023D0008023C2F3C00043EAC023C2F30010C2F35B
:1023E000401243EA003343EA42330A8822F47F5220
:1023F00022F03F0213430B80CAE770BD81480024DE
:10240000824800248C480024104600247C48002484
:1024100010B50A4C00224FF480210948237801337B
:10242000237007F0F7FC08B1FFF7A6F92378054AF7
:102430001E2B94BF00230123137010BD814800247C
:102440001046002480480024014B1868704700BFE4
:102450007C4800240549064B0A7806481A704A78D9
:10246000054B1A7000220BF0E8BB00BF184900248E
:102470002E4900247C4400242D49002438B5074D02
:102480000022074C074928460BF0D7FB002220709A
:10249000284605490BF0F4FB207038BD7C4400242D
:1024A00010490024184900241149002410B5084C93
:1024B0000848627821782EF0BBF9214600220648B0
:1024C0000BF005FB0548BDE810402EF019BA00BF1F
:1024D000FC480024281E03087C440024411E0308F5
:1024E00010B5052824D8DFE800F003171B2C243191
:1024F000224C23482EF004FA2146002221480BF0FA
:102500009CFB2178204B62781970204B20481A7070
:10251000BDE810402EF08CB9BDE81040FFF7C6BFF3
:102520001C4A13780133DBB2022B08BF002313705F
:1025300010BD194B002219481A70BDE810402EF04A
:1025400077B9154B012216481A70F6E7114B1B7824
:102550004BB90A4A182113780133DBB2B3FBF1F00F
:1025600001FB1033E3E7012BE2D1044A5378013336
:10257000DBB23C2B08BF00235370D9E7FC48002492
:10258000561E03087C4400242E4900242D490024B3
:102590006C1E03082C490024F8480024861E0308FA
:1025A0009B1E0308164B10B41B787BB9154B1822E1
:1025B00019780131C9B2B1FBF2F002FB10111248D7
:1025C000C9B219705DF8044B2EF032B9012B06D157
:1025D0000C4A53780133DBB23C2B03D053705DF8C7
:1025E000044B704713781820002101335170DBB27F
:1025F000B3FBF0F400FB143304481370E2E700BFB0
:102600002C490024FC480024AD1E0308C91E030801
:1026100008B5074B1A78012A06D1FFF7C3FF054812
:10262000BDE808402EF004B900221A7008BD00BFB2
:10263000F8480024E71E03081249134A0B780133B7
:10264000DBB2042B0B7006D900230B7000230F485C
:1026500013702EF055B9013B032BF7D8DFE803F0D8
:1026600002060A0E01230A481370F2E70223094802
:102670001370EEE7032308481370EAE704230748C2
:102680001370E6E72F49002430490024041F030893
:102690001A1F03082E1F0308421F0308591F0308AF
:1026A000014B1878704700BF30490024054B642265
:1026B0001B68534340F6FF72B3FBF2F3024A136008
:1026C000704700BF8049002484490024014B002248
:1026D0001A7070478B4900242DE9F84F9B4C2578E0
:1026E000012D3ED0022D7FD0002D68D1984E1E21A5
:1026F000984B32781B88984FDFF884C227F8123045
:102700000132B2FBF1F001FB1020BCF80020307068
:102710001344924E9BB23288ACF80030013292B230
:102720001D2A328083BF37F810004FF0010E8C4D08
:10273000294681BFB3FBF1F11B1A85F800E0ACF824
:1027400000301D2A874B198039D901F089FE0128F4
:1027500035D1834B1B78012B31D10022328023707D
:102760002DE0814D7F4A2B881288804F934236BFDF
:10277000D21A9B1A93B24FF0010228BF9BB23A7053
:1027800040F2323293421CD86FF4CC710B44B3F553
:10279000CD7F2CBF02230323754A764E137033700E
:1027A00001F05EFE01280AD13B78012B07D1337876
:1027B000714E9A1E012A06D8022222703370BDE89B
:1027C000F88F0023E8E74FF48051002000F0C0FCB0
:1027D00000F082FC002000F0B3FC2860FFF766FFE9
:1027E000022323700423E9E7634F614E3A7833787C
:1027F000022ADFF87091DFF87081DFF888A179D0C4
:10280000032A51D0012A0FD19AF80020DFF878B1BD
:102810009A421EBF594B00221A80BBF80030D8F8EC
:102820000020B3F5967F25D933788AF80030494BDC
:102830001A88B8F80030A9F800209A428ABFD21A44
:102840009B1A93B240F2323298BF9BB2934278D82F
:102850006FF4CC721344B3F5CD7F74D203252B46AD
:10286000444A337013703D7001F0FAFD0228A6D17E
:10287000002374E7B9F80010914203D10023ABF8AC
:102880000030D1E7013340F211110220ABF80030E3
:1028900000F05EFC00F020FC002000F051FCC8F8C5
:1028A0000000FFF703FFB8E79AF80020DFF8DCB07C
:1028B0009A421EBF314B00221A8040F6B832BBF854
:1028C0000030D8F800109342AED8B9F80000884222
:1028D000D4D0013388216420ABF8003000F038FCFC
:1028E00000F0FAFB002000F02BFCC8F80000FFF716
:1028F000DDFEE2E79AF80020DFF894B09A421EBFAE
:102900001E4B00221A8042F22832BBF80030D8F861
:102910000010934288D8B9F800008842AED0013345
:1029200088214FF49670ABF8003000F011FC00F0F5
:10293000D3FB002000F004FCC8F80000FFF7B6FE4F
:10294000E1E701258BE702238AE700BF8B490024DA
:1029500031490024244800244249002440490024ED
:102960003D49002488490024804900243C49002432
:1029700032490024344900248A490024A04A002412
:102980003E490024334900243A49002438490024B0
:1029900036490024014B00221A60704790490024F8
:1029A00010B50A4CFFF750FD206001F059FDC0B290
:1029B00001280AD1064922880B88C2F30B0223F4AE
:1029C0007F6323F00F0313430B8010BD8C49002459
:1029D00090490024014B1868704700BF90490024BB
:1029E0000023024A1370024A13707047A949002459
:1029F000A849002438B50D4B0D4D19682A690D4CB6
:102A000010462160116001F0C5FA50B92B690A48DF
:102A100019682DF00DFF21680848BDE838402DF0F9
:102A200007BF07482DF06CFFF5E700BF944900246D
:102A30000C0000249C490024701F0308AC1F0308ED
:102A40008F1F030838B50D4B0D4D19686A690D4C81
:102A500010462160116001F09DFA50B96B690A4877
:102A600019682DF0E5FE21680848BDE838402DF0D2
:102A7000DFBE07482DF0DCFEF5E700BF94490024D7
:102A80000C00002498490024B61F0308D11F030836
:102A9000C91F03080A4B1B783BB90370094B186820
:102AA000094B984228BF184670470123074A037014
:102AB000074B1868904282BF013200201A607047AD
:102AC000A8490024A4490024FF90F500FE90F500D9
:102AD000A0490024054B1A78002A0DBF01220022CC
:102AE000034804481A702DF00BBF00BFA84900240A
:102AF000DB1F0308E51F03080A4900220A4808B53E
:102B00000BF0BEF8094B0146187010B108482DF0C3
:102B10008FFE044B074A997811705A78064B1A7049
:102B200008BD00BFBE4900247C440024C2490024E3
:102B3000F11F0308BB490024BA4900242DE9F843DA
:102B40003148FFF7A7FF314A41F28731304C136813
:102B5000C31A8B422F4920D9012310600B702E4BD2
:102B600018602378BBB12D4B2D4D19782D4B1B7858
:102B7000994234BF5B1ACB1ADBB20F2B2B700AD1F0
:102B8000002310602370284C2370284B1970284BA9
:102B90001978284B1970BDE8F883274DDFF88CC0F1
:102BA000AB789CF80080DFF874E06E789845204F91
:102BB0008EF800303E701C4B0DD1DFF8789099F8FC
:102BC0000050B54207D01D7889F8006001351D70AE
:102BD000144D85F800801D78062D04BF0125257051
:102BE0000D78002DBDD00C4D2D68451B632DB8D937
:102BF000002510601D709EF800300D708CF80030BC
:102C000039780C4B1970ACE7B4490024B049002462
:102C1000BD490024BC490024AC490024B949002422
:102C2000B5490024B6490024B7490024BB49002413
:102C3000B8490024BA490024BE490024114B4FF47E
:102C40007A721A604FF461620F4B1A6064220F4B64
:102C50001A6001220E4B1A6005220E4B1A603C22AC
:102C60000D4B1A70C8220D4B1A6032220C4B1A7091
:102C700010220C4B1A7028220B4B1A707D220B4B22
:102C80001A607047144A0024104A00240C4A002499
:102C9000084A0024044A0024004A0024FC49002475
:102CA000F1490024F0490024F8490024F4490024A3
:102CB0000023034A1370034A1370FFF7BFBF00BF1E
:102CC000194A0024184A002410B50020002400F0FE
:102CD00099FA054A034605491060054A4C60106898
:102CE0001360181A086010BDE4490024E849002464
:102CF000E049002408B5FFF7E7FF0F4B0F4A1860C3
:102D00000F4B10491B680968B0FBF3F313600E4AC0
:102D1000126853430D4A13600D4A126853430D4A1B
:102D200013600D4A12684A430C49B3FBF2F30A6080
:102D30000B4A136008BD00BFD4490024D8490024C1
:102D4000084A0024104A00240C4A0024DC490024CC
:102D5000144A0024D0490024044A0024CC49002409
:102D6000C849002408B5FFF7C5FF064B064A1B7883
:102D700012685343054A1278B3FBF2F3044A136016
:102D800008BD00BFF0490024C8490024F1490024CF
:102D9000C4490024034B1B780BB9FFF7ABBFFFF707
:102DA000E1BF00BF184A002408B501F059FBC0B2CA
:102DB000022805D10023044A1360044A136008BDA9
:102DC000BDE80840FFF7E6BFC8490024C449002415
:102DD00010B5044698B90B4B4FF480610A481A6845
:102DE000936943F001039361012207F047FB074811
:102DF00001224FF4004107F041FB204610BD6FF067
:102E00000100FBE758450024000C02580018025846
:102E100010B5044698B90B4B4FF480611A6893695A
:102E200023F0010393610246074807F027FB074898
:102E300022464FF4004107F021FB204610BD6FF001
:102E40000100FBE758450024000C02580018025806
:102E500008B50020FFF7DCFF4FF47A7005F0D4FBD3
:102E60000020FFF7B5FF4FF47A70BDE8084005F089
:102E7000CBBB0000064B1A68537843F040035370F5
:102E80000122044B1A700022034B1A60704700BFE6
:102E90001C4A00241A4A0024384A002410B5012094
:102EA000002400F0AFF90A4B0A4A186013680A4977
:102EB000C31A10604C600B6008490B6008498B42D4
:102EC00036BF3C214FF0FF334B4306490B6010BD2A
:102ED000304A0024344A0024284A0024204A00248E
:102EE00044444404384A002408B501F0B9FAC0B299
:102EF000022803D1034B00221A6008BDBDE8084038
:102F0000FFF7CCBF384A002473B540F201131B4CC5
:102F10000020ADF8043004F093FF01A9002005F073
:102F200081F818BB164C002004F022FF10BB00F003
:102F3000C5FE10B113482DF07BFC0024124D134E3A
:102F400001F01AF82A682146104601F023F810B162
:102F500030462DF06DFC6A682146104601F01AF8E3
:102F600010B130462DF064FC0234EBE720462DF022
:102F70005FFCD2E720462DF05BFCD4E70E2003086F
:102F800028200308472003080C00002458200308C9
:102F9000454B2DE9F74F93F800C00025434B012026
:102FA000AB462F46B3F80080414B1988414B1A7845
:102FB000414BB3F800E02B461C46B0B90CB13C487D
:102FC000018015B13C49A1F800E0BBF1000F02D02F
:102FD000354981F800C00FB136490A7013B1374B3B
:102FE000324A1A6003B0BDE8F08FFF2A14BF1346BF
:102FF0006346022B019318D8581CC0B2C3005FFA75
:1030000080F91E462E4B33F830A0C2450DD8B9F1D9
:10301000030F2ED02B4B33F806A0C24526D8013023
:103020005FFA80F9B9F1040FE8D1019B013BDBB2F3
:10303000022B06D8224800EBC300B0F80290C1452D
:1030400022D2FF2A4FF00103B8D071454FF00000A3
:1030500035BFC9189B461346FF2339BF624689B264
:1030600000215F4694461A460123A5E7B9F1040FF3
:10307000DBD0134B4A4603EBC903B3F804E0012449
:10308000002125462746DCE73BB130F8069CC145C8
:1030900003D3013B0838DBB2CFE7094A02EBC30296
:1030A000B2F806E01A46EAE7984A002420480024CD
:1030B0008C4A0024904A00248E4A0024944A00241A
:1030C000B4200308BC20030810B9024B18787047DD
:1030D000FF207047984A0024F0B51348134D01882B
:1030E0002B88134C994207D1002323800022114BD7
:1030F0001860114B1A70F0BD104E22883788974225
:1031000002D0531C9BB2F0E79942728806D85E1A2F
:10311000B24201DC9B1A99B22980E5E7CE1A9642A9
:10312000FADB1A4491B2F7E788490024A24A002446
:10313000A04A00249C4A0024994A0024A44A00245E
:1031400010B9024B1888704700207047A24A00242B
:10315000014B188059807047A44A002438B54FF4B9
:103160008071144807F084F920210546124807F0C1
:103170007FF908214400114807F07AF9104944EA20
:103180008504104D0C2264B22B782043C8540133BF
:10319000FF20DBB22B70013A11F8014B12F0FF0255
:1031A00000EA0400F7D108490B2B087088BF2A7089
:1031B00038BD00BF00140258001802580010025811
:1031C000AA4A0024A94A0024A84A0024014B1878DE
:1031D000704700BFA84A002408494FF6FF7231F833
:1031E0001030934203F1010310B508BF044C21F8DD
:1031F000103002BF225C0132225410BDBE4A0024AE
:10320000BC4A00240128064A08D8064B06491B5C24
:1032100031F81010C3EB03430B4413601068704780
:10322000B84A0024BC4A0024BE4A00240368064A67
:10323000934202D10020FFF7CFBF044A934201D14D
:103240000120F8E7704700BF00000140000800407F
:1032500008B50C2104480BF0F7F918B1BDE8084097
:10326000FEF78ABA08BD00BF3044002408B50C211F
:1032700004480BF03FF918B1BDE80840FEF77CBAEE
:1032800008BD00BF304400242DE9F8430226002584
:10329000DFF8E0803446334F013CE4B258F8243084
:1032A00003B11D78012D31D12F4A52F82430591C19
:1032B00010D001332D4942F8243006226243881889
:1032C000B0F804C063450DD1294B53F824300BB13D
:1032D000042098473D550124A64201D1BDE8F8835A
:1032E0002646D9E74088834206D1214B53F8243043
:1032F000002BEFD00220ECE78A5A9342EAD11C4B14
:1033000053F82430002BE5D00020E2E7002DE1D176
:103310003B5DDFF85490012B11D11448062259F877
:10332000243002FB040251888B420CD392889342D2
:1033300009D20F4B53F824300BB1032098470023D8
:1033400049F82430C6E706226243825A9342F6D3F4
:103350008B42F4D2064B53F82430002BEFD00120DF
:10336000ECE700BFCC4A0024C44A0024DC20030858
:10337000D4200308E8200308014B1870704700BFF1
:103380005D000024014B1870704700BF5C000024F2
:1033900010B50A4C01F08AF8207001F08FF8084B44
:1033A000084A1870B0FA80F023784009B3FA83F322
:1033B0005B091370044B187010BD00BFE04A002475
:1033C000DF4A0024DE4A0024DD4A0024034B1B7838
:1033D000012B06BF024B1878FF207047DC4A0024FF
:1033E0005D000024034B1B78012B06BF024B1878AD
:1033F000FF207047DC4A00245C00002408B5FFF77A
:10340000E5FF0246FFF7EEFF012A07D111482DF034
:1034100077FA0220FFF764F8002008BD022A04D1E1
:103420000D482DF06DFA0120F4E7012804D10B4876
:103430002DF066FA0520EDE7032804D108482DF0A9
:10344000F7F90420E6E70228E6D106482DF0F0F966
:103450000320DFE7F0200308082103081F210308E9
:1034600038210308572103082DE9F041524E534CEF
:1034700032782378012A524D1FD1012B0ED1FF2320
:1034800033702370FFF726FB4E482DF039FA32785F
:103490002B78022A4BD1012B49D109E02B7823B993
:1034A000FFF7CAF848482DF02BFA2B78012B01D1F1
:1034B000FFF7A4FFFF23337039E0012B1FD12B78D6
:1034C000ABB9FFF7EDF8032806D1FF232370FFF710
:1034D00091FA3E482DF014FAFFF7E2F8042806D1DD
:1034E000FF232370FFF7AEFA39482DF009FA2B7845
:1034F000012BCCD1FFF782FFFF232370C7E7022AFD
:1035000020D1022B1ED10020FEF7EAFF2B78002BE2
:10351000BDD1FFF773FF2F482DF0F2F901232B7077
:1035200005F06CF82C4B1860FF2333702370227861
:103530002B78022A27D1012B3CD1FFF75FFFFF2315
:10354000237022E02B78012BA1D1244B1F78244B30
:103550001B781F439BD105F051F8224BDFF88C807C
:1035600018601D4B1B68C01A43F697239842C8F891
:1035700000008CD91C482DF0C3F9FEF797FF2F707F
:10358000C8F8007083E7032AD5D02B78012B11D11E
:1035900033780BB123786BB9144B00221A6005F015
:1035A0002DF8104B186005F029F80B4B1860FF231D
:1035B00033702370BDE8F0815D0000245C000024BE
:1035C000DC4A002473210308F6200308A421030821
:1035D000C6210308E8210308D44A0024DE4A002457
:1035E000DD4A0024D04A002418220308D84A0024C7
:1035F0002DE9F04F89B0002305466946CDE9003337
:10360000CDE90233CDE90433CDE9063300F0D7FC30
:1036100018B1012009B0BDE8F08F01A9281D009E56
:1036200000F0CDFC0028F4D102A905F10800019CAE
:1036300000F0C5FC0028ECD103A905F10C00DDF871
:10364000088000F0BCFC0028E3D104A905F11000BB
:10365000039F00F0B4FC0028DBD105A905F114009C
:10366000DDF810A000F0ABFC0028D2D106A905F1CE
:103670001800DDF8149000F0A2FC0028C9D107A9B9
:1036800005F11C00DDF818B000F099FC0028C0D14D
:10369000079BB3F1FF3F08BFBBF1FF3F11D1B9F169
:1036A000FF3F08BFBAF1FF3F0DD1B7F1FF3F08BFA1
:1036B000B8F1FF3F09D104EA0600013018BF01202C
:1036C000A8E70420A6E70320A4E70220A2E7000061
:1036D00030B500F57F5485B04FF0AA33013930344E
:1036E00005462403CDE90033CDE90233032912D87E
:1036F000DFE801F002141F306946204600F055FC57
:1037000008B1022008E06946201D00F04EFC0028A8
:10371000F7D1164B1D70002005B030BD01A904F192
:10372000080000F042FC0028EBD101A904F10C00D4
:10373000EBE702A904F1100000F037FC0028E0D10B
:1037400002A904F1140000F030FC003818BF012079
:103750004000E1E703A904F1180000F026FC00286E
:10376000CFD103A904F11C00EDE700BFE14A00241A
:103770000A4808B5FFF73CFF04280BD00848FFF7BC
:1037800037FF042808D1064800F023FC003818BF92
:10379000012008BD0148F7E70520FAE70000FF0314
:1037A0000010FF032DE9F341002407460E464FF0B9
:1037B0001108CDE90044B44203D3404602B0BDE84D
:1037C000F081E51969460834284600F0F8FB01A9A4
:1037D000281DA4B200F0F3FB019B1BBADA17B2F16B
:1037E000FF3F08BFB3F1FF3F18BF4FF01008E2E7FB
:1037F00008B560B14FF480511548FFF7D3FF10288A
:103800000FD1134800F0E5FB58B1012008BD104866
:1038100000F0DFFB0028F8D10E4800F0DAFB38B1E9
:10382000F3E74FF480510B48FFF7BCFF1028F3D0AB
:1038300002210020FFF74CFF08B10220E6E7064B0B
:1038400020221880054B1870054B1A60DEE700BF78
:103850000000FF030010FF03E24A0024E14A0024B5
:10386000600000242C4B2DE9F0411C7843F6F078E1
:103870000746651C04EB080005F001050003FFF78F
:10388000B7FE064605EB08000003FFF7B1FE012F67
:1038900007D0022F3DD08FB9022E11D0012E0DD1AD
:1038A0001FE0022E1FD11D4E40F6F57332689A427A
:1038B00006D9042807D1FFF75BFF20B14FF0FF3492
:1038C0002046BDE8F08103212046FFF701FF0028D4
:1038D000F4D102212846FFF7FBFE0028EED1202379
:1038E00033602C46ECE7012EE8D10C4E3368B3F57B
:1038F000805FE5D3042807D003212046FFF7E8FEC8
:103900000028DBD10121E5E7FFF732FF0028F3D0E3
:10391000D4E70028E5D0D1E7E14A00246000002484
:103920002DE9F04F064685B000200F46CDE9020094
:10393000ADF80400FFF796FFB0F1FF3F814650D08D
:1039400000F57F54DFF8A480303424032046FFF7CD
:103950004FFE831EDBB2022B01D907201AE0D8F8F4
:1039600000A004F1040BBAF11F0F0BD809F10109F3
:1039700009F0010909F57F54303424032046FFF78C
:1039800037FEE6E702A90BEB0A0000F018FB05463C
:1039900018B180B205B0BDE8F08F029B5A1C1DD053
:1039A0001BBA9E421AD1A24403A9504600F007FB5D
:1039B0002A46042103A8039C00F088FD01A90646BD
:1039C0000AF1080000F000FBBDF804305BBA9BB2BE
:1039D000B34208D124BA28463C60DBE7AAF10A0AC0
:1039E000C1E70320D6E74FF48170D3E760000024DD
:1039F0002DE9F0430BBA85B0274E0746029303BA70
:103A0000884603933388B3F5CB7F41D20120FFF77B
:103A100029FF431C3ED000F57F54204D0421002295
:103A2000303402A800F052FD43BA240381462868CE
:103A300002A9ADF80430204400F0B7FA18B1012013
:103A400005B0BDE8F083414615482CF0F1FE28682A
:103A500003A90430204400F0A8FA0028EFD1394629
:103A600010482CF0E5FE286801A90830204400F039
:103A7000A1FA04460028E2D149460B482CF0D8FEB2
:103A80002B6820460A332B60338801333380D7E715
:103A90001220D5E70320D3E7E24A00246000002487
:103AA0003322030848220308572203082DE9F04F68
:103AB000B2F1000A87B04FF0000507460CBF0220A4
:103AC000012001910595CDE90355FFF7CBFE431C7D
:103AD000044600F0D0806A4E2023DFF8B091358094
:103AE000684DC9F800302870BAF1000F10D00134C9
:103AF00004F0010404F57F5030300003FFF778FD37
:103B000002280ED104212046FFF7E2FD58B104E05F
:103B10000121FFF7DDFD0028E9D0022007B0BDE854
:103B2000F08F04283DD184F0010443F6F07B04EBD0
:103B30000B000003FFF75CFDC31EDBB2012B24D991
:103B4000BAF1010F32D001993846FFF751FF002832
:103B5000E3D14D4C2068B8420BD003A9FFF7E0FE3B
:103B6000002840F0848003992068FFF741FF002877
:103B7000D4D102212878FFF7ABFD0028CDD1FFF783
:103B8000F7FD002818BF0520C8E7032802D084F0FD
:103B90000104CCE704212046FFF79AFD0028F6D067
:103BA000BBE7BAF1010F68D1032866D14FF0000AD4
:103BB0004FF0200843F6F07B5446287805A9584476
:103BC00008EB003000F0FBF9287804A9584408EB12
:103BD0000030043000F0F3F905A90022013224027C
:103BE00011F8010B042A44EA1A6440EA0A2AF5D1C2
:103BF00004A900220132240211F8010B042A44EA2C
:103C00001A6440EA0A2AF5D1B4F1FF3F08BFBAF1BD
:103C1000FF3F0DD0328808F10A0801323280D9F80E
:103C200000200A32C9F8002041F206029045C4D1B2
:103C30002C7843F6F079013404F0010404EB090018
:103C40000003FFF7D5FC03287FF47DAF84F001006B
:103C50003388484403F5CB7300033380FFF7C8FC77
:103C6000032802BF338803F5CB7333806BE7072843
:103C70003FF47FAF52E7042050E70A204EE700BF31
:103C8000E24A0024E14A00240C00002460000024E1
:103C900038B504460D46FFF7ABFE122806D129467B
:103CA00020460022BDE83840FFF700BF38BD431E64
:103CB000033301D8FFF7ECBF082070472DE9F74F19
:103CC00005467E48FFF794FC431EDBB2012B42D928
:103CD000C31E00265C425C417948FFF789FC431E05
:103CE000DBB2012B55D9032838D1C4F10104002ED1
:103CF0004DD07248FFF77CFC01284CD07048FFF78C
:103D000077FC0128044604D16C48FFF771FC0028B9
:103D100047D06A48FFF76CFC022854D16848FFF787
:103D200067FC002851D1674B012418706448FFF7E5
:103D30005FFC02284DD0032808BF0126002C53D178
:103D4000701C604B022100F001001870FFF7C0FCEE
:103D5000002849D017E000240126BDE7CEB964B39E
:103D60003446013404F0010404F57F543034200358
:103D7000FFF73EFC0428BCD1701C01210840FFF76E
:103D8000A7FC0028B5D0022003B0BDE8F08F0126C3
:103D9000E7E70026ADE74A48FFF72AFC044600287B
:103DA000ACD10021474B012208461C70FFF77EFE74
:103DB000B0F5807FADD00C20E6E7204603B0BDE82B
:103DC000F04FFFF715BD032801D00024AEE7002611
:103DD000FBE73A48FFF70CFC0028AFD10CB10A20F2
:103DE000D2E7384B01221A70374E4FF00009374F97
:103DF0002024DFF8D080A6F800903C6098F80000FE
:103E000043F6F07B01A9584404EB0030CDE900995A
:103E100000F0D5F898F80000DDF804A06946584491
:103E200004EB0030043000F0CAF8BAF1FF3F009B09
:103E30000CD001330AD033880A34013333803B6815
:103E40000A333B6041F206039C42D7D198F80070D8
:103E50007C1C012F04F0010404F57F5000F13000B8
:103E60004FEA003008D9FFF7C3FB0328B7D13388E6
:103E7000274603F5CB73338098F8004043F6F0787B
:103E8000013404F0010404EB0806BC424FEA063694
:103E900001D1002078E745B9304600F09AF810B912
:103EA00084F00104EFE701206EE74FF480513046C3
:103EB000FFF778FC1028F3D1EEE700BF0000FF0306
:103EC0000010FF03E14A0024E24A002460000024BD
:103ED000F0B5002087B00290ADF804000390CDE962
:103EE0000400FFF7BFFC431C3FD000F57F54303483
:103EF00024032046FFF77CFB022802D0002007B0F5
:103F0000F0BD04F1240504F580541A4F0A3404A9C5
:103F1000284600F054F8049B1BBA0293029B01331D
:103F20001FD005A9281F00F04AF8059B0022042194
:103F30001BBA05A8039300F0C9FA01A90646281D7B
:103F400000F042F8BDF8042052BA92B296420ED167
:103F500003993346029A38462CF06AFC029B039A76
:103F60001A600A35A542D2D1C8E70320C7E74FF44B
:103F70008170C4E76322030808B55022034904484E
:103F80002CF0F5FEBDE80840FFF7A2BF642003084F
:103F90003C4A002438B50D461446FFF788FE08B9A0
:103FA000256038BD4FF6FB70FBE702460423002076
:103FB00003F056BE02460223002003F051BE024623
:103FC0000423002003F02CBE02460223002003F04D
:103FD00027BE00220146104603F09ABE38B50024E1
:103FE000044DE3B2013455F8233003B938BD984786
:103FF000F7E700BFCC22030838B50024044DE3B234
:10400000013455F8233003B938BD9847F7E700BFAE
:10401000C422030838B50024044DE3B2013455F836
:10402000233003B938BD9847F7E700BFBC22030827
:1040300038B50024044DE3B2013455F8233003B9F8
:1040400038BD9847F7E700BFB422030838B500240D
:10405000044DE3B2013455F8233003B938BD984715
:10406000F7E700BFAC22030838B50024044DE3B2E3
:10407000013455F8233003B938BD9847F7E700BF3E
:10408000A422030838B50024044DE3B2013455F8E6
:10409000233003B938BD9847F7E700BF9C220308D7
:1040A00008B50020FFF710F8431E5842584108BDDC
:1040B00008B50020FFF708F8831E5842584108BD94
:1040C00008B50020FFF700F8C31E5842584108BD4C
:1040D00008B50020FEF7F8FFB0FA80F0400908BDEF
:1040E00038B500200024074DFEF7EEFF01460648D4
:1040F0002CF09EFBE3B2013455F8233003B938BDF0
:104100009847F7E7D42203089022030870477047C6
:1041100070477047704770477047704738B5002444
:10412000044DE3B2013455F8233003B938BD984744
:10413000F7E700BF7823030838B50024044DE3B245
:10414000013455F8233003B938BD9847F7E700BF6D
:104150007023030838B50024044DE3B2013455F848
:10416000233003B938BD9847F7E700BF6823030839
:1041700038B50024044DE3B2013455F8233003B9B7
:1041800038BD9847F7E700BF6023030838B500241F
:10419000044DE3B2013455F8233003B938BD9847D4
:1041A000F7E700BF5823030838B50024044DE3B2F5
:1041B000013455F8233003B938BD9847F7E700BFFD
:1041C0005023030838B50024044DE3B2013455F8F8
:1041D000233003B938BD9847F7E700BF48230308E9
:1041E00008B500F03DF9431E5842584108BD000093
:1041F00008B500F035F9022805D1044B1888031FD3
:104200005842584108BD0020FCE700BF640000246C
:1042100008B500F025F9022806D1044B1888A0F152
:1042200008035842584108BD0020FCE76400002400
:1042300008B500F015F9022806D1044B1888A0F142
:1042400010035842584108BD0020FCE764000024D8
:10425000014B1888704700BF64000024102802D169
:10426000034B188003E00828FAD00428F8D07047E0
:104270006400002470470000042008B5FFF7EEFF3B
:104280000248BDE808402CF03BBB00BFE023030818
:1042900008B50D4809F06EFD002249F640410A4874
:1042A00009F00CFD08B1FDF767FAFDF763FF07F0B1
:1042B000EBFC064806F0A0FD0121084607F0BEFC15
:1042C000014809F057FDFEE77C44002458450024CE
:1042D00008B5FFF7BDFF0428094A08D1138841F645
:1042E000641101339BB28B4203D0138008BD0023BD
:1042F000FBE7002310201380BDE80840FFF7AEBFA6
:10430000E44A0024704770470820FFF7A7BF000069
:1043100008B5134BD3F8D020D1001BD4D3F8D0204C
:10432000520117D40F4A526AD00705D50E4808210A
:1043300006F0A9F8062008BDD3F8D02091020BD4CE
:10434000D3F8D020520209D4D3F8D000C0F3C05023
:104350008000F0E70320EEE70120ECE70520EAE724
:1043600000440258004802580008025810B5FFF7F0
:10437000CFFF044606281BD8DFE800F004121A100D
:10438000141618000B482CF0BBFA0B4A2046D2F842
:10439000D03043F48033C2F8D03010BD0748F2E784
:1043A0000748F0E70748EEE70748ECE70748EAE781
:1043B0000748E8E7F5230308004402580A240308E5
:1043C0002224030841240308732403088C240308CF
:1043D000AF24030838B50024044DE3B2013455F886
:1043E000233003B938BD9847F7E700BFDC24030842
:1043F00038B50024044DE3B2013455F8233003B935
:1044000038BD9847F7E700BFD424030838B5002427
:10441000044DE3B2013455F8233003B938BD984751
:10442000F7E700BFCC24030838B50024044DE3B2FD
:10443000013455F8233003B938BD9847F7E700BF7A
:10444000C424030808B5FEF7C1FE6FEA900000F02F
:10445000010008BD08B5FEF7B9FEC0F3800008BD35
:10446000002000F04DB8000008B505482CF048FACF
:10447000FEF7FCFEFEF748FDBDE80840FDF738B941
:104480002025030808B503482CF03AFABDE8084097
:10449000FEF7DEBE442503087047704708B5FEF7F7
:1044A00095FE014B187008BDE64A0024024B1878AF
:1044B00000F00100704700BFE64A0024024B187864
:1044C000C0F34000704700BFE64A002403460144A1
:1044D000104670B541F221058B4200D170BD13F832
:1044E000012B082480EA022006B24200002E90B27E
:1044F00004F1FF32B8BF684012F0FF04F4D1EBE7DB
:10450000014B33F810007047E84A0024034B0222A5
:104510001A805A8004229A80704700BFE84A00241B
:104520002DE9F84F184E0025DFF860804FF00C0998
:1045300058F8357036F802BB0FB34FF0000A05E0AB
:10454000A368E3B198471AE00AF1010A5FFA8AF317
:1045500009FB03F3FC18FB5A8BB113EA0B0FF3D0E2
:1045600063885B45ECD06368002BEDD0984700284A
:10457000EAD0A36803B19847638826F8023C013566
:10458000032DD5D1BDE8F88FE84A00247025030833
:1045900070470000DFF834D003F0A0FF002103E0F3
:1045A0000B4B5B58435004310A480B4B42189A425C
:1045B000F6D30A4A02E0002342F8043B084B9A4231
:1045C000F9D32CF0ADFBFCF751FB7047000005243C
:1045D0005C730308000000247401002478010024A7
:1045E000D8AF0124FEE7704708B501F0F7F8BDE841
:1045F000084001F07BB801F0F3B8406870474160B3
:10460000704700004FF0E022D2F8FC3D43F0807389
:10461000C2F8FC3D054B064AD3F8B01F0A43C3F865
:10462000B02F1A6842F001021A607047001000E0D3
:1046300055CEACC5521A02EB5302B2FBF3F07047F1
:10464000014B5868704700BF001000E0704710B57C
:1046500004460C212BF0B1FB204610BD036810B5B9
:104660001B69044631B19847A26863689B1A0344EA
:10467000636010BD9847A060FBE770471FB5082333
:1046800000206946CDE90230054B1B880093054B9D
:104690001B88019303F040FE05B05DF804FB00BFEA
:1046A000BAA30124BCA3012410B5044604212BF0B5
:1046B00084FB204610BD30B585B000200D46144661
:1046C00001A90390CDE9010003F0A8FE40B14FF02D
:1046D000500383F31188BFF36F8FBFF34F8FFEE753
:1046E000019820B1029B01202B60039B236005B041
:1046F00030BD0000032825D8DFE800F0020B131CB2
:10470000114B012111481A68B2FA82F2520905F0E0
:10471000B5BE0D4B08210E485A68B2FA82F2520912
:10472000F5E7094B4FF480419A68B2FA82F25209D8
:104730000848ECE7044B4FF40041DA68B2FA82F221
:104740005209F5E7704700BFF04A00240000025804
:104750000018025800040258032825D8DFE800F0AA
:10476000020B131C114B012111481A68003A18BFA3
:10477000012205F083BE0D4B08210E485A68003A0D
:1047800018BF0122F5E7094B4FF480419A68003ABF
:1047900018BF01220848ECE7044B4FF40041DA68E7
:1047A000003A18BF0122F5E7704700BFF04A002425
:1047B000000002580018025800040258032811D8BB
:1047C000DFE800F00206090D0121074805F05BBE95
:1047D00008210648FAE74FF480410548F6E74FF410
:1047E0000041FAE7704700BF000002580018025865
:1047F0000004025808B5032815D8DFE800F0020AC3
:104800000D110121094805F033FE431E584258415D
:1048100008BD08210648F6E74FF480410548F2E755
:104820004FF40041FAE70020EFE700BF0000025814
:10483000001802580004025870B5084D00240126E3
:10484000E0B2FFF7D7FF18B12B68012B18BF2E601D
:1048500001340435052CF3D170BD00BFF04A0024AB
:10486000012380F8781080F8793070470020704775
:1048700041640039024B18BF01211970704700BF15
:10488000BFA3012400207047836B0BB10846184773
:1048900070474FF6FF707047406803689B69184780
:1048A0007047000038B5044601F0C6F80749236890
:1048B00004F17C052046D3F88C3098472846FFF752
:1048C000A1FE0123256184F8703038BD000000701E
:1048D00008B503680446D3F880309847236820461B
:1048E0009B6F984700F02CF9236820461B6F984770
:1048F00001224FF48061084805F0C0FD01224FF409
:104900000041064805F0BAFD00F01AF92368204678
:104910001B6F9847F8E700BF000C025800180258B8
:1049200010B504461AF0BCFD23682046D3F8AC301D
:10493000BDE81040184701F04BB801F04FB8000037
:1049400070B501F0A3F810490023C1F88430BFF31B
:104950004F8FD1F8803043F6E074C3F3C900C3F33E
:104960004E335B0103EA0406024646EA8275013AC9
:10497000C1F87452F9D2203B13F1200FF2D1BFF3EA
:104980004F8FBFF36F8F70BD00ED00E000F0FCBFF4
:1049900001F0E6B901F0EEB901F000B819F0ECBF92
:1049A00010B5044688212BF008FA204610BD0000FF
:1049B00090F834100D4B10B590F878401A788C426E
:1049C00009D03AB90A490B4A088814881080012294
:1049D0000C801A7010BD002AFCD0064A04491488C5
:1049E00008880C8010800022F3E700BFB8A30124E0
:1049F000B6A30124B4A3012470B50D46194635B9F8
:104A0000094B40F2D221094A09482BF04DFDC0E97B
:104A10000F52003A074B18BF01221A700368BDE815
:104A20007040D3F88C301847C4250308FC250308D0
:104A30004A260308BEA3012408B5094B1B888B42F4
:104A400003D8084B1B88934205D9074B9E21074A80
:104A500007482BF029FD074B1980074B1A8008BD2A
:104A6000B4A30124B6A301248F260308F226030869
:104A70004A260308BAA30124BCA30124034690F8E4
:104A80007A0018B1586803681B681847704700001F
:104A9000014608B5034B186801B101211AF01AFD4F
:104AA000012008BDC0A301240121002208B5084649
:104AB0000AF04AFB0A4B186028B90A4B28210A4A17
:104AC0000A482BF0F1FC0022042101200AF0DBFB54
:104AD000074B186018B9074B2C21034AF0E708BDB3
:104AE000044B0024102803085928030888280308C9
:104AF000004B0024ED280308024B4FF0FF311868EB
:104B00000AF06CBB044B0024014B18680AF092BBFE
:104B1000044B0024024B002118680AF05FBB00BF61
:104B2000044B0024FFF7F0BF0023034803491A4653
:104B300000680AF0E3BB00BF004B002468000024BB
:104B400013B50023074C01A91A4620680AF007FC98
:104B50004FF0FF33002201A920680AF000FC02B0E8
:104B600010BD00BF004B002403685B6C1847012098
:104B7000704703689B6A184740F2EF3070470000A7
:104B8000054B4FF080620360044BC3F88820BFF3ED
:104B90004F8FBFF36F8F7047A42A030800E100E036
:104BA00010B504464FF45A61FFF7EAFF20462BF098
:104BB00004F9204610BD00000F4B82B0D3F8D4207A
:104BC00042F01002C3F8D420D3F8D42002F010022F
:104BD0000192019ADA6F42F01002DA67DA6F22F07E
:104BE0001002DA67054B064A1A62064B4FF08062E4
:104BF0009A6002B0704700BF00440258B0460024DB
:104C00004D4E000800E100E008B50A2809D8DFE8A9
:104C100000F006100E0808080810101010000220FE
:104C200008BD054B8621054A05482BF03DFC0020B8
:104C3000F6E70120F4E700BF2F2903084A290308FB
:104C40009529030838B50C46887FFFF7DDFF124B26
:104C5000A58AE28A586342EA054221695A64628B56
:104C6000D963521B1A642568082D0ED19A611A6106
:104C700058620A4A207F42EA0062DA61E2681A62F8
:104C8000074A5961D9601A6038BD0022D8611A619B
:104C9000E2689A63034AF6E7001000520900010037
:104CA000010202000102030008B50B280BD8DFE85F
:104CB00000F00612100A0A0A0A080808080802206A
:104CC00008BD0520FCE7054B6521054A05482BF08A
:104CD000EBFB0020F4E70120F2E700BF2F290308D7
:104CE000F8290308952903082DE9F8434F7F8946E1
:104CF0003846FFF7D9FF99F81E5080462846FFF73F
:104D0000D3FF06462846FFF77FFFB9F81410B9F81D
:104D10001A40B9F81820454B641A521A1C649C6159
:104D20001A61B9F81620586342EA0142D9F8101006
:104D30005A64D9F80420D963DA60D9F8004099F8A8
:104D40001C20802C22D00FD8202C66D0402C64D080
:104D5000042C5CD048EA0260344BAF4240F400308F
:104D6000D86160D0324A3FE0B4F5807F04D0B4F51A
:104D7000007FEFD12F4800E02F4840EA0262DA615D
:104D8000D9F80C201A625E6259612CE048EA026090
:104D9000D9F8084040F40030D8615E625961211DA5
:104DA000D962217841B1012921D0244B4FF480717F
:104DB000234A24482BF078FBDA69618822F47F4289
:104DC000013922F0100242EA0122DA610122174B76
:104DD000D96941F02001D961D9698906FCD4102133
:104DE0009960002ABED0184A1A60BDE8F883D969D4
:104DF000FF3A608821F47F4118BF0122013821F079
:104E0000100141EA002141F01001D961DFE748EAD1
:104E1000026242F40032DA61B5E748EA0262034B0B
:104E200042F40032F7E740F20122DDE700100052C1
:104E300001020100090002000A000200422A0308E0
:104E40005C2A03089529030801020200024B1B6833
:104E5000586803685B691847C0A3012470B504460D
:104E60000A4B0C300026254660226060267266726E
:104E700045F8203B29461AF083FC04F55A63EE609E
:104E800024359D42FBD1204670BD00BFA42A0308F3
:104E9000034B1A68D207FCD423229A60704700BFE4
:104EA0000010005230B5104C2568ED07FCD42325C6
:104EB0000904FF2BA5604FF0010541EA0501656378
:104EC0006164E0630CD0094922F07F42656241EAE7
:104ED0000363E361064B22626061E060236030BDE2
:104EE000E561044BA263F9E70010005209000100DC
:104EF00001000200010003004069704790F844007F
:104F00007047036B23B9C06A003818BF012070478F
:104F10000120704780687047043010B50C460FC8F8
:104F200084E80F0010BD704708B5034A40F2122113
:104F3000024B03482BF0B8FAEC2A03088F4503080C
:104F4000472B030810B5044648212AF036FF2046B7
:104F500010BD2DE9F0411E46ADF51E7D436B0746A1
:104F60000C469046A69D93B3002203A8CDE90132DA
:104F700012F04EFA4FF4F4725021249024A80CF051
:104F800014FA4246214624A80DF068F9012124A80C
:104F90000CF006FB022324A88DF8D8300CF0A1FBFE
:104FA000419BBDF89482BDF89022984528BF984651
:104FB0002B9B9A4228BF1A4602EB4204479B984516
:104FC00009D824A80CF00EFB24A80CF03BFA0DF530
:104FD0001E7DBDE8F081012201A924A80CF0CAFBC6
:104FE00030462246796B2E442BF0C1FEE6E70000E6
:104FF0000A4A02600022C0E90522C0E90722C0E98E
:105000000922C0E90B22C0E90D12C0E90F2280F885
:105010004420C0E90322C0E901227047402E030862
:1050200010B40C4611461A46036B3BB1036C806BFF
:10503000E41A20445DF8044B2BF06ABDC06AF8E71F
:10504000036B10B573B1036C826BC91A5318525CB1
:1050500098785C780004DB7840EA0420104340EA4A
:10506000036010BDC36A5858FBE7036B43B1036C80
:10507000C91A836B5A18585C527840EA022070476C
:10508000C36A585A7047000070B50446006B0D465D
:105090001646D8B1E36B934208D209230D4A652125
:1050A0000D4884F844300D4B2BF0FEF90368DB68A3
:1050B0009847206B3246A16B03681B69984710B96B
:1050C0000D2384F84430A06B256470BDE06A084469
:1050D000FBE700BFC92B0308472B0308B62B0308C7
:1050E0002DE9F843436904462BB9234BAA21234AEF
:1050F00023482BF0D9F908228169FFF7C5FFA16980
:1051000043F2300646F2643704312046FFF798FF39
:10511000A3691844A36A00F108029A4206D3012346
:1051200000206361236AA361BDE8F88363690930E5
:105130000822013320F0010120466361A161FFF7DD
:10514000A3FFD4F8189020464946FFF78EFF09F1D7
:10515000020180462046FFF788FF09F10401054659
:105160002046FFF76DFFB045D2D1BD42D0D1002817
:10517000CED00120D8E700BF0B2C0308542C030825
:10518000472B03082DE9F04F0546ADF51F7D8B46F3
:105190009046816908221F46FFF776FFAE692846D0
:1051A000311DFFF74DFF06F108010246044628466F
:1051B000FFF76AFF6B6B064633B9344B40F2AB1115
:1051C000334A34482BF070F9002203A8CDE90132AC
:1051D00012F01EF94FF4F4725021249024A80CF020
:1051E000E4F82246314624A80DF038F8012124A81D
:1051F0000CF0D6F9022324A88DF8D8300CF071FAFF
:10520000BBF902A0479B53452DD3BBF8063007EBF3
:105210004707BBF80260BBF900401E44BBF80420FE
:10522000419B04EB440936B2224407FB0A9A9E4292
:1052300012B2D04428BF1E462B9B9A4294BFC4EBA7
:105240000204C4EB030404EB4404479BB34210D3B1
:1052500024A80CF0C7F924A80CF0F4F801200DF5EF
:105260001F7DBDE8F08F012201A924A80CF082FA6D
:10527000C8E7012201A924A80CF07CFA696B40461A
:1052800022464944B8442BF072FDDEE7872C030820
:10529000DD2C0308472B03080129036838BF0121CF
:1052A000DB6A70B50D4604469847A84204D22368CD
:1052B0002046DB6A984705466B1EE66910222046A9
:1052C00006EB031606F10801FFF7DEFE06F11001FA
:1052D0002046FFF7B5FE236A043B0344C4E90553A7
:1052E00070BD0000002148222DE9F0410446816193
:1052F00080F84410FFF7C8FEA6690423624A3146CD
:105300002046FFF78DFE40B10323604AF22184F866
:1053100044305F4B5F482BF0C7F806F108010423C7
:105320005D4A2046A161FFF77BFE30B10423574A56
:10533000FA2184F84430594BECE706F10C010423C0
:10534000574A2046A161FFF76BFE074638B1052397
:105350004E4A40F2011184F84430524BDAE706F12C
:1053600010012046FFF76CFE054620B94E4B40F277
:105370000711464ACEE706F1140804234B4A20469B
:105380004146FFF74DFE002849D0062384F84430FB
:105390000423474A06F118012046FFF741FE002882
:1053A0003FD0072384F844304544424F0C22204626
:1053B0002946FFF769FE05F1080604233A46204610
:1053C0003146FFF72DFE94F84430002848D0002BDA
:1053D00048D1A36AAB4249D805F10C0304352046F5
:1053E000A3612946FFF72CFE30442946606220461F
:1053F000FFF726FE0644042220463146FFF744FE0E
:1054000004232D4A31462046FFF70AFE002838D1F2
:105410000123E6616361A3692362BDE8F08101278E
:10542000B6E7002FC0D006F120012046FFF708FEA6
:105430004FF47A7306F13001B0FBF3F06060204660
:10544000FFF7FEFD06F14001A0602046FFF7F8FDE2
:1054500006F14401E0602046FFF7F2FD2061A3E77A
:10546000002BB9D00A2384F84430D6E7291D204602
:10547000FFF7E6FD85190C2220462946FFF704FEBA
:1054800099E70B23EFE700BF372D0308552D0308DD
:105490003C2D0308472B0308822D0308872D0308A2
:1054A0009F2D0308A42D0308BA2D0308C62D030859
:1054B000CB2D0308D02D0308D52D0308C0E90A2100
:1054C00000220263FFF70EBF10B500230446084612
:1054D000E3620B6821639B689847A0622046BDE8A1
:1054E0001040FFF7FFBEF0B4069FBDF81050BDF8A6
:1054F000146032B12BB10495CDE90567F0BCFFF71C
:1055000028BDF0BC704700002DE9F04F9946436973
:1055100085B004460F4690462BB9294B7721294A7E
:1055200029482AF0C1FF08228169FFF7ADFDA6696D
:1055300020463146FFF799FDB11C83462046FFF710
:1055400094FD311D82462046FFF77AFD06F10801E1
:10555000A36A054642189A4226D243F230039B457D
:1055600017D146F264339A4513D190B10246A16136
:105570002046FFF789FD0E9B01462A462046CDF8BE
:105580000080CDE901933B46FFF7ADFF636901332E
:105590006361A3692B4405B908330133626A23F0C0
:1055A00001039342A36109D1012301206361236AAE
:1055B000A36180F0010005B0BDE8F08F0020F8E79E
:1055C0000B2C0308DA2D0308472B03080120704732
:1055D0000C2070470C2303FB0100083070470C239C
:1055E00003FB01000830704701207047C42070475A
:1055F000C42303FB010008307047C42303FB0100F0
:1056000008307047012070471020704700EB0110F0
:105610000830704700EB011008307047084600F072
:10562000DBBE0000034B10B50446036018F0FAFE21
:10563000204610BDE82E030810B50446FFF7F2FF20
:10564000142120462AF0B9FB204610BD034B10B5AB
:105650000446036018F0E6FE204610BDB42E030891
:1056600010B50446FFF7F2FFCC2120462AF0A5FB37
:10567000204610BD034B10B50446036018F0D2FE5F
:10568000204610BD802E030810B50446FFF7F2FF38
:10569000182120462AF091FB204610BD084B10B57A
:1056A000044640F8F83BFFF7BDFF04F12C00FFF77C
:1056B000CDFF04F11400FFF7DDFF204610BD00BF51
:1056C0001C2F030808B50248FFF7E8FF08BD00BF1C
:1056D000C059002410B50446FFF7E0FF4FF41C71D9
:1056E00020462AF06AFB204610BD00002DE9F34158
:1056F00000F0FAFC0024054600F0FAFC23460146BF
:1057000022462846009420F09BFB274B274A204640
:10571000274D1A6001F090F8264B274A27489A60D7
:1057200020F046FA2B68BFF35B8FDB0735D42846A1
:105730002AF045FB88B3224C224B04F58A7604F10B
:10574000140004F12C0804F1F80723606060C4F829
:105750000880E760266118F067FE1B4B40466361D6
:1057600018F062FE194B3846E36218F05DFE184BE4
:1057700004F58670C4F8F83001F0D4F8224604F538
:105780008671304601F0C4F8304600F025FE11481D
:105790002AF0A8FE28462AF01EFB0F4802B0BDE8FA
:1057A000F041FFF77FB800BF24A40124904B0024F0
:1057B000BC590024B04B0024944B00246C000024FE
:1057C000C05900241C2F0308802E0308B42E0308A0
:1057D000E82E0308C5560008084B00247047000057
:1057E0000148FFF775B800BF084B002470B5274E7D
:1057F000274B284C3046284D2360FFF72FFB2846C7
:1058000023F0CCFB25481EF009FC254B00224FF469
:10581000807124481A8683F858205A6683F87020CD
:10582000DC60C3E912122049C3E91A121F490B6058
:105830004FF4F07101801E4801804FF488711D48BB
:1058400001801D4801801D49C3E90422C3E90622E5
:10585000C3E90822C3E90A22C3E90E22C3E91022E0
:10586000C3E91422C3E91722C3E901650A70144988
:10587000C3F8802083F8342019605A671149C3F8AF
:105880008420114A9967DA6770BD00BF184C002464
:10589000B4250308B8590024B04B0024944B0024CD
:1058A000084B0024B4A3012401000001C0A301247B
:1058B000BAA30124B6A30124BCA30124B8A30124E4
:1058C00040270308000001018C2503080148FFF769
:1058D00057B900BF184C00240020704781807047E2
:1058E000C1807047018170474181704770477047A0
:1058F00070477047704710B4C4880368121B8488CF
:105900005B6D091B12B25DF8044B09B218474FF6E4
:10591000FF7383814FF0FF3303621368C36110602C
:105920007047002070478B88838001207047704744
:1059300080F82610704790F826007047002210B5B6
:10594000B1F90840B1F90A10028042808480C18018
:1059500010BD0022028042808280C28070470177A1
:10596000704780ED080A704780F82410704780F86F
:105970002510704701207047983070478C30704771
:105980008430704770470000034B902283F85A23FD
:1059900083F85823704700BF00E100E0094A0A4934
:1059A000D3680A48C3F30A03013B9BB20B80116919
:1059B000C1F30A01013901801364536B43F0010301
:1059C0005363704700100050325C0024305C0024A8
:1059D000014BD3F8AC00704700100050024B01227D
:1059E000C3F8AC105A627047001000500163C0E960
:1059F0000D21704770477047704700EB81001146DA
:105A000040680368DB68184780F83C10704710B5A1
:105A1000044648212AF0D1F9204610BD10B50446AD
:105A20002C212AF0CAF9204610BD10B50446BC212D
:105A30002AF0C3F9204610BD38B5044618F0F1FF2E
:105A400023685D6E1DF0BCF901462046A847236817
:105A5000074A2046D3F8885000230649A847064B3A
:105A6000064A5A60064A1A639A63064A5A6338BD60
:105A700000F40B7000FA0570F45C00243C5D002417
:105A800000EE117000FA050018F0B2BF18F07ABFEE
:105A900019F0DBB838B504460D46406C4FF0FF31C5
:105AA00009F010FB606C09F030FB242303FB054573
:105AB000002385F8283094F828300BB9236BA363B2
:105AC00038BD90F8252012B103685B69184770470C
:105AD000124A5369DB0370B51ED50023C2F8843027
