:020000040800F2
:100000000000052461400008C5250008C725000838
:10001000C9250008CB250008CD25000800000000F8
:10002000000000000000000000000000E1EC0008FB
:10003000CF2500080000000071ED000813E500085E
:10004000B1400008B1400008B1400008D1250008C7
:10005000B1400008B1400008B1400008B1400008BC
:10006000B1400008B1400008DD250008B14000089B
:10007000B1400008B1400008B1400008B14000089C
:10008000B1400008B1400008B1400008B14000088C
:10009000B1400008B1400008B1400008B14000087C
:1000A000B1400008B1400008B1400008E525000853
:1000B000B1400008B1400008F1250008B140000837
:1000C000B1400008B1400008B1400008B14000084C
:1000D000B1400008B1400008B1400008B14000083C
:1000E000B1400008B140000800000000B140000825
:1000F000B1400008B1400008B1400008B14000081C
:10010000B1400008B1400008B1400008B14000080B
:10011000B1400008B1400008FD250008B1400008CA
:10012000B1400008B1400008B1400008B1400008EB
:10013000B1400008B1400008B1400008B1400008DB
:1001400000000000000000000000000000000000AF
:10015000B1400008B1400008B1400008B1400008BB
:10016000B1400008B1400008B1400008B1400008AB
:10017000B1400008B1400008B1400008B14000089B
:10018000B1400008B1400008B1400008B14000088B
:10019000B1400008B1400008B1400008B14000087B
:1001A00009260008B14000081526000800000000DC
:1001B000B1400008B1400008B1400008B14000085B
:1001C000B1400008B140000800000000000000003D
:1001D0000000000000000000B14000080000000026
:1001E000000000000000000000000000000000000F
:1001F0000000000000000000B1400008B14000080D
:10020000B1400008B140000800000000B140000803
:10021000B1400008B1400008B1400008B1400008FA
:10022000B140000800000000B140000800000000DC
:10023000B1400008B140000800000000B1400008D3
:10024000B1400008B1400008B1400008B1400008CA
:10025000B1400008B1400008B1400008B1400008BA
:10026000B1400008B1400008B1400008B1400008AA
:10027000B1400008B1400008B14000080000000093
:10028000B1400008B1400008B1400008B14000088A
:1002900000000000B1400008B1400008B140000873
:1002A000B1400008B1400008B1400008B14000086A
:1002B000B1400008B1400008B14000082126000804
:0C02C0002D260008B1400008B1400008E5
:1002D00010B5054C237833B9044B13B10448AFF380
:1002E00000800123237010BD2002002400000000C4
:1002F0007010030808B5034B1BB103490348AFF363
:10030000008008BD000000002402002470100308D3
:1003100001F0FF01102A2BDB10F0070F08D010F8B6
:10032000013B013A8B422DD010F0070F42B3F6D1BA
:10033000F0B441EA012141EA014122F007047FF0D3
:1003400000070023F0E80256083C85EA010586EA2A
:10035000010685FA47F5A3FA87F586FA47F6A5FA66
:1003600087F68EB9EED1F0BC01F0FF0102F0070272
:1003700032B110F8013B013A83EA010313B1F8D11D
:100380000020704701387047002D06BF35460338FE
:10039000073815F0010F07D1013015F4807F02BF37
:1003A000013015F4C03F0130F0BC0138704700BF88
:1003B00081F0004102E000BF83F0004330B54FEA16
:1003C00041044FEA430594EA050F08BF90EA020F83
:1003D0001FBF54EA000C55EA020C7FEA645C7FEA16
:1003E000655C00F0E2804FEA5454D4EB5555B8BF39
:1003F0006D420CDD2C4480EA020281EA030382EAAA
:10040000000083EA010180EA020281EA0303362D3B
:1004100088BF30BD11F0004F4FEA01314FF4801C0E
:100420004CEA113102D0404261EB410113F0004F20
:100430004FEA03334CEA133302D0524263EB4303D7
:1004400094EA050F00F0A780A4F10104D5F1200E75
:100450000DDB02FA0EFC22FA05F2801841F10001D0
:1004600003FA0EF2801843FA05F359410EE0A5F1A4
:1004700020050EF1200E012A03FA0EFC28BF4CF0D5
:10048000020C43FA05F3C01851EBE37101F000458B
:1004900007D54FF0000EDCF1000C7EEB00006EEB98
:1004A0000101B1F5801F1BD3B1F5001F0CD3490822
:1004B0005FEA30004FEA3C0C04F101044FEA445279
:1004C00012F5800F80F09A80BCF1004F08BF5FEA00
:1004D000500C50F1000041EB045141EA050130BDE0
:1004E0005FEA4C0C404141EB0101013C28BFB1F5F2
:1004F000801FE9D291F0000F04BF01460020B1FA3D
:1005000081F308BF2033A3F10B03B3F120020CDA0F
:100510000C3208DD02F1140CC2F10C0201FA0CF0ED
:1005200021FA02F10CE002F11402D8BFC2F1200C52
:1005300001FA02F120FA0CFCDCBF41EA0C01904008
:10054000E41AA2BF01EB0451294330BD6FEA040451
:100550001F3C1CDA0C340EDC04F11404C4F120023C
:1005600020FA04F001FA02F340EA030021FA04F34E
:1005700045EA030130BDC4F10C04C4F1200220FAA5
:1005800002F001FA04F340EA0300294630BD21FAE3
:1005900004F0294630BD94F0000F83F4801306BFA9
:1005A00081F480110134013D4EE77FEA645C18BF9D
:1005B0007FEA655C29D094EA050F08BF90EA020F34
:1005C00005D054EA000C04BF1946104630BD91EA2C
:1005D000030F1EBF0021002030BD5FEA545C05D12F
:1005E0004000494128BF41F0004130BD14F580046E
:1005F0003CBF01F5801130BD01F0004545F0FE41E2
:1006000041F470014FF0000030BD7FEA645C1ABF16
:10061000194610467FEA655C1CBF0B46024650EA4D
:10062000013406BF52EA033591EA030F41F4002179
:1006300030BD00BF90F0000F04BF0021704730B5FF
:100640004FF4806404F132044FF000054FF00001D4
:1006500050E700BF90F0000F04BF0021704730B595
:100660004FF4806404F1320410F0004548BF40426A
:100670004FF000013EE700BF42004FEAE2014FEABF
:1006800031014FEA02701FBF12F07F4393F07F4F9A
:1006900081F06051704732F07F4208BF704793F09D
:1006A0007F4F04BF41F40021704730B54FF46074B0
:1006B00001F0004521F000411CE700BF50EA0102B3
:1006C00008BF704730B54FF000050AE050EA01025C
:1006D00008BF704730B511F0004502D5404261EBCC
:1006E00041014FF4806404F132045FEA915C3FF40D
:1006F000D8AE4FF003025FEADC0C18BF03325FEAAA
:10070000DC0C18BF033202EBDC02C2F1200300FA5A
:1007100003FC20FA02F001FA03FE40EA0E0021FA7F
:1007200002F11444BDE600BF53B94AB9002908BF1D
:1007300000281CBF4FF0FF314FF0FF3000F06AB9C6
:10074000ADF1080C6DE904CE00F006F8DDF804E028
:10075000DDE9022304B070472DE9F047089D0C46FF
:10076000002B4ED194468C458646B2FA82F262D96D
:100770004AB1C2F12003914020FA03F30CFA02FCC3
:10078000194300FA02FE4FEA1C471FFA8CF6B1FB30
:10079000F7F44FEA1E4307FB141143EA014304FB3D
:1007A00006F199420AD91CEB030304F1FF3080F0F3
:1007B0001281994240F20F81023C6344591A1FFA98
:1007C0008EF3B1FBF7F007FB101143EA014300FB86
:1007D00006F69E420AD91CEB030300F1FF3180F0BC
:1007E000FC809E4240F2F980634402389B1B40EA41
:1007F000044000211DB1D3400022C5E90032BDE80C
:10080000F0878B4205D90DB1C5E9000100210846EA
:10081000F5E7B3FA83F1002946D1A34202D390420F
:10082000C0F0F080861A64EB03030120002DE6D0AF
:10083000C5E90063E3E7002A40F09080A1EB0C04D7
:100840004FEA1C481FFA8CF70121B4FBF8F64FEA77
:100850001E4308FB164443EA044307FB06F0984294
:1008600008D91CEB030306F1FF3402D2984200F2D0
:10087000CD8026461C1A1FFA8EF3B4FBF8F008FB55
:10088000104443EA044300FB07F79F4208D91CEBDE
:10089000030300F1FF3402D29F4200F2B0802046F1
:1008A000DB1B40EA0640A5E7C1F120068B4022FA97
:1008B00006F71F4320FA06FC04FA01F343EA0C038F
:1008C000F44000FA01F8380C4FEA1349B4FBF0FE8B
:1008D0001FFA87FC00FB1E4449EA04440EFB0CF996
:1008E000A14502FA01F20AD93C190EF1FF3A80F053
:1008F0008480A14540F28180AEF1020E3C44A4EB1D
:1009000009041FFA83F9B4FBF0F300FB134449EA2E
:10091000044403FB0CFCA44507D93C1903F1FF3048
:1009200067D2A44565D9023B3C4443EA0E40A0FB94
:100930000293A4EB0C049C42CE469C4651D34ED06D
:1009400055B1B8EB0E0364EB0C0404FA06F6CB4089
:100950001E43CC40C5E90064002150E7C2F12003EA
:1009600020FA03F10CFA02FC24FA03F394400C433E
:100970004FEA1C4800FA02FE1FFA8CF7B3FBF8F0AE
:1009800008FB1031230C43EA014300FB07F19942B5
:1009900008D91CEB030300F1FF362CD299422AD967
:1009A000023863445B1AA4B2B3FBF8F108FB1133BD
:1009B00044EA034401FB07F3A34208D91CEB0404F7
:1009C00001F1FF3613D2A34211D902396444E41A6B
:1009D00041EA004139E70446F0E6084606E7C84523
:1009E000AED2B9EB020E63EB070C0138A8E7314633
:1009F000EDE7034699E73046D4E7D6467FE7634400
:100A000002384DE70646234608460FE7023E634498
:100A100030E700BF704700BF014900200FF050BB16
:100A20005D45000801482FF08FBA00BF141103087C
:100A300001482FF089BA00BF3811030801482FF090
:100A400083BA00BF5A11030801482FF07DBA00BFD6
:100A50007711030801482FF077BA00BF92110308FD
:100A600001482FF071BA00BFA311030801482FF00D
:100A70006BBA00BFBB11030808B503F037FA42F2A6
:100A800010700DF0C6FDF8E7064D074C08B547F2AB
:100A900030500DF0BEFD28462FF056FA204609F0E2
:100AA0002AFBF4E7DA110308306F0024124E134DCD
:100AB000134C134808B503F055FA3046802108F06E
:100AC0002CFF28464FF4007108F027FF0D490E480F
:100AD00003F0F2F9204603F049FA02F05DFD03F05D
:100AE00029FA2046094A4FF47A7103F051FA052099
:100AF0000DF08FFDE1E700BF00040258001402581A
:100B0000700300243D0A0008E0000024250A0008C4
:100B10000D4E0E4D0E4C0E4808B503F023FA30462C
:100B2000042108F0FAFE29460A4803F0C5F92046D8
:100B300003F01CFA2046084A4FF47A7103F028FAB1
:100B400064200DF066FDEAE7001C0258550A000813
:100B5000740200242C000024610A0008104E114D7C
:100B6000114C114808B503F0FDF93046802108F01A
:100B7000D4FE2846042108F0D0FE0C490C4803F0AE
:100B80009BF9204603F0F2F903F024FA2046094AC3
:100B90004FF4FA6103F0FCF932200DF03AFDE4E77E
:100BA00000040258001C025854030024490A00089B
:100BB000CC000024310A000870B5144E144D154CB9
:100BC000134803F0CFF93146134803F075F928466E
:100BD00003F0CCF9204607F0FDFA6421204606F028
:100BE00091FF204607F01CF80C4B186002F0EEFB5A
:100BF000002002F087FC2846094A40F6B83103F08D
:100C0000C7F964200DF005FDDDE700BF3D0A0008CF
:100C1000380300246C700024B800002450710024B4
:100C2000250A0008124E134D134C124808B503F064
:100C300099F93146114803F03FF9284603F096F937
:100C4000204607F0C7FA0121204606F05BFF204648
:100C500006F0E6FF0A4B188001F052FF2846094AC9
:100C60004FF47A7103F094F964200DF0D2FCE0E7C0
:100C70003D0A00081C030024DC700024A4000024AA
:100C800054710024250A0008114E124D124C1248CE
:100C900008B503F067F93046802108F03EFE28468B
:100CA000012108F03AFE0D490D4803F005F92046F0
:100CB00003F05CF902F028F920460A4A40F6AC51EC
:100CC00003F066F941F288300DF0A3FCE3E700BFC2
:100CD0000004025800080258000300243D0A0008DE
:100CE00090000024250A00080D4E0E4D0E4C0E48B3
:100CF00008B503F037F93146284603F0DDF8204601
:100D000003F034F902F0B2FA2046084A4FF47A713F
:100D100003F03EF941F288300DF07BFCEBE700BFB9
:100D20003D0A00087C000024E4020024250A000893
:100D30000D4E0E4D0E4C0E4808B503F013F931461A
:100D4000284603F0B9F8204603F010F902F02EFB14
:100D50002046084A4FF47A7103F01AF94FF47A707A
:100D60000DF057FCEBE700BF3D0A000868000024C7
:100D7000C8020024250A00080E4E0F4D0F4C0F48E4
:100D800008B503F0EFF83146284603F095F8204601
:100D900003F0ECF802F01AFD02F094FC02F082FD80
:100DA0002046074A41F2883103F0F2F832200DF074
:100DB00030FCE8E73D0A000854000024AC0200249F
:100DC000610A00080E4E0F4D0F4C0F4808B503F096
:100DD000C9F83146284603F06FF8204603F0C6F8FC
:100DE00001F060FD01F028FE2046084A4FF47A71B8
:100DF00003F0CEF84FF4FA700DF00BFCE9E700BFFA
:100E00006D0A00084000002490020024250A000812
:100E10000E4E0F4D0F4C0F4808B503F0A3F83146A6
:100E2000284603F049F8204603F0A0F801F0CCFF73
:100E300001F0E4FF084B094A4FF47A71186020462C
:100E400003F0A6F832200DF0E4FBE8E73D0A0008C5
:100E500018000024580200244C710024250A0008C0
:100E60000C4E0D4D0D4C0D4808B503F07BF8314686
:100E7000284603F021F8204603F078F802F09CF8A9
:100E80004FF47A700DF0C5FB054A0649204603F081
:100E90007FF8ECE73D0A0008040000243C0200242F
:100EA000250A0008E0C8100007B54FF6FF7301904F
:100EB000012201A903480DF0CEF9019803B05DF8B5
:100EC00004FB00BF346C002410B59CB04C22002100
:100ED00009A82FF053F92022002101A82FF04EF984
:100EE00004200AF051F900230093214B9A6922F45F
:100EF00040429A619A6902F440420092009A9A69CB
:100F00009204FCD50AF00AF91A4A2C210024136F26
:100F100009A823F0180313670D224FF480331B94A4
:100F2000CDE9092301220223CDE915120B920E927D
:100F300044221493CDE91723CDE912330C23CDE9D4
:100F400019340AF05FF903213F2308204FF480622F
:100F500003947024CDE901314023CDE9040301A8B5
:100F60000893CDE906420AF069FC1CB010BD00BF31
:100F7000004802580044025800B5AFB00021982242
:100F800008A82FF0FBF8124A00231920CDE900230E
:100F900005225023CDE9022302238022CDE9043328
:100FA000069307924FF49072CDE90C331E230E93F3
:100FB0004FF400731093202313934FF48033CDE943
:100FC0000A02684628930AF021FF2FB05DF804FB5F
:100FD000000008222DE98048A1B01022002113A8AA
:100FE0002FF0CCF807F010FC01234FF0000C13A8F1
:100FF000ADF84C3048F21F73CDE914C340F2011331
:10100000169307F01FFC042007F00CFCD44B5A6920
:1010100012F4003211D1BFF34F8FBFF36F8FC3F8BB
:101020005022BFF34F8FBFF36F8F5A6942F40032E3
:101030005A61BFF34F8FBFF36F8FC94A536913F4DF
:10104000803323D1C2F88430BFF34F8FD2F8803081
:1010500043F6E074C3F3C900C3F34E335B0103EA04
:101060000406014646EA81750139C2F86052F9D298
:10107000203B13F1200FF2D1BFF34F8F536943F49C
:1010800080335361BFF34F8FBFF36F8F06F0C6FC01
:101090000024FFF719FF0125FFF76EFF142200213E
:1010A00013A82FF06BF8AF4B4CF28001AE48D3F889
:1010B000E02002274FF010094FF0030A42F002022D
:1010C0004FF0050B4FF00408A84EC3F8E020D3F80A
:1010D000E02002F002020092009AD3F8E02042F0F1
:1010E0004002C3F8E020D3F8E02002F04002019271
:1010F000019AD3F8E02042F00802C3F8E020D3F8C8
:10110000E02002F008020292029AD3F8E02042F0B6
:101110001002C3F8E020D3F8E02002F0100203929E
:10112000039AD3F8E02042F00102C3F8E020D3F89C
:10113000E02002F001020492049AD3F8E02042F089
:101140000402C3F8E020D3F8E02002F00402059284
:10115000059AD3F8E02042F08002C3F8E020D3F8EB
:10116000E02002F080020692069AD3F8E02042F0D6
:101170002002C3F8E0200022D3F8E03003F020037F
:101180000793079B08F0C4FB002248F20801784847
:1011900008F0BEFB00224FF40071764808F0B8FB5F
:1011A00000220521744808F0B3FB00224FF480614F
:1011B000724808F0ADFB00220421714808F0A8FB3A
:1011C000002201216F4808F0A3FB082313A96E48F1
:1011D0001595CDE9133408F01DFA802313A9624850
:1011E000CDE91335CDE9154408F014FA4FF4005356
:1011F00013A961481597CDE9133408F00BFA4FF4A1
:10120000004313A95A48CDE91335CDE9154408F038
:1012100001FA202313A956481595CDE9133408F097
:10122000F9F94FF4881313A951481594CDE9139394
:1012300008F0F0F9082313A94D48CDF858A01594EB
:10124000CDE9133508F0E6F94FF4807313A9494846
:101250001595CDE9133408F0DDF94FF4007313A9A7
:101260004448CDE91335CDE9155408F0D3F94FF4CE
:10127000404313A93C48CDE91335CDE9154A08F0A0
:10128000C9F913A93C48CDE913B5CDE9154408F0D7
:10129000C1F94FF4806313A93848CDE91335CDE97E
:1012A000154408F0B7F913A93548CDE91385CDE900
:1012B000154408F0AFF913A93248CDE91355CDE92B
:1012C000154A08F0A7F9594622460A2007F04AFABB
:1012D0000A2007F079FADFF8BCE02C484FF44032DE
:1012E000C0E90254C0E900E207F039FB342221468C
:1012F00013A82EF043FF264A2823352140F215205B
:1013000040F2352C3461B48686F83640C6E90024B4
:101310000922C6E905320B22C6E9071240F21B1268
:10132000C6E9090240F21D123046C6E90BC2C6E901
:10133000024408F06DFFFF234FF4F0714FF4887200
:10134000304618261E921394ADF87C408DF87E40EE
:10135000CDE918344FF48063CDE91A3B1CE000BF9F
:1013600000ED00E00044025800040258886E00249A
:10137000001802580014025800080258000C0258C5
:10138000001C02580000025800100258E06F0024B0
:1013900000100050001000524FF0E043DFF8BCB3E3
:1013A000CDE91C31CDE91625CDE91414224613A947
:1013B00009F02BF83246214613A82EF0DFFED64B5B
:1013C0004FF0807E5846CBF80840CBF83C40CBE944
:1013D00000382023CBE903E30823CBE90574CBE9EC
:1013E0000974CBE90D34CBE90744CBE90B4409F090
:1013F00099F94FF0011341F2883213A9169303F5BE
:101400007F03584615951793CDE9135509F016FC3F
:10141000584609F0FBF940F201132046DFF840B3CB
:10142000ADF8383005F056FF0EA9204606F044F816
:10143000204605F017FF3246214613A82EF09EFEE7
:101440004A4621460AA82EF099FE214614220EA8EB
:101450002EF094FEB14B4FF080525846CBF8084026
:10146000CBE900384FF08063CBE903361723AC4E4D
:10147000CBE90B234FF4C873CBE90974CBF83C30AC
:10148000CBE90584CBE90744CBE90D44CDE9084419
:1014900009F048F9A34B41F2883213A9169303F5DA
:1014A0007F03584615971793CDE91377062709F060
:1014B000C5FB41F288320AA95846CDF828A00D95FF
:1014C0004FF4805ACDE90B7409F002FA4FF44053FF
:1014D00041F288320EA910934FF0005358461195EF
:1014E00012930E940F9409F019FA08A9584608941B
:1014F00009F034FB02F0B2FD4A4621460EA82EF058
:101500003DFE4A46214613A84FF6FF7B0C94CDE9D9
:101510000A442EF033FE844B3046B460C6E90034F2
:10152000C6E903B4C6E905440CF096F80EA93046A6
:10153000CDF838A00CF0FEF930460CF0BDF80AA941
:1015400030460C94CDE90A440CF0C2FB0C2213A9DE
:101550003046764ECDE91345CDE915440CF04CF9F3
:101560004A4621460EA82EF009FE4A46214613A8F7
:101570000C94CDE90A442EF001FE6D4B30463461E7
:10158000B461C6E90034C6E9024B0CF065F80EA957
:101590003046CDF838A00CF0CDF930460CF08CF880
:1015A0000AA930460A940C940CF092FB0C2213A961
:1015B0003046604ECDE91345CDE915440CF01CF9D9
:1015C0002422214613A81094CDE90E442EF0D6FD16
:1015D00059484FF40023F561348386F82040346382
:1015E00086F84440C6E9000308233046B360C6E9E4
:1015F0000448C6E90A44C6E90F4406F0EDFE0EA908
:1016000030460E9407F036F840F2FF7313A93046C7
:10161000159418948DF86D40484ECDE91357CDE9D7
:10162000163806F001FB1422214613A82EF0A6FD61
:10163000434B7F2730460E9434617461C6E9003411
:10164000FF23C6E90644C6E902730BF061FC43F2CE
:1016500012032A4613A9ADF84C304FF02003304650
:101660008DF84E30CDE916440BF0A9FC354B2A46D7
:101670000EA930460E9343F2F2250BF002FD2246EE
:10168000214630460BF092FD214630460BF03FFEDE
:10169000A8420ED0224613A930460BF090FC2246F9
:1016A0000EA930460BF0EDFC2A46214630460BF0E1
:1016B00029FE254D0024254A4FF4E1330C27284606
:1016C0002C614FF0060A01264FF004084FF008097C
:1016D000C5E90023C5E90244C5E90574C5E9074425
:1016E000C5E909440CF067FE214628460CF0D1FEFE
:1016F000214628460CF0EDFE28460CF0AFFE1448BB
:10170000144B4FF4C871144DC0E9003A40F6FF7312
:10171000C0E9023126E000BF0050005200A0005294
:10172000606D00240200010000000140C86C00242C
:1017300000080040DC70002400200240AC6D002452
:101740000040005804041024346C00240048004079
:10175000306F0024004800586C7000242C6E002468
:10176000D06D002408F09AFC2422214613A82EF004
:1017700005FD4FF4802382482C61C5F814802C832A
:10178000EE6185F8204085F8384085F84440C5E989
:1017900000032846C5E90294C5E90A44C5E90C449A
:1017A000C5E90F4406F018FE40F2FF7313A928465E
:1017B000159418941A94734DCDE91638CDE9136A2F
:1017C00006F032FA7048714B0D2206820360022344
:1017D0008474C0E907231F22C0E90539C0E90B2939
:1017E000C0E91763C0E90244C0E90966C0E90D46D3
:1017F000C0E90F66C0E91186C0E91386C0E9158605
:10180000C0E9194807F0B2F94FF0804C212349464E
:1018100028461594AC60AC61C5E900C34FF0FF33B6
:10182000CDE91344C5E903340BF076FF13A928462C
:10183000139415940CF04CFA554B56480360848071
:101840000662C0E9054407F029F802F033FC02F013
:1018500030FC02F0ADFA02F0B3FB01F0D5FA01F072
:1018600089FC01F069FD01F009F801F043F900F08D
:1018700037FF01F0A3FA01F089FB394646480CF026
:1018800021F9394645480CF01DF901F043FD284681
:101890000BF042FD0CF04AFE414A214641480CF053
:1018A00071FE414B414A2146186041480CF06AFEE6
:1018B000404B414A2146186040480CF063FE404BC3
:1018C000404A2146186040480CF05CFE3F4B404ABD
:1018D000214618603F480CF055FE3F4B3F4A2146D9
:1018E00018603F480CF04EFE3E4B3F4A21461860C0
:1018F0003E480CF047FE3E4B3E4A214618603E48AB
:101900000CF040FE3D4B3E4A214618603D480CF02D
:1019100039FE3D4B3D4A214618603D480CF032FEF1
:101920003C4B3D4A214618603C480CF02BFE3C4B9A
:101930003C4A214618603C480CF024FE3B4B3C4A94
:10194000214618603B480CF01DFE3B4B3B4A2146AC
:1019500018603B480CF016FE3A4B3B4A2146186093
:101960003A480CF00FFE3A4B3A4A214618603A4882
:101970000CF008FE394B18600CF0EAFDFEE700BFE2
:1019800000600258146D0024406F002400D4004011
:10199000004C025848700024606D0024C86C00247C
:1019A00044150308790A0008306C00242015030848
:1019B000C34000087C690024FC140308095B00088C
:1019C00078690024D8140308890A0008C448002450
:1019D000B4140308AD0A0008104000249014030852
:1019E0005D0B00085C3B00246C140308B90B000875
:1019F000A82A002448140308250C0008F421002418
:101A000024140308890C0008401D00240014030856
:101A1000E90C00088C1A0024DC130308310D0008BF
:101A2000D8170024B8130308790D000824130024E4
:101A300094130308C50D0008700E002470130308EA
:101A4000110B0008BC0B00244C130308110E0008F6
:101A50000809002428130308610E00085406002416
:101A600010B59EB0224808F046FB2022002103A8B2
:101A70002EF084FB4C2200210BA82EF07FFB0023CC
:101A8000029301931B4B9A6922F440429A619A692E
:101A900002F440420292029A9A699204FCD50BA881
:101AA00001240AF037F84FF480330BA8CDE90B433B
:101AB0000223149309F0A6FB01A903A80AF08CF8ED
:101AC0000323019903A80493039409F0B7FE00F0DF
:101AD0006FFD094800F04CF908482EF035FA084A25
:101AE000D2F8D03043F48033C2F8D0301EB010BDED
:101AF000306F002400480258886E0024E911030862
:101B00000044025810B50C4C00220C4821460BF042
:101B10000CFB0B4B187028B9A37862782178094820
:101B20002EF0AAF9FFF7D0F900F042FD0648BDE813
:101B300010402EF009BA00BF90030024AC6D0024C1
:101B40008C030024FA1103080B1203080A4601460D
:101B500001482EF091B900BF1E1203087047000023
:101B60000268034B9A4201D105F086BF704700BF5F
:101B700000100040704700000A4B82B00F216FF048
:101B80000100D3F8F42042F00202C3F8F42000224E
:101B9000D3F8F43003F002030193019B02B006F086
:101BA000E1BD00BF00440258036884B0214A93425B
:101BB0001ED1214B4FF08071D3F8D82042F0200283
:101BC000C3F8D820D3F8D82002F020020092009A5F
:101BD000D3F8E02042F00102C3F8E020D3F8E0306F
:101BE00003F001030193019B084604B005F068BFB0
:101BF000124A93421BD1104B4FF08061D3F8E02082
:101C000042F08072C3F8E020D3F8E02002F0807246
:101C10000292029AD3F8E02042F00402C3F8E020D6
:101C2000D3F8E03003F004030393039BDCE704B034
:101C3000704700BF00200240004402580060025874
:101C4000026882B0094B9A420DD1A3F50063D3F824
:101C5000E02042F40022C3F8E020D3F8E03003F49F
:101C600000230193019B02B0704700BF004C025853
:101C70000F4B07B502689A4217D10E4B05215A2027
:101C8000D3F8D42042F01002C3F8D4200022D3F8B5
:101C9000D43003F010030193019B06F063FD5A203A
:101CA00003B05DF804EB06F08FBD03B05DF804FBF4
:101CB000001000520044025810B5B6B00446142279
:101CC000002103A82EF05AFAB822002108A82EF00D
:101CD00055FA2268234B9A4242D100234FF4004226
:101CE00008A8CDE908234FF0805323930AF08EF81B
:101CF00008B1FFF73FFF1C4B002403A91B48D3F892
:101D0000EC2042F48072C3F8EC20D3F8EC2002F40B
:101D100080720192019AD3F8E02042F02002C3F8C9
:101D2000E020C022D3F8E03003F020030293029BAE
:101D30000223CDE90544CDE90323079307F06AFCAC
:101D4000224605219F2006F00DFD9F2006F03CFD58
:101D5000A0202246052106F005FDA02006F034FD56
:101D600036B010BD00D400400044025800140258A0
:101D70002DE9F0418EB004461422002109A82EF06E
:101D8000FDF922686A4B9A4240F0CE80694B0226E8
:101D900003250E27D3F8E42009A96748002442F060
:101DA00008024FF05808C3F8E420D3F8E42002F00A
:101DB00008020192019AD3F8E02042F00202C3F82F
:101DC000E020D3F8E02002F002020292029AD3F857
:101DD000E02042F00802C3F8E020D3F8E02002F04F
:101DE00008020392039AD3F8E02042F01002C3F8ED
:101DF000E020D3F8E02002F010020492049AD3F815
:101E0000E02042F00102C3F8E020D3F8E02002F025
:101E100001020592059AD3F8E02042F04002C3F88F
:101E2000E020D3F8E02002F040020692069AD3F8B0
:101E3000E02042F08002C3F8E020D3F8E02002F076
:101E400080020792079AD3F8E02042F00402C3F818
:101E5000E020D3F8E03003F004030893089B40F23D
:101E60000333CDE90C57CDE9093607F0D3FB4923FD
:101E700009A932480D97CDE90936CDE90B4507F0A0
:101E8000C9FB4BF6030309A92D480D97CDE9093687
:101E9000CDE90B4507F0BEFB4FF4807309A9294833
:101EA000CDE909360D23CDE90B450D9307F0B2FBC3
:101EB0004FF4814309A924480D97CDE90936CDE9AE
:101EC0000B4507F0A7FB48F6087309A91F480D97B3
:101ED000CDE90936CDE90B4507F09CFBC02309A9E4
:101EE0001B480D97CDE90936CDE90B4507F092FB6C
:101EF00009A914480D97CDE90986CDE90B4507F0EE
:101F000089FB102309A91148CDE909360923CDE938
:101F10000B450D9307F07EFB40462246052106F057
:101F200021FC404606F050FC0EB0BDE8F08100BF39
:101F3000001000500044025800040258000C0258DF
:101F4000001002580000025800180258001C0258E5
:101F500000080258026808B5184B9A422CD1184A5A
:101F600040F203311748D2F8E43023F00803C2F8F6
:101F7000E43007F031FC4921134807F02DFC4BF603
:101F80000301124807F028FC4FF4AC71104807F029
:101F900023FC4FF481410F4807F01EFC48F61871EE
:101FA0000D4807F019FC0D48C02107F015FC58201A
:101FB000BDE8084006F016BC08BD00BF0010005088
:101FC0000044025800040258000C02580010025845
:101FD0000000025800180258001C0258000802585D
:101FE0002DE9F04391B00446142200210BA82EF0F5
:101FF000C5F82368884A934240F0B080874A136846
:102000000133012B13600CD1854BD3F8D42042F45B
:102010000012C3F8D420D3F8D43003F40013009393
:10202000009B7F4B022503240927D3F8D4200BA95A
:102030007C48002642F480424FF00A084FF0040921
:10204000C3F8D420D3F8D42002F480420192019A3C
:10205000D3F8E02042F04002C3F8E020D3F8E020BB
:1020600002F040020292029AD3F8E02042F0080205
:10207000C3F8E020D3F8E02002F008020392039AAC
:10208000D3F8E02042F01002C3F8E020D3F8E020BB
:1020900002F010020492049AD3F8E02042F02002E9
:1020A000C3F8E020D3F8E02002F020020592059A60
:1020B000D3F8E02042F00202C3F8E020D3F8E03089
:1020C00003F002030693069B4FF40073CDE90B3532
:1020D000CDE90E4707F09EFAB0230BA95248CDF880
:1020E0003C80CDE90B35CDE90D6407F093FA0BA9DF
:1020F0004E480F97CDE90B95CDE90D6407F08AFAAC
:1021000040230BA94748CDF83C80CDE90B35CDE9FC
:102110000D6407F07FFA4FF460530BA942480F9704
:10212000CDE90B35CDE90D6407F074FA4FF4806307
:102130000BA93F480F97CDE90B35CDE90D6407F0AA
:1021400069FA0BA93B48CDF83C80CDE90B95CDE968
:102150000D6407F05FFA11B0BDE8F083364A934290
:10216000F9D12E4A13680133012B13600CD12C4B8B
:10217000D3F8D42042F40012C3F8D420D3F8D430DA
:1021800003F400130793079B254B0324022509261C
:10219000D3F8D4200BA92348002742F40022C3F827
:1021A000D420D3F8D42002F400220892089AD3F85D
:1021B000E02042F04002C3F8E020D3F8E02002F033
:1021C00040020992099AD3F8E02042F02002C3F8B5
:1021D000E020D3F8E03003F020030A930A9B40F696
:1021E0000303CDE90E46CDE90B3507F013FA4FF4A2
:1021F000A0530BA90B480F94CDE90B35CDE90D7415
:1022000007F008FA41F21F030BA909480F96CDE920
:102210000B35CDE90D749CE7005000525871002435
:102220000044025800180258000C025800100258CE
:10223000001402580004025800A00052274A08B5B2
:10224000036893422AD1264B1A68013A1A60254B3B
:102250002AB9D3F8D42022F40012C3F8D420D3F83A
:10226000D4204FF41071204822F48042C3F8D420C7
:1022700007F0B2FA43F6B0011C4807F0ADFA0421AA
:102280001B4807F0A9FA4FF480611A4807F0A4FA36
:1022900004211948BDE8084007F09EBA174A934246
:1022A0001AD10F4B1A68013A1A600E4B2AB9D3F8AB
:1022B000D42022F40012C3F8D420D3F8D42041F65D
:1022C0000341094822F40022C3F8D42007F084FA1D
:1022D00041F21F010748DDE708BD00BF0050005272
:1022E000587100240044025800180258000C02588B
:1022F00000100258001402580004025800A00052B6
:1023000010B5AEB00446B822002168462DF036FF65
:102310002268104B9A421AD100234FF4800268467B
:10232000CDE900234FF480732C9309F06FFD08B1C1
:10233000FFF720FC084A03200521136F43F40043F4
:102340001367002206F00EFA032006F03DFA2EB0C5
:1023500010BD00BF00400058004402581422002164
:1023600010B58AB004460DEB02002DF007FF23687C
:102370002F4A93422ED12F4B4FF480412E48D3F851
:10238000F02042F00102C3F8F020D3F8F02002F070
:1023900001020192019AD3F8E02042F01002C3F842
:1023A000E020D3F8E03003F010030293029B0223F5
:1023B000CDE905130793012305A9099307F02AF92D
:1023C0001B200022052106F0CDF91B2006F0FCF9A8
:1023D0000AB010BD194A9342FAD1164B05A9184804
:1023E000D3F8E82042F00402C3F8E820D3F8E8204C
:1023F00002F004020392039AD3F8E02042F00802AC
:10240000C3F8E0204FF40042D3F8E03003F00803B3
:102410000493049B0223CDE90523099307F0FAF8FE
:102420001E200022052106F09DF91E20CEE700BFE8
:10243000000001400044025800100258000800400B
:10244000000C0258036882B0B3F1804F0CD1074BE7
:10245000D3F8E82042F00102C3F8E820D3F8E830CE
:1024600003F001030193019B02B07047004402583E
:1024700010B5B6B004461422002103A82DF07EFE4C
:10248000B822002108A82DF079FE22681A4B9A4242
:1024900030D10222002308A8CDE9082309F0B6FCB8
:1024A00008B1FFF767FB154B03A91548D3F8E820DF
:1024B00042F48022C3F8E820D3F8E82002F4802216
:1024C0000192019AD3F8E02042F00802C3F8E0201C
:1024D0004FF44072D3F8E03003F008030293029BFC
:1024E0000223CDE903230023CDE905330723079316
:1024F00007F090F836B010BD004800400044025884
:10250000000C02580F2810B504468AB002D90120E9
:102510000AB010BD01460022362006F023F936200D
:1025200006F052F9184B694602A81C60174BD3F805
:10253000E82042F01002C3F8E820D3F8E83003F0B6
:1025400010030193019B09F047FB079BC3B909F0F6
:10255000BDFA0F4C0F4B236040F2E733E3600E4BA4
:10256000B0FBF3F001380023606020462361A360D4
:102570000BF072F80028CAD120460AF00FFFC7E717
:1025800009F0A4FA4000E4E7540100240044025892
:102590005C7100240010004040420F00034B1A6899
:1025A000D36823F00103D360704700BF5C7100243F
:1025B000034B1A68D36843F00103D360704700BF30
:1025C0005C7100247047FEE7FEE7FEE7FEE7704718
:1025D00001480AF080BE00BFAC6D0024102007F057
:1025E000A5B9000001480AF023BF00BF606D0024B8
:1025F00001480AF01DBF00BFC86C002401480AF062
:1026000017BF00BF5C710024014807F0A1BE00BFE6
:10261000886E0024014806F0E1B900BFE06F002495
:10262000014806F08FBE00BF406F0024FFF7F8BFDF
:102630000120704708B52DF0ABFE162303604FF064
:10264000FF3008BD08B52DF0A3FE16230360FEE79A
:1026500070B50D4614460E46731B9C4201DC2046A5
:1026600070BDAFF3008006F8010BF5E770B50D46BD
:1026700014460E46731B9C4201DC204670BD16F8C2
:10268000010BFEF711FCF5E74FF0FF3070474FF4F8
:10269000005300204B6070470120704700207047B6
:1026A0000B4A0346116810B509B90A491160106850
:1026B00009490A4C0344091B8B4206D92DF068FED8
:1026C0000C2303604FF0FF3010BD1360FCE700BF28
:1026D000A871002478D9012400000524001000000E
:1026E00070B540F21113274C00254FF40002264923
:1026F00040F2FF100126A5600D60CE60C4E90035F0
:102700000823C4E903355223C4E9072340F2FF73C9
:10271000C1E904031D48C4E90555C1E9016606F095
:102720000FFC33461A4A2146184806F0C1FC3146D0
:10273000164806F0ECFC2A463146144806F0B4FD73
:102740002A464FF48021114806F0AEFD0F4C4FF49D
:1027500070210E4806F030FC31460C4806F040FC73
:1027600040F65A420021204606F04EFC0028F7D1E0
:10277000064806F061FC0028FAD10448BDE8704024
:1027800006F07DBCE471002408720024406F002430
:10279000F4000024234B002270B51A70CB070546C5
:1027A0003FD5214C4021214E23462148324606F098
:1027B000BFFC58B1FFF7DEF9002201211C4806F0EA
:1027C00073FD70B3BDE87040FFF7D4B9284606F03A
:1027D00046FC326840F2FF139A42EDD162782378CA
:1027E00002F00100134943EA0023C2F3400043EA28
:1027F0004023C2F3800043EA8023C2F3C00043EACF
:10280000C023C2F30010C2F3401243EA003343EA8C
:1028100042330A8822F47F5222F03F0213430B8096
:10282000CAE770BDB1710024B2710024BC710024EC
:10283000406F0024AC71002410B50A4C00224FF404
:102840008021094823780133237006F02DFD08B15B
:10285000FFF790F92378054A1E2B94BF002301232C
:10286000137010BDB1710024406F0024B0710024BA
:10287000014B1868704700BFAC7100240549064B36
:102880000A7806481A704A78054B1A7000220AF036
:102890004CBC00BF487200245E720024AC6D002462
:1028A0005D72002438B5074D0022074C07492846C1
:1028B0000AF03BFC00222070284605490AF058FC2B
:1028C000207038BDAC6D0024407200244872002492
:1028D0004172002410B5084C0848627821782DF028
:1028E000CBFA2146002206480AF069FB0548BDE8FC
:1028F00010402DF029BB00BF2C720024681503087E
:10290000AC6D00248115030810B5052824D8DFE834
:1029100000F003171B2C2431224C23482DF014FB0C
:102920002146002221480AF000FC2178204B6278E1
:102930001970204B20481A70BDE810402DF09CBA49
:10294000BDE81040FFF7C6BF1C4A13780133DBB265
:10295000022B08BF0023137010BD194B0022194829
:102960001A70BDE810402DF087BA154B01221648A9
:102970001A70F6E7114B1B784BB90A4A18211378E5
:102980000133DBB2B3FBF1F001FB1033E3E7012BC2
:10299000E2D1044A53780133DBB23C2B08BF002359
:1029A0005370D9E72C72002496150308AC6D0024EF
:1029B0005E7200245D720024AC1503085C72002472
:1029C00028720024C6150308DB150308164B10B443
:1029D0001B787BB9154B182219780131C9B2B1FBAC
:1029E000F2F002FB10111248C9B219705DF8044BE5
:1029F0002DF042BA012B06D10C4A53780133DBB2D9
:102A00003C2B03D053705DF8044B704713781820AB
:102A1000002101335170DBB2B3FBF0F400FB14333F
:102A200004481370E2E700BF5C7200242C7200249B
:102A3000ED1503080916030808B5074B1A78012A93
:102A400006D1FFF7C3FF0548BDE808402DF014BAD2
:102A500000221A7008BD00BF287200242716030840
:102A60001249134A0B780133DBB2042B0B7006D9E1
:102A700000230B7000230F4813702DF065BA013B43
:102A8000032BF7D8DFE803F002060A0E01230A48F9
:102A90001370F2E7022309481370EEE70323084896
:102AA0001370EAE7042307481370E6E75F72002417
:102AB00060720024441603085A1603086E160308B1
:102AC0008216030899160308014B1878704700BF57
:102AD00060720024054B64221B68534340F6FF726A
:102AE000B3FBF2F3024A1360704700BFB0720024D8
:102AF000B4720024014B00221A707047BB7200248C
:102B00002DE9F84F9B4C2578012D3ED0022D7FD02A
:102B1000002D68D1984E1E21984B32781B88984F13
:102B2000DFF884C227F812300132B2FBF1F001FB6A
:102B30001020BCF8002030701344924E9BB23288B3
:102B4000ACF80030013292B21D2A328083BF37F8D0
:102B500010004FF0010E8C4D294681BFB3FBF1F1FF
:102B60001B1A85F800E0ACF800301D2A874B19804D
:102B700039D901F097F9012835D1834B1B78012B06
:102B800031D10022328023702DE0814D7F4A2B8885
:102B90001288804F934236BFD21A9B1A93B24FF0DD
:102BA000010228BF9BB23A7040F2323293421CD8E5
:102BB0006FF4CC710B44B3F5CD7F2CBF02230323FC
:102BC000754A764E1370337001F06CF901280AD102
:102BD0003B78012B07D13378714E9A1E012A06D813
:102BE000022222703370BDE8F88F0023E8E74FF42B
:102BF0008051002000F0CAFC00F08CFC002000F0A6
:102C0000BDFC2860FFF766FF022323700423E9E779
:102C1000634F614E3A783378022ADFF87091DFF81B
:102C20007081DFF888A179D0032A51D0012A0FD111
:102C30009AF80020DFF878B19A421EBF594B002263
:102C40001A80BBF80030D8F80020B3F5967F25D95C
:102C500033788AF80030494B1A88B8F80030A9F860
:102C600000209A428ABFD21A9B1A93B240F23232A3
:102C700098BF9BB2934278D86FF4CC721344B3F5EB
:102C8000CD7F74D203252B46444A337013703D70B8
:102C900001F008F90228A6D1002374E7B9F8001062
:102CA000914203D10023ABF80030D1E7013340F269
:102CB00011110220ABF8003000F068FC00F02AFC93
:102CC000002000F05BFCC8F80000FFF703FFB8E746
:102CD0009AF80020DFF8DCB09A421EBF314B002288
:102CE0001A8040F6B832BBF80030D8F80010934292
:102CF000AED8B9F800008842D4D0013388216420CE
:102D0000ABF8003000F042FC00F004FC002000F0C2
:102D100035FCC8F80000FFF7DDFEE2E79AF8002076
:102D2000DFF894B09A421EBF1E4B00221A8042F276
:102D30002832BBF80030D8F80010934288D8B9F890
:102D400000008842AED0013388214FF49670ABF872
:102D5000003000F01BFC00F0DDFB002000F00EFC5A
:102D6000C8F80000FFF7B6FEE1E701258BE7022374
:102D70008AE700BFBB7200246172002454710024F2
:102D800072720024707200246D720024B8720024E4
:102D9000B07200246C7200246272002464720024F9
:102DA000BA720024A87300246E7200246372002497
:102DB0006A7200246872002466720024014B0022AB
:102DC0001A607047C072002410B50A4CFFF750FD1E
:102DD000206001F067F8C0B201280AD106492288B4
:102DE0000B88C2F30B0223F47F6323F00F0313431A
:102DF0000B8010BDBC720024C0720024014B186807
:102E0000704700BFC07200240123024A1370024AB7
:102E100013707047F9720024F872002410B5002076
:102E2000002400F00DFC054A034605491060054AE0
:102E30004C6010681360181A086010BDE47200241A
:102E4000D8720024E072002408B5FFF7E7FF0C4BAE
:102E50000C4A18600C4B1B68B0FBF3F00B4B18606E
:102E60000B4B1B68434313600A4B1A6810440A4A11
:102E700018600A231060B0FBF3F0084B186008BD1F
:102E8000F4720024F072002400010024EC7200248B
:102E900004010024CC720024C8720024D4720024DF
:102EA00008B5FFF7D1FF044B044A1B68126853436F
:102EB000034A136008BD00BFE8720024FC00002430
:102EC000C4720024054B1B78012B01D1FFF7BCBF56
:102ED000022B01D1FFF7E4BF704700BFF872002456
:102EE000024B1A68024B1A80704700BFCC72002454
:102EF000D2720024024B1A68024B1A80704700BF3E
:102F0000CC720024D072002408B500F0CBFFC0B210
:102F1000022803D1054B00221A6008BDFFF7D2FF3B
:102F2000FFF7DEFFBDE80840FFF7E4BFE8720024CA
:102F3000044B1B78012B03BF0370034B1868002060
:102F4000704700BFF8720024D47200240C4B0D4A65
:102F500010B518780C4C0128117860700BD12170D5
:102F60000131117011780C2904BF002111701A78F9
:102F700001321A7010BD1E2804BF00211970F1E73C
:102F800008010024007300241673002408B5FFF71D
:102F9000DDFF054B054A0A211B88A2F80130044ACF
:102FA0001170044A137008BD1673002418730024AE
:102FB00013730024127300242DE9F0413D4E3E4866
:102FC000FFF7B6FF04463060FFF7C0FF3B4B41F20E
:102FD00087313B4A1B883B4DA2F801302A68DFF855
:102FE0001C81A21A384F8A4243D9012337482C60EA
:102FF00088F80030364B1C602CF0A6FF98F80030A3
:10300000B3B1334B32681B68D31A632B10D900233A
:103010002A60304A88F8003013702F4B2F481A78F6
:103020002F4B1A702F4B1A782F4B1A702CF08CFFE5
:103030003B78002B3BD0284B2C491A782C4B1B7823
:103040009A4234BF9B1AD31ADBB20F2B0B702ED1CE
:103050000023204927483B700B70214B1A70214BED
:103060001A78214B1A7033682B60BDE8F0412CF0C0
:103070006BBFC3F30721184A1170D9B2194A1170F6
:10308000174A1078B0EB132F124B09D1164C227847
:103090008A4205D01A78217001321A70144A1070D1
:1030A0001B78062BAAD1012313483B70A4E7BDE887
:1030B000F08100BFFC7200240C73002416730024FE
:1030C000187300240873002415730024B016030835
:1030D000047300240F73002411730024E216030804
:1030E0001373002410730024127300240D73002442
:1030F0000E73002405170308CB160308147300246D
:10310000114B4FF47A721A604FF461620F4B1A60E0
:1031100064220F4B1A6001220E4B1A6005220E4BDF
:103120001A603C220D4B1A70C8220D4B1A603222D5
:103130000C4B1A7010220C4B1A7028220B4B1A7071
:103140007D220B4B1A6070476C7300246873002457
:1031500064730024607300245C730024587300249B
:1031600054730024497300244873002450730024CE
:103170004C7300240023034A1370034A1370FFF7B3
:10318000BFBF00BF717300247073002410B500200E
:10319000002400F055FA054A034605491060054A27
:1031A0004C6010681360181A086010BD3C7300244E
:1031B000407300243873002408B5FFF7E7FF0F4B76
:1031C0000F4A18600F4B10491B680968B0FBF3F3F6
:1031D00013600E4A126853430D4A13600D4A126879
:1031E00053430D4A13600D4A12684A430C49B3FB1E
:1031F000F2F30A600B4A136008BD00BF2C73002471
:103200003073002460730024687300246473002406
:10321000347300246C730024287300245C7300242E
:10322000247300242073002408B5FFF7C5FF064B64
:10323000064A1B7812685343054A1278B3FBF2F32F
:10324000044A136008BD00BF4873002420730024A3
:10325000497300241C730024034B1B780BB9FFF740
:10326000ABBFFFF7E1BF00BF7073002408B500F0EB
:1032700019FEC0B2022805D10023044A1360044A93
:10328000136008BDBDE80840FFF7E6BF20730024C7
:103290001C73002410B5044698B90B4B4FF48061A1
:1032A0000A481A68936943F001039361012206F00A
:1032B0002FFB074801224FF4004106F029FB20466E
:1032C00010BD6FF00100FBE7886E0024000C02586F
:1032D0000018025810B5044698B90B4B4FF48061A2
:1032E0001A68936923F0010393610246074806F0C8
:1032F0000FFB074822464FF4004106F009FB204629
:1033000010BD6FF00100FBE7886E0024000C02582E
:103310000018025808B50020FFF7DCFF4FF47A7060
:1033200004F0BCFB0020FFF7B5FF4FF47A70BDE856
:10333000084004F0B3BB0000064B1A68537843F012
:10334000400353700122044B1A700022034B1A6091
:10335000704700BF747300247273002490730024BC
:1033600010B50120002400F06BF90A4B0A4A1860DE
:1033700013680A49C31A10604C600B6008490B605F
:1033800008498B4236BF3C214FF0FF334B4306497F
:103390000B6010BD887300248C730024807300249C
:1033A00078730024444444049073002408B500F06A
:1033B00079FDC0B2022803D1034B00221A6008BD78
:1033C000BDE80840FFF7CCBF90730024454B2DE9C2
:1033D000F74F93F800C00025434B0120AB462F4622
:1033E000B3F80080414B1988414B1A78414BB3F830
:1033F00000E02B461C46B0B90CB13C48018015B129
:103400003C49A1F800E0BBF1000F02D0354981F83A
:1034100000C00FB136490A7013B1374B324A1A60F7
:1034200003B0BDE8F08FFF2A14BF13466346022B9A
:10343000019318D8581CC0B2C3005FFA80F91E4629
:103440002E4B33F830A0C2450DD8B9F1030F2ED062
:103450002B4B33F806A0C24526D801305FFA80F91D
:10346000B9F1040FE8D1019B013BDBB2022B06D876
:10347000224800EBC300B0F80290C14522D2FF2AD7
:103480004FF00103B8D071454FF0000035BFC918A7
:103490009B461346FF2339BF624689B200215F462F
:1034A00094461A460123A5E7B9F1040FDBD0134B6C
:1034B0004A4603EBC903B3F804E001240021254682
:1034C0002746DCE73BB130F8069CC14503D3013BFE
:1034D0000838DBB2CFE7094A02EBC302B2F806E0D4
:1034E0001A46EAE7A0730024507100249473002464
:1034F00098730024967300249C73002424170308F7
:103500002C17030810B9024B18787047FF2070473A
:10351000A0730024F0B51348134D01882B88134C79
:10352000994207D1002323800022114B1860114BD0
:103530001A70F0BD104E22883788974202D0531C73
:103540009BB2F0E79942728806D85E1AB24201DC5B
:103550009B1A99B22980E5E7CE1A9642FADB1A4403
:1035600091B2F7E7B8720024AA730024A87300246C
:10357000A4730024A1730024AC73002410B9024B7F
:103580001888704700207047AA730024014B1880E8
:1035900059807047AC73002438B54FF480711448DB
:1035A00006F0B0F920210546124806F0ABF90821D3
:1035B0004400114806F0A6F9104944EA8504104D6C
:1035C0000C2264B22B782043C8540133FF20DBB2B5
:1035D0002B70013A11F8014B12F0FF0200EA0400CF
:1035E000F7D108490B2B087088BF2A7038BD00BF7F
:1035F000001402580018025800100258B273002438
:10360000B1730024B0730024014B1878704700BFD9
:10361000B073002408494FF6FF7231F8103093421E
:1036200003F1010310B508BF044C21F8103002BFAC
:10363000225C0132225410BDC6730024C4730024DE
:103640000128064A08D8064B06491B5C31F81010C1
:10365000C3EB03430B44136010687047C07300242E
:10366000C4730024C67300240368064A934202D13F
:103670000020FFF7CFBF044A934201D10120F8E7B1
:10368000704700BF000001400008004008B50C2151
:1036900004480AF0C1FA18B1BDE80840FEF76ABA5A
:1036A00008BD00BF606D002408B50C2104480AF075
:1036B00009FA18B1BDE80840FEF75CBA08BD00BFC2
:1036C000606D00242DE9F84302260025DFF8E08034
:1036D0003446334F013CE4B258F8243003B11D782E
:1036E000012D31D12F4A52F82430591C10D001330A
:1036F0002D4942F82430062262438818B0F804C0ED
:1037000063450DD1294B53F824300BB10420984761
:103710003D550124A64201D1BDE8F8832646D9E7EC
:103720004088834206D1214B53F82430002BEFD040
:103730000220ECE78A5A9342EAD11C4B53F824301A
:10374000002BE5D00020E2E7002DE1D13B5DDFF862
:103750005490012B11D11448062259F8243002FB51
:10376000040251888B420CD39288934209D20F4BAA
:1037700053F824300BB103209847002349F8243034
:10378000C6E706226243825A9342F6D38B42F4D2B2
:10379000064B53F82430002BEFD00120ECE700BF9C
:1037A000D4730024CC7300244C1703084417030877
:1037B00058170308014B1870704700BF0A01002416
:1037C000014B1870704700BF0901002410B50A4C66
:1037D00000F0B8FB207000F0BDFB084B084A1870E1
:1037E000B0FA80F023784009B3FA83F35B091370D1
:1037F000044B187010BD00BFE8730024E773002469
:10380000E6730024E5730024034B1B78012B06BFED
:10381000024B1878FF207047E47300240A0100244B
:10382000034B1B78012B06BF024B1878FF20704713
:10383000E47300240901002408B5FFF7E5FF024600
:10384000FFF7EEFF012A07D111482CF07DFB022083
:10385000FFF75AF8002008BD022A04D10D482CF0C9
:1038600073FB0120F4E7012804D10B482CF06CFB1A
:103870000520EDE7032804D108482CF0FDFA0420C8
:10388000E6E70228E6D106482CF0F6FA0320DFE747
:1038900060170308781703088F170308A817030891
:1038A000C71703082DE9F0414F4E504C327823786A
:1038B000012A4F4D1DD1012B0CD1FF234D483370F0
:1038C00023702CF041FB32782B78022A47D1012B50
:1038D00045D109E02B7823B9FFF7C2F846482CF010
:1038E00033FB2B78012B01D1FFF7A6FFFF233370A9
:1038F00035E0012B1BD12B788BB9FFF7E5F80328B6
:1039000004D13E482CF020FBFF232370FFF7DCF8A6
:10391000042804D1FF233A4823702CF015FB2B78A0
:10392000012BD0D1FFF788FFFF232370CBE7022ABA
:1039300020D1022B1ED10020FEF7E6FF2B78002BB2
:10394000C1D1FFF779FF2F482CF0FEFA01232B702D
:1039500004F09EF82C4B1860FF23337023702278FC
:103960002B78022A27D1012B3CD1FFF765FFFF23DB
:10397000237022E02B78012BA5D1244B1F78244BF8
:103980001B781F439FD104F083F8224BDFF88C8013
:1039900018601D4B1B68C01A43F697239842C8F85D
:1039A000000090D91C482CF0CFFAFEF793FF2F703F
:1039B000C8F8007087E7032AD5D02B78012B11D1E6
:1039C00033780BB123786BB9144B00221A6004F0E2
:1039D0005FF8104B186004F05BF80B4B1860FF2386
:1039E00033702370BDE8F0810A010024090100242E
:1039F000E4730024E3170308661703081418030888
:103A00003618030858180308DC730024E6730024F2
:103A1000E5730024D873002488180308E073002499
:103A200038B50024044DE3B2013455F8233003B90E
:103A300038BD9847F7E700BFE018030838B5002401
:103A4000044DE3B2013455F8233003B938BD98472B
:103A5000F7E700BFD818030838B50024044DE3B2D7
:103A6000013455F8233003B938BD9847F7E700BF54
:103A7000D018030838B50024044DE3B2013455F8DA
:103A8000233003B938BD9847F7E700BFC8180308CB
:103A900038B50024044DE3B2013455F8233003B99E
:103AA00038BD9847F7E700BFC018030838B50024B1
:103AB000044DE3B2013455F8233003B938BD9847BB
:103AC000F7E700BFB818030838B50024044DE3B287
:103AD000013455F8233003B938BD9847F7E700BFE4
:103AE000B018030808B50020FFF70CFD431E58422C
:103AF000584108BD08B50020FFF704FD831E584259
:103B0000584108BD08B50020FFF7FCFCC31E584211
:103B1000584108BD08B50020FFF7F4FCB0FA80F06A
:103B2000400908BD38B500200024074DFFF7EAFC26
:103B3000014606482CF0A0F9E3B2013455F82330D1
:103B400003B938BD9847F7E7E8180308A318030836
:103B500070477047704770477047704770477047AD
:103B600038B50024044DE3B2013455F8233003B9CD
:103B700038BD9847F7E700BF8C19030838B5002413
:103B8000044DE3B2013455F8233003B938BD9847EA
:103B9000F7E700BF8419030838B50024044DE3B2E9
:103BA000013455F8233003B938BD9847F7E700BF13
:103BB0007C19030838B50024044DE3B2013455F8EC
:103BC000233003B938BD9847F7E700BF74190308DD
:103BD00038B50024044DE3B2013455F8233003B95D
:103BE00038BD9847F7E700BF6C19030838B50024C3
:103BF000044DE3B2013455F8233003B938BD98477A
:103C0000F7E700BF6419030838B50024044DE3B298
:103C1000013455F8233003B938BD9847F7E700BFA2
:103C20005C19030808B500F03DF9431E584258419D
:103C300008BD000008B500F035F9022805D1044B95
:103C40001888031F5842584108BD0020FCE700BFF8
:103C50000C01002408B500F025F9022806D1044B18
:103C60001888A0F108035842584108BD0020FCE71D
:103C70000C01002408B500F015F9022806D1044B08
:103C80001888A0F110035842584108BD0020FCE7F5
:103C90000C010024014B1888704700BF0C01002460
:103CA000102802D1034B188003E00828FAD004281A
:103CB000F8D070470C01002470470000042008B5BC
:103CC000FFF7EEFF0248BDE808402CF03DB900BF09
:103CD000F419030808B50D4809F0C4FA002249F6A2
:103CE00040410A4809F062FA08B1FDF743FFFEF7C8
:103CF00055FC07F041FA064806F0F6FA012108469D
:103D000007F014FA014809F0ADFAFEE7AC6D0024A3
:103D1000886E002408B5FFF7BDFF0428094A08D1C2
:103D2000138841F6641101339BB28B4203D0138098
:103D300008BD0023FBE7002310201380BDE80840E6
:103D4000FFF7AEBFEA730024704770470820FFF703
:103D5000A7BF000008B5134BD3F8D020D1001BD467
:103D6000D3F8D020520117D40F4A526AD00705D594
:103D70000E48082105F0D1FD062008BDD3F8D0205B
:103D800091020BD4D3F8D020520209D4D3F8D0003A
:103D9000C0F3C0508000F0E70320EEE70120ECE71D
:103DA0000520EAE70044025800480258000802587B
:103DB00010B5FFF7CFFF044606281BD8DFE800F058
:103DC00004121A10141618000B482CF0BDF80B4AF8
:103DD0002046D2F8D03043F48033C2F8D03010BD42
:103DE0000748F2E70748F0E70748EEE70748ECE73F
:103DF0000748EAE70748E8E7091A030800440258B9
:103E00001E1A0308361A0308551A0308871A0308EE
:103E1000A01A0308C31A030838B50024044DE3B2FE
:103E2000013455F8233003B938BD9847F7E700BF90
:103E3000F01A030838B50024044DE3B2013455F8F4
:103E4000233003B938BD9847F7E700BFE81A0308E5
:103E500038B50024044DE3B2013455F8233003B9DA
:103E600038BD9847F7E700BFE01A030838B50024CB
:103E7000044DE3B2013455F8233003B938BD9847F7
:103E8000F7E700BFD81A030808B5FFF7BDFB6FEAD4
:103E9000900000F0010008BD08B5FFF7B5FBC0F3C6
:103EA000800008BD002000F085B8FFF7FDBBFFF7DC
:103EB000EDBB7047704700000B4B02781B6822B9BE
:103EC000012202705B6AC3607047C2685B6A02616C
:103ED000C3609B1A42689A4202D882689A4201D211
:103EE00001B10847704700BF146D00242DE9F84365
:103EF0000025DFF83C800D4E4FF00C0998F800309B
:103F0000ECB2A34201D8BDE8F88309FB04F43059B0
:103F1000371940B10CF054FA7B68834203D9B96871
:103F20003059FDF713FE0135E8E700BFF0730024B8
:103F3000EC73002408B5FFF767FB014B187008BD50
:103F400080740024024B187800F00100704700BF15
:103F500080740024024B1878C0F34000704700BF03
:103F6000807400240123837670470000837E3BB178
:103F700000234FF0FF328376036083604260038347
:103F8000024B1B685B6A0361704700BF146D00241D
:103F9000074B1B6830B45B6A056943615B1B8B424E
:103FA000C36002D90AB130BC104730BC704700BFB3
:103FB000146D0024014B33F8100070478274002404
:103FC000034B02221A805A8004229A80704700BF55
:103FD000827400242DE9F84F1D4F00264FF00C0A83
:103FE0001C4B37F8028B53F836B0BBF1000F29D0C9
:103FF0004FF0000905E0AB6823B3984722E009F1D0
:1040000001095FFA89F40AFB04F43BF804100BEB96
:104010000405B9B10421104805F07FFC3BF80410F9
:1040200018EA010FEBD069884145E4D0696800299E
:10403000E5D088470028E2D0AB6803B198476B8889
:1040400027F8023C0136032ECAD1BDE8F88F00BF25
:1040500082740024381B0308001C025870470000BB
:10406000DFF834D003F084FC002103E00B4B5B58F5
:10407000435004310A480B4B42189A42F6D30A4A7D
:1040800002E0002342F8043B084B9A42F9D32CF09B
:1040900085F9FCF79FFF7047000005246469030859
:1040A000000000241C0200242002002474D90124F2
:1040B000FEE7704708B501F0F7F8BDE8084001F0E9
:1040C0007BB801F0F3B8406870474160704700006A
:1040D0004FF0E022D2F8FC3D43F08073C2F8FC3D83
:1040E000054B064AD3F8B01F0A43C3F8B02F1A682D
:1040F00042F001021A607047001000E055CEACC5D6
:10410000521A02EB5302B2FBF3F07047014B5868AE
:10411000704700BF001000E0704710B504460C2146
:104120002BF06DF9204610BD036810B51B690446DD
:1041300031B19847A26863689B1A0344636010BD5D
:104140009847A060FBE770471FB508230020694629
:10415000CDE90230054B1B880093054B1B8801936A
:1041600003F024FB05B05DF804FB00BF56CD01242D
:1041700058CD012410B5044604212BF040F9204607
:1041800010BD30B585B000200D46144601A903903E
:10419000CDE9010003F08CFB40B14FF0500383F3F5
:1041A0001188BFF36F8FBFF34F8FFEE7019820B1E7
:1041B000029B01202B60039B236005B030BD0000F3
:1041C000032825D8DFE800F0020B131C114B012156
:1041D00011481A68B2FA82F2520905F099BB0D4BE8
:1041E00008210E485A68B2FA82F25209F5E7094BE3
:1041F0004FF480419A68B2FA82F252090848ECE71B
:10420000044B4FF40041DA68B2FA82F25209F5E742
:10421000704700BF8874002400000258001802583C
:1042200000040258032825D8DFE800F0020B131C15
:10423000114B012111481A68003A18BF012205F0FC
:1042400067BB0D4B08210E485A68003A18BF01227F
:10425000F5E7094B4FF480419A68003A18BF0122F4
:104260000848ECE7044B4FF40041DA68003A18BF05
:104270000122F5E7704700BF88740024000002584F
:104280000018025800040258032811D8DFE800F093
:104290000206090D0121074805F03FBB0821064829
:1042A000FAE74FF480410548F6E74FF40041FAE79A
:1042B000704700BF0000025800180258000402585E
:1042C00008B5032815D8DFE800F0020A0D11012116
:1042D000094805F017FB431E5842584108BD082104
:1042E0000648F6E74FF480410548F2E74FF40041F5
:1042F000FAE70020EFE700BF00000258001802585C
:104300000004025870B5084D00240126E0B2FFF702
:10431000D7FF18B12B68012B18BF2E60013404356C
:10432000052CF3D170BD00BF88740024012380F8F0
:10433000781080F879307047002070474164003968
:10434000024B18BF01211970704700BF5BCD0124DB
:1043500000207047836B0BB10846184770474FF633
:10436000FF707047406803689B69184770470000FA
:1043700038B5044601F0C6F80749236804F17C0506
:104380002046D3F88C3098472846FFF7A1FE01233A
:10439000256184F8703038BD0000007008B50368EE
:1043A0000446D3F880309847236820469B6F98478F
:1043B00000F02CF9236820461B6F984701224FF428
:1043C0008061084805F0A4FA01224FF40041064834
:1043D00005F09EFA00F01AF9236820461B6F9847F3
:1043E000F8E700BF000C02580018025810B5044648
:1043F0001AF078FB23682046D3F8AC30BDE81040B3
:10440000184701F04BB801F04FB8000070B501F04B
:10441000A3F810490023C1F88430BFF34F8FD1F8BF
:10442000803043F6E074C3F3C900C3F34E335B013D
:1044300003EA0406024646EA8275013AC1F874525C
:10444000F9D2203B13F1200FF2D1BFF34F8FBFF30E
:104450006F8F70BD00ED00E000F0FCBF01F0E6B929
:1044600001F0EEB901F000B819F0A8BD10B504468E
:1044700088212AF0C4FF204610BD000090F83410B7
:104480000D4B10B590F878401A788C4209D03AB9A3
:104490000A490B4A08881488108001220C801A707F
:1044A00010BD002AFCD0064A0449148808880C80F4
:1044B00010800022F3E700BF54CD012452CD012427
:1044C00050CD012470B50D46194635B9094B40F25F
:1044D000D221094A09482BF00BFBC0E90F52003AE0
:1044E000074B18BF01221A700368BDE87040D3F86B
:1044F0008C3018478C1B0308C41B0308121C0308CC
:104500005ACD012408B5094B1B888B4203D8084BB0
:104510001B88934205D9074B9E21074A07482BF079
:10452000E7FA074B1980074B1A8008BD50CD0124CC
:1045300052CD0124571C0308BA1C0308121C03089F
:1045400056CD012458CD0124034690F87A0018B1C5
:10455000586803681B68184770470000014608B593
:10456000034B186801B101211AF0D6FA012008BDE9
:104570005CCD01240121002208B508460AF0CCF8E0
:104580000A4B186028B90A4B28210A4A0A482BF01E
:10459000AFFA0022042101200AF05DF9074B1860F0
:1045A00018B9074B2C21034AF0E708BD9C7400247E
:1045B000D81D0308211E0308501E03089874002408
:1045C000C91E0308024B4FF0FF3118680AF0EEB81D
:1045D0009C740024014B18680AF014B99C740024E0
:1045E000024B002118680AF0E1B800BF9C74002457
:1045F000FFF7F0BF0023034803491A4600680AF09A
:1046000065B900BF987400241001002413B500237D
:10461000074C01A91A4620680AF089F94FF0FF33C8
:10462000002201A920680AF082F902B010BD00BF83
:104630009874002403685B6C184701207047036876
:104640009B6A184740F2EF3070470000054B4FF06F
:1046500080620360044BC3F88820BFF34F8FBFF321
:104660006F8F70479420030800E100E010B5044606
:104670004FF45A61FFF7EAFF20462AF0C0FE2046B9
:1046800010BD00000F4B82B0D3F8D42042F01002CE
:10469000C3F8D420D3F8D42002F010020192019A7A
:1046A000DA6F42F01002DA67DA6F22F01002DA678E
:1046B000054B064A1A62064B4FF080629A6002B0C0
:1046C000704700BF00440258E06F002419490008F9
:1046D00000E100E008B50A2809D8DFE800F006107C
:1046E0000E080808081010101000022008BD054B25
:1046F0008621054A05482BF0FBF90020F6E701204A
:10470000F4E700BF0B1F0308261F0308711F0308EF
:1047100038B50C46887FFFF7DDFF124BA58AE28A89
:10472000586342EA054221695A64628BD963521B7D
:104730001A642568082D0ED19A611A6158620A4AD6
:10474000207F42EA0062DA61E2681A62074A596130
:10475000D9601A6038BD0022D8611A61E2689A6394
:10476000034AF6E7001000520900010001020200AE
:104770000102030008B50B280BD8DFE800F0061291
:10478000100A0A0A0A0808080808022008BD0520BD
:10479000FCE7054B6521054A05482BF0A9F90020E7
:1047A000F4E70120F2E700BF0B1F0308E81F03082E
:1047B000711F03082DE9F8434F7F89463846FFF7FC
:1047C000D9FF99F81E5080462846FFF7D3FF0646CA
:1047D0002846FFF77FFFB9F81410B9F81A40B9F866
:1047E0001820454B641A521A1C649C611A61B9F86E
:1047F0001620586342EA0142D9F810105A64D9F8D9
:104800000420D963DA60D9F8004099F81C20802C84
:1048100022D00FD8202C66D0402C64D0042C5CD041
:1048200048EA0260344BAF4240F40030D86160D0B7
:10483000324A3FE0B4F5807F04D0B4F5007FEFD179
:104840002F4800E02F4840EA0262DA61D9F80C20D4
:104850001A625E6259612CE048EA0260D9F80840A9
:1048600040F40030D8615E625961211DD96221781F
:1048700041B1012921D0244B4FF48071234A2448AF
:104880002BF036F9DA69618822F47F42013922F08F
:10489000100242EA0122DA610122174BD96941F084
:1048A0002001D961D9698906FCD410219960002AB8
:1048B000BED0184A1A60BDE8F883D969FF3A60880B
:1048C00021F47F4118BF0122013821F0100141EA93
:1048D000002141F01001D961DFE748EA026242F4A9
:1048E0000032DA61B5E748EA0262034B42F4003273
:1048F000F7E740F20122DDE700100052010201005B
:10490000090002000A000200322003084C200308BC
:10491000711F030801020200024B1B6858680368FC
:104920005B6918475CCD012470B504460A4B0C3016
:1049300000262546602260602672667245F8203B9C
:1049400029461AF03FFA04F55A63EE6024359D4279
:10495000FBD1204670BD00BF94200308034B1A68AA
:10496000D207FCD423229A60704700BF0010005287
:1049700030B5104C2568ED07FCD423250904FF2B26
:10498000A5604FF0010541EA050165636164E063DC
:104990000CD0094922F07F42656241EA0363E3617A
:1049A000064B22626061E060236030BDE561044B2C
:1049B000A263F9E7001000520900010001000200A3
:1049C000010003004069704790F844007047036B92
:1049D00023B9C06A003818BF012070470120704712
:1049E00080687047043010B50C460FC884E80F008B
:1049F00010BD704708B5034A40F21221024B03482C
:104A00002BF076F8DC200308933B030837210308DA
:104A100010B5044648212AF0F2FC204610BD2DE9CD
:104A2000F0411E46ADF51E7D436B07460C46904691
:104A3000A69D93B3002203A8CDE9013212F00AF833
:104A40004FF4F4725021249024A80BF0D0FF42467A
:104A5000214624A80CF024FF012124A80CF0C2F860
:104A6000022324A88DF8D8300CF05DF9419BBDF8E5
:104A70009482BDF89022984528BF98462B9B9A4275
:104A800028BF1A4602EB4204479B984509D824A840
:104A90000CF0CAF824A80BF0F7FF0DF51E7DBDE859
:104AA000F081012201A924A80CF086F930462246A3
:104AB000796B2E442BF099FCE6E700000A4A02606D
:104AC0000022C0E90522C0E90722C0E90922C0E9A5
:104AD0000B22C0E90D12C0E90F2280F84420C0E982
:104AE0000322C0E9012270474424030810B40C4695
:104AF00011461A46036B3BB1036C806BE41A2044E9
:104B00005DF8044B2BF042BBC06AF8E7036B10B5AD
:104B100073B1036C826BC91A5318525C98785C7835
:104B20000004DB7840EA0420104340EA036010BD33
:104B3000C36A5858FBE7036B43B1036CC91A836B14
:104B40005A18585C527840EA02207047C36A585A93
:104B50007047000070B50446006B0D461646D8B18C
:104B6000E36B934208D209230D4A65210D4884F86E
:104B700044300D4B2AF0BCFF0368DB689847206B7C
:104B80003246A16B03681B69984710B90D2384F85E
:104B90004430A06B256470BDE06A0844FBE700BFA9
:104BA000CD21030837210308BA2103082DE9F84372
:104BB000436904462BB9234BAA21234A23482AF0F0
:104BC00097FF08228169FFF7C5FFA16943F230060C
:104BD00046F2643704312046FFF798FFA369184472
:104BE000A36A00F108029A4206D301230020636100
:104BF000236AA361BDE8F8836369093008220133A1
:104C000020F0010120466361A161FFF7A3FFD4F802
:104C1000189020464946FFF78EFF09F102018046B1
:104C20002046FFF788FF09F1040105462046FFF7FB
:104C30006DFFB045D2D1BD42D0D10028CED00120E9
:104C4000D8E700BF0F2203085822030837210308C2
:104C50002DE9F04F0546ADF51F7D8B4690468169E5
:104C600008221F46FFF776FFAE692846311DFFF781
:104C70004DFF06F10801024604462846FFF76AFF89
:104C80006B6B064633B9344B40F2AB11334A3448B0
:104C90002AF02EFF002203A8CDE9013211F0DAFE3E
:104CA0004FF4F4725021249024A80BF0A0FE224669
:104CB000314624A80CF0F4FD012124A80BF092FF4A
:104CC000022324A88DF8D8300CF02DF8BBF902A0EF
:104CD000479B53452DD3BBF8063007EB4707BBF87E
:104CE0000260BBF900401E44BBF80420419B04EB6A
:104CF000440936B2224407FB0A9A9E4212B2D044BB
:104D000028BF1E462B9B9A4294BFC4EB0204C4EBFF
:104D1000030404EB4404479BB34210D324A80BF0D4
:104D200083FF24A80BF0B0FE01200DF51F7DBDE828
:104D3000F08F012201A924A80CF03EF8C8E7012257
:104D400001A924A80CF038F8696B40462246494472
:104D5000B8442BF04AFBDEE78B220308E12203086C
:104D6000372103080129036838BF0121DB6A70B5C8
:104D70000D4604469847A84204D223682046DB6AC1
:104D8000984705466B1EE6691022204606EB03167F
:104D900006F10801FFF7DEFE06F110012046FFF7DD
:104DA000B5FE236A043B0344C4E9055370BD00000B
:104DB000002148222DE9F0410446816180F8441029
:104DC000FFF7C8FEA6690423624A31462046FFF772
:104DD0008DFE40B10323604AF22184F844305F4BDA
:104DE0005F482AF085FE06F1080104235D4A20464B
:104DF000A161FFF77BFE30B10423574AFA2184F802
:104E00004430594BECE706F10C010423574A204685
:104E1000A161FFF76BFE074638B105234E4A40F209
:104E2000011184F84430524BDAE706F110012046B4
:104E3000FFF76CFE054620B94E4B40F20711464A7B
:104E4000CEE706F1140804234B4A20464146FFF7FB
:104E50004DFE002849D0062384F844300423474AF5
:104E600006F118012046FFF741FE00283FD0072336
:104E700084F844304544424F0C2220462946FFF72F
:104E800069FE05F1080604233A4620463146FFF73D
:104E90002DFE94F84430002848D0002B48D1A36A56
:104EA000AB4249D805F10C0304352046A3612946DD
:104EB000FFF72CFE3044294660622046FFF726FEAD
:104EC0000644042220463146FFF744FE04232D4ABF
:104ED00031462046FFF70AFE002838D10123E6615B
:104EE0006361A3692362BDE8F0810127B6E7002F63
:104EF000C0D006F120012046FFF708FE4FF47A7378
:104F000006F13001B0FBF3F060602046FFF7FEFDD4
:104F100006F14001A0602046FFF7F8FD06F14401CC
:104F2000E0602046FFF7F2FD2061A3E7002BB9D037
:104F30000A2384F84430D6E7291D2046FFF7E6FD12
:104F400085190C2220462946FFF704FE99E70B231A
:104F5000EFE700BF3B23030859230308402303085E
:104F600037210308862303088B230308A3230308A0
:104F7000A8230308BE230308CA230308CF2303087A
:104F8000D4230308D9230308C0E90A2100220263BD
:104F9000FFF70EBF10B5002304460846E3620B6816
:104FA00021639B689847A0622046BDE81040FFF748
:104FB000FFBEF0B4069FBDF81050BDF8146032B1CA
:104FC0002BB10495CDE90567F0BCFFF728BDF0BC17
:104FD000704700002DE9F04F9946436985B00446BB
:104FE0000F4690462BB9294B7721294A29482AF0A8
:104FF0007FFD08228169FFF7ADFDA6692046314695
:10500000FFF799FDB11C83462046FFF794FD311D43
:1050100082462046FFF77AFD06F10801A36A05469D
:1050200042189A4226D243F230039B4517D146F2EA
:1050300064339A4513D190B10246A1612046FFF72F
:1050400089FD0E9B01462A462046CDF80080CDE919
:1050500001933B46FFF7ADFF636901336361A369C9
:105060002B4405B908330133626A23F001039342EC
:10507000A36109D1012301206361236AA36180F048
:10508000010005B0BDE8F08F0020F8E70F2203080B
:10509000DE23030837210308012070470C207047E6
:1050A0000C2303FB0100083070470C2303FB0100B5
:1050B0000830704701207047C4207047C42303FBA9
:1050C000010008307047C42303FB0100083070471B
:1050D000012070471020704700EB01100830704726
:1050E00000EB011008307047084600F0DBBE0000FE
:1050F000034B10B50446036018F0B6FC204610BD03
:10510000EC24030810B50446FFF7F2FF14212046F3
:105110002AF075F9204610BD034B10B50446036014
:1051200018F0A2FC204610BDB824030810B50446B0
:10513000FFF7F2FFCC2120462AF061F9204610BD8E
:10514000034B10B50446036018F08EFC204610BDDA
:105150008424030810B50446FFF7F2FF1821204607
:105160002AF04DF9204610BD084B10B5044640F812
:10517000F83BFFF7BDFF04F12C00FFF7CDFF04F172
:105180001400FFF7DDFF204610BD00BF20250308F7
:1051900008B50248FFF7E8FF08BD00BF58830024A8
:1051A00010B50446FFF7E0FF4FF41C7120462AF0CB
:1051B00026F9204610BD00002DE9F34100F0FAFC6D
:1051C0000024054600F0FAFC234601462246284604
:1051D000009420F057F9274B274A2046274D1A60A4
:1051E00001F090F8264B274A27489A6020F002F8F1
:1051F0002B68BFF35B8FDB0735D428462AF001F913
:1052000088B3224C224B04F58A7604F1140004F191
:105210002C0804F1F80723606060C4F80880E76098
:10522000266118F023FC1B4B4046636118F01EFCFE
:10523000194B3846E36218F019FC184B04F58670D8
:10524000C4F8F83001F0D4F8224604F586713046EF
:1052500001F0C4F8304600F025FE11482AF066FC43
:1052600028462AF0DAF80F4802B0BDE8F041FFF70F
:105270007FB800BFC0CD01242875002454830024CA
:10528000487500242C750024140100245883002440
:105290002025030884240308B8240308EC24030809
:1052A00091510008A0740024704700000148FFF7E6
:1052B00075B800BFA074002470B5274E274B284C4A
:1052C0003046284D2360FFF72FFB284623F088F94E
:1052D00025481EF0C5F9254B00224FF48071244863
:1052E0001A8683F858205A6683F87020DC60C3E978
:1052F00012122049C3E91A121F490B604FF4F071D2
:1053000001801E4801804FF488711D4801801D48AE
:1053100001801D49C3E90422C3E90622C3E908222A
:10532000C3E90A22C3E90E22C3E91022C3E9142209
:10533000C3E91722C3E901650A701449C3F8802044
:1053400083F8342019605A671149C3F88420114A40
:105350009967DA6770BD00BFB07500247C1B030835
:1053600050830024487500242C750024A074002468
:1053700050CD0124010000015CCD012456CD012453
:1053800052CD012458CD012454CD0124081D030819
:1053900000000101541B03080148FFF757B900BF83
:1053A000B07500240020704781807047C18070472D
:1053B000018170474181704770477047704770475F
:1053C000704710B4C4880368121B84885B6D091B86
:1053D00012B25DF8044B09B218474FF6FF73838190
:1053E0004FF0FF3303621368C36110607047002001
:1053F00070478B88838001207047704780F82610A3
:10540000704790F826007047002210B5B1F90840A7
:10541000B1F90A10028042808480C18010BD002250
:10542000028042808280C28070470177704780EDA1
:10543000080A704780F82410704780F825107047DC
:1054400001207047983070478C3070478430704727
:1054500070470000034B902283F85A2383F85823A7
:10546000704700BF00E100E0094A0A49D3680A48D2
:10547000C3F30A03013B9BB20B801169C1F30A011C
:10548000013901801364536B43F001035363704788
:1054900000100050CA850024C8850024014BD3F8B1
:1054A000AC00704700100050024B0122C3F8AC1052
:1054B0005A627047001000500163C0E90D21704727
:1054C00070477047704700EB8100114640680368E1
:1054D000DB68184780F83C10704710B50446482137
:1054E00029F08DFF204610BD10B504462C2129F06F
:1054F00086FF204610BD10B50446BC2129F07FFF71
:10550000204610BD38B5044618F0ADFD23685D6E29
:105510001CF078FF01462046A8472368074A20462A
:10552000D3F8885000230649A847064B064A5A601C
:10553000064A1A639A63064A5A6338BD00F40B7030
:1055400000FA05708C860024D486002400EE1170C9
:1055500000FA050018F06EBD18F036BD18F097BEC1
:1055600038B504460D46406C4FF0FF3109F092F813
:10557000606C09F0B2F8242303FB0545002385F88D
:10558000283094F828300BB9236BA36338BD90F80A
:10559000252012B103685B6918477047124A5369A6
:1055A000DB0370B51ED50023C2F88430BFF34F8FE4
:1055B000D2F8803043F6E074C3F3C900C3F34E332E
:1055C0005B0103EA0406014646EA81750139C2F827
:1055D0007452F9D2203B13F1200FF2D1BFF34F8F59
:1055E000BFF36F8F70BD00BF00ED00E008B531B1B3
:1055F000044B4FF4B871044A04482AF079FA90F841
:10560000290008BD2C25030840250308CA260308E5
:1056100010B531B1064B4FF4B571064A06482AF071
:1056200067FA406811460368BDE810401B6B1847D5
:105630002C2503080D270308CA26030808B529B13D
:10564000034B7921034A04482AF052FAC06808BD86
:105650002C250308BB280308CA26030810B50446F6
:1056600029B1194BA221194A19482AF041FA052AF1
:1056700015D8DFE802F0031115171C2240680368F3
:105680001B69984758B1012384F8293084F82C30DD
:105690000023C4E9043302E0002380F8293010BD60
:1056A0000362F5E70362012380F82A30F0E7002364
:1056B00080F8293001230362F1E7003B18BF012382
:1056C00080F82D30EBE700BF2C250308702A030873
:1056D000CA26030810B50C4611461A462CB1064BD3
:1056E0009021064A06482AF003FAC460406803681D
:1056F000BDE810409B6818472C250308442C03087C
:10570000CA26030808B529B1054B8221054A064877
:105710002AF0EEF9C0E90411C0E9063208BD00BF65
:105720002C2503081F2E0308CA26030890F83D30D5
:1057300010B5044653B14FF0FF31406C08F0AAFF9A
:10574000002384F83D30012384F83E3010BD90F8EA
:1057500025201AB190F8242002B11860704700008B
:1057600010B50446104629B1134BD021134A1448F2
:105770002AF0BEF994F8293033B1124B1B6893F824
:105780006B2063691344636194F82B300BB90120DB
:1057900010BDA368036303685B699847002394F80E
:1057A0002C0084F82B300028F1D194F82D30002BF8
:1057B000EED184F82900EBE72C250308DB2F030842
:1057C000CA2603085CCD012410B5174C18F03EFC26
:1057D00094F8293013B994F82A30ABB1E169D4E9CF
:1057E0000532534322694A4393420DD394F83C0057
:1057F00038B19B1AB3FBF1F2994298BF02F1FF3224
:105800006262012384F82E300123206C84F83D303D
:1058100008F0F8FF94F83E302BB1606C08F05DFFA3
:10582000002384F83E3010BD8C860024034B4FF0DB
:1058300080629A604FF080729A60704700E100E0E9
:10584000084B4FF08062C3F88820BFF34F8FBFF33F
:105850006F8F4FF08072C3F88820BFF34F8FBFF374
:105860006F8F704700E100E0F8B5034690F828001C
:10587000D8B94FF480729E6B0125D8609A8506F5E1
:10588000BF22186102F5007258619861D8611862F0
:1058900058629D6283F82E00D3E90C473C44A24233
:1058A0000AD90B4B52210B4A03E00B4B40F2C511B6
:1058B0000A4A0B482AF01CF99E609A634FF4F07371
:1058C00081F83450CB864FF4887308630B87F8BD9A
:1058D000333303086E3303087C310308AC3103080B
:1058E000CA260308002370B5124E04468380124B6B
:1058F0000360336893F858200AB1D86C00B99868EF
:105900000368DB6A9847431E5D425D413368D86C8B
:1059100030B10368DB6A9847012808BF45F00105EC
:105920002DB9064B2721064A06482AF0E1F8204601
:1059300070BD00BF5CCD0124143603081135030887
:105940006F350308A835030870B5244E3568BFF3DA
:105950005B8F15F001053FD1304629F052FD00283C
:105960003AD01F4C1F4B04F134002561E584A56239
:10597000A585C4E90035C4E902551EF0D0F804F14C
:1059800058001AF0A5FD184B2046A365174B40F8A8
:10599000843BFFF7A7FF164B1648C4F88430243326
:1059A000C4F89050C4F88C306423C4F89C50C4F8F8
:1059B000A850C4E928350023C4F8AC30C4F8B0308E
:1059C000C4F8B430C4F8B8300B4BC4F898302AF09F
:1059D000ADF8304629F021FD014870BDCC8500248A
:1059E000D08500240460030834360308AC3603086D
:1059F00050600308515400088860030810B5144C27
:105A0000236823B3134B144A1B6C11888B4213D1A8
:105A1000124B198804F026FD226892F86A3001338F
:105A200082F86A30FEF7E6FD206819F05BF8002086
:105A3000BDE81040FEF7C4BB04F014FD2068036805
:105A40001B6A98470020BDE81040FEF7EBBB10BD75
:105A50005CCD012400100050CA850024C8850024B4
:105A60002DE9F743044601264FF4B4674FF0FF31A8
:105A7000206C08F09BFE4FF0FF31606C08F00AFECE
:105A800094F82E3043B36568D4F820802B6884F8EE
:105A90002B60B8F1000F23D05B6A41462846984737
:105AA000002323622B684FF4F07200972846D3F846
:105AB00014804FF48873A168C047236984F82C00D0
:105AC00001332361F0B12B6828469B6A984701385F
:105AD0000023E06084F82E30606C08F0FEFDC5E71E
