:020000040800F2
:1000000000000524C14E000821290008232900080A
:1000100025290008272900082929000800000000D8
:100020000000000000000000000000003111010885
:100030002B29000800000000C11101086B0901080C
:10004000114F0008114F0008114F00082D2900081A
:10005000114F0008114F0008114F0008114F000800
:10006000114F0008114F000839290008114F0008EE
:10007000114F0008114F0008114F0008114F0008E0
:10008000114F0008114F0008114F0008114F0008D0
:10009000114F0008114F0008114F0008114F0008C0
:1000A000114F0008114F0008114F000841290008A6
:1000B000114F0008114F00084D290008114F00088A
:1000C000114F0008114F0008114F0008114F000890
:1000D000114F0008114F0008114F0008114F000880
:1000E000114F0008114F000800000000114F0008D8
:1000F000114F0008114F0008114F0008114F000860
:10010000114F0008114F0008114F0008114F00084F
:10011000114F0008114F000859290008114F00081D
:10012000114F0008114F0008114F0008114F00082F
:10013000114F0008114F0008114F0008114F00081F
:1001400000000000000000000000000000000000AF
:10015000114F0008114F0008114F0008114F0008FF
:10016000114F0008114F0008114F0008114F0008EF
:10017000114F0008114F0008114F0008114F0008DF
:10018000114F0008114F0008114F0008114F0008CF
:10019000114F0008114F0008114F0008114F0008BF
:1001A00065290008114F00087129000800000000AF
:1001B000114F0008114F0008114F0008114F00089F
:1001C000114F0008114F000800000000000000005F
:1001D0000000000000000000114F000800000000B7
:1001E000000000000000000000000000000000000F
:1001F0000000000000000000114F0008114F00082F
:10020000114F0008114F000800000000114F0008B6
:10021000114F0008114F0008114F0008114F00083E
:10022000114F000800000000114F000800000000FE
:10023000114F0008114F000800000000114F000886
:10024000114F0008114F0008114F0008114F00080E
:10025000114F0008114F0008114F0008114F0008FE
:10026000114F0008114F0008114F0008114F0008EE
:10027000114F0008114F0008114F00080000000046
:10028000114F0008114F0008114F0008114F0008CE
:1002900000000000114F0008114F0008114F000826
:1002A000114F0008114F0008114F0008114F0008AE
:1002B000114F0008114F0008114F00087D29000858
:0C02C00089290008114F0008114F0008A8
:1002D00010B5054C237833B9044B13B10448AFF380
:1002E00000800123237010BD78010024000000006D
:1002F000A850030808B5034B1BB103490348AFF3EB
:10030000008008BD000000007C010024A850030804
:1003100001F0FF01102A2BDB10F0070F08D010F8B6
:10032000013B013A8B422DD010F0070F42B3F6D1BA
:10033000F0B441EA012141EA014122F007047FF0D3
:1003400000070023F0E80256083C85EA010586EA2A
:10035000010685FA47F5A3FA87F586FA47F6A5FA66
:1003600087F68EB9EED1F0BC01F0FF0102F0070272
:1003700032B110F8013B013A83EA010313B1F8D11D
:100380000020704701387047002D06BF35460338FE
:10039000073815F0010F07D1013015F4807F02BF37
:1003A000013015F4C03F0130F0BC0138704700BF88
:1003B00081F0004102E000BF83F0004330B54FEA16
:1003C00041044FEA430594EA050F08BF90EA020F83
:1003D0001FBF54EA000C55EA020C7FEA645C7FEA16
:1003E000655C00F0E2804FEA5454D4EB5555B8BF39
:1003F0006D420CDD2C4480EA020281EA030382EAAA
:10040000000083EA010180EA020281EA0303362D3B
:1004100088BF30BD11F0004F4FEA01314FF4801C0E
:100420004CEA113102D0404261EB410113F0004F20
:100430004FEA03334CEA133302D0524263EB4303D7
:1004400094EA050F00F0A780A4F10104D5F1200E75
:100450000DDB02FA0EFC22FA05F2801841F10001D0
:1004600003FA0EF2801843FA05F359410EE0A5F1A4
:1004700020050EF1200E012A03FA0EFC28BF4CF0D5
:10048000020C43FA05F3C01851EBE37101F000458B
:1004900007D54FF0000EDCF1000C7EEB00006EEB98
:1004A0000101B1F5801F1BD3B1F5001F0CD3490822
:1004B0005FEA30004FEA3C0C04F101044FEA445279
:1004C00012F5800F80F09A80BCF1004F08BF5FEA00
:1004D000500C50F1000041EB045141EA050130BDE0
:1004E0005FEA4C0C404141EB0101013C28BFB1F5F2
:1004F000801FE9D291F0000F04BF01460020B1FA3D
:1005000081F308BF2033A3F10B03B3F120020CDA0F
:100510000C3208DD02F1140CC2F10C0201FA0CF0ED
:1005200021FA02F10CE002F11402D8BFC2F1200C52
:1005300001FA02F120FA0CFCDCBF41EA0C01904008
:10054000E41AA2BF01EB0451294330BD6FEA040451
:100550001F3C1CDA0C340EDC04F11404C4F120023C
:1005600020FA04F001FA02F340EA030021FA04F34E
:1005700045EA030130BDC4F10C04C4F1200220FAA5
:1005800002F001FA04F340EA0300294630BD21FAE3
:1005900004F0294630BD94F0000F83F4801306BFA9
:1005A00081F480110134013D4EE77FEA645C18BF9D
:1005B0007FEA655C29D094EA050F08BF90EA020F34
:1005C00005D054EA000C04BF1946104630BD91EA2C
:1005D000030F1EBF0021002030BD5FEA545C05D12F
:1005E0004000494128BF41F0004130BD14F580046E
:1005F0003CBF01F5801130BD01F0004545F0FE41E2
:1006000041F470014FF0000030BD7FEA645C1ABF16
:10061000194610467FEA655C1CBF0B46024650EA4D
:10062000013406BF52EA033591EA030F41F4002179
:1006300030BD00BF90F0000F04BF0021704730B5FF
:100640004FF4806404F132044FF000054FF00001D4
:1006500050E700BF90F0000F04BF0021704730B595
:100660004FF4806404F1320410F0004548BF40426A
:100670004FF000013EE700BF42004FEAE2014FEABF
:1006800031014FEA02701FBF12F07F4393F07F4F9A
:1006900081F06051704732F07F4208BF704793F09D
:1006A0007F4F04BF41F40021704730B54FF46074B0
:1006B00001F0004521F000411CE700BF50EA0102B3
:1006C00008BF704730B54FF000050AE050EA01025C
:1006D00008BF704730B511F0004502D5404261EBCC
:1006E00041014FF4806404F132045FEA915C3FF40D
:1006F000D8AE4FF003025FEADC0C18BF03325FEAAA
:10070000DC0C18BF033202EBDC02C2F1200300FA5A
:1007100003FC20FA02F001FA03FE40EA0E0021FA7F
:1007200002F11444BDE600BF53B94AB9002908BF1D
:1007300000281CBF4FF0FF314FF0FF3000F06AB9C6
:10074000ADF1080C6DE904CE00F006F8DDF804E028
:10075000DDE9022304B070472DE9F047089D0C46FF
:10076000002B4ED194468C458646B2FA82F262D96D
:100770004AB1C2F12003914020FA03F30CFA02FCC3
:10078000194300FA02FE4FEA1C471FFA8CF6B1FB30
:10079000F7F44FEA1E4307FB141143EA014304FB3D
:1007A00006F199420AD91CEB030304F1FF3080F0F3
:1007B0001281994240F20F81023C6344591A1FFA98
:1007C0008EF3B1FBF7F007FB101143EA014300FB86
:1007D00006F69E420AD91CEB030300F1FF3180F0BC
:1007E000FC809E4240F2F980634402389B1B40EA41
:1007F000044000211DB1D3400022C5E90032BDE80C
:10080000F0878B4205D90DB1C5E9000100210846EA
:10081000F5E7B3FA83F1002946D1A34202D390420F
:10082000C0F0F080861A64EB03030120002DE6D0AF
:10083000C5E90063E3E7002A40F09080A1EB0C04D7
:100840004FEA1C481FFA8CF70121B4FBF8F64FEA77
:100850001E4308FB164443EA044307FB06F0984294
:1008600008D91CEB030306F1FF3402D2984200F2D0
:10087000CD8026461C1A1FFA8EF3B4FBF8F008FB55
:10088000104443EA044300FB07F79F4208D91CEBDE
:10089000030300F1FF3402D29F4200F2B0802046F1
:1008A000DB1B40EA0640A5E7C1F120068B4022FA97
:1008B00006F71F4320FA06FC04FA01F343EA0C038F
:1008C000F44000FA01F8380C4FEA1349B4FBF0FE8B
:1008D0001FFA87FC00FB1E4449EA04440EFB0CF996
:1008E000A14502FA01F20AD93C190EF1FF3A80F053
:1008F0008480A14540F28180AEF1020E3C44A4EB1D
:1009000009041FFA83F9B4FBF0F300FB134449EA2E
:10091000044403FB0CFCA44507D93C1903F1FF3048
:1009200067D2A44565D9023B3C4443EA0E40A0FB94
:100930000293A4EB0C049C42CE469C4651D34ED06D
:1009400055B1B8EB0E0364EB0C0404FA06F6CB4089
:100950001E43CC40C5E90064002150E7C2F12003EA
:1009600020FA03F10CFA02FC24FA03F394400C433E
:100970004FEA1C4800FA02FE1FFA8CF7B3FBF8F0AE
:1009800008FB1031230C43EA014300FB07F19942B5
:1009900008D91CEB030300F1FF362CD299422AD967
:1009A000023863445B1AA4B2B3FBF8F108FB1133BD
:1009B00044EA034401FB07F3A34208D91CEB0404F7
:1009C00001F1FF3613D2A34211D902396444E41A6B
:1009D00041EA004139E70446F0E6084606E7C84523
:1009E000AED2B9EB020E63EB070C0138A8E7314633
:1009F000EDE7034699E73046D4E7D6467FE7634400
:100A000002384DE70646234608460FE7023E634498
:100A100030E700BF704700BF0149002011F04EBD14
:100A2000BD53000808B542F2107010F01EF8FAE746
:100A300008B5642010F019F8FBE708B503F042F898
:100A400004F0C2F9042010F010F8F7E708B504F03C
:100A5000FDF90A2010F009F8F9E70000094C0A4DE9
:100A600008B5204609F080FE6421204609F014FBF9
:100A7000204609F09FFB286002F03EFF64200FF043
:100A8000F4FFEEE73C47002420480024094C0A4DBF
:100A900008B5204609F068FE0121204609F0FCFA5D
:100AA000204609F087FB288002F0D8F964200FF077
:100AB000DCFFEEE7AC4700242448002408B502F030
:100AC000E1FB41F288300FF0D0FFF8E708B502F003
:100AD000F5FDFA200FF0C9FFF9E708B502F0CEFEE8
:100AE0004FF47A700FF0C1FFF8E708B503F004F98E
:100AF00003F07EF803F06CF901200FF0B6FFF5E784
:100B000008B502F07DF802F045F94FF4FA700FF0E5
:100B1000ACFFF6E7054C08B502F004FB02F01CFB45
:100B2000206032200FF0A1FFF6E700BF1C48002430
:100B300008B502F065FC4FF47A700FF096FFF8E705
:100B400007B54FF6FF730190012201A903480FF08A
:100B5000AEFD019803B05DF804FB00BF50430024D4
:100B600010B59CB04C22002109A833F0D5FA202200
:100B7000002101A833F0D0FA04200CF0A1FD0023DD
:100B80000093214B9A6922F440429A619A6902F4D7
:100B900040420092009A9A699204FCD50CF05AFDEA
:100BA0001A4A2C210024136F09A823F01803136795
:100BB0000D224FF480331B94CDE909230122022337
:100BC000CDE915120B920E9244221493CDE917230E
:100BD000CDE912330C23CDE919340CF0AFFD03211C
:100BE0003F2308204FF4806203947024CDE9013143
:100BF0004023CDE9040301A80893CDE906420DF096
:100C0000B9F81CB010BD00BF00480258004402589B
:100C100000B5AFB00021982208A833F07DFA124A3F
:100C200000231920CDE9002305225023CDE902231A
:100C300002238022CDE90433069307924FF4907289
:100C4000CDE90C331E230E934FF400731093202331
:100C500013934FF48033CDE90A02684628930DF0D0
:100C600071FB2FB05DF804FB000008222DE98048DD
:100C7000A1B0102200214FF0E04A13A833F04CFA43
:100C80000AF08CF840F2011313A8ADF84C30D34BA6
:100C9000CDE914A3D24B16930AF09EF804200AF073
:100CA0008BF8D04B5A6912F4003211D1BFF34F8F39
:100CB000BFF36F8FC3F85022BFF34F8FBFF36F8F17
:100CC0005A6942F400325A61BFF34F8FBFF36F8FFE
:100CD000C44A536913F4803323D1C2F88430BFF37C
:100CE0004F8FD2F8803043F6E074C3F3C900C3F3EA
:100CF0004E335B0103EA0406014646EA8175013979
:100D0000C2F86052F9D2203B13F1200FF2D1BFF3A9
:100D10004F8F536943F480335361BFF34F8FBFF359
:100D20006F8F09F045F90024FFF71AFF0125FFF73F
:100D30006FFF1422002113A833F0EEF9AA4B48F2FA
:100D40000801AA48D3F8E02002274FF010084FF01E
:100D5000030A42F002024FF4806BA54E40F21529BF
:100D6000C3F8E020D3F8E02002F002020092009ADB
:100D7000D3F8E02042F04002C3F8E020D3F8E020AE
:100D800002F040020192019AD3F8E02042F00802FA
:100D9000C3F8E020D3F8E02002F008020292029AA1
:100DA000D3F8E02042F01002C3F8E020D3F8E020AE
:100DB00002F010020392039AD3F8E02042F00102FD
:100DC000C3F8E020D3F8E02002F001020492049A74
:100DD000D3F8E02042F00402C3F8E020D3F8E0208A
:100DE00002F004020592059AD3F8E02042F0800256
:100DF000C3F8E020D3F8E02002F080020692069AC1
:100E0000D3F8E02042F02002C3F8E0200022D3F81B
:100E1000E03003F020030793079B0BF043F8002218
:100E20004FF4404173480BF03DF800224FF48061CD
:100E300071480BF037F80022012170480BF032F8AE
:100E4000082313A96E481595CDE913340AF0ACFEBA
:100E50004FF4005313A96B481597CDE913340AF0EA
:100E6000A3FE4FF4004313A96048CDE91335CDE943
:100E700015440AF099FE202313A95C481595CDE985
:100E800013340AF091FE4FF4881313A957481594B0
:100E9000CDE913830AF088FE082313A95348CDF83F
:100EA00058A01594CDE913350AF07EFE4FF48073F7
:100EB00013A955481595CDE913340AF075FE4FF482
:100EC000404313A94B48CDE91335CDE9154A0AF043
:100ED0006BFE13A94848CDE913B5CDE915440AF0D6
:100EE00063FE13A94548CDE91355CDE9154A0AF02B
:100EF0005BFE224605210A2009F0FEFE0A2009F0C9
:100F00002DFF4248424B056203608480C0E90544DE
:100F100009F08EFF4FF440333E48C0E90063C0E95A
:100F2000025409F0E6FF2146342213A833F0F4F806
:100F3000394E3A4B4FF0280C4FF0350E40F2352227
:100F400030463461B48686F83640C6E90034092359
:100F5000C6E905C30B23C6E907E340F21B13C6E944
:100F6000099340F21D134FF00409C6E90B23C6E9AB
:100F700002440BF0E9FBFF214FF488734FF4F07249
:100F80000520CDF868B04FF0180B1394ADF87C40F5
:100F90008DF87E40CDE918144FF0E041CDE91D23D6
:100FA000CDE91B01CDE9142413A9224630461C4E7D
:100FB000CDE916350BF0C5FC5A46214613A833F08F
:100FC000ABF8184B4FF080723046B460F463C6E95A
:100FD00000392023C6E9032326E000BF1A000103DD
:100FE0000001010100ED00E0004402580018025821
:100FF0000010005200040258000C02580000025871
:101000000010025800080258001402581847002423
:10101000004C0258B04600245845002400100050EF
:10102000FC440024005000520823C6E90574C6E9B8
:101030000D34C6E90974C6E90744C6E90B440BF050
:101040000DFE4FF0011213A93046169202F57F02F1
:101050001595179241F28832CDE913550CF08AF8B4
:1010600030460BF06FFE40F201122046D14EADF833
:10107000382008F0F9FB0EA9204608F0E7FC2046CE
:1010800008F0BAFB5A46214613A833F045F8424609
:1010900021460AA833F040F8214614220EA833F066
:1010A0003BF8C54A4FF0805C3046B460C6E9002981
:1010B0004FF08062C6E9032B17224FF6FF7BC6E98B
:1010C0000BC24FF4C872C6E90594C6E90974F2630D
:1010D000C6E90744C6E90D44CDE908440BF0BEFD5E
:1010E000B64A13A93046169202F57F021597179259
:1010F00041F28832CDE9137706270CF03BF841F234
:1011000088320AA93046CDF828A00D954FF4805AB0
:10111000CDE90B740BF078FE4FF440520EA9304627
:1011200010924FF000521195129241F288320E94B3
:101130000F940BF08FFE08A9304608940BF0AAFF1D
:1011400003F0BCFE424621460EA89D4E32F0E4FF5D
:101150004246214613A80C94CDE90A4432F0DCFF44
:10116000984A3046B460C6E90024C6E903B4C6E92B
:1011700005440EF0CBFC0EA93046CDF838A00EF099
:1011800005FE30460EF0F2FC0AA930460C94CDE97B
:101190000A440EF0C9FF0C2213A930468A4ECDE94D
:1011A0001345CDE915440EF053FD424621460EA8E5
:1011B00032F0B2FF4246214613A80C94DFF8388281
:1011C000CDE90A4432F0A8FF804A30463461B46168
:1011D000C6E90024C6E9024B0EF098FC0EA9304681
:1011E000CDF838A00EF0D2FD30460EF0BFFC0AA9B3
:1011F00030460A940C940EF097FF0C2213A9304647
:10120000734ECDE91345CDE915440EF021FD21467D
:10121000242213A81094CDE90E4432F07DFF082358
:101220004FF400223046B360F561348386F82040E5
:10123000346386F84440C6E90082C6E90449C6E939
:101240000A44C6E90F4409F091FB0EA930460E94FA
:1012500009F0DAFC40F2FF7213A930461594189495
:101260008DF86D405B4ECDE91629CDE9135708F096
:10127000A5FF1422214613A832F04EFF564B4FF023
:101280007F0930460E9434617461C6E90034FF234F
:10129000C6E90644C6E902930EF0D6F843F21203FB
:1012A0002A4613A9ADF84C304FF0200330468DF894
:1012B0004E30CDE916440EF01EF9484B2A460EA9D1
:1012C000304643F2F2250E930EF077F92146304670
:1012D0000EF0B9FAA8420ED0224613A930460EF0FD
:1012E0000AF922460EA930460EF067F92A46214631
:1012F00030460EF0A3FA3A4D00244FF4E133394A58
:101300004FF00C0828462C61012604274FF00809ED
:10131000C5E90023C5E90244C5E90584C5E90744D8
:10132000C5E909440FF073FA214628460FF0DDFAAB
:10133000214628460FF0F9FA28460FF0BBFA2A4D4D
:101340002422214613A832F0E7FE28494FF48023D7
:1013500028462C616F612C83EE6185F8204085F86A
:10136000384085F84440C5E90013C5E90294C5E951
:101370000A44C5E90C44C5E90F4409F0F7FA06230D
:1013800013A92846139618941A94CDE9143440F200
:10139000FF73CDE9163708F011FF1548154B0D22E4
:1013A0000682036002238474C0E907231F22C0E978
:1013B000053923E0A044002400A0005202000100EF
:1013C0003044002400000140E443002400080040B1
:1013D000AC4700247C44002400400058040410243E
:1013E00050430024004800403C470024006002585D
:1013F0001046002400D4004000200240C0E91763DA
:10140000C0E90B29C0E90244C0E90966C0E90D46FC
:10141000C0E90F66C0E91176C0E91376C0E9157618
:10142000C0E9194709F06CFE03F074FD03F071FD8B
:1014300003F032FC03F000FD01F094FE02F0A6F888
:1014400002F0E2F901F0C8FB01F002FD01F0F6FA4A
:1014500001F062FE01F0B2FF41463B480EF05EFD36
:1014600041463A480EF05AFD02F0BCF90FF08AFAF4
:10147000374A214637480FF0B1FA374B374A2146F1
:10148000186037480FF0AAFA364B374A21461860E1
:1014900036480FF0A3FA364B364A214618603648D4
:1014A0000FF09CFA354B364A2146186035480FF04C
:1014B00095FA354B354A2146186035480FF08EFABB
:1014C000344B354A2146186034480FF087FA344BC4
:1014D000344A2146186034480FF080FA334B344ABE
:1014E0002146186033480FF079FA334B334A2146CE
:1014F000186033480FF072FA324B334A21461860B5
:1015000032480FF06BFA324B324A214618603248AB
:101510000FF064FA314B324A2146186031480FF01F
:101520005DFA314B314A2146186031480FF056FAC6
:10153000304B314A2146186030480FF04FFA304B9B
:1015400018600FF031FAFEE730440024E443002431
:1015500074580308250A00084C4300245058030817
:10156000234F00089C4000242C5803087169000890
:1015700098400024085803083B0A0008E82F00247C
:10158000E45703084D0A0008382D0024C05703080B
:101590005D0A0008881C00249C5703088D0A000877
:1015A000D819002478570308BD0A0008281700241A
:1015B00054570308CD0A0008781400243057030854
:1015C000DB0A0008C81100240C570308EB0A0008C6
:1015D000180F0024E8560308010B0008680C0024CB
:1015E000C4560308310A0008B8090024A0560308AD
:1015F000150B0008080700247C560308310B00086F
:101600005804002410B59EB022480BF011F8202297
:10161000002103A832F080FD4C2200210BA832F0FB
:101620007BFD0023029301931B4B9A6922F44042F5
:101630009A619A6902F440420292029A9A6992046B
:10164000FCD50BA801240CF001FD4FF480330BA84E
:10165000CDE90B43022314930CF070F801A903A801
:101660000CF056FD0323019903A8049303940CF096
:1016700081FB01F04BF9094800F03EFD084832F0CB
:101680004BFC084AD2F8D03043F48033C2F8D03053
:101690001EB010BD004600240048025858450024E2
:1016A0004C5103080044025810B50C4C00220C4861
:1016B00021460DF0D6FF0B4B187028B9A37862783D
:1016C0002178094832F0B8FBFFF74AFA01F01EF919
:1016D0000648BDE8104032F01FBC00BF980100244E
:1016E0007C440024940100245D5103086E510308DA
:1016F00008B54FF4F0720021CB4832F00DFD4FF4E5
:10170000F0720021C94832F007FD4FF4FF3200218A
:10171000C74832F001FD4FF4F0720021C54832F0A5
:10172000FBFC4FF4F0720021C34832F0F5FC4FF49B
:10173000F0720021C14832F0EFFC4FF4F07200214A
:10174000BF4832F0E9FC4FF4F0720021BD4832F09E
:10175000E3FC4FF4F0720021BB4832F0DDFC4FF4A3
:1017600080420021B94832F0D7FC4FF4804200217A
:10177000B74832F0D1FC4FF480420021B54832F036
:10178000CBFC4FF480420021B34832F0C5FC4FF44B
:1017900080420021B14832F0BFFC4FF4804200216A
:1017A000AF4832F0B9FC4FF480420021AD4832F02E
:1017B000B3FC4FF480420021AB4832F0ADFC4FF453
:1017C00080420021A94832F0A7FC4FF4804200215A
:1017D000A74832F0A1FC4FF4F0720021A54832F086
:1017E0009BFC4FF4F0720021A34832F095FC4FF4BB
:1017F000F0720021A14832F08FFC4FF4F07200210A
:101800009F4832F089FC4FF4F07200219D4832F07D
:1018100083FC4FF4F07200219B4832F07DFC4FF4C2
:10182000F0720021994832F077FC4FF4F0720021F9
:10183000974832F071FC4FF4F0720021954832F075
:101840006BFC4FF4F0720021934832F065FC4FF4CA
:1018500080420021914832F05FFC4FF4F072002189
:101860008F4832F059FC4FF4F07200218D4832F06D
:1018700053FC4FF4F07200218B4832F04DFC4FF4D2
:10188000F0720021894832F047FC4FF4F063884A37
:101890000020654907F0D8FE002800F03182854815
:1018A00032F0CAFA4FF4F063834A00205F4907F030
:1018B000CBFE002800F02682804832F0BDFA4FF4BB
:1018C000FF237F4A00205A4907F0BEFE002800F09F
:1018D0001B827C4832F0B0FA4FF4F0637A4A002061
:1018E000544907F0B1FE002800F01082774832F02A
:1018F000A3FA4FF4F063764A00204F4907F0A4FEA4
:10190000002800F00582734832F096FA4FF4F06335
:10191000714A0020494907F097FE002800F0FA813B
:101920006E4832F089FA4FF4F0636D4A0020444962
:1019300007F08AFE002800F0EF816A4832F07CFA56
:101940004FF4F063684A00203E4907F07DFE00280E
:1019500000F0E481654832F06FFA4FF4F063644AB6
:101960000020394907F070FE002800F0D981614855
:1019700032F062FA4FF480335F4A0020334907F0B7
:1019800063FE002800F0CE815C4832F055FA4FF437
:1019900080335B4A00202E4907F056FE002800F0F5
:1019A000C381584832F048FA4FF48033564A002039
:1019B000284907F049FE002800F0B881534832F06A
:1019C0003BFA4FF48033524A0020234907F03CFE93
:1019D000002800F0AD814F4832F02EFA4FF48033EA
:1019E0004D4A00201D4907F02FFE002800F0A2817B
:1019F0004A4832F021FA4FF48033494A002018490E
:101A000007F022FE002800F09781464832F014FAD1
:101A10004FF48033444A0020124907F015FE002895
:101A200000F08C81414883E000E8177080EF177068
:101A300000F7177000EF1F7080F61F7000FE1F7018
:101A400080052070000D207080142070001C207014
:101A5000001C2170001C2270001C2370001C2470CC
:101A6000001C2570001C2670001C2770001C2870AC
:101A7000001C2970001C2A7080232A70002B2A70F9
:101A800080322A70003A2A7080412A7000492A70F8
:101A900080502A7000582A70805F2A7000672A7070
:101AA00000672B70806E2B7000762B70807D2B7002
:101AB0000000000081510308800700009F510308C7
:101AC000000F0000BD51030800090600DB510308A8
:101AD00080100600F9510308001806001752030889
:101AE000801F0600355203080027060053520308E2
:101AF000802E060071520308003606008F5203083C
:101B000000360700AF52030800360800CF52030822
:101B100000360900EF52030800360A000F5303088D
:101B200000360B002F53030800360C004F530308F8
:101B300032F082F94FF48033934A0020934907F042
:101B400083FD002800F0FC80914832F075F94FF4D5
:101B50008033904A0020904907F076FD002800F07D
:101B6000F1808E4832F068F94FF480338C4A0020BF
:101B70008C4907F069FD002800F0E6808A4832F0C1
:101B80005BF94FF4F063894A0020894907F05CFD56
:101B9000002800F0DB80874832F04EF94FF4F06304
:101BA000854A0020854907F04FFD002800F0D080CD
:101BB000834832F041F94FF4F063824A00208249B1
:101BC00007F042FD002800F0C580804832F034F96B
:101BD0004FF4F0637E4A00207E4907F035FD00286F
:101BE00000F0BA807C4832F027F94FF4F0637B4A6A
:101BF00000207B4907F028FD002800F0AF807948DD
:101C000032F01AF94FF4F063774A0020774907F071
:101C10001BFD002800F0A480754832F00DF94FF448
:101C2000F063744A0020744907F00EFD002800F0AC
:101C30009980724832F000F94FF4F063704A002046
:101C4000704907F001FD002800F08E806E4832F0E8
:101C5000F3F84FF4F0636D4A00206D4907F0F4FC8F
:101C6000002800F083806B4832F0E6F84FF4F06310
:101C7000694A0020694907F0E7FC002878D06848E5
:101C800032F0DAF84FF48033664A0020664907F0F4
:101C9000DBFC00286ED0654832F0CEF84FF4F063DC
:101CA000634A0020634907F0CFFC002864D06248F3
:101CB00032F0C2F84FF4F063604A0020604907F048
:101CC000C3FC00285AD05F4832F0B6F84FF4F063F6
:101CD0005D4A00205D4907F0B7FC002850D05C4801
:101CE00032F0AAF84FF4F0635A4A00205A4907F03C
:101CF000ABFC002846D05948BDE8084032F09CB8FB
:101D00005748CDE55748D8E55748E3E55748EEE54D
:101D10005748F9E5574804E657480FE657481AE68A
:101D2000574825E6574830E657483BE6574846E6C9
:101D3000574851E657485CE6574867E65748F7E684
:101D4000574802E757480DE7574818E7574823E731
:101D500057482EE7574839E7574844E757484FE771
:101D600057485AE7574865E7574870E757487BE7B1
:101D7000574885E757488FE7574899E75748A3E7FB
:101D80005748ADE75748B7E700360D00001C2770ED
:101D90006F53030800360E00001C28708F53030891
:101DA00000360F00001C2970AF53030800361000E6
:101DB000001C2A70CF530308803D100080232A7036
:101DC000EF53030800451000002B2A700F5403083E
:101DD000804C100080322A702F54030800541000E9
:101DE000003A2A704F540308805B100080412A702B
:101DF0006F5403080063100000492A708F540308D1
:101E0000806A100080502A70AF54030800811100CE
:101E100000582A70CF54030880881100805F2A7010
:101E2000EF5403080072100000672A700F55030872
:101E30000072110000672B702F5503088079110084
:101E4000806E2B704F5503080090110000762B70A8
:101E50006F55030880971100807D2B708F55030804
:101E60008F510308AD510308CB510308E951030812
:101E7000075203082552030843520308615203081E
:101E80007F5203089E520308BE520308DE52030825
:101E9000FE5203081E5303083E5303085E53030813
:101EA0007E5303089E530308BE530308DE53030802
:101EB000FE5303081E5403083E5403085E540308EF
:101EC0007E5403089E540308BE540308DE540308DE
:101ED000FE5403081E5503083E5503085E550308CB
:101EE0007E5503089E5503080268034B9A4201D1B0
:101EF00008F08CB8704700BF001000407047000029
:101F00000A4B82B00F216FF00100D3F8F42042F0A9
:101F10000202C3F8F4200022D3F8F43003F00203E5
:101F20000193019B02B008F0E7BE00BF00440258D5
:101F3000036884B0214A93421ED1214B4FF0807137
:101F4000D3F8D82042F02002C3F8D820D3F8D82004
:101F500002F020020092009AD3F8E02042F0010241
:101F6000C3F8E020D3F8E03003F001030193019BB4
:101F7000084604B008F06EB8124A93421BD1104BC9
:101F80004FF08061D3F8E02042F08072C3F8E02087
:101F9000D3F8E02002F080720292029AD3F8E02097
:101FA00042F00402C3F8E020D3F8E03003F0040369
:101FB0000393039BDCE704B0704700BF002002409E
:101FC0000044025800600258026882B0094B9A42ED
:101FD0000DD1A3F50063D3F8E02042F40022C3F84A
:101FE000E020D3F8E03003F400230193019B02B01A
:101FF000704700BF004C02580F4B07B502689A4269
:1020000017D10E4B05215A20D3F8D42042F01002EC
:10201000C3F8D4200022D3F8D43003F01003019386
:10202000019B08F069FE5A2003B05DF804EB08F04C
:1020300095BE03B05DF804FB001000520044025846
:1020400010B5B6B004461422002103A832F064F89B
:10205000B822002108A832F05FF82268234B9A4288
:1020600042D100234FF4004208A8CDE908234FF0E5
:10207000805323930CF066F908B1FFF73FFF1C4B28
:10208000002403A91B48D3F8EC2042F48072C3F863
:10209000EC20D3F8EC2002F480720192019AD3F87C
:1020A000E02042F02002C3F8E020C022D3F8E03064
:1020B00003F020030293029B0223CDE90544CDE9FE
:1020C0000323079309F070FD224605219F2008F0A5
:1020D00013FE9F2008F042FEA0202246052108F0B2
:1020E0000BFEA02008F03AFE36B010BD00D4004030
:1020F00000440258001402582DE9F0418EB0044605
:102100001422002109A832F007F822686A4B9A428B
:1021100040F0CE80694B022603250E27D3F8E42039
:1021200009A96748002442F008024FF05808C3F894
:10213000E420D3F8E42002F008020192019AD3F8D7
:10214000E02042F00202C3F8E020D3F8E02002F0E1
:1021500002020292029AD3F8E02042F00802C3F889
:10216000E020D3F8E02002F008020392039AD3F8AB
:10217000E02042F01002C3F8E020D3F8E02002F0A3
:1021800010020492049AD3F8E02042F00102C3F84E
:10219000E020D3F8E02002F001020592059AD3F87E
:1021A000E02042F04002C3F8E020D3F8E02002F043
:1021B00040020692069AD3F8E02042F08002C3F86B
:1021C000E020D3F8E02002F080020792079AD3F8CB
:1021D000E02042F00402C3F8E020D3F8E03003F03E
:1021E00004030893089B40F20333CDE90C57CDE973
:1021F000093609F0D9FC492309A932480D97CDE9E0
:102200000936CDE90B4509F0CFFC4BF6030309A9CC
:102210002D480D97CDE90936CDE90B4509F0C4FCF1
:102220004FF4807309A92948CDE909360D23CDE97A
:102230000B450D9309F0B8FC4FF4814309A92448DC
:102240000D97CDE90936CDE90B4509F0ADFC48F60F
:10225000087309A91F480D97CDE90936CDE90B454B
:1022600009F0A2FCC02309A91B480D97CDE9093646
:10227000CDE90B4509F098FC09A914480D97CDE963
:102280000986CDE90B4509F08FFC102309A91148F7
:10229000CDE909360923CDE90B450D9309F084FCFE
:1022A00040462246052108F027FD404608F056FD2D
:1022B0000EB0BDE8F08100BF00100050004402588D
:1022C00000040258000C0258001002580000025886
:1022D00000180258001C025800080258026808B58D
:1022E000184B9A422CD1184A40F203311748D2F8C1
:1022F000E43023F00803C2F8E43009F037FD492147
:10230000134809F033FD4BF60301124809F02EFD86
:102310004FF4AC71104809F029FD4FF481410F488A
:1023200009F024FD48F618710D4809F01FFD0D480D
:10233000C02109F01BFD5820BDE8084008F01CBD75
:1023400008BD00BF001000500044025800040258AD
:10235000000C0258001002580000025800180258E1
:10236000001C0258000802582DE9F04391B00446C1
:10237000142200210BA831F0CFFE2368884A934233
:1023800040F0B080874A13680133012B13600CD1F1
:10239000854BD3F8D42042F40012C3F8D420D3F8EC
:1023A000D43003F400130093009B7F4B02250324D9
:1023B0000927D3F8D4200BA97C48002642F4804298
:1023C0004FF00A084FF00409C3F8D420D3F8D42002
:1023D00002F480420192019AD3F8E02042F04002D8
:1023E000C3F8E020D3F8E02002F040020292029A03
:1023F000D3F8E02042F00802C3F8E020D3F8E02050
:1024000002F008020392039AD3F8E02042F010028F
:10241000C3F8E020D3F8E02002F010020492049AFE
:10242000D3F8E02042F02002C3F8E020D3F8E02007
:1024300002F020020592059AD3F8E02042F0020251
:10244000C3F8E020D3F8E03003F002030693069BC4
:102450004FF40073CDE90B35CDE90E4709F0A4FB2D
:10246000B0230BA95248CDF83C80CDE90B35CDE91E
:102470000D6409F099FB0BA94E480F97CDE90B9518
:10248000CDE90D6409F090FB40230BA94748CDF836
:102490003C80CDE90B35CDE90D6409F085FB4FF4A7
:1024A00060530BA942480F97CDE90B35CDE90D6478
:1024B00009F07AFB4FF480630BA93F480F97CDE9F1
:1024C0000B35CDE90D6409F06FFB0BA93B48CDF846
:1024D0003C80CDE90B95CDE90D6409F065FB11B0A9
:1024E000BDE8F083364A9342F9D12E4A136801338E
:1024F000012B13600CD12C4BD3F8D42042F40012E2
:10250000C3F8D420D3F8D43003F400130793079B07
:10251000254B032402250926D3F8D4200BA92348F0
:10252000002742F40022C3F8D420D3F8D42002F4C8
:1025300000220892089AD3F8E02042F04002C3F843
:10254000E020D3F8E02002F040020992099AD3F883
:10255000E02042F02002C3F8E020D3F8E03003F09E
:1025600020030A930A9B40F60303CDE90E46CDE90A
:102570000B3509F019FB4FF4A0530BA90B480F942E
:10258000CDE90B35CDE90D7409F00EFB41F21F03C7
:102590000BA909480F96CDE90B35CDE90D749CE7E1
:1025A00000500052284800240044025800180258E5
:1025B000000C02580010025800140258000402587F
:1025C00000A00052274A08B5036893422AD1264B3F
:1025D0001A68013A1A60254B2AB9D3F8D42022F49C
:1025E0000012C3F8D420D3F8D4204FF4107120483F
:1025F00022F48042C3F8D42009F0B8FB43F6B001BE
:102600001C4809F0B3FB04211B4809F0AFFB4FF451
:1026100080611A4809F0AAFB04211948BDE8084066
:1026200009F0A4BB174A93421AD10F4B1A68013A1A
:102630001A600E4B2AB9D3F8D42022F40012C3F842
:10264000D420D3F8D42041F60341094822F40022D3
:10265000C3F8D42009F08AFB41F21F010748DDE7E7
:1026600008BD00BF00500052284800240044025812
:1026700000180258000C02580010025800140258AA
:102680000004025800A0005210B5AEB00446B822B3
:102690000021684631F040FD2268104B9A421AD161
:1026A00000234FF480026846CDE900234FF4807385
:1026B0002C930BF047FE08B1FFF720FC084A0320DB
:1026C0000521136F43F400431367002208F014FB45
:1026D000032008F043FB2EB010BD00BF004000589F
:1026E000004402581422002110B58AB004460DEBB4
:1026F000020031F011FD23682F4A93422ED12F4B57
:102700004FF480412E48D3F8F02042F00102C3F884
:10271000F020D3F8F02002F001020192019AD3F8E0
:10272000E02042F01002C3F8E020D3F8E03003F0DC
:1027300010030293029B0223CDE9051307930123A3
:1027400005A9099309F030FA1B200022052108F0A1
:10275000D3FA1B2008F002FB0AB010BD194A9342BD
:10276000FAD1164B05A91848D3F8E82042F0040224
:10277000C3F8E820D3F8E82002F004020392039A99
:10278000D3F8E02042F00802C3F8E0204FF4004202
:10279000D3F8E03003F008030493049B0223CDE94F
:1027A0000523099309F000FA1E200022052108F0F4
:1027B000A3FA1E20CEE700BF0000014000440258EB
:1027C0000010025800080040000C025810B5B6B0C6
:1027D00004461422002103A831F09EFCB8220021F7
:1027E00008A831F099FC22681A4B9A4230D1022293
:1027F000002308A8CDE908230BF0A4FD08B1FFF7DA
:102800007DFB154B03A91548D3F8E82042F480223C
:10281000C3F8E820D3F8E82002F480220192019A5C
:10282000D3F8E02042F00802C3F8E0204FF44072F1
:10283000D3F8E03003F008030293029B0223CDE9B2
:1028400003230023CDE905330723079309F0ACF9EF
:1028500036B010BD0048004000440258000C025839
:102860000F2810B504468AB002D901200AB010BD65
:1028700001460022362008F03FFA362008F06EFAB2
:10288000184B694602A81C60174BD3F8E82042F0A9
:102890001002C3F8E820D3F8E83003F010030193E6
:1028A000019B0BF035FC079BC3B90BF0ABFB0F4C46
:1028B0000F4B236040F2E733E3600E4BB0FBF3F0C5
:1028C00001380023606020462361A3600DF01EF9EB
:1028D0000028CAD120460CF0BBFFC7E70BF092FBE3
:1028E0004000E4E7B0000024004402582C480024D3
:1028F0000010004040420F00034B1A68D36823F0D9
:102900000103D360704700BF2C480024034B1A68B2
:10291000D36843F00103D360704700BF2C48002404
:102920007047FEE7FEE7FEE7FEE7704701480CF060
:102930006EBF00BF7C440024102009F0C1BA000023
:1029400001480CF0CFBF00BF3044002401480CF018
:10295000C9BF00BFE443002401480CF0C3BF00BF5F
:102960002C480024014809F08FBF00BF58450024BF
:10297000014808F0FDBA00BFB0460024014808F045
:10298000ABBF00BF10460024FFF7F8BF012070471F
:1029900008B531F0CBFC162303604FF0FF3008BDC3
:1029A00008B531F0C3FC16230360FEE770B50D4691
:1029B00014460E46731B9C4201DC204670BDAFF3EB
:1029C000008006F8010BF5E770B50D4614460E467B
:1029D000731B9C4201DC204670BD16F8010BFEF70C
:1029E000AFF8F5E74FF0FF3070474FF40053002089
:1029F0004B60704701207047002070470B4A034628
:102A0000116810B509B90A491160106809490A4CE2
:102A10000344091B8B4206D931F088FC0C23036068
:102A20004FF0FF3010BD1360FCE700BF7848002472
:102A300098B80124000005240010000070B540F291
:102A40001113274C00254FF40002264940F2FF10D5
:102A50000126A5600D60CE60C4E900350823C4E9F5
:102A600003355223C4E9072340F2FF73C1E904038D
:102A70001D48C4E90555C1E9016608F02BFD334640
:102A80001A4A2146184808F0DDFD3146164808F07C
:102A900008FE2A463146144808F0D0FE2A464FF474
:102AA0008021114808F0CAFE0F4C4FF470210E48E7
:102AB00008F04CFD31460C4808F05CFD40F65A42E7
:102AC0000021204608F06AFD0028F7D1064808F0EA
:102AD0007DFD0028FAD10448BDE8704008F099BD9A
:102AE000B4480024D84800241046002404000024E0
:102AF000234B002270B51A70CB0705463FD5214CF9
:102B00004021214E23462148324608F0DBFD58B1D2
:102B1000FFF7F4F9002201211C4808F08FFE70B382
:102B2000BDE87040FFF7EAB9284608F062FD326858
:102B300040F2FF139A42EDD16278237802F001004F
:102B4000134943EA0023C2F3400043EA4023C2F39F
:102B5000800043EA8023C2F3C00043EAC023C2F3EB
:102B60000010C2F3401243EA003343EA42330A88BA
:102B700022F47F5222F03F0213430B80CAE770BD5C
:102B800081480024824800248C48002410460024F8
:102B90007C48002410B50A4C00224FF480210948DB
:102BA00023780133237008F049FE08B1FFF7A6F936
:102BB0002378054A1E2B94BF00230123137010BDF8
:102BC000814800241046002480480024014B1868E6
:102BD000704700BF7C4800240549064B0A78064828
:102BE0001A704A78054B1A7000220CF03ABD00BFEB
:102BF000184900242E4900247C4400242D49002437
:102C000038B5074D0022074C074928460CF029FD2E
:102C100000222070284605490CF046FD207038BD82
:102C20007C44002410490024184900241149002440
:102C300010B5084C08486278217831F0FDF821463B
:102C4000002206480CF057FC0548BDE8104031F062
:102C500063B900BFFC480024985803087C44002452
:102C6000B158030810B5052824D8DFE800F0031791
:102C70001B2C2431224C234831F04EF921460022EE
:102C800021480CF0EEFC2178204B62781970204B23
:102C900020481A70BDE8104031F0CEB8BDE81040B1
:102CA000FFF7C6BF1C4A13780133DBB2022B08BF03
:102CB0000023137010BD194B002219481A70BDE88B
:102CC000104031F0B9B8154B012216481A70F6E7DA
:102CD000114B1B784BB90A4A182113780133DBB228
:102CE000B3FBF1F001FB1033E3E7012BE2D1044A1F
:102CF00053780133DBB23C2B08BF00235370D9E774
:102D0000FC480024C65803087C4400242E490024B3
:102D10002D490024DC5803082C490024F8480024DD
:102D2000F65803080B590308164B10B41B787BB9EF
:102D3000154B182219780131C9B2B1FBF2F002FB30
:102D400010111248C9B219705DF8044B31F074B813
:102D5000012B06D10C4A53780133DBB23C2B03D054
:102D600053705DF8044B704713781820002101332D
:102D70005170DBB2B3FBF0F400FB14330448137062
:102D8000E2E700BF2C490024FC4800241D59030839
:102D90003959030808B5074B1A78012A06D1FFF7FD
:102DA000C3FF0548BDE8084031F046B800221A705C
:102DB00008BD00BFF8480024575903081249134AB8
:102DC0000B780133DBB2042B0B7006D900230B7098
:102DD00000230F48137031F09FB8013B032BF7D845
:102DE000DFE803F002060A0E01230A481370F2E737
:102DF000022309481370EEE7032308481370EAE73B
:102E0000042307481370E6E72F49002430490024C3
:102E1000745903088A5903089E590308B2590308D4
:102E2000C9590308014B1878704700BF3049002486
:102E3000054B64221B68534340F6FF72B3FBF2F369
:102E4000024A1360704700BF80490024844900246F
:102E5000014B00221A7070478B4900242DE9F84F6E
:102E60009B4C2578012D3ED0022D7FD0002D68D1BE
:102E7000984E1E21984B32781B88984FDFF884C2F9
:102E800027F812300132B2FBF1F001FB1020BCF840
:102E9000002030701344924E9BB23288ACF8003060
:102EA000013292B21D2A328083BF37F810004FF0F2
:102EB000010E8C4D294681BFB3FBF1F11B1A85F839
:102EC00000E0ACF800301D2A874B198039D901F099
:102ED0005DFF012835D1834B1B78012B31D10022B6
:102EE000328023702DE0814D7F4A2B881288804FDD
:102EF000934236BFD21A9B1A93B24FF0010228BFF9
:102F00009BB23A7040F2323293421CD86FF4CC71CB
:102F10000B44B3F5CD7F2CBF02230323754A764EB5
:102F20001370337001F032FF01280AD13B78012B76
:102F300007D13378714E9A1E012A06D802222270D8
:102F40003370BDE8F88F0023E8E74FF4805100208C
:102F500000F0B2FD00F074FD002000F0A5FD286037
:102F6000FFF766FF022323700423E9E7634F614EF6
:102F70003A783378022ADFF87091DFF87081DFF851
:102F800088A179D0032A51D0012A0FD19AF80020C4
:102F9000DFF878B19A421EBF594B00221A80BBF865
:102FA0000030D8F80020B3F5967F25D933788AF819
:102FB0000030494B1A88B8F80030A9F800209A422E
:102FC0008ABFD21A9B1A93B240F2323298BF9BB298
:102FD000934278D86FF4CC721344B3F5CD7F74D29A
:102FE00003252B46444A337013703D7001F0CEFE2A
:102FF0000228A6D1002374E7B9F80010914203D14A
:103000000023ABF80030D1E7013340F21111022068
:10301000ABF8003000F050FD00F012FD002000F091
:1030200043FDC8F80000FFF703FFB8E79AF8002057
:10303000DFF8DCB09A421EBF314B00221A8040F606
:10304000B832BBF80030D8F800109342AED8B9F8C7
:1030500000008842D4D0013388216420ABF80030CE
:1030600000F02AFD00F0ECFC002000F01DFDC8F887
:103070000000FFF7DDFEE2E79AF80020DFF894B0E9
:103080009A421EBF1E4B00221A8042F22832BBF821
:103090000030D8F80010934288D8B9F80000884270
:1030A000AED0013388214FF49670ABF8003000F0B9
:1030B00003FD00F0C5FC002000F0F6FCC8F800009D
:1030C000FFF7B6FEE1E701258BE702238AE700BFA1
:1030D0008B4900243149002424480024424900241B
:1030E000404900243D4900248849002480490024A7
:1030F0003C49002432490024344900248A490024F0
:10310000C04A00243E490024334900243A4900249F
:103110003849002436490024014B00221A607047C8
:103120009049002410B50A4CFFF750FD206001F0D3
:103130002DFEC0B201280AD1064922880B88C2F3AD
:103140000B0223F47F6323F00F0313430B8010BDA6
:103150008C49002490490024014B1868704700BF37
:10316000904900240023024A1370024A13707047EA
:10317000CD490024CC49002410B50020002400F0E3
:10318000F5FC054A034605491060054A4C60106885
:103190001360181A086010BDC4490024B8490024FF
:1031A000C0490024F8B5FFF7E7FF174B174C0A2575
:1031B00018600146164B174A1B68174F4343174EBA
:1031C000386013602368164A03441648136023606E
:1031D000B3FBF5F3336030F02FFE3968124830F05E
:1031E0002BFE2168114830F027FE3168104830F07E
:1031F00023FE104B1B7823B92846BDE8F84030F079
:103200002DBE0920F9E700BFC849002498490024D1
:103210000C000024AC490024B0490024A849002433
:10322000944900241E5B0308E0590308E75903088A
:10323000EF590308CC49002408B5FFF7B3FF084B4A
:103240000848196840F26D2359434FF47A73B1FB73
:10325000F3F1054B1960BDE8084030F0EDBD00BF4B
:10326000A8490024F7590308A4490024044B1B78FB
:103270000BB9FFF797BF012B01D1FFF7DDBF7047F7
:10328000CC49002408B501F081FDC0B2022804D168
:103290000448BDE8084030F0CFBDBDE80840FFF766
:1032A000E5BF00BF025A030838B50D4B0D4D196834
:1032B0002A690D4C10462160116001F001FB50B9E4
:1032C0002B690A48196830F0B7FD21680848BDE845
:1032D000384030F0B1BD074830F01EFEF5E700BFC2
:1032E0009849002410000024A04900241B5A030818
:1032F000575A03083A5A030838B50D4B0D4D196853
:103300006A690D4C10462160116001F0D9FA50B97C
:103310006B690A48196830F08FFD21680848BDE8DC
:10332000384030F089BD074830F086FDF5E700BF32
:1033300098490024100000249C490024615A030885
:103340007C5A0308745A03080D4B10B51B7863B9F7
:1033500003700C4B0C481C680C4B9C4228BF1C464D
:10336000214630F069FD204610BD0123084A037054
:10337000084B1C68944282BF013200241A60F2E7B5
:10338000CC490024A8490024865A0308FF90F50080
:10339000FE90F500A4490024054B1A78002A0DBFC1
:1033A00001220022034804481A7030F0B5BD00BF66
:1033B000CC490024955A03089F5A03080A49002261
:1033C0000A4808B50CF070F9094B0146187010B1A5
:1033D000084830F031FD044B074A997811705A784B
:1033E000064B1A7008BD00BFE24900247C4400244B
:1033F000E6490024AB5A0308DF490024DE490024D3
:103400002DE9F8433148FFF79FFF314A41F28731F8
:10341000304C1368C31A8B422F4920D90123106006
:103420000B702E4B18602378BBB12D4B2D4D1978A6
:103430002D4B1B78994234BF5B1ACB1ADBB20F2B92
:103440002B700AD1002310602370284C2370284B66
:103450001970284B1978284B1970BDE8F883274D4F
:10346000DFF88CC0AB789CF80080DFF874E06E78F1
:103470009845204F8EF800303E701C4B0DD1DFF880
:10348000789099F80050B54207D01D7889F800600F
:1034900001351D70144D85F800801D78062D04BF80
:1034A000012525700D78002DBDD00C4D2D68451BD4
:1034B000632DB8D9002510601D709EF800300D7086
:1034C0008CF8003039780C4B1970ACE7D8490024DF
:1034D000D4490024E1490024E0490024D0490024D3
:1034E000DD490024D9490024DA490024DB490024BD
:1034F000DF490024DC490024DE490024E24900249D
:10350000134B4FF47A721A604FF46162114B1A60D8
:103510006422114B1A600522104B1A704FF4FA7294
:103520000F4B1A6000220F4B1A603C220E4B1A7090
:10353000C8220E4B1A6032220D4B1A7010220D4B0E
:103540001A7028220C4B1A707D220C4B1A6070479F
:10355000344A0024304A00242C4A0024FC49002428
:10356000284A0024244A0024204A00241C4A00241B
:10357000114A0024104A0024184A0024144A002446
:10358000014830F0C9BC00BFC85A030808B5074A53
:1035900000231370064A1370FFF7B2FFFFF7F0FF26
:1035A0000448BDE8084030F0B7BC00BF3A4A0024E8
:1035B000394A0024EF5A0308054B1A68C82A05D96E
:1035C00040F2E73203481A6030F0A6BC704700BFF3
:1035D000EC4900240E5B030810B50020002400F025
:1035E000C5FA054A034605491060054A4C60106853
:1035F0001360181A086010BD044A0024084A002409
:10360000004A0024F8B5FFF7E7FF144B4FF47A7235
:10361000134C1B78FA21134D134F144E3860B0FB36
:10362000F3F323605343B3FBF1F34FF461612B6079
:103630004B43B3FBF2F33360FFF7BEFF39680C482E
:1036400030F0FAFB33682A6821680A4830F0F4FB4E
:103650000A20BDE8F84030F001BC00BFFC4900245E
:10366000F8490024F0490024F4490024EC490024DE
:103670001D5B0308265B030808B5FFF7C3FF064B75
:10368000064A1B7812685343054A1278B3FBF2F3DB
:10369000044A136008BD00BF104A0024EC4900240E
:1036A000114A0024E8490024034B1B780BB9FFF7AB
:1036B000A9BFFFF7E1BF00BF394A002408B501F0F8
:1036C00065FBC0B2022809D10023064A06481360F0
:1036D000064A1360BDE8084030F01EBCBDE8084053
:1036E000FFF7E2BFEC490024415B0308E8490024EE
:1036F000094B1A78094B52B9094A1178094A1268DC
:10370000914234BF012200221A7018787047012AB2
:10371000FBD1054AF1E700BF394A0024384A0024AA
:10372000204A0024EC490024184A002438B50A4DE8
:103730000C462B780370FFF7DBFF18B1637843F07A
:10374000800363702B7813B9044B186838BD012BC4
:10375000FCD1034BF9E700BF394A0024EC490024AF
:10376000E849002410B5044698B90B4B4FF480612A
:103770000A481A68936943F001039361012208F033
:1037800091FB074801224FF4004108F08BFB2046D3
:1037900010BD6FF00100FBE758450024000C0258F3
:1037A0000018025810B5044698B90B4B4FF48061CD
:1037B0001A68936923F0010393610246074808F0F1
:1037C00071FB074822464FF4004108F06BFB20468E
:1037D00010BD6FF00100FBE758450024000C0258B3
:1037E0000018025808B50020FFF7DCFF4FF47A708C
:1037F00006F01EFC0020FFF7B5FF4FF47A70BDE81D
:10380000084006F015BC0000064B1A68537843F0D8
:10381000400353700122044B1A700022034B1A60BC
:10382000704700BF3C4A00243B4A0024584A002409
:1038300010B50120002400F099F90A4B0A4A1860DB
:1038400013680A49C31A10604C600B6008490B608A
:1038500008498B4236BF3C214FF0FF334B430649AA
:103860000B6010BD504A0024544A0024484A0024EA
:10387000404A002444444404584A002408B501F056
:1038800085FAC0B2022803D1034B00221A6008BD9A
:10389000BDE80840FFF7CCBF584A002440F20113AE
:1038A00037B50020ADF8043005F0DEFF01A9002097
:1038B00006F0CCF80028F9D1002005F06DFF044691
:1038C0000028F9D10B4D00F093FE00F0E9FF2A68C3
:1038D0002146104600F0F4FF6A6821460234104683
:1038E00000F0EEFF102CF2D1012000F08BFF03B0AE
:1038F00030BD00BF10000024454B2DE9F74F93F871
:1039000000C00025434B0120AB462F46B3F8008092
:10391000414B1988414B1A78414BB3F800E02B46D4
:103920001C46B0B90CB13C48018015B13C49A1F826
:1039300000E0BBF1000F02D0354981F800C00FB1A3
:1039400036490A7013B1374B324A1A6003B0BDE8EA
:10395000F08FFF2A14BF13466346022B019318D839
:10396000581CC0B2C3005FFA80F91E462E4B33F8D4
:1039700030A0C2450DD8B9F1030F2ED02B4B33F830
:1039800006A0C24526D801305FFA80F9B9F1040FCC
:10399000E8D1019B013BDBB2022B06D8224800EBA9
:1039A000C300B0F80290C14522D2FF2A4FF00103B4
:1039B000B8D071454FF0000035BFC9189B4613467B
:1039C000FF2339BF624689B200215F4694461A46FA
:1039D0000123A5E7B9F1040FDBD0134B4A4603EBF3
:1039E000C903B3F804E00124002125462746DCE79B
:1039F0003BB130F8069CC14503D3013B0838DBB22C
:103A0000CFE7094A02EBC302B2F806E01A46EAE73A
:103A1000B84A002420480024AC4A0024B04A0024BC
:103A2000AE4A0024B44A0024AC5B0308B45B03082C
:103A300010B9024B18787047FF207047B84A00242D
:103A4000F0B51348134D01882B88134C994207D1C8
:103A5000002323800022114B1860114B1A70F0BD17
:103A6000104E22883788974202D0531C9BB2F0E751
:103A70009942728806D85E1AB24201DC9B1A99B24A
:103A80002980E5E7CE1A9642FADB1A4491B2F7E7AD
:103A900088490024C24A0024C04A0024BC4A0024A9
:103AA000B94A0024C44A002410B9024B1888704750
:103AB00000207047C24A0024014B1880598070478B
:103AC000C44A002438B54FF48071144808F0E4F972
:103AD00020210546124808F0DFF90821440011486A
:103AE00008F0DAF9104944EA8504104D0C2264B25A
:103AF0002B782043C8540133FF20DBB22B70013AEE
:103B000011F8014B12F0FF0200EA0400F7D1084956
:103B10000B2B087088BF2A7038BD00BF00140258F4
:103B20000018025800100258CA4A0024C94A00244A
:103B3000C84A0024014B1878704700BFC84A0024C7
:103B400008494FF6FF7231F81030934203F1010338
:103B500010B508BF044C21F8103002BF225C0132BE
:103B6000225410BDDE4A0024DC4A00240128064A03
:103B700008D8064B06491B5C31F81010C3EB034311
:103B80000B44136010687047D84A0024DC4A0024B4
:103B9000DE4A00240368064A934202D10020FFF760
:103BA000CFBF044A934201D10120F8E7704700BF1C
:103BB000000001400008004008B50C2104480CF04A
:103BC00057FA18B1BDE80840FEF798B908BD00BF24
:103BD0003044002408B50C2104480CF09FF918B1BA
:103BE000BDE80840FEF78AB908BD00BF3044002494
:103BF0002DE9F84302260025DFF8E0803446334FF4
:103C0000013CE4B258F8243003B11D78012D31D1C4
:103C10002F4A52F82430591C10D001332D4942F854
:103C20002430062262438818B0F804C063450DD1E1
:103C3000294B53F824300BB1042098473D550124FB
:103C4000A64201D1BDE8F8832646D9E740888342E1
:103C500006D1214B53F82430002BEFD00220ECE7A3
:103C60008A5A9342EAD11C4B53F82430002BE5D0FA
:103C70000020E2E7002DE1D13B5DDFF85490012BFD
:103C800011D11448062259F8243002FB040251884D
:103C90008B420CD39288934209D20F4B53F82430B5
:103CA0000BB103209847002349F82430C6E70622C9
:103CB0006243825A9342F6D38B42F4D2064B53F8B6
:103CC0002430002BEFD00120ECE700BFEC4A0024A9
:103CD000E44A0024D45B0308CC5B0308E05B0308E0
:103CE000014B1870704700BF61000024014B187031
:103CF000704700BF6000002410B50A4C01F06CF85A
:103D0000207001F071F8084B084A1870B0FA80F082
:103D100023784009B3FA83F35B091370044B1870DE
:103D200010BD00BF004B0024FF4A0024FE4A0024BF
:103D3000FD4A0024034B1B78012B06BF024B187869
:103D4000FF207047FC4A002461000024034B1B78CD
:103D5000012B06BF024B1878FF207047FC4A002455
:103D60006000002408B5FFF7E5FF0246FFF7EEFF0D
:103D7000012A07D1114830F0CFF80220FEF772FF78
:103D8000002008BD022A04D10D4830F0C5F80120FA
:103D9000F4E7012804D10B4830F0BEF80520EDE728
:103DA000032804D1084830F047F80420E6E7022849
:103DB000E6D1064830F040F80320DFE7E85B03086F
:103DC000005C0308175C0308305C03084F5C0308C1
:103DD0002DE9F041524E534C32782378012A524D4E
:103DE0001FD1012B0ED1FF2333702370FFF7D4FABC
:103DF0004E4830F091F832782B78022A4BD1012BC3
:103E000049D109E02B7823B9FEF7D8FF484830F0B4
:103E100083F82B78012B01D1FFF7A4FFFF23337028
:103E200039E0012B1FD12B78ABB9FEF7FBFF03283C
:103E300006D1FF232370FFF737FA3E4830F06CF8C5
:103E4000FEF7F0FF042806D1FF232370FFF754FA92
:103E5000394830F061F82B78012BCCD1FFF782FF85
:103E6000FF232370C7E7022A20D1022B1ED1002096
:103E7000FEF7F8FE2B78002BBDD1FFF773FF2F481C
:103E800030F04AF801232B7006F0CCF82C4B186068
:103E9000FF233370237022782B78022A27D1012B3D
:103EA0003CD1FFF75FFFFF23237022E02B78012B2B
:103EB000A1D1244B1F78244B1B781F439BD106F0C4
:103EC000B1F8224BDFF88C8018601D4B1B68C01ABC
:103ED00043F697239842C8F800008CD91C4830F06C
:103EE0001BF8FEF7A5FE2F70C8F8007083E7032AC1
:103EF000D5D02B78012B11D133780BB123786BB946
:103F0000144B00221A6006F08DF8104B186006F072
:103F100089F80B4B1860FF2333702370BDE8F081E4
:103F20006100002460000024FC4A00246B5C03084C
:103F3000EE5B03089C5C0308BE5C0308E05C0308BE
:103F4000F44A0024FE4A0024FD4A0024F04A0024DA
:103F5000105D0308F84A00242DE9F04F89B00023D2
:103F600005466946CDE90033CDE90233CDE9043396
:103F7000CDE9063300F0B9FC18B1012009B0BDE865
:103F8000F08F01A9281D009E00F0AFFC0028F4D19D
:103F900002A905F10800019C00F0A7FC0028ECD163
:103FA00003A905F10C00DDF8088000F09EFC002854
:103FB000E3D104A905F11000039F00F096FC00284E
:103FC000DBD105A905F11400DDF810A000F08DFC8F
:103FD0000028D2D106A905F11800DDF8149000F0F0
:103FE00084FC0028C9D107A905F11C00DDF818B030
:103FF00000F07BFC0028C0D1079BB3F1FF3F08BF56
:10400000BBF1FF3F11D1B9F1FF3F08BFBAF1FF3F4C
:104010000DD1B7F1FF3F08BFB8F1FF3F09D104EA66
:104020000600013018BF0120A8E70420A6E70320FE
:10403000A4E70220A2E7000030B500F57F5485B068
:104040004FF0AA330139303405462403CDE900335B
:10405000CDE90233032912D8DFE801F002141F3042
:104060006946204600F037FC08B1022008E06946A6
:10407000201D00F030FC0028F7D1164B1D700020E9
:1040800005B030BD01A904F1080000F024FC0028AF
:10409000EBD101A904F10C00EBE702A904F1100037
:1040A00000F019FC0028E0D102A904F1140000F08E
:1040B00012FC003818BF01204000E1E703A904F119
:1040C000180000F008FC0028CFD103A904F11C005F
:1040D000EDE700BF014B00240A4808B5FFF73CFF9D
:1040E00004280BD00848FFF737FF042808D10648FA
:1040F00000F005FC003818BF012008BD0148F7E7B3
:104100000520FAE70000FF030010FF032DE9F3414B
:10411000002407460E464FF01108CDE90044B44292
:1041200003D3404602B0BDE8F081E5196946083482
:10413000284600F0DAFB01A9281DA4B200F0D5FB47
:10414000019B1BBADA17B2F1FF3F08BFB3F1FF3F83
:1041500018BF4FF01008E2E708B560B14FF4805186
:104160001548FFF7D3FF10280FD1134800F0C7FB05
:1041700058B1012008BD104800F0C1FB0028F8D15B
:104180000E4800F0BCFB38B1F3E74FF480510B4808
:10419000FFF7BCFF1028F3D002210020FFF74CFFEF
:1041A00008B10220E6E7064B20221880054B187064
:1041B000054B1A60DEE700BF0000FF030010FF039D
:1041C000024B0024014B0024640000242C4B2DE9F9
:1041D000F0411C7843F6F0780746651C04EB0800B4
:1041E00005F001050003FFF7B7FE064605EB0800E2
:1041F0000003FFF7B1FE012F07D0022F3DD08FB98A
:10420000022E11D0012E0DD11FE0022E1FD11D4E06
:1042100040F6F57332689A4206D9042807D1FFF7B1
:104220005BFF20B14FF0FF342046BDE8F081032151
:104230002046FFF701FF0028F4D102212846FFF7AE
:10424000FBFE0028EED1202333602C46ECE7012E44
:10425000E8D10C4E3368B3F5805FE5D3042807D06E
:1042600003212046FFF7E8FE0028DBD10121E5E726
:10427000FFF732FF0028F3D0D4E70028E5D0D1E7DC
:10428000014B0024640000242DE9F04F064685B060
:1042900000200F46CDE90200ADF80400FFF796FFBD
:1042A000B0F1FF3F814650D000F57F54DFF8A48085
:1042B000303424032046FFF74FFE831EDBB2022B6F
:1042C00001D907201AE0D8F800A004F1040BBAF1D4
:1042D0001F0F0BD809F1010909F0010909F57F54F5
:1042E000303424032046FFF737FEE6E702A90BEB44
:1042F0000A0000F0FAFA054618B180B205B0BDE830
:10430000F08F029B5A1C1DD01BBA9E421AD1A244A8
:1043100003A9504600F0E9FA2A46042103A8039CA9
:1043200000F06AFD01A906460AF1080000F0E2FA71
:10433000BDF804305BBA9BB2B34208D124BA284618
:104340003C60DBE7AAF10A0AC1E70320D6E74FF495
:104350008170D3E7640000247FB51F4E09BA00BA0C
:1043600033880291B3F5CB7F039031D20120FFF760
:104370002DFF431C2ED000F57F540421002202A8FB
:1043800000F03AFD303440BA144D240302A9ADF8D0
:1043900004002868204400F09EFA10B1012004B007
:1043A00070BD286803A90430204400F094FA002866
:1043B000F4D1286801A90830204400F091FA0028BF
:1043C000ECD12B680A332B60338801333380E6E766
:1043D0001220E4E70320E2E7024B002464000024FB
:1043E0002DE9F04FB2F1000A87B04FF00005074603
:1043F0000CBF0220012001910595CDE90355FFF77F
:10440000E5FE431C044600F0D0806A4E2023DFF80E
:10441000B0913580684DC9F800302870BAF1000FAE
:1044200010D0013404F0010404F57F503030000353
:10443000FFF792FD02280ED104212046FFF7FCFD74
:1044400058B104E00121FFF7F7FD0028E9D0022070
:1044500007B0BDE8F08F04283DD184F0010443F695
:10446000F07B04EB0B000003FFF776FDC31EDBB20D
:10447000012B24D9BAF1010F32D001993846FFF748
:104480006BFF0028E3D14D4C2068B8420BD003A944
:10449000FFF7FAFE002840F0848003992068FFF7B8
:1044A0005BFF0028D4D102212878FFF7C5FD002842
:1044B000CDD1FFF711FE002818BF0520C8E703285B
:1044C00002D084F00104CCE704212046FFF7B4FDBC
:1044D0000028F6D0BBE7BAF1010F68D1032866D1F6
:1044E0004FF0000A4FF0200843F6F07B544628783E
:1044F00005A9584408EB003000F0F7F9287804A922
:10450000584408EB0030043000F0EFF905A9002210
:104510000132240211F8010B042A44EA1A6440EA29
:104520000A2AF5D104A900220132240211F8010B54
:10453000042A44EA1A6440EA0A2AF5D1B4F1FF3F9A
:1045400008BFBAF1FF3F0DD0328808F10A080132E6
:104550003280D9F800200A32C9F8002041F2060260
:104560009045C4D12C7843F6F079013404F001046D
:1045700004EB09000003FFF7EFFC03287FF47DAF95
:1045800084F001003388484403F5CB730003338083
:10459000FFF7E2FC032802BF338803F5CB733380B7
:1045A0006BE707283FF47FAF52E7042050E70A206B
:1045B0004EE700BF024B0024014B002410000024F2
:1045C0006400002438B504460D46FFF7C5FE1228E6
:1045D00006D1294620460022BDE83840FFF700BF3B
:1045E00038BD431E033301D8FFF7ECBF08207047E6
:1045F0002DE9F74F05467E48FFF7AEFC431EDBB2C0
:10460000012B42D9C31E00265C425C417948FFF76A
:10461000A3FC431EDBB2012B55D9032838D1C4F1CA
:104620000104002E4DD07248FFF796FC01284CD0B3
:104630007048FFF791FC0128044604D16C48FFF74D
:104640008BFC002847D06A48FFF786FC022854D12B
:104650006848FFF781FC002851D1674B012418708E
:104660006448FFF779FC02284DD0032808BF0126D3
:10467000002C53D1701C604B022100F00100187017
:10468000FFF7DAFC002849D017E000240126BDE737
:10469000CEB964B33446013404F0010404F57F5408
:1046A00030342003FFF758FC0428BCD1701C0121D2
:1046B0000840FFF7C1FC0028B5D0022003B0BDE8D8
:1046C000F08F0126E7E70026ADE74A48FFF744FCF4
:1046D00004460028ACD10021474B012208461C703B
:1046E000FFF77EFEB0F5807FADD00C20E6E72046D8
:1046F00003B0BDE8F04FFFF72FBD032801D0002421
:10470000AEE70026FBE73A48FFF726FC0028AFD1CA
:104710000CB10A20D2E7384B01221A70374E4FF005
:104720000009374F2024DFF8D080A6F800903C60C5
:1047300098F8000043F6F07B01A9584404EB0030E0
:10474000CDE9009900F0D1F898F80000DDF804A058
:104750006946584404EB0030043000F0C6F8BAF162
:10476000FF3F009B0CD001330AD033880A34013359
:1047700033803B680A333B6041F206039C42D7D149
:1047800098F800707C1C012F04F0010404F57F50A0
:1047900000F130004FEA003008D9FFF7DDFB0328B5
:1047A000B7D13388274603F5CB73338098F80040A0
:1047B00043F6F078013404F0010404EB0806BC422F
:1047C0004FEA063601D1002078E745B9304600F0BF
:1047D00096F810B984F00104EFE701206EE74FF47A
:1047E00080513046FFF792FC1028F3D1EEE700BF6E
:1047F0000000FF030010FF03014B0024024B0024C4
:1048000064000024F0B5064687B000200290ADF8A1
:1048100004000390CDE90400FFF7D8FC431C3AD014
:1048200000F57F54303424032046FFF795FB02281F
:1048300002D0002007B0F0BD04F1240504F5805437
:104840000A3404A9284600F050F8049B1BBA0293CE
:10485000029B01331BD005A9281F00F046F8059BD9
:10486000002204211BBA05A8039300F0C5FA01A990
:104870000746281D00F03EF8BDF804305BBA9BB235
:10488000BB420AD1012E02D0029B039A1A600A355C
:10489000A542D6D1CDE70320CCE74FF48170C9E71C
:1048A00008B55022044905482FF06DFD0020BDE8F1
:1048B0000840FFF7A7BF00BF5C5B03085C4A002409
:1048C00038B50D461446FFF78CFE08B9256038BD93
:1048D0004FF6FB70FBE702460423002004F0D4BE31
:1048E00002460223002004F0CFBE0246042300202B
:1048F00004F0AABE02460223002004F0A5BE002256
:104900000146104604F018BF38B50024044DE3B248
:10491000013455F8233003B938BD9847F7E700BF95
:10492000685D030838B50024044DE3B2013455F83E
:10493000233003B938BD9847F7E700BF605D03082F
:1049400038B50024044DE3B2013455F8233003B9DF
:1049500038BD9847F7E700BF585D030838B5002415
:10496000044DE3B2013455F8233003B938BD9847FC
:10497000F7E700BF505D030838B50024044DE3B2EB
:10498000013455F8233003B938BD9847F7E700BF25
:10499000485D030838B50024044DE3B2013455F8EE
:1049A000233003B938BD9847F7E700BF405D0308DF
:1049B00038B50024044DE3B2013455F8233003B96F
:1049C00038BD9847F7E700BF385D030808B50020F9
:1049D000FFF72EF8431E5842584108BD08B5002085
:1049E000FFF726F8831E5842584108BD08B500203D
:1049F000FFF71EF8C31E5842584108BD08B50020F5
:104A0000FFF716F8B0FA80F0400908BD38B500206D
:104A10000024074DFFF70CF8014606482FF00CFA6A
:104A2000E3B2013455F8233003B938BD9847F7E7AE
:104A3000705D03082B5D030870477047704770472F
:104A4000704770477047704738B50024044DE3B293
:104A5000013455F8233003B938BD9847F7E700BF54
:104A6000145E030838B50024044DE3B2013455F850
:104A7000233003B938BD9847F7E700BF0C5E030841
:104A800038B50024044DE3B2013455F8233003B99E
:104A900038BD9847F7E700BF045E030838B5002427
:104AA000044DE3B2013455F8233003B938BD9847BB
:104AB000F7E700BFFC5D030838B50024044DE3B2FE
:104AC000013455F8233003B938BD9847F7E700BFE4
:104AD000F45D030838B50024044DE3B2013455F801
:104AE000233003B938BD9847F7E700BFEC5D0308F2
:104AF00038B50024044DE3B2013455F8233003B92E
:104B000038BD9847F7E700BFE45D030808B500F03B
:104B10003DF9431E5842584108BD000008B500F059
:104B200035F9022805D1044B1888031F5842584113
:104B300008BD0020FCE700BF6800002408B500F0B5
:104B400025F9022806D1044B1888A0F10803584221
:104B5000584108BD0020FCE76800002408B500F0BB
:104B600015F9022806D1044B1888A0F11003584209
:104B7000584108BD0020FCE768000024014B18885C
:104B8000704700BF68000024102802D1034B188032
:104B900003E00828FAD00428F8D070476800002401
:104BA00070470000042008B5FFF7EEFF0248BDE89B
:104BB00008402FF0B1B900BF7C5E030808B50D486E
:104BC0000AF0ECFD002249F640410A480AF08AFD4D
:104BD00008B1FDF793F9FDF78FFE08F069FD06486F
:104BE00007F01EFE0121084608F03CFD01480AF0CE
:104BF000D5FDFEE77C4400245845002408B5FFF7A6
:104C0000BDFF0428094A08D1138841F66411013315
:104C10009BB28B4203D0138008BD0023FBE7002327
:104C200010201380BDE80840FFF7AEBF044B0024FE
:104C3000704770470820FFF7A7BF000008B5134B67
:104C4000D3F8D020D1001BD4D3F8D020520117D4F0
:104C50000F4A526AD00705D50E48082107F027F9F8
:104C6000062008BDD3F8D02091020BD4D3F8D02071
:104C7000520209D4D3F8D000C0F3C0508000F0E74E
:104C80000320EEE70120ECE70520EAE700440258A4
:104C9000004802580008025810B5FFF7CFFF04463D
:104CA00006281BD8DFE800F004121A1014161800AA
:104CB0000B482FF031F90B4A2046D2F8D03043F49C
:104CC0008033C2F8D03010BD0748F2E70748F0E75C
:104CD0000748EEE70748ECE70748EAE70748E8E750
:104CE000915E030800440258A65E0308BE5E0308F6
:104CF000DD5E03080F5F0308285F03084B5F0308AE
:104D000038B50024044DE3B2013455F8233003B91B
:104D100038BD9847F7E700BF785F030838B500242F
:104D2000044DE3B2013455F8233003B938BD984738
:104D3000F7E700BF705F030838B50024044DE3B205
:104D4000013455F8233003B938BD9847F7E700BF61
:104D5000685F030838B50024044DE3B2013455F808
:104D6000233003B938BD9847F7E700BF605F0308F9
:104D700008B5FEF7DFFE6FEA900000F0010008BD05
:104D800008B5FEF7D7FEC0F3800008BD002000F094
:104D90004DB8000008B505482FF0BEF8FEF71AFF21
:104DA000FEF77CFDBDE80840FCF7A2BCBC5F030831
:104DB00008B503482FF0B0F8BDE80840FEF7FCBE88
:104DC000E05F03087047704708B5FEF7B3FE014B7C
:104DD000187008BD064B0024024B187800F0010043
:104DE000704700BF064B0024024B1878C0F3400008
:104DF000704700BF064B002403460144104670B5BF
:104E000041F221058B4200D170BD13F8012B08241B
:104E100080EA022006B24200002E90B204F1FF3276
:104E2000B8BF684012F0FF04F4D1EBE7014B33F850
:104E300010007047084B0024034B02221A805A804E
:104E400004229A80704700BF084B00242DE9F84FD8
:104E5000184E0025DFF860804FF00C0958F83570C7
:104E600036F802BB0FB34FF0000A05E0A368E3B1C8
:104E700098471AE00AF1010A5FFA8AF309FB03F383
:104E8000FC18FB5A8BB113EA0B0FF3D063885B4518
:104E9000ECD06368002BEDD098470028EAD0A368D7
:104EA00003B19847638826F8023C0135032DD5D11C
:104EB000BDE8F88F084B00240C6003087047000021
:104EC000DFF834D005F01EF8002103E00B4B5B58EF
:104ED000435004310A480B4B42189A42F6D30A4A0F
:104EE00002E0002342F8043B084B9A42F9D32FF02A
:104EF00023FAFBF7BBFE7047000005241C0F0408D3
:104F000000000024780100247801002494B80124D2
:104F1000FEE7704708B501F0FBF8BDE8084001F076
:104F20007FB801F0F7B840687047416070470000F3
:104F30004FF0E022D2F8FC3D43F08073C2F8FC3D14
:104F4000054B064AD3F8B01F0A43C3F8B02F1A68BE
:104F500042F001021A607047001000E055CEACC567
:104F6000521A02EB5302B2FBF3F07047014B586840
:104F7000704700BF001000E0704710B504460C21D8
:104F80002EF01DFA204610BD036810B51B690446BB
:104F900031B19847A26863689B1A0344636010BDEF
:104FA0009847A060FBE770471FB5082300206946BB
:104FB000CDE90230054B1B880093054B1B880193FC
:104FC00004F0BEFE05B05DF804FB00BF76AC012422
:104FD00078AC012410B5044604212EF0F0F92046E7
:104FE00010BD30B585B000200D46144601A90390D0
:104FF000CDE9010004F026FF40B14FF0500383F3E8
:105000001188BFF36F8FBFF34F8FFEE7019820B178
:10501000029B01202B60039B236005B030BD000084
:10502000032825D8DFE800F0020B131C114B0121E7
:1050300011481A68B2FA82F2520906F033BF0D4BDA
:1050400008210E485A68B2FA82F25209F5E7094B74
:105050004FF480419A68B2FA82F252090848ECE7AC
:10506000044B4FF40041DA68B2FA82F25209F5E7D4
:10507000704700BF104B002400000258001802586F
:1050800000040258032825D8DFE800F0020B131CA7
:10509000114B012111481A68003A18BF012206F08D
:1050A00001BF0D4B08210E485A68003A18BF012273
:1050B000F5E7094B4FF480419A68003A18BF012286
:1050C0000848ECE7044B4FF40041DA68003A18BF97
:1050D0000122F5E7704700BF104B00240000025882
:1050E0000018025800040258032811D8DFE800F025
:1050F0000206090D0121074806F0D9BE082106481D
:10510000FAE74FF480410548F6E74FF40041FAE72B
:10511000704700BF000002580018025800040258EF
:1051200008B5032815D8DFE800F0020A0D110121A7
:10513000094806F0B1FE431E5842584108BD0821F7
:105140000648F6E74FF480410548F2E74FF4004186
:10515000FAE70020EFE700BF0000025800180258ED
:105160000004025870B5084D00240126E0B2FFF794
:10517000D7FF18B12B68012B18BF2E6001340435FE
:10518000052CF3D170BD00BF104B0024012380F823
:10519000781080F8793070470020704741640039FA
:1051A000024B18BF01211970704700BF7BAC01246E
:1051B00000207047836B0BB10846184770474FF6C5
:1051C000FF707047406803689B691847704700008C
:1051D00038B5044601F0CAF80749236804F17C0594
:1051E0002046D3F88C3098472846FFF7A1FE0123CC
:1051F000256184F8703038BD0000007008B5036880
:105200000446D3F880309847236820469B6F984720
:1052100000F02CF9236820461B6F984701224FF4B9
:105220008061084806F03EFE01224FF40041064826
:1052300006F038FE00F01AF9236820461B6F9847E5
:10524000F8E700BF000C02580018025810B50446D9
:105250001BF036FE23682046D3F8AC30BDE8104082
:10526000184701F04FB801F053B8000070B501F0D5
:10527000A7F810490023C1F88430BFF34F8FD1F84D
:10528000803043F6E074C3F3C900C3F34E335B01CF
:1052900003EA0406024646EA8275013AC1F87452EE
:1052A000F9D2203B13F1200FF2D1BFF34F8FBFF3A0
:1052B0006F8F70BD00ED00E001F000B801F0EAB9B9
:1052C00001F0F2B901F004B81BF066B810B504465D
:1052D00088212EF074F8204610BD000090F834109C
:1052E0000D4B10B590F878401A788C4209D03AB935
:1052F0000A490B4A08881488108001220C801A7011
:1053000010BD002AFCD0064A0449148808880C8085
:1053100010800022F3E700BF74AC012472AC0124BA
:1053200070AC012470B50D46194635B9094B40F2F1
:10533000D221094A09482EF0BBFBC0E90F52003ABE
:10534000074B18BF01221A700368BDE87040D3F8FC
:105350008C3018476060030898600308E660030813
:105360007AAC012408B5094B1B888B4203D8084B43
:105370001B88934205D9074B9E21074A07482EF008
:1053800097FB074B1980074B1A8008BD70AC0124AE
:1053900072AC01242B6103088E610308E6600308E8
:1053A00076AC012478AC0124034690F87A0018B159
:1053B000586803681B68184770470000014608B525
:1053C000034B186801B101211BF094FD012008BDB9
:1053D0007CAC01240121002208B508460BF0C8FB73
:1053E0000A4B186028B90A4B28210A4A0A482EF0AD
:1053F0005FFB0022042101200BF059FC074B1860D1
:1054000018B9074B2C21034AF0E708BD244B0024B0
:10541000AC620308F562030824630308204B0024F0
:1054200089630308024B4FF0FF3118680BF0EABBA9
:10543000244B0024014B18680BF010BC244B0024B3
:10544000024B002118680BF0DDBB00BF244B002489
:10545000FFF7F0BF0023034803491A4600680BF02A
:1054600061BC00BF204B00246C00002413B5002356
:10547000074C01A91A4620680BF085FC4FF0FF335A
:10548000002201A920680BF07EFC02B010BD00BF15
:10549000204B002403685B6C1847012070470368A9
:1054A0009B6A184740F2EF3070470000054B4FF001
:1054B00080620360044BC3F88820BFF34F8FBFF3B3
:1054C0006F8F70474065030800E100E010B50446A7
:1054D0004FF45A61FFF7EAFF20462DF070FF204697
:1054E00010BD00000F4B82B0D3F8D42042F0100260
:1054F000C3F8D420D3F8D42002F010020192019A0C
:10550000DA6F42F01002DA67DA6F22F01002DA671F
:10551000054B064A1A62064B4FF080629A6002B051
:10552000704700BF00440258B04600247957000875
:1055300000E100E008B50A2809D8DFE800F006100D
:105540000E080808081010101000022008BD054BB6
:105550008621054A05482EF0ABFA0020F6E7012027
:10556000F4E700BFCB630308E66303083164030874
:1055700038B50C46887FFFF7DDFF124BA58AE28A1B
:10558000586342EA054221695A64628BD963521B0F
:105590001A642568082D0ED19A611A6158620A4A68
:1055A000207F42EA0062DA61E2681A62074A5961C2
:1055B000D9601A6038BD0022D8611A61E2689A6326
:1055C000034AF6E700100052090001000102020040
:1055D0000102030008B50B280BD8DFE800F0061223
:1055E000100A0A0A0A0808080808022008BD05204F
:1055F000FCE7054B6521054A05482EF059FA0020C5
:10560000F4E70120F2E700BFCB63030894640308CA
:10561000316403082DE9F8434F7F89463846FFF788
:10562000D9FF99F81E5080462846FFF7D3FF06465B
:105630002846FFF77FFFB9F81410B9F81A40B9F8F7
:105640001820454B641A521A1C649C611A61B9F8FF
:105650001620586342EA0142D9F810105A64D9F86A
:105660000420D963DA60D9F8004099F81C20802C16
:1056700022D00FD8202C66D0402C64D0042C5CD0D3
:1056800048EA0260344BAF4240F40030D86160D049
:10569000324A3FE0B4F5807F04D0B4F5007FEFD10B
:1056A0002F4800E02F4840EA0262DA61D9F80C2066
:1056B0001A625E6259612CE048EA0260D9F808403B
:1056C00040F40030D8615E625961211DD9622178B1
:1056D00041B1012921D0244B4FF48071234A244841
:1056E0002EF0E6F9DA69618822F47F42013922F06E
:1056F000100242EA0122DA610122174BD96941F016
:105700002001D961D9698906FCD410219960002A49
:10571000BED0184A1A60BDE8F883D969FF3A60889C
:1057200021F47F4118BF0122013821F0100141EA24
:10573000002141F01001D961DFE748EA026242F43A
:105740000032DA61B5E748EA0262034B42F4003204
:10575000F7E740F20122DDE70010005201020100EC
:10576000090002000A000200DE640308F86403086E
:105770003164030801020200024B1B685868036889
:105780005B6918477CAC012470B504460A4B0C30A9
:1057900000262546602260602672667245F8203B2E
:1057A00029461BF0FDFC04F55A63EE6024359D424A
:1057B000FBD1204670BD00BF40650308034B1A684B
:1057C000D207FCD423229A60704700BF0010005219
:1057D00030B5104C2568ED07FCD423250904FF2BB8
:1057E000A5604FF0010541EA050165636164E0636E
:1057F0000CD0094922F07F42656241EA0363E3610C
:10580000064B22626061E060236030BDE561044BBD
:10581000A263F9E700100052090001000100020034
:10582000010003004069704790F844007047036B23
:1058300023B9C06A003818BF0120704701207047A3
:1058400080687047043010B50C460FC884E80F001C
:1058500010BD704708B5034A40F21221024B0348BD
:105860002EF026F98865030803850308E36503081D
:1058700010B5044648212DF0A2FD204610BD2DE9AB
:10588000F0411E46ADF51E7D436B07460C46904623
:10589000A69D93B3002203A8CDE9013213F0C8FA04
:1058A0004FF4F4725021249024A80DF08EFA424651
:1058B000214624A80EF0E2F9012124A80DF080FB76
:1058C000022324A88DF8D8300DF01BFC419BBDF8B5
:1058D0009482BDF89022984528BF98462B9B9A4207
:1058E00028BF1A4602EB4204479B984509D824A8D2
:1058F0000DF088FB24A80DF0B5FA0DF51E7DBDE86E
:10590000F081012201A924A80DF044FC3046224672
:10591000796B2E442EF037FDE6E700000A4A02605C
:105920000022C0E90522C0E90722C0E90922C0E936
:105930000B22C0E90D12C0E90F2280F84420C0E913
:105940000322C0E901227047DC68030810B40C464A
:1059500011461A46036B3BB1036C806BE41A20447A
:105960005DF8044B2EF0E0BBC06AF8E7036B10B59E
:1059700073B1036C826BC91A5318525C98785C78C7
:105980000004DB7840EA0420104340EA036010BDC5
:10599000C36A5858FBE7036B43B1036CC91A836BA6
:1059A0005A18585C527840EA02207047C36A585A25
:1059B0007047000070B50446006B0D461646D8B11E
:1059C000E36B934208D209230D4A65210D4884F800
:1059D00044300D4B2EF06CF80368DB689847206B61
:1059E0003246A16B03681B69984710B90D2384F8F0
:1059F0004430A06B256470BDE06A0844FBE700BF3B
:105A000065660308E3650308526603082DE9F84359
:105A1000436904462BB9234BAA21234A23482EF07D
:105A200047F808228169FFF7C5FFA16943F23006F4
:105A300046F2643704312046FFF798FFA369184403
:105A4000A36A00F108029A4206D301230020636191
:105A5000236AA361BDE8F883636909300822013332
:105A600020F0010120466361A161FFF7A3FFD4F894
:105A7000189020464946FFF78EFF09F10201804643
:105A80002046FFF788FF09F1040105462046FFF78D
:105A90006DFFB045D2D1BD42D0D10028CED001207B
:105AA000D8E700BFA7660308F0660308E3650308AC
:105AB0002DE9F04F0546ADF51F7D8B469046816977
:105AC00008221F46FFF776FFAE692846311DFFF713
:105AD0004DFF06F10801024604462846FFF76AFF1B
