:020000040800F2
:1000000000000524993900086D2100086F210008BF
:10001000712100087321000875210008000000000C
:1000200000000000000000000000000011E50008D2
:100030007721000800000000A1E500083FDD00086E
:10004000E9390008E9390008E93900087921000890
:10005000E9390008E9390008E9390008E9390008F8
:10006000E9390008E939000885210008E939000864
:10007000E9390008E9390008E9390008E9390008D8
:10008000E9390008E9390008E9390008E9390008C8
:10009000E9390008E9390008E9390008E9390008B8
:1000A000E9390008E9390008E93900088D2100081C
:1000B000E9390008E939000899210008E939000800
:1000C000E9390008E9390008E9390008E939000888
:1000D000E9390008E9390008E9390008E939000878
:1000E000E9390008E939000800000000E939000892
:1000F000E9390008E9390008E9390008E939000858
:10010000E9390008E9390008E9390008E939000847
:10011000E9390008E9390008A5210008E939000893
:10012000E9390008E9390008E9390008E939000827
:10013000E9390008E9390008E9390008E939000817
:1001400000000000000000000000000000000000AF
:10015000E9390008E9390008E9390008E9390008F7
:10016000E9390008E9390008E9390008E9390008E7
:10017000E9390008E9390008E9390008E9390008D7
:10018000E9390008E9390008E9390008E9390008C7
:10019000E9390008E9390008E9390008E9390008B7
:1001A000B1210008E9390008BD2100080000000065
:1001B000E9390008E9390008E9390008E939000897
:1001C000E9390008E93900080000000000000000DB
:1001D0000000000000000000E939000800000000F5
:1001E000000000000000000000000000000000000F
:1001F0000000000000000000E9390008E9390008AB
:10020000E9390008E939000800000000E939000870
:10021000E9390008E9390008E9390008E939000836
:10022000E939000800000000E9390008000000007A
:10023000E9390008E939000800000000E939000840
:10024000E9390008E9390008E9390008E939000806
:10025000E9390008E9390008E9390008E9390008F6
:10026000E9390008E9390008E9390008E9390008E6
:10027000E9390008E9390008E93900080000000000
:10028000E9390008E9390008E9390008E9390008C6
:1002900000000000E9390008E9390008E9390008E0
:1002A000E9390008E9390008E9390008E9390008A6
:1002B000E9390008E9390008E9390008C9210008CE
:0C02C000D5210008E9390008E9390008E0
:1002D00010B5054C237833B9044B13B10448AFF380
:1002E00000800123237010BD2801002400000000BD
:1002F0002808030808B5034B1BB103490348AFF3B3
:10030000008008BD000000002C010024280803081C
:1003100001F0FF01102A2BDB10F0070F08D010F8B6
:10032000013B013A8B422DD010F0070F42B3F6D1BA
:10033000F0B441EA012141EA014122F007047FF0D3
:1003400000070023F0E80256083C85EA010586EA2A
:10035000010685FA47F5A3FA87F586FA47F6A5FA66
:1003600087F68EB9EED1F0BC01F0FF0102F0070272
:1003700032B110F8013B013A83EA010313B1F8D11D
:100380000020704701387047002D06BF35460338FE
:10039000073815F0010F07D1013015F4807F02BF37
:1003A000013015F4C03F0130F0BC0138704700BF88
:1003B00081F0004102E000BF83F0004330B54FEA16
:1003C00041044FEA430594EA050F08BF90EA020F83
:1003D0001FBF54EA000C55EA020C7FEA645C7FEA16
:1003E000655C00F0E2804FEA5454D4EB5555B8BF39
:1003F0006D420CDD2C4480EA020281EA030382EAAA
:10040000000083EA010180EA020281EA0303362D3B
:1004100088BF30BD11F0004F4FEA01314FF4801C0E
:100420004CEA113102D0404261EB410113F0004F20
:100430004FEA03334CEA133302D0524263EB4303D7
:1004400094EA050F00F0A780A4F10104D5F1200E75
:100450000DDB02FA0EFC22FA05F2801841F10001D0
:1004600003FA0EF2801843FA05F359410EE0A5F1A4
:1004700020050EF1200E012A03FA0EFC28BF4CF0D5
:10048000020C43FA05F3C01851EBE37101F000458B
:1004900007D54FF0000EDCF1000C7EEB00006EEB98
:1004A0000101B1F5801F1BD3B1F5001F0CD3490822
:1004B0005FEA30004FEA3C0C04F101044FEA445279
:1004C00012F5800F80F09A80BCF1004F08BF5FEA00
:1004D000500C50F1000041EB045141EA050130BDE0
:1004E0005FEA4C0C404141EB0101013C28BFB1F5F2
:1004F000801FE9D291F0000F04BF01460020B1FA3D
:1005000081F308BF2033A3F10B03B3F120020CDA0F
:100510000C3208DD02F1140CC2F10C0201FA0CF0ED
:1005200021FA02F10CE002F11402D8BFC2F1200C52
:1005300001FA02F120FA0CFCDCBF41EA0C01904008
:10054000E41AA2BF01EB0451294330BD6FEA040451
:100550001F3C1CDA0C340EDC04F11404C4F120023C
:1005600020FA04F001FA02F340EA030021FA04F34E
:1005700045EA030130BDC4F10C04C4F1200220FAA5
:1005800002F001FA04F340EA0300294630BD21FAE3
:1005900004F0294630BD94F0000F83F4801306BFA9
:1005A00081F480110134013D4EE77FEA645C18BF9D
:1005B0007FEA655C29D094EA050F08BF90EA020F34
:1005C00005D054EA000C04BF1946104630BD91EA2C
:1005D000030F1EBF0021002030BD5FEA545C05D12F
:1005E0004000494128BF41F0004130BD14F580046E
:1005F0003CBF01F5801130BD01F0004545F0FE41E2
:1006000041F470014FF0000030BD7FEA645C1ABF16
:10061000194610467FEA655C1CBF0B46024650EA4D
:10062000013406BF52EA033591EA030F41F4002179
:1006300030BD00BF90F0000F04BF0021704730B5FF
:100640004FF4806404F132044FF000054FF00001D4
:1006500050E700BF90F0000F04BF0021704730B595
:100660004FF4806404F1320410F0004548BF40426A
:100670004FF000013EE700BF42004FEAE2014FEABF
:1006800031014FEA02701FBF12F07F4393F07F4F9A
:1006900081F06051704732F07F4208BF704793F09D
:1006A0007F4F04BF41F40021704730B54FF46074B0
:1006B00001F0004521F000411CE700BF50EA0102B3
:1006C00008BF704730B54FF000050AE050EA01025C
:1006D00008BF704730B511F0004502D5404261EBCC
:1006E00041014FF4806404F132045FEA915C3FF40D
:1006F000D8AE4FF003025FEADC0C18BF03325FEAAA
:10070000DC0C18BF033202EBDC02C2F1200300FA5A
:1007100003FC20FA02F001FA03FE40EA0E0021FA7F
:1007200002F11444BDE600BF53B94AB9002908BF1D
:1007300000281CBF4FF0FF314FF0FF3000F06AB9C6
:10074000ADF1080C6DE904CE00F006F8DDF804E028
:10075000DDE9022304B070472DE9F047089D0C46FF
:10076000002B4ED194468C458646B2FA82F262D96D
:100770004AB1C2F12003914020FA03F30CFA02FCC3
:10078000194300FA02FE4FEA1C471FFA8CF6B1FB30
:10079000F7F44FEA1E4307FB141143EA014304FB3D
:1007A00006F199420AD91CEB030304F1FF3080F0F3
:1007B0001281994240F20F81023C6344591A1FFA98
:1007C0008EF3B1FBF7F007FB101143EA014300FB86
:1007D00006F69E420AD91CEB030300F1FF3180F0BC
:1007E000FC809E4240F2F980634402389B1B40EA41
:1007F000044000211DB1D3400022C5E90032BDE80C
:10080000F0878B4205D90DB1C5E9000100210846EA
:10081000F5E7B3FA83F1002946D1A34202D390420F
:10082000C0F0F080861A64EB03030120002DE6D0AF
:10083000C5E90063E3E7002A40F09080A1EB0C04D7
:100840004FEA1C481FFA8CF70121B4FBF8F64FEA77
:100850001E4308FB164443EA044307FB06F0984294
:1008600008D91CEB030306F1FF3402D2984200F2D0
:10087000CD8026461C1A1FFA8EF3B4FBF8F008FB55
:10088000104443EA044300FB07F79F4208D91CEBDE
:10089000030300F1FF3402D29F4200F2B0802046F1
:1008A000DB1B40EA0640A5E7C1F120068B4022FA97
:1008B00006F71F4320FA06FC04FA01F343EA0C038F
:1008C000F44000FA01F8380C4FEA1349B4FBF0FE8B
:1008D0001FFA87FC00FB1E4449EA04440EFB0CF996
:1008E000A14502FA01F20AD93C190EF1FF3A80F053
:1008F0008480A14540F28180AEF1020E3C44A4EB1D
:1009000009041FFA83F9B4FBF0F300FB134449EA2E
:10091000044403FB0CFCA44507D93C1903F1FF3048
:1009200067D2A44565D9023B3C4443EA0E40A0FB94
:100930000293A4EB0C049C42CE469C4651D34ED06D
:1009400055B1B8EB0E0364EB0C0404FA06F6CB4089
:100950001E43CC40C5E90064002150E7C2F12003EA
:1009600020FA03F10CFA02FC24FA03F394400C433E
:100970004FEA1C4800FA02FE1FFA8CF7B3FBF8F0AE
:1009800008FB1031230C43EA014300FB07F19942B5
:1009900008D91CEB030300F1FF362CD299422AD967
:1009A000023863445B1AA4B2B3FBF8F108FB1133BD
:1009B00044EA034401FB07F3A34208D91CEB0404F7
:1009C00001F1FF3613D2A34211D902396444E41A6B
:1009D00041EA004139E70446F0E6084606E7C84523
:1009E000AED2B9EB020E63EB070C0138A8E7314633
:1009F000EDE7034699E73046D4E7D6467FE7634400
:100A000002384DE70646234608460FE7023E634498
:100A100030E700BF704700BF014900200EF03EBF25
:100A2000953E000808B542F210700DF008FAFAE79A
:100A300008B564200DF003FAFBE70000064D074CF3
:100A400008B547F230500DF0FAF928462EF058FE5E
:100A5000204608F0D0FFF4E7CC080308B045002496
:100A600008B502F097FA02F035FF04200DF0E7F91F
:100A7000F7E708B502F056FF0A200DF0E0F9F9E7B4
:100A800038B50B4C0B4D204607F03AF86421204650
:100A900006F0D4FC204606F05FFD286002F094F9D1
:100AA000002002F02DFA64200DF0C9F9EBE700BF39
:100AB000EC460024D0470024094C0A4D08B52046D6
:100AC00007F01EF80121204606F0B8FC204606F08B
:100AD00043FD288001F0FAFD64200DF0B0F9EEE747
:100AE0005C470024D447002408B501F0F3FF41F22D
:100AF00088300DF0A4F9F8E708B502F0B5F841F236
:100B000088300DF09CF9F8E708B502F04DF94FF484
:100B10007A700DF094F9F8E708B502F055FB02F091
:100B2000CFFA02F0BDFB01200DF089F9F5E708B519
:100B300001F08EFC01F066FD4FF4FA700DF07FF9C4
:100B4000F6E70000054C08B501F024FF01F03CFF7A
:100B5000206032200DF073F9F6E700BFCC47002487
:100B600007B54FF6FF730190012201A903480CF06D
:100B700088FF019803B05DF804FB00BF0043002428
:100B800010B59CB04C22002109A82EF0B9FE2022FD
:100B9000002101A82EF0B4FE042009F075FF002307
:100BA0000093214B9A6922F440429A619A6902F4B7
:100BB00040420092009A9A699204FCD509F02EFFF7
:100BC0001A4A2C210024136F09A823F01803136775
:100BD0000D224FF480331B94CDE909230122022317
:100BE000CDE915120B920E9244221493CDE91723EE
:100BF000CDE912330C23CDE9193409F083FF032129
:100C00003F2308204FF4806203947024CDE9013122
:100C10004023CDE9040301A80893CDE906420AF078
:100C20008DFA1CB010BD00BF0048025800440258A5
:100C300000B5AFB00021982208A82EF061FE124A3C
:100C400000231920CDE9002305225023CDE90223FA
:100C500002238022CDE90433069307924FF4907269
:100C6000CDE90C331E230E934FF400731093202311
:100C700013934FF48033CDE90A02684628930AF0B3
:100C800045FD2FB05DF804FB000008222DE98048E7
:100C9000A1B0102200214FF0000A13A82EF030FE60
:100CA00007F048FA012313A8ADF84C3048F21F733F
:100CB000CDE914A340F20113169307F059FA04206A
:100CC00007F046FAD44B5A6912F4003211D1BFF33F
:100CD0004F8FBFF36F8FC3F85022BFF34F8FBFF317
:100CE0006F8F5A6942F400325A61BFF34F8FBFF3DE
:100CF0006F8FC94A536913F4803323D1C2F884300B
:100D0000BFF34F8FD2F8803043F6E074C3F3C900CD
:100D1000C3F34E335B0103EA0406014646EA8175DC
:100D20000139C2F86052F9D2203B13F1200FF2D101
:100D3000BFF34F8F536943F480335361BFF34F8F39
:100D4000BFF36F8F06F006FB0024FFF719FF0125A4
:100D5000FFF76EFF1422002113A82EF0D1FDAF4B38
:100D600048F20801AE48D3F8E02002274FF01008FF
:100D70004FF0030A42F002024FF4806BA94E40F29A
:100D80001529C3F8E020D3F8E02002F00202009217
:100D9000009AD3F8E02042F04002C3F8E020D3F8F4
:100DA000E02002F040020192019AD3F8E02042F0E4
:100DB0000802C3F8E020D3F8E02002F00802029213
:100DC000029AD3F8E02042F01002C3F8E020D3F8F2
:100DD000E02002F010020392039AD3F8E02042F0E0
:100DE0000102C3F8E020D3F8E02002F001020492EF
:100DF000049AD3F8E02042F00402C3F8E020D3F8CC
:100E0000E02002F004020592059AD3F8E02042F0B7
:100E10008002C3F8E020D3F8E02002F080020692BE
:100E2000069AD3F8E02042F02002C3F8E020002226
:100E3000D3F8E03003F020030793079B08F0F4F9A0
:100E400000224FF44041784808F0EEF900224FF4B8
:100E50008061764808F0E8F900220121744808F022
:100E6000E3F9082313A973481595CDE9133408F065
:100E70005DF84FF4005313A96F481597CDE913346B
:100E800008F054F84FF4004313A96548CDE9133531
:100E9000CDE9154408F04AF8202313A960481595B8
:100EA000CDE9133408F042F84FF4881313A95C48D5
:100EB0001594CDE9138308F039F8082313A958488D
:100EC000CDF858A01594CDE9133508F02FF84FF45C
:100ED000807313A959481595CDE9133408F026F805
:100EE0004FF4404313A95048CDE91335CDE9154AD5
:100EF00008F01CF813A94D48CDE913B5CDE9154408
:100F000008F014F813A94A48CDE91355CDE9154A5C
:100F100008F00CF8224605210A2007F0B9F80A204B
:100F200007F0E8F84648474B056203608480C0E953
:100F3000054407F049F94FF440334348C0E90063E2
:100F4000C0E9025407F0A1F92146342213A82EF07B
:100F5000D7FC3E4E3E4B4FF0280C4FF0350E40F282
:100F6000352230463461B48686F83640C6E900340E
:100F70000923C6E905C30B23C6E907E340F21B13A7
:100F8000C6E9099340F21D134FF00409C6E90B238B
:100F9000C6E9024408F0BCFDFF214FF488734FF40A
:100FA000F0720520CDF868B04FF0180B1394ADF82F
:100FB0007C408DF87E40CDE918144FF0E041CDE93A
:100FC0001D23CDE91B01CDE9142413A92246304687
:100FD000204ECDE9163508F098FE5A46214613A852
:100FE0002EF08EFC1C4B4FF080723046B460F463E0
:100FF000C6E900392023C6E903230823C6E905749E
:10100000C6E90D34C6E90974C6E90744C6E90B44CC
:1010100009F008F822E000BF00ED00E000440258AB
:10102000001802580010005200040258000C025828
:10103000000002580010025800080258001402581C
:10104000C8460024004C025860460024084500248D
:1010500000100050AC440024005000524FF0011228
:1010600013A93046169202F57F021595179241F2A8
:101070008832CDE9135509F061FA304609F046F897
:1010800040F201122046D34EADF8382005F0BEFDE7
:101090000EA9204605F0ACFE204605F07FFD5A461D
:1010A000214613A82EF02CFC424621460AA82EF019
:1010B00027FC214614220EA82EF022FCC64A4FF02F
:1010C000805C3046B460C6E900294FF08062C6E912
:1010D000032B17224FF6FF7BC6E90BC24FF4C872F1
:1010E000C6E90594C6E90974F263C6E90744C6E98E
:1010F0000D44CDE9084408F095FFB84A13A93046DD
:10110000169202F57F021597179241F28832CDE9C7
:101110001377062709F012FA41F288320AA93046FD
:10112000CDF828A00D954FF4805ACDE90B7409F045
:101130004FF84FF440520EA9304610924FF0005233
:101140001195129241F288320E940F9409F066F8CC
:1011500008A93046089409F081F902F01BFC4246C8
:1011600021460EA89E4E2EF0CBFB4246214613A8E8
:101170000C94CDE90A442EF0C3FB9A4A3046B46081
:10118000C6E90024C6E903B4C6E905440BF0ACFE89
:101190000EA93046CDF838A00BF0E6FF30460BF034
:1011A000D3FE0AA930460C94CDE90A440CF0AAF902
:1011B0000C2213A930468C4ECDE91345CDE91544D8
:1011C0000BF034FF424621460EA82EF099FB424612
:1011D000214613A80C94DFF84082CDE90A442EF092
:1011E0008FFB824A30463461B461C6E90024C6E907
:1011F000024B0BF079FE0EA93046CDF838A00BF06B
:10120000B3FF30460BF0A0FE0AA930460A940C94B6
:101210000CF078F90C2213A93046754ECDE9134530
:10122000CDE915440BF002FF2146242213A81094A7
:10123000CDE90E442EF064FB08234FF40022304623
:10124000B360F561348386F82040346386F8444007
:10125000C6E90082C6E90449C6E90A44C6E90F4462
:1012600006F050FD0EA930460E9406F099FE40F2AD
:10127000FF7213A93046159418948DF86D405D4E99
:10128000CDE91629CDE9135706F06AF91422214653
:1012900013A82EF035FB584B4FF07F0930460E94C3
:1012A00034617461C6E90034FF23C6E90644C6E927
:1012B00002930BF0ADFA43F212032A4613A9ADF8DC
:1012C0004C304FF0200330468DF84E30CDE91644B7
:1012D0000BF0F5FA494B2A460EA930460E9343F21D
:1012E000F2250BF04EFB2246214630460BF0DEFB8A
:1012F000214630460BF08BFCA8420ED0224613A9A3
:1013000030460BF0DCFA22460EA930460BF039FBD2
:101310002A46214630460BF075FC394D0024394AE7
:101320004FF4E1334FF00C0828462C614FF0060AC9
:10133000012604274FF00809C5E90023C5E9024446
:10134000C5E90584C5E90744C5E909440CF049FC31
:10135000214628460CF0B3FC214628460CF0CFFC71
:1013600028460CF091FC2848284B4FF4C871284DB2
:10137000C0E9003A40F6FF73C0E9023108F00EFB05
:101380002422214613A82EF0BBFA4FF480232148D3
:101390002C616F612C83EE6185F8204085F8384020
:1013A00085F84440C5E900032846C5E90294C5E92B
:1013B0000A44C5E90C44C5E90F4406F0A3FC40F219
:1013C000FF7313A92846159418941A94CDE916377B
:1013D00024E000BF5044002400A00052020001009D
:1013E000E043002400000140944300240008004032
:1013F0005C4700242C4400240040005804041024BE
:101400000043002400480040B04500240048005834
:10141000EC4600240060025800200240CDE9136A27
:1014200006F09EF85748584B0D22068203600223AF
:101430008474C0E907231F22C0E90539C0E9176396
:10144000C0E90B29C0E90244C0E90966C0E90D46BC
:10145000C0E90F66C0E91176C0E91376C0E91576D8
:10146000C0E9194707F018F802F0C0FA02F0BDFA17
:1014700002F09CF902F04CFA01F0ACFA01F078FBB2
:1014800001F058FC00F0D0FF01F01AF900F0FCFE6A
:1014900001F07AFA41463D480BF02EFF41463C48A8
:1014A0000BF02AFF01F034FC0CF056FC394A2146BF
:1014B00039480CF07DFC394B394A214618603948CF
:1014C0000CF076FC384B394A2146186038480CF04D
:1014D0006FFC384B384A2146186038480CF068FCDD
:1014E000374B384A2146186037480CF061FC374BBF
:1014F000374A2146186037480CF05AFC364B374AB9
:101500002146186036480CF053FC364B364A2146CB
:10151000186036480CF04CFC354B364A21461860B2
:1015200035480CF045FC354B354A214618603548A6
:101530000CF03EFC344B354A2146186034480CF020
:1015400037FC344B344A2146186034480CF030FCE8
:10155000334B344A2146186033480CF029FC334B96
:10156000334A2146186033480CF022FC324B334A90
:101570002146186032480CF01BFC324B18600CF00E
:10158000FDFBFEE7C045002400D40040E0430024FA
:1015900094430024C80B0308250A0008FC420024D9
:1015A000A40B0308FB3900084C400024800B0308FF
:1015B00041540008484000245C0B03083D0A000821
:1015C000982F0024380B0308610A0008E82C002437
:1015D000140B0308730A0008382A0024F00A0308D1
:1015E000810A000888190024CC0A0308B90A0008F7
:1015F000D8160024A80A0308E90A000828140024C1
:10160000840A0308F90A000878110024600A030814
:10161000090B0008C80E00243C0A0308190B000837
:10162000180C0024180A03082F0B0008680900246E
:10163000F4090308310A0008B8060024D009030899
:10164000450B00080804002410B59EB0224808F09D
:10165000D2F92022002103A82EF052F94C220021B9
:101660000BA82EF04DF90023029301931B4B9A69AE
:1016700022F440429A619A6902F440420292029A2C
:101680009A699204FCD50BA8012409F0C3FE4FF41B
:1016900080330BA8CDE90B430223149309F032FAEF
:1016A00001A903A809F018FF0323019903A80493D3
:1016B000039409F043FD00F04FFD094800F042F9A2
:1016C00008482EF01DF8084AD2F8D03043F4803391
:1016D000C2F8D0301EB010BDB045002400480258FA
:1016E00008450024DB0803080044025810B50C4CE0
:1016F00000220C4821460BF098F90B4B187028B9C2
:10170000A3786278217809482DF092FFFFF738FA24
:1017100000F022FD0648BDE810402DF0F1BF00BFEB
:10172000480100242C44002444010024EC08030850
:10173000FD0803080268034B9A4201D105F038BE48
:10174000704700BF00100040704700000A4B82B095
:101750000F216FF00100D3F8F42042F00202C3F829
:10176000F4200022D3F8F43003F002030193019B2C
:1017700002B006F08DBC00BF00440258036884B07C
:10178000214A93421ED1214B4FF08071D3F8D820CB
:1017900042F02002C3F8D820D3F8D82002F020026B
:1017A0000092009AD3F8E02042F00102C3F8E02052
:1017B000D3F8E03003F001030193019B084604B025
:1017C00005F01ABE124A93421BD1104B4FF08061B4
:1017D000D3F8E02042F08072C3F8E020D3F8E02094
:1017E00002F080720292029AD3F8E02042F00402E2
:1017F000C3F8E020D3F8E03003F004030393039B25
:10180000DCE704B0704700BF0020024000440258EB
:1018100000600258026882B0094B9A420DD1A3F5CC
:101820000063D3F8E02042F40022C3F8E020D3F8AC
:10183000E03003F400230193019B02B0704700BF26
:10184000004C02580F4B07B502689A4217D10E4B55
:1018500005215A20D3F8D42042F01002C3F8D42036
:101860000022D3F8D43003F010030193019B06F05B
:101870000FFC5A2003B05DF804EB06F03BBC03B04C
:101880005DF804FB001000520044025810B5B6B0D9
:1018900004461422002103A82EF032F8B8220021B9
:1018A00008A82EF02DF82268234B9A4242D100233B
:1018B0004FF4004208A8CDE908234FF0805323934A
:1018C00009F024FF08B1FFF73FFF1C4B002403A9D8
:1018D0001B48D3F8EC2042F48072C3F8EC20D3F814
:1018E000EC2002F480720192019AD3F8E02042F0D9
:1018F0002002C3F8E020C022D3F8E03003F0200338
:101900000293029B0223CDE90544CDE9032307930B
:1019100007F00CFB224605219F2006F0B9FB9F2013
:1019200006F0E8FBA0202246052106F0B1FBA0202E
:1019300006F0E0FB36B010BD00D400400044025871
:10194000001402582DE9F0418EB004461422002103
:1019500009A82DF0D5FF22686A4B9A4240F0CE804C
:10196000694B022603250E27D3F8E42009A967480E
:10197000002442F008024FF05808C3F8E420D3F8DE
:10198000E42002F008020192019AD3F8E02042F02C
:101990000202C3F8E020D3F8E02002F00202029233
:1019A000029AD3F8E02042F00802C3F8E020D3F80E
:1019B000E02002F008020392039AD3F8E02042F0FC
:1019C0001002C3F8E020D3F8E02002F010020492E5
:1019D000049AD3F8E02042F00102C3F8E020D3F8E3
:1019E000E02002F001020592059AD3F8E02042F0CF
:1019F0004002C3F8E020D3F8E02002F04002069253
:101A0000069AD3F8E02042F08002C3F8E020D3F831
:101A1000E02002F080020792079AD3F8E02042F01B
:101A20000402C3F8E020D3F8E03003F00403089385
:101A3000089B40F20333CDE90C57CDE9093607F096
:101A400075FA492309A932480D97CDE90936CDE940
:101A50000B4507F06BFA4BF6030309A92D480D97C8
:101A6000CDE90936CDE90B4507F060FA4FF48073F4
:101A700009A92948CDE909360D23CDE90B450D9378
:101A800007F054FA4FF4814309A924480D97CDE992
:101A90000936CDE90B4507F049FA48F6087309A95C
:101AA0001F480D97CDE90936CDE90B4507F03EFA01
:101AB000C02309A91B480D97CDE90936CDE90B458F
:101AC00007F034FA09A914480D97CDE90986CDE944
:101AD0000B4507F02BFA102309A91148CDE9093667
:101AE0000923CDE90B450D9307F020FA4046224625
:101AF000052106F0CDFA404606F0FCFA0EB0BDE82E
:101B0000F08100BF00100050004402580004025849
:101B1000000C025800100258000002580018025829
:101B2000001C025800080258026808B5184B9A4277
:101B30002CD1184A40F203311748D2F8E43023F090
:101B40000803C2F8E43007F0D3FA4921134807F03C
:101B5000CFFA4BF60301124807F0CAFA4FF4AC7102
:101B6000104807F0C5FA4FF481410F4807F0C0FA5A
:101B700048F618710D4807F0BBFA0D48C02107F070
:101B8000B7FA5820BDE8084006F0C2BA08BD00BF49
:101B9000001000500044025800040258000C025883
:101BA000001002580000025800180258001C025889
:101BB000000802582DE9F04391B004461422002198
:101BC0000BA82DF09DFE2368884A934240F0B08018
:101BD000874A13680133012B13600CD1854BD3F86E
:101BE000D42042F40012C3F8D420D3F8D43003F444
:101BF00000130093009B7F4B022503240927D3F891
:101C0000D4200BA97C48002642F480424FF00A08F9
:101C10004FF00409C3F8D420D3F8D42002F4804252
:101C20000192019AD3F8E02042F04002C3F8E0208C
:101C3000D3F8E02002F040020292029AD3F8E020AA
:101C400042F00802C3F8E020D3F8E02002F00802D6
:101C50000392039AD3F8E02042F01002C3F8E02088
:101C6000D3F8E02002F010020492049AD3F8E020A6
:101C700042F02002C3F8E020D3F8E02002F0200276
:101C80000592059AD3F8E02042F00202C3F8E02062
:101C9000D3F8E03003F002030693069B4FF4007381
:101CA000CDE90B35CDE90E4707F040F9B0230BA97C
:101CB0005248CDF83C80CDE90B35CDE90D6407F0F5
:101CC00035F90BA94E480F97CDE90B95CDE90D6479
:101CD00007F02CF940230BA94748CDF83C80CDE90B
:101CE0000B35CDE90D6407F021F94FF460530BA9D2
:101CF00042480F97CDE90B35CDE90D6407F016F991
:101D00004FF480630BA93F480F97CDE90B35CDE920
:101D10000D6407F00BF90BA93B48CDF83C80CDE9E9
:101D20000B95CDE90D6407F001F911B0BDE8F08322
:101D3000364A9342F9D12E4A13680133012B1360BE
:101D40000CD12C4BD3F8D42042F40012C3F8D42089
:101D5000D3F8D43003F400130793079B254B0324D7
:101D600002250926D3F8D4200BA92348002742F4E2
:101D70000022C3F8D420D3F8D42002F40022089221
:101D8000089AD3F8E02042F04002C3F8E020D3F8EC
:101D9000E02002F040020992099AD3F8E02042F0D4
:101DA0002002C3F8E020D3F8E03003F020030A93C8
:101DB0000A9B40F60303CDE90E46CDE90B3507F04B
:101DC000B5F84FF4A0530BA90B480F94CDE90B3590
:101DD000CDE90D7407F0AAF841F21F030BA90948D9
:101DE0000F96CDE90B35CDE90D749CE700500052FC
:101DF000D84700240044025800180258000C02582A
:101E000000100258001402580004025800A00052AA
:101E1000274A08B5036893422AD1264B1A68013A2B
:101E20001A60254B2AB9D3F8D42022F40012C3F843
:101E3000D420D3F8D4204FF41071204822F48042EB
:101E4000C3F8D42007F054F943F6B0011C4807F05A
:101E50004FF904211B4807F04BF94FF480611A48F1
:101E600007F046F904211948BDE8084007F040B9D9
:101E7000174A93421AD10F4B1A68013A1A600E4B57
:101E80002AB9D3F8D42022F40012C3F8D420D3F80E
:101E9000D42041F60341094822F40022C3F8D4209B
:101EA00007F026F941F21F010748DDE708BD00BF32
:101EB00000500052D847002400440258001802582D
:101EC000000C025800100258001402580004025876
:101ED00000A0005210B5AEB00446B82200216846FA
:101EE0002DF00EFD2268104B9A421AD100234FF4B8
:101EF00080026846CDE900234FF480732C9309F0EB
:101F000005FC08B1FFF720FC084A03200521136FE8
:101F100043F400431367002206F0BAF8032006F0EA
:101F2000E9F82EB010BD00BF004000580044025830
:101F30001422002110B58AB004460DEB02002DF0EA
:101F4000DFFC23682F4A93422ED12F4B4FF4804160
:101F50002E48D3F8F02042F00102C3F8F020D3F865
:101F6000F02002F001020192019AD3F8E02042F041
:101F70001002C3F8E020D3F8E03003F0100302931E
:101F8000029B0223CDE905130793012305A90993B9
:101F900006F0CCFF1B200022052106F079F81B205B
:101FA00006F0A8F80AB010BD194A9342FAD1164BB0
:101FB00005A91848D3F8E82042F00402C3F8E82045
:101FC000D3F8E82002F004020392039AD3F8E02049
:101FD00042F00802C3F8E0204FF40042D3F8E030AA
:101FE00003F008030493049B0223CDE9052309931E
:101FF00006F09CFF1E200022052106F049F81E2055
:10200000CEE700BF00000140004402580010025813
:1020100000080040000C025810B5B6B00446142267
:10202000002103A82DF06CFCB822002108A82DF097
:1020300067FC22681A4B9A4230D10222002308A87A
:10204000CDE9082309F062FB08B1FFF77DFB154BD2
:1020500003A91548D3F8E82042F48022C3F8E82009
:10206000D3F8E82002F480220192019AD3F8E0200C
:1020700042F00802C3F8E0204FF44072D3F8E03099
:1020800003F008030293029B0223CDE903230023FC
:10209000CDE905330723079306F048FF36B010BD9E
:1020A0000048004000440258000C02580F2810B5A8
:1020B00004468AB002D901200AB010BD01460022B0
:1020C000362005F0E5FF362006F014F8184B694677
:1020D00002A81C60174BD3F8E82042F01002C3F8A6
:1020E000E820D3F8E83003F010030193019B09F0D6
:1020F000F3F9079BC3B909F069F90F4C0F4B236043
:1021000040F2E733E3600E4BB0FBF3F001380023FD
:10211000606020462361A3600AF0E6FE0028CAD171
:1021200020460AF079FDC7E709F050F94000E4E7DE
:102130006000002400440258DC47002400100040E6
:1021400040420F00034B1A68D36823F00103D360A9
:10215000704700BFDC470024034B1A68D36843F084
:102160000103D360704700BFDC4700247047FEE7DF
:10217000FEE7FEE7FEE7704701480AF02CBD00BF0E
:102180002C440024102007F05DB8000001480AF03C
:102190008DBD00BFE043002401480AF087BD00BFA9
:1021A0009443002401480AF081BD00BFDC470024AD
:1021B000014807F04DBD00BF08450024014806F066
:1021C000A3B800BF60460024014806F047BD00BF29
:1021D000C0450024FFF7F8BF0120704708B52DF077
:1021E00099FC162303604FF0FF3008BD08B52DF0B1
:1021F00091FC16230360FEE770B50D4614460E46AB
:10220000731B9C4201DC204670BDAFF3008006F8D2
:10221000010BF5E770B50D4614460E46731B9C4244
:1022200001DC204670BD16F8010BFEF799FCF5E7BE
:102230004FF0FF3070474FF4005300204B60704761
:1022400001207047002070470B4A0346116810B503
:1022500009B90A491160106809490A4C0344091B6D
:102260008B4206D92DF056FC0C2303604FF0FF3053
:1022700010BD1360FCE700BF2848002438AF0124DC
:10228000000005240010000070B540F21113284C26
:1022900000254FF40002274940F2FF100126A560F7
:1022A0000D60CE60C4E900354FF40023C4E9033566
:1022B0005223C4E9072340F2FF73C1E904031E4817
:1022C000C4E90555C1E9016606F0D0FA33461B4A58
:1022D0002146194806F082FB3146174806F0ADFB4F
:1022E0002A463146144806F06BFC2A464FF48021FA
:1022F000114806F065FC104C4FF470210E4806F0B2
:10230000F1FA31460C4806F001FB40F65A42002132
:10231000204606F00FFB0028F7D1074806F022FB05
:102320000028FAD10448BDE8704006F03EBB00BF6B
:102330006448002488480024C04500240400002488
:10234000234B002270B51A70CB0705463FD5214CB0
:102350004021214E23462148324606F07FFB58B1EA
:10236000FFF7F2F9002201211C4806F029FC70B3A6
:10237000BDE87040FFF7E8B9284606F006FB326872
:1023800040F2FF139A42EDD16278237802F0010007
:10239000134943EA0023C2F3400043EA4023C2F357
:1023A000800043EA8023C2F3C00043EAC023C2F3A3
:1023B0000010C2F3401243EA003343EA42330A8872
:1023C00022F47F5222F03F0213430B80CAE770BD14
:1023D00031480024324800243C480024C0450024F1
:1023E0002C48002410B50A4C00224FF480210948E3
:1023F00023780133237006F0E3FB08B1FFF7A4F95B
:102400002378054A1E2B94BF00230123137010BDAF
:1024100031480024C045002430480024014B18688E
:10242000704700BF2C4800240549064B0A7806482F
:102430001A704A78054B1A7000220AF0F6BA00BFEB
:10244000C8480024DE4800242C440024DD48002431
:1024500010B50D4C00220D490D480AF0E6FA014670
:10246000207010B10B482DF0E3F80B49002208480A
:102470000AF0FEFA0146207020B10848BDE810407D
:102480002DF0D6B810BD00BFC0480024C8480024B5
:102490002C440024EC0B0308C1480024090C030859
:1024A00010B5084C0848627821782DF0C1F8214613
:1024B000002206480AF003FA0548BDE810402DF056
:1024C0001FB900BFAC480024260C03082C4400248C
:1024D0003F0C030810B5052824D8DFE800F00317E7
:1024E0001B2C2431224C23482DF00AF921460022CE
:1024F00021480AF09AFA2178204B62781970204B13
:1025000020481A70BDE810402DF092B8BDE8104088
:10251000FFF7C6BF1C4A13780133DBB2022B08BF9A
:102520000023137010BD194B002219481A70BDE822
:1025300010402DF07DB8154B012216481A70F6E7B1
:10254000114B1B784BB90A4A182113780133DBB2BF
:10255000B3FBF1F001FB1033E3E7012BE2D1044AB6
:1025600053780133DBB23C2B08BF00235370D9E70B
:10257000AC480024540C03082C440024DE480024FA
:10258000DD4800246A0C0308DC480024A848002425
:10259000840C0308990C0308164B10B41B787BB904
:1025A000154B182219780131C9B2B1FBF2F002FBC8
:1025B00010111248C9B219705DF8044B2DF038B8EB
:1025C000012B06D10C4A53780133DBB23C2B03D0EC
:1025D00053705DF8044B70471378182000210133C5
:1025E0005170DBB2B3FBF0F400FB143304481370FA
:1025F000E2E700BFDC480024AC480024AB0C030831
:10260000C70C030808B5074B1A78012A06D1FFF753
:10261000C3FF0548BDE808402DF00AB800221A7033
:1026200008BD00BFA8480024E50C03081249134A5E
:102630000B780133DBB2042B0B7006D900230B702F
:1026400000230F4813702DF05BB8013B032BF7D824
:10265000DFE803F002060A0E01230A481370F2E7CE
:10266000022309481370EEE7032308481370EAE7D2
:10267000042307481370E6E7DF480024E0480024FD
:10268000020D0308180D03082C0D0308400D030864
:10269000570D0308014B1878704700BFE04800242D
:1026A000054B64221B68534340F6FF72B3FBF2F301
:1026B000024A1360704700BF3049002434490024A7
:1026C000014B00221A7070473B4900242DE9F84F56
:1026D0009B4C2578012D3ED0022D7FD0002D68D156
:1026E000984E1E21984B32781B88984FDFF884C291
:1026F00027F812300132B2FBF1F001FB1020BCF8D8
:10270000002030701344924E9BB23288ACF80030F7
:10271000013292B21D2A328083BF37F810004FF089
:10272000010E8C4D294681BFB3FBF1F11B1A85F8D0
:1027300000E0ACF800301D2A874B198039D901F030
:10274000AFF8012835D1834B1B78012B31D1002202
:10275000328023702DE0814D7F4A2B881288804F74
:10276000934236BFD21A9B1A93B24FF0010228BF90
:102770009BB23A7040F2323293421CD86FF4CC7163
:102780000B44B3F5CD7F2CBF02230323754A764E4D
:102790001370337001F084F801280AD13B78012BC3
:1027A00007D13378714E9A1E012A06D80222227070
:1027B0003370BDE8F88F0023E8E74FF48051002024
:1027C00000F0E2FB00F0A4FB002000F0D5FB286045
:1027D000FFF766FF022323700423E9E7634F614E8E
:1027E0003A783378022ADFF87091DFF87081DFF8E9
:1027F00088A179D0032A51D0012A0FD19AF800205C
:10280000DFF878B19A421EBF594B00221A80BBF8FC
:102810000030D8F80020B3F5967F25D933788AF8B0
:102820000030494B1A88B8F80030A9F800209A42C5
:102830008ABFD21A9B1A93B240F2323298BF9BB22F
:10284000934278D86FF4CC721344B3F5CD7F74D231
:1028500003252B46444A337013703D7001F020F875
:102860000228A6D1002374E7B9F80010914203D1E1
:102870000023ABF80030D1E7013340F21111022000
:10288000ABF8003000F080FB00F042FB002000F0CD
:1028900073FBC8F80000FFF703FFB8E79AF80020C1
:1028A000DFF8DCB09A421EBF314B00221A8040F69E
:1028B000B832BBF80030D8F800109342AED8B9F85F
:1028C00000008842D4D0013388216420ABF8003066
:1028D00000F05AFB00F01CFB002000F04DFBC8F894
:1028E0000000FFF7DDFEE2E79AF80020DFF894B081
:1028F0009A421EBF1E4B00221A8042F22832BBF8B9
:102900000030D8F80010934288D8B9F80000884207
:10291000AED0013388214FF49670ABF8003000F050
:1029200033FB00F0F5FA002000F026FBC8F80000A9
:10293000FFF7B6FEE1E701258BE702238AE700BF38
:102940003B490024E1480024D4470024F2480024F5
:10295000F0480024ED480024384900243049002480
:10296000EC480024E2480024E44800243A490024CA
:10297000084A0024EE480024E3480024EA480024E2
:10298000E8480024E6480024014B00221A60704702
:102990004049002410B50A4CFFF740FD206000F0CC
:1029A0007FFFC0B201280AD1064922880B88C2F3F2
:1029B0000B0223F47F6323F00F0313430B8010BD3E
:1029C0003C49002440490024014B1868704700BF6F
:1029D000404900240123024A1370024A13707047D1
:1029E000794900247849002410B50020002400F023
:1029F00025FB054A034605491060054A4C601068EE
:102A00001360181A086010BD644900245849002456
:102A10006049002408B5FFF7E7FF0C4B0C4A18602B
:102A20000C4B1B68B0FBF3F00B4B18600B4B1B6897
:102A3000434313600A4B1A6810440A4A18600A2379
:102A40001060B0FBF3F0084B186008BD7449002417
:102A500070490024100000246C4900241400002454
:102A60004C490024484900245449002408B5FFF784
:102A7000D1FF044B044A1B6812685343034A136096
:102A800008BD00BF684900240C000024444900240C
:102A9000054B1B78012B01D1FFF7BCBF022B01D1E5
:102AA000FFF7E4BF704700BF78490024024B1A6863
:102AB000024B1A80704700BF4C4900245249002441
:102AC000024B1A68024B1A80704700BF4C49002421
:102AD0005049002408B500F0E3FEC0B2022803D13B
:102AE000054B00221A6008BDFFF7D2FFFFF7DEFF9B
:102AF000BDE80840FFF7E4BF68490024114B4FF4DC
:102B00007A721A604FF461620F4B1A6064220F4BA5
:102B10001A6001220E4B1A6005220E4B1A603C22ED
:102B20000D4B1A70C8220D4B1A6032220C4B1A70D2
:102B300010220C4B1A7028220B4B1A707D220B4B63
:102B40001A607047CC490024C8490024C4490024B5
:102B5000C0490024BC490024B8490024B4490024D9
:102B6000A9490024A8490024B0490024AC49002404
:102B70000023034A1370034A1370FFF7BFBF00BF5F
:102B8000D1490024D049002410B50020002400F0D1
:102B900055FA054A034605491060054A4C6010681D
:102BA0001360181A086010BD9C490024A049002435
:102BB0009849002408B5FFF7E7FF0F4B0F4A18604C
:102BC0000F4B10491B680968B0FBF3F313600E4A02
:102BD000126853430D4A13600D4A126853430D4A5D
:102BE00013600D4A12684A430C49B3FBF2F30A60C2
:102BF0000B4A136008BD00BF8C4900249049002493
:102C0000C0490024C8490024C44900249449002430
:102C1000CC49002488490024BC490024844900246C
:102C20008049002408B5FFF7C5FF064B064A1B780C
:102C300012685343054A1278B3FBF2F3044A136057
:102C400008BD00BFA849002480490024A9490024E8
:102C50007C490024034B1B780BB9FFF7ABBFFFF790
:102C6000E1BF00BFD049002408B500F019FEC0B292
:102C7000022805D10023044A1360044A136008BDEA
:102C8000BDE80840FFF7E6BF804900247C490024E6
:102C900010B5044698B90B4B4FF480610A481A6886
:102CA000936943F001039361012206F0BDFA0748DE
:102CB00001224FF4004106F0B7FA204610BD6FF034
:102CC0000100FBE708450024000C025800180258D8
:102CD00010B5044698B90B4B4FF480611A6893699C
:102CE00023F0010393610246074806F09DFA074866
:102CF00022464FF4004106F097FA204610BD6FF0CF
:102D00000100FBE708450024000C02580018025897
:102D100008B50020FFF7DCFF4FF47A7004F05AFB8F
:102D20000020FFF7B5FF4FF47A70BDE8084004F0CB
:102D300051BB0000064B1A68537843F040035370B0
:102D40000122044B1A700022034B1A60704700BF27
:102D5000D4490024D2490024F049002410B50120B0
:102D6000002400F06BF90A4B0A4A186013680A49FC
:102D7000C31A10604C600B6008490B6008498B4215
:102D800036BF3C214FF0FF334B4306490B6010BD6B
:102D9000E8490024EC490024E0490024D8490024F3
:102DA00044444404F049002408B500F079FDC0B261
:102DB000022803D1034B00221A6008BDBDE8084079
:102DC000FFF7CCBFF0490024454B2DE9F74F93F8AE
:102DD00000C00025434B0120AB462F46B3F80080CE
:102DE000414B1988414B1A78414BB3F800E02B4610
:102DF0001C46B0B90CB13C48018015B13C49A1F862
:102E000000E0BBF1000F02D0354981F800C00FB1DE
:102E100036490A7013B1374B324A1A6003B0BDE825
:102E2000F08FFF2A14BF13466346022B019318D874
:102E3000581CC0B2C3005FFA80F91E462E4B33F80F
:102E400030A0C2450DD8B9F1030F2ED02B4B33F86B
:102E500006A0C24526D801305FFA80F9B9F1040F07
:102E6000E8D1019B013BDBB2022B06D8224800EBE4
:102E7000C300B0F80290C14522D2FF2A4FF00103EF
:102E8000B8D071454FF0000035BFC9189B461346B6
:102E9000FF2339BF624689B200215F4694461A4635
:102EA0000123A5E7B9F1040FDBD0134B4A4603EB2E
:102EB000C903B3F804E00124002125462746DCE7D6
:102EC0003BB130F8069CC14503D3013B0838DBB267
:102ED000CFE7094A02EBC302B2F806E01A46EAE776
:102EE000004A0024D0470024F4490024F849002473
:102EF000F6490024FC4900246E0D0308760D0308F2
:102F000010B9024B18787047FF207047004A002420
:102F1000F0B51348134D01882B88134C994207D103
:102F2000002323800022114B1860114B1A70F0BD52
:102F3000104E22883788974202D0531C9BB2F0E78C
:102F40009942728806D85E1AB24201DC9B1A99B285
:102F50002980E5E7CE1A9642FADB1A4491B2F7E7E8
:102F6000384900240A4A0024084A0024044A00245C
:102F7000014A00240C4A002410B9024B18887047FB
:102F8000002070470A4A0024014B1880598070477E
:102F90000C4A002438B54FF48071144806F03EF90D
:102FA00020210546124806F039F90821440011484D
:102FB00006F034F9104944EA8504104D0C2264B23D
:102FC0002B782043C8540133FF20DBB22B70013A29
:102FD00011F8014B12F0FF0200EA0400F7D1084992
:102FE0000B2B087088BF2A7038BD00BF0014025830
:102FF0000018025800100258124A0024114A0024F6
:10300000104A0024014B1878704700BF104A002472
:1030100008494FF6FF7231F81030934203F1010373
:1030200010B508BF044C21F8103002BF225C0132F9
:10303000225410BD264A0024244A00240128064AAE
:1030400008D8064B06491B5C31F81010C3EB03434C
:103050000B44136010687047204A0024244A00245F
:10306000264A00240368064A934202D10020FFF753
:10307000CFBF044A934201D10120F8E7704700BF57
:10308000000001400008004008B50C2104480AF087
:10309000DDF918B1BDE80840FEF756BB08BD00BF1A
:1030A000E043002408B50C2104480AF025F918B1C2
:1030B000BDE80840FEF748BB08BD00BFE043002460
:1030C0002DE9F84302260025DFF8E0803446334F2F
:1030D000013CE4B258F8243003B11D78012D31D100
:1030E0002F4A52F82430591C10D001332D4942F890
:1030F0002430062262438818B0F804C063450DD11D
:10310000294B53F824300BB1042098473D55012436
:10311000A64201D1BDE8F8832646D9E7408883421C
:1031200006D1214B53F82430002BEFD00220ECE7DE
:103130008A5A9342EAD11C4B53F82430002BE5D035
:103140000020E2E7002DE1D13B5DDFF85490012B38
:1031500011D11448062259F8243002FB0402518888
:103160008B420CD39288934209D20F4B53F82430F0
:103170000BB103209847002349F82430C6E7062204
:103180006243825A9342F6D38B42F4D2064B53F8F1
:103190002430002BEFD00120ECE700BF344A00249C
:1031A0002C4A0024980D0308900D0308A40D030871
:1031B000014B1870704700BF19000024014B1870B4
:1031C000704700BF1800002410B50A4C00F08AFBBD
:1031D000207000F08FFB084B084A1870B0FA80F09E
:1031E00023784009B3FA83F35B091370044B18701A
:1031F00010BD00BF484A0024474A0024464A002424
:10320000454A0024034B1B78012B06BF024B18785C
:10321000FF207047444A002419000024034B1B7808
:10322000012B06BF024B1878FF207047444A002448
:103230001800002408B5FFF7E5FF0246FFF7EEFF90
:10324000012A07D111482CF05BFA0220FFF742F95E
:10325000002008BD022A04D10D482CF051FA0120AB
:10326000F4E7012804D10B482CF04AFA0520EDE7D9
:10327000032804D108482CF0DBF90420E6E70228F3
:10328000E6D106482CF0D4F90320DFE7AC0D0308A3
:10329000C40D0308DB0D0308F40D0308130E030827
:1032A0002DE9F0414F4E504C32782378012A4F4D92
:1032B0001DD1012B0CD1FF234D48337023702CF00E
:1032C0001FFA32782B78022A47D1012B45D109E029
:1032D0002B7823B9FFF7AAF946482CF011FA2B787E
:1032E000012B01D1FFF7A6FFFF23337035E0012B3F
:1032F0001BD12B788BB9FFF7CDF9032804D13E48B9
:103300002CF0FEF9FF232370FFF7C4F9042804D141
:10331000FF233A4823702CF0F3F92B78012BD0D1FE
:10332000FFF788FFFF232370CBE7022A20D1022B6F
:103330001ED10020FFF7CEF82B78002BC1D1FFF76C
:1033400079FF2F482CF0DCF901232B7004F03CF8B6
:103350002C4B1860FF233370237022782B78022ABD
:1033600027D1012B3CD1FFF765FFFF23237022E01B
:103370002B78012BA5D1244B1F78244B1B781F439E
:103380009FD104F021F8224BDFF88C8018601D4B90
:103390001B68C01A43F697239842C8F8000090D9DA
:1033A0001C482CF0ADF9FFF77BF82F70C8F80070BF
:1033B00087E7032AD5D02B78012B11D133780BB1B5
:1033C00023786BB9144B00221A6003F0FDFF104BF9
:1033D000186003F0F9FF0B4B1860FF233370237064
:1033E000BDE8F0811900002418000024444A00249C
:1033F0002F0E0308B20D0308600E0308820E0308A7
:10340000A40E03083C4A0024464A0024454A0024EE
:10341000384A0024D40E0308404A002438B500245A
:10342000044DE3B2013455F8233003B938BD984751
:10343000F7E700BF2C0F030838B50024044DE3B2B2
:10344000013455F8233003B938BD9847F7E700BF7A
:10345000240F030838B50024044DE3B2013455F8B5
:10346000233003B938BD9847F7E700BF1C0F0308A6
:1034700038B50024044DE3B2013455F8233003B9C4
:1034800038BD9847F7E700BF140F030838B500248C
:10349000044DE3B2013455F8233003B938BD9847E1
:1034A000F7E700BF0C0F030838B50024044DE3B262
:1034B000013455F8233003B938BD9847F7E700BF0A
:1034C000040F030838B50024044DE3B2013455F865
:1034D000233003B938BD9847F7E700BFFC0E030857
:1034E00008B50020FFF70CFD431E5842584108BDA7
:1034F00008B50020FFF704FD831E5842584108BD5F
:1035000008B50020FFF7FCFCC31E5842584108BD17
:1035100008B50020FFF7F4FCB0FA80F0400908BDC0
:1035200038B500200024074DFFF7EAFC01460648A5
:103530002CF07EF8E3B2013455F8233003B938BDDE
:103540009847F7E7340F0308EF0E030870477047FA
:1035500070477047704770477047704738B5002410
:10356000044DE3B2013455F8233003B938BD984710
:10357000F7E700BFD80F030838B50024044DE3B2C5
:10358000013455F8233003B938BD9847F7E700BF39
:10359000D00F030838B50024044DE3B2013455F8C8
:1035A000233003B938BD9847F7E700BFC80F0308B9
:1035B00038B50024044DE3B2013455F8233003B983
:1035C00038BD9847F7E700BFC00F030838B500249F
:1035D000044DE3B2013455F8233003B938BD9847A0
:1035E000F7E700BFB80F030838B50024044DE3B275
:1035F000013455F8233003B938BD9847F7E700BFC9
:10360000B00F030838B50024044DE3B2013455F877
:10361000233003B938BD9847F7E700BFA80F030868
:1036200008B500F03DF9431E5842584108BD00005E
:1036300008B500F035F9022805D1044B1888031F9E
:103640005842584108BD0020FCE700BF1A00002482
:1036500008B500F025F9022806D1044B1888A0F11E
:1036600008035842584108BD0020FCE71A00002416
:1036700008B500F015F9022806D1044B1888A0F10E
:1036800010035842584108BD0020FCE71A000024EE
:10369000014B1888704700BF1A000024102802D17F
:1036A000034B188003E00828FAD00428F8D07047AC
:1036B0001A00002470470000042008B5FFF7EEFF51
:1036C0000248BDE808402CF01BB800BF40100308BA
:1036D00008B50D4809F046FA002249F640410A486B
:1036E00009F0E4F908B1FEF72FF8FEF72BFD07F01B
:1036F000C3F9064806F078FA0121084607F096F962
:10370000014809F02FFAFEE72C4400240845002464
:1037100008B5FFF7BDFF0428094A08D1138841F610
:10372000641101339BB28B4203D0138008BD002388
:10373000FBE7002310201380BDE80840FFF7AEBF71
:103740004A4A0024704770470820FFF7A7BF0000CF
:1037500008B5134BD3F8D020D1001BD4D3F8D02018
:10376000520117D40F4A526AD00705D50E480821D6
:1037700005F05FFD062008BDD3F8D02091020BD4E0
:10378000D3F8D020520209D4D3F8D000C0F3C050EF
:103790008000F0E70320EEE70120ECE70520EAE7F0
:1037A00000440258004802580008025810B5FFF7BC
:1037B000CFFF044606281BD8DFE800F004121A10D9
:1037C000141618000B482BF09BFF0B4A2046D2F82A
:1037D000D03043F48033C2F8D03010BD0748F2E750
:1037E0000748F0E70748EEE70748ECE70748EAE74D
:1037F0000748E8E755100308004402586A10030818
:1038000082100308A1100308D3100308EC1003086A
:103810000F11030838B50024044DE3B2013455F804
:10382000233003B938BD9847F7E700BF3C110308C0
:1038300038B50024044DE3B2013455F8233003B900
:1038400038BD9847F7E700BF3411030838B50024A6
:10385000044DE3B2013455F8233003B938BD98471D
:10386000F7E700BF2C11030838B50024044DE3B27C
:10387000013455F8233003B938BD9847F7E700BF46
:103880002411030808B5FFF7BDFB6FEA900000F0B4
:10389000010008BD08B5FFF7B5FBC0F3800008BD07
:1038A000002000F02FB8000008B503482BF028FFD7
:1038B000BDE80840FFF7F6BB8011030808B50348D0
:1038C0002BF01EFFBDE80840FFF7DEBBA411030884
:1038D0007047704708B5FFF795FB014B187008BD9E
:1038E0004C4A0024024B187800F00100704700BFDA
:1038F0004C4A0024024B1878C0F34000704700BFC8
:103900004C4A0024014B33F8100070474E4A002403
:10391000034B01221A8002225A8004229A807047A7
:103920004E4A00242DE9F84F184E0025DFF860803C
:103930004FF00C0958F8357036F802BB0FB34FF052
:10394000000A05E0A368E3B198471AE00AF1010A0A
:103950005FFA8AF309FB03F3FC18FB5A8BB113EAF5
:103960000B0FF3D063885B45ECD06368002BEDD080
:1039700098470028EAD0A36803B19847638826F8DF
:10398000023C0135032DD5D1BDE8F88F4E4A002405
:10399000D011030870470000DFF834D003F084FC36
:1039A000002103E00B4B5B58435004310A480B4B9A
:1039B00042189A42F6D30A4A02E0002342F8043B36
:1039C000084B9A42F9D32CF0ABF8FDF75FF970473A
:1039D00000000524B45F030800000024280100242F
:1039E0002801002438AF0124FEE7704708B501F034
:1039F000F7F8BDE8084001F07BB801F0F3B8406883
:103A000070474160704700004FF0E022D2F8FC3D63
:103A100043F08073C2F8FC3D054B064AD3F8B01F53
:103A20000A43C3F8B02F1A6842F001021A607047C7
:103A3000001000E055CEACC5521A02EB5302B2FBA7
:103A4000F3F07047014B5868704700BF001000E06A
:103A5000704710B504460C212BF0AFF8204610BD7E
:103A6000036810B51B69044631B19847A2686368C2
:103A70009B1A0344636010BD9847A060FBE7704742
:103A80001FB5082300206946CDE90230054B1B888D
:103A90000093054B1B88019303F024FB05B05DF8F0
:103AA00004FB00BF1AA301241CA3012410B5044683
:103AB00004212BF082F8204610BD30B585B00020DF
:103AC0000D46144601A90390CDE9010003F08CFBDB
:103AD00040B14FF0500383F31188BFF36F8FBFF3F2
:103AE0004F8FFEE7019820B1029B01202B60039BC2
:103AF000236005B030BD0000032825D8DFE800F0C2
:103B0000020B131C114B012111481A68B2FA82F200
:103B1000520905F089BB0D4B08210E485A68B2FACC
:103B200082F25209F5E7094B4FF480419A68B2FAE4
:103B300082F252090848ECE7044B4FF40041DA687E
:103B4000B2FA82F25209F5E7704700BF544A0024E6
:103B5000000002580018025800040258032825D813
:103B6000DFE800F0020B131C114B012111481A6809
:103B7000003A18BF012205F057BB0D4B08210E4833
:103B80005A68003A18BF0122F5E7094B4FF480410B
:103B90009A68003A18BF01220848ECE7044B4FF43A
:103BA0000041DA68003A18BF0122F5E7704700BF0C
:103BB000544A002400000258001802580004025819
:103BC000032811D8DFE800F00206090D012107489B
:103BD00005F02FBB08210648FAE74FF4804105485D
:103BE000F6E74FF40041FAE7704700BF00000258C3
:103BF000001802580004025808B5032815D8DFE859
:103C000000F0020A0D110121094805F007FB431ECF
:103C10005842584108BD08210648F6E74FF4804154
:103C20000548F2E74FF40041FAE70020EFE700BF54
:103C300000000258001802580004025870B5084DE0
:103C400000240126E0B2FFF7D7FF18B12B68012B43
:103C500018BF2E6001340435052CF3D170BD00BFB0
:103C6000544A0024012380F8781080F87930704796
:103C70000020704741640039024B18BF01211970C0
:103C8000704700BF1FA3012400207047836B0BB156
:103C90000846184770474FF6FF7070474068036842
:103CA0009B6918477047000038B5044601F0C6F814
:103CB0000749236804F17C052046D3F88C309847E7
:103CC0002846FFF7A1FE0123256184F8703038BD36
:103CD0000000007008B503680446D3F880309847A8
:103CE000236820469B6F984700F02CF923682046F4
:103CF0001B6F984701224FF48061084805F094FA41
:103D000001224FF40041064805F08EFA00F01AF93E
:103D1000236820461B6F9847F8E700BF000C025845
:103D20000018025810B504461AF0BAFA2368204663
:103D3000D3F8AC30BDE81040184701F04BB801F0A3
:103D40004FB8000070B501F0A3F810490023C1F886
:103D50008430BFF34F8FD1F8803043F6E074C3F363
:103D6000C900C3F34E335B0103EA0406024646EA88
:103D70008275013AC1F87452F9D2203B13F1200F39
:103D8000F2D1BFF34F8FBFF36F8F70BD00ED00E036
:103D900000F0FCBF01F0E6B901F0EEB901F000B8A7
:103DA00019F0EABC10B5044688212AF006FF204627
:103DB00010BD000090F834100D4B10B590F878400D
:103DC0001A788C4209D03AB90A490B4A08881488F3
:103DD000108001220C801A7010BD002AFCD0064A07
:103DE0000449148808880C8010800022F3E700BF83
:103DF00018A3012416A3012414A3012470B50D46B1
:103E0000194635B9094B40F2D221094A09482BF02D
:103E10004BFAC0E90F52003A074B18BF01221A7043
:103E20000368BDE87040D3F88C30184724120308AB
:103E30005C120308AA1203081EA3012408B5094B4B
:103E40001B888B4203D8084B1B88934205D9074B2C
:103E50009E21074A07482BF027FA074B1980074B8A
:103E60001A8008BD14A3012416A30124EF1203082D
:103E700052130308AA1203081AA301241CA3012445
:103E8000034690F87A0018B1586803681B68184711
:103E900070470000014608B5034B186801B10121C5
:103EA0001AF018FA012008BD20A3012401210022E4
:103EB00008B508460AF046F80A4B186028B90A4BBC
:103EC00028210A4A0A482BF0EFF900220421012098
:103ED0000AF0D7F8074B186018B9074B2C21034A92
:103EE000F0E708BD684A002470140308B9140308F9
:103EF000E8140308644A00244B150308024B4FF0F2
:103F0000FF3118680AF068B8684A0024014B186845
:103F10000AF08EB8684A0024024B002118680AF0A3
:103F20005BB800BF684A0024FFF7F0BF00230348D6
:103F300003491A4600680AF0DFB800BF644A00244B
:103F40001C00002413B50023074C01A91A46206861
:103F50000AF003F94FF0FF33002201A920680AF0AC
:103F6000FCF802B010BD00BF644A002403685B6C1B
:103F700018470120704703689B6A184740F2EF30EA
:103F800070470000054B4FF080620360044BC3F89C
:103F90008820BFF34F8FBFF36F8F70470017030860
:103FA00000E100E010B504464FF45A61FFF7EAFF64
:103FB00020462AF002FE204610BD00000F4B82B0C2
:103FC000D3F8D42042F01002C3F8D420D3F8D42080
:103FD00002F010020192019ADA6F42F01002DA67E1
:103FE000DA6F22F01002DA67054B064A1A62064BB6
:103FF0004FF080629A6002B0704700BF00440258E0
:10400000604600245142000800E100E008B50A289B
:1040100009D8DFE800F006100E0808080810101094
:104020001000022008BD054B8621054A05482BF0EB
:104030003BF90020F6E70120F4E700BF8D150308E7
:10404000A8150308F315030838B50C46887FFFF759
:10405000DDFF124BA58AE28A586342EA05422169D4
:104060005A64628BD963521B1A642568082D0ED1DD
:104070009A611A6158620A4A207F42EA0062DA6154
:10408000E2681A62074A5961D9601A6038BD002295
:10409000D8611A61E2689A63034AF6E70010005299
:1040A00009000100010202000102030008B50B280B
:1040B0000BD8DFE800F00612100A0A0A0A080808FE
:1040C0000808022008BD0520FCE7054B6521054ACC
:1040D00005482BF0E9F80020F4E70120F2E700BFE3
:1040E0008D15030854160308F31503082DE9F8434A
:1040F0004F7F89463846FFF7D9FF99F81E50804612
:104100002846FFF7D3FF06462846FFF77FFFB9F89A
:104110001410B9F81A40B9F81820454B641A521A0D
:104120001C649C611A61B9F81620586342EA014286
:10413000D9F810105A64D9F80420D963DA60D9F894
:10414000004099F81C20802C22D00FD8202C66D05B
:10415000402C64D0042C5CD048EA0260344BAF425F
:1041600040F40030D86160D0324A3FE0B4F5807F3F
:1041700004D0B4F5007FEFD12F4800E02F4840EA8B
:104180000262DA61D9F80C201A625E6259612CE091
:1041900048EA0260D9F8084040F40030D8615E6215
:1041A0005961211DD962217841B1012921D0244BC7
:1041B0004FF48071234A24482BF076F8DA6961883D
:1041C00022F47F42013922F0100242EA0122DA6130
:1041D0000122174BD96941F02001D961D9698906BB
:1041E000FCD410219960002ABED0184A1A60BDE89C
:1041F000F883D969FF3A608821F47F4118BF012212
:10420000013821F0100141EA002141F01001D9618B
:10421000DFE748EA026242F40032DA61B5E748EAD1
:104220000262034B42F40032F7E740F20122DDE77D
:104230000010005201020100090002000A00020001
:104240009E160308B8160308F315030801020200BE
:10425000024B1B68586803685B69184720A3012458
:1042600070B504460A4B0C3000262546602260607B
:104270002672667245F8203B29461AF081F904F54A
:104280005A63EE6024359D42FBD1204670BD00BFCD
:1042900000170308034B1A68D207FCD423229A6044
:1042A000704700BF0010005230B5104C2568ED0774
:1042B000FCD423250904FF2BA5604FF0010541EA3A
:1042C000050165636164E0630CD0094922F07F4217
:1042D000656241EA0363E361064B22626061E0606C
:1042E000236030BDE561044BA263F9E70010005282
:1042F000090001000100020001000300406970474D
:1043000090F844007047036B23B9C06A003818BFA7
:10431000012070470120704780687047043010B555
:104320000C460FC884E80F0010BD704708B5034A5B
:1043300040F21221024B03482AF0B6FF4817030847
:10434000E7310308A317030810B5044648212AF0F3
:1043500034FC204610BD2DE9F0411E46ADF51E7D12
:10436000436B07460C469046A69D93B3002203A8D4
:10437000CDE9013211F04CFF4FF4F472502124903A
:1043800024A80BF012FF4246214624A80CF066FE3A
:10439000012124A80CF004F8022324A88DF8D830B9
:1043A0000CF09FF8419BBDF89482BDF8902298458F
:1043B00028BF98462B9B9A4228BF1A4602EB42041C
:1043C000479B984509D824A80CF00CF824A80BF0BA
:1043D00039FF0DF51E7DBDE8F081012201A924A859
:1043E0000CF0C8F830462246796B2E442BF0BFFB08
:1043F000E6E700000A4A02600022C0E90522C0E99F
:104400000722C0E90922C0E90B22C0E90D12C0E968
:104410000F2280F84420C0E90322C0E9012270473E
:10442000981A030810B40C4611461A46036B3BB1A8
:10443000036C806BE41A20445DF8044B2BF068BADF
:10444000C06AF8E7036B10B573B1036C826BC91ACD
:104450005318525C98785C780004DB7840EA0420BA
:10446000104340EA036010BDC36A5858FBE7036B72
:1044700043B1036CC91A836B5A18585C527840EAEE
:1044800002207047C36A585A7047000070B504464E
:10449000006B0D461646D8B1E36B934208D2092350
:1044A0000D4A65210D4884F844300D4B2AF0FCFE7E
:1044B0000368DB689847206B3246A16B03681B6971
:1044C000984710B90D2384F84430A06B256470BD63
:1044D000E06A0844FBE700BF23180308A31703089A
:1044E000101803082DE9F843436904462BB9234B00
:1044F000AA21234A23482AF0D7FE08228169FFF720
:10450000C5FFA16943F2300646F264370431204604
:10451000FFF798FFA3691844A36A00F108029A42C2
:1045200006D3012300206361236AA361BDE8F883F9
:10453000636909300822013320F0010120466361DC
:10454000A161FFF7A3FFD4F8189020464946FFF772
:104550008EFF09F1020180462046FFF788FF09F12E
:10456000040105462046FFF76DFFB045D2D1BD429C
:10457000D0D10028CED00120D8E700BF65180308AD
:10458000AE180308A31703082DE9F04F0546ADF553
:104590001F7D8B469046816908221F46FFF776FFF4
:1045A000AE692846311DFFF74DFF06F108010246AE
:1045B00004462846FFF76AFF6B6B064633B9344B57
:1045C00040F2AB11334A34482AF06EFE002203A8B1
:1045D000CDE9013211F01CFE4FF4F4725021249009
:1045E00024A80BF0E2FD2246314624A80CF036FD4B
:1045F000012124A80BF0D4FE022324A88DF8D83082
:104600000BF06FFFBBF902A0479B53452DD3BBF8BE
:10461000063007EB4707BBF80260BBF900401E44B9
:10462000BBF80420419B04EB440936B2224407FB4B
:104630000A9A9E4212B2D04428BF1E462B9B9A4231
:1046400094BFC4EB0204C4EB030404EB4404479B93
:10465000B34210D324A80BF0C5FE24A80BF0F2FD42
:1046600001200DF51F7DBDE8F08F012201A924A8CE
:104670000BF080FFC8E7012201A924A80BF07AFF04
:10468000696B404622464944B8442BF070FADEE795
:10469000E118030837190308A31703080129036861
:1046A00038BF0121DB6A70B50D4604469847A84221
:1046B00004D223682046DB6A984705466B1EE669EC
:1046C0001022204606EB031606F10801FFF7DEFE76
:1046D00006F110012046FFF7B5FE236A043B0344B0
:1046E000C4E9055370BD0000002148222DE9F041C6
:1046F0000446816180F84410FFF7C8FEA6690423D0
:10470000624A31462046FFF78DFE40B10323604ADE
:10471000F22184F844305F4B5F482AF0C5FD06F172
:10472000080104235D4A2046A161FFF77BFE30B1FA
:104730000423574AFA2184F84430594BECE706F138
:104740000C010423574A2046A161FFF76BFE074680
:1047500038B105234E4A40F2011184F84430524BDF
:10476000DAE706F110012046FFF76CFE054620B996
:104770004E4B40F20711464ACEE706F114080423D7
:104780004B4A20464146FFF74DFE002849D00623FC
:1047900084F844300423474A06F118012046FFF705
:1047A00041FE00283FD0072384F844304544424F5F
:1047B0000C2220462946FFF769FE05F1080604236E
:1047C0003A4620463146FFF72DFE94F84430002843
:1047D00048D0002B48D1A36AAB4249D805F10C035D
:1047E00004352046A3612946FFF72CFE30442946B4
:1047F00060622046FFF726FE06440422204631462A
:10480000FFF744FE04232D4A31462046FFF70AFEF7
:10481000002838D10123E6616361A3692362BDE802
:10482000F0810127B6E7002FC0D006F12001204615
:10483000FFF708FE4FF47A7306F13001B0FBF3F096
:1048400060602046FFF7FEFD06F14001A0602046B3
:10485000FFF7F8FD06F14401E0602046FFF7F2FDA6
:104860002061A3E7002BB9D00A2384F84430D6E7AF
:10487000291D2046FFF7E6FD85190C222046294612
:10488000FFF704FE99E70B23EFE700BF9119030838
:10489000AF19030896190308A3170308DC190308C6
:1048A000E1190308F9190308FE190308141A03088B
:1048B000201A0308251A03082A1A03082F1A0308C6
:1048C000C0E90A2100220263FFF70EBF10B50023E2
:1048D00004460846E3620B6821639B689847A06220
:1048E0002046BDE81040FFF7FFBEF0B4069FBDF8BC
:1048F0001050BDF8146032B12BB10495CDE90567B5
:10490000F0BCFFF728BDF0BC704700002DE9F04F68
:104910009946436985B004460F4690462BB9294B0A
:104920007721294A29482AF0BFFC08228169FFF72C
:10493000ADFDA66920463146FFF799FDB11C8346BF
:104940002046FFF794FD311D82462046FFF77AFD91
:1049500006F10801A36A054642189A4226D243F29C
:1049600030039B4517D146F264339A4513D190B179
:104970000246A1612046FFF789FD0E9B01462A46AB
:104980002046CDF80080CDE901933B46FFF7ADFF0F
:10499000636901336361A3692B4405B908330133AB
:1049A000626A23F001039342A36109D1012301202C
:1049B0006361236AA36180F0010005B0BDE8F08F58
:1049C0000020F8E765180308341A0308A317030842
:1049D000012070470C2070470C2303FB01000830B6
:1049E00070470C2303FB010008307047012070471B
:1049F000C4207047C42303FB010008307047C42360
:104A000003FB0100083070470120704710207047F9
:104A100000EB01100830704700EB011008307047C0
:104A2000084600F0DBBE0000034B10B504460360EF
:104A300018F0F8FB204610BD401B030810B50446D3
:104A4000FFF7F2FF142120462AF0B7F8204610BDE8
:104A5000034B10B50446036018F0E4FB204610BD7C
:104A60000C1B030810B50446FFF7F2FFCC212046CB
:104A70002AF0A3F8204610BD034B10B5044603608E
:104A800018F0D0FB204610BDD81A030810B5044614
:104A9000FFF7F2FF182120462AF08FF8204610BDBC
:104AA000084B10B5044640F8F83BFFF7BDFF04F192
:104AB0002C00FFF7CDFF04F11400FFF7DDFF2046C7
:104AC00010BD00BF741B030808B50248FFF7E8FFDC
:104AD00008BD00BF2459002410B50446FFF7E0FFCD
:104AE0004FF41C7120462AF068F8204610BD0000E3
:104AF0002DE9F34100F0FAFC0024054600F0FAFC31
:104B00002346014622462846009420F099F8274B78
:104B1000274A2046274D1A6001F090F8264B274A75
:104B200027489A601FF044FF2B68BFF35B8FDB07B9
:104B300035D428462AF043F888B3224C224B04F59A
:104B40008A7604F1140004F12C0804F1F8072360BC
:104B50006060C4F80880E760266118F065FB1B4BB5
:104B60004046636118F060FB194B3846E36218F069
:104B70005BFB184B04F58670C4F8F83001F0D4F8EC
:104B8000224604F58671304601F0C4F8304600F044
:104B900025FE11482AF0A6FB28462AF01CF80F48EB
:104BA00002B0BDE8F041FFF77FB800BF84A3012445
:104BB000F44A002420590024144B0024F84A00240D
:104BC0002000002424590024741B0308D81A030869
:104BD0000C1B0308401B0308C94A00086C4A002448
:104BE000704700000148FFF775B800BF6C4A002409
:104BF00070B5274E274B284C3046284D2360FFF7D1
:104C00002FFB284623F0CAF825481EF007F9254B4C
:104C100000224FF4807124481A8683F858205A667F
:104C200083F87020DC60C3E912122049C3E91A122C
:104C30001F490B604FF4F07101801E4801804FF452
:104C400088711D4801801D4801801D49C3E9042267
:104C5000C3E90622C3E90822C3E90A22C3E90E22F6
:104C6000C3E91022C3E91422C3E91722C3E901658D
:104C70000A701449C3F8802083F8342019605A67F9
:104C80001149C3F88420114A9967DA6770BD00BFE3
:104C90007C4B0024141203081C590024144B0024DC
:104CA000F84A00246C4A002414A3012401000001E6
:104CB00020A301241AA3012416A301241CA3012468
:104CC00018A30124A013030800000101EC1103083C
:104CD0000148FFF757B900BF7C4B00240020704704
:104CE00081807047C1807047018170474181704762
:104CF0007047704770477047704710B4C4880368A6
:104D0000121B84885B6D091B12B25DF8044B09B25B
:104D100018474FF6FF7383814FF0FF330362136828
:104D2000C36110607047002070478B88838001202A
:104D30007047704780F82610704790F8260070473B
:104D4000002210B5B1F90840B1F90A100280428082
:104D50008480C18010BD0022028042808280C28097
:104D600070470177704780ED080A704780F824107B
:104D7000704780F8251070470120704798307047C1
:104D80008C3070478430704770470000034B90228E
:104D900083F85A2383F85823704700BF00E100E0EE
:104DA000094A0A49D3680A48C3F30A03013B9BB284
:104DB0000B801169C1F30A01013901801364536B3F
:104DC00043F001035363704700100050965B0024CA
:104DD000945B0024014BD3F8AC00704700100050E6
:104DE000024B0122C3F8AC105A6270470010005009
:104DF0000163C0E90D21704770477047704700EBB1
:104E00008100114640680368DB68184780F83C1051
:104E1000704710B50446482129F0CFFE204610BD4A
:104E200010B504462C2129F0C8FE204610BD10B54F
:104E30000446BC2129F0C1FE204610BD38B5044609
:104E400018F0EFFC23685D6E1CF0BAFE01462046A8
:104E5000A8472368074A2046D3F88850002306490C
:104E6000A847064B064A5A60064A1A639A63064ADE
:104E70005A6338BD00F40B7000FA0570585C0024CA
:104E8000A05C002400EE117000FA050018F0B0BC20
:104E900018F078BC18F0D9BD38B504460D46406C02
:104EA0004FF0FF3109F00CF8606C09F02CF8242366
:104EB00003FB0545002385F8283094F828300BB90A
:104EC000236BA36338BD90F8252012B103685B699A
:104ED00018477047124A5369DB0370B51ED500238B
:104EE000C2F88430BFF34F8FD2F8803043F6E074BD
:104EF000C3F3C900C3F34E335B0103EA0406014662
:104F000046EA81750139C2F87452F9D2203B13F197
:104F1000200FF2D1BFF34F8FBFF36F8F70BD00BF73
:104F200000ED00E008B531B1044B4FF4B871044A0C
:104F300004482AF0B9F990F8290008BD801B03083D
:104F4000941B03081E1D030810B531B1064B4FF426
:104F5000B571064A06482AF0A7F940681146036869
:104F6000BDE810401B6B1847801B0308611D030838
:104F70001E1D030808B529B1034B7921034A0448D3
:104F80002AF092F9C06808BD801B03080F1F0308B0
:104F90001E1D030810B5044629B1194BA221194A58
:104FA00019482AF081F9052A15D8DFE802F0031123
:104FB00015171C22406803681B69984758B10123E4
:104FC00084F8293084F82C300023C4E9043302E04B
:104FD000002380F8293010BD0362F5E70362012346
:104FE00080F82A30F0E7002380F82930012303629B
:104FF000F1E7003B18BF012380F82D30EBE700BF3D
:10500000801B0308C42003081E1D030810B50C46AE
:1050100011461A462CB1064B9021064A06482AF042
:1050200043F9C46040680368BDE810409B681847B6
:10503000801B0308982203081E1D030808B529B128
:10504000054B8221054A06482AF02EF9C0E90411D1
:10505000C0E9063208BD00BF801B030873240308A3
:105060001E1D030890F83D3010B5044653B14FF0B3
:10507000FF31406C08F024FF002384F83D30012309
:1050800084F83E3010BD90F825201AB190F8242005
:1050900002B118607047000010B50446104629B1EF
:1050A000134BD021134A14482AF0FEF894F8293003
:1050B00033B1124B1B6893F86B206369134463612F
:1050C00094F82B300BB9012010BDA368036303686B
:1050D0005B699847002394F82C0084F82B30002853
:1050E000F1D194F82D30002BEED184F82900EBE7B4
:1050F000801B03082F2603081E1D030820A301247C
:1051000010B5174C18F080FB94F8293013B994F8B7
:105110002A30ABB1E169D4E90532534322694A43ED
:1051200093420DD394F83C0038B19B1AB3FBF1F2D3
:10513000994298BF02F1FF326262012384F82E3057
:105140000123206C84F83D3008F072FF94F83E3063
:105150002BB1606C08F0D7FE002384F83E3010BD00
:10516000585C0024034B4FF080629A604FF08072CD
:105170009A60704700E100E0084B4FF08062C3F88E
:105180008820BFF34F8FBFF36F8F4FF08072C3F84B
:105190008820BFF34F8FBFF36F8F704700E100E0AF
:1051A000F8B5034690F82800D8B94FF480729E6B8A
:1051B0000125D8609A8506F5BF22186102F50072B4
:1051C00058619861D861186258629D6283F82E0018
:1051D000D3E90C473C44A2420AD90B4B52210B4A5B
:1051E00003E00B4B40F2C5110A4A0B482AF05CF869
:1051F0009E609A634FF4F07381F83450CB864FF47D
:10520000887308630B87F8BD87290308C229030840
:10521000D0270308002803081E1D0308002370B5CB
:10522000124E04468380124B0360336893F8582073
:105230000AB1D86C00B998680368DB6A9847431EC6
:105240005D425D413368D86C30B10368DB6A9847D2
:10525000012808BF45F001052DB9064B2721064A54
:1052600006482AF021F8204670BD00BF20A3012483
:10527000682C0308652B0308C32B0308FC2B0308C9
:1052800070B5244E3568BFF35B8F15F001053FD133
:10529000304629F094FC00283AD01F4C1F4B04F1F3
:1052A00034002561E584A562A585C4E90035C4E91B
:1052B00002551EF012F804F158001AF0E7FC184BE2
:1052C0002046A365174B40F8843BFFF7A7FF164B1A
:1052D0001648C4F884302433C4F89050C4F88C3095
:1052E0006423C4F89C50C4F8A850C4E928350023AE
:1052F000C4F8AC30C4F8B030C4F8B430C4F8B83036
:105300000B4BC4F8983029F0EDFF304629F063FCD0
:10531000014870BD985B00249C5B00245456030830
:10532000882C0308002D0308A0560308894D0008A7
:10533000D856030810B5144C236823B3134B144AF2
:105340001B6C11888B4213D1124B198804F00AFD93
:10535000226892F86A30013382F86A30FEF7E6FD7F
:10536000206818F09DFF0020BDE81040FEF7C4BB88
:1053700004F0F8FC206803681B6A98470020BDE829
:105380001040FEF7EBBB10BD20A30124001000501D
:10539000965B0024945B00242DE9F7430446012624
:1053A0004FF4B4674FF0FF31206C08F015FE4FF05A
:1053B000FF31606C08F084FD94F82E3043B36568CB
:1053C000D4F820802B6884F82B60B8F1000F23D02C
:1053D0005B6A414628469847002323622B684FF4B6
:1053E000F07200972846D3F814804FF48873A168B0
:1053F000C047236984F82C0001332361F0B12B6886
:1054000028469B6A984701380023E06084F82E30D4
:10541000606C08F078FDC5E7626A002ADED0284695
:10542000D3E909939847616A01442846C84723692C
:10543000626AC4F8248013442361CFE70120E3E7C4
:10544000014808B5FFF7A8FF585C002438B5154996
:1054500000251548FEF7CEFF144C154B2A46294669
:10546000012023604FF48073A563A387A38584F88C
:105470003E5084F82E50C4E90C55C4E91055C4E9D7
:105480000155C4E90355C4E90555C4E90755C4E904
:10549000095508F057FD2064284608F0DCFC6064DC
:1054A00038BD00BFE85C0024A05C0024585C0024E8
:1054B0004C2D0308704710B50446042129F07DFBEC
:1054C000204610BD012908B506D0022908D059B9D7
:1054D00000F0F2FB006808BD00F0EEFB4068FAE760
:1054E00000F0EAFB8068F6E70020F4E70048704728
:1054F0009C2D03080220704713B5002451B10368A6
:1055000001AA01948DF803409C680DF10303A047A4
:1055100002B010BD0846FBE7C0897047008A70479B
:10552000C088704780887047807A00F07F0070479D
:10553000807AC00970470020704700009FED010A83
:10554000704700BF000000007047704700F5987377
:105550000868496803C370477047704741607047E7
:1055600070470000064BC0F84801C0F84C310023DA
:10557000C0F8503100F5A273C0F84031704700BF49
:10558000255600080123037270477047704710B416
:1055900041680346C2689B68541001EB6200D20761
:1055A00048BF0A595DF8044B48BFD3581847034613
:1055B000406830B19A681AB9D86800F001007047A5
:1055C0000120704710B504460C2129F0F6FA204658
:1055D00010BD10B50446102129F0EFFA204610BD89
:1055E00010B504464FF4AE7129F0E7FA204610BD1D
:1055F00010B51CF0E5FA0368BDE81040DB6B1847F6
:1056000010B50446D0F8400158B10368DB689847EC
:1056100038B1D4F8400103689B6898470023C4F868
:10562000403110BD2DE9F14FD0E9556A0746B06809
:1056300003681B6A9847C32805D8444BA321444AF2
:10564000444829F031FE706803681B6A98470F28A8
:1056500003D8414BA4213E4AF2E7F06803681B6A75
:1056600098470B2803D83D4BA521394AE8E7DFF8D6
:10567000F4901CF0A5FA04301CF0C7FAD9F8000029
:1056800010B10368DB689847D9F8000010B10368CF
:105690001B689847DFF8D080D8F8000010B1036885
:1056A0005B699847D7F83C0110B103685B6898477D
:1056B000D8F8000010B103681B689847D7F83C0180
:1056C00010B103689B689847F06800214FF0000B09
:1056D00003685B6A9847224B0446C0F804B080F820
:1056E00008B059460360B06803685B6A984705468E
:1056F00000F068FB7068594603685B6A9847064685
:10570000294600F03FFB331DC7F83C612846C9F825
:105710000040C8F80050CAF800302B68C6F808A04E
:10572000DB68EE639847336830461B68984721462C
:1057300028461EF035FA236820461B6998472368DF
:1057400020465B6901B0BDE8F04F1847C42D03083F
:10575000522E0308242F03086B2F03080E30030872
:105760002831030868A3012464A30124044B1B68A7
:1057700093F858200AB1D86C00B99868704700BFF8
:1057800020A3012470B5044616460D461CF0DEFA2F
:105790000E4B00211C600E4B23600E4BC4E95131AF
:1057A0000D4B1868C4E953110368C4E94F119B6895
:1057B000C4E955659847FFF7D9FF23F0D6FBFFF7FB
:1057C000D5FF23F049FC204670BD00BF74A301241F
:1057D000D4300308BC30030820A30124064BC0F8D2
:1057E0004801C0F84C310023C0F8503100F5A273D5
:1057F000C0F84031704700BF25560008406A704726
:10580000806A704770478B88C069DB0A0A6850F865
:1058100023001044704710B50446BAB1107B68B13C
:10582000537BD27A1B0203F4E0631A43236A03EB2F
:1058300082031A888A4202D193F9020010BD05D86A
:105840000138043380B20028F3D1F7E70020F5E7F0
:1058500010B504462C2129F0B0F9204610BD0000F7
:1058600030B58BB00446BDF860500895BDF85C506B
:1058700007959DF8505006959DF84C5005959DF85C
:10588000485004959DF8445003959DF8405002956A
:105890009DF83C500195BDF8385000951DF0DAFD9B
:1058A000064B20462360159BE361169B2362199BE0
:1058B00063621A9BA3620BB030BD00BF4C3103087A
:1058C000704770477047704770477047704710B512
:1058D0000446C42129F071F9204610BD036870B553
:1058E00004461B6B154698472368204629465B6B88
:1058F000BDE8704018470000002310B5C0E901332F
:10590000C0E90333C0E90733C0E905334FF48073BE
:1059100004468384054B03600B88C384FF2380F80F
:1059200028301AF00EFA204610BD00BFD8570308E1
:105930002DE9F743044600251DF086FF314B26462E
:10594000E56304F16C0804F1980746F8403B4FF614
:10595000FF792D4B01A940462566A566ADF8049058
:10596000C4E910354FF48073A4F86430FF23C4E910
:10597000125584F86630C4E91455C4E91655FFF78A
:10598000BBFF01A93846ADF80490FFF7B5FF2A46E2
:1059900029463046FFF7A2FF30464FF4F07104F17C
:1059A0000409FFF7A1F930464FF48871FFF79EF91B
:1059B0004FF07F4331464846A36617F049FC2A461C
:1059C00029464046FFF78AFF012301A94046ADF86A
:1059D00004301AF0B6F94146484617F039FCF12276
:1059E00038463621FFF77AFF01A93846ADF8045052
:1059F0001AF0A7F94846394617F02AFC204603B0AA
:105A0000BDE8F083B4310308705703087047000005
:105A100030B5164D8FB02C68BFF35B8F14F00104C6
:105A200020D1284629F0CBF8E0B13F2301221049CC
:105A30000993104B10480893104B0A940594CDE934
:105A400006430423CDE903320A23CDE90B44009336
:105A5000CDE90144FFF704FF094829F043FC28463B
:105A600029F0B9F804480FB030BD00BF68640024C5
:105A7000345F0308645F03086C640024705F0308EC
:105A80000D5A00087047000030B5164D8FB02C68D5
:105A9000BFF35B8F14F0010420D1284629F08FF862
:105AA000E0B13F23012210490993104B104808939D
:105AB000104B0A940594CDE906430423CDE9033243
:105AC0001423CDE90B440093CDE90144FFF7C8FE50
:105AD000094829F007FC284629F07DF804480FB052
